{
  "contractName": "Bank",
  "abi": [
    {
      "inputs": [
        {
          "internalType": "address",
          "name": "",
          "type": "address"
        }
      ],
      "name": "addressToBankid",
      "outputs": [
        {
          "internalType": "uint256",
          "name": "",
          "type": "uint256"
        }
      ],
      "stateMutability": "view",
      "type": "function"
    },
    {
      "inputs": [
        {
          "internalType": "address",
          "name": "",
          "type": "address"
        }
      ],
      "name": "addressToSHGid",
      "outputs": [
        {
          "internalType": "uint256",
          "name": "",
          "type": "uint256"
        }
      ],
      "stateMutability": "view",
      "type": "function"
    },
    {
      "inputs": [
        {
          "internalType": "address",
          "name": "",
          "type": "address"
        }
      ],
      "name": "addressToUser",
      "outputs": [
        {
          "internalType": "uint256",
          "name": "",
          "type": "uint256"
        }
      ],
      "stateMutability": "view",
      "type": "function"
    },
    {
      "inputs": [
        {
          "internalType": "uint256",
          "name": "",
          "type": "uint256"
        }
      ],
      "name": "banks",
      "outputs": [
        {
          "internalType": "uint256",
          "name": "id",
          "type": "uint256"
        },
        {
          "internalType": "string",
          "name": "name",
          "type": "string"
        },
        {
          "internalType": "address",
          "name": "walletAddress",
          "type": "address"
        },
        {
          "internalType": "string",
          "name": "code",
          "type": "string"
        },
        {
          "internalType": "uint256",
          "name": "intrestRate",
          "type": "uint256"
        }
      ],
      "stateMutability": "view",
      "type": "function"
    },
    {
      "inputs": [
        {
          "internalType": "string",
          "name": "",
          "type": "string"
        },
        {
          "internalType": "uint256",
          "name": "",
          "type": "uint256"
        }
      ],
      "name": "districtToSHGs",
      "outputs": [
        {
          "internalType": "uint256",
          "name": "",
          "type": "uint256"
        }
      ],
      "stateMutability": "view",
      "type": "function"
    },
    {
      "inputs": [
        {
          "internalType": "uint256",
          "name": "",
          "type": "uint256"
        }
      ],
      "name": "loans",
      "outputs": [
        {
          "internalType": "uint256",
          "name": "loanId",
          "type": "uint256"
        },
        {
          "internalType": "uint256",
          "name": "lenderId",
          "type": "uint256"
        },
        {
          "internalType": "uint256",
          "name": "amount",
          "type": "uint256"
        },
        {
          "internalType": "uint256",
          "name": "lendeeId",
          "type": "uint256"
        },
        {
          "internalType": "uint256",
          "name": "intrest",
          "type": "uint256"
        },
        {
          "internalType": "uint256",
          "name": "loanTime",
          "type": "uint256"
        },
        {
          "internalType": "uint256",
          "name": "date",
          "type": "uint256"
        },
        {
          "internalType": "uint256",
          "name": "lastEMI",
          "type": "uint256"
        }
      ],
      "stateMutability": "view",
      "type": "function"
    },
    {
      "inputs": [
        {
          "internalType": "uint256",
          "name": "",
          "type": "uint256"
        }
      ],
      "name": "shgRequests",
      "outputs": [
        {
          "internalType": "uint256",
          "name": "requestid",
          "type": "uint256"
        },
        {
          "internalType": "uint256",
          "name": "shgid",
          "type": "uint256"
        },
        {
          "internalType": "uint256",
          "name": "amount",
          "type": "uint256"
        },
        {
          "internalType": "uint256",
          "name": "loanTime",
          "type": "uint256"
        },
        {
          "internalType": "enum structs.RequestStatus",
          "name": "status",
          "type": "uint8"
        }
      ],
      "stateMutability": "view",
      "type": "function"
    },
    {
      "inputs": [
        {
          "internalType": "uint256",
          "name": "",
          "type": "uint256"
        }
      ],
      "name": "shgs",
      "outputs": [
        {
          "internalType": "uint256",
          "name": "id",
          "type": "uint256"
        },
        {
          "internalType": "string",
          "name": "name",
          "type": "string"
        },
        {
          "components": [
            {
              "internalType": "string",
              "name": "state",
              "type": "string"
            },
            {
              "internalType": "string",
              "name": "district",
              "type": "string"
            },
            {
              "internalType": "string",
              "name": "blockName",
              "type": "string"
            },
            {
              "internalType": "string",
              "name": "panchyatName",
              "type": "string"
            },
            {
              "internalType": "string",
              "name": "villageName",
              "type": "string"
            }
          ],
          "internalType": "struct structs.Location",
          "name": "location",
          "type": "tuple"
        },
        {
          "internalType": "string",
          "name": "dateOfFormation",
          "type": "string"
        },
        {
          "internalType": "uint256",
          "name": "currentBalance",
          "type": "uint256"
        },
        {
          "internalType": "uint256",
          "name": "owedBalance",
          "type": "uint256"
        },
        {
          "internalType": "uint256",
          "name": "baseIntrest",
          "type": "uint256"
        }
      ],
      "stateMutability": "view",
      "type": "function"
    },
    {
      "inputs": [
        {
          "internalType": "uint256",
          "name": "",
          "type": "uint256"
        }
      ],
      "name": "userRequests",
      "outputs": [
        {
          "internalType": "uint256",
          "name": "requestId",
          "type": "uint256"
        },
        {
          "internalType": "uint256",
          "name": "userId",
          "type": "uint256"
        },
        {
          "internalType": "uint256",
          "name": "amount",
          "type": "uint256"
        },
        {
          "internalType": "string",
          "name": "description",
          "type": "string"
        },
        {
          "internalType": "uint256",
          "name": "SHGId",
          "type": "uint256"
        },
        {
          "internalType": "enum structs.RequestStatus",
          "name": "status",
          "type": "uint8"
        },
        {
          "internalType": "uint256",
          "name": "loanTime",
          "type": "uint256"
        }
      ],
      "stateMutability": "view",
      "type": "function"
    },
    {
      "inputs": [
        {
          "internalType": "uint256",
          "name": "",
          "type": "uint256"
        }
      ],
      "name": "users",
      "outputs": [
        {
          "internalType": "uint256",
          "name": "id",
          "type": "uint256"
        },
        {
          "internalType": "string",
          "name": "name",
          "type": "string"
        },
        {
          "internalType": "string",
          "name": "aadhar",
          "type": "string"
        },
        {
          "internalType": "uint256",
          "name": "mobno",
          "type": "uint256"
        },
        {
          "internalType": "string",
          "name": "fatherName",
          "type": "string"
        },
        {
          "internalType": "address",
          "name": "walletAddress",
          "type": "address"
        },
        {
          "internalType": "uint256",
          "name": "shgid",
          "type": "uint256"
        },
        {
          "internalType": "enum structs.UserType",
          "name": "userType",
          "type": "uint8"
        },
        {
          "internalType": "enum structs.Gender",
          "name": "gender",
          "type": "uint8"
        },
        {
          "components": [
            {
              "internalType": "string",
              "name": "state",
              "type": "string"
            },
            {
              "internalType": "string",
              "name": "district",
              "type": "string"
            },
            {
              "internalType": "string",
              "name": "blockName",
              "type": "string"
            },
            {
              "internalType": "string",
              "name": "panchyatName",
              "type": "string"
            },
            {
              "internalType": "string",
              "name": "villageName",
              "type": "string"
            }
          ],
          "internalType": "struct structs.Location",
          "name": "location",
          "type": "tuple"
        }
      ],
      "stateMutability": "view",
      "type": "function"
    },
    {
      "inputs": [
        {
          "internalType": "string",
          "name": "_name",
          "type": "string"
        },
        {
          "internalType": "address",
          "name": "_walletAddress",
          "type": "address"
        },
        {
          "internalType": "string",
          "name": "_code",
          "type": "string"
        },
        {
          "internalType": "uint256",
          "name": "_intrestRate",
          "type": "uint256"
        }
      ],
      "name": "addBank",
      "outputs": [],
      "stateMutability": "nonpayable",
      "type": "function"
    },
    {
      "inputs": [
        {
          "internalType": "uint256",
          "name": "_shgrequestid",
          "type": "uint256"
        },
        {
          "internalType": "uint256",
          "name": "_bankid",
          "type": "uint256"
        }
      ],
      "name": "approveLoan",
      "outputs": [],
      "stateMutability": "nonpayable",
      "type": "function"
    },
    {
      "inputs": [
        {
          "internalType": "uint256",
          "name": "_shgrequestid",
          "type": "uint256"
        },
        {
          "internalType": "uint256",
          "name": "_bankid",
          "type": "uint256"
        },
        {
          "internalType": "uint256",
          "name": "_amount",
          "type": "uint256"
        }
      ],
      "name": "grantLoan",
      "outputs": [],
      "stateMutability": "nonpayable",
      "type": "function"
    },
    {
      "inputs": [
        {
          "internalType": "uint256",
          "name": "_bankid",
          "type": "uint256"
        },
        {
          "internalType": "uint256",
          "name": "_requestid",
          "type": "uint256"
        },
        {
          "internalType": "uint256",
          "name": "_amount",
          "type": "uint256"
        }
      ],
      "name": "shgLoan",
      "outputs": [],
      "stateMutability": "payable",
      "type": "function"
    }
  ],
  "bytecode": "0x608060405234801561001057600080fd5b5061219a806100206000396000f3fe6080604052600436106100dc5760003560e01c80633cec42721161007f57806394169656116100595780639416965614610311578063db223b4c14610354578063e1ec3c681461037d578063edf53886146103c1576100dc565b80633cec42721461026e57806361c91b70146102ab5780637a646492146102e8576100dc565b8063257a170b116100bb578063257a170b1461016757806326271cf2146101a8578063365b98b2146101eb5780633ae0058f14610231576100dc565b806285ae2b146100e157806314795ce314610122578063249c4bff1461014b575b600080fd5b3480156100ed57600080fd5b50610108600480360381019061010391906118b9565b6103fe565b604051610119959493929190611ad7565b60405180910390f35b34801561012e57600080fd5b50610149600480360381019061014491906117d2565b610564565b005b6101656004803603810190610160919061191e565b610744565b005b34801561017357600080fd5b5061018e600480360381019061018991906118b9565b61094d565b60405161019f959493929190611cea565b60405180910390f35b3480156101b457600080fd5b506101cf60048036038101906101ca91906118b9565b610990565b6040516101e29796959493929190611bf0565b60405180910390f35b3480156101f757600080fd5b50610212600480360381019061020d91906118b9565b610dc6565b6040516102289a99989796959493929190611b38565b60405180910390f35b34801561023d57600080fd5b50610258600480360381019061025391906117a9565b6112d0565b6040516102659190611abc565b60405180910390f35b34801561027a57600080fd5b5061029560048036038101906102909190611865565b6112e8565b6040516102a29190611abc565b60405180910390f35b3480156102b757600080fd5b506102d260048036038101906102cd91906117a9565b61132f565b6040516102df9190611abc565b60405180910390f35b3480156102f457600080fd5b5061030f600480360381019061030a91906118e2565b611347565b005b34801561031d57600080fd5b50610338600480360381019061033391906118b9565b6113d6565b60405161034b9796959493929190611c74565b60405180910390f35b34801561036057600080fd5b5061037b6004803603810190610376919061191e565b6114ad565b005b34801561038957600080fd5b506103a4600480360381019061039f91906118b9565b6115c7565b6040516103b8989796959493929190611d3d565b60405180910390f35b3480156103cd57600080fd5b506103e860048036038101906103e391906117a9565b61160f565b6040516103f59190611abc565b60405180910390f35b600360205280600052604060002060009150905080600001549080600101805461042790611f81565b80601f016020809104026020016040519081016040528092919081815260200182805461045390611f81565b80156104a05780601f10610475576101008083540402835291602001916104a0565b820191906000526020600020905b81548152906001019060200180831161048357829003601f168201915b5050505050908060020160009054906101000a900473ffffffffffffffffffffffffffffffffffffffff16908060030180546104db90611f81565b80601f016020809104026020016040519081016040528092919081815260200182805461050790611f81565b80156105545780601f1061052957610100808354040283529160200191610554565b820191906000526020600020905b81548152906001019060200180831161053757829003601f168201915b5050505050908060040154905085565b6000600e6000815461057590611fe4565b91905081905590506040518060c001604052808281526020018681526020018573ffffffffffffffffffffffffffffffffffffffff168152602001848152602001838152602001600067ffffffffffffffff8111156105fd577f4e487b7100000000000000000000000000000000000000000000000000000000600052604160045260246000fd5b60405190808252806020026020018201604052801561062b5781602001602082028036833780820191505090505b5081525060036000838152602001908152602001600020600082015181600001556020820151816001019080519060200190610668929190611627565b5060408201518160020160006101000a81548173ffffffffffffffffffffffffffffffffffffffff021916908373ffffffffffffffffffffffffffffffffffffffff16021790555060608201518160030190805190602001906106cc929190611627565b506080820151816004015560a08201518160050190805190602001906106f39291906116ad565b50905050600e54600960008673ffffffffffffffffffffffffffffffffffffffff1673ffffffffffffffffffffffffffffffffffffffff168152602001908152602001600020819055505050505050565b8260006003600083815260200190815260200160002060000154141561076957600080fd5b6000604051806101000160405280600f6000815461078690611fe4565b9190508190558152602001600760008781526020019081526020016000206001015481526020018481526020018681526020016003600088815260200190815260200160002060040154815260200160076000878152602001908152602001600020600301548152602001428152602001600081525090506001600060076000878152602001908152602001600020600101548152602001908152602001600020600c01600f5490806001815401808255809150506001900390600052602060002001600090919091909150553073ffffffffffffffffffffffffffffffffffffffff166108fc849081150290604051600060405180830381858888f19350505050158015610899573d6000803e3d6000fd5b5082600160006007600088815260200190815260200160002060010154815260200190815260200160002060090160008282546108d69190611e3e565b925050819055508060056000600f548152602001908152602001600020600082015181600001556020820151816001015560408201518160020155606082015181600301556080820151816004015560a0820151816005015560c0820151816006015560e082015181600701559050505050505050565b60076020528060005260406000206000915090508060000154908060010154908060020154908060030154908060040160009054906101000a900460ff16905085565b60016020528060005260406000206000915090508060000154908060020180546109b990611f81565b80601f01602080910402602001604051908101604052809291908181526020018280546109e590611f81565b8015610a325780601f10610a0757610100808354040283529160200191610a32565b820191906000526020600020905b815481529060010190602001808311610a1557829003601f168201915b505050505090806003016040518060a0016040529081600082018054610a5790611f81565b80601f0160208091040260200160405190810160405280929190818152602001828054610a8390611f81565b8015610ad05780601f10610aa557610100808354040283529160200191610ad0565b820191906000526020600020905b815481529060010190602001808311610ab357829003601f168201915b50505050508152602001600182018054610ae990611f81565b80601f0160208091040260200160405190810160405280929190818152602001828054610b1590611f81565b8015610b625780601f10610b3757610100808354040283529160200191610b62565b820191906000526020600020905b815481529060010190602001808311610b4557829003601f168201915b50505050508152602001600282018054610b7b90611f81565b80601f0160208091040260200160405190810160405280929190818152602001828054610ba790611f81565b8015610bf45780601f10610bc957610100808354040283529160200191610bf4565b820191906000526020600020905b815481529060010190602001808311610bd757829003601f168201915b50505050508152602001600382018054610c0d90611f81565b80601f0160208091040260200160405190810160405280929190818152602001828054610c3990611f81565b8015610c865780601f10610c5b57610100808354040283529160200191610c86565b820191906000526020600020905b815481529060010190602001808311610c6957829003601f168201915b50505050508152602001600482018054610c9f90611f81565b80601f0160208091040260200160405190810160405280929190818152602001828054610ccb90611f81565b8015610d185780601f10610ced57610100808354040283529160200191610d18565b820191906000526020600020905b815481529060010190602001808311610cfb57829003601f168201915b50505050508152505090806008018054610d3190611f81565b80601f0160208091040260200160405190810160405280929190818152602001828054610d5d90611f81565b8015610daa5780601f10610d7f57610100808354040283529160200191610daa565b820191906000526020600020905b815481529060010190602001808311610d8d57829003601f168201915b50505050509080600901549080600a01549080600d0154905087565b6000602052806000526040600020600091509050806000015490806001018054610def90611f81565b80601f0160208091040260200160405190810160405280929190818152602001828054610e1b90611f81565b8015610e685780601f10610e3d57610100808354040283529160200191610e68565b820191906000526020600020905b815481529060010190602001808311610e4b57829003601f168201915b505050505090806002018054610e7d90611f81565b80601f0160208091040260200160405190810160405280929190818152602001828054610ea990611f81565b8015610ef65780601f10610ecb57610100808354040283529160200191610ef6565b820191906000526020600020905b815481529060010190602001808311610ed957829003601f168201915b505050505090806003015490806004018054610f1190611f81565b80601f0160208091040260200160405190810160405280929190818152602001828054610f3d90611f81565b8015610f8a5780601f10610f5f57610100808354040283529160200191610f8a565b820191906000526020600020905b815481529060010190602001808311610f6d57829003601f168201915b5050505050908060050160009054906101000a900473ffffffffffffffffffffffffffffffffffffffff16908060080154908060090160009054906101000a900460ff16908060090160019054906101000a900460ff169080600a016040518060a001604052908160008201805461100190611f81565b80601f016020809104026020016040519081016040528092919081815260200182805461102d90611f81565b801561107a5780601f1061104f5761010080835404028352916020019161107a565b820191906000526020600020905b81548152906001019060200180831161105d57829003601f168201915b5050505050815260200160018201805461109390611f81565b80601f01602080910402602001604051908101604052809291908181526020018280546110bf90611f81565b801561110c5780601f106110e15761010080835404028352916020019161110c565b820191906000526020600020905b8154815290600101906020018083116110ef57829003601f168201915b5050505050815260200160028201805461112590611f81565b80601f016020809104026020016040519081016040528092919081815260200182805461115190611f81565b801561119e5780601f106111735761010080835404028352916020019161119e565b820191906000526020600020905b81548152906001019060200180831161118157829003601f168201915b505050505081526020016003820180546111b790611f81565b80601f01602080910402602001604051908101604052809291908181526020018280546111e390611f81565b80156112305780601f1061120557610100808354040283529160200191611230565b820191906000526020600020905b81548152906001019060200180831161121357829003601f168201915b5050505050815260200160048201805461124990611f81565b80601f016020809104026020016040519081016040528092919081815260200182805461127590611f81565b80156112c25780601f10611297576101008083540402835291602001916112c2565b820191906000526020600020905b8154815290600101906020018083116112a557829003601f168201915b50505050508152505090508a565b60086020528060005260406000206000915090505481565b600282805160208101820180518482526020830160208501208183528095505050505050818154811061131a57600080fd5b90600052602060002001600091509150505481565b60096020528060005260406000206000915090505481565b8060006003600083815260200190815260200160002060000154141561136c57600080fd5b60006007600085815260200190815260200160002060040160006101000a81548160ff021916908360038111156113cc577f4e487b7100000000000000000000000000000000000000000000000000000000600052602160045260246000fd5b0217905550505050565b600660205280600052604060002060009150905080600001549080600101549080600201549080600301805461140b90611f81565b80601f016020809104026020016040519081016040528092919081815260200182805461143790611f81565b80156114845780601f1061145957610100808354040283529160200191611484565b820191906000526020600020905b81548152906001019060200180831161146757829003601f168201915b5050505050908060040154908060050160009054906101000a900460ff16908060060154905087565b816000600360008381526020019081526020016000206000015414156114d257600080fd5b3073ffffffffffffffffffffffffffffffffffffffff166108fc839081150290604051600060405180830381858888f19350505050158015611518573d6000803e3d6000fd5b5060016007600086815260200190815260200160002060040160006101000a81548160ff02191690836003811115611579577f4e487b7100000000000000000000000000000000000000000000000000000000600052602160045260246000fd5b021790555081600160006007600088815260200190815260200160002060010154815260200190815260200160002060090160008282546115ba9190611e3e565b9250508190555050505050565b60056020528060005260406000206000915090508060000154908060010154908060020154908060030154908060040154908060050154908060060154908060070154905088565b60046020528060005260406000206000915090505481565b82805461163390611f81565b90600052602060002090601f016020900481019282611655576000855561169c565b82601f1061166e57805160ff191683800117855561169c565b8280016001018555821561169c579182015b8281111561169b578251825591602001919060010190611680565b5b5090506116a991906116fa565b5090565b8280548282559060005260206000209081019282156116e9579160200282015b828111156116e85782518255916020019190600101906116cd565b5b5090506116f691906116fa565b5090565b5b808211156117135760008160009055506001016116fb565b5090565b600061172a61172584611de0565b611dbb565b90508281526020810184848401111561174257600080fd5b61174d848285611f3f565b509392505050565b60008135905061176481612136565b92915050565b600082601f83011261177b57600080fd5b813561178b848260208601611717565b91505092915050565b6000813590506117a38161214d565b92915050565b6000602082840312156117bb57600080fd5b60006117c984828501611755565b91505092915050565b600080600080608085870312156117e857600080fd5b600085013567ffffffffffffffff81111561180257600080fd5b61180e8782880161176a565b945050602061181f87828801611755565b935050604085013567ffffffffffffffff81111561183c57600080fd5b6118488782880161176a565b925050606061185987828801611794565b91505092959194509250565b6000806040838503121561187857600080fd5b600083013567ffffffffffffffff81111561189257600080fd5b61189e8582860161176a565b92505060206118af85828601611794565b9150509250929050565b6000602082840312156118cb57600080fd5b60006118d984828501611794565b91505092915050565b600080604083850312156118f557600080fd5b600061190385828601611794565b925050602061191485828601611794565b9150509250929050565b60008060006060848603121561193357600080fd5b600061194186828701611794565b935050602061195286828701611794565b925050604061196386828701611794565b9150509250925092565b61197681611e94565b82525050565b61198581611f09565b82525050565b61199481611f1b565b82525050565b6119a381611f2d565b82525050565b60006119b482611e11565b6119be8185611e1c565b93506119ce818560208601611f4e565b6119d7816120e9565b840191505092915050565b60006119ed82611e11565b6119f78185611e2d565b9350611a07818560208601611f4e565b611a10816120e9565b840191505092915050565b600060a0830160008301518482036000860152611a3882826119a9565b91505060208301518482036020860152611a5282826119a9565b91505060408301518482036040860152611a6c82826119a9565b91505060608301518482036060860152611a8682826119a9565b91505060808301518482036080860152611aa082826119a9565b9150508091505092915050565b611ab681611eff565b82525050565b6000602082019050611ad16000830184611aad565b92915050565b600060a082019050611aec6000830188611aad565b8181036020830152611afe81876119e2565b9050611b0d604083018661196d565b8181036060830152611b1f81856119e2565b9050611b2e6080830184611aad565b9695505050505050565b600061014082019050611b4e600083018d611aad565b8181036020830152611b60818c6119e2565b90508181036040830152611b74818b6119e2565b9050611b83606083018a611aad565b8181036080830152611b9581896119e2565b9050611ba460a083018861196d565b611bb160c0830187611aad565b611bbe60e083018661199a565b611bcc61010083018561197c565b818103610120830152611bdf8184611a1b565b90509b9a5050505050505050505050565b600060e082019050611c05600083018a611aad565b8181036020830152611c1781896119e2565b90508181036040830152611c2b8188611a1b565b90508181036060830152611c3f81876119e2565b9050611c4e6080830186611aad565b611c5b60a0830185611aad565b611c6860c0830184611aad565b98975050505050505050565b600060e082019050611c89600083018a611aad565b611c966020830189611aad565b611ca36040830188611aad565b8181036060830152611cb581876119e2565b9050611cc46080830186611aad565b611cd160a083018561198b565b611cde60c0830184611aad565b98975050505050505050565b600060a082019050611cff6000830188611aad565b611d0c6020830187611aad565b611d196040830186611aad565b611d266060830185611aad565b611d33608083018461198b565b9695505050505050565b600061010082019050611d53600083018b611aad565b611d60602083018a611aad565b611d6d6040830189611aad565b611d7a6060830188611aad565b611d876080830187611aad565b611d9460a0830186611aad565b611da160c0830185611aad565b611dae60e0830184611aad565b9998505050505050505050565b6000611dc5611dd6565b9050611dd18282611fb3565b919050565b6000604051905090565b600067ffffffffffffffff821115611dfb57611dfa6120ba565b5b611e04826120e9565b9050602081019050919050565b600081519050919050565b600082825260208201905092915050565b600082825260208201905092915050565b6000611e4982611eff565b9150611e5483611eff565b9250827fffffffffffffffffffffffffffffffffffffffffffffffffffffffffffffffff03821115611e8957611e8861202d565b5b828201905092915050565b6000611e9f82611edf565b9050919050565b6000819050611eb4826120fa565b919050565b6000819050611ec78261210e565b919050565b6000819050611eda82612122565b919050565b600073ffffffffffffffffffffffffffffffffffffffff82169050919050565b6000819050919050565b6000611f1482611ea6565b9050919050565b6000611f2682611eb9565b9050919050565b6000611f3882611ecc565b9050919050565b82818337600083830152505050565b60005b83811015611f6c578082015181840152602081019050611f51565b83811115611f7b576000848401525b50505050565b60006002820490506001821680611f9957607f821691505b60208210811415611fad57611fac61208b565b5b50919050565b611fbc826120e9565b810181811067ffffffffffffffff82111715611fdb57611fda6120ba565b5b80604052505050565b6000611fef82611eff565b91507fffffffffffffffffffffffffffffffffffffffffffffffffffffffffffffffff8214156120225761202161202d565b5b600182019050919050565b7f4e487b7100000000000000000000000000000000000000000000000000000000600052601160045260246000fd5b7f4e487b7100000000000000000000000000000000000000000000000000000000600052602160045260246000fd5b7f4e487b7100000000000000000000000000000000000000000000000000000000600052602260045260246000fd5b7f4e487b7100000000000000000000000000000000000000000000000000000000600052604160045260246000fd5b6000601f19601f8301169050919050565b6003811061210b5761210a61205c565b5b50565b6004811061211f5761211e61205c565b5b50565b600681106121335761213261205c565b5b50565b61213f81611e94565b811461214a57600080fd5b50565b61215681611eff565b811461216157600080fd5b5056fea2646970667358221220b2dc266de4d250f3d26599a3f23aa424ea0c0a5053f49168f4ee0fe550b5261e64736f6c63430008040033",
  "immutableReferences": {},
  "source": "// SPDX-License-Identifier: MIT\npragma solidity ^0.8.1;\nimport \"./structs.sol\";\nimport \"./modifiers.sol\";\n\ncontract Bank is structs, modifiers {\n    function addBank(\n        string memory _name,\n        address _walletAddress,\n        string memory _code,\n        uint256 _intrestRate\n    ) public {\n        uint256 id = ++numBanks;\n        banks[id] = Bank(\n            id,\n            _name,\n            _walletAddress,\n            _code,\n            _intrestRate,\n            new uint256[](0)\n        );\n\n        addressToBankid[_walletAddress] = numBanks;\n    }\n\n    function approveLoan(uint256 _shgrequestid, uint256 _bankid)\n        public\n        onlyBank(_bankid)\n    {\n        shgRequests[_shgrequestid].status = RequestStatus.APPROVED;\n    }\n\n    function grantLoan(\n        uint256 _shgrequestid,\n        uint256 _bankid,\n        uint256 _amount\n    ) public onlyBank(_bankid) {\n        payable(address(this)).transfer(_amount);\n        shgRequests[_shgrequestid].status = RequestStatus.COMPLETED;\n        shgs[shgRequests[_shgrequestid].shgid].currentBalance += _amount;\n    }\n\n    function shgLoan(\n        uint256 _bankid,\n        uint256 _requestid,\n        uint256 _amount\n    ) public payable onlyBank(_bankid) {\n        Loan memory newLoan = Loan({\n            loanId: ++numLoans,\n            lenderId: shgRequests[_requestid].shgid,\n            amount: _amount,\n            lendeeId: _bankid,\n            intrest: banks[_bankid].intrestRate,\n            loanTime: shgRequests[_requestid].loanTime,\n            date: block.timestamp,\n            lastEMI: 0\n        });\n\n        shgs[shgRequests[_requestid].shgid].loansTaken.push(numLoans);\n\n        payable(address(this)).transfer(_amount);\n        shgs[shgRequests[_requestid].shgid].currentBalance += _amount;\n        loans[numLoans] = newLoan;\n    }\n}\n",
  "sourcePath": "/home/sdas/code/yogdaan-contracts/contracts/lib/Bank.sol",
  "compiler": {
    "name": "solc",
    "version": "0.8.4+commit.c7e474f2.Emscripten.clang"
  },
  "schemaVersion": "3.4.9",
  "updatedAt": "2022-08-25T19:03:08.991Z",
  "devdoc": {
    "kind": "dev",
    "methods": {},
    "version": 1
  },
  "userdoc": {
    "kind": "user",
    "methods": {},
    "version": 1
  }
}