{
  "contractName": "Bank",
  "abi": [
    {
      "inputs": [
        {
          "internalType": "address",
          "name": "",
          "type": "address"
        }
      ],
      "name": "addressToBankid",
      "outputs": [
        {
          "internalType": "uint256",
          "name": "",
          "type": "uint256"
        }
      ],
      "stateMutability": "view",
      "type": "function"
    },
    {
      "inputs": [
        {
          "internalType": "address",
          "name": "",
          "type": "address"
        }
      ],
      "name": "addressToSHGid",
      "outputs": [
        {
          "internalType": "uint256",
          "name": "",
          "type": "uint256"
        }
      ],
      "stateMutability": "view",
      "type": "function"
    },
    {
      "inputs": [
        {
          "internalType": "address",
          "name": "",
          "type": "address"
        }
      ],
      "name": "addressToUser",
      "outputs": [
        {
          "internalType": "uint256",
          "name": "",
          "type": "uint256"
        }
      ],
      "stateMutability": "view",
      "type": "function"
    },
    {
      "inputs": [
        {
          "internalType": "uint256",
          "name": "",
          "type": "uint256"
        }
      ],
      "name": "banks",
      "outputs": [
        {
          "internalType": "uint256",
          "name": "id",
          "type": "uint256"
        },
        {
          "internalType": "string",
          "name": "name",
          "type": "string"
        },
        {
          "internalType": "address",
          "name": "walletAddress",
          "type": "address"
        },
        {
          "internalType": "string",
          "name": "code",
          "type": "string"
        },
        {
          "internalType": "uint256",
          "name": "intrestRate",
          "type": "uint256"
        }
      ],
      "stateMutability": "view",
      "type": "function"
    },
    {
      "inputs": [
        {
          "internalType": "uint256",
          "name": "",
          "type": "uint256"
        }
      ],
      "name": "loans",
      "outputs": [
        {
          "internalType": "uint256",
          "name": "loanId",
          "type": "uint256"
        },
        {
          "internalType": "uint256",
          "name": "lenderId",
          "type": "uint256"
        },
        {
          "internalType": "uint256",
          "name": "amount",
          "type": "uint256"
        },
        {
          "internalType": "uint256",
          "name": "lendeeId",
          "type": "uint256"
        },
        {
          "internalType": "uint256",
          "name": "intrest",
          "type": "uint256"
        },
        {
          "internalType": "uint256",
          "name": "loanTime",
          "type": "uint256"
        },
        {
          "internalType": "uint256",
          "name": "date",
          "type": "uint256"
        },
        {
          "internalType": "uint256",
          "name": "lastEMI",
          "type": "uint256"
        }
      ],
      "stateMutability": "view",
      "type": "function"
    },
    {
      "inputs": [
        {
          "internalType": "uint256",
          "name": "",
          "type": "uint256"
        }
      ],
      "name": "shgRequests",
      "outputs": [
        {
          "internalType": "uint256",
          "name": "requestid",
          "type": "uint256"
        },
        {
          "internalType": "uint256",
          "name": "shgid",
          "type": "uint256"
        },
        {
          "internalType": "uint256",
          "name": "amount",
          "type": "uint256"
        },
        {
          "internalType": "uint256",
          "name": "loanTime",
          "type": "uint256"
        },
        {
          "internalType": "enum structs.RequestStatus",
          "name": "status",
          "type": "uint8"
        }
      ],
      "stateMutability": "view",
      "type": "function"
    },
    {
      "inputs": [
        {
          "internalType": "uint256",
          "name": "",
          "type": "uint256"
        }
      ],
      "name": "shgs",
      "outputs": [
        {
          "internalType": "uint256",
          "name": "id",
          "type": "uint256"
        },
        {
          "internalType": "string",
          "name": "name",
          "type": "string"
        },
        {
          "components": [
            {
              "internalType": "string",
              "name": "state",
              "type": "string"
            },
            {
              "internalType": "string",
              "name": "district",
              "type": "string"
            },
            {
              "internalType": "string",
              "name": "blockName",
              "type": "string"
            },
            {
              "internalType": "string",
              "name": "panchyatName",
              "type": "string"
            },
            {
              "internalType": "string",
              "name": "villageName",
              "type": "string"
            }
          ],
          "internalType": "struct structs.Location",
          "name": "location",
          "type": "tuple"
        },
        {
          "internalType": "string",
          "name": "dateOfFormation",
          "type": "string"
        },
        {
          "internalType": "uint256",
          "name": "currentBalance",
          "type": "uint256"
        },
        {
          "internalType": "uint256",
          "name": "owedBalance",
          "type": "uint256"
        },
        {
          "internalType": "uint256",
          "name": "baseIntrest",
          "type": "uint256"
        }
      ],
      "stateMutability": "view",
      "type": "function"
    },
    {
      "inputs": [
        {
          "internalType": "uint256",
          "name": "",
          "type": "uint256"
        }
      ],
      "name": "userRequests",
      "outputs": [
        {
          "internalType": "uint256",
          "name": "requestId",
          "type": "uint256"
        },
        {
          "internalType": "uint256",
          "name": "userId",
          "type": "uint256"
        },
        {
          "internalType": "uint256",
          "name": "amount",
          "type": "uint256"
        },
        {
          "internalType": "string",
          "name": "description",
          "type": "string"
        },
        {
          "internalType": "uint256",
          "name": "SHGId",
          "type": "uint256"
        },
        {
          "internalType": "enum structs.RequestStatus",
          "name": "status",
          "type": "uint8"
        },
        {
          "internalType": "uint256",
          "name": "loanTime",
          "type": "uint256"
        }
      ],
      "stateMutability": "view",
      "type": "function"
    },
    {
      "inputs": [
        {
          "internalType": "uint256",
          "name": "",
          "type": "uint256"
        }
      ],
      "name": "users",
      "outputs": [
        {
          "internalType": "uint256",
          "name": "id",
          "type": "uint256"
        },
        {
          "internalType": "string",
          "name": "name",
          "type": "string"
        },
        {
          "internalType": "string",
          "name": "aadhar",
          "type": "string"
        },
        {
          "internalType": "uint256",
          "name": "mobno",
          "type": "uint256"
        },
        {
          "internalType": "string",
          "name": "fatherName",
          "type": "string"
        },
        {
          "internalType": "address",
          "name": "walletAddress",
          "type": "address"
        },
        {
          "internalType": "uint256",
          "name": "shgid",
          "type": "uint256"
        },
        {
          "internalType": "enum structs.UserType",
          "name": "userType",
          "type": "uint8"
        },
        {
          "internalType": "enum structs.Gender",
          "name": "gender",
          "type": "uint8"
        },
        {
          "components": [
            {
              "internalType": "string",
              "name": "state",
              "type": "string"
            },
            {
              "internalType": "string",
              "name": "district",
              "type": "string"
            },
            {
              "internalType": "string",
              "name": "blockName",
              "type": "string"
            },
            {
              "internalType": "string",
              "name": "panchyatName",
              "type": "string"
            },
            {
              "internalType": "string",
              "name": "villageName",
              "type": "string"
            }
          ],
          "internalType": "struct structs.Location",
          "name": "location",
          "type": "tuple"
        }
      ],
      "stateMutability": "view",
      "type": "function"
    },
    {
      "inputs": [
        {
          "internalType": "string",
          "name": "_name",
          "type": "string"
        },
        {
          "internalType": "address",
          "name": "_walletAddress",
          "type": "address"
        },
        {
          "internalType": "string",
          "name": "_code",
          "type": "string"
        },
        {
          "internalType": "uint256",
          "name": "_intrestRate",
          "type": "uint256"
        }
      ],
      "name": "addBank",
      "outputs": [],
      "stateMutability": "nonpayable",
      "type": "function"
    },
    {
      "inputs": [
        {
          "internalType": "uint256",
          "name": "_shgrequestid",
          "type": "uint256"
        },
        {
          "internalType": "uint256",
          "name": "_bankid",
          "type": "uint256"
        }
      ],
      "name": "approveLoan",
      "outputs": [],
      "stateMutability": "nonpayable",
      "type": "function"
    },
    {
      "inputs": [
        {
          "internalType": "uint256",
          "name": "_shgrequestid",
          "type": "uint256"
        },
        {
          "internalType": "uint256",
          "name": "_bankid",
          "type": "uint256"
        },
        {
          "internalType": "uint256",
          "name": "_amount",
          "type": "uint256"
        }
      ],
      "name": "grantLoan",
      "outputs": [],
      "stateMutability": "nonpayable",
      "type": "function"
    },
    {
      "inputs": [
        {
          "internalType": "uint256",
          "name": "_bankid",
          "type": "uint256"
        },
        {
          "internalType": "uint256",
          "name": "_requestid",
          "type": "uint256"
        },
        {
          "internalType": "uint256",
          "name": "_amount",
          "type": "uint256"
        }
      ],
      "name": "shgLoan",
      "outputs": [],
      "stateMutability": "payable",
      "type": "function"
    }
  ],
  "bytecode": "0x608060405234801561001057600080fd5b506120a7806100206000396000f3fe6080604052600436106100c15760003560e01c80633ae0058f1161007f578063941696561161005957806394169656146102b9578063db223b4c146102fc578063e1ec3c6814610325578063edf5388614610369576100c1565b80633ae0058f1461021657806361c91b70146102535780637a64649214610290576100c1565b806285ae2b146100c657806314795ce314610107578063249c4bff14610130578063257a170b1461014c57806326271cf21461018d578063365b98b2146101d0575b600080fd5b3480156100d257600080fd5b506100ed60048036038101906100e891906117c6565b6103a6565b6040516100fe9594939291906119e4565b60405180910390f35b34801561011357600080fd5b5061012e60048036038101906101299190611733565b61050c565b005b61014a6004803603810190610145919061182b565b6106ec565b005b34801561015857600080fd5b50610173600480360381019061016e91906117c6565b6108f5565b604051610184959493929190611bf7565b60405180910390f35b34801561019957600080fd5b506101b460048036038101906101af91906117c6565b610938565b6040516101c79796959493929190611afd565b60405180910390f35b3480156101dc57600080fd5b506101f760048036038101906101f291906117c6565b610d6e565b60405161020d9a99989796959493929190611a45565b60405180910390f35b34801561022257600080fd5b5061023d6004803603810190610238919061170a565b611278565b60405161024a91906119c9565b60405180910390f35b34801561025f57600080fd5b5061027a6004803603810190610275919061170a565b611290565b60405161028791906119c9565b60405180910390f35b34801561029c57600080fd5b506102b760048036038101906102b291906117ef565b6112a8565b005b3480156102c557600080fd5b506102e060048036038101906102db91906117c6565b611337565b6040516102f39796959493929190611b81565b60405180910390f35b34801561030857600080fd5b50610323600480360381019061031e919061182b565b61140e565b005b34801561033157600080fd5b5061034c600480360381019061034791906117c6565b611528565b604051610360989796959493929190611c4a565b60405180910390f35b34801561037557600080fd5b50610390600480360381019061038b919061170a565b611570565b60405161039d91906119c9565b60405180910390f35b60026020528060005260406000206000915090508060000154908060010180546103cf90611e8e565b80601f01602080910402602001604051908101604052809291908181526020018280546103fb90611e8e565b80156104485780601f1061041d57610100808354040283529160200191610448565b820191906000526020600020905b81548152906001019060200180831161042b57829003601f168201915b5050505050908060020160009054906101000a900473ffffffffffffffffffffffffffffffffffffffff169080600301805461048390611e8e565b80601f01602080910402602001604051908101604052809291908181526020018280546104af90611e8e565b80156104fc5780601f106104d1576101008083540402835291602001916104fc565b820191906000526020600020905b8154815290600101906020018083116104df57829003601f168201915b5050505050908060040154905085565b6000600d6000815461051d90611ef1565b91905081905590506040518060c001604052808281526020018681526020018573ffffffffffffffffffffffffffffffffffffffff168152602001848152602001838152602001600067ffffffffffffffff8111156105a5577f4e487b7100000000000000000000000000000000000000000000000000000000600052604160045260246000fd5b6040519080825280602002602001820160405280156105d35781602001602082028036833780820191505090505b5081525060026000838152602001908152602001600020600082015181600001556020820151816001019080519060200190610610929190611588565b5060408201518160020160006101000a81548173ffffffffffffffffffffffffffffffffffffffff021916908373ffffffffffffffffffffffffffffffffffffffff1602179055506060820151816003019080519060200190610674929190611588565b506080820151816004015560a082015181600501908051906020019061069b92919061160e565b50905050600d54600860008673ffffffffffffffffffffffffffffffffffffffff1673ffffffffffffffffffffffffffffffffffffffff168152602001908152602001600020819055505050505050565b8260006002600083815260200190815260200160002060000154141561071157600080fd5b6000604051806101000160405280600e6000815461072e90611ef1565b9190508190558152602001600660008781526020019081526020016000206001015481526020018481526020018681526020016002600088815260200190815260200160002060040154815260200160066000878152602001908152602001600020600301548152602001428152602001600081525090506001600060066000878152602001908152602001600020600101548152602001908152602001600020600c01600e5490806001815401808255809150506001900390600052602060002001600090919091909150553073ffffffffffffffffffffffffffffffffffffffff166108fc849081150290604051600060405180830381858888f19350505050158015610841573d6000803e3d6000fd5b50826001600060066000888152602001908152602001600020600101548152602001908152602001600020600901600082825461087e9190611d4b565b925050819055508060046000600e548152602001908152602001600020600082015181600001556020820151816001015560408201518160020155606082015181600301556080820151816004015560a0820151816005015560c0820151816006015560e082015181600701559050505050505050565b60066020528060005260406000206000915090508060000154908060010154908060020154908060030154908060040160009054906101000a900460ff16905085565b600160205280600052604060002060009150905080600001549080600201805461096190611e8e565b80601f016020809104026020016040519081016040528092919081815260200182805461098d90611e8e565b80156109da5780601f106109af576101008083540402835291602001916109da565b820191906000526020600020905b8154815290600101906020018083116109bd57829003601f168201915b505050505090806003016040518060a00160405290816000820180546109ff90611e8e565b80601f0160208091040260200160405190810160405280929190818152602001828054610a2b90611e8e565b8015610a785780601f10610a4d57610100808354040283529160200191610a78565b820191906000526020600020905b815481529060010190602001808311610a5b57829003601f168201915b50505050508152602001600182018054610a9190611e8e565b80601f0160208091040260200160405190810160405280929190818152602001828054610abd90611e8e565b8015610b0a5780601f10610adf57610100808354040283529160200191610b0a565b820191906000526020600020905b815481529060010190602001808311610aed57829003601f168201915b50505050508152602001600282018054610b2390611e8e565b80601f0160208091040260200160405190810160405280929190818152602001828054610b4f90611e8e565b8015610b9c5780601f10610b7157610100808354040283529160200191610b9c565b820191906000526020600020905b815481529060010190602001808311610b7f57829003601f168201915b50505050508152602001600382018054610bb590611e8e565b80601f0160208091040260200160405190810160405280929190818152602001828054610be190611e8e565b8015610c2e5780601f10610c0357610100808354040283529160200191610c2e565b820191906000526020600020905b815481529060010190602001808311610c1157829003601f168201915b50505050508152602001600482018054610c4790611e8e565b80601f0160208091040260200160405190810160405280929190818152602001828054610c7390611e8e565b8015610cc05780601f10610c9557610100808354040283529160200191610cc0565b820191906000526020600020905b815481529060010190602001808311610ca357829003601f168201915b50505050508152505090806008018054610cd990611e8e565b80601f0160208091040260200160405190810160405280929190818152602001828054610d0590611e8e565b8015610d525780601f10610d2757610100808354040283529160200191610d52565b820191906000526020600020905b815481529060010190602001808311610d3557829003601f168201915b50505050509080600901549080600a01549080600d0154905087565b6000602052806000526040600020600091509050806000015490806001018054610d9790611e8e565b80601f0160208091040260200160405190810160405280929190818152602001828054610dc390611e8e565b8015610e105780601f10610de557610100808354040283529160200191610e10565b820191906000526020600020905b815481529060010190602001808311610df357829003601f168201915b505050505090806002018054610e2590611e8e565b80601f0160208091040260200160405190810160405280929190818152602001828054610e5190611e8e565b8015610e9e5780601f10610e7357610100808354040283529160200191610e9e565b820191906000526020600020905b815481529060010190602001808311610e8157829003601f168201915b505050505090806003015490806004018054610eb990611e8e565b80601f0160208091040260200160405190810160405280929190818152602001828054610ee590611e8e565b8015610f325780601f10610f0757610100808354040283529160200191610f32565b820191906000526020600020905b815481529060010190602001808311610f1557829003601f168201915b5050505050908060050160009054906101000a900473ffffffffffffffffffffffffffffffffffffffff16908060080154908060090160009054906101000a900460ff16908060090160019054906101000a900460ff169080600a016040518060a0016040529081600082018054610fa990611e8e565b80601f0160208091040260200160405190810160405280929190818152602001828054610fd590611e8e565b80156110225780601f10610ff757610100808354040283529160200191611022565b820191906000526020600020905b81548152906001019060200180831161100557829003601f168201915b5050505050815260200160018201805461103b90611e8e565b80601f016020809104026020016040519081016040528092919081815260200182805461106790611e8e565b80156110b45780601f10611089576101008083540402835291602001916110b4565b820191906000526020600020905b81548152906001019060200180831161109757829003601f168201915b505050505081526020016002820180546110cd90611e8e565b80601f01602080910402602001604051908101604052809291908181526020018280546110f990611e8e565b80156111465780601f1061111b57610100808354040283529160200191611146565b820191906000526020600020905b81548152906001019060200180831161112957829003601f168201915b5050505050815260200160038201805461115f90611e8e565b80601f016020809104026020016040519081016040528092919081815260200182805461118b90611e8e565b80156111d85780601f106111ad576101008083540402835291602001916111d8565b820191906000526020600020905b8154815290600101906020018083116111bb57829003601f168201915b505050505081526020016004820180546111f190611e8e565b80601f016020809104026020016040519081016040528092919081815260200182805461121d90611e8e565b801561126a5780601f1061123f5761010080835404028352916020019161126a565b820191906000526020600020905b81548152906001019060200180831161124d57829003601f168201915b50505050508152505090508a565b60076020528060005260406000206000915090505481565b60086020528060005260406000206000915090505481565b806000600260008381526020019081526020016000206000015414156112cd57600080fd5b60006006600085815260200190815260200160002060040160006101000a81548160ff0219169083600381111561132d577f4e487b7100000000000000000000000000000000000000000000000000000000600052602160045260246000fd5b0217905550505050565b600560205280600052604060002060009150905080600001549080600101549080600201549080600301805461136c90611e8e565b80601f016020809104026020016040519081016040528092919081815260200182805461139890611e8e565b80156113e55780601f106113ba576101008083540402835291602001916113e5565b820191906000526020600020905b8154815290600101906020018083116113c857829003601f168201915b5050505050908060040154908060050160009054906101000a900460ff16908060060154905087565b8160006002600083815260200190815260200160002060000154141561143357600080fd5b3073ffffffffffffffffffffffffffffffffffffffff166108fc839081150290604051600060405180830381858888f19350505050158015611479573d6000803e3d6000fd5b5060016006600086815260200190815260200160002060040160006101000a81548160ff021916908360038111156114da577f4e487b7100000000000000000000000000000000000000000000000000000000600052602160045260246000fd5b0217905550816001600060066000888152602001908152602001600020600101548152602001908152602001600020600901600082825461151b9190611d4b565b9250508190555050505050565b60046020528060005260406000206000915090508060000154908060010154908060020154908060030154908060040154908060050154908060060154908060070154905088565b60036020528060005260406000206000915090505481565b82805461159490611e8e565b90600052602060002090601f0160209004810192826115b657600085556115fd565b82601f106115cf57805160ff19168380011785556115fd565b828001600101855582156115fd579182015b828111156115fc5782518255916020019190600101906115e1565b5b50905061160a919061165b565b5090565b82805482825590600052602060002090810192821561164a579160200282015b8281111561164957825182559160200191906001019061162e565b5b509050611657919061165b565b5090565b5b8082111561167457600081600090555060010161165c565b5090565b600061168b61168684611ced565b611cc8565b9050828152602081018484840111156116a357600080fd5b6116ae848285611e4c565b509392505050565b6000813590506116c581612043565b92915050565b600082601f8301126116dc57600080fd5b81356116ec848260208601611678565b91505092915050565b6000813590506117048161205a565b92915050565b60006020828403121561171c57600080fd5b600061172a848285016116b6565b91505092915050565b6000806000806080858703121561174957600080fd5b600085013567ffffffffffffffff81111561176357600080fd5b61176f878288016116cb565b9450506020611780878288016116b6565b935050604085013567ffffffffffffffff81111561179d57600080fd5b6117a9878288016116cb565b92505060606117ba878288016116f5565b91505092959194509250565b6000602082840312156117d857600080fd5b60006117e6848285016116f5565b91505092915050565b6000806040838503121561180257600080fd5b6000611810858286016116f5565b9250506020611821858286016116f5565b9150509250929050565b60008060006060848603121561184057600080fd5b600061184e868287016116f5565b935050602061185f868287016116f5565b9250506040611870868287016116f5565b9150509250925092565b61188381611da1565b82525050565b61189281611e16565b82525050565b6118a181611e28565b82525050565b6118b081611e3a565b82525050565b60006118c182611d1e565b6118cb8185611d29565b93506118db818560208601611e5b565b6118e481611ff6565b840191505092915050565b60006118fa82611d1e565b6119048185611d3a565b9350611914818560208601611e5b565b61191d81611ff6565b840191505092915050565b600060a083016000830151848203600086015261194582826118b6565b9150506020830151848203602086015261195f82826118b6565b9150506040830151848203604086015261197982826118b6565b9150506060830151848203606086015261199382826118b6565b915050608083015184820360808601526119ad82826118b6565b9150508091505092915050565b6119c381611e0c565b82525050565b60006020820190506119de60008301846119ba565b92915050565b600060a0820190506119f960008301886119ba565b8181036020830152611a0b81876118ef565b9050611a1a604083018661187a565b8181036060830152611a2c81856118ef565b9050611a3b60808301846119ba565b9695505050505050565b600061014082019050611a5b600083018d6119ba565b8181036020830152611a6d818c6118ef565b90508181036040830152611a81818b6118ef565b9050611a90606083018a6119ba565b8181036080830152611aa281896118ef565b9050611ab160a083018861187a565b611abe60c08301876119ba565b611acb60e08301866118a7565b611ad9610100830185611889565b818103610120830152611aec8184611928565b90509b9a5050505050505050505050565b600060e082019050611b12600083018a6119ba565b8181036020830152611b2481896118ef565b90508181036040830152611b388188611928565b90508181036060830152611b4c81876118ef565b9050611b5b60808301866119ba565b611b6860a08301856119ba565b611b7560c08301846119ba565b98975050505050505050565b600060e082019050611b96600083018a6119ba565b611ba360208301896119ba565b611bb060408301886119ba565b8181036060830152611bc281876118ef565b9050611bd160808301866119ba565b611bde60a0830185611898565b611beb60c08301846119ba565b98975050505050505050565b600060a082019050611c0c60008301886119ba565b611c1960208301876119ba565b611c2660408301866119ba565b611c3360608301856119ba565b611c406080830184611898565b9695505050505050565b600061010082019050611c60600083018b6119ba565b611c6d602083018a6119ba565b611c7a60408301896119ba565b611c8760608301886119ba565b611c9460808301876119ba565b611ca160a08301866119ba565b611cae60c08301856119ba565b611cbb60e08301846119ba565b9998505050505050505050565b6000611cd2611ce3565b9050611cde8282611ec0565b919050565b6000604051905090565b600067ffffffffffffffff821115611d0857611d07611fc7565b5b611d1182611ff6565b9050602081019050919050565b600081519050919050565b600082825260208201905092915050565b600082825260208201905092915050565b6000611d5682611e0c565b9150611d6183611e0c565b9250827fffffffffffffffffffffffffffffffffffffffffffffffffffffffffffffffff03821115611d9657611d95611f3a565b5b828201905092915050565b6000611dac82611dec565b9050919050565b6000819050611dc182612007565b919050565b6000819050611dd48261201b565b919050565b6000819050611de78261202f565b919050565b600073ffffffffffffffffffffffffffffffffffffffff82169050919050565b6000819050919050565b6000611e2182611db3565b9050919050565b6000611e3382611dc6565b9050919050565b6000611e4582611dd9565b9050919050565b82818337600083830152505050565b60005b83811015611e79578082015181840152602081019050611e5e565b83811115611e88576000848401525b50505050565b60006002820490506001821680611ea657607f821691505b60208210811415611eba57611eb9611f98565b5b50919050565b611ec982611ff6565b810181811067ffffffffffffffff82111715611ee857611ee7611fc7565b5b80604052505050565b6000611efc82611e0c565b91507fffffffffffffffffffffffffffffffffffffffffffffffffffffffffffffffff821415611f2f57611f2e611f3a565b5b600182019050919050565b7f4e487b7100000000000000000000000000000000000000000000000000000000600052601160045260246000fd5b7f4e487b7100000000000000000000000000000000000000000000000000000000600052602160045260246000fd5b7f4e487b7100000000000000000000000000000000000000000000000000000000600052602260045260246000fd5b7f4e487b7100000000000000000000000000000000000000000000000000000000600052604160045260246000fd5b6000601f19601f8301169050919050565b6003811061201857612017611f69565b5b50565b6004811061202c5761202b611f69565b5b50565b600681106120405761203f611f69565b5b50565b61204c81611da1565b811461205757600080fd5b50565b61206381611e0c565b811461206e57600080fd5b5056fea26469706673582212204832ac14f35ad9a687b73c9209cf6090a5962868d3bc274b35aa6a22ee5460fb64736f6c63430008040033",
  "immutableReferences": {},
  "source": "// SPDX-License-Identifier: MIT\npragma solidity ^0.8.1;\nimport \"./structs.sol\";\nimport \"./modifiers.sol\";\n\ncontract Bank is structs, modifiers {\n    function addBank(\n        string memory _name,\n        address _walletAddress,\n        string memory _code,\n        uint256 _intrestRate\n    ) public {\n        uint256 id = ++numBanks;\n        banks[id] = Bank(\n            id,\n            _name,\n            _walletAddress,\n            _code,\n            _intrestRate,\n            new uint256[](0)\n        );\n\n        addressToBankid[_walletAddress] = numBanks;\n    }\n\n    function approveLoan(uint256 _shgrequestid, uint256 _bankid)\n        public\n        onlyBank(_bankid)\n    {\n        shgRequests[_shgrequestid].status = RequestStatus.APPROVED;\n    }\n\n    function grantLoan(\n        uint256 _shgrequestid,\n        uint256 _bankid,\n        uint256 _amount\n    ) public onlyBank(_bankid) {\n        payable(address(this)).transfer(_amount);\n        shgRequests[_shgrequestid].status = RequestStatus.COMPLETED;\n        shgs[shgRequests[_shgrequestid].shgid].currentBalance += _amount;\n    }\n\n    function shgLoan(\n        uint256 _bankid,\n        uint256 _requestid,\n        uint256 _amount\n    ) public payable onlyBank(_bankid) {\n        Loan memory newLoan = Loan({\n            loanId: ++numLoans,\n            lenderId: shgRequests[_requestid].shgid,\n            amount: _amount,\n            lendeeId: _bankid,\n            intrest: banks[_bankid].intrestRate,\n            loanTime: shgRequests[_requestid].loanTime,\n            date: block.timestamp,\n            lastEMI: 0\n        });\n\n        shgs[shgRequests[_requestid].shgid].loansTaken.push(numLoans);\n\n        payable(address(this)).transfer(_amount);\n        shgs[shgRequests[_requestid].shgid].currentBalance += _amount;\n        loans[numLoans] = newLoan;\n    }\n}\n",
  "sourcePath": "/home/sdas/code/yogdaan-contracts/contracts/lib/Bank.sol",
  "compiler": {
    "name": "solc",
    "version": "0.8.4+commit.c7e474f2.Emscripten.clang"
  },
  "schemaVersion": "3.4.9",
  "updatedAt": "2022-08-25T04:36:56.108Z",
  "devdoc": {
    "kind": "dev",
    "methods": {},
    "version": 1
  },
  "userdoc": {
    "kind": "user",
    "methods": {},
    "version": 1
  }
}