{
  "contractName": "Bank",
  "abi": [
    {
      "inputs": [
        {
          "internalType": "address",
          "name": "",
          "type": "address"
        }
      ],
      "name": "addressToBankid",
      "outputs": [
        {
          "internalType": "uint256",
          "name": "",
          "type": "uint256"
        }
      ],
      "stateMutability": "view",
      "type": "function"
    },
    {
      "inputs": [
        {
          "internalType": "address",
          "name": "",
          "type": "address"
        }
      ],
      "name": "addressToSHGid",
      "outputs": [
        {
          "internalType": "uint256",
          "name": "",
          "type": "uint256"
        }
      ],
      "stateMutability": "view",
      "type": "function"
    },
    {
      "inputs": [
        {
          "internalType": "address",
          "name": "",
          "type": "address"
        }
      ],
      "name": "addressToUser",
      "outputs": [
        {
          "internalType": "uint256",
          "name": "",
          "type": "uint256"
        }
      ],
      "stateMutability": "view",
      "type": "function"
    },
    {
      "inputs": [
        {
          "internalType": "uint256",
          "name": "",
          "type": "uint256"
        }
      ],
      "name": "banks",
      "outputs": [
        {
          "internalType": "uint256",
          "name": "id",
          "type": "uint256"
        },
        {
          "internalType": "string",
          "name": "name",
          "type": "string"
        },
        {
          "internalType": "address",
          "name": "walletAddress",
          "type": "address"
        },
        {
          "internalType": "string",
          "name": "code",
          "type": "string"
        },
        {
          "internalType": "uint256",
          "name": "intrestRate",
          "type": "uint256"
        }
      ],
      "stateMutability": "view",
      "type": "function"
    },
    {
      "inputs": [
        {
          "internalType": "uint256",
          "name": "",
          "type": "uint256"
        }
      ],
      "name": "loans",
      "outputs": [
        {
          "internalType": "uint256",
          "name": "loanId",
          "type": "uint256"
        },
        {
          "internalType": "uint256",
          "name": "lenderId",
          "type": "uint256"
        },
        {
          "internalType": "uint256",
          "name": "amount",
          "type": "uint256"
        },
        {
          "internalType": "uint256",
          "name": "lendeeId",
          "type": "uint256"
        },
        {
          "internalType": "uint256",
          "name": "intrest",
          "type": "uint256"
        },
        {
          "internalType": "uint256",
          "name": "loanTime",
          "type": "uint256"
        },
        {
          "internalType": "uint256",
          "name": "date",
          "type": "uint256"
        },
        {
          "internalType": "uint256",
          "name": "lastEMI",
          "type": "uint256"
        }
      ],
      "stateMutability": "view",
      "type": "function"
    },
    {
      "inputs": [
        {
          "internalType": "uint256",
          "name": "",
          "type": "uint256"
        }
      ],
      "name": "shgRequests",
      "outputs": [
        {
          "internalType": "uint256",
          "name": "requestid",
          "type": "uint256"
        },
        {
          "internalType": "uint256",
          "name": "shgid",
          "type": "uint256"
        },
        {
          "internalType": "uint256",
          "name": "amount",
          "type": "uint256"
        },
        {
          "internalType": "uint256",
          "name": "loanTime",
          "type": "uint256"
        },
        {
          "internalType": "enum structs.RequestStatus",
          "name": "status",
          "type": "uint8"
        }
      ],
      "stateMutability": "view",
      "type": "function"
    },
    {
      "inputs": [
        {
          "internalType": "uint256",
          "name": "",
          "type": "uint256"
        }
      ],
      "name": "shgs",
      "outputs": [
        {
          "internalType": "uint256",
          "name": "id",
          "type": "uint256"
        },
        {
          "internalType": "string",
          "name": "name",
          "type": "string"
        },
        {
          "components": [
            {
              "internalType": "string",
              "name": "state",
              "type": "string"
            },
            {
              "internalType": "string",
              "name": "district",
              "type": "string"
            },
            {
              "internalType": "string",
              "name": "blockName",
              "type": "string"
            },
            {
              "internalType": "string",
              "name": "panchyatName",
              "type": "string"
            },
            {
              "internalType": "string",
              "name": "villageName",
              "type": "string"
            }
          ],
          "internalType": "struct structs.Location",
          "name": "location",
          "type": "tuple"
        },
        {
          "internalType": "string",
          "name": "dateOfFormation",
          "type": "string"
        },
        {
          "internalType": "uint256",
          "name": "currentBalance",
          "type": "uint256"
        },
        {
          "internalType": "uint256",
          "name": "owedBalance",
          "type": "uint256"
        },
        {
          "internalType": "uint256",
          "name": "baseIntrest",
          "type": "uint256"
        }
      ],
      "stateMutability": "view",
      "type": "function"
    },
    {
      "inputs": [
        {
          "internalType": "uint256",
          "name": "",
          "type": "uint256"
        }
      ],
      "name": "userRequests",
      "outputs": [
        {
          "internalType": "uint256",
          "name": "requestId",
          "type": "uint256"
        },
        {
          "internalType": "uint256",
          "name": "userId",
          "type": "uint256"
        },
        {
          "internalType": "uint256",
          "name": "amount",
          "type": "uint256"
        },
        {
          "internalType": "string",
          "name": "description",
          "type": "string"
        },
        {
          "internalType": "uint256",
          "name": "SHGId",
          "type": "uint256"
        },
        {
          "internalType": "enum structs.RequestStatus",
          "name": "status",
          "type": "uint8"
        },
        {
          "internalType": "uint256",
          "name": "loanTime",
          "type": "uint256"
        }
      ],
      "stateMutability": "view",
      "type": "function"
    },
    {
      "inputs": [
        {
          "internalType": "uint256",
          "name": "",
          "type": "uint256"
        }
      ],
      "name": "users",
      "outputs": [
        {
          "internalType": "uint256",
          "name": "id",
          "type": "uint256"
        },
        {
          "internalType": "string",
          "name": "name",
          "type": "string"
        },
        {
          "internalType": "string",
          "name": "aadhar",
          "type": "string"
        },
        {
          "internalType": "uint256",
          "name": "mobno",
          "type": "uint256"
        },
        {
          "internalType": "string",
          "name": "fatherName",
          "type": "string"
        },
        {
          "internalType": "address",
          "name": "walletAddress",
          "type": "address"
        },
        {
          "internalType": "uint256",
          "name": "amountTaken",
          "type": "uint256"
        },
        {
          "internalType": "uint256",
          "name": "shgid",
          "type": "uint256"
        },
        {
          "internalType": "enum structs.UserType",
          "name": "userType",
          "type": "uint8"
        },
        {
          "internalType": "enum structs.Gender",
          "name": "gender",
          "type": "uint8"
        },
        {
          "components": [
            {
              "internalType": "string",
              "name": "state",
              "type": "string"
            },
            {
              "internalType": "string",
              "name": "district",
              "type": "string"
            },
            {
              "internalType": "string",
              "name": "blockName",
              "type": "string"
            },
            {
              "internalType": "string",
              "name": "panchyatName",
              "type": "string"
            },
            {
              "internalType": "string",
              "name": "villageName",
              "type": "string"
            }
          ],
          "internalType": "struct structs.Location",
          "name": "location",
          "type": "tuple"
        }
      ],
      "stateMutability": "view",
      "type": "function"
    },
    {
      "inputs": [
        {
          "internalType": "string",
          "name": "_name",
          "type": "string"
        },
        {
          "internalType": "address",
          "name": "_walletAddress",
          "type": "address"
        },
        {
          "internalType": "string",
          "name": "_code",
          "type": "string"
        },
        {
          "internalType": "uint256",
          "name": "_intrestRate",
          "type": "uint256"
        }
      ],
      "name": "addBank",
      "outputs": [],
      "stateMutability": "nonpayable",
      "type": "function"
    },
    {
      "inputs": [
        {
          "internalType": "uint256",
          "name": "_shgrequestid",
          "type": "uint256"
        },
        {
          "internalType": "uint256",
          "name": "_bankid",
          "type": "uint256"
        }
      ],
      "name": "approveLoan",
      "outputs": [],
      "stateMutability": "nonpayable",
      "type": "function"
    },
    {
      "inputs": [
        {
          "internalType": "uint256",
          "name": "_shgrequestid",
          "type": "uint256"
        },
        {
          "internalType": "uint256",
          "name": "_bankid",
          "type": "uint256"
        },
        {
          "internalType": "uint256",
          "name": "_amount",
          "type": "uint256"
        }
      ],
      "name": "grantLoan",
      "outputs": [],
      "stateMutability": "nonpayable",
      "type": "function"
    },
    {
      "inputs": [
        {
          "internalType": "uint256",
          "name": "_bankid",
          "type": "uint256"
        },
        {
          "internalType": "uint256",
          "name": "_requestid",
          "type": "uint256"
        },
        {
          "internalType": "uint256",
          "name": "_amount",
          "type": "uint256"
        }
      ],
      "name": "shgLoan",
      "outputs": [],
      "stateMutability": "payable",
      "type": "function"
    }
  ],
  "bytecode": "0x608060405234801561001057600080fd5b506120bd806100206000396000f3fe6080604052600436106100c15760003560e01c80633ae0058f1161007f578063941696561161005957806394169656146102ba578063db223b4c146102fd578063e1ec3c6814610326578063edf538861461036a576100c1565b80633ae0058f1461021757806361c91b70146102545780637a64649214610291576100c1565b806285ae2b146100c657806314795ce314610107578063249c4bff14610130578063257a170b1461014c57806326271cf21461018d578063365b98b2146101d0575b600080fd5b3480156100d257600080fd5b506100ed60048036038101906100e891906117cd565b6103a7565b6040516100fe9594939291906119eb565b60405180910390f35b34801561011357600080fd5b5061012e6004803603810190610129919061173a565b61050d565b005b61014a60048036038101906101459190611832565b6106ed565b005b34801561015857600080fd5b50610173600480360381019061016e91906117cd565b6108f6565b604051610184959493929190611c0d565b60405180910390f35b34801561019957600080fd5b506101b460048036038101906101af91906117cd565b610939565b6040516101c79796959493929190611b13565b60405180910390f35b3480156101dc57600080fd5b506101f760048036038101906101f291906117cd565b610d6f565b60405161020e9b9a99989796959493929190611a4c565b60405180910390f35b34801561022357600080fd5b5061023e60048036038101906102399190611711565b61127f565b60405161024b91906119d0565b60405180910390f35b34801561026057600080fd5b5061027b60048036038101906102769190611711565b611297565b60405161028891906119d0565b60405180910390f35b34801561029d57600080fd5b506102b860048036038101906102b391906117f6565b6112af565b005b3480156102c657600080fd5b506102e160048036038101906102dc91906117cd565b61133e565b6040516102f49796959493929190611b97565b60405180910390f35b34801561030957600080fd5b50610324600480360381019061031f9190611832565b611415565b005b34801561033257600080fd5b5061034d600480360381019061034891906117cd565b61152f565b604051610361989796959493929190611c60565b60405180910390f35b34801561037657600080fd5b50610391600480360381019061038c9190611711565b611577565b60405161039e91906119d0565b60405180910390f35b60026020528060005260406000206000915090508060000154908060010180546103d090611ea4565b80601f01602080910402602001604051908101604052809291908181526020018280546103fc90611ea4565b80156104495780601f1061041e57610100808354040283529160200191610449565b820191906000526020600020905b81548152906001019060200180831161042c57829003601f168201915b5050505050908060020160009054906101000a900473ffffffffffffffffffffffffffffffffffffffff169080600301805461048490611ea4565b80601f01602080910402602001604051908101604052809291908181526020018280546104b090611ea4565b80156104fd5780601f106104d2576101008083540402835291602001916104fd565b820191906000526020600020905b8154815290600101906020018083116104e057829003601f168201915b5050505050908060040154905085565b6000600d6000815461051e90611f07565b91905081905590506040518060c001604052808281526020018681526020018573ffffffffffffffffffffffffffffffffffffffff168152602001848152602001838152602001600067ffffffffffffffff8111156105a6577f4e487b7100000000000000000000000000000000000000000000000000000000600052604160045260246000fd5b6040519080825280602002602001820160405280156105d45781602001602082028036833780820191505090505b508152506002600083815260200190815260200160002060008201518160000155602082015181600101908051906020019061061192919061158f565b5060408201518160020160006101000a81548173ffffffffffffffffffffffffffffffffffffffff021916908373ffffffffffffffffffffffffffffffffffffffff160217905550606082015181600301908051906020019061067592919061158f565b506080820151816004015560a082015181600501908051906020019061069c929190611615565b50905050600d54600860008673ffffffffffffffffffffffffffffffffffffffff1673ffffffffffffffffffffffffffffffffffffffff168152602001908152602001600020819055505050505050565b8260006002600083815260200190815260200160002060000154141561071257600080fd5b6000604051806101000160405280600e6000815461072f90611f07565b9190508190558152602001600660008781526020019081526020016000206001015481526020018481526020018681526020016002600088815260200190815260200160002060040154815260200160066000878152602001908152602001600020600301548152602001428152602001600081525090506001600060066000878152602001908152602001600020600101548152602001908152602001600020600c01600e5490806001815401808255809150506001900390600052602060002001600090919091909150553073ffffffffffffffffffffffffffffffffffffffff166108fc849081150290604051600060405180830381858888f19350505050158015610842573d6000803e3d6000fd5b50826001600060066000888152602001908152602001600020600101548152602001908152602001600020600901600082825461087f9190611d61565b925050819055508060046000600e548152602001908152602001600020600082015181600001556020820151816001015560408201518160020155606082015181600301556080820151816004015560a0820151816005015560c0820151816006015560e082015181600701559050505050505050565b60066020528060005260406000206000915090508060000154908060010154908060020154908060030154908060040160009054906101000a900460ff16905085565b600160205280600052604060002060009150905080600001549080600201805461096290611ea4565b80601f016020809104026020016040519081016040528092919081815260200182805461098e90611ea4565b80156109db5780601f106109b0576101008083540402835291602001916109db565b820191906000526020600020905b8154815290600101906020018083116109be57829003601f168201915b505050505090806003016040518060a0016040529081600082018054610a0090611ea4565b80601f0160208091040260200160405190810160405280929190818152602001828054610a2c90611ea4565b8015610a795780601f10610a4e57610100808354040283529160200191610a79565b820191906000526020600020905b815481529060010190602001808311610a5c57829003601f168201915b50505050508152602001600182018054610a9290611ea4565b80601f0160208091040260200160405190810160405280929190818152602001828054610abe90611ea4565b8015610b0b5780601f10610ae057610100808354040283529160200191610b0b565b820191906000526020600020905b815481529060010190602001808311610aee57829003601f168201915b50505050508152602001600282018054610b2490611ea4565b80601f0160208091040260200160405190810160405280929190818152602001828054610b5090611ea4565b8015610b9d5780601f10610b7257610100808354040283529160200191610b9d565b820191906000526020600020905b815481529060010190602001808311610b8057829003601f168201915b50505050508152602001600382018054610bb690611ea4565b80601f0160208091040260200160405190810160405280929190818152602001828054610be290611ea4565b8015610c2f5780601f10610c0457610100808354040283529160200191610c2f565b820191906000526020600020905b815481529060010190602001808311610c1257829003601f168201915b50505050508152602001600482018054610c4890611ea4565b80601f0160208091040260200160405190810160405280929190818152602001828054610c7490611ea4565b8015610cc15780601f10610c9657610100808354040283529160200191610cc1565b820191906000526020600020905b815481529060010190602001808311610ca457829003601f168201915b50505050508152505090806008018054610cda90611ea4565b80601f0160208091040260200160405190810160405280929190818152602001828054610d0690611ea4565b8015610d535780601f10610d2857610100808354040283529160200191610d53565b820191906000526020600020905b815481529060010190602001808311610d3657829003601f168201915b50505050509080600901549080600a01549080600d0154905087565b6000602052806000526040600020600091509050806000015490806001018054610d9890611ea4565b80601f0160208091040260200160405190810160405280929190818152602001828054610dc490611ea4565b8015610e115780601f10610de657610100808354040283529160200191610e11565b820191906000526020600020905b815481529060010190602001808311610df457829003601f168201915b505050505090806002018054610e2690611ea4565b80601f0160208091040260200160405190810160405280929190818152602001828054610e5290611ea4565b8015610e9f5780601f10610e7457610100808354040283529160200191610e9f565b820191906000526020600020905b815481529060010190602001808311610e8257829003601f168201915b505050505090806003015490806004018054610eba90611ea4565b80601f0160208091040260200160405190810160405280929190818152602001828054610ee690611ea4565b8015610f335780601f10610f0857610100808354040283529160200191610f33565b820191906000526020600020905b815481529060010190602001808311610f1657829003601f168201915b5050505050908060050160009054906101000a900473ffffffffffffffffffffffffffffffffffffffff16908060070154908060080154908060090160009054906101000a900460ff16908060090160019054906101000a900460ff169080600a016040518060a0016040529081600082018054610fb090611ea4565b80601f0160208091040260200160405190810160405280929190818152602001828054610fdc90611ea4565b80156110295780601f10610ffe57610100808354040283529160200191611029565b820191906000526020600020905b81548152906001019060200180831161100c57829003601f168201915b5050505050815260200160018201805461104290611ea4565b80601f016020809104026020016040519081016040528092919081815260200182805461106e90611ea4565b80156110bb5780601f10611090576101008083540402835291602001916110bb565b820191906000526020600020905b81548152906001019060200180831161109e57829003601f168201915b505050505081526020016002820180546110d490611ea4565b80601f016020809104026020016040519081016040528092919081815260200182805461110090611ea4565b801561114d5780601f106111225761010080835404028352916020019161114d565b820191906000526020600020905b81548152906001019060200180831161113057829003601f168201915b5050505050815260200160038201805461116690611ea4565b80601f016020809104026020016040519081016040528092919081815260200182805461119290611ea4565b80156111df5780601f106111b4576101008083540402835291602001916111df565b820191906000526020600020905b8154815290600101906020018083116111c257829003601f168201915b505050505081526020016004820180546111f890611ea4565b80601f016020809104026020016040519081016040528092919081815260200182805461122490611ea4565b80156112715780601f1061124657610100808354040283529160200191611271565b820191906000526020600020905b81548152906001019060200180831161125457829003601f168201915b50505050508152505090508b565b60076020528060005260406000206000915090505481565b60086020528060005260406000206000915090505481565b806000600260008381526020019081526020016000206000015414156112d457600080fd5b60006006600085815260200190815260200160002060040160006101000a81548160ff02191690836003811115611334577f4e487b7100000000000000000000000000000000000000000000000000000000600052602160045260246000fd5b0217905550505050565b600560205280600052604060002060009150905080600001549080600101549080600201549080600301805461137390611ea4565b80601f016020809104026020016040519081016040528092919081815260200182805461139f90611ea4565b80156113ec5780601f106113c1576101008083540402835291602001916113ec565b820191906000526020600020905b8154815290600101906020018083116113cf57829003601f168201915b5050505050908060040154908060050160009054906101000a900460ff16908060060154905087565b8160006002600083815260200190815260200160002060000154141561143a57600080fd5b3073ffffffffffffffffffffffffffffffffffffffff166108fc839081150290604051600060405180830381858888f19350505050158015611480573d6000803e3d6000fd5b5060016006600086815260200190815260200160002060040160006101000a81548160ff021916908360038111156114e1577f4e487b7100000000000000000000000000000000000000000000000000000000600052602160045260246000fd5b021790555081600160006006600088815260200190815260200160002060010154815260200190815260200160002060090160008282546115229190611d61565b9250508190555050505050565b60046020528060005260406000206000915090508060000154908060010154908060020154908060030154908060040154908060050154908060060154908060070154905088565b60036020528060005260406000206000915090505481565b82805461159b90611ea4565b90600052602060002090601f0160209004810192826115bd5760008555611604565b82601f106115d657805160ff1916838001178555611604565b82800160010185558215611604579182015b828111156116035782518255916020019190600101906115e8565b5b5090506116119190611662565b5090565b828054828255906000526020600020908101928215611651579160200282015b82811115611650578251825591602001919060010190611635565b5b50905061165e9190611662565b5090565b5b8082111561167b576000816000905550600101611663565b5090565b600061169261168d84611d03565b611cde565b9050828152602081018484840111156116aa57600080fd5b6116b5848285611e62565b509392505050565b6000813590506116cc81612059565b92915050565b600082601f8301126116e357600080fd5b81356116f384826020860161167f565b91505092915050565b60008135905061170b81612070565b92915050565b60006020828403121561172357600080fd5b6000611731848285016116bd565b91505092915050565b6000806000806080858703121561175057600080fd5b600085013567ffffffffffffffff81111561176a57600080fd5b611776878288016116d2565b9450506020611787878288016116bd565b935050604085013567ffffffffffffffff8111156117a457600080fd5b6117b0878288016116d2565b92505060606117c1878288016116fc565b91505092959194509250565b6000602082840312156117df57600080fd5b60006117ed848285016116fc565b91505092915050565b6000806040838503121561180957600080fd5b6000611817858286016116fc565b9250506020611828858286016116fc565b9150509250929050565b60008060006060848603121561184757600080fd5b6000611855868287016116fc565b9350506020611866868287016116fc565b9250506040611877868287016116fc565b9150509250925092565b61188a81611db7565b82525050565b61189981611e2c565b82525050565b6118a881611e3e565b82525050565b6118b781611e50565b82525050565b60006118c882611d34565b6118d28185611d3f565b93506118e2818560208601611e71565b6118eb8161200c565b840191505092915050565b600061190182611d34565b61190b8185611d50565b935061191b818560208601611e71565b6119248161200c565b840191505092915050565b600060a083016000830151848203600086015261194c82826118bd565b9150506020830151848203602086015261196682826118bd565b9150506040830151848203604086015261198082826118bd565b9150506060830151848203606086015261199a82826118bd565b915050608083015184820360808601526119b482826118bd565b9150508091505092915050565b6119ca81611e22565b82525050565b60006020820190506119e560008301846119c1565b92915050565b600060a082019050611a0060008301886119c1565b8181036020830152611a1281876118f6565b9050611a216040830186611881565b8181036060830152611a3381856118f6565b9050611a4260808301846119c1565b9695505050505050565b600061016082019050611a62600083018e6119c1565b8181036020830152611a74818d6118f6565b90508181036040830152611a88818c6118f6565b9050611a97606083018b6119c1565b8181036080830152611aa9818a6118f6565b9050611ab860a0830189611881565b611ac560c08301886119c1565b611ad260e08301876119c1565b611ae06101008301866118ae565b611aee610120830185611890565b818103610140830152611b01818461192f565b90509c9b505050505050505050505050565b600060e082019050611b28600083018a6119c1565b8181036020830152611b3a81896118f6565b90508181036040830152611b4e818861192f565b90508181036060830152611b6281876118f6565b9050611b7160808301866119c1565b611b7e60a08301856119c1565b611b8b60c08301846119c1565b98975050505050505050565b600060e082019050611bac600083018a6119c1565b611bb960208301896119c1565b611bc660408301886119c1565b8181036060830152611bd881876118f6565b9050611be760808301866119c1565b611bf460a083018561189f565b611c0160c08301846119c1565b98975050505050505050565b600060a082019050611c2260008301886119c1565b611c2f60208301876119c1565b611c3c60408301866119c1565b611c4960608301856119c1565b611c56608083018461189f565b9695505050505050565b600061010082019050611c76600083018b6119c1565b611c83602083018a6119c1565b611c9060408301896119c1565b611c9d60608301886119c1565b611caa60808301876119c1565b611cb760a08301866119c1565b611cc460c08301856119c1565b611cd160e08301846119c1565b9998505050505050505050565b6000611ce8611cf9565b9050611cf48282611ed6565b919050565b6000604051905090565b600067ffffffffffffffff821115611d1e57611d1d611fdd565b5b611d278261200c565b9050602081019050919050565b600081519050919050565b600082825260208201905092915050565b600082825260208201905092915050565b6000611d6c82611e22565b9150611d7783611e22565b9250827fffffffffffffffffffffffffffffffffffffffffffffffffffffffffffffffff03821115611dac57611dab611f50565b5b828201905092915050565b6000611dc282611e02565b9050919050565b6000819050611dd78261201d565b919050565b6000819050611dea82612031565b919050565b6000819050611dfd82612045565b919050565b600073ffffffffffffffffffffffffffffffffffffffff82169050919050565b6000819050919050565b6000611e3782611dc9565b9050919050565b6000611e4982611ddc565b9050919050565b6000611e5b82611def565b9050919050565b82818337600083830152505050565b60005b83811015611e8f578082015181840152602081019050611e74565b83811115611e9e576000848401525b50505050565b60006002820490506001821680611ebc57607f821691505b60208210811415611ed057611ecf611fae565b5b50919050565b611edf8261200c565b810181811067ffffffffffffffff82111715611efe57611efd611fdd565b5b80604052505050565b6000611f1282611e22565b91507fffffffffffffffffffffffffffffffffffffffffffffffffffffffffffffffff821415611f4557611f44611f50565b5b600182019050919050565b7f4e487b7100000000000000000000000000000000000000000000000000000000600052601160045260246000fd5b7f4e487b7100000000000000000000000000000000000000000000000000000000600052602160045260246000fd5b7f4e487b7100000000000000000000000000000000000000000000000000000000600052602260045260246000fd5b7f4e487b7100000000000000000000000000000000000000000000000000000000600052604160045260246000fd5b6000601f19601f8301169050919050565b6003811061202e5761202d611f7f565b5b50565b6004811061204257612041611f7f565b5b50565b6006811061205657612055611f7f565b5b50565b61206281611db7565b811461206d57600080fd5b50565b61207981611e22565b811461208457600080fd5b5056fea26469706673582212203171fa529305acaa9cccb3dee2655cfc0f5dd7123a5eeadc519c65de319d671064736f6c63430008040033",
  "immutableReferences": {},
  "source": "// SPDX-License-Identifier: MIT\npragma solidity ^0.8.1;\nimport \"./structs.sol\";\nimport \"./modifiers.sol\";\n\ncontract Bank is structs, modifiers {\n    function addBank(\n        string memory _name,\n        address _walletAddress,\n        string memory _code,\n        uint256 _intrestRate\n    ) public {\n        uint256 id = ++numBanks;\n        banks[id] = Bank(\n            id,\n            _name,\n            _walletAddress,\n            _code,\n            _intrestRate,\n            new uint256[](0)\n        );\n\n        addressToBankid[_walletAddress] = numBanks;\n    }\n\n    function approveLoan(uint256 _shgrequestid, uint256 _bankid)\n        public\n        onlyBank(_bankid)\n    {\n        shgRequests[_shgrequestid].status = RequestStatus.APPROVED;\n    }\n\n    function grantLoan(\n        uint256 _shgrequestid,\n        uint256 _bankid,\n        uint256 _amount\n    ) public onlyBank(_bankid) {\n        payable(address(this)).transfer(_amount);\n        shgRequests[_shgrequestid].status = RequestStatus.COMPLETED;\n        shgs[shgRequests[_shgrequestid].shgid].currentBalance += _amount;\n    }\n\n    function shgLoan(\n        uint256 _bankid,\n        uint256 _requestid,\n        uint256 _amount\n    ) public payable onlyBank(_bankid) {\n        Loan memory newLoan = Loan({\n            loanId: ++numLoans,\n            lenderId: shgRequests[_requestid].shgid,\n            amount: _amount,\n            lendeeId: _bankid,\n            intrest: banks[_bankid].intrestRate,\n            loanTime: shgRequests[_requestid].loanTime,\n            date: block.timestamp,\n            lastEMI: 0\n        });\n\n        shgs[shgRequests[_requestid].shgid].loansTaken.push(numLoans);\n\n        payable(address(this)).transfer(_amount);\n        shgs[shgRequests[_requestid].shgid].currentBalance += _amount;\n        loans[numLoans] = newLoan;\n    }\n}\n",
  "sourcePath": "/home/sdas/code/yogdaan-contracts/contracts/lib/Bank.sol",
  "compiler": {
    "name": "solc",
    "version": "0.8.4+commit.c7e474f2.Emscripten.clang"
  },
  "schemaVersion": "3.4.9",
  "updatedAt": "2022-08-24T17:03:22.854Z",
  "devdoc": {
    "kind": "dev",
    "methods": {},
    "version": 1
  },
  "userdoc": {
    "kind": "user",
    "methods": {},
    "version": 1
  }
}