{
  "contractName": "Bank",
  "abi": [
    {
      "inputs": [
        {
          "internalType": "address",
          "name": "",
          "type": "address"
        }
      ],
      "name": "addressToBankid",
      "outputs": [
        {
          "internalType": "uint256",
          "name": "",
          "type": "uint256"
        }
      ],
      "stateMutability": "view",
      "type": "function"
    },
    {
      "inputs": [
        {
          "internalType": "address",
          "name": "",
          "type": "address"
        }
      ],
      "name": "addressToSHGid",
      "outputs": [
        {
          "internalType": "uint256",
          "name": "",
          "type": "uint256"
        }
      ],
      "stateMutability": "view",
      "type": "function"
    },
    {
      "inputs": [
        {
          "internalType": "address",
          "name": "",
          "type": "address"
        }
      ],
      "name": "addressToUser",
      "outputs": [
        {
          "internalType": "uint256",
          "name": "",
          "type": "uint256"
        }
      ],
      "stateMutability": "view",
      "type": "function"
    },
    {
      "inputs": [
        {
          "internalType": "uint256",
          "name": "",
          "type": "uint256"
        }
      ],
      "name": "banks",
      "outputs": [
        {
          "internalType": "uint256",
          "name": "id",
          "type": "uint256"
        },
        {
          "internalType": "string",
          "name": "name",
          "type": "string"
        },
        {
          "internalType": "address",
          "name": "walletAddress",
          "type": "address"
        },
        {
          "internalType": "string",
          "name": "code",
          "type": "string"
        },
        {
          "internalType": "uint256",
          "name": "intrestRate",
          "type": "uint256"
        }
      ],
      "stateMutability": "view",
      "type": "function"
    },
    {
      "inputs": [
        {
          "internalType": "string",
          "name": "",
          "type": "string"
        },
        {
          "internalType": "uint256",
          "name": "",
          "type": "uint256"
        }
      ],
      "name": "districtToSHGs",
      "outputs": [
        {
          "internalType": "uint256",
          "name": "",
          "type": "uint256"
        }
      ],
      "stateMutability": "view",
      "type": "function"
    },
    {
      "inputs": [
        {
          "internalType": "uint256",
          "name": "",
          "type": "uint256"
        }
      ],
      "name": "loans",
      "outputs": [
        {
          "internalType": "uint256",
          "name": "loanId",
          "type": "uint256"
        },
        {
          "internalType": "uint256",
          "name": "lenderId",
          "type": "uint256"
        },
        {
          "internalType": "uint256",
          "name": "amount",
          "type": "uint256"
        },
        {
          "internalType": "uint256",
          "name": "lendeeId",
          "type": "uint256"
        },
        {
          "internalType": "uint256",
          "name": "intrest",
          "type": "uint256"
        },
        {
          "internalType": "uint256",
          "name": "loanTime",
          "type": "uint256"
        },
        {
          "internalType": "uint256",
          "name": "date",
          "type": "uint256"
        },
        {
          "internalType": "uint256",
          "name": "lastEMI",
          "type": "uint256"
        }
      ],
      "stateMutability": "view",
      "type": "function"
    },
    {
      "inputs": [
        {
          "internalType": "uint256",
          "name": "",
          "type": "uint256"
        }
      ],
      "name": "shgRequests",
      "outputs": [
        {
          "internalType": "uint256",
          "name": "requestid",
          "type": "uint256"
        },
        {
          "internalType": "uint256",
          "name": "shgid",
          "type": "uint256"
        },
        {
          "internalType": "uint256",
          "name": "amount",
          "type": "uint256"
        },
        {
          "internalType": "uint256",
          "name": "loanTime",
          "type": "uint256"
        },
        {
          "internalType": "enum structs.RequestStatus",
          "name": "status",
          "type": "uint8"
        }
      ],
      "stateMutability": "view",
      "type": "function"
    },
    {
      "inputs": [
        {
          "internalType": "uint256",
          "name": "",
          "type": "uint256"
        },
        {
          "internalType": "uint256",
          "name": "",
          "type": "uint256"
        }
      ],
      "name": "shgToRequests",
      "outputs": [
        {
          "internalType": "uint256",
          "name": "",
          "type": "uint256"
        }
      ],
      "stateMutability": "view",
      "type": "function"
    },
    {
      "inputs": [
        {
          "internalType": "uint256",
          "name": "",
          "type": "uint256"
        }
      ],
      "name": "shgs",
      "outputs": [
        {
          "internalType": "uint256",
          "name": "id",
          "type": "uint256"
        },
        {
          "internalType": "string",
          "name": "name",
          "type": "string"
        },
        {
          "components": [
            {
              "internalType": "string",
              "name": "state",
              "type": "string"
            },
            {
              "internalType": "string",
              "name": "district",
              "type": "string"
            },
            {
              "internalType": "string",
              "name": "blockName",
              "type": "string"
            },
            {
              "internalType": "string",
              "name": "panchyatName",
              "type": "string"
            },
            {
              "internalType": "string",
              "name": "villageName",
              "type": "string"
            }
          ],
          "internalType": "struct structs.Location",
          "name": "location",
          "type": "tuple"
        },
        {
          "internalType": "string",
          "name": "dateOfFormation",
          "type": "string"
        },
        {
          "internalType": "uint256",
          "name": "currentBalance",
          "type": "uint256"
        },
        {
          "internalType": "uint256",
          "name": "owedBalance",
          "type": "uint256"
        },
        {
          "internalType": "uint256",
          "name": "baseIntrest",
          "type": "uint256"
        }
      ],
      "stateMutability": "view",
      "type": "function"
    },
    {
      "inputs": [
        {
          "internalType": "uint256",
          "name": "",
          "type": "uint256"
        }
      ],
      "name": "userRequests",
      "outputs": [
        {
          "internalType": "uint256",
          "name": "requestId",
          "type": "uint256"
        },
        {
          "internalType": "uint256",
          "name": "userId",
          "type": "uint256"
        },
        {
          "internalType": "uint256",
          "name": "amount",
          "type": "uint256"
        },
        {
          "internalType": "string",
          "name": "description",
          "type": "string"
        },
        {
          "internalType": "uint256",
          "name": "SHGId",
          "type": "uint256"
        },
        {
          "internalType": "enum structs.RequestStatus",
          "name": "status",
          "type": "uint8"
        },
        {
          "internalType": "uint256",
          "name": "loanTime",
          "type": "uint256"
        }
      ],
      "stateMutability": "view",
      "type": "function"
    },
    {
      "inputs": [
        {
          "internalType": "uint256",
          "name": "",
          "type": "uint256"
        },
        {
          "internalType": "uint256",
          "name": "",
          "type": "uint256"
        }
      ],
      "name": "userToRequests",
      "outputs": [
        {
          "internalType": "uint256",
          "name": "",
          "type": "uint256"
        }
      ],
      "stateMutability": "view",
      "type": "function"
    },
    {
      "inputs": [
        {
          "internalType": "uint256",
          "name": "",
          "type": "uint256"
        }
      ],
      "name": "users",
      "outputs": [
        {
          "internalType": "uint256",
          "name": "id",
          "type": "uint256"
        },
        {
          "internalType": "string",
          "name": "name",
          "type": "string"
        },
        {
          "internalType": "string",
          "name": "aadhar",
          "type": "string"
        },
        {
          "internalType": "uint256",
          "name": "mobno",
          "type": "uint256"
        },
        {
          "internalType": "string",
          "name": "fatherName",
          "type": "string"
        },
        {
          "internalType": "address",
          "name": "walletAddress",
          "type": "address"
        },
        {
          "internalType": "uint256",
          "name": "shgid",
          "type": "uint256"
        },
        {
          "internalType": "enum structs.UserType",
          "name": "userType",
          "type": "uint8"
        },
        {
          "internalType": "enum structs.Gender",
          "name": "gender",
          "type": "uint8"
        },
        {
          "components": [
            {
              "internalType": "string",
              "name": "state",
              "type": "string"
            },
            {
              "internalType": "string",
              "name": "district",
              "type": "string"
            },
            {
              "internalType": "string",
              "name": "blockName",
              "type": "string"
            },
            {
              "internalType": "string",
              "name": "panchyatName",
              "type": "string"
            },
            {
              "internalType": "string",
              "name": "villageName",
              "type": "string"
            }
          ],
          "internalType": "struct structs.Location",
          "name": "location",
          "type": "tuple"
        }
      ],
      "stateMutability": "view",
      "type": "function"
    },
    {
      "inputs": [
        {
          "internalType": "string",
          "name": "_name",
          "type": "string"
        },
        {
          "internalType": "address",
          "name": "_walletAddress",
          "type": "address"
        },
        {
          "internalType": "string",
          "name": "_code",
          "type": "string"
        },
        {
          "internalType": "uint256",
          "name": "_intrestRate",
          "type": "uint256"
        }
      ],
      "name": "addBank",
      "outputs": [],
      "stateMutability": "nonpayable",
      "type": "function"
    },
    {
      "inputs": [
        {
          "internalType": "uint256",
          "name": "_shgrequestid",
          "type": "uint256"
        },
        {
          "internalType": "uint256",
          "name": "_bankid",
          "type": "uint256"
        }
      ],
      "name": "approveLoan",
      "outputs": [],
      "stateMutability": "nonpayable",
      "type": "function"
    },
    {
      "inputs": [
        {
          "internalType": "uint256",
          "name": "_shgrequestid",
          "type": "uint256"
        },
        {
          "internalType": "uint256",
          "name": "_bankid",
          "type": "uint256"
        },
        {
          "internalType": "uint256",
          "name": "_amount",
          "type": "uint256"
        }
      ],
      "name": "grantLoan",
      "outputs": [],
      "stateMutability": "nonpayable",
      "type": "function"
    },
    {
      "inputs": [
        {
          "internalType": "uint256",
          "name": "_bankid",
          "type": "uint256"
        },
        {
          "internalType": "uint256",
          "name": "_requestid",
          "type": "uint256"
        },
        {
          "internalType": "uint256",
          "name": "_amount",
          "type": "uint256"
        }
      ],
      "name": "shgLoan",
      "outputs": [],
      "stateMutability": "payable",
      "type": "function"
    },
    {
      "inputs": [],
      "name": "getTotalBanks",
      "outputs": [
        {
          "internalType": "uint256",
          "name": "",
          "type": "uint256"
        }
      ],
      "stateMutability": "view",
      "type": "function"
    },
    {
      "inputs": [
        {
          "internalType": "uint256",
          "name": "bankid",
          "type": "uint256"
        }
      ],
      "name": "getAllBanks",
      "outputs": [
        {
          "components": [
            {
              "internalType": "uint256",
              "name": "id",
              "type": "uint256"
            },
            {
              "internalType": "string",
              "name": "name",
              "type": "string"
            },
            {
              "internalType": "address",
              "name": "walletAddress",
              "type": "address"
            },
            {
              "internalType": "string",
              "name": "code",
              "type": "string"
            },
            {
              "internalType": "uint256",
              "name": "intrestRate",
              "type": "uint256"
            },
            {
              "internalType": "uint256[]",
              "name": "requests",
              "type": "uint256[]"
            }
          ],
          "internalType": "struct structs.Bank",
          "name": "",
          "type": "tuple"
        }
      ],
      "stateMutability": "view",
      "type": "function"
    }
  ],
  "bytecode": "0x608060405234801561001057600080fd5b506126f9806100206000396000f3fe6080604052600436106101085760003560e01c80633cec427211610095578063941696561161006457806394169656146103e2578063db223b4c14610425578063e1ec3c681461044e578063edf5388614610492578063f61074ff146104cf57610108565b80633cec4272146103025780634d82d8e81461033f57806361c91b701461037c5780637a646492146103b957610108565b8063249c4bff116100dc578063249c4bff146101df578063257a170b146101fb57806326271cf21461023c578063365b98b21461027f5780633ae0058f146102c557610108565b806285ae2b1461010d5780630c1c78831461014e57806311c988151461018b57806314795ce3146101b6575b600080fd5b34801561011957600080fd5b50610134600480360381019061012f9190611c92565b61050c565b604051610145959493929190611ffd565b60405180910390f35b34801561015a57600080fd5b5061017560048036038101906101709190611cbb565b610672565b6040516101829190611fe2565b60405180910390f35b34801561019757600080fd5b506101a06106a3565b6040516101ad9190611fe2565b60405180910390f35b3480156101c257600080fd5b506101dd60048036038101906101d89190611bab565b6106ad565b005b6101f960048036038101906101f49190611cf7565b61088d565b005b34801561020757600080fd5b50610222600480360381019061021d9190611c92565b610a96565b604051610233959493929190612210565b60405180910390f35b34801561024857600080fd5b50610263600480360381019061025e9190611c92565b610ad9565b6040516102769796959493929190612116565b60405180910390f35b34801561028b57600080fd5b506102a660048036038101906102a19190611c92565b610f0f565b6040516102bc9a9998979695949392919061205e565b60405180910390f35b3480156102d157600080fd5b506102ec60048036038101906102e79190611b82565b611419565b6040516102f99190611fe2565b60405180910390f35b34801561030e57600080fd5b5061032960048036038101906103249190611c3e565b611431565b6040516103369190611fe2565b60405180910390f35b34801561034b57600080fd5b5061036660048036038101906103619190611c92565b611478565b6040516103739190611fc0565b60405180910390f35b34801561038857600080fd5b506103a3600480360381019061039e9190611b82565b61168b565b6040516103b09190611fe2565b60405180910390f35b3480156103c557600080fd5b506103e060048036038101906103db9190611cbb565b6116a3565b005b3480156103ee57600080fd5b5061040960048036038101906104049190611c92565b611732565b60405161041c979695949392919061219a565b60405180910390f35b34801561043157600080fd5b5061044c60048036038101906104479190611cf7565b611809565b005b34801561045a57600080fd5b5061047560048036038101906104709190611c92565b611923565b604051610489989796959493929190612263565b60405180910390f35b34801561049e57600080fd5b506104b960048036038101906104b49190611b82565b61196b565b6040516104c69190611fe2565b60405180910390f35b3480156104db57600080fd5b506104f660048036038101906104f19190611cbb565b611983565b6040516105039190611fe2565b60405180910390f35b6003602052806000526040600020600091509050806000015490806001018054610535906124e0565b80601f0160208091040260200160405190810160405280929190818152602001828054610561906124e0565b80156105ae5780601f10610583576101008083540402835291602001916105ae565b820191906000526020600020905b81548152906001019060200180831161059157829003601f168201915b5050505050908060020160009054906101000a900473ffffffffffffffffffffffffffffffffffffffff16908060030180546105e9906124e0565b80601f0160208091040260200160405190810160405280929190818152602001828054610615906124e0565b80156106625780601f1061063757610100808354040283529160200191610662565b820191906000526020600020905b81548152906001019060200180831161064557829003601f168201915b5050505050908060040154905085565b600a602052816000526040600020818154811061068e57600080fd5b90600052602060002001600091509150505481565b6000601054905090565b60006010600081546106be90612543565b91905081905590506040518060c001604052808281526020018681526020018573ffffffffffffffffffffffffffffffffffffffff168152602001848152602001838152602001600067ffffffffffffffff811115610746577f4e487b7100000000000000000000000000000000000000000000000000000000600052604160045260246000fd5b6040519080825280602002602001820160405280156107745781602001602082028036833780820191505090505b50815250600360008381526020019081526020016000206000820151816000015560208201518160010190805190602001906107b19291906119b4565b5060408201518160020160006101000a81548173ffffffffffffffffffffffffffffffffffffffff021916908373ffffffffffffffffffffffffffffffffffffffff16021790555060608201518160030190805190602001906108159291906119b4565b506080820151816004015560a082015181600501908051906020019061083c929190611a3a565b50905050601054600960008673ffffffffffffffffffffffffffffffffffffffff1673ffffffffffffffffffffffffffffffffffffffff168152602001908152602001600020819055505050505050565b826000600360008381526020019081526020016000206000015414156108b257600080fd5b60006040518061010001604052806011600081546108cf90612543565b9190508190558152602001600760008781526020019081526020016000206001015481526020018481526020018681526020016003600088815260200190815260200160002060040154815260200160076000878152602001908152602001600020600301548152602001428152602001600081525090506001600060076000878152602001908152602001600020600101548152602001908152602001600020600c0160115490806001815401808255809150506001900390600052602060002001600090919091909150553073ffffffffffffffffffffffffffffffffffffffff166108fc849081150290604051600060405180830381858888f193505050501580156109e2573d6000803e3d6000fd5b508260016000600760008881526020019081526020016000206001015481526020019081526020016000206009016000828254610a1f919061239d565b9250508190555080600560006011548152602001908152602001600020600082015181600001556020820151816001015560408201518160020155606082015181600301556080820151816004015560a0820151816005015560c0820151816006015560e082015181600701559050505050505050565b60076020528060005260406000206000915090508060000154908060010154908060020154908060030154908060040160009054906101000a900460ff16905085565b6001602052806000526040600020600091509050806000015490806002018054610b02906124e0565b80601f0160208091040260200160405190810160405280929190818152602001828054610b2e906124e0565b8015610b7b5780601f10610b5057610100808354040283529160200191610b7b565b820191906000526020600020905b815481529060010190602001808311610b5e57829003601f168201915b505050505090806003016040518060a0016040529081600082018054610ba0906124e0565b80601f0160208091040260200160405190810160405280929190818152602001828054610bcc906124e0565b8015610c195780601f10610bee57610100808354040283529160200191610c19565b820191906000526020600020905b815481529060010190602001808311610bfc57829003601f168201915b50505050508152602001600182018054610c32906124e0565b80601f0160208091040260200160405190810160405280929190818152602001828054610c5e906124e0565b8015610cab5780601f10610c8057610100808354040283529160200191610cab565b820191906000526020600020905b815481529060010190602001808311610c8e57829003601f168201915b50505050508152602001600282018054610cc4906124e0565b80601f0160208091040260200160405190810160405280929190818152602001828054610cf0906124e0565b8015610d3d5780601f10610d1257610100808354040283529160200191610d3d565b820191906000526020600020905b815481529060010190602001808311610d2057829003601f168201915b50505050508152602001600382018054610d56906124e0565b80601f0160208091040260200160405190810160405280929190818152602001828054610d82906124e0565b8015610dcf5780601f10610da457610100808354040283529160200191610dcf565b820191906000526020600020905b815481529060010190602001808311610db257829003601f168201915b50505050508152602001600482018054610de8906124e0565b80601f0160208091040260200160405190810160405280929190818152602001828054610e14906124e0565b8015610e615780601f10610e3657610100808354040283529160200191610e61565b820191906000526020600020905b815481529060010190602001808311610e4457829003601f168201915b50505050508152505090806008018054610e7a906124e0565b80601f0160208091040260200160405190810160405280929190818152602001828054610ea6906124e0565b8015610ef35780601f10610ec857610100808354040283529160200191610ef3565b820191906000526020600020905b815481529060010190602001808311610ed657829003601f168201915b50505050509080600901549080600a01549080600d0154905087565b6000602052806000526040600020600091509050806000015490806001018054610f38906124e0565b80601f0160208091040260200160405190810160405280929190818152602001828054610f64906124e0565b8015610fb15780601f10610f8657610100808354040283529160200191610fb1565b820191906000526020600020905b815481529060010190602001808311610f9457829003601f168201915b505050505090806002018054610fc6906124e0565b80601f0160208091040260200160405190810160405280929190818152602001828054610ff2906124e0565b801561103f5780601f106110145761010080835404028352916020019161103f565b820191906000526020600020905b81548152906001019060200180831161102257829003601f168201915b50505050509080600301549080600401805461105a906124e0565b80601f0160208091040260200160405190810160405280929190818152602001828054611086906124e0565b80156110d35780601f106110a8576101008083540402835291602001916110d3565b820191906000526020600020905b8154815290600101906020018083116110b657829003601f168201915b5050505050908060050160009054906101000a900473ffffffffffffffffffffffffffffffffffffffff16908060080154908060090160009054906101000a900460ff16908060090160019054906101000a900460ff169080600a016040518060a001604052908160008201805461114a906124e0565b80601f0160208091040260200160405190810160405280929190818152602001828054611176906124e0565b80156111c35780601f10611198576101008083540402835291602001916111c3565b820191906000526020600020905b8154815290600101906020018083116111a657829003601f168201915b505050505081526020016001820180546111dc906124e0565b80601f0160208091040260200160405190810160405280929190818152602001828054611208906124e0565b80156112555780601f1061122a57610100808354040283529160200191611255565b820191906000526020600020905b81548152906001019060200180831161123857829003601f168201915b5050505050815260200160028201805461126e906124e0565b80601f016020809104026020016040519081016040528092919081815260200182805461129a906124e0565b80156112e75780601f106112bc576101008083540402835291602001916112e7565b820191906000526020600020905b8154815290600101906020018083116112ca57829003601f168201915b50505050508152602001600382018054611300906124e0565b80601f016020809104026020016040519081016040528092919081815260200182805461132c906124e0565b80156113795780601f1061134e57610100808354040283529160200191611379565b820191906000526020600020905b81548152906001019060200180831161135c57829003601f168201915b50505050508152602001600482018054611392906124e0565b80601f01602080910402602001604051908101604052809291908181526020018280546113be906124e0565b801561140b5780601f106113e05761010080835404028352916020019161140b565b820191906000526020600020905b8154815290600101906020018083116113ee57829003601f168201915b50505050508152505090508a565b60086020528060005260406000206000915090505481565b600282805160208101820180518482526020830160208501208183528095505050505050818154811061146357600080fd5b90600052602060002001600091509150505481565b611480611a87565b600360008381526020019081526020016000206040518060c0016040529081600082015481526020016001820180546114b8906124e0565b80601f01602080910402602001604051908101604052809291908181526020018280546114e4906124e0565b80156115315780601f1061150657610100808354040283529160200191611531565b820191906000526020600020905b81548152906001019060200180831161151457829003601f168201915b505050505081526020016002820160009054906101000a900473ffffffffffffffffffffffffffffffffffffffff1673ffffffffffffffffffffffffffffffffffffffff1673ffffffffffffffffffffffffffffffffffffffff1681526020016003820180546115a0906124e0565b80601f01602080910402602001604051908101604052809291908181526020018280546115cc906124e0565b80156116195780601f106115ee57610100808354040283529160200191611619565b820191906000526020600020905b8154815290600101906020018083116115fc57829003601f168201915b50505050508152602001600482015481526020016005820180548060200260200160405190810160405280929190818152602001828054801561167b57602002820191906000526020600020905b815481526020019060010190808311611667575b5050505050815250509050919050565b60096020528060005260406000206000915090505481565b806000600360008381526020019081526020016000206000015414156116c857600080fd5b60006007600085815260200190815260200160002060040160006101000a81548160ff02191690836003811115611728577f4e487b7100000000000000000000000000000000000000000000000000000000600052602160045260246000fd5b0217905550505050565b6006602052806000526040600020600091509050806000015490806001015490806002015490806003018054611767906124e0565b80601f0160208091040260200160405190810160405280929190818152602001828054611793906124e0565b80156117e05780601f106117b5576101008083540402835291602001916117e0565b820191906000526020600020905b8154815290600101906020018083116117c357829003601f168201915b5050505050908060040154908060050160009054906101000a900460ff16908060060154905087565b8160006003600083815260200190815260200160002060000154141561182e57600080fd5b3073ffffffffffffffffffffffffffffffffffffffff166108fc839081150290604051600060405180830381858888f19350505050158015611874573d6000803e3d6000fd5b5060016007600086815260200190815260200160002060040160006101000a81548160ff021916908360038111156118d5577f4e487b7100000000000000000000000000000000000000000000000000000000600052602160045260246000fd5b02179055508160016000600760008881526020019081526020016000206001015481526020019081526020016000206009016000828254611916919061239d565b9250508190555050505050565b60056020528060005260406000206000915090508060000154908060010154908060020154908060030154908060040154908060050154908060060154908060070154905088565b60046020528060005260406000206000915090505481565b600b602052816000526040600020818154811061199f57600080fd5b90600052602060002001600091509150505481565b8280546119c0906124e0565b90600052602060002090601f0160209004810192826119e25760008555611a29565b82601f106119fb57805160ff1916838001178555611a29565b82800160010185558215611a29579182015b82811115611a28578251825591602001919060010190611a0d565b5b509050611a369190611ad3565b5090565b828054828255906000526020600020908101928215611a76579160200282015b82811115611a75578251825591602001919060010190611a5a565b5b509050611a839190611ad3565b5090565b6040518060c001604052806000815260200160608152602001600073ffffffffffffffffffffffffffffffffffffffff1681526020016060815260200160008152602001606081525090565b5b80821115611aec576000816000905550600101611ad4565b5090565b6000611b03611afe84612306565b6122e1565b905082815260208101848484011115611b1b57600080fd5b611b2684828561249e565b509392505050565b600081359050611b3d81612695565b92915050565b600082601f830112611b5457600080fd5b8135611b64848260208601611af0565b91505092915050565b600081359050611b7c816126ac565b92915050565b600060208284031215611b9457600080fd5b6000611ba284828501611b2e565b91505092915050565b60008060008060808587031215611bc157600080fd5b600085013567ffffffffffffffff811115611bdb57600080fd5b611be787828801611b43565b9450506020611bf887828801611b2e565b935050604085013567ffffffffffffffff811115611c1557600080fd5b611c2187828801611b43565b9250506060611c3287828801611b6d565b91505092959194509250565b60008060408385031215611c5157600080fd5b600083013567ffffffffffffffff811115611c6b57600080fd5b611c7785828601611b43565b9250506020611c8885828601611b6d565b9150509250929050565b600060208284031215611ca457600080fd5b6000611cb284828501611b6d565b91505092915050565b60008060408385031215611cce57600080fd5b6000611cdc85828601611b6d565b9250506020611ced85828601611b6d565b9150509250929050565b600080600060608486031215611d0c57600080fd5b6000611d1a86828701611b6d565b9350506020611d2b86828701611b6d565b9250506040611d3c86828701611b6d565b9150509250925092565b6000611d528383611fa2565b60208301905092915050565b611d67816123f3565b82525050565b611d76816123f3565b82525050565b6000611d8782612347565b611d91818561236a565b9350611d9c83612337565b8060005b83811015611dcd578151611db48882611d46565b9750611dbf8361235d565b925050600181019050611da0565b5085935050505092915050565b611de381612468565b82525050565b611df28161247a565b82525050565b611e018161248c565b82525050565b6000611e1282612352565b611e1c818561237b565b9350611e2c8185602086016124ad565b611e3581612648565b840191505092915050565b6000611e4b82612352565b611e55818561238c565b9350611e658185602086016124ad565b611e6e81612648565b840191505092915050565b600060c083016000830151611e916000860182611fa2565b5060208301518482036020860152611ea98282611e07565b9150506040830151611ebe6040860182611d5e565b5060608301518482036060860152611ed68282611e07565b9150506080830151611eeb6080860182611fa2565b5060a083015184820360a0860152611f038282611d7c565b9150508091505092915050565b600060a0830160008301518482036000860152611f2d8282611e07565b91505060208301518482036020860152611f478282611e07565b91505060408301518482036040860152611f618282611e07565b91505060608301518482036060860152611f7b8282611e07565b91505060808301518482036080860152611f958282611e07565b9150508091505092915050565b611fab8161245e565b82525050565b611fba8161245e565b82525050565b60006020820190508181036000830152611fda8184611e79565b905092915050565b6000602082019050611ff76000830184611fb1565b92915050565b600060a0820190506120126000830188611fb1565b81810360208301526120248187611e40565b90506120336040830186611d6d565b81810360608301526120458185611e40565b90506120546080830184611fb1565b9695505050505050565b600061014082019050612074600083018d611fb1565b8181036020830152612086818c611e40565b9050818103604083015261209a818b611e40565b90506120a9606083018a611fb1565b81810360808301526120bb8189611e40565b90506120ca60a0830188611d6d565b6120d760c0830187611fb1565b6120e460e0830186611df8565b6120f2610100830185611dda565b8181036101208301526121058184611f10565b90509b9a5050505050505050505050565b600060e08201905061212b600083018a611fb1565b818103602083015261213d8189611e40565b905081810360408301526121518188611f10565b905081810360608301526121658187611e40565b90506121746080830186611fb1565b61218160a0830185611fb1565b61218e60c0830184611fb1565b98975050505050505050565b600060e0820190506121af600083018a611fb1565b6121bc6020830189611fb1565b6121c96040830188611fb1565b81810360608301526121db8187611e40565b90506121ea6080830186611fb1565b6121f760a0830185611de9565b61220460c0830184611fb1565b98975050505050505050565b600060a0820190506122256000830188611fb1565b6122326020830187611fb1565b61223f6040830186611fb1565b61224c6060830185611fb1565b6122596080830184611de9565b9695505050505050565b600061010082019050612279600083018b611fb1565b612286602083018a611fb1565b6122936040830189611fb1565b6122a06060830188611fb1565b6122ad6080830187611fb1565b6122ba60a0830186611fb1565b6122c760c0830185611fb1565b6122d460e0830184611fb1565b9998505050505050505050565b60006122eb6122fc565b90506122f78282612512565b919050565b6000604051905090565b600067ffffffffffffffff82111561232157612320612619565b5b61232a82612648565b9050602081019050919050565b6000819050602082019050919050565b600081519050919050565b600081519050919050565b6000602082019050919050565b600082825260208201905092915050565b600082825260208201905092915050565b600082825260208201905092915050565b60006123a88261245e565b91506123b38361245e565b9250827fffffffffffffffffffffffffffffffffffffffffffffffffffffffffffffffff038211156123e8576123e761258c565b5b828201905092915050565b60006123fe8261243e565b9050919050565b600081905061241382612659565b919050565b60008190506124268261266d565b919050565b600081905061243982612681565b919050565b600073ffffffffffffffffffffffffffffffffffffffff82169050919050565b6000819050919050565b600061247382612405565b9050919050565b600061248582612418565b9050919050565b60006124978261242b565b9050919050565b82818337600083830152505050565b60005b838110156124cb5780820151818401526020810190506124b0565b838111156124da576000848401525b50505050565b600060028204905060018216806124f857607f821691505b6020821081141561250c5761250b6125ea565b5b50919050565b61251b82612648565b810181811067ffffffffffffffff8211171561253a57612539612619565b5b80604052505050565b600061254e8261245e565b91507fffffffffffffffffffffffffffffffffffffffffffffffffffffffffffffffff8214156125815761258061258c565b5b600182019050919050565b7f4e487b7100000000000000000000000000000000000000000000000000000000600052601160045260246000fd5b7f4e487b7100000000000000000000000000000000000000000000000000000000600052602160045260246000fd5b7f4e487b7100000000000000000000000000000000000000000000000000000000600052602260045260246000fd5b7f4e487b7100000000000000000000000000000000000000000000000000000000600052604160045260246000fd5b6000601f19601f8301169050919050565b6003811061266a576126696125bb565b5b50565b6004811061267e5761267d6125bb565b5b50565b60068110612692576126916125bb565b5b50565b61269e816123f3565b81146126a957600080fd5b50565b6126b58161245e565b81146126c057600080fd5b5056fea26469706673582212205ae73d7fb9c34db7263cb96625af9bdb017e6361af0af9c8704eb912bf2bdf2f64736f6c63430008040033",
  "immutableReferences": {},
  "source": "// SPDX-License-Identifier: MIT\npragma solidity ^0.8.1;\nimport \"./structs.sol\";\nimport \"./modifiers.sol\";\n\ncontract Bank is structs, modifiers {\n    function addBank(\n        string memory _name,\n        address _walletAddress,\n        string memory _code,\n        uint256 _intrestRate\n    ) public {\n        uint256 id = ++numBanks;\n        banks[id] = Bank(\n            id,\n            _name,\n            _walletAddress,\n            _code,\n            _intrestRate,\n            new uint256[](0)\n        );\n\n        addressToBankid[_walletAddress] = numBanks;\n    }\n\n    function approveLoan(uint256 _shgrequestid, uint256 _bankid)\n        public\n        onlyBank(_bankid)\n    {\n        shgRequests[_shgrequestid].status = RequestStatus.APPROVED;\n    }\n\n    function grantLoan(\n        uint256 _shgrequestid,\n        uint256 _bankid,\n        uint256 _amount\n    ) public onlyBank(_bankid) {\n        payable(address(this)).transfer(_amount);\n        shgRequests[_shgrequestid].status = RequestStatus.COMPLETED;\n        shgs[shgRequests[_shgrequestid].shgid].currentBalance += _amount;\n    }\n\n    function shgLoan(\n        uint256 _bankid,\n        uint256 _requestid,\n        uint256 _amount\n    ) public payable onlyBank(_bankid) {\n        Loan memory newLoan = Loan({\n            loanId: ++numLoans,\n            lenderId: shgRequests[_requestid].shgid,\n            amount: _amount,\n            lendeeId: _bankid,\n            intrest: banks[_bankid].intrestRate,\n            loanTime: shgRequests[_requestid].loanTime,\n            date: block.timestamp,\n            lastEMI: 0\n        });\n\n        shgs[shgRequests[_requestid].shgid].loansTaken.push(numLoans);\n\n        payable(address(this)).transfer(_amount);\n        shgs[shgRequests[_requestid].shgid].currentBalance += _amount;\n        loans[numLoans] = newLoan;\n    }\n\n    // fetch functions\n\n    function getTotalBanks() public view returns (uint256) {\n        return numBanks;\n    }\n\n    function getAllBanks(uint256 bankid) public view returns (Bank memory) {\n        return banks[bankid];\n    }\n}\n",
  "sourcePath": "/home/sdas/code/yogdaan-contracts/contracts/lib/Bank.sol",
  "compiler": {
    "name": "solc",
    "version": "0.8.4+commit.c7e474f2.Emscripten.clang"
  },
  "schemaVersion": "3.4.9",
  "updatedAt": "2022-08-25T23:39:21.891Z",
  "devdoc": {
    "kind": "dev",
    "methods": {},
    "version": 1
  },
  "userdoc": {
    "kind": "user",
    "methods": {},
    "version": 1
  }
}