{
  "contractName": "modifiers",
  "abi": [
    {
      "inputs": [
        {
          "internalType": "address",
          "name": "",
          "type": "address"
        }
      ],
      "name": "addressToBankid",
      "outputs": [
        {
          "internalType": "uint256",
          "name": "",
          "type": "uint256"
        }
      ],
      "stateMutability": "view",
      "type": "function"
    },
    {
      "inputs": [
        {
          "internalType": "address",
          "name": "",
          "type": "address"
        }
      ],
      "name": "addressToSHGid",
      "outputs": [
        {
          "internalType": "uint256",
          "name": "",
          "type": "uint256"
        }
      ],
      "stateMutability": "view",
      "type": "function"
    },
    {
      "inputs": [
        {
          "internalType": "address",
          "name": "",
          "type": "address"
        }
      ],
      "name": "addressToUser",
      "outputs": [
        {
          "internalType": "uint256",
          "name": "",
          "type": "uint256"
        }
      ],
      "stateMutability": "view",
      "type": "function"
    },
    {
      "inputs": [
        {
          "internalType": "uint256",
          "name": "",
          "type": "uint256"
        }
      ],
      "name": "banks",
      "outputs": [
        {
          "internalType": "uint256",
          "name": "id",
          "type": "uint256"
        },
        {
          "internalType": "string",
          "name": "name",
          "type": "string"
        },
        {
          "internalType": "address",
          "name": "walletAddress",
          "type": "address"
        },
        {
          "internalType": "string",
          "name": "code",
          "type": "string"
        },
        {
          "internalType": "uint256",
          "name": "intrestRate",
          "type": "uint256"
        }
      ],
      "stateMutability": "view",
      "type": "function"
    },
    {
      "inputs": [
        {
          "internalType": "string",
          "name": "",
          "type": "string"
        },
        {
          "internalType": "uint256",
          "name": "",
          "type": "uint256"
        }
      ],
      "name": "districtToSHGs",
      "outputs": [
        {
          "internalType": "uint256",
          "name": "",
          "type": "uint256"
        }
      ],
      "stateMutability": "view",
      "type": "function"
    },
    {
      "inputs": [
        {
          "internalType": "uint256",
          "name": "",
          "type": "uint256"
        }
      ],
      "name": "loans",
      "outputs": [
        {
          "internalType": "uint256",
          "name": "loanId",
          "type": "uint256"
        },
        {
          "internalType": "uint256",
          "name": "lenderId",
          "type": "uint256"
        },
        {
          "internalType": "uint256",
          "name": "amount",
          "type": "uint256"
        },
        {
          "internalType": "uint256",
          "name": "lendeeId",
          "type": "uint256"
        },
        {
          "internalType": "uint256",
          "name": "intrest",
          "type": "uint256"
        },
        {
          "internalType": "uint256",
          "name": "loanTime",
          "type": "uint256"
        },
        {
          "internalType": "uint256",
          "name": "date",
          "type": "uint256"
        },
        {
          "internalType": "uint256",
          "name": "lastEMI",
          "type": "uint256"
        }
      ],
      "stateMutability": "view",
      "type": "function"
    },
    {
      "inputs": [
        {
          "internalType": "uint256",
          "name": "",
          "type": "uint256"
        }
      ],
      "name": "shgRequests",
      "outputs": [
        {
          "internalType": "uint256",
          "name": "requestid",
          "type": "uint256"
        },
        {
          "internalType": "uint256",
          "name": "shgid",
          "type": "uint256"
        },
        {
          "internalType": "uint256",
          "name": "amount",
          "type": "uint256"
        },
        {
          "internalType": "uint256",
          "name": "loanTime",
          "type": "uint256"
        },
        {
          "internalType": "enum structs.RequestStatus",
          "name": "status",
          "type": "uint8"
        }
      ],
      "stateMutability": "view",
      "type": "function"
    },
    {
      "inputs": [
        {
          "internalType": "uint256",
          "name": "",
          "type": "uint256"
        },
        {
          "internalType": "uint256",
          "name": "",
          "type": "uint256"
        }
      ],
      "name": "shgToRequests",
      "outputs": [
        {
          "internalType": "uint256",
          "name": "",
          "type": "uint256"
        }
      ],
      "stateMutability": "view",
      "type": "function"
    },
    {
      "inputs": [
        {
          "internalType": "uint256",
          "name": "",
          "type": "uint256"
        }
      ],
      "name": "shgs",
      "outputs": [
        {
          "internalType": "uint256",
          "name": "id",
          "type": "uint256"
        },
        {
          "internalType": "string",
          "name": "name",
          "type": "string"
        },
        {
          "components": [
            {
              "internalType": "string",
              "name": "state",
              "type": "string"
            },
            {
              "internalType": "string",
              "name": "district",
              "type": "string"
            },
            {
              "internalType": "string",
              "name": "blockName",
              "type": "string"
            },
            {
              "internalType": "string",
              "name": "panchyatName",
              "type": "string"
            },
            {
              "internalType": "string",
              "name": "villageName",
              "type": "string"
            }
          ],
          "internalType": "struct structs.Location",
          "name": "location",
          "type": "tuple"
        },
        {
          "internalType": "string",
          "name": "dateOfFormation",
          "type": "string"
        },
        {
          "internalType": "uint256",
          "name": "currentBalance",
          "type": "uint256"
        },
        {
          "internalType": "uint256",
          "name": "owedBalance",
          "type": "uint256"
        },
        {
          "internalType": "uint256",
          "name": "baseIntrest",
          "type": "uint256"
        }
      ],
      "stateMutability": "view",
      "type": "function"
    },
    {
      "inputs": [
        {
          "internalType": "uint256",
          "name": "",
          "type": "uint256"
        }
      ],
      "name": "userRequests",
      "outputs": [
        {
          "internalType": "uint256",
          "name": "requestId",
          "type": "uint256"
        },
        {
          "internalType": "uint256",
          "name": "userId",
          "type": "uint256"
        },
        {
          "internalType": "uint256",
          "name": "amount",
          "type": "uint256"
        },
        {
          "internalType": "string",
          "name": "description",
          "type": "string"
        },
        {
          "internalType": "uint256",
          "name": "SHGId",
          "type": "uint256"
        },
        {
          "internalType": "enum structs.RequestStatus",
          "name": "status",
          "type": "uint8"
        },
        {
          "internalType": "uint256",
          "name": "loanTime",
          "type": "uint256"
        }
      ],
      "stateMutability": "view",
      "type": "function"
    },
    {
      "inputs": [
        {
          "internalType": "uint256",
          "name": "",
          "type": "uint256"
        },
        {
          "internalType": "uint256",
          "name": "",
          "type": "uint256"
        }
      ],
      "name": "userToRequests",
      "outputs": [
        {
          "internalType": "uint256",
          "name": "",
          "type": "uint256"
        }
      ],
      "stateMutability": "view",
      "type": "function"
    },
    {
      "inputs": [
        {
          "internalType": "uint256",
          "name": "",
          "type": "uint256"
        }
      ],
      "name": "users",
      "outputs": [
        {
          "internalType": "uint256",
          "name": "id",
          "type": "uint256"
        },
        {
          "internalType": "string",
          "name": "name",
          "type": "string"
        },
        {
          "internalType": "string",
          "name": "aadhar",
          "type": "string"
        },
        {
          "internalType": "uint256",
          "name": "mobno",
          "type": "uint256"
        },
        {
          "internalType": "string",
          "name": "fatherName",
          "type": "string"
        },
        {
          "internalType": "address",
          "name": "walletAddress",
          "type": "address"
        },
        {
          "internalType": "uint256",
          "name": "shgid",
          "type": "uint256"
        },
        {
          "internalType": "enum structs.UserType",
          "name": "userType",
          "type": "uint8"
        },
        {
          "internalType": "enum structs.Gender",
          "name": "gender",
          "type": "uint8"
        },
        {
          "components": [
            {
              "internalType": "string",
              "name": "state",
              "type": "string"
            },
            {
              "internalType": "string",
              "name": "district",
              "type": "string"
            },
            {
              "internalType": "string",
              "name": "blockName",
              "type": "string"
            },
            {
              "internalType": "string",
              "name": "panchyatName",
              "type": "string"
            },
            {
              "internalType": "string",
              "name": "villageName",
              "type": "string"
            }
          ],
          "internalType": "struct structs.Location",
          "name": "location",
          "type": "tuple"
        }
      ],
      "stateMutability": "view",
      "type": "function"
    }
  ],
  "bytecode": "0x608060405234801561001057600080fd5b506118e8806100206000396000f3fe608060405234801561001057600080fd5b50600436106100b35760003560e01c80633cec4272116100715780633cec4272146101ef57806361c91b701461021f578063941696561461024f578063e1ec3c6814610285578063edf53886146102bc578063f61074ff146102ec576100b3565b806285ae2b146100b85780630c1c7883146100ec578063257a170b1461011c57806326271cf214610150578063365b98b2146101865780633ae0058f146101bf575b600080fd5b6100d260048036038101906100cd9190611124565b61031c565b6040516100e39594939291906112f3565b60405180910390f35b6101066004803603810190610101919061114d565b610482565b60405161011391906112d8565b60405180910390f35b61013660048036038101906101319190611124565b6104b3565b604051610147959493929190611506565b60405180910390f35b61016a60048036038101906101659190611124565b6104f6565b60405161017d979695949392919061140c565b60405180910390f35b6101a0600480360381019061019b9190611124565b61092c565b6040516101b69a99989796959493929190611354565b60405180910390f35b6101d960048036038101906101d491906110a7565b610e36565b6040516101e691906112d8565b60405180910390f35b610209600480360381019061020491906110d0565b610e4e565b60405161021691906112d8565b60405180910390f35b610239600480360381019061023491906110a7565b610e95565b60405161024691906112d8565b60405180910390f35b61026960048036038101906102649190611124565b610ead565b60405161027c9796959493929190611490565b60405180910390f35b61029f600480360381019061029a9190611124565b610f84565b6040516102b3989796959493929190611559565b60405180910390f35b6102d660048036038101906102d191906110a7565b610fcc565b6040516102e391906112d8565b60405180910390f35b6103066004803603810190610301919061114d565b610fe4565b60405161031391906112d8565b60405180910390f35b600360205280600052604060002060009150905080600001549080600101805461034590611747565b80601f016020809104026020016040519081016040528092919081815260200182805461037190611747565b80156103be5780601f10610393576101008083540402835291602001916103be565b820191906000526020600020905b8154815290600101906020018083116103a157829003601f168201915b5050505050908060020160009054906101000a900473ffffffffffffffffffffffffffffffffffffffff16908060030180546103f990611747565b80601f016020809104026020016040519081016040528092919081815260200182805461042590611747565b80156104725780601f1061044757610100808354040283529160200191610472565b820191906000526020600020905b81548152906001019060200180831161045557829003601f168201915b5050505050908060040154905085565b600a602052816000526040600020818154811061049e57600080fd5b90600052602060002001600091509150505481565b60076020528060005260406000206000915090508060000154908060010154908060020154908060030154908060040160009054906101000a900460ff16905085565b600160205280600052604060002060009150905080600001549080600201805461051f90611747565b80601f016020809104026020016040519081016040528092919081815260200182805461054b90611747565b80156105985780601f1061056d57610100808354040283529160200191610598565b820191906000526020600020905b81548152906001019060200180831161057b57829003601f168201915b505050505090806003016040518060a00160405290816000820180546105bd90611747565b80601f01602080910402602001604051908101604052809291908181526020018280546105e990611747565b80156106365780601f1061060b57610100808354040283529160200191610636565b820191906000526020600020905b81548152906001019060200180831161061957829003601f168201915b5050505050815260200160018201805461064f90611747565b80601f016020809104026020016040519081016040528092919081815260200182805461067b90611747565b80156106c85780601f1061069d576101008083540402835291602001916106c8565b820191906000526020600020905b8154815290600101906020018083116106ab57829003601f168201915b505050505081526020016002820180546106e190611747565b80601f016020809104026020016040519081016040528092919081815260200182805461070d90611747565b801561075a5780601f1061072f5761010080835404028352916020019161075a565b820191906000526020600020905b81548152906001019060200180831161073d57829003601f168201915b5050505050815260200160038201805461077390611747565b80601f016020809104026020016040519081016040528092919081815260200182805461079f90611747565b80156107ec5780601f106107c1576101008083540402835291602001916107ec565b820191906000526020600020905b8154815290600101906020018083116107cf57829003601f168201915b5050505050815260200160048201805461080590611747565b80601f016020809104026020016040519081016040528092919081815260200182805461083190611747565b801561087e5780601f106108535761010080835404028352916020019161087e565b820191906000526020600020905b81548152906001019060200180831161086157829003601f168201915b5050505050815250509080600801805461089790611747565b80601f01602080910402602001604051908101604052809291908181526020018280546108c390611747565b80156109105780601f106108e557610100808354040283529160200191610910565b820191906000526020600020905b8154815290600101906020018083116108f357829003601f168201915b50505050509080600901549080600a01549080600d0154905087565b600060205280600052604060002060009150905080600001549080600101805461095590611747565b80601f016020809104026020016040519081016040528092919081815260200182805461098190611747565b80156109ce5780601f106109a3576101008083540402835291602001916109ce565b820191906000526020600020905b8154815290600101906020018083116109b157829003601f168201915b5050505050908060020180546109e390611747565b80601f0160208091040260200160405190810160405280929190818152602001828054610a0f90611747565b8015610a5c5780601f10610a3157610100808354040283529160200191610a5c565b820191906000526020600020905b815481529060010190602001808311610a3f57829003601f168201915b505050505090806003015490806004018054610a7790611747565b80601f0160208091040260200160405190810160405280929190818152602001828054610aa390611747565b8015610af05780601f10610ac557610100808354040283529160200191610af0565b820191906000526020600020905b815481529060010190602001808311610ad357829003601f168201915b5050505050908060050160009054906101000a900473ffffffffffffffffffffffffffffffffffffffff16908060080154908060090160009054906101000a900460ff16908060090160019054906101000a900460ff169080600a016040518060a0016040529081600082018054610b6790611747565b80601f0160208091040260200160405190810160405280929190818152602001828054610b9390611747565b8015610be05780601f10610bb557610100808354040283529160200191610be0565b820191906000526020600020905b815481529060010190602001808311610bc357829003601f168201915b50505050508152602001600182018054610bf990611747565b80601f0160208091040260200160405190810160405280929190818152602001828054610c2590611747565b8015610c725780601f10610c4757610100808354040283529160200191610c72565b820191906000526020600020905b815481529060010190602001808311610c5557829003601f168201915b50505050508152602001600282018054610c8b90611747565b80601f0160208091040260200160405190810160405280929190818152602001828054610cb790611747565b8015610d045780601f10610cd957610100808354040283529160200191610d04565b820191906000526020600020905b815481529060010190602001808311610ce757829003601f168201915b50505050508152602001600382018054610d1d90611747565b80601f0160208091040260200160405190810160405280929190818152602001828054610d4990611747565b8015610d965780601f10610d6b57610100808354040283529160200191610d96565b820191906000526020600020905b815481529060010190602001808311610d7957829003601f168201915b50505050508152602001600482018054610daf90611747565b80601f0160208091040260200160405190810160405280929190818152602001828054610ddb90611747565b8015610e285780601f10610dfd57610100808354040283529160200191610e28565b820191906000526020600020905b815481529060010190602001808311610e0b57829003601f168201915b50505050508152505090508a565b60086020528060005260406000206000915090505481565b6002828051602081018201805184825260208301602085012081835280955050505050508181548110610e8057600080fd5b90600052602060002001600091509150505481565b60096020528060005260406000206000915090505481565b6006602052806000526040600020600091509050806000015490806001015490806002015490806003018054610ee290611747565b80601f0160208091040260200160405190810160405280929190818152602001828054610f0e90611747565b8015610f5b5780601f10610f3057610100808354040283529160200191610f5b565b820191906000526020600020905b815481529060010190602001808311610f3e57829003601f168201915b5050505050908060040154908060050160009054906101000a900460ff16908060060154905087565b60056020528060005260406000206000915090508060000154908060010154908060020154908060030154908060040154908060050154908060060154908060070154905088565b60046020528060005260406000206000915090505481565b600b602052816000526040600020818154811061100057600080fd5b90600052602060002001600091509150505481565b6000611028611023846115fc565b6115d7565b90508281526020810184848401111561104057600080fd5b61104b848285611705565b509392505050565b60008135905061106281611884565b92915050565b600082601f83011261107957600080fd5b8135611089848260208601611015565b91505092915050565b6000813590506110a18161189b565b92915050565b6000602082840312156110b957600080fd5b60006110c784828501611053565b91505092915050565b600080604083850312156110e357600080fd5b600083013567ffffffffffffffff8111156110fd57600080fd5b61110985828601611068565b925050602061111a85828601611092565b9150509250929050565b60006020828403121561113657600080fd5b600061114484828501611092565b91505092915050565b6000806040838503121561116057600080fd5b600061116e85828601611092565b925050602061117f85828601611092565b9150509250929050565b6111928161165a565b82525050565b6111a1816116cf565b82525050565b6111b0816116e1565b82525050565b6111bf816116f3565b82525050565b60006111d08261162d565b6111da8185611638565b93506111ea818560208601611714565b6111f381611837565b840191505092915050565b60006112098261162d565b6112138185611649565b9350611223818560208601611714565b61122c81611837565b840191505092915050565b600060a083016000830151848203600086015261125482826111c5565b9150506020830151848203602086015261126e82826111c5565b9150506040830151848203604086015261128882826111c5565b915050606083015184820360608601526112a282826111c5565b915050608083015184820360808601526112bc82826111c5565b9150508091505092915050565b6112d2816116c5565b82525050565b60006020820190506112ed60008301846112c9565b92915050565b600060a08201905061130860008301886112c9565b818103602083015261131a81876111fe565b90506113296040830186611189565b818103606083015261133b81856111fe565b905061134a60808301846112c9565b9695505050505050565b60006101408201905061136a600083018d6112c9565b818103602083015261137c818c6111fe565b90508181036040830152611390818b6111fe565b905061139f606083018a6112c9565b81810360808301526113b181896111fe565b90506113c060a0830188611189565b6113cd60c08301876112c9565b6113da60e08301866111b6565b6113e8610100830185611198565b8181036101208301526113fb8184611237565b90509b9a5050505050505050505050565b600060e082019050611421600083018a6112c9565b818103602083015261143381896111fe565b905081810360408301526114478188611237565b9050818103606083015261145b81876111fe565b905061146a60808301866112c9565b61147760a08301856112c9565b61148460c08301846112c9565b98975050505050505050565b600060e0820190506114a5600083018a6112c9565b6114b260208301896112c9565b6114bf60408301886112c9565b81810360608301526114d181876111fe565b90506114e060808301866112c9565b6114ed60a08301856111a7565b6114fa60c08301846112c9565b98975050505050505050565b600060a08201905061151b60008301886112c9565b61152860208301876112c9565b61153560408301866112c9565b61154260608301856112c9565b61154f60808301846111a7565b9695505050505050565b60006101008201905061156f600083018b6112c9565b61157c602083018a6112c9565b61158960408301896112c9565b61159660608301886112c9565b6115a360808301876112c9565b6115b060a08301866112c9565b6115bd60c08301856112c9565b6115ca60e08301846112c9565b9998505050505050505050565b60006115e16115f2565b90506115ed8282611779565b919050565b6000604051905090565b600067ffffffffffffffff82111561161757611616611808565b5b61162082611837565b9050602081019050919050565b600081519050919050565b600082825260208201905092915050565b600082825260208201905092915050565b6000611665826116a5565b9050919050565b600081905061167a82611848565b919050565b600081905061168d8261185c565b919050565b60008190506116a082611870565b919050565b600073ffffffffffffffffffffffffffffffffffffffff82169050919050565b6000819050919050565b60006116da8261166c565b9050919050565b60006116ec8261167f565b9050919050565b60006116fe82611692565b9050919050565b82818337600083830152505050565b60005b83811015611732578082015181840152602081019050611717565b83811115611741576000848401525b50505050565b6000600282049050600182168061175f57607f821691505b60208210811415611773576117726117d9565b5b50919050565b61178282611837565b810181811067ffffffffffffffff821117156117a1576117a0611808565b5b80604052505050565b7f4e487b7100000000000000000000000000000000000000000000000000000000600052602160045260246000fd5b7f4e487b7100000000000000000000000000000000000000000000000000000000600052602260045260246000fd5b7f4e487b7100000000000000000000000000000000000000000000000000000000600052604160045260246000fd5b6000601f19601f8301169050919050565b60038110611859576118586117aa565b5b50565b6004811061186d5761186c6117aa565b5b50565b60068110611881576118806117aa565b5b50565b61188d8161165a565b811461189857600080fd5b50565b6118a4816116c5565b81146118af57600080fd5b5056fea2646970667358221220fe8c9a32a4100436f070c12f2c301a9ec205658fdae1b48515c9845361cbef5564736f6c63430008040033",
  "immutableReferences": {},
  "source": "// SPDX-License-Identifier: MIT\npragma solidity ^0.8.1;\nimport \"./structs.sol\";\n\ncontract modifiers is structs {\n    modifier onlySHG(uint256 shgid) {\n        require(shgs[shgid].id != 0);\n        _;\n    }\n\n    modifier onlyUser(uint256 userid) {\n        require(users[userid].id != 0);\n        _;\n    }\n\n    modifier onlyBank(uint256 bankid) {\n        require(banks[bankid].id != 0);\n        _;\n    }\n}\n",
  "sourcePath": "/home/sdas/code/yogdaan-contracts/contracts/lib/modifiers.sol",
  "compiler": {
    "name": "solc",
    "version": "0.8.4+commit.c7e474f2.Emscripten.clang"
  },
  "schemaVersion": "3.4.9",
  "updatedAt": "2022-08-25T23:39:21.946Z",
  "devdoc": {
    "kind": "dev",
    "methods": {},
    "version": 1
  },
  "userdoc": {
    "kind": "user",
    "methods": {},
    "version": 1
  }
}