{
  "contractName": "modifiers",
  "abi": [
    {
      "inputs": [
        {
          "internalType": "address",
          "name": "",
          "type": "address"
        }
      ],
      "name": "addressToBankid",
      "outputs": [
        {
          "internalType": "uint256",
          "name": "",
          "type": "uint256"
        }
      ],
      "stateMutability": "view",
      "type": "function"
    },
    {
      "inputs": [
        {
          "internalType": "address",
          "name": "",
          "type": "address"
        }
      ],
      "name": "addressToSHGid",
      "outputs": [
        {
          "internalType": "uint256",
          "name": "",
          "type": "uint256"
        }
      ],
      "stateMutability": "view",
      "type": "function"
    },
    {
      "inputs": [
        {
          "internalType": "address",
          "name": "",
          "type": "address"
        }
      ],
      "name": "addressToUser",
      "outputs": [
        {
          "internalType": "uint256",
          "name": "",
          "type": "uint256"
        }
      ],
      "stateMutability": "view",
      "type": "function"
    },
    {
      "inputs": [
        {
          "internalType": "uint256",
          "name": "",
          "type": "uint256"
        }
      ],
      "name": "banks",
      "outputs": [
        {
          "internalType": "uint256",
          "name": "id",
          "type": "uint256"
        },
        {
          "internalType": "string",
          "name": "name",
          "type": "string"
        },
        {
          "internalType": "address",
          "name": "walletAddress",
          "type": "address"
        },
        {
          "internalType": "string",
          "name": "code",
          "type": "string"
        },
        {
          "internalType": "uint256",
          "name": "intrestRate",
          "type": "uint256"
        }
      ],
      "stateMutability": "view",
      "type": "function"
    },
    {
      "inputs": [
        {
          "internalType": "uint256",
          "name": "",
          "type": "uint256"
        }
      ],
      "name": "loans",
      "outputs": [
        {
          "internalType": "uint256",
          "name": "loanId",
          "type": "uint256"
        },
        {
          "internalType": "uint256",
          "name": "lenderId",
          "type": "uint256"
        },
        {
          "internalType": "uint256",
          "name": "amount",
          "type": "uint256"
        },
        {
          "internalType": "uint256",
          "name": "lendeeId",
          "type": "uint256"
        },
        {
          "internalType": "uint256",
          "name": "intrest",
          "type": "uint256"
        },
        {
          "internalType": "uint256",
          "name": "loanTime",
          "type": "uint256"
        },
        {
          "internalType": "uint256",
          "name": "date",
          "type": "uint256"
        },
        {
          "internalType": "uint256",
          "name": "lastEMI",
          "type": "uint256"
        }
      ],
      "stateMutability": "view",
      "type": "function"
    },
    {
      "inputs": [
        {
          "internalType": "uint256",
          "name": "",
          "type": "uint256"
        }
      ],
      "name": "shgRequests",
      "outputs": [
        {
          "internalType": "uint256",
          "name": "requestid",
          "type": "uint256"
        },
        {
          "internalType": "uint256",
          "name": "shgid",
          "type": "uint256"
        },
        {
          "internalType": "uint256",
          "name": "amount",
          "type": "uint256"
        },
        {
          "internalType": "uint256",
          "name": "loanTime",
          "type": "uint256"
        },
        {
          "internalType": "enum structs.RequestStatus",
          "name": "status",
          "type": "uint8"
        }
      ],
      "stateMutability": "view",
      "type": "function"
    },
    {
      "inputs": [
        {
          "internalType": "uint256",
          "name": "",
          "type": "uint256"
        }
      ],
      "name": "shgs",
      "outputs": [
        {
          "internalType": "uint256",
          "name": "id",
          "type": "uint256"
        },
        {
          "internalType": "string",
          "name": "name",
          "type": "string"
        },
        {
          "components": [
            {
              "internalType": "string",
              "name": "state",
              "type": "string"
            },
            {
              "internalType": "string",
              "name": "district",
              "type": "string"
            },
            {
              "internalType": "string",
              "name": "blockName",
              "type": "string"
            },
            {
              "internalType": "string",
              "name": "panchyatName",
              "type": "string"
            },
            {
              "internalType": "string",
              "name": "villageName",
              "type": "string"
            }
          ],
          "internalType": "struct structs.Location",
          "name": "location",
          "type": "tuple"
        },
        {
          "internalType": "string",
          "name": "dateOfFormation",
          "type": "string"
        },
        {
          "internalType": "uint256",
          "name": "currentBalance",
          "type": "uint256"
        },
        {
          "internalType": "uint256",
          "name": "owedBalance",
          "type": "uint256"
        },
        {
          "internalType": "uint256",
          "name": "baseIntrest",
          "type": "uint256"
        }
      ],
      "stateMutability": "view",
      "type": "function"
    },
    {
      "inputs": [
        {
          "internalType": "uint256",
          "name": "",
          "type": "uint256"
        }
      ],
      "name": "userRequests",
      "outputs": [
        {
          "internalType": "uint256",
          "name": "requestId",
          "type": "uint256"
        },
        {
          "internalType": "uint256",
          "name": "userId",
          "type": "uint256"
        },
        {
          "internalType": "uint256",
          "name": "amount",
          "type": "uint256"
        },
        {
          "internalType": "string",
          "name": "description",
          "type": "string"
        },
        {
          "internalType": "uint256",
          "name": "SHGId",
          "type": "uint256"
        },
        {
          "internalType": "enum structs.RequestStatus",
          "name": "status",
          "type": "uint8"
        },
        {
          "internalType": "uint256",
          "name": "loanTime",
          "type": "uint256"
        }
      ],
      "stateMutability": "view",
      "type": "function"
    },
    {
      "inputs": [
        {
          "internalType": "uint256",
          "name": "",
          "type": "uint256"
        }
      ],
      "name": "users",
      "outputs": [
        {
          "internalType": "uint256",
          "name": "id",
          "type": "uint256"
        },
        {
          "internalType": "string",
          "name": "name",
          "type": "string"
        },
        {
          "internalType": "string",
          "name": "aadhar",
          "type": "string"
        },
        {
          "internalType": "uint256",
          "name": "mobno",
          "type": "uint256"
        },
        {
          "internalType": "string",
          "name": "fatherName",
          "type": "string"
        },
        {
          "internalType": "address",
          "name": "walletAddress",
          "type": "address"
        },
        {
          "internalType": "uint256",
          "name": "amountTaken",
          "type": "uint256"
        },
        {
          "internalType": "uint256",
          "name": "shgid",
          "type": "uint256"
        },
        {
          "internalType": "enum structs.UserType",
          "name": "userType",
          "type": "uint8"
        },
        {
          "internalType": "enum structs.Gender",
          "name": "gender",
          "type": "uint8"
        },
        {
          "components": [
            {
              "internalType": "string",
              "name": "state",
              "type": "string"
            },
            {
              "internalType": "string",
              "name": "district",
              "type": "string"
            },
            {
              "internalType": "string",
              "name": "blockName",
              "type": "string"
            },
            {
              "internalType": "string",
              "name": "panchyatName",
              "type": "string"
            },
            {
              "internalType": "string",
              "name": "villageName",
              "type": "string"
            }
          ],
          "internalType": "struct structs.Location",
          "name": "location",
          "type": "tuple"
        }
      ],
      "stateMutability": "view",
      "type": "function"
    }
  ],
  "bytecode": "0x608060405234801561001057600080fd5b506115e7806100206000396000f3fe608060405234801561001057600080fd5b50600436106100925760003560e01c80633ae0058f116100665780633ae0058f1461016f57806361c91b701461019f57806394169656146101cf578063e1ec3c6814610205578063edf538861461023c57610092565b806285ae2b14610097578063257a170b146100cb57806326271cf2146100ff578063365b98b214610135575b600080fd5b6100b160048036038101906100ac9190610f15565b61026c565b6040516100c29594939291906110a8565b60405180910390f35b6100e560048036038101906100e09190610f15565b6103d2565b6040516100f69594939291906112ca565b60405180910390f35b61011960048036038101906101149190610f15565b610415565b60405161012c97969594939291906111d0565b60405180910390f35b61014f600480360381019061014a9190610f15565b61084b565b6040516101669b9a99989796959493929190611109565b60405180910390f35b61018960048036038101906101849190610eec565b610d5b565b604051610196919061108d565b60405180910390f35b6101b960048036038101906101b49190610eec565b610d73565b6040516101c6919061108d565b60405180910390f35b6101e960048036038101906101e49190610f15565b610d8b565b6040516101fc9796959493929190611254565b60405180910390f35b61021f600480360381019061021a9190610f15565b610e62565b60405161023398979695949392919061131d565b60405180910390f35b61025660048036038101906102519190610eec565b610eaa565b604051610263919061108d565b60405180910390f35b6002602052806000526040600020600091509050806000015490806001018054610295906114a6565b80601f01602080910402602001604051908101604052809291908181526020018280546102c1906114a6565b801561030e5780601f106102e35761010080835404028352916020019161030e565b820191906000526020600020905b8154815290600101906020018083116102f157829003601f168201915b5050505050908060020160009054906101000a900473ffffffffffffffffffffffffffffffffffffffff1690806003018054610349906114a6565b80601f0160208091040260200160405190810160405280929190818152602001828054610375906114a6565b80156103c25780601f10610397576101008083540402835291602001916103c2565b820191906000526020600020905b8154815290600101906020018083116103a557829003601f168201915b5050505050908060040154905085565b60066020528060005260406000206000915090508060000154908060010154908060020154908060030154908060040160009054906101000a900460ff16905085565b600160205280600052604060002060009150905080600001549080600201805461043e906114a6565b80601f016020809104026020016040519081016040528092919081815260200182805461046a906114a6565b80156104b75780601f1061048c576101008083540402835291602001916104b7565b820191906000526020600020905b81548152906001019060200180831161049a57829003601f168201915b505050505090806003016040518060a00160405290816000820180546104dc906114a6565b80601f0160208091040260200160405190810160405280929190818152602001828054610508906114a6565b80156105555780601f1061052a57610100808354040283529160200191610555565b820191906000526020600020905b81548152906001019060200180831161053857829003601f168201915b5050505050815260200160018201805461056e906114a6565b80601f016020809104026020016040519081016040528092919081815260200182805461059a906114a6565b80156105e75780601f106105bc576101008083540402835291602001916105e7565b820191906000526020600020905b8154815290600101906020018083116105ca57829003601f168201915b50505050508152602001600282018054610600906114a6565b80601f016020809104026020016040519081016040528092919081815260200182805461062c906114a6565b80156106795780601f1061064e57610100808354040283529160200191610679565b820191906000526020600020905b81548152906001019060200180831161065c57829003601f168201915b50505050508152602001600382018054610692906114a6565b80601f01602080910402602001604051908101604052809291908181526020018280546106be906114a6565b801561070b5780601f106106e05761010080835404028352916020019161070b565b820191906000526020600020905b8154815290600101906020018083116106ee57829003601f168201915b50505050508152602001600482018054610724906114a6565b80601f0160208091040260200160405190810160405280929190818152602001828054610750906114a6565b801561079d5780601f106107725761010080835404028352916020019161079d565b820191906000526020600020905b81548152906001019060200180831161078057829003601f168201915b505050505081525050908060080180546107b6906114a6565b80601f01602080910402602001604051908101604052809291908181526020018280546107e2906114a6565b801561082f5780601f106108045761010080835404028352916020019161082f565b820191906000526020600020905b81548152906001019060200180831161081257829003601f168201915b50505050509080600901549080600a01549080600d0154905087565b6000602052806000526040600020600091509050806000015490806001018054610874906114a6565b80601f01602080910402602001604051908101604052809291908181526020018280546108a0906114a6565b80156108ed5780601f106108c2576101008083540402835291602001916108ed565b820191906000526020600020905b8154815290600101906020018083116108d057829003601f168201915b505050505090806002018054610902906114a6565b80601f016020809104026020016040519081016040528092919081815260200182805461092e906114a6565b801561097b5780601f106109505761010080835404028352916020019161097b565b820191906000526020600020905b81548152906001019060200180831161095e57829003601f168201915b505050505090806003015490806004018054610996906114a6565b80601f01602080910402602001604051908101604052809291908181526020018280546109c2906114a6565b8015610a0f5780601f106109e457610100808354040283529160200191610a0f565b820191906000526020600020905b8154815290600101906020018083116109f257829003601f168201915b5050505050908060050160009054906101000a900473ffffffffffffffffffffffffffffffffffffffff16908060070154908060080154908060090160009054906101000a900460ff16908060090160019054906101000a900460ff169080600a016040518060a0016040529081600082018054610a8c906114a6565b80601f0160208091040260200160405190810160405280929190818152602001828054610ab8906114a6565b8015610b055780601f10610ada57610100808354040283529160200191610b05565b820191906000526020600020905b815481529060010190602001808311610ae857829003601f168201915b50505050508152602001600182018054610b1e906114a6565b80601f0160208091040260200160405190810160405280929190818152602001828054610b4a906114a6565b8015610b975780601f10610b6c57610100808354040283529160200191610b97565b820191906000526020600020905b815481529060010190602001808311610b7a57829003601f168201915b50505050508152602001600282018054610bb0906114a6565b80601f0160208091040260200160405190810160405280929190818152602001828054610bdc906114a6565b8015610c295780601f10610bfe57610100808354040283529160200191610c29565b820191906000526020600020905b815481529060010190602001808311610c0c57829003601f168201915b50505050508152602001600382018054610c42906114a6565b80601f0160208091040260200160405190810160405280929190818152602001828054610c6e906114a6565b8015610cbb5780601f10610c9057610100808354040283529160200191610cbb565b820191906000526020600020905b815481529060010190602001808311610c9e57829003601f168201915b50505050508152602001600482018054610cd4906114a6565b80601f0160208091040260200160405190810160405280929190818152602001828054610d00906114a6565b8015610d4d5780601f10610d2257610100808354040283529160200191610d4d565b820191906000526020600020905b815481529060010190602001808311610d3057829003601f168201915b50505050508152505090508b565b60076020528060005260406000206000915090505481565b60086020528060005260406000206000915090505481565b6005602052806000526040600020600091509050806000015490806001015490806002015490806003018054610dc0906114a6565b80601f0160208091040260200160405190810160405280929190818152602001828054610dec906114a6565b8015610e395780601f10610e0e57610100808354040283529160200191610e39565b820191906000526020600020905b815481529060010190602001808311610e1c57829003601f168201915b5050505050908060040154908060050160009054906101000a900460ff16908060060154905087565b60046020528060005260406000206000915090508060000154908060010154908060020154908060030154908060040154908060050154908060060154908060070154905088565b60036020528060005260406000206000915090505481565b600081359050610ed181611583565b92915050565b600081359050610ee68161159a565b92915050565b600060208284031215610efe57600080fd5b6000610f0c84828501610ec2565b91505092915050565b600060208284031215610f2757600080fd5b6000610f3584828501610ed7565b91505092915050565b610f47816113c8565b82525050565b610f568161143d565b82525050565b610f658161144f565b82525050565b610f7481611461565b82525050565b6000610f858261139b565b610f8f81856113a6565b9350610f9f818560208601611473565b610fa881611536565b840191505092915050565b6000610fbe8261139b565b610fc881856113b7565b9350610fd8818560208601611473565b610fe181611536565b840191505092915050565b600060a08301600083015184820360008601526110098282610f7a565b915050602083015184820360208601526110238282610f7a565b9150506040830151848203604086015261103d8282610f7a565b915050606083015184820360608601526110578282610f7a565b915050608083015184820360808601526110718282610f7a565b9150508091505092915050565b61108781611433565b82525050565b60006020820190506110a2600083018461107e565b92915050565b600060a0820190506110bd600083018861107e565b81810360208301526110cf8187610fb3565b90506110de6040830186610f3e565b81810360608301526110f08185610fb3565b90506110ff608083018461107e565b9695505050505050565b60006101608201905061111f600083018e61107e565b8181036020830152611131818d610fb3565b90508181036040830152611145818c610fb3565b9050611154606083018b61107e565b8181036080830152611166818a610fb3565b905061117560a0830189610f3e565b61118260c083018861107e565b61118f60e083018761107e565b61119d610100830186610f6b565b6111ab610120830185610f4d565b8181036101408301526111be8184610fec565b90509c9b505050505050505050505050565b600060e0820190506111e5600083018a61107e565b81810360208301526111f78189610fb3565b9050818103604083015261120b8188610fec565b9050818103606083015261121f8187610fb3565b905061122e608083018661107e565b61123b60a083018561107e565b61124860c083018461107e565b98975050505050505050565b600060e082019050611269600083018a61107e565b611276602083018961107e565b611283604083018861107e565b81810360608301526112958187610fb3565b90506112a4608083018661107e565b6112b160a0830185610f5c565b6112be60c083018461107e565b98975050505050505050565b600060a0820190506112df600083018861107e565b6112ec602083018761107e565b6112f9604083018661107e565b611306606083018561107e565b6113136080830184610f5c565b9695505050505050565b600061010082019050611333600083018b61107e565b611340602083018a61107e565b61134d604083018961107e565b61135a606083018861107e565b611367608083018761107e565b61137460a083018661107e565b61138160c083018561107e565b61138e60e083018461107e565b9998505050505050505050565b600081519050919050565b600082825260208201905092915050565b600082825260208201905092915050565b60006113d382611413565b9050919050565b60008190506113e882611547565b919050565b60008190506113fb8261155b565b919050565b600081905061140e8261156f565b919050565b600073ffffffffffffffffffffffffffffffffffffffff82169050919050565b6000819050919050565b6000611448826113da565b9050919050565b600061145a826113ed565b9050919050565b600061146c82611400565b9050919050565b60005b83811015611491578082015181840152602081019050611476565b838111156114a0576000848401525b50505050565b600060028204905060018216806114be57607f821691505b602082108114156114d2576114d1611507565b5b50919050565b7f4e487b7100000000000000000000000000000000000000000000000000000000600052602160045260246000fd5b7f4e487b7100000000000000000000000000000000000000000000000000000000600052602260045260246000fd5b6000601f19601f8301169050919050565b60038110611558576115576114d8565b5b50565b6004811061156c5761156b6114d8565b5b50565b600681106115805761157f6114d8565b5b50565b61158c816113c8565b811461159757600080fd5b50565b6115a381611433565b81146115ae57600080fd5b5056fea2646970667358221220d31ba41f8359bd1be02640519dc1397865b40e9e3f560782a564a56c2496e67764736f6c63430008040033",
  "immutableReferences": {},
  "source": "// SPDX-License-Identifier: MIT\npragma solidity ^0.8.1;\nimport \"./structs.sol\";\n\ncontract modifiers is structs {\n    modifier onlySHG(uint256 shgid) {\n        require(shgs[shgid].id != 0);\n        _;\n    }\n\n    modifier onlyUser(uint256 userid) {\n        require(users[userid].id != 0);\n        _;\n    }\n\n    modifier onlyBank(uint256 bankid) {\n        require(banks[bankid].id != 0);\n        _;\n    }\n}\n",
  "sourcePath": "/home/sdas/code/yogdaan-contracts/contracts/lib/modifiers.sol",
  "compiler": {
    "name": "solc",
    "version": "0.8.4+commit.c7e474f2.Emscripten.clang"
  },
  "schemaVersion": "3.4.9",
  "updatedAt": "2022-08-24T16:54:54.442Z",
  "devdoc": {
    "kind": "dev",
    "methods": {},
    "version": 1
  },
  "userdoc": {
    "kind": "user",
    "methods": {},
    "version": 1
  }
}