{
  "contractName": "modifiers",
  "abi": [
    {
      "inputs": [
        {
          "internalType": "address",
          "name": "",
          "type": "address"
        }
      ],
      "name": "addressToBankid",
      "outputs": [
        {
          "internalType": "uint256",
          "name": "",
          "type": "uint256"
        }
      ],
      "stateMutability": "view",
      "type": "function"
    },
    {
      "inputs": [
        {
          "internalType": "address",
          "name": "",
          "type": "address"
        }
      ],
      "name": "addressToSHGid",
      "outputs": [
        {
          "internalType": "uint256",
          "name": "",
          "type": "uint256"
        }
      ],
      "stateMutability": "view",
      "type": "function"
    },
    {
      "inputs": [
        {
          "internalType": "address",
          "name": "",
          "type": "address"
        }
      ],
      "name": "addressToUser",
      "outputs": [
        {
          "internalType": "uint256",
          "name": "",
          "type": "uint256"
        }
      ],
      "stateMutability": "view",
      "type": "function"
    },
    {
      "inputs": [
        {
          "internalType": "uint256",
          "name": "",
          "type": "uint256"
        }
      ],
      "name": "banks",
      "outputs": [
        {
          "internalType": "uint256",
          "name": "id",
          "type": "uint256"
        },
        {
          "internalType": "string",
          "name": "name",
          "type": "string"
        },
        {
          "internalType": "address",
          "name": "walletAddress",
          "type": "address"
        },
        {
          "internalType": "string",
          "name": "code",
          "type": "string"
        },
        {
          "internalType": "uint256",
          "name": "intrestRate",
          "type": "uint256"
        }
      ],
      "stateMutability": "view",
      "type": "function"
    },
    {
      "inputs": [
        {
          "internalType": "uint256",
          "name": "",
          "type": "uint256"
        }
      ],
      "name": "loans",
      "outputs": [
        {
          "internalType": "uint256",
          "name": "loanId",
          "type": "uint256"
        },
        {
          "internalType": "uint256",
          "name": "lenderId",
          "type": "uint256"
        },
        {
          "internalType": "uint256",
          "name": "amount",
          "type": "uint256"
        },
        {
          "internalType": "uint256",
          "name": "lendeeId",
          "type": "uint256"
        },
        {
          "internalType": "uint256",
          "name": "intrest",
          "type": "uint256"
        },
        {
          "internalType": "uint256",
          "name": "loanTime",
          "type": "uint256"
        },
        {
          "internalType": "uint256",
          "name": "date",
          "type": "uint256"
        },
        {
          "internalType": "uint256",
          "name": "lastEMI",
          "type": "uint256"
        }
      ],
      "stateMutability": "view",
      "type": "function"
    },
    {
      "inputs": [
        {
          "internalType": "uint256",
          "name": "",
          "type": "uint256"
        }
      ],
      "name": "shgRequests",
      "outputs": [
        {
          "internalType": "uint256",
          "name": "requestid",
          "type": "uint256"
        },
        {
          "internalType": "uint256",
          "name": "shgid",
          "type": "uint256"
        },
        {
          "internalType": "uint256",
          "name": "amount",
          "type": "uint256"
        },
        {
          "internalType": "uint256",
          "name": "loanTime",
          "type": "uint256"
        },
        {
          "internalType": "enum structs.RequestStatus",
          "name": "status",
          "type": "uint8"
        }
      ],
      "stateMutability": "view",
      "type": "function"
    },
    {
      "inputs": [
        {
          "internalType": "uint256",
          "name": "",
          "type": "uint256"
        }
      ],
      "name": "shgs",
      "outputs": [
        {
          "internalType": "uint256",
          "name": "id",
          "type": "uint256"
        },
        {
          "internalType": "string",
          "name": "name",
          "type": "string"
        },
        {
          "components": [
            {
              "internalType": "string",
              "name": "state",
              "type": "string"
            },
            {
              "internalType": "string",
              "name": "district",
              "type": "string"
            },
            {
              "internalType": "string",
              "name": "blockName",
              "type": "string"
            },
            {
              "internalType": "string",
              "name": "panchyatName",
              "type": "string"
            },
            {
              "internalType": "string",
              "name": "villageName",
              "type": "string"
            }
          ],
          "internalType": "struct structs.Location",
          "name": "location",
          "type": "tuple"
        },
        {
          "internalType": "string",
          "name": "dateOfFormation",
          "type": "string"
        },
        {
          "internalType": "uint256",
          "name": "currentBalance",
          "type": "uint256"
        },
        {
          "internalType": "uint256",
          "name": "owedBalance",
          "type": "uint256"
        },
        {
          "internalType": "uint256",
          "name": "baseIntrest",
          "type": "uint256"
        }
      ],
      "stateMutability": "view",
      "type": "function"
    },
    {
      "inputs": [
        {
          "internalType": "string",
          "name": "",
          "type": "string"
        },
        {
          "internalType": "uint256",
          "name": "",
          "type": "uint256"
        }
      ],
      "name": "shgsOfDistrict",
      "outputs": [
        {
          "internalType": "uint256",
          "name": "",
          "type": "uint256"
        }
      ],
      "stateMutability": "view",
      "type": "function"
    },
    {
      "inputs": [
        {
          "internalType": "uint256",
          "name": "",
          "type": "uint256"
        }
      ],
      "name": "userRequests",
      "outputs": [
        {
          "internalType": "uint256",
          "name": "requestId",
          "type": "uint256"
        },
        {
          "internalType": "uint256",
          "name": "userId",
          "type": "uint256"
        },
        {
          "internalType": "uint256",
          "name": "amount",
          "type": "uint256"
        },
        {
          "internalType": "string",
          "name": "description",
          "type": "string"
        },
        {
          "internalType": "uint256",
          "name": "SHGId",
          "type": "uint256"
        },
        {
          "internalType": "enum structs.RequestStatus",
          "name": "status",
          "type": "uint8"
        },
        {
          "internalType": "uint256",
          "name": "loanTime",
          "type": "uint256"
        }
      ],
      "stateMutability": "view",
      "type": "function"
    },
    {
      "inputs": [
        {
          "internalType": "uint256",
          "name": "",
          "type": "uint256"
        }
      ],
      "name": "users",
      "outputs": [
        {
          "internalType": "uint256",
          "name": "id",
          "type": "uint256"
        },
        {
          "internalType": "string",
          "name": "name",
          "type": "string"
        },
        {
          "internalType": "string",
          "name": "aadhar",
          "type": "string"
        },
        {
          "internalType": "uint256",
          "name": "mobno",
          "type": "uint256"
        },
        {
          "internalType": "string",
          "name": "fatherName",
          "type": "string"
        },
        {
          "internalType": "address",
          "name": "walletAddress",
          "type": "address"
        },
        {
          "internalType": "uint256",
          "name": "shgid",
          "type": "uint256"
        },
        {
          "internalType": "enum structs.UserType",
          "name": "userType",
          "type": "uint8"
        },
        {
          "internalType": "enum structs.Gender",
          "name": "gender",
          "type": "uint8"
        },
        {
          "components": [
            {
              "internalType": "string",
              "name": "state",
              "type": "string"
            },
            {
              "internalType": "string",
              "name": "district",
              "type": "string"
            },
            {
              "internalType": "string",
              "name": "blockName",
              "type": "string"
            },
            {
              "internalType": "string",
              "name": "panchyatName",
              "type": "string"
            },
            {
              "internalType": "string",
              "name": "villageName",
              "type": "string"
            }
          ],
          "internalType": "struct structs.Location",
          "name": "location",
          "type": "tuple"
        }
      ],
      "stateMutability": "view",
      "type": "function"
    }
  ],
  "bytecode": "0x608060405234801561001057600080fd5b506117d4806100206000396000f3fe608060405234801561001057600080fd5b506004361061009d5760003560e01c806361c91b701161006657806361c91b70146101a95780637c97761a146101d95780639416965614610209578063e1ec3c681461023f578063edf53886146102765761009d565b806285ae2b146100a2578063257a170b146100d657806326271cf21461010a578063365b98b2146101405780633ae0058f14610179575b600080fd5b6100bc60048036038101906100b7919061104c565b6102a6565b6040516100cd9594939291906111df565b60405180910390f35b6100f060048036038101906100eb919061104c565b61040c565b6040516101019594939291906113f2565b60405180910390f35b610124600480360381019061011f919061104c565b61044f565b60405161013797969594939291906112f8565b60405180910390f35b61015a6004803603810190610155919061104c565b610885565b6040516101709a99989796959493929190611240565b60405180910390f35b610193600480360381019061018e9190610fcf565b610d8f565b6040516101a091906111c4565b60405180910390f35b6101c360048036038101906101be9190610fcf565b610da7565b6040516101d091906111c4565b60405180910390f35b6101f360048036038101906101ee9190610ff8565b610dbf565b60405161020091906111c4565b60405180910390f35b610223600480360381019061021e919061104c565b610e06565b604051610236979695949392919061137c565b60405180910390f35b6102596004803603810190610254919061104c565b610edd565b60405161026d989796959493929190611445565b60405180910390f35b610290600480360381019061028b9190610fcf565b610f25565b60405161029d91906111c4565b60405180910390f35b60036020528060005260406000206000915090508060000154908060010180546102cf90611633565b80601f01602080910402602001604051908101604052809291908181526020018280546102fb90611633565b80156103485780601f1061031d57610100808354040283529160200191610348565b820191906000526020600020905b81548152906001019060200180831161032b57829003601f168201915b5050505050908060020160009054906101000a900473ffffffffffffffffffffffffffffffffffffffff169080600301805461038390611633565b80601f01602080910402602001604051908101604052809291908181526020018280546103af90611633565b80156103fc5780601f106103d1576101008083540402835291602001916103fc565b820191906000526020600020905b8154815290600101906020018083116103df57829003601f168201915b5050505050908060040154905085565b60076020528060005260406000206000915090508060000154908060010154908060020154908060030154908060040160009054906101000a900460ff16905085565b600160205280600052604060002060009150905080600001549080600201805461047890611633565b80601f01602080910402602001604051908101604052809291908181526020018280546104a490611633565b80156104f15780601f106104c6576101008083540402835291602001916104f1565b820191906000526020600020905b8154815290600101906020018083116104d457829003601f168201915b505050505090806003016040518060a001604052908160008201805461051690611633565b80601f016020809104026020016040519081016040528092919081815260200182805461054290611633565b801561058f5780601f106105645761010080835404028352916020019161058f565b820191906000526020600020905b81548152906001019060200180831161057257829003601f168201915b505050505081526020016001820180546105a890611633565b80601f01602080910402602001604051908101604052809291908181526020018280546105d490611633565b80156106215780601f106105f657610100808354040283529160200191610621565b820191906000526020600020905b81548152906001019060200180831161060457829003601f168201915b5050505050815260200160028201805461063a90611633565b80601f016020809104026020016040519081016040528092919081815260200182805461066690611633565b80156106b35780601f10610688576101008083540402835291602001916106b3565b820191906000526020600020905b81548152906001019060200180831161069657829003601f168201915b505050505081526020016003820180546106cc90611633565b80601f01602080910402602001604051908101604052809291908181526020018280546106f890611633565b80156107455780601f1061071a57610100808354040283529160200191610745565b820191906000526020600020905b81548152906001019060200180831161072857829003601f168201915b5050505050815260200160048201805461075e90611633565b80601f016020809104026020016040519081016040528092919081815260200182805461078a90611633565b80156107d75780601f106107ac576101008083540402835291602001916107d7565b820191906000526020600020905b8154815290600101906020018083116107ba57829003601f168201915b505050505081525050908060080180546107f090611633565b80601f016020809104026020016040519081016040528092919081815260200182805461081c90611633565b80156108695780601f1061083e57610100808354040283529160200191610869565b820191906000526020600020905b81548152906001019060200180831161084c57829003601f168201915b50505050509080600901549080600a01549080600d0154905087565b60006020528060005260406000206000915090508060000154908060010180546108ae90611633565b80601f01602080910402602001604051908101604052809291908181526020018280546108da90611633565b80156109275780601f106108fc57610100808354040283529160200191610927565b820191906000526020600020905b81548152906001019060200180831161090a57829003601f168201915b50505050509080600201805461093c90611633565b80601f016020809104026020016040519081016040528092919081815260200182805461096890611633565b80156109b55780601f1061098a576101008083540402835291602001916109b5565b820191906000526020600020905b81548152906001019060200180831161099857829003601f168201915b5050505050908060030154908060040180546109d090611633565b80601f01602080910402602001604051908101604052809291908181526020018280546109fc90611633565b8015610a495780601f10610a1e57610100808354040283529160200191610a49565b820191906000526020600020905b815481529060010190602001808311610a2c57829003601f168201915b5050505050908060050160009054906101000a900473ffffffffffffffffffffffffffffffffffffffff16908060080154908060090160009054906101000a900460ff16908060090160019054906101000a900460ff169080600a016040518060a0016040529081600082018054610ac090611633565b80601f0160208091040260200160405190810160405280929190818152602001828054610aec90611633565b8015610b395780601f10610b0e57610100808354040283529160200191610b39565b820191906000526020600020905b815481529060010190602001808311610b1c57829003601f168201915b50505050508152602001600182018054610b5290611633565b80601f0160208091040260200160405190810160405280929190818152602001828054610b7e90611633565b8015610bcb5780601f10610ba057610100808354040283529160200191610bcb565b820191906000526020600020905b815481529060010190602001808311610bae57829003601f168201915b50505050508152602001600282018054610be490611633565b80601f0160208091040260200160405190810160405280929190818152602001828054610c1090611633565b8015610c5d5780601f10610c3257610100808354040283529160200191610c5d565b820191906000526020600020905b815481529060010190602001808311610c4057829003601f168201915b50505050508152602001600382018054610c7690611633565b80601f0160208091040260200160405190810160405280929190818152602001828054610ca290611633565b8015610cef5780601f10610cc457610100808354040283529160200191610cef565b820191906000526020600020905b815481529060010190602001808311610cd257829003601f168201915b50505050508152602001600482018054610d0890611633565b80601f0160208091040260200160405190810160405280929190818152602001828054610d3490611633565b8015610d815780601f10610d5657610100808354040283529160200191610d81565b820191906000526020600020905b815481529060010190602001808311610d6457829003601f168201915b50505050508152505090508a565b60086020528060005260406000206000915090505481565b60096020528060005260406000206000915090505481565b6002828051602081018201805184825260208301602085012081835280955050505050508181548110610df157600080fd5b90600052602060002001600091509150505481565b6006602052806000526040600020600091509050806000015490806001015490806002015490806003018054610e3b90611633565b80601f0160208091040260200160405190810160405280929190818152602001828054610e6790611633565b8015610eb45780601f10610e8957610100808354040283529160200191610eb4565b820191906000526020600020905b815481529060010190602001808311610e9757829003601f168201915b5050505050908060040154908060050160009054906101000a900460ff16908060060154905087565b60056020528060005260406000206000915090508060000154908060010154908060020154908060030154908060040154908060050154908060060154908060070154905088565b60046020528060005260406000206000915090505481565b6000610f50610f4b846114e8565b6114c3565b905082815260208101848484011115610f6857600080fd5b610f738482856115f1565b509392505050565b600081359050610f8a81611770565b92915050565b600082601f830112610fa157600080fd5b8135610fb1848260208601610f3d565b91505092915050565b600081359050610fc981611787565b92915050565b600060208284031215610fe157600080fd5b6000610fef84828501610f7b565b91505092915050565b6000806040838503121561100b57600080fd5b600083013567ffffffffffffffff81111561102557600080fd5b61103185828601610f90565b925050602061104285828601610fba565b9150509250929050565b60006020828403121561105e57600080fd5b600061106c84828501610fba565b91505092915050565b61107e81611546565b82525050565b61108d816115bb565b82525050565b61109c816115cd565b82525050565b6110ab816115df565b82525050565b60006110bc82611519565b6110c68185611524565b93506110d6818560208601611600565b6110df81611723565b840191505092915050565b60006110f582611519565b6110ff8185611535565b935061110f818560208601611600565b61111881611723565b840191505092915050565b600060a083016000830151848203600086015261114082826110b1565b9150506020830151848203602086015261115a82826110b1565b9150506040830151848203604086015261117482826110b1565b9150506060830151848203606086015261118e82826110b1565b915050608083015184820360808601526111a882826110b1565b9150508091505092915050565b6111be816115b1565b82525050565b60006020820190506111d960008301846111b5565b92915050565b600060a0820190506111f460008301886111b5565b818103602083015261120681876110ea565b90506112156040830186611075565b818103606083015261122781856110ea565b905061123660808301846111b5565b9695505050505050565b600061014082019050611256600083018d6111b5565b8181036020830152611268818c6110ea565b9050818103604083015261127c818b6110ea565b905061128b606083018a6111b5565b818103608083015261129d81896110ea565b90506112ac60a0830188611075565b6112b960c08301876111b5565b6112c660e08301866110a2565b6112d4610100830185611084565b8181036101208301526112e78184611123565b90509b9a5050505050505050505050565b600060e08201905061130d600083018a6111b5565b818103602083015261131f81896110ea565b905081810360408301526113338188611123565b9050818103606083015261134781876110ea565b905061135660808301866111b5565b61136360a08301856111b5565b61137060c08301846111b5565b98975050505050505050565b600060e082019050611391600083018a6111b5565b61139e60208301896111b5565b6113ab60408301886111b5565b81810360608301526113bd81876110ea565b90506113cc60808301866111b5565b6113d960a0830185611093565b6113e660c08301846111b5565b98975050505050505050565b600060a08201905061140760008301886111b5565b61141460208301876111b5565b61142160408301866111b5565b61142e60608301856111b5565b61143b6080830184611093565b9695505050505050565b60006101008201905061145b600083018b6111b5565b611468602083018a6111b5565b61147560408301896111b5565b61148260608301886111b5565b61148f60808301876111b5565b61149c60a08301866111b5565b6114a960c08301856111b5565b6114b660e08301846111b5565b9998505050505050505050565b60006114cd6114de565b90506114d98282611665565b919050565b6000604051905090565b600067ffffffffffffffff821115611503576115026116f4565b5b61150c82611723565b9050602081019050919050565b600081519050919050565b600082825260208201905092915050565b600082825260208201905092915050565b600061155182611591565b9050919050565b600081905061156682611734565b919050565b600081905061157982611748565b919050565b600081905061158c8261175c565b919050565b600073ffffffffffffffffffffffffffffffffffffffff82169050919050565b6000819050919050565b60006115c682611558565b9050919050565b60006115d88261156b565b9050919050565b60006115ea8261157e565b9050919050565b82818337600083830152505050565b60005b8381101561161e578082015181840152602081019050611603565b8381111561162d576000848401525b50505050565b6000600282049050600182168061164b57607f821691505b6020821081141561165f5761165e6116c5565b5b50919050565b61166e82611723565b810181811067ffffffffffffffff8211171561168d5761168c6116f4565b5b80604052505050565b7f4e487b7100000000000000000000000000000000000000000000000000000000600052602160045260246000fd5b7f4e487b7100000000000000000000000000000000000000000000000000000000600052602260045260246000fd5b7f4e487b7100000000000000000000000000000000000000000000000000000000600052604160045260246000fd5b6000601f19601f8301169050919050565b6003811061174557611744611696565b5b50565b6004811061175957611758611696565b5b50565b6006811061176d5761176c611696565b5b50565b61177981611546565b811461178457600080fd5b50565b611790816115b1565b811461179b57600080fd5b5056fea264697066735822122095115e7ac72df01eaa237191a1d616e85b615217772de5356aaf060a3bcb91be64736f6c63430008040033",
  "immutableReferences": {},
  "source": "// SPDX-License-Identifier: MIT\npragma solidity ^0.8.1;\nimport \"./structs.sol\";\n\ncontract modifiers is structs {\n    modifier onlySHG(uint256 shgid) {\n        require(shgs[shgid].id != 0);\n        _;\n    }\n\n    modifier onlyUser(uint256 userid) {\n        require(users[userid].id != 0);\n        _;\n    }\n\n    modifier onlyBank(uint256 bankid) {\n        require(banks[bankid].id != 0);\n        _;\n    }\n}\n",
  "sourcePath": "/home/sdas/code/yogdaan-contracts/contracts/lib/modifiers.sol",
  "compiler": {
    "name": "solc",
    "version": "0.8.4+commit.c7e474f2.Emscripten.clang"
  },
  "schemaVersion": "3.4.9",
  "updatedAt": "2022-08-25T18:42:24.436Z",
  "devdoc": {
    "kind": "dev",
    "methods": {},
    "version": 1
  },
  "userdoc": {
    "kind": "user",
    "methods": {},
    "version": 1
  }
}