{
  "contractName": "SHG",
  "abi": [
    {
      "inputs": [
        {
          "internalType": "address",
          "name": "",
          "type": "address"
        }
      ],
      "name": "addressToBankid",
      "outputs": [
        {
          "internalType": "uint256",
          "name": "",
          "type": "uint256"
        }
      ],
      "stateMutability": "view",
      "type": "function"
    },
    {
      "inputs": [
        {
          "internalType": "address",
          "name": "",
          "type": "address"
        }
      ],
      "name": "addressToSHGid",
      "outputs": [
        {
          "internalType": "uint256",
          "name": "",
          "type": "uint256"
        }
      ],
      "stateMutability": "view",
      "type": "function"
    },
    {
      "inputs": [
        {
          "internalType": "address",
          "name": "",
          "type": "address"
        }
      ],
      "name": "addressToUser",
      "outputs": [
        {
          "internalType": "uint256",
          "name": "",
          "type": "uint256"
        }
      ],
      "stateMutability": "view",
      "type": "function"
    },
    {
      "inputs": [
        {
          "internalType": "uint256",
          "name": "",
          "type": "uint256"
        }
      ],
      "name": "banks",
      "outputs": [
        {
          "internalType": "uint256",
          "name": "id",
          "type": "uint256"
        },
        {
          "internalType": "string",
          "name": "name",
          "type": "string"
        },
        {
          "internalType": "address",
          "name": "walletAddress",
          "type": "address"
        },
        {
          "internalType": "string",
          "name": "code",
          "type": "string"
        },
        {
          "internalType": "uint256",
          "name": "intrestRate",
          "type": "uint256"
        }
      ],
      "stateMutability": "view",
      "type": "function"
    },
    {
      "inputs": [
        {
          "internalType": "uint256",
          "name": "",
          "type": "uint256"
        }
      ],
      "name": "loans",
      "outputs": [
        {
          "internalType": "uint256",
          "name": "loanId",
          "type": "uint256"
        },
        {
          "internalType": "uint256",
          "name": "lenderId",
          "type": "uint256"
        },
        {
          "internalType": "uint256",
          "name": "amount",
          "type": "uint256"
        },
        {
          "internalType": "uint256",
          "name": "lendeeId",
          "type": "uint256"
        },
        {
          "internalType": "uint256",
          "name": "intrest",
          "type": "uint256"
        },
        {
          "internalType": "uint256",
          "name": "loanTime",
          "type": "uint256"
        },
        {
          "internalType": "uint256",
          "name": "date",
          "type": "uint256"
        },
        {
          "internalType": "uint256",
          "name": "lastEMI",
          "type": "uint256"
        }
      ],
      "stateMutability": "view",
      "type": "function"
    },
    {
      "inputs": [
        {
          "internalType": "uint256",
          "name": "",
          "type": "uint256"
        }
      ],
      "name": "shgRequests",
      "outputs": [
        {
          "internalType": "uint256",
          "name": "requestid",
          "type": "uint256"
        },
        {
          "internalType": "uint256",
          "name": "shgid",
          "type": "uint256"
        },
        {
          "internalType": "uint256",
          "name": "amount",
          "type": "uint256"
        },
        {
          "internalType": "uint256",
          "name": "loanTime",
          "type": "uint256"
        },
        {
          "internalType": "enum structs.RequestStatus",
          "name": "status",
          "type": "uint8"
        }
      ],
      "stateMutability": "view",
      "type": "function"
    },
    {
      "inputs": [
        {
          "internalType": "uint256",
          "name": "",
          "type": "uint256"
        }
      ],
      "name": "shgs",
      "outputs": [
        {
          "internalType": "uint256",
          "name": "id",
          "type": "uint256"
        },
        {
          "internalType": "string",
          "name": "name",
          "type": "string"
        },
        {
          "components": [
            {
              "internalType": "string",
              "name": "state",
              "type": "string"
            },
            {
              "internalType": "string",
              "name": "district",
              "type": "string"
            },
            {
              "internalType": "string",
              "name": "blockName",
              "type": "string"
            },
            {
              "internalType": "string",
              "name": "panchyatName",
              "type": "string"
            },
            {
              "internalType": "string",
              "name": "villageName",
              "type": "string"
            }
          ],
          "internalType": "struct structs.Location",
          "name": "location",
          "type": "tuple"
        },
        {
          "internalType": "string",
          "name": "dateOfFormation",
          "type": "string"
        },
        {
          "internalType": "uint256",
          "name": "currentBalance",
          "type": "uint256"
        },
        {
          "internalType": "uint256",
          "name": "owedBalance",
          "type": "uint256"
        },
        {
          "internalType": "uint256",
          "name": "baseIntrest",
          "type": "uint256"
        }
      ],
      "stateMutability": "view",
      "type": "function"
    },
    {
      "inputs": [
        {
          "internalType": "uint256",
          "name": "",
          "type": "uint256"
        }
      ],
      "name": "userRequests",
      "outputs": [
        {
          "internalType": "uint256",
          "name": "requestId",
          "type": "uint256"
        },
        {
          "internalType": "uint256",
          "name": "userId",
          "type": "uint256"
        },
        {
          "internalType": "uint256",
          "name": "amount",
          "type": "uint256"
        },
        {
          "internalType": "string",
          "name": "description",
          "type": "string"
        },
        {
          "internalType": "uint256",
          "name": "SHGId",
          "type": "uint256"
        },
        {
          "internalType": "enum structs.RequestStatus",
          "name": "status",
          "type": "uint8"
        },
        {
          "internalType": "uint256",
          "name": "loanTime",
          "type": "uint256"
        }
      ],
      "stateMutability": "view",
      "type": "function"
    },
    {
      "inputs": [
        {
          "internalType": "uint256",
          "name": "",
          "type": "uint256"
        }
      ],
      "name": "users",
      "outputs": [
        {
          "internalType": "uint256",
          "name": "id",
          "type": "uint256"
        },
        {
          "internalType": "string",
          "name": "name",
          "type": "string"
        },
        {
          "internalType": "string",
          "name": "aadhar",
          "type": "string"
        },
        {
          "internalType": "uint256",
          "name": "mobno",
          "type": "uint256"
        },
        {
          "internalType": "string",
          "name": "fatherName",
          "type": "string"
        },
        {
          "internalType": "address",
          "name": "walletAddress",
          "type": "address"
        },
        {
          "internalType": "uint256",
          "name": "amountTaken",
          "type": "uint256"
        },
        {
          "internalType": "uint256",
          "name": "shgid",
          "type": "uint256"
        },
        {
          "internalType": "enum structs.UserType",
          "name": "userType",
          "type": "uint8"
        },
        {
          "internalType": "enum structs.Gender",
          "name": "gender",
          "type": "uint8"
        },
        {
          "components": [
            {
              "internalType": "string",
              "name": "state",
              "type": "string"
            },
            {
              "internalType": "string",
              "name": "district",
              "type": "string"
            },
            {
              "internalType": "string",
              "name": "blockName",
              "type": "string"
            },
            {
              "internalType": "string",
              "name": "panchyatName",
              "type": "string"
            },
            {
              "internalType": "string",
              "name": "villageName",
              "type": "string"
            }
          ],
          "internalType": "struct structs.Location",
          "name": "location",
          "type": "tuple"
        }
      ],
      "stateMutability": "view",
      "type": "function"
    },
    {
      "inputs": [
        {
          "internalType": "uint256[]",
          "name": "members",
          "type": "uint256[]"
        },
        {
          "internalType": "uint256",
          "name": "president",
          "type": "uint256"
        },
        {
          "internalType": "uint256",
          "name": "treasurer",
          "type": "uint256"
        },
        {
          "internalType": "string",
          "name": "name",
          "type": "string"
        },
        {
          "components": [
            {
              "internalType": "string",
              "name": "state",
              "type": "string"
            },
            {
              "internalType": "string",
              "name": "district",
              "type": "string"
            },
            {
              "internalType": "string",
              "name": "blockName",
              "type": "string"
            },
            {
              "internalType": "string",
              "name": "panchyatName",
              "type": "string"
            },
            {
              "internalType": "string",
              "name": "villageName",
              "type": "string"
            }
          ],
          "internalType": "struct structs.Location",
          "name": "location",
          "type": "tuple"
        },
        {
          "internalType": "string",
          "name": "dateOfFormation",
          "type": "string"
        },
        {
          "internalType": "uint256",
          "name": "_baseIntrest",
          "type": "uint256"
        }
      ],
      "name": "addSHG",
      "outputs": [],
      "stateMutability": "nonpayable",
      "type": "function"
    },
    {
      "inputs": [
        {
          "internalType": "uint256",
          "name": "userid",
          "type": "uint256"
        },
        {
          "internalType": "uint256",
          "name": "shg",
          "type": "uint256"
        }
      ],
      "name": "addSHGMember",
      "outputs": [],
      "stateMutability": "nonpayable",
      "type": "function"
    },
    {
      "inputs": [
        {
          "internalType": "uint256",
          "name": "userid",
          "type": "uint256"
        },
        {
          "internalType": "uint256",
          "name": "shgid",
          "type": "uint256"
        }
      ],
      "name": "removeSHGMember",
      "outputs": [],
      "stateMutability": "nonpayable",
      "type": "function"
    },
    {
      "inputs": [
        {
          "internalType": "uint256",
          "name": "id",
          "type": "uint256"
        },
        {
          "internalType": "enum structs.UserType",
          "name": "updatedType",
          "type": "uint8"
        }
      ],
      "name": "updateMemberRole",
      "outputs": [],
      "stateMutability": "nonpayable",
      "type": "function"
    },
    {
      "inputs": [
        {
          "internalType": "uint256",
          "name": "_requestid",
          "type": "uint256"
        }
      ],
      "name": "sendGrant",
      "outputs": [],
      "stateMutability": "nonpayable",
      "type": "function"
    },
    {
      "inputs": [
        {
          "internalType": "uint256",
          "name": "_requestid",
          "type": "uint256"
        },
        {
          "internalType": "uint256",
          "name": "_shgid",
          "type": "uint256"
        }
      ],
      "name": "approveRequest",
      "outputs": [],
      "stateMutability": "nonpayable",
      "type": "function"
    },
    {
      "inputs": [
        {
          "internalType": "uint256",
          "name": "_shgid",
          "type": "uint256"
        },
        {
          "internalType": "uint256",
          "name": "_amount",
          "type": "uint256"
        },
        {
          "internalType": "uint256",
          "name": "_loanTime",
          "type": "uint256"
        }
      ],
      "name": "sendRequestToBank",
      "outputs": [],
      "stateMutability": "nonpayable",
      "type": "function"
    },
    {
      "inputs": [
        {
          "internalType": "uint256",
          "name": "_shgid",
          "type": "uint256"
        },
        {
          "internalType": "uint256",
          "name": "_loanid",
          "type": "uint256"
        },
        {
          "internalType": "uint256",
          "name": "_amount",
          "type": "uint256"
        }
      ],
      "name": "shgPayEMI",
      "outputs": [],
      "stateMutability": "nonpayable",
      "type": "function"
    },
    {
      "inputs": [
        {
          "internalType": "uint256",
          "name": "_shgid",
          "type": "uint256"
        },
        {
          "internalType": "uint256",
          "name": "_loanid",
          "type": "uint256"
        }
      ],
      "name": "getSHGEMI",
      "outputs": [
        {
          "internalType": "uint256",
          "name": "",
          "type": "uint256"
        }
      ],
      "stateMutability": "nonpayable",
      "type": "function"
    },
    {
      "inputs": [
        {
          "internalType": "uint256",
          "name": "shgid",
          "type": "uint256"
        }
      ],
      "name": "getSHGMembers",
      "outputs": [
        {
          "internalType": "uint256[]",
          "name": "",
          "type": "uint256[]"
        }
      ],
      "stateMutability": "view",
      "type": "function"
    }
  ],
  "bytecode": "0x608060405234801561001057600080fd5b50613937806100206000396000f3fe608060405234801561001057600080fd5b50600436106101205760003560e01c806361c91b70116100ad5780639bbc9ab1116100715780639bbc9ab11461036b578063a6e90a5814610387578063af08a94f146103a3578063e1ec3c68146103d3578063edf538861461040a57610120565b806361c91b701461029d578063769d0e16146102cd5780637d550bb3146102fd5780638106bada14610319578063941696561461033557610120565b80632c0a90a9116100f45780632c0a90a9146101df578063365b98b2146101fb57806339d8bed1146102355780633ae0058f146102515780634f269c921461028157610120565b806285ae2b14610125578063021af39714610159578063257a170b1461017557806326271cf2146101a9575b600080fd5b61013f600480360381019061013a9190612bbf565b61043a565b60405161015095949392919061300f565b60405180910390f35b610173600480360381019061016e9190612c60565b6105a0565b005b61018f600480360381019061018a9190612bbf565b610777565b6040516101a0959493929190613231565b60405180910390f35b6101c360048036038101906101be9190612bbf565b6107ba565b6040516101d69796959493929190613137565b60405180910390f35b6101f960048036038101906101f49190612c24565b610bf0565b005b61021560048036038101906102109190612bbf565b610d46565b60405161022c9b9a99989796959493929190613070565b60405180910390f35b61024f600480360381019061024a9190612c24565b611256565b005b61026b60048036038101906102669190612a98565b61136c565b6040516102789190612ff4565b60405180910390f35b61029b60048036038101906102969190612be8565b611384565b005b6102b760048036038101906102b29190612a98565b6113eb565b6040516102c49190612ff4565b60405180910390f35b6102e760048036038101906102e29190612c24565b611403565b6040516102f49190612ff4565b60405180910390f35b61031760048036038101906103129190612c60565b611521565b005b610333600480360381019061032e9190612ac1565b611600565b005b61034f600480360381019061034a9190612bbf565b611c74565b60405161036297969594939291906131bb565b60405180910390f35b61038560048036038101906103809190612bbf565b611d4b565b005b6103a1600480360381019061039c9190612c24565b6121f3565b005b6103bd60048036038101906103b89190612bbf565b612385565b6040516103ca9190612f32565b60405180910390f35b6103ed60048036038101906103e89190612bbf565b6123f3565b604051610401989796959493929190613284565b60405180910390f35b610424600480360381019061041f9190612a98565b61243b565b6040516104319190612ff4565b60405180910390f35b6002602052806000526040600020600091509050806000015490806001018054610463906135ec565b80601f016020809104026020016040519081016040528092919081815260200182805461048f906135ec565b80156104dc5780601f106104b1576101008083540402835291602001916104dc565b820191906000526020600020905b8154815290600101906020018083116104bf57829003601f168201915b5050505050908060020160009054906101000a900473ffffffffffffffffffffffffffffffffffffffff1690806003018054610517906135ec565b80601f0160208091040260200160405190810160405280929190818152602001828054610543906135ec565b80156105905780601f1061056557610100808354040283529160200191610590565b820191906000526020600020905b81548152906001019060200180831161057357829003601f168201915b5050505050908060040154905085565b826000600160008381526020019081526020016000206000015414156105c557600080fd5b83600080600360003373ffffffffffffffffffffffffffffffffffffffff1673ffffffffffffffffffffffffffffffffffffffff168152602001908152602001600020548152602001908152602001600020600901541461062557600080fd5b6000600c600081548092919061063a9061364f565b9190505590506040518060a0016040528082815260200186815260200185815260200184815260200160038081111561069c577f4e487b7100000000000000000000000000000000000000000000000000000000600052602160045260246000fd5b815250600660008381526020019081526020016000206000820151816000015560208201518160010155604082015181600201556060820151816003015560808201518160040160006101000a81548160ff0219169083600381111561072b577f4e487b7100000000000000000000000000000000000000000000000000000000600052602160045260246000fd5b021790555090505060016000868152602001908152602001600020600c018190806001815401808255809150506001900390600052602060002001600090919091909150555050505050565b60066020528060005260406000206000915090508060000154908060010154908060020154908060030154908060040160009054906101000a900460ff16905085565b60016020528060005260406000206000915090508060000154908060020180546107e3906135ec565b80601f016020809104026020016040519081016040528092919081815260200182805461080f906135ec565b801561085c5780601f106108315761010080835404028352916020019161085c565b820191906000526020600020905b81548152906001019060200180831161083f57829003601f168201915b505050505090806003016040518060a0016040529081600082018054610881906135ec565b80601f01602080910402602001604051908101604052809291908181526020018280546108ad906135ec565b80156108fa5780601f106108cf576101008083540402835291602001916108fa565b820191906000526020600020905b8154815290600101906020018083116108dd57829003601f168201915b50505050508152602001600182018054610913906135ec565b80601f016020809104026020016040519081016040528092919081815260200182805461093f906135ec565b801561098c5780601f106109615761010080835404028352916020019161098c565b820191906000526020600020905b81548152906001019060200180831161096f57829003601f168201915b505050505081526020016002820180546109a5906135ec565b80601f01602080910402602001604051908101604052809291908181526020018280546109d1906135ec565b8015610a1e5780601f106109f357610100808354040283529160200191610a1e565b820191906000526020600020905b815481529060010190602001808311610a0157829003601f168201915b50505050508152602001600382018054610a37906135ec565b80601f0160208091040260200160405190810160405280929190818152602001828054610a63906135ec565b8015610ab05780601f10610a8557610100808354040283529160200191610ab0565b820191906000526020600020905b815481529060010190602001808311610a9357829003601f168201915b50505050508152602001600482018054610ac9906135ec565b80601f0160208091040260200160405190810160405280929190818152602001828054610af5906135ec565b8015610b425780601f10610b1757610100808354040283529160200191610b42565b820191906000526020600020905b815481529060010190602001808311610b2557829003601f168201915b50505050508152505090806008018054610b5b906135ec565b80601f0160208091040260200160405190810160405280929190818152602001828054610b87906135ec565b8015610bd45780601f10610ba957610100808354040283529160200191610bd4565b820191906000526020600020905b815481529060010190602001808311610bb757829003601f168201915b50505050509080600901549080600a01549080600d0154905087565b80600060016000838152602001908152602001600020600001541415610c1557600080fd5b600060056000858152602001908152602001600020905082816004015414610c3c57600080fd5b610c4584612453565b610c4e57600080fd5b80600701600360003373ffffffffffffffffffffffffffffffffffffffff1673ffffffffffffffffffffffffffffffffffffffff16815260200190815260200160002054908060018154018082558091505060019003906000526020600020016000909190919091505560026001600085815260200190815260200160002060010180549050610cde9190613440565b81600701805490501115610d405760008160050160006101000a81548160ff02191690836003811115610d3a577f4e487b7100000000000000000000000000000000000000000000000000000000600052602160045260246000fd5b02179055505b50505050565b6000602052806000526040600020600091509050806000015490806001018054610d6f906135ec565b80601f0160208091040260200160405190810160405280929190818152602001828054610d9b906135ec565b8015610de85780601f10610dbd57610100808354040283529160200191610de8565b820191906000526020600020905b815481529060010190602001808311610dcb57829003601f168201915b505050505090806002018054610dfd906135ec565b80601f0160208091040260200160405190810160405280929190818152602001828054610e29906135ec565b8015610e765780601f10610e4b57610100808354040283529160200191610e76565b820191906000526020600020905b815481529060010190602001808311610e5957829003601f168201915b505050505090806003015490806004018054610e91906135ec565b80601f0160208091040260200160405190810160405280929190818152602001828054610ebd906135ec565b8015610f0a5780601f10610edf57610100808354040283529160200191610f0a565b820191906000526020600020905b815481529060010190602001808311610eed57829003601f168201915b5050505050908060050160009054906101000a900473ffffffffffffffffffffffffffffffffffffffff169080600801549080600901549080600a0160009054906101000a900460ff169080600a0160019054906101000a900460ff169080600b016040518060a0016040529081600082018054610f87906135ec565b80601f0160208091040260200160405190810160405280929190818152602001828054610fb3906135ec565b80156110005780601f10610fd557610100808354040283529160200191611000565b820191906000526020600020905b815481529060010190602001808311610fe357829003601f168201915b50505050508152602001600182018054611019906135ec565b80601f0160208091040260200160405190810160405280929190818152602001828054611045906135ec565b80156110925780601f1061106757610100808354040283529160200191611092565b820191906000526020600020905b81548152906001019060200180831161107557829003601f168201915b505050505081526020016002820180546110ab906135ec565b80601f01602080910402602001604051908101604052809291908181526020018280546110d7906135ec565b80156111245780601f106110f957610100808354040283529160200191611124565b820191906000526020600020905b81548152906001019060200180831161110757829003601f168201915b5050505050815260200160038201805461113d906135ec565b80601f0160208091040260200160405190810160405280929190818152602001828054611169906135ec565b80156111b65780601f1061118b576101008083540402835291602001916111b6565b820191906000526020600020905b81548152906001019060200180831161119957829003601f168201915b505050505081526020016004820180546111cf906135ec565b80601f01602080910402602001604051908101604052809291908181526020018280546111fb906135ec565b80156112485780601f1061121d57610100808354040283529160200191611248565b820191906000526020600020905b81548152906001019060200180831161122b57829003601f168201915b50505050508152505090508b565b8060008084815260200190815260200160002060090154146112ad576040517f08c379a00000000000000000000000000000000000000000000000000000000081526004016112a490612f94565b60405180910390fd5b80600080848152602001908152602001600020600901819055506003600080848152602001908152602001600020600a0160006101000a81548160ff02191690836005811115611326577f4e487b7100000000000000000000000000000000000000000000000000000000600052602160045260246000fd5b0217905550600160008281526020019081526020016000206001018290806001815401808255809150506001900390600052602060002001600090919091909150555050565b60076020528060005260406000206000915090505481565b80600080848152602001908152602001600020600a0160006101000a81548160ff021916908360058111156113e2577f4e487b7100000000000000000000000000000000000000000000000000000000600052602160045260246000fd5b02179055505050565b60086020528060005260406000206000915090505481565b60008260006001600083815260200190815260200160002060000154141561142a57600080fd5b60006004600085815260200190815260200160002090506000601e603c80601885600701544261145a91906134cb565b6114649190613440565b61146e9190613471565b6114789190613471565b6114829190613471565b90506000811161149157600080fd5b60008260020154905060008360040154905060008460050154905060008382600c6114bc9190613471565b6114c691906134cb565b600c6064856114d59190613440565b6114df9190613471565b60016114eb91906133ea565b856114f69190613471565b18905080866002015461150991906134cb565b86600201819055508097505050505050505092915050565b8260006001600083815260200190815260200160002060000154141561154657600080fd5b60006115528585611403565b905082811461156057600080fd5b60006004600086815260200190815260200160002090503073ffffffffffffffffffffffffffffffffffffffff166108fc859081150290604051600060405180830381858888f193505050501580156115bd573d6000803e3d6000fd5b5083600160008360030154815260200190815260200160002060090160008282546115e891906133ea565b92505081905550428160070181905550505050505050565b600787511015611645576040517f08c379a000000000000000000000000000000000000000000000000000000000815260040161163c90612f54565b60405180910390fd5b6000600a600081546116569061364f565b91905081905590506040518061014001604052808281526020018981526020018681526020018581526020018481526020016000815260200160008152602001600067ffffffffffffffff8111156116d7577f4e487b7100000000000000000000000000000000000000000000000000000000600052604160045260246000fd5b6040519080825280602002602001820160405280156117055781602001602082028036833780820191505090505b508152602001600067ffffffffffffffff81111561174c577f4e487b7100000000000000000000000000000000000000000000000000000000600052604160045260246000fd5b60405190808252806020026020018201604052801561177a5781602001602082028036833780820191505090505b50815260200183815250600160008381526020019081526020016000206000820151816000015560208201518160010190805190602001906117bd92919061276b565b5060408201518160020190805190602001906117da9291906127b8565b5060608201518160030160008201518160000190805190602001906118009291906127b8565b50602082015181600101908051906020019061181d9291906127b8565b50604082015181600201908051906020019061183a9291906127b8565b5060608201518160030190805190602001906118579291906127b8565b5060808201518160040190805190602001906118749291906127b8565b50505060808201518160080190805190602001906118939291906127b8565b5060a0820151816009015560c082015181600a015560e082015181600b0190805190602001906118c492919061276b565b5061010082015181600c0190805190602001906118e292919061276b565b5061012082015181600d015590505060005b8851811015611b8e5760036000808b848151811061193b577f4e487b7100000000000000000000000000000000000000000000000000000000600052603260045260246000fd5b60200260200101518152602001908152602001600020600a0160006101000a81548160ff0219169083600581111561199c577f4e487b7100000000000000000000000000000000000000000000000000000000600052602160045260246000fd5b0217905550878982815181106119db577f4e487b7100000000000000000000000000000000000000000000000000000000600052603260045260246000fd5b60200260200101511415611a8e5760008060008b8481518110611a27577f4e487b7100000000000000000000000000000000000000000000000000000000600052603260045260246000fd5b60200260200101518152602001908152602001600020600a0160006101000a81548160ff02191690836005811115611a88577f4e487b7100000000000000000000000000000000000000000000000000000000600052602160045260246000fd5b02179055505b86898281518110611ac8577f4e487b7100000000000000000000000000000000000000000000000000000000600052603260045260246000fd5b60200260200101511415611b7b5760026000808b8481518110611b14577f4e487b7100000000000000000000000000000000000000000000000000000000600052603260045260246000fd5b60200260200101518152602001908152602001600020600a0160006101000a81548160ff02191690836005811115611b75577f4e487b7100000000000000000000000000000000000000000000000000000000600052602160045260246000fd5b02179055505b8080611b869061364f565b9150506118f4565b5060005b8851811015611c6957600a54600760008060008d8681518110611bde577f4e487b7100000000000000000000000000000000000000000000000000000000600052603260045260246000fd5b6020026020010151815260200190815260200160002060050160009054906101000a900473ffffffffffffffffffffffffffffffffffffffff1673ffffffffffffffffffffffffffffffffffffffff1673ffffffffffffffffffffffffffffffffffffffff168152602001908152602001600020819055508080611c619061364f565b915050611b92565b505050505050505050565b6005602052806000526040600020600091509050806000015490806001015490806002015490806003018054611ca9906135ec565b80601f0160208091040260200160405190810160405280929190818152602001828054611cd5906135ec565b8015611d225780601f10611cf757610100808354040283529160200191611d22565b820191906000526020600020905b815481529060010190602001808311611d0557829003601f168201915b5050505050908060040154908060050160009054906101000a900460ff16908060060154905087565b60026005811115611d85577f4e487b7100000000000000000000000000000000000000000000000000000000600052602160045260246000fd5b600080600360003373ffffffffffffffffffffffffffffffffffffffff1673ffffffffffffffffffffffffffffffffffffffff168152602001908152602001600020548152602001908152602001600020600a0160009054906101000a900460ff166005811115611e1f577f4e487b7100000000000000000000000000000000000000000000000000000000600052602160045260246000fd5b14611e5f576040517f08c379a0000000000000000000000000000000000000000000000000000000008152600401611e5690612fd4565b60405180910390fd5b60006003811115611e99577f4e487b7100000000000000000000000000000000000000000000000000000000600052602160045260246000fd5b6005600083815260200190815260200160002060050160009054906101000a900460ff166003811115611ef5577f4e487b7100000000000000000000000000000000000000000000000000000000600052602160045260246000fd5b14611f35576040517f08c379a0000000000000000000000000000000000000000000000000000000008152600401611f2c90612fb4565b60405180910390fd5b600060056000838152602001908152602001600020905060018160050160006101000a81548160ff02191690836003811115611f9a577f4e487b7100000000000000000000000000000000000000000000000000000000600052602160045260246000fd5b02179055506000604051806101000160405280600e60008154611fbc9061364f565b91905081905581526020018360040154815260200183600201548152602001836001015481526020016001600085600401548152602001908152602001600020600d0154815260200183600601548152602001428152602001600081525090508060046000600e548152602001908152602001600020600082015181600001556020820151816001015560408201518160020155606082015181600301556080820151816004015560a0820151816005015560c0820151816006015560e082015181600701559050506001600083600401548152602001908152602001600020600b01600e54908060018154018082558091505060019003906000526020600020016000909190919091505560008083600101548152602001908152602001600020600601600e5490806001815401808255809150506001900390600052602060002001600090919091909150558160020154600160008460040154815260200190815260200160002060090154101561213557600080fd5b6000808360010154815260200190815260200160002060050160009054906101000a900473ffffffffffffffffffffffffffffffffffffffff1673ffffffffffffffffffffffffffffffffffffffff166108fc83600201549081150290604051600060405180830381858888f193505050501580156121b8573d6000803e3d6000fd5b508160020154600160008460040154815260200190815260200160002060090160008282546121e791906134cb565b92505081905550505050565b60006001600083815260200190815260200160002090506122668160010180548060200260200160405190810160405280929190818152602001828054801561225b57602002820191906000526020600020905b815481526020019060010190808311612247575b505050505083612531565b6122a5576040517f08c379a000000000000000000000000000000000000000000000000000000000815260040161229c90612f74565b60405180910390fd5b6000612303826001018054806020026020016040519081016040528092919081815260200182805480156122f857602002820191906000526020600020905b8154815260200190600101908083116122e4575b5050505050856125bf565b905060006123638360010180548060200260200160405190810160405280929190818152602001828054801561235857602002820191906000526020600020905b815481526020019060010190808311612344575b505050505083612640565b90508083600101908051906020019061237d92919061276b565b505050505050565b6060600160008381526020019081526020016000206001018054806020026020016040519081016040528092919081815260200182805480156123e757602002820191906000526020600020905b8154815260200190600101908083116123d3575b50505050509050919050565b60046020528060005260406000206000915090508060000154908060010154908060020154908060030154908060040154908060050154908060060154908060070154905088565b60036020528060005260406000206000915090505481565b60008060056000848152602001908152602001600020600701905060005b818054905081101561252557600360003373ffffffffffffffffffffffffffffffffffffffff1673ffffffffffffffffffffffffffffffffffffffff168152602001908152602001600020548282815481106124f6577f4e487b7100000000000000000000000000000000000000000000000000000000600052603260045260246000fd5b906000526020600020015414156125125760009250505061252c565b808061251d9061364f565b915050612471565b5060019150505b919050565b600080600090505b6001845161254791906134cb565b8110156125b35782848281518110612588577f4e487b7100000000000000000000000000000000000000000000000000000000600052603260045260246000fd5b602002602001015114156125a05760019150506125b9565b80806125ab9061364f565b915050612539565b50600090505b92915050565b600080600090505b8351811015612634578284828151811061260a577f4e487b7100000000000000000000000000000000000000000000000000000000600052603260045260246000fd5b60200260200101511415612621578091505061263a565b808061262c9061364f565b9150506125c7565b50600090505b92915050565b60608251821061264f57600080fd5b60008290505b6001845161266391906134cb565b81101561270f578360018261267891906133ea565b815181106126af577f4e487b7100000000000000000000000000000000000000000000000000000000600052603260045260246000fd5b60200260200101518482815181106126f0577f4e487b7100000000000000000000000000000000000000000000000000000000600052603260045260246000fd5b60200260200101818152505080806127079061364f565b915050612655565b50826001845161271f91906134cb565b81518110612756577f4e487b7100000000000000000000000000000000000000000000000000000000600052603260045260246000fd5b60200260200101600081525082905092915050565b8280548282559060005260206000209081019282156127a7579160200282015b828111156127a657825182559160200191906001019061278b565b5b5090506127b4919061283e565b5090565b8280546127c4906135ec565b90600052602060002090601f0160209004810192826127e6576000855561282d565b82601f106127ff57805160ff191683800117855561282d565b8280016001018555821561282d579182015b8281111561282c578251825591602001919060010190612811565b5b50905061283a919061283e565b5090565b5b8082111561285757600081600090555060010161283f565b5090565b600061286e61286984613327565b613302565b9050808382526020820190508285602086028201111561288d57600080fd5b60005b858110156128bd57816128a38882612a83565b845260208401935060208301925050600181019050612890565b5050509392505050565b60006128da6128d584613353565b613302565b9050828152602081018484840111156128f257600080fd5b6128fd8482856135aa565b509392505050565b600081359050612914816138c3565b92915050565b600082601f83011261292b57600080fd5b813561293b84826020860161285b565b91505092915050565b600081359050612953816138da565b92915050565b600082601f83011261296a57600080fd5b813561297a8482602086016128c7565b91505092915050565b600060a0828403121561299557600080fd5b61299f60a0613302565b9050600082013567ffffffffffffffff8111156129bb57600080fd5b6129c784828501612959565b600083015250602082013567ffffffffffffffff8111156129e757600080fd5b6129f384828501612959565b602083015250604082013567ffffffffffffffff811115612a1357600080fd5b612a1f84828501612959565b604083015250606082013567ffffffffffffffff811115612a3f57600080fd5b612a4b84828501612959565b606083015250608082013567ffffffffffffffff811115612a6b57600080fd5b612a7784828501612959565b60808301525092915050565b600081359050612a92816138ea565b92915050565b600060208284031215612aaa57600080fd5b6000612ab884828501612905565b91505092915050565b600080600080600080600060e0888a031215612adc57600080fd5b600088013567ffffffffffffffff811115612af657600080fd5b612b028a828b0161291a565b9750506020612b138a828b01612a83565b9650506040612b248a828b01612a83565b955050606088013567ffffffffffffffff811115612b4157600080fd5b612b4d8a828b01612959565b945050608088013567ffffffffffffffff811115612b6a57600080fd5b612b768a828b01612983565b93505060a088013567ffffffffffffffff811115612b9357600080fd5b612b9f8a828b01612959565b92505060c0612bb08a828b01612a83565b91505092959891949750929550565b600060208284031215612bd157600080fd5b6000612bdf84828501612a83565b91505092915050565b60008060408385031215612bfb57600080fd5b6000612c0985828601612a83565b9250506020612c1a85828601612944565b9150509250929050565b60008060408385031215612c3757600080fd5b6000612c4585828601612a83565b9250506020612c5685828601612a83565b9150509250929050565b600080600060608486031215612c7557600080fd5b6000612c8386828701612a83565b9350506020612c9486828701612a83565b9250506040612ca586828701612a83565b9150509250925092565b6000612cbb8383612f14565b60208301905092915050565b612cd0816134ff565b82525050565b6000612ce182613394565b612ceb81856133b7565b9350612cf683613384565b8060005b83811015612d27578151612d0e8882612caf565b9750612d19836133aa565b925050600181019050612cfa565b5085935050505092915050565b612d3d81613574565b82525050565b612d4c81613586565b82525050565b612d5b81613598565b82525050565b6000612d6c8261339f565b612d7681856133c8565b9350612d868185602086016135b9565b612d8f81613783565b840191505092915050565b6000612da58261339f565b612daf81856133d9565b9350612dbf8185602086016135b9565b612dc881613783565b840191505092915050565b6000612de0601a836133d9565b9150612deb82613794565b602082019050919050565b6000612e036025836133d9565b9150612e0e826137bd565b604082019050919050565b6000612e266012836133d9565b9150612e318261380c565b602082019050919050565b6000612e496012836133d9565b9150612e5482613835565b602082019050919050565b6000612e6c6013836133d9565b9150612e778261385e565b602082019050919050565b600060a0830160008301518482036000860152612e9f8282612d61565b91505060208301518482036020860152612eb98282612d61565b91505060408301518482036040860152612ed38282612d61565b91505060608301518482036060860152612eed8282612d61565b91505060808301518482036080860152612f078282612d61565b9150508091505092915050565b612f1d8161356a565b82525050565b612f2c8161356a565b82525050565b60006020820190508181036000830152612f4c8184612cd6565b905092915050565b60006020820190508181036000830152612f6d81612dd3565b9050919050565b60006020820190508181036000830152612f8d81612df6565b9050919050565b60006020820190508181036000830152612fad81612e19565b9050919050565b60006020820190508181036000830152612fcd81612e3c565b9050919050565b60006020820190508181036000830152612fed81612e5f565b9050919050565b60006020820190506130096000830184612f23565b92915050565b600060a0820190506130246000830188612f23565b81810360208301526130368187612d9a565b90506130456040830186612cc7565b81810360608301526130578185612d9a565b90506130666080830184612f23565b9695505050505050565b600061016082019050613086600083018e612f23565b8181036020830152613098818d612d9a565b905081810360408301526130ac818c612d9a565b90506130bb606083018b612f23565b81810360808301526130cd818a612d9a565b90506130dc60a0830189612cc7565b6130e960c0830188612f23565b6130f660e0830187612f23565b613104610100830186612d52565b613112610120830185612d34565b8181036101408301526131258184612e82565b90509c9b505050505050505050505050565b600060e08201905061314c600083018a612f23565b818103602083015261315e8189612d9a565b905081810360408301526131728188612e82565b905081810360608301526131868187612d9a565b90506131956080830186612f23565b6131a260a0830185612f23565b6131af60c0830184612f23565b98975050505050505050565b600060e0820190506131d0600083018a612f23565b6131dd6020830189612f23565b6131ea6040830188612f23565b81810360608301526131fc8187612d9a565b905061320b6080830186612f23565b61321860a0830185612d43565b61322560c0830184612f23565b98975050505050505050565b600060a0820190506132466000830188612f23565b6132536020830187612f23565b6132606040830186612f23565b61326d6060830185612f23565b61327a6080830184612d43565b9695505050505050565b60006101008201905061329a600083018b612f23565b6132a7602083018a612f23565b6132b46040830189612f23565b6132c16060830188612f23565b6132ce6080830187612f23565b6132db60a0830186612f23565b6132e860c0830185612f23565b6132f560e0830184612f23565b9998505050505050505050565b600061330c61331d565b9050613318828261361e565b919050565b6000604051905090565b600067ffffffffffffffff82111561334257613341613754565b5b602082029050602081019050919050565b600067ffffffffffffffff82111561336e5761336d613754565b5b61337782613783565b9050602081019050919050565b6000819050602082019050919050565b600081519050919050565b600081519050919050565b6000602082019050919050565b600082825260208201905092915050565b600082825260208201905092915050565b600082825260208201905092915050565b60006133f58261356a565b91506134008361356a565b9250827fffffffffffffffffffffffffffffffffffffffffffffffffffffffffffffffff0382111561343557613434613698565b5b828201905092915050565b600061344b8261356a565b91506134568361356a565b925082613466576134656136c7565b5b828204905092915050565b600061347c8261356a565b91506134878361356a565b9250817fffffffffffffffffffffffffffffffffffffffffffffffffffffffffffffffff04831182151516156134c0576134bf613698565b5b828202905092915050565b60006134d68261356a565b91506134e18361356a565b9250828210156134f4576134f3613698565b5b828203905092915050565b600061350a8261354a565b9050919050565b600081905061351f82613887565b919050565b60008190506135328261389b565b919050565b6000819050613545826138af565b919050565b600073ffffffffffffffffffffffffffffffffffffffff82169050919050565b6000819050919050565b600061357f82613511565b9050919050565b600061359182613524565b9050919050565b60006135a382613537565b9050919050565b82818337600083830152505050565b60005b838110156135d75780820151818401526020810190506135bc565b838111156135e6576000848401525b50505050565b6000600282049050600182168061360457607f821691505b6020821081141561361857613617613725565b5b50919050565b61362782613783565b810181811067ffffffffffffffff8211171561364657613645613754565b5b80604052505050565b600061365a8261356a565b91507fffffffffffffffffffffffffffffffffffffffffffffffffffffffffffffffff82141561368d5761368c613698565b5b600182019050919050565b7f4e487b7100000000000000000000000000000000000000000000000000000000600052601160045260246000fd5b7f4e487b7100000000000000000000000000000000000000000000000000000000600052601260045260246000fd5b7f4e487b7100000000000000000000000000000000000000000000000000000000600052602160045260246000fd5b7f4e487b7100000000000000000000000000000000000000000000000000000000600052602260045260246000fd5b7f4e487b7100000000000000000000000000000000000000000000000000000000600052604160045260246000fd5b6000601f19601f8301169050919050565b7f41746c656173742037206d656d62657273207265717569726564000000000000600082015250565b7f5573657220697320616c7265616479206e6f7420612070617274206f6620746860008201527f6520534847000000000000000000000000000000000000000000000000000000602082015250565b7f5573657220616c72656164792061646465640000000000000000000000000000600082015250565b7f556e617070726f76656420726571756573740000000000000000000000000000600082015250565b7f556e617574686f72697a65642072657165737400000000000000000000000000600082015250565b60038110613898576138976136f6565b5b50565b600481106138ac576138ab6136f6565b5b50565b600681106138c0576138bf6136f6565b5b50565b6138cc816134ff565b81146138d757600080fd5b50565b600681106138e757600080fd5b50565b6138f38161356a565b81146138fe57600080fd5b5056fea26469706673582212200c780b8f9f0957ce311d45f253f7e49e2fb32560e912bc898ec8821ea201a1c064736f6c63430008040033",
  "immutableReferences": {},
  "source": "// SPDX-License-Identifier: MIT\npragma solidity ^0.8.1;\n\nimport \"./structs.sol\";\nimport \"./helpers.sol\";\nimport \"./modifiers.sol\";\n\ncontract SHG is structs, helpers, modifiers {\n    function addSHG(\n        uint256[] memory members,\n        uint256 president,\n        uint256 treasurer,\n        string memory name,\n        Location memory location,\n        string memory dateOfFormation,\n        uint256 _baseIntrest\n    ) public {\n        require(members.length >= 7, \"Atleast 7 members required\");\n        uint256 id = ++numSHGs;\n        shgs[id] = SHG(\n            id,\n            members,\n            name,\n            location,\n            dateOfFormation,\n            0,\n            0,\n            new uint256[](0),\n            new uint256[](0),\n            _baseIntrest\n        );\n        for (uint256 i = 0; i < members.length; i++) {\n            users[members[i]].userType = UserType.MEMBER;\n            if (members[i] == president)\n                users[members[i]].userType = UserType.PRESIDENT;\n            if (members[i] == treasurer)\n                users[members[i]].userType = UserType.TREASURER;\n        }\n\n        for (uint256 i = 0; i < members.length; i++) {\n            addressToSHGid[users[members[i]].walletAddress] = numSHGs;\n        }\n    }\n\n    function addSHGMember(uint256 userid, uint256 shg) public {\n        require(users[userid].shgid == shg, \"User already added\");\n        users[userid].shgid = shg;\n        users[userid].userType = UserType.MEMBER;\n        shgs[shg].users.push(userid);\n    }\n\n    function removeSHGMember(uint256 userid, uint256 shgid) public {\n        SHG storage shg = shgs[shgid];\n        require(\n            check(shg.users, shgid),\n            \"User is already not a part of the SHG\"\n        );\n\n        uint256 index = getIndex(shg.users, userid);\n        uint256[] memory newusers = deleteIndex(shg.users, index);\n        shg.users = newusers;\n    }\n\n    function updateMemberRole(uint256 id, UserType updatedType) public {\n        // TODO: add requires\n        users[id].userType = updatedType;\n    }\n\n    function sendGrant(uint256 _requestid) public {\n        require(\n            users[addressToUser[msg.sender]].userType == UserType.TREASURER,\n            \"Unauthorized reqest\"\n        );\n        require(\n            userRequests[_requestid].status == RequestStatus.APPROVED,\n            \"Unapproved request\"\n        );\n        UserRequest storage request = userRequests[_requestid];\n\n        request.status = RequestStatus.COMPLETED;\n\n        Loan memory newLoan = Loan({\n            loanId: ++numLoans,\n            lenderId: request.SHGId,\n            amount: request.amount,\n            lendeeId: request.userId,\n            intrest: shgs[request.SHGId].baseIntrest,\n            loanTime: request.loanTime,\n            date: block.timestamp,\n            lastEMI: 0\n        });\n\n        loans[numLoans] = newLoan;\n        shgs[request.SHGId].loansGiven.push(numLoans);\n        users[request.userId].loansTaken.push(numLoans);\n\n        require(shgs[request.SHGId].currentBalance >= request.amount);\n        payable(users[request.userId].walletAddress).transfer(request.amount);\n        shgs[request.SHGId].currentBalance -= request.amount;\n    }\n\n    function checkApproval(uint256 _requestid) internal view returns (bool) {\n        uint256[] storage approvals = userRequests[_requestid].approvals;\n\n        for (uint256 i = 0; i < approvals.length; i++) {\n            if (approvals[i] == addressToUser[msg.sender]) {\n                return false;\n            }\n        }\n\n        return true;\n    }\n\n    function approveRequest(uint256 _requestid, uint256 _shgid)\n        public\n        onlySHG(_shgid)\n    {\n        UserRequest storage request = userRequests[_requestid];\n        require(request.SHGId == _shgid);\n\n        require(checkApproval(_requestid));\n        request.approvals.push(addressToUser[msg.sender]);\n\n        if (request.approvals.length > shgs[_shgid].users.length / 2) {\n            request.status = RequestStatus.APPROVED;\n        }\n    }\n\n    function sendRequestToBank(\n        uint256 _shgid,\n        uint256 _amount,\n        uint256 _loanTime\n    ) public onlySHG(_shgid) {\n        require(users[addressToUser[msg.sender]].shgid == _shgid);\n        uint256 reqid = numSHGRequests++;\n        shgRequests[reqid] = SHGRequest(\n            reqid,\n            _shgid,\n            _amount,\n            _loanTime,\n            RequestStatus.IN_PROCESS\n        );\n        shgs[_shgid].loansTaken.push(reqid);\n    }\n\n    function shgPayEMI(\n        uint256 _shgid,\n        uint256 _loanid,\n        uint256 _amount\n    ) public onlySHG(_shgid) {\n        uint256 amount = getSHGEMI(_shgid, _loanid);\n        require(amount == _amount);\n        Loan storage loan = loans[_loanid];\n        payable(address(this)).transfer(_amount);\n        shgs[loan.lendeeId].currentBalance += _amount;\n        loan.lastEMI = block.timestamp;\n    }\n\n    // fetch functions\n    function getSHGEMI(uint256 _shgid, uint256 _loanid)\n        public\n        onlySHG(_shgid)\n        returns (uint256)\n    {\n        Loan storage loan = loans[_loanid];\n        uint256 months = ((block.timestamp - loan.lastEMI) / 24) * 60 * 60 * 30;\n\n        require(months > 0);\n        uint256 P = loan.amount;\n        uint256 r = loan.intrest;\n        uint256 t = loan.loanTime;\n        uint256 emi = (P * (1 + ((r / 100) * 12))) ^ ((12 * t) - P);\n\n        loan.amount = loan.amount - emi;\n        return emi;\n    }\n\n    function getSHGMembers(uint256 shgid)\n        public\n        view\n        returns (uint256[] memory)\n    {\n        return shgs[shgid].users;\n    }\n}\n",
  "sourcePath": "/home/sdas/code/yogdaan-contracts/contracts/lib/SHG.sol",
  "compiler": {
    "name": "solc",
    "version": "0.8.4+commit.c7e474f2.Emscripten.clang"
  },
  "schemaVersion": "3.4.9",
  "updatedAt": "2022-08-24T18:36:09.126Z",
  "devdoc": {
    "kind": "dev",
    "methods": {},
    "version": 1
  },
  "userdoc": {
    "kind": "user",
    "methods": {},
    "version": 1
  }
}