{
  "contractName": "SHG",
  "abi": [
    {
      "inputs": [
        {
          "internalType": "address",
          "name": "",
          "type": "address"
        }
      ],
      "name": "addressToBankid",
      "outputs": [
        {
          "internalType": "uint256",
          "name": "",
          "type": "uint256"
        }
      ],
      "stateMutability": "view",
      "type": "function"
    },
    {
      "inputs": [
        {
          "internalType": "address",
          "name": "",
          "type": "address"
        }
      ],
      "name": "addressToSHGid",
      "outputs": [
        {
          "internalType": "uint256",
          "name": "",
          "type": "uint256"
        }
      ],
      "stateMutability": "view",
      "type": "function"
    },
    {
      "inputs": [
        {
          "internalType": "address",
          "name": "",
          "type": "address"
        }
      ],
      "name": "addressToUser",
      "outputs": [
        {
          "internalType": "uint256",
          "name": "",
          "type": "uint256"
        }
      ],
      "stateMutability": "view",
      "type": "function"
    },
    {
      "inputs": [
        {
          "internalType": "uint256",
          "name": "",
          "type": "uint256"
        }
      ],
      "name": "banks",
      "outputs": [
        {
          "internalType": "uint256",
          "name": "id",
          "type": "uint256"
        },
        {
          "internalType": "string",
          "name": "name",
          "type": "string"
        },
        {
          "internalType": "address",
          "name": "walletAddress",
          "type": "address"
        },
        {
          "internalType": "string",
          "name": "code",
          "type": "string"
        },
        {
          "internalType": "uint256",
          "name": "intrestRate",
          "type": "uint256"
        }
      ],
      "stateMutability": "view",
      "type": "function"
    },
    {
      "inputs": [
        {
          "internalType": "string",
          "name": "",
          "type": "string"
        },
        {
          "internalType": "uint256",
          "name": "",
          "type": "uint256"
        }
      ],
      "name": "districtToSHGs",
      "outputs": [
        {
          "internalType": "uint256",
          "name": "",
          "type": "uint256"
        }
      ],
      "stateMutability": "view",
      "type": "function"
    },
    {
      "inputs": [
        {
          "internalType": "uint256",
          "name": "",
          "type": "uint256"
        }
      ],
      "name": "loans",
      "outputs": [
        {
          "internalType": "uint256",
          "name": "loanId",
          "type": "uint256"
        },
        {
          "internalType": "uint256",
          "name": "lenderId",
          "type": "uint256"
        },
        {
          "internalType": "uint256",
          "name": "amount",
          "type": "uint256"
        },
        {
          "internalType": "uint256",
          "name": "lendeeId",
          "type": "uint256"
        },
        {
          "internalType": "uint256",
          "name": "intrest",
          "type": "uint256"
        },
        {
          "internalType": "uint256",
          "name": "loanTime",
          "type": "uint256"
        },
        {
          "internalType": "uint256",
          "name": "date",
          "type": "uint256"
        },
        {
          "internalType": "uint256",
          "name": "lastEMI",
          "type": "uint256"
        }
      ],
      "stateMutability": "view",
      "type": "function"
    },
    {
      "inputs": [
        {
          "internalType": "uint256",
          "name": "",
          "type": "uint256"
        }
      ],
      "name": "shgRequests",
      "outputs": [
        {
          "internalType": "uint256",
          "name": "requestid",
          "type": "uint256"
        },
        {
          "internalType": "uint256",
          "name": "shgid",
          "type": "uint256"
        },
        {
          "internalType": "uint256",
          "name": "amount",
          "type": "uint256"
        },
        {
          "internalType": "uint256",
          "name": "loanTime",
          "type": "uint256"
        },
        {
          "internalType": "enum structs.RequestStatus",
          "name": "status",
          "type": "uint8"
        }
      ],
      "stateMutability": "view",
      "type": "function"
    },
    {
      "inputs": [
        {
          "internalType": "uint256",
          "name": "",
          "type": "uint256"
        },
        {
          "internalType": "uint256",
          "name": "",
          "type": "uint256"
        }
      ],
      "name": "shgToRequests",
      "outputs": [
        {
          "internalType": "uint256",
          "name": "",
          "type": "uint256"
        }
      ],
      "stateMutability": "view",
      "type": "function"
    },
    {
      "inputs": [
        {
          "internalType": "uint256",
          "name": "",
          "type": "uint256"
        }
      ],
      "name": "shgs",
      "outputs": [
        {
          "internalType": "uint256",
          "name": "id",
          "type": "uint256"
        },
        {
          "internalType": "string",
          "name": "name",
          "type": "string"
        },
        {
          "components": [
            {
              "internalType": "string",
              "name": "state",
              "type": "string"
            },
            {
              "internalType": "string",
              "name": "district",
              "type": "string"
            },
            {
              "internalType": "string",
              "name": "blockName",
              "type": "string"
            },
            {
              "internalType": "string",
              "name": "panchyatName",
              "type": "string"
            },
            {
              "internalType": "string",
              "name": "villageName",
              "type": "string"
            }
          ],
          "internalType": "struct structs.Location",
          "name": "location",
          "type": "tuple"
        },
        {
          "internalType": "string",
          "name": "dateOfFormation",
          "type": "string"
        },
        {
          "internalType": "uint256",
          "name": "currentBalance",
          "type": "uint256"
        },
        {
          "internalType": "uint256",
          "name": "owedBalance",
          "type": "uint256"
        },
        {
          "internalType": "uint256",
          "name": "baseIntrest",
          "type": "uint256"
        }
      ],
      "stateMutability": "view",
      "type": "function"
    },
    {
      "inputs": [
        {
          "internalType": "uint256",
          "name": "",
          "type": "uint256"
        }
      ],
      "name": "userRequests",
      "outputs": [
        {
          "internalType": "uint256",
          "name": "requestId",
          "type": "uint256"
        },
        {
          "internalType": "uint256",
          "name": "userId",
          "type": "uint256"
        },
        {
          "internalType": "uint256",
          "name": "amount",
          "type": "uint256"
        },
        {
          "internalType": "string",
          "name": "description",
          "type": "string"
        },
        {
          "internalType": "uint256",
          "name": "SHGId",
          "type": "uint256"
        },
        {
          "internalType": "enum structs.RequestStatus",
          "name": "status",
          "type": "uint8"
        },
        {
          "internalType": "uint256",
          "name": "loanTime",
          "type": "uint256"
        }
      ],
      "stateMutability": "view",
      "type": "function"
    },
    {
      "inputs": [
        {
          "internalType": "uint256",
          "name": "",
          "type": "uint256"
        },
        {
          "internalType": "uint256",
          "name": "",
          "type": "uint256"
        }
      ],
      "name": "userToRequests",
      "outputs": [
        {
          "internalType": "uint256",
          "name": "",
          "type": "uint256"
        }
      ],
      "stateMutability": "view",
      "type": "function"
    },
    {
      "inputs": [
        {
          "internalType": "uint256",
          "name": "",
          "type": "uint256"
        }
      ],
      "name": "users",
      "outputs": [
        {
          "internalType": "uint256",
          "name": "id",
          "type": "uint256"
        },
        {
          "internalType": "string",
          "name": "name",
          "type": "string"
        },
        {
          "internalType": "string",
          "name": "aadhar",
          "type": "string"
        },
        {
          "internalType": "uint256",
          "name": "mobno",
          "type": "uint256"
        },
        {
          "internalType": "string",
          "name": "fatherName",
          "type": "string"
        },
        {
          "internalType": "address",
          "name": "walletAddress",
          "type": "address"
        },
        {
          "internalType": "uint256",
          "name": "shgid",
          "type": "uint256"
        },
        {
          "internalType": "enum structs.UserType",
          "name": "userType",
          "type": "uint8"
        },
        {
          "internalType": "enum structs.Gender",
          "name": "gender",
          "type": "uint8"
        },
        {
          "components": [
            {
              "internalType": "string",
              "name": "state",
              "type": "string"
            },
            {
              "internalType": "string",
              "name": "district",
              "type": "string"
            },
            {
              "internalType": "string",
              "name": "blockName",
              "type": "string"
            },
            {
              "internalType": "string",
              "name": "panchyatName",
              "type": "string"
            },
            {
              "internalType": "string",
              "name": "villageName",
              "type": "string"
            }
          ],
          "internalType": "struct structs.Location",
          "name": "location",
          "type": "tuple"
        }
      ],
      "stateMutability": "view",
      "type": "function"
    },
    {
      "inputs": [
        {
          "internalType": "uint256[]",
          "name": "members",
          "type": "uint256[]"
        },
        {
          "internalType": "uint256",
          "name": "president",
          "type": "uint256"
        },
        {
          "internalType": "uint256",
          "name": "treasurer",
          "type": "uint256"
        },
        {
          "internalType": "string",
          "name": "name",
          "type": "string"
        },
        {
          "internalType": "string",
          "name": "_state",
          "type": "string"
        },
        {
          "internalType": "string",
          "name": "_district",
          "type": "string"
        },
        {
          "internalType": "string",
          "name": "_blockName",
          "type": "string"
        },
        {
          "internalType": "string",
          "name": "_panchyatName",
          "type": "string"
        },
        {
          "internalType": "string",
          "name": "_villageName",
          "type": "string"
        },
        {
          "internalType": "string",
          "name": "dateOfFormation",
          "type": "string"
        },
        {
          "internalType": "uint256",
          "name": "_baseIntrest",
          "type": "uint256"
        }
      ],
      "name": "addSHG",
      "outputs": [],
      "stateMutability": "nonpayable",
      "type": "function"
    },
    {
      "inputs": [
        {
          "internalType": "uint256",
          "name": "userid",
          "type": "uint256"
        },
        {
          "internalType": "uint256",
          "name": "shg",
          "type": "uint256"
        }
      ],
      "name": "addSHGMember",
      "outputs": [],
      "stateMutability": "nonpayable",
      "type": "function"
    },
    {
      "inputs": [
        {
          "internalType": "uint256",
          "name": "userid",
          "type": "uint256"
        },
        {
          "internalType": "uint256",
          "name": "shgid",
          "type": "uint256"
        }
      ],
      "name": "removeSHGMember",
      "outputs": [],
      "stateMutability": "nonpayable",
      "type": "function"
    },
    {
      "inputs": [
        {
          "internalType": "uint256",
          "name": "id",
          "type": "uint256"
        },
        {
          "internalType": "enum structs.UserType",
          "name": "updatedType",
          "type": "uint8"
        }
      ],
      "name": "updateMemberRole",
      "outputs": [],
      "stateMutability": "nonpayable",
      "type": "function"
    },
    {
      "inputs": [
        {
          "internalType": "uint256",
          "name": "_requestid",
          "type": "uint256"
        }
      ],
      "name": "sendGrant",
      "outputs": [],
      "stateMutability": "nonpayable",
      "type": "function"
    },
    {
      "inputs": [
        {
          "internalType": "uint256",
          "name": "_requestid",
          "type": "uint256"
        },
        {
          "internalType": "uint256",
          "name": "_shgid",
          "type": "uint256"
        }
      ],
      "name": "approveRequest",
      "outputs": [],
      "stateMutability": "nonpayable",
      "type": "function"
    },
    {
      "inputs": [
        {
          "internalType": "uint256",
          "name": "_shgid",
          "type": "uint256"
        },
        {
          "internalType": "uint256",
          "name": "_amount",
          "type": "uint256"
        },
        {
          "internalType": "uint256",
          "name": "_loanTime",
          "type": "uint256"
        }
      ],
      "name": "sendRequestToBank",
      "outputs": [],
      "stateMutability": "nonpayable",
      "type": "function"
    },
    {
      "inputs": [
        {
          "internalType": "uint256",
          "name": "_shgid",
          "type": "uint256"
        },
        {
          "internalType": "uint256",
          "name": "_loanid",
          "type": "uint256"
        },
        {
          "internalType": "uint256",
          "name": "_amount",
          "type": "uint256"
        }
      ],
      "name": "shgPayEMI",
      "outputs": [],
      "stateMutability": "nonpayable",
      "type": "function"
    },
    {
      "inputs": [],
      "name": "totalNumSHGs",
      "outputs": [
        {
          "internalType": "uint256",
          "name": "",
          "type": "uint256"
        }
      ],
      "stateMutability": "view",
      "type": "function"
    },
    {
      "inputs": [
        {
          "internalType": "uint256",
          "name": "_shgid",
          "type": "uint256"
        }
      ],
      "name": "getSHGRequests",
      "outputs": [
        {
          "internalType": "uint256[]",
          "name": "",
          "type": "uint256[]"
        }
      ],
      "stateMutability": "nonpayable",
      "type": "function"
    },
    {
      "inputs": [
        {
          "internalType": "uint256",
          "name": "_shgid",
          "type": "uint256"
        },
        {
          "internalType": "uint256",
          "name": "_loanid",
          "type": "uint256"
        }
      ],
      "name": "getSHGEMI",
      "outputs": [
        {
          "internalType": "uint256",
          "name": "",
          "type": "uint256"
        }
      ],
      "stateMutability": "nonpayable",
      "type": "function"
    },
    {
      "inputs": [
        {
          "internalType": "uint256",
          "name": "shgid",
          "type": "uint256"
        }
      ],
      "name": "getSHGMembers",
      "outputs": [
        {
          "internalType": "uint256[]",
          "name": "",
          "type": "uint256[]"
        }
      ],
      "stateMutability": "view",
      "type": "function"
    },
    {
      "inputs": [
        {
          "internalType": "string",
          "name": "district",
          "type": "string"
        }
      ],
      "name": "shgsOfDistrict",
      "outputs": [
        {
          "internalType": "uint256[]",
          "name": "",
          "type": "uint256[]"
        }
      ],
      "stateMutability": "view",
      "type": "function"
    },
    {
      "inputs": [
        {
          "internalType": "uint256",
          "name": "_shgid",
          "type": "uint256"
        }
      ],
      "name": "userRequestsOfSHG",
      "outputs": [
        {
          "internalType": "uint256[]",
          "name": "",
          "type": "uint256[]"
        }
      ],
      "stateMutability": "view",
      "type": "function"
    },
    {
      "inputs": [
        {
          "internalType": "uint256",
          "name": "_amount",
          "type": "uint256"
        },
        {
          "internalType": "uint256",
          "name": "_shgid",
          "type": "uint256"
        }
      ],
      "name": "addMoney",
      "outputs": [],
      "stateMutability": "payable",
      "type": "function"
    }
  ],
  "bytecode": "0x608060405234801561001057600080fd5b50613eb7806100206000396000f3fe60806040526004361061019b5760003560e01c806361c91b70116100ec578063af08a94f1161008a578063d3f86fb811610064578063d3f86fb814610665578063e1ec3c68146106a2578063edf53886146106e6578063f61074ff146107235761019b565b8063af08a94f146105e3578063bc1e72ad14610620578063bd95972c146106495761019b565b806394169656116100c6578063941696561461051157806397e492dd146105545780639bbc9ab114610591578063a6e90a58146105ba5761019b565b806361c91b701461046e578063769d0e16146104ab5780637d550bb3146104e85761019b565b8063365b98b2116101595780633ae0058f116101335780633ae0058f146103a05780633cec4272146103dd5780634f269c921461041a5780635df3fc81146104435761019b565b8063365b98b2146102f4578063368c2c531461033a57806339d8bed1146103775761019b565b806285ae2b146101a0578063021af397146101e15780630c1c78831461020a578063257a170b1461024757806326271cf2146102885780632c0a90a9146102cb575b600080fd5b3480156101ac57600080fd5b506101c760048036038101906101c29190613069565b610760565b6040516101d8959493929190613544565b60405180910390f35b3480156101ed57600080fd5b506102086004803603810190610203919061310a565b6108c6565b005b34801561021657600080fd5b50610231600480360381019061022c91906130ce565b610a17565b60405161023e9190613529565b60405180910390f35b34801561025357600080fd5b5061026e60048036038101906102699190613069565b610a48565b60405161027f959493929190613757565b60405180910390f35b34801561029457600080fd5b506102af60048036038101906102aa9190613069565b610a8b565b6040516102c2979695949392919061365d565b60405180910390f35b3480156102d757600080fd5b506102f260048036038101906102ed91906130ce565b610ec1565b005b34801561030057600080fd5b5061031b60048036038101906103169190613069565b610fd0565b6040516103319a999897969594939291906135a5565b60405180910390f35b34801561034657600080fd5b50610361600480360381019061035c9190613069565b6114da565b60405161036e9190613447565b60405180910390f35b34801561038357600080fd5b5061039e600480360381019061039991906130ce565b611548565b005b3480156103ac57600080fd5b506103c760048036038101906103c29190612dfb565b61165e565b6040516103d49190613529565b60405180910390f35b3480156103e957600080fd5b5061040460048036038101906103ff9190613015565b611676565b6040516104119190613529565b60405180910390f35b34801561042657600080fd5b50610441600480360381019061043c9190613092565b6116bd565b005b34801561044f57600080fd5b50610458611724565b6040516104659190613529565b60405180910390f35b34801561047a57600080fd5b5061049560048036038101906104909190612dfb565b61172e565b6040516104a29190613529565b60405180910390f35b3480156104b757600080fd5b506104d260048036038101906104cd91906130ce565b611746565b6040516104df9190613529565b60405180910390f35b3480156104f457600080fd5b5061050f600480360381019061050a919061310a565b611859565b005b34801561051d57600080fd5b5061053860048036038101906105339190613069565b611938565b60405161054b97969594939291906136e1565b60405180910390f35b34801561056057600080fd5b5061057b60048036038101906105769190612fd4565b611a0f565b6040516105889190613447565b60405180910390f35b34801561059d57600080fd5b506105b860048036038101906105b39190613069565b611a85565b005b3480156105c657600080fd5b506105e160048036038101906105dc91906130ce565b611f2d565b005b3480156105ef57600080fd5b5061060a60048036038101906106059190613069565b6120bf565b6040516106179190613447565b60405180910390f35b34801561062c57600080fd5b5061064760048036038101906106429190612e24565b61212d565b005b610663600480360381019061065e91906130ce565b61274f565b005b34801561067157600080fd5b5061068c60048036038101906106879190613069565b61281e565b6040516106999190613447565b60405180910390f35b3480156106ae57600080fd5b506106c960048036038101906106c49190613069565b612903565b6040516106dd9897969594939291906137aa565b60405180910390f35b3480156106f257600080fd5b5061070d60048036038101906107089190612dfb565b61294b565b60405161071a9190613529565b60405180910390f35b34801561072f57600080fd5b5061074a600480360381019061074591906130ce565b612963565b6040516107579190613529565b60405180910390f35b600360205280600052604060002060009150905080600001549080600101805461078990613b1d565b80601f01602080910402602001604051908101604052809291908181526020018280546107b590613b1d565b80156108025780601f106107d757610100808354040283529160200191610802565b820191906000526020600020905b8154815290600101906020018083116107e557829003601f168201915b5050505050908060020160009054906101000a900473ffffffffffffffffffffffffffffffffffffffff169080600301805461083d90613b1d565b80601f016020809104026020016040519081016040528092919081815260200182805461086990613b1d565b80156108b65780601f1061088b576101008083540402835291602001916108b6565b820191906000526020600020905b81548152906001019060200180831161089957829003601f168201915b5050505050908060040154905085565b6000600f60008154809291906108db90613b80565b9190505590506040518060a0016040528082815260200185815260200184815260200183815260200160038081111561093d577f4e487b7100000000000000000000000000000000000000000000000000000000600052602160045260246000fd5b815250600760008381526020019081526020016000206000820151816000015560208201518160010155604082015181600201556060820151816003015560808201518160040160006101000a81548160ff021916908360038111156109cc577f4e487b7100000000000000000000000000000000000000000000000000000000600052602160045260246000fd5b021790555090505060016000858152602001908152602001600020600c0181908060018154018082558091505060019003906000526020600020016000909190919091505550505050565b600a6020528160005260406000208181548110610a3357600080fd5b90600052602060002001600091509150505481565b60076020528060005260406000206000915090508060000154908060010154908060020154908060030154908060040160009054906101000a900460ff16905085565b6001602052806000526040600020600091509050806000015490806002018054610ab490613b1d565b80601f0160208091040260200160405190810160405280929190818152602001828054610ae090613b1d565b8015610b2d5780601f10610b0257610100808354040283529160200191610b2d565b820191906000526020600020905b815481529060010190602001808311610b1057829003601f168201915b505050505090806003016040518060a0016040529081600082018054610b5290613b1d565b80601f0160208091040260200160405190810160405280929190818152602001828054610b7e90613b1d565b8015610bcb5780601f10610ba057610100808354040283529160200191610bcb565b820191906000526020600020905b815481529060010190602001808311610bae57829003601f168201915b50505050508152602001600182018054610be490613b1d565b80601f0160208091040260200160405190810160405280929190818152602001828054610c1090613b1d565b8015610c5d5780601f10610c3257610100808354040283529160200191610c5d565b820191906000526020600020905b815481529060010190602001808311610c4057829003601f168201915b50505050508152602001600282018054610c7690613b1d565b80601f0160208091040260200160405190810160405280929190818152602001828054610ca290613b1d565b8015610cef5780601f10610cc457610100808354040283529160200191610cef565b820191906000526020600020905b815481529060010190602001808311610cd257829003601f168201915b50505050508152602001600382018054610d0890613b1d565b80601f0160208091040260200160405190810160405280929190818152602001828054610d3490613b1d565b8015610d815780601f10610d5657610100808354040283529160200191610d81565b820191906000526020600020905b815481529060010190602001808311610d6457829003601f168201915b50505050508152602001600482018054610d9a90613b1d565b80601f0160208091040260200160405190810160405280929190818152602001828054610dc690613b1d565b8015610e135780601f10610de857610100808354040283529160200191610e13565b820191906000526020600020905b815481529060010190602001808311610df657829003601f168201915b50505050508152505090806008018054610e2c90613b1d565b80601f0160208091040260200160405190810160405280929190818152602001828054610e5890613b1d565b8015610ea55780601f10610e7a57610100808354040283529160200191610ea5565b820191906000526020600020905b815481529060010190602001808311610e8857829003601f168201915b50505050509080600901549080600a01549080600e0154905087565b80600060016000838152602001908152602001600020600001541415610ee657600080fd5b600060066000858152602001908152602001600020905082816004015414610f0d57600080fd5b80600701600460003373ffffffffffffffffffffffffffffffffffffffff1673ffffffffffffffffffffffffffffffffffffffff16815260200190815260200160002054908060018154018082558091505060019003906000526020600020016000909190919091505560008160050160006101000a81548160ff02191690836003811115610fc5577f4e487b7100000000000000000000000000000000000000000000000000000000600052602160045260246000fd5b021790555050505050565b6000602052806000526040600020600091509050806000015490806001018054610ff990613b1d565b80601f016020809104026020016040519081016040528092919081815260200182805461102590613b1d565b80156110725780601f1061104757610100808354040283529160200191611072565b820191906000526020600020905b81548152906001019060200180831161105557829003601f168201915b50505050509080600201805461108790613b1d565b80601f01602080910402602001604051908101604052809291908181526020018280546110b390613b1d565b80156111005780601f106110d557610100808354040283529160200191611100565b820191906000526020600020905b8154815290600101906020018083116110e357829003601f168201915b50505050509080600301549080600401805461111b90613b1d565b80601f016020809104026020016040519081016040528092919081815260200182805461114790613b1d565b80156111945780601f1061116957610100808354040283529160200191611194565b820191906000526020600020905b81548152906001019060200180831161117757829003601f168201915b5050505050908060050160009054906101000a900473ffffffffffffffffffffffffffffffffffffffff16908060080154908060090160009054906101000a900460ff16908060090160019054906101000a900460ff169080600a016040518060a001604052908160008201805461120b90613b1d565b80601f016020809104026020016040519081016040528092919081815260200182805461123790613b1d565b80156112845780601f1061125957610100808354040283529160200191611284565b820191906000526020600020905b81548152906001019060200180831161126757829003601f168201915b5050505050815260200160018201805461129d90613b1d565b80601f01602080910402602001604051908101604052809291908181526020018280546112c990613b1d565b80156113165780601f106112eb57610100808354040283529160200191611316565b820191906000526020600020905b8154815290600101906020018083116112f957829003601f168201915b5050505050815260200160028201805461132f90613b1d565b80601f016020809104026020016040519081016040528092919081815260200182805461135b90613b1d565b80156113a85780601f1061137d576101008083540402835291602001916113a8565b820191906000526020600020905b81548152906001019060200180831161138b57829003601f168201915b505050505081526020016003820180546113c190613b1d565b80601f01602080910402602001604051908101604052809291908181526020018280546113ed90613b1d565b801561143a5780601f1061140f5761010080835404028352916020019161143a565b820191906000526020600020905b81548152906001019060200180831161141d57829003601f168201915b5050505050815260200160048201805461145390613b1d565b80601f016020809104026020016040519081016040528092919081815260200182805461147f90613b1d565b80156114cc5780601f106114a1576101008083540402835291602001916114cc565b820191906000526020600020905b8154815290600101906020018083116114af57829003601f168201915b50505050508152505090508a565b606060016000838152602001908152602001600020600d0180548060200260200160405190810160405280929190818152602001828054801561153c57602002820191906000526020600020905b815481526020019060010190808311611528575b50505050509050919050565b80600080848152602001908152602001600020600801541461159f576040517f08c379a0000000000000000000000000000000000000000000000000000000008152600401611596906134c9565b60405180910390fd5b8060008084815260200190815260200160002060080181905550600360008084815260200190815260200160002060090160006101000a81548160ff02191690836005811115611618577f4e487b7100000000000000000000000000000000000000000000000000000000600052602160045260246000fd5b0217905550600160008281526020019081526020016000206001018290806001815401808255809150506001900390600052602060002001600090919091909150555050565b60086020528060005260406000206000915090505481565b60028280516020810182018051848252602083016020850120818352809550505050505081815481106116a857600080fd5b90600052602060002001600091509150505481565b8060008084815260200190815260200160002060090160006101000a81548160ff0219169083600581111561171b577f4e487b7100000000000000000000000000000000000000000000000000000000600052602160045260246000fd5b02179055505050565b6000600d54905090565b60096020528060005260406000206000915090505481565b60008260006001600083815260200190815260200160002060000154141561176d57600080fd5b60006005600085815260200190815260200160002090506000601e603c80601885600701544261179d91906139fc565b6117a79190613971565b6117b191906139a2565b6117bb91906139a2565b6117c591906139a2565b9050600081116117d457600080fd5b600082600201549050600083600401549050600084600501549050600081600c6117fe91906139a2565b600c60648561180d9190613971565b61181791906139a2565b6001611823919061391b565b8561182e91906139a2565b18905080866002015461184191906139fc565b86600201819055508097505050505050505092915050565b8260006001600083815260200190815260200160002060000154141561187e57600080fd5b600061188a8585611746565b905082811461189857600080fd5b60006005600086815260200190815260200160002090503073ffffffffffffffffffffffffffffffffffffffff166108fc859081150290604051600060405180830381858888f193505050501580156118f5573d6000803e3d6000fd5b508360016000836003015481526020019081526020016000206009016000828254611920919061391b565b92505081905550428160070181905550505050505050565b600660205280600052604060002060009150905080600001549080600101549080600201549080600301805461196d90613b1d565b80601f016020809104026020016040519081016040528092919081815260200182805461199990613b1d565b80156119e65780601f106119bb576101008083540402835291602001916119e6565b820191906000526020600020905b8154815290600101906020018083116119c957829003601f168201915b5050505050908060040154908060050160009054906101000a900460ff16908060060154905087565b6060600282604051611a219190613430565b9081526020016040518091039020805480602002602001604051908101604052809291908181526020018280548015611a7957602002820191906000526020600020905b815481526020019060010190808311611a65575b50505050509050919050565b60026005811115611abf577f4e487b7100000000000000000000000000000000000000000000000000000000600052602160045260246000fd5b600080600460003373ffffffffffffffffffffffffffffffffffffffff1673ffffffffffffffffffffffffffffffffffffffff16815260200190815260200160002054815260200190815260200160002060090160009054906101000a900460ff166005811115611b59577f4e487b7100000000000000000000000000000000000000000000000000000000600052602160045260246000fd5b14611b99576040517f08c379a0000000000000000000000000000000000000000000000000000000008152600401611b9090613509565b60405180910390fd5b60006003811115611bd3577f4e487b7100000000000000000000000000000000000000000000000000000000600052602160045260246000fd5b6006600083815260200190815260200160002060050160009054906101000a900460ff166003811115611c2f577f4e487b7100000000000000000000000000000000000000000000000000000000600052602160045260246000fd5b14611c6f576040517f08c379a0000000000000000000000000000000000000000000000000000000008152600401611c66906134e9565b60405180910390fd5b600060066000838152602001908152602001600020905060018160050160006101000a81548160ff02191690836003811115611cd4577f4e487b7100000000000000000000000000000000000000000000000000000000600052602160045260246000fd5b02179055506000604051806101000160405280601160008154611cf690613b80565b91905081905581526020018360040154815260200183600201548152602001836001015481526020016001600085600401548152602001908152602001600020600e01548152602001836006015481526020014281526020016000815250905080600560006011548152602001908152602001600020600082015181600001556020820151816001015560408201518160020155606082015181600301556080820151816004015560a0820151816005015560c0820151816006015560e082015181600701559050506001600083600401548152602001908152602001600020600b01601154908060018154018082558091505060019003906000526020600020016000909190919091505560008083600101548152602001908152602001600020600601601154908060018154018082558091505060019003906000526020600020016000909190919091505581600201546001600084600401548152602001908152602001600020600901541015611e6f57600080fd5b6000808360010154815260200190815260200160002060050160009054906101000a900473ffffffffffffffffffffffffffffffffffffffff1673ffffffffffffffffffffffffffffffffffffffff166108fc83600201549081150290604051600060405180830381858888f19350505050158015611ef2573d6000803e3d6000fd5b50816002015460016000846004015481526020019081526020016000206009016000828254611f2191906139fc565b92505081905550505050565b6000600160008381526020019081526020016000209050611fa081600101805480602002602001604051908101604052809291908181526020018280548015611f9557602002820191906000526020600020905b815481526020019060010190808311611f81575b505050505083612994565b611fdf576040517f08c379a0000000000000000000000000000000000000000000000000000000008152600401611fd6906134a9565b60405180910390fd5b600061203d8260010180548060200260200160405190810160405280929190818152602001828054801561203257602002820191906000526020600020905b81548152602001906001019080831161201e575b505050505085612a22565b9050600061209d8360010180548060200260200160405190810160405280929190818152602001828054801561209257602002820191906000526020600020905b81548152602001906001019080831161207e575b505050505083612aa3565b9050808360010190805190602001906120b7929190612bce565b505050505050565b60606001600083815260200190815260200160002060010180548060200260200160405190810160405280929190818152602001828054801561212157602002820191906000526020600020905b81548152602001906001019080831161210d575b50505050509050919050565b60078b511015612172576040517f08c379a000000000000000000000000000000000000000000000000000000000815260040161216990613489565b60405180910390fd5b6000600d6000815461218390613b80565b919050819055905060006040518060a001604052808a81526020018981526020018881526020018781526020018681525090506040518061016001604052808381526020018e81526020018b81526020018281526020018581526020016000815260200160008152602001600067ffffffffffffffff81111561222f577f4e487b7100000000000000000000000000000000000000000000000000000000600052604160045260246000fd5b60405190808252806020026020018201604052801561225d5781602001602082028036833780820191505090505b508152602001600067ffffffffffffffff8111156122a4577f4e487b7100000000000000000000000000000000000000000000000000000000600052604160045260246000fd5b6040519080825280602002602001820160405280156122d25781602001602082028036833780820191505090505b508152602001600067ffffffffffffffff811115612319577f4e487b7100000000000000000000000000000000000000000000000000000000600052604160045260246000fd5b6040519080825280602002602001820160405280156123475781602001602082028036833780820191505090505b508152602001848152506001600084815260200190815260200160002060008201518160000155602082015181600101908051906020019061238a929190612bce565b5060408201518160020190805190602001906123a7929190612c1b565b5060608201518160030160008201518160000190805190602001906123cd929190612c1b565b5060208201518160010190805190602001906123ea929190612c1b565b506040820151816002019080519060200190612407929190612c1b565b506060820151816003019080519060200190612424929190612c1b565b506080820151816004019080519060200190612441929190612c1b565b5050506080820151816008019080519060200190612460929190612c1b565b5060a0820151816009015560c082015181600a015560e082015181600b019080519060200190612491929190612bce565b5061010082015181600c0190805190602001906124af929190612bce565b5061012082015181600d0190805190602001906124cd929190612bce565b5061014082015181600e015590505060005b8d518110156126fa5760008e8281518110612523577f4e487b7100000000000000000000000000000000000000000000000000000000600052603260045260246000fd5b60200260200101519050600360008083815260200190815260200160002060090160006101000a81548160ff0219169083600581111561258c577f4e487b7100000000000000000000000000000000000000000000000000000000600052602160045260246000fd5b02179055508d8114156125fe57600080600083815260200190815260200160002060090160006101000a81548160ff021916908360058111156125f8577f4e487b7100000000000000000000000000000000000000000000000000000000600052602160045260246000fd5b02179055505b8c81141561266b57600260008083815260200190815260200160002060090160006101000a81548160ff02191690836005811115612665577f4e487b7100000000000000000000000000000000000000000000000000000000600052602160045260246000fd5b02179055505b600d546008600080600085815260200190815260200160002060050160009054906101000a900473ffffffffffffffffffffffffffffffffffffffff1673ffffffffffffffffffffffffffffffffffffffff1673ffffffffffffffffffffffffffffffffffffffff168152602001908152602001600020819055505080806126f290613b80565b9150506124df565b5060028860405161270b9190613430565b908152602001604051809103902082908060018154018082558091505060019003906000526020600020016000909190919091505550505050505050505050505050565b81341015612792576040517f08c379a000000000000000000000000000000000000000000000000000000000815260040161278990613469565b60405180910390fd5b813411156127ed573373ffffffffffffffffffffffffffffffffffffffff166108fc83346127c091906139fc565b9081150290604051600060405180830381858888f193505050501580156127eb573d6000803e3d6000fd5b505b81600160008381526020019081526020016000206009016000828254612813919061391b565b925050819055505050565b606060005b600f5481101561289957826007600083815260200190815260200160002060010154141561288657600b60008481526020019081526020016000208190806001815401808255809150506001900390600052602060002001600090919091909150555b808061289190613b80565b915050612823565b50600b60008381526020019081526020016000208054806020026020016040519081016040528092919081815260200182805480156128f757602002820191906000526020600020905b8154815260200190600101908083116128e3575b50505050509050919050565b60056020528060005260406000206000915090508060000154908060010154908060020154908060030154908060040154908060050154908060060154908060070154905088565b60046020528060005260406000206000915090505481565b600b602052816000526040600020818154811061297f57600080fd5b90600052602060002001600091509150505481565b600080600090505b600184516129aa91906139fc565b811015612a1657828482815181106129eb577f4e487b7100000000000000000000000000000000000000000000000000000000600052603260045260246000fd5b60200260200101511415612a03576001915050612a1c565b8080612a0e90613b80565b91505061299c565b50600090505b92915050565b600080600090505b8351811015612a975782848281518110612a6d577f4e487b7100000000000000000000000000000000000000000000000000000000600052603260045260246000fd5b60200260200101511415612a845780915050612a9d565b8080612a8f90613b80565b915050612a2a565b50600090505b92915050565b606082518210612ab257600080fd5b60008290505b60018451612ac691906139fc565b811015612b725783600182612adb919061391b565b81518110612b12577f4e487b7100000000000000000000000000000000000000000000000000000000600052603260045260246000fd5b6020026020010151848281518110612b53577f4e487b7100000000000000000000000000000000000000000000000000000000600052603260045260246000fd5b6020026020010181815250508080612b6a90613b80565b915050612ab8565b508260018451612b8291906139fc565b81518110612bb9577f4e487b7100000000000000000000000000000000000000000000000000000000600052603260045260246000fd5b60200260200101600081525082905092915050565b828054828255906000526020600020908101928215612c0a579160200282015b82811115612c09578251825591602001919060010190612bee565b5b509050612c179190612ca1565b5090565b828054612c2790613b1d565b90600052602060002090601f016020900481019282612c495760008555612c90565b82601f10612c6257805160ff1916838001178555612c90565b82800160010185558215612c90579182015b82811115612c8f578251825591602001919060010190612c74565b5b509050612c9d9190612ca1565b5090565b5b80821115612cba576000816000905550600101612ca2565b5090565b6000612cd1612ccc8461384d565b613828565b90508083825260208201905082856020860282011115612cf057600080fd5b60005b85811015612d205781612d068882612de6565b845260208401935060208301925050600181019050612cf3565b5050509392505050565b6000612d3d612d3884613879565b613828565b905082815260208101848484011115612d5557600080fd5b612d60848285613adb565b509392505050565b600081359050612d7781613e43565b92915050565b600082601f830112612d8e57600080fd5b8135612d9e848260208601612cbe565b91505092915050565b600081359050612db681613e5a565b92915050565b600082601f830112612dcd57600080fd5b8135612ddd848260208601612d2a565b91505092915050565b600081359050612df581613e6a565b92915050565b600060208284031215612e0d57600080fd5b6000612e1b84828501612d68565b91505092915050565b60008060008060008060008060008060006101608c8e031215612e4657600080fd5b60008c013567ffffffffffffffff811115612e6057600080fd5b612e6c8e828f01612d7d565b9b50506020612e7d8e828f01612de6565b9a50506040612e8e8e828f01612de6565b99505060608c013567ffffffffffffffff811115612eab57600080fd5b612eb78e828f01612dbc565b98505060808c013567ffffffffffffffff811115612ed457600080fd5b612ee08e828f01612dbc565b97505060a08c013567ffffffffffffffff811115612efd57600080fd5b612f098e828f01612dbc565b96505060c08c013567ffffffffffffffff811115612f2657600080fd5b612f328e828f01612dbc565b95505060e08c013567ffffffffffffffff811115612f4f57600080fd5b612f5b8e828f01612dbc565b9450506101008c013567ffffffffffffffff811115612f7957600080fd5b612f858e828f01612dbc565b9350506101208c013567ffffffffffffffff811115612fa357600080fd5b612faf8e828f01612dbc565b925050610140612fc18e828f01612de6565b9150509295989b509295989b9093969950565b600060208284031215612fe657600080fd5b600082013567ffffffffffffffff81111561300057600080fd5b61300c84828501612dbc565b91505092915050565b6000806040838503121561302857600080fd5b600083013567ffffffffffffffff81111561304257600080fd5b61304e85828601612dbc565b925050602061305f85828601612de6565b9150509250929050565b60006020828403121561307b57600080fd5b600061308984828501612de6565b91505092915050565b600080604083850312156130a557600080fd5b60006130b385828601612de6565b92505060206130c485828601612da7565b9150509250929050565b600080604083850312156130e157600080fd5b60006130ef85828601612de6565b925050602061310085828601612de6565b9150509250929050565b60008060006060848603121561311f57600080fd5b600061312d86828701612de6565b935050602061313e86828701612de6565b925050604061314f86828701612de6565b9150509250925092565b60006131658383613412565b60208301905092915050565b61317a81613a30565b82525050565b600061318b826138ba565b61319581856138dd565b93506131a0836138aa565b8060005b838110156131d15781516131b88882613159565b97506131c3836138d0565b9250506001810190506131a4565b5085935050505092915050565b6131e781613aa5565b82525050565b6131f681613ab7565b82525050565b61320581613ac9565b82525050565b6000613216826138c5565b61322081856138ee565b9350613230818560208601613aea565b61323981613cb4565b840191505092915050565b600061324f826138c5565b61325981856138ff565b9350613269818560208601613aea565b61327281613cb4565b840191505092915050565b6000613288826138c5565b6132928185613910565b93506132a2818560208601613aea565b80840191505092915050565b60006132bb6023836138ff565b91506132c682613cc5565b604082019050919050565b60006132de601a836138ff565b91506132e982613d14565b602082019050919050565b60006133016025836138ff565b915061330c82613d3d565b604082019050919050565b60006133246012836138ff565b915061332f82613d8c565b602082019050919050565b60006133476012836138ff565b915061335282613db5565b602082019050919050565b600061336a6013836138ff565b915061337582613dde565b602082019050919050565b600060a083016000830151848203600086015261339d828261320b565b915050602083015184820360208601526133b7828261320b565b915050604083015184820360408601526133d1828261320b565b915050606083015184820360608601526133eb828261320b565b91505060808301518482036080860152613405828261320b565b9150508091505092915050565b61341b81613a9b565b82525050565b61342a81613a9b565b82525050565b600061343c828461327d565b915081905092915050565b600060208201905081810360008301526134618184613180565b905092915050565b60006020820190508181036000830152613482816132ae565b9050919050565b600060208201905081810360008301526134a2816132d1565b9050919050565b600060208201905081810360008301526134c2816132f4565b9050919050565b600060208201905081810360008301526134e281613317565b9050919050565b600060208201905081810360008301526135028161333a565b9050919050565b600060208201905081810360008301526135228161335d565b9050919050565b600060208201905061353e6000830184613421565b92915050565b600060a0820190506135596000830188613421565b818103602083015261356b8187613244565b905061357a6040830186613171565b818103606083015261358c8185613244565b905061359b6080830184613421565b9695505050505050565b6000610140820190506135bb600083018d613421565b81810360208301526135cd818c613244565b905081810360408301526135e1818b613244565b90506135f0606083018a613421565b81810360808301526136028189613244565b905061361160a0830188613171565b61361e60c0830187613421565b61362b60e08301866131fc565b6136396101008301856131de565b81810361012083015261364c8184613380565b90509b9a5050505050505050505050565b600060e082019050613672600083018a613421565b81810360208301526136848189613244565b905081810360408301526136988188613380565b905081810360608301526136ac8187613244565b90506136bb6080830186613421565b6136c860a0830185613421565b6136d560c0830184613421565b98975050505050505050565b600060e0820190506136f6600083018a613421565b6137036020830189613421565b6137106040830188613421565b81810360608301526137228187613244565b90506137316080830186613421565b61373e60a08301856131ed565b61374b60c0830184613421565b98975050505050505050565b600060a08201905061376c6000830188613421565b6137796020830187613421565b6137866040830186613421565b6137936060830185613421565b6137a060808301846131ed565b9695505050505050565b6000610100820190506137c0600083018b613421565b6137cd602083018a613421565b6137da6040830189613421565b6137e76060830188613421565b6137f46080830187613421565b61380160a0830186613421565b61380e60c0830185613421565b61381b60e0830184613421565b9998505050505050505050565b6000613832613843565b905061383e8282613b4f565b919050565b6000604051905090565b600067ffffffffffffffff82111561386857613867613c85565b5b602082029050602081019050919050565b600067ffffffffffffffff82111561389457613893613c85565b5b61389d82613cb4565b9050602081019050919050565b6000819050602082019050919050565b600081519050919050565b600081519050919050565b6000602082019050919050565b600082825260208201905092915050565b600082825260208201905092915050565b600082825260208201905092915050565b600081905092915050565b600061392682613a9b565b915061393183613a9b565b9250827fffffffffffffffffffffffffffffffffffffffffffffffffffffffffffffffff0382111561396657613965613bc9565b5b828201905092915050565b600061397c82613a9b565b915061398783613a9b565b92508261399757613996613bf8565b5b828204905092915050565b60006139ad82613a9b565b91506139b883613a9b565b9250817fffffffffffffffffffffffffffffffffffffffffffffffffffffffffffffffff04831182151516156139f1576139f0613bc9565b5b828202905092915050565b6000613a0782613a9b565b9150613a1283613a9b565b925082821015613a2557613a24613bc9565b5b828203905092915050565b6000613a3b82613a7b565b9050919050565b6000819050613a5082613e07565b919050565b6000819050613a6382613e1b565b919050565b6000819050613a7682613e2f565b919050565b600073ffffffffffffffffffffffffffffffffffffffff82169050919050565b6000819050919050565b6000613ab082613a42565b9050919050565b6000613ac282613a55565b9050919050565b6000613ad482613a68565b9050919050565b82818337600083830152505050565b60005b83811015613b08578082015181840152602081019050613aed565b83811115613b17576000848401525b50505050565b60006002820490506001821680613b3557607f821691505b60208210811415613b4957613b48613c56565b5b50919050565b613b5882613cb4565b810181811067ffffffffffffffff82111715613b7757613b76613c85565b5b80604052505050565b6000613b8b82613a9b565b91507fffffffffffffffffffffffffffffffffffffffffffffffffffffffffffffffff821415613bbe57613bbd613bc9565b5b600182019050919050565b7f4e487b7100000000000000000000000000000000000000000000000000000000600052601160045260246000fd5b7f4e487b7100000000000000000000000000000000000000000000000000000000600052601260045260246000fd5b7f4e487b7100000000000000000000000000000000000000000000000000000000600052602160045260246000fd5b7f4e487b7100000000000000000000000000000000000000000000000000000000600052602260045260246000fd5b7f4e487b7100000000000000000000000000000000000000000000000000000000600052604160045260246000fd5b6000601f19601f8301169050919050565b7f6465706f736974656420616d6f756e74206e6f74206d61746368696e6720696e60008201527f7075740000000000000000000000000000000000000000000000000000000000602082015250565b7f41746c656173742037206d656d62657273207265717569726564000000000000600082015250565b7f5573657220697320616c7265616479206e6f7420612070617274206f6620746860008201527f6520534847000000000000000000000000000000000000000000000000000000602082015250565b7f5573657220616c72656164792061646465640000000000000000000000000000600082015250565b7f556e617070726f76656420726571756573740000000000000000000000000000600082015250565b7f556e617574686f72697a65642072657165737400000000000000000000000000600082015250565b60038110613e1857613e17613c27565b5b50565b60048110613e2c57613e2b613c27565b5b50565b60068110613e4057613e3f613c27565b5b50565b613e4c81613a30565b8114613e5757600080fd5b50565b60068110613e6757600080fd5b50565b613e7381613a9b565b8114613e7e57600080fd5b5056fea2646970667358221220f4efb766e32a0e1cd07e66e7c1f3dff3f49aa3a0007cbaf12c3dd3a53f23c2f564736f6c63430008040033",
  "immutableReferences": {},
  "source": "// SPDX-License-Identifier: MIT\npragma solidity ^0.8.1;\n\nimport \"./structs.sol\";\nimport \"./helpers.sol\";\nimport \"./modifiers.sol\";\n\ncontract SHG is structs, helpers, modifiers {\n    function addSHG(\n        uint256[] memory members,\n        uint256 president,\n        uint256 treasurer,\n        string memory name,\n        string memory _state,\n        string memory _district,\n        string memory _blockName,\n        string memory _panchyatName,\n        string memory _villageName,\n        string memory dateOfFormation,\n        uint256 _baseIntrest\n    ) public {\n        require(members.length >= 7, \"Atleast 7 members required\");\n        uint256 id = ++numSHGs;\n\n        Location memory newlocation = Location({\n            state: _state,\n            district: _district,\n            blockName: _blockName,\n            panchyatName: _panchyatName,\n            villageName: _villageName\n        });\n\n        shgs[id] = SHG(\n            id,\n            members,\n            name,\n            newlocation,\n            dateOfFormation,\n            0,\n            0,\n            new uint256[](0),\n            new uint256[](0),\n            new uint256[](0),\n            _baseIntrest\n        );\n        for (uint256 i = 0; i < members.length; i++) {\n            uint256 userid = members[i];\n            users[userid].userType = UserType.MEMBER;\n            if (userid == president)\n                users[userid].userType = UserType.PRESIDENT;\n            if (userid == treasurer)\n                users[userid].userType = UserType.TREASURER;\n            addressToSHGid[users[userid].walletAddress] = numSHGs;\n        }\n        districtToSHGs[_district].push(id);\n    }\n\n    function addSHGMember(uint256 userid, uint256 shg) public {\n        require(users[userid].shgid == shg, \"User already added\");\n        users[userid].shgid = shg;\n        users[userid].userType = UserType.MEMBER;\n        shgs[shg].users.push(userid);\n    }\n\n    function removeSHGMember(uint256 userid, uint256 shgid) public {\n        SHG storage shg = shgs[shgid];\n        require(\n            check(shg.users, shgid),\n            \"User is already not a part of the SHG\"\n        );\n\n        uint256 index = getIndex(shg.users, userid);\n        uint256[] memory newusers = deleteIndex(shg.users, index);\n        shg.users = newusers;\n    }\n\n    function updateMemberRole(uint256 id, UserType updatedType) public {\n        // TODO: add requires\n        users[id].userType = updatedType;\n    }\n\n    function sendGrant(uint256 _requestid) public {\n        require(\n            users[addressToUser[msg.sender]].userType == UserType.TREASURER,\n            \"Unauthorized reqest\"\n        );\n        require(\n            userRequests[_requestid].status == RequestStatus.APPROVED,\n            \"Unapproved request\"\n        );\n        UserRequest storage request = userRequests[_requestid];\n\n        request.status = RequestStatus.COMPLETED;\n\n        Loan memory newLoan = Loan({\n            loanId: ++numLoans,\n            lenderId: request.SHGId,\n            amount: request.amount,\n            lendeeId: request.userId,\n            intrest: shgs[request.SHGId].baseIntrest,\n            loanTime: request.loanTime,\n            date: block.timestamp,\n            lastEMI: 0\n        });\n\n        loans[numLoans] = newLoan;\n        shgs[request.SHGId].loansGiven.push(numLoans);\n        users[request.userId].loansTaken.push(numLoans);\n\n        require(shgs[request.SHGId].currentBalance >= request.amount);\n        payable(users[request.userId].walletAddress).transfer(request.amount);\n        shgs[request.SHGId].currentBalance -= request.amount;\n    }\n\n    function checkApproval(uint256 _requestid) internal view returns (bool) {\n        uint256[] storage approvals = userRequests[_requestid].approvals;\n\n        for (uint256 i = 0; i < approvals.length; i++) {\n            if (approvals[i] == addressToUser[msg.sender]) {\n                return false;\n            }\n        }\n\n        return true;\n    }\n\n    function approveRequest(uint256 _requestid, uint256 _shgid)\n        public\n        onlySHG(_shgid)\n    {\n        UserRequest storage request = userRequests[_requestid];\n        require(request.SHGId == _shgid);\n\n        // require(checkApproval(_requestid));\n        request.approvals.push(addressToUser[msg.sender]);\n\n        // if (request.approvals.length > shgs[_shgid].users.length / 2) {\n        request.status = RequestStatus.APPROVED;\n        // }\n    }\n\n    function sendRequestToBank(\n        uint256 _shgid,\n        uint256 _amount,\n        uint256 _loanTime\n    ) public {\n        // require(users[addressToUser[msg.sender]].shgid == _shgid);\n        uint256 reqid = numSHGRequests++;\n        shgRequests[reqid] = SHGRequest(\n            reqid,\n            _shgid,\n            _amount,\n            _loanTime,\n            RequestStatus.IN_PROCESS\n        );\n        shgs[_shgid].loansTaken.push(reqid);\n    }\n\n    function shgPayEMI(\n        uint256 _shgid,\n        uint256 _loanid,\n        uint256 _amount\n    ) public onlySHG(_shgid) {\n        uint256 amount = getSHGEMI(_shgid, _loanid);\n        require(amount == _amount);\n        Loan storage loan = loans[_loanid];\n        payable(address(this)).transfer(_amount);\n        shgs[loan.lendeeId].currentBalance += _amount;\n        loan.lastEMI = block.timestamp;\n    }\n\n    // fetch functions\n    function totalNumSHGs() public view returns (uint256) {\n        return numSHGs;\n    }\n\n    function getSHGRequests(uint256 _shgid) public returns (uint256[] memory) {\n        for (uint256 i = 0; i < numSHGRequests; i++) {\n            if (shgRequests[i].shgid == _shgid) {\n                shgToRequests[_shgid].push(i);\n            }\n        }\n        return shgToRequests[_shgid];\n    }\n\n    function getSHGEMI(uint256 _shgid, uint256 _loanid)\n        public\n        onlySHG(_shgid)\n        returns (uint256)\n    {\n        Loan storage loan = loans[_loanid];\n        uint256 months = ((block.timestamp - loan.lastEMI) / 24) * 60 * 60 * 30;\n\n        require(months > 0);\n        uint256 P = loan.amount;\n        uint256 r = loan.intrest;\n        uint256 t = loan.loanTime;\n        uint256 emi = (P * (1 + ((r / 100) * 12))) ^ ((12 * t));\n\n        loan.amount = loan.amount - emi;\n        return emi;\n    }\n\n    function getSHGMembers(uint256 shgid)\n        public\n        view\n        returns (uint256[] memory)\n    {\n        return shgs[shgid].users;\n    }\n\n    function shgsOfDistrict(string memory district)\n        public\n        view\n        returns (uint256[] memory)\n    {\n        return districtToSHGs[district];\n    }\n\n    function userRequestsOfSHG(uint256 _shgid)\n        public\n        view\n        returns (uint256[] memory)\n    {\n        return shgs[_shgid].userRequests;\n    }\n\n    function addMoney(uint256 _amount, uint256 _shgid) public payable {\n        require(msg.value >= _amount, \"deposited amount not matching input\");\n        if (msg.value > _amount)\n            payable(msg.sender).transfer(msg.value - _amount);\n        shgs[_shgid].currentBalance += _amount;\n    }\n}\n",
  "sourcePath": "/home/sdas/code/yogdaan-contracts/contracts/lib/SHG.sol",
  "compiler": {
    "name": "solc",
    "version": "0.8.4+commit.c7e474f2.Emscripten.clang"
  },
  "schemaVersion": "3.4.9",
  "updatedAt": "2022-08-26T11:24:54.893Z",
  "devdoc": {
    "kind": "dev",
    "methods": {},
    "version": 1
  },
  "userdoc": {
    "kind": "user",
    "methods": {},
    "version": 1
  }
}