{
  "contractName": "SHG",
  "abi": [
    {
      "inputs": [
        {
          "internalType": "address",
          "name": "",
          "type": "address"
        }
      ],
      "name": "addressToBankid",
      "outputs": [
        {
          "internalType": "uint256",
          "name": "",
          "type": "uint256"
        }
      ],
      "stateMutability": "view",
      "type": "function"
    },
    {
      "inputs": [
        {
          "internalType": "address",
          "name": "",
          "type": "address"
        }
      ],
      "name": "addressToSHGid",
      "outputs": [
        {
          "internalType": "uint256",
          "name": "",
          "type": "uint256"
        }
      ],
      "stateMutability": "view",
      "type": "function"
    },
    {
      "inputs": [
        {
          "internalType": "address",
          "name": "",
          "type": "address"
        }
      ],
      "name": "addressToUser",
      "outputs": [
        {
          "internalType": "uint256",
          "name": "",
          "type": "uint256"
        }
      ],
      "stateMutability": "view",
      "type": "function"
    },
    {
      "inputs": [
        {
          "internalType": "uint256",
          "name": "",
          "type": "uint256"
        }
      ],
      "name": "banks",
      "outputs": [
        {
          "internalType": "uint256",
          "name": "id",
          "type": "uint256"
        },
        {
          "internalType": "string",
          "name": "name",
          "type": "string"
        },
        {
          "internalType": "address",
          "name": "walletAddress",
          "type": "address"
        },
        {
          "internalType": "string",
          "name": "code",
          "type": "string"
        },
        {
          "internalType": "uint256",
          "name": "intrestRate",
          "type": "uint256"
        }
      ],
      "stateMutability": "view",
      "type": "function"
    },
    {
      "inputs": [
        {
          "internalType": "uint256",
          "name": "",
          "type": "uint256"
        }
      ],
      "name": "loans",
      "outputs": [
        {
          "internalType": "uint256",
          "name": "loanId",
          "type": "uint256"
        },
        {
          "internalType": "uint256",
          "name": "lenderId",
          "type": "uint256"
        },
        {
          "internalType": "uint256",
          "name": "amount",
          "type": "uint256"
        },
        {
          "internalType": "uint256",
          "name": "lendeeId",
          "type": "uint256"
        },
        {
          "internalType": "uint256",
          "name": "intrest",
          "type": "uint256"
        },
        {
          "internalType": "uint256",
          "name": "loanTime",
          "type": "uint256"
        },
        {
          "internalType": "uint256",
          "name": "date",
          "type": "uint256"
        },
        {
          "internalType": "uint256",
          "name": "lastEMI",
          "type": "uint256"
        }
      ],
      "stateMutability": "view",
      "type": "function"
    },
    {
      "inputs": [
        {
          "internalType": "uint256",
          "name": "",
          "type": "uint256"
        }
      ],
      "name": "shgRequests",
      "outputs": [
        {
          "internalType": "uint256",
          "name": "requestid",
          "type": "uint256"
        },
        {
          "internalType": "uint256",
          "name": "shgid",
          "type": "uint256"
        },
        {
          "internalType": "uint256",
          "name": "amount",
          "type": "uint256"
        },
        {
          "internalType": "uint256",
          "name": "loanTime",
          "type": "uint256"
        },
        {
          "internalType": "enum structs.RequestStatus",
          "name": "status",
          "type": "uint8"
        }
      ],
      "stateMutability": "view",
      "type": "function"
    },
    {
      "inputs": [
        {
          "internalType": "uint256",
          "name": "",
          "type": "uint256"
        }
      ],
      "name": "shgs",
      "outputs": [
        {
          "internalType": "uint256",
          "name": "id",
          "type": "uint256"
        },
        {
          "internalType": "string",
          "name": "name",
          "type": "string"
        },
        {
          "components": [
            {
              "internalType": "string",
              "name": "state",
              "type": "string"
            },
            {
              "internalType": "string",
              "name": "district",
              "type": "string"
            },
            {
              "internalType": "string",
              "name": "blockName",
              "type": "string"
            },
            {
              "internalType": "string",
              "name": "panchyatName",
              "type": "string"
            },
            {
              "internalType": "string",
              "name": "villageName",
              "type": "string"
            }
          ],
          "internalType": "struct structs.Location",
          "name": "location",
          "type": "tuple"
        },
        {
          "internalType": "string",
          "name": "dateOfFormation",
          "type": "string"
        },
        {
          "internalType": "uint256",
          "name": "currentBalance",
          "type": "uint256"
        },
        {
          "internalType": "uint256",
          "name": "owedBalance",
          "type": "uint256"
        },
        {
          "internalType": "uint256",
          "name": "baseIntrest",
          "type": "uint256"
        }
      ],
      "stateMutability": "view",
      "type": "function"
    },
    {
      "inputs": [
        {
          "internalType": "uint256",
          "name": "",
          "type": "uint256"
        }
      ],
      "name": "userRequests",
      "outputs": [
        {
          "internalType": "uint256",
          "name": "requestId",
          "type": "uint256"
        },
        {
          "internalType": "uint256",
          "name": "userId",
          "type": "uint256"
        },
        {
          "internalType": "uint256",
          "name": "amount",
          "type": "uint256"
        },
        {
          "internalType": "string",
          "name": "description",
          "type": "string"
        },
        {
          "internalType": "uint256",
          "name": "SHGId",
          "type": "uint256"
        },
        {
          "internalType": "enum structs.RequestStatus",
          "name": "status",
          "type": "uint8"
        },
        {
          "internalType": "uint256",
          "name": "loanTime",
          "type": "uint256"
        }
      ],
      "stateMutability": "view",
      "type": "function"
    },
    {
      "inputs": [
        {
          "internalType": "uint256",
          "name": "",
          "type": "uint256"
        }
      ],
      "name": "users",
      "outputs": [
        {
          "internalType": "uint256",
          "name": "id",
          "type": "uint256"
        },
        {
          "internalType": "string",
          "name": "name",
          "type": "string"
        },
        {
          "internalType": "string",
          "name": "aadhar",
          "type": "string"
        },
        {
          "internalType": "uint256",
          "name": "mobno",
          "type": "uint256"
        },
        {
          "internalType": "string",
          "name": "fatherName",
          "type": "string"
        },
        {
          "internalType": "address",
          "name": "walletAddress",
          "type": "address"
        },
        {
          "internalType": "uint256",
          "name": "shgid",
          "type": "uint256"
        },
        {
          "internalType": "enum structs.UserType",
          "name": "userType",
          "type": "uint8"
        },
        {
          "internalType": "enum structs.Gender",
          "name": "gender",
          "type": "uint8"
        },
        {
          "components": [
            {
              "internalType": "string",
              "name": "state",
              "type": "string"
            },
            {
              "internalType": "string",
              "name": "district",
              "type": "string"
            },
            {
              "internalType": "string",
              "name": "blockName",
              "type": "string"
            },
            {
              "internalType": "string",
              "name": "panchyatName",
              "type": "string"
            },
            {
              "internalType": "string",
              "name": "villageName",
              "type": "string"
            }
          ],
          "internalType": "struct structs.Location",
          "name": "location",
          "type": "tuple"
        }
      ],
      "stateMutability": "view",
      "type": "function"
    },
    {
      "inputs": [
        {
          "internalType": "uint256[]",
          "name": "members",
          "type": "uint256[]"
        },
        {
          "internalType": "uint256",
          "name": "president",
          "type": "uint256"
        },
        {
          "internalType": "uint256",
          "name": "treasurer",
          "type": "uint256"
        },
        {
          "internalType": "string",
          "name": "name",
          "type": "string"
        },
        {
          "components": [
            {
              "internalType": "string",
              "name": "state",
              "type": "string"
            },
            {
              "internalType": "string",
              "name": "district",
              "type": "string"
            },
            {
              "internalType": "string",
              "name": "blockName",
              "type": "string"
            },
            {
              "internalType": "string",
              "name": "panchyatName",
              "type": "string"
            },
            {
              "internalType": "string",
              "name": "villageName",
              "type": "string"
            }
          ],
          "internalType": "struct structs.Location",
          "name": "location",
          "type": "tuple"
        },
        {
          "internalType": "string",
          "name": "dateOfFormation",
          "type": "string"
        },
        {
          "internalType": "uint256",
          "name": "_baseIntrest",
          "type": "uint256"
        }
      ],
      "name": "addSHG",
      "outputs": [],
      "stateMutability": "nonpayable",
      "type": "function"
    },
    {
      "inputs": [
        {
          "internalType": "uint256",
          "name": "userid",
          "type": "uint256"
        },
        {
          "internalType": "uint256",
          "name": "shg",
          "type": "uint256"
        }
      ],
      "name": "addSHGMember",
      "outputs": [],
      "stateMutability": "nonpayable",
      "type": "function"
    },
    {
      "inputs": [
        {
          "internalType": "uint256",
          "name": "userid",
          "type": "uint256"
        },
        {
          "internalType": "uint256",
          "name": "shgid",
          "type": "uint256"
        }
      ],
      "name": "removeSHGMember",
      "outputs": [],
      "stateMutability": "nonpayable",
      "type": "function"
    },
    {
      "inputs": [
        {
          "internalType": "uint256",
          "name": "id",
          "type": "uint256"
        },
        {
          "internalType": "enum structs.UserType",
          "name": "updatedType",
          "type": "uint8"
        }
      ],
      "name": "updateMemberRole",
      "outputs": [],
      "stateMutability": "nonpayable",
      "type": "function"
    },
    {
      "inputs": [
        {
          "internalType": "uint256",
          "name": "_requestid",
          "type": "uint256"
        }
      ],
      "name": "sendGrant",
      "outputs": [],
      "stateMutability": "nonpayable",
      "type": "function"
    },
    {
      "inputs": [
        {
          "internalType": "uint256",
          "name": "_requestid",
          "type": "uint256"
        },
        {
          "internalType": "uint256",
          "name": "_shgid",
          "type": "uint256"
        }
      ],
      "name": "approveRequest",
      "outputs": [],
      "stateMutability": "nonpayable",
      "type": "function"
    },
    {
      "inputs": [
        {
          "internalType": "uint256",
          "name": "_shgid",
          "type": "uint256"
        },
        {
          "internalType": "uint256",
          "name": "_amount",
          "type": "uint256"
        },
        {
          "internalType": "uint256",
          "name": "_loanTime",
          "type": "uint256"
        }
      ],
      "name": "sendRequestToBank",
      "outputs": [],
      "stateMutability": "nonpayable",
      "type": "function"
    },
    {
      "inputs": [
        {
          "internalType": "uint256",
          "name": "_shgid",
          "type": "uint256"
        },
        {
          "internalType": "uint256",
          "name": "_loanid",
          "type": "uint256"
        },
        {
          "internalType": "uint256",
          "name": "_amount",
          "type": "uint256"
        }
      ],
      "name": "shgPayEMI",
      "outputs": [],
      "stateMutability": "nonpayable",
      "type": "function"
    },
    {
      "inputs": [
        {
          "internalType": "uint256",
          "name": "_shgid",
          "type": "uint256"
        },
        {
          "internalType": "uint256",
          "name": "_loanid",
          "type": "uint256"
        }
      ],
      "name": "getSHGEMI",
      "outputs": [
        {
          "internalType": "uint256",
          "name": "",
          "type": "uint256"
        }
      ],
      "stateMutability": "nonpayable",
      "type": "function"
    },
    {
      "inputs": [
        {
          "internalType": "uint256",
          "name": "shgid",
          "type": "uint256"
        }
      ],
      "name": "getSHGMembers",
      "outputs": [
        {
          "internalType": "uint256[]",
          "name": "",
          "type": "uint256[]"
        }
      ],
      "stateMutability": "view",
      "type": "function"
    }
  ],
  "bytecode": "0x608060405234801561001057600080fd5b50613921806100206000396000f3fe608060405234801561001057600080fd5b50600436106101205760003560e01c806361c91b70116100ad5780639bbc9ab1116100715780639bbc9ab11461036a578063a6e90a5814610386578063af08a94f146103a2578063e1ec3c68146103d2578063edf538861461040957610120565b806361c91b701461029c578063769d0e16146102cc5780637d550bb3146102fc5780638106bada14610318578063941696561461033457610120565b80632c0a90a9116100f45780632c0a90a9146101df578063365b98b2146101fb57806339d8bed1146102345780633ae0058f146102505780634f269c921461028057610120565b806285ae2b14610125578063021af39714610159578063257a170b1461017557806326271cf2146101a9575b600080fd5b61013f600480360381019061013a9190612bb8565b610439565b604051610150959493929190613008565b60405180910390f35b610173600480360381019061016e9190612c59565b61059f565b005b61018f600480360381019061018a9190612bb8565b610776565b6040516101a095949392919061321b565b60405180910390f35b6101c360048036038101906101be9190612bb8565b6107b9565b6040516101d69796959493929190613121565b60405180910390f35b6101f960048036038101906101f49190612c1d565b610bef565b005b61021560048036038101906102109190612bb8565b610d45565b60405161022b9a99989796959493929190613069565b60405180910390f35b61024e60048036038101906102499190612c1d565b61124f565b005b61026a60048036038101906102659190612a91565b611365565b6040516102779190612fed565b60405180910390f35b61029a60048036038101906102959190612be1565b61137d565b005b6102b660048036038101906102b19190612a91565b6113e4565b6040516102c39190612fed565b60405180910390f35b6102e660048036038101906102e19190612c1d565b6113fc565b6040516102f39190612fed565b60405180910390f35b61031660048036038101906103119190612c59565b61151a565b005b610332600480360381019061032d9190612aba565b6115f9565b005b61034e60048036038101906103499190612bb8565b611c6d565b60405161036197969594939291906131a5565b60405180910390f35b610384600480360381019061037f9190612bb8565b611d44565b005b6103a0600480360381019061039b9190612c1d565b6121ec565b005b6103bc60048036038101906103b79190612bb8565b61237e565b6040516103c99190612f2b565b60405180910390f35b6103ec60048036038101906103e79190612bb8565b6123ec565b60405161040098979695949392919061326e565b60405180910390f35b610423600480360381019061041e9190612a91565b612434565b6040516104309190612fed565b60405180910390f35b6002602052806000526040600020600091509050806000015490806001018054610462906135d6565b80601f016020809104026020016040519081016040528092919081815260200182805461048e906135d6565b80156104db5780601f106104b0576101008083540402835291602001916104db565b820191906000526020600020905b8154815290600101906020018083116104be57829003601f168201915b5050505050908060020160009054906101000a900473ffffffffffffffffffffffffffffffffffffffff1690806003018054610516906135d6565b80601f0160208091040260200160405190810160405280929190818152602001828054610542906135d6565b801561058f5780601f106105645761010080835404028352916020019161058f565b820191906000526020600020905b81548152906001019060200180831161057257829003601f168201915b5050505050908060040154905085565b826000600160008381526020019081526020016000206000015414156105c457600080fd5b83600080600360003373ffffffffffffffffffffffffffffffffffffffff1673ffffffffffffffffffffffffffffffffffffffff168152602001908152602001600020548152602001908152602001600020600801541461062457600080fd5b6000600c600081548092919061063990613639565b9190505590506040518060a0016040528082815260200186815260200185815260200184815260200160038081111561069b577f4e487b7100000000000000000000000000000000000000000000000000000000600052602160045260246000fd5b815250600660008381526020019081526020016000206000820151816000015560208201518160010155604082015181600201556060820151816003015560808201518160040160006101000a81548160ff0219169083600381111561072a577f4e487b7100000000000000000000000000000000000000000000000000000000600052602160045260246000fd5b021790555090505060016000868152602001908152602001600020600c018190806001815401808255809150506001900390600052602060002001600090919091909150555050505050565b60066020528060005260406000206000915090508060000154908060010154908060020154908060030154908060040160009054906101000a900460ff16905085565b60016020528060005260406000206000915090508060000154908060020180546107e2906135d6565b80601f016020809104026020016040519081016040528092919081815260200182805461080e906135d6565b801561085b5780601f106108305761010080835404028352916020019161085b565b820191906000526020600020905b81548152906001019060200180831161083e57829003601f168201915b505050505090806003016040518060a0016040529081600082018054610880906135d6565b80601f01602080910402602001604051908101604052809291908181526020018280546108ac906135d6565b80156108f95780601f106108ce576101008083540402835291602001916108f9565b820191906000526020600020905b8154815290600101906020018083116108dc57829003601f168201915b50505050508152602001600182018054610912906135d6565b80601f016020809104026020016040519081016040528092919081815260200182805461093e906135d6565b801561098b5780601f106109605761010080835404028352916020019161098b565b820191906000526020600020905b81548152906001019060200180831161096e57829003601f168201915b505050505081526020016002820180546109a4906135d6565b80601f01602080910402602001604051908101604052809291908181526020018280546109d0906135d6565b8015610a1d5780601f106109f257610100808354040283529160200191610a1d565b820191906000526020600020905b815481529060010190602001808311610a0057829003601f168201915b50505050508152602001600382018054610a36906135d6565b80601f0160208091040260200160405190810160405280929190818152602001828054610a62906135d6565b8015610aaf5780601f10610a8457610100808354040283529160200191610aaf565b820191906000526020600020905b815481529060010190602001808311610a9257829003601f168201915b50505050508152602001600482018054610ac8906135d6565b80601f0160208091040260200160405190810160405280929190818152602001828054610af4906135d6565b8015610b415780601f10610b1657610100808354040283529160200191610b41565b820191906000526020600020905b815481529060010190602001808311610b2457829003601f168201915b50505050508152505090806008018054610b5a906135d6565b80601f0160208091040260200160405190810160405280929190818152602001828054610b86906135d6565b8015610bd35780601f10610ba857610100808354040283529160200191610bd3565b820191906000526020600020905b815481529060010190602001808311610bb657829003601f168201915b50505050509080600901549080600a01549080600d0154905087565b80600060016000838152602001908152602001600020600001541415610c1457600080fd5b600060056000858152602001908152602001600020905082816004015414610c3b57600080fd5b610c448461244c565b610c4d57600080fd5b80600701600360003373ffffffffffffffffffffffffffffffffffffffff1673ffffffffffffffffffffffffffffffffffffffff16815260200190815260200160002054908060018154018082558091505060019003906000526020600020016000909190919091505560026001600085815260200190815260200160002060010180549050610cdd919061342a565b81600701805490501115610d3f5760008160050160006101000a81548160ff02191690836003811115610d39577f4e487b7100000000000000000000000000000000000000000000000000000000600052602160045260246000fd5b02179055505b50505050565b6000602052806000526040600020600091509050806000015490806001018054610d6e906135d6565b80601f0160208091040260200160405190810160405280929190818152602001828054610d9a906135d6565b8015610de75780601f10610dbc57610100808354040283529160200191610de7565b820191906000526020600020905b815481529060010190602001808311610dca57829003601f168201915b505050505090806002018054610dfc906135d6565b80601f0160208091040260200160405190810160405280929190818152602001828054610e28906135d6565b8015610e755780601f10610e4a57610100808354040283529160200191610e75565b820191906000526020600020905b815481529060010190602001808311610e5857829003601f168201915b505050505090806003015490806004018054610e90906135d6565b80601f0160208091040260200160405190810160405280929190818152602001828054610ebc906135d6565b8015610f095780601f10610ede57610100808354040283529160200191610f09565b820191906000526020600020905b815481529060010190602001808311610eec57829003601f168201915b5050505050908060050160009054906101000a900473ffffffffffffffffffffffffffffffffffffffff16908060080154908060090160009054906101000a900460ff16908060090160019054906101000a900460ff169080600a016040518060a0016040529081600082018054610f80906135d6565b80601f0160208091040260200160405190810160405280929190818152602001828054610fac906135d6565b8015610ff95780601f10610fce57610100808354040283529160200191610ff9565b820191906000526020600020905b815481529060010190602001808311610fdc57829003601f168201915b50505050508152602001600182018054611012906135d6565b80601f016020809104026020016040519081016040528092919081815260200182805461103e906135d6565b801561108b5780601f106110605761010080835404028352916020019161108b565b820191906000526020600020905b81548152906001019060200180831161106e57829003601f168201915b505050505081526020016002820180546110a4906135d6565b80601f01602080910402602001604051908101604052809291908181526020018280546110d0906135d6565b801561111d5780601f106110f25761010080835404028352916020019161111d565b820191906000526020600020905b81548152906001019060200180831161110057829003601f168201915b50505050508152602001600382018054611136906135d6565b80601f0160208091040260200160405190810160405280929190818152602001828054611162906135d6565b80156111af5780601f10611184576101008083540402835291602001916111af565b820191906000526020600020905b81548152906001019060200180831161119257829003601f168201915b505050505081526020016004820180546111c8906135d6565b80601f01602080910402602001604051908101604052809291908181526020018280546111f4906135d6565b80156112415780601f1061121657610100808354040283529160200191611241565b820191906000526020600020905b81548152906001019060200180831161122457829003601f168201915b50505050508152505090508a565b8060008084815260200190815260200160002060080154146112a6576040517f08c379a000000000000000000000000000000000000000000000000000000000815260040161129d90612f8d565b60405180910390fd5b8060008084815260200190815260200160002060080181905550600360008084815260200190815260200160002060090160006101000a81548160ff0219169083600581111561131f577f4e487b7100000000000000000000000000000000000000000000000000000000600052602160045260246000fd5b0217905550600160008281526020019081526020016000206001018290806001815401808255809150506001900390600052602060002001600090919091909150555050565b60076020528060005260406000206000915090505481565b8060008084815260200190815260200160002060090160006101000a81548160ff021916908360058111156113db577f4e487b7100000000000000000000000000000000000000000000000000000000600052602160045260246000fd5b02179055505050565b60086020528060005260406000206000915090505481565b60008260006001600083815260200190815260200160002060000154141561142357600080fd5b60006004600085815260200190815260200160002090506000601e603c80601885600701544261145391906134b5565b61145d919061342a565b611467919061345b565b611471919061345b565b61147b919061345b565b90506000811161148a57600080fd5b60008260020154905060008360040154905060008460050154905060008382600c6114b5919061345b565b6114bf91906134b5565b600c6064856114ce919061342a565b6114d8919061345b565b60016114e491906133d4565b856114ef919061345b565b18905080866002015461150291906134b5565b86600201819055508097505050505050505092915050565b8260006001600083815260200190815260200160002060000154141561153f57600080fd5b600061154b85856113fc565b905082811461155957600080fd5b60006004600086815260200190815260200160002090503073ffffffffffffffffffffffffffffffffffffffff166108fc859081150290604051600060405180830381858888f193505050501580156115b6573d6000803e3d6000fd5b5083600160008360030154815260200190815260200160002060090160008282546115e191906133d4565b92505081905550428160070181905550505050505050565b60078751101561163e576040517f08c379a000000000000000000000000000000000000000000000000000000000815260040161163590612f4d565b60405180910390fd5b6000600a6000815461164f90613639565b91905081905590506040518061014001604052808281526020018981526020018681526020018581526020018481526020016000815260200160008152602001600067ffffffffffffffff8111156116d0577f4e487b7100000000000000000000000000000000000000000000000000000000600052604160045260246000fd5b6040519080825280602002602001820160405280156116fe5781602001602082028036833780820191505090505b508152602001600067ffffffffffffffff811115611745577f4e487b7100000000000000000000000000000000000000000000000000000000600052604160045260246000fd5b6040519080825280602002602001820160405280156117735781602001602082028036833780820191505090505b50815260200183815250600160008381526020019081526020016000206000820151816000015560208201518160010190805190602001906117b6929190612764565b5060408201518160020190805190602001906117d39291906127b1565b5060608201518160030160008201518160000190805190602001906117f99291906127b1565b5060208201518160010190805190602001906118169291906127b1565b5060408201518160020190805190602001906118339291906127b1565b5060608201518160030190805190602001906118509291906127b1565b50608082015181600401908051906020019061186d9291906127b1565b505050608082015181600801908051906020019061188c9291906127b1565b5060a0820151816009015560c082015181600a015560e082015181600b0190805190602001906118bd929190612764565b5061010082015181600c0190805190602001906118db929190612764565b5061012082015181600d015590505060005b8851811015611b875760036000808b8481518110611934577f4e487b7100000000000000000000000000000000000000000000000000000000600052603260045260246000fd5b6020026020010151815260200190815260200160002060090160006101000a81548160ff02191690836005811115611995577f4e487b7100000000000000000000000000000000000000000000000000000000600052602160045260246000fd5b0217905550878982815181106119d4577f4e487b7100000000000000000000000000000000000000000000000000000000600052603260045260246000fd5b60200260200101511415611a875760008060008b8481518110611a20577f4e487b7100000000000000000000000000000000000000000000000000000000600052603260045260246000fd5b6020026020010151815260200190815260200160002060090160006101000a81548160ff02191690836005811115611a81577f4e487b7100000000000000000000000000000000000000000000000000000000600052602160045260246000fd5b02179055505b86898281518110611ac1577f4e487b7100000000000000000000000000000000000000000000000000000000600052603260045260246000fd5b60200260200101511415611b745760026000808b8481518110611b0d577f4e487b7100000000000000000000000000000000000000000000000000000000600052603260045260246000fd5b6020026020010151815260200190815260200160002060090160006101000a81548160ff02191690836005811115611b6e577f4e487b7100000000000000000000000000000000000000000000000000000000600052602160045260246000fd5b02179055505b8080611b7f90613639565b9150506118ed565b5060005b8851811015611c6257600a54600760008060008d8681518110611bd7577f4e487b7100000000000000000000000000000000000000000000000000000000600052603260045260246000fd5b6020026020010151815260200190815260200160002060050160009054906101000a900473ffffffffffffffffffffffffffffffffffffffff1673ffffffffffffffffffffffffffffffffffffffff1673ffffffffffffffffffffffffffffffffffffffff168152602001908152602001600020819055508080611c5a90613639565b915050611b8b565b505050505050505050565b6005602052806000526040600020600091509050806000015490806001015490806002015490806003018054611ca2906135d6565b80601f0160208091040260200160405190810160405280929190818152602001828054611cce906135d6565b8015611d1b5780601f10611cf057610100808354040283529160200191611d1b565b820191906000526020600020905b815481529060010190602001808311611cfe57829003601f168201915b5050505050908060040154908060050160009054906101000a900460ff16908060060154905087565b60026005811115611d7e577f4e487b7100000000000000000000000000000000000000000000000000000000600052602160045260246000fd5b600080600360003373ffffffffffffffffffffffffffffffffffffffff1673ffffffffffffffffffffffffffffffffffffffff16815260200190815260200160002054815260200190815260200160002060090160009054906101000a900460ff166005811115611e18577f4e487b7100000000000000000000000000000000000000000000000000000000600052602160045260246000fd5b14611e58576040517f08c379a0000000000000000000000000000000000000000000000000000000008152600401611e4f90612fcd565b60405180910390fd5b60006003811115611e92577f4e487b7100000000000000000000000000000000000000000000000000000000600052602160045260246000fd5b6005600083815260200190815260200160002060050160009054906101000a900460ff166003811115611eee577f4e487b7100000000000000000000000000000000000000000000000000000000600052602160045260246000fd5b14611f2e576040517f08c379a0000000000000000000000000000000000000000000000000000000008152600401611f2590612fad565b60405180910390fd5b600060056000838152602001908152602001600020905060018160050160006101000a81548160ff02191690836003811115611f93577f4e487b7100000000000000000000000000000000000000000000000000000000600052602160045260246000fd5b02179055506000604051806101000160405280600e60008154611fb590613639565b91905081905581526020018360040154815260200183600201548152602001836001015481526020016001600085600401548152602001908152602001600020600d0154815260200183600601548152602001428152602001600081525090508060046000600e548152602001908152602001600020600082015181600001556020820151816001015560408201518160020155606082015181600301556080820151816004015560a0820151816005015560c0820151816006015560e082015181600701559050506001600083600401548152602001908152602001600020600b01600e54908060018154018082558091505060019003906000526020600020016000909190919091505560008083600101548152602001908152602001600020600601600e5490806001815401808255809150506001900390600052602060002001600090919091909150558160020154600160008460040154815260200190815260200160002060090154101561212e57600080fd5b6000808360010154815260200190815260200160002060050160009054906101000a900473ffffffffffffffffffffffffffffffffffffffff1673ffffffffffffffffffffffffffffffffffffffff166108fc83600201549081150290604051600060405180830381858888f193505050501580156121b1573d6000803e3d6000fd5b508160020154600160008460040154815260200190815260200160002060090160008282546121e091906134b5565b92505081905550505050565b600060016000838152602001908152602001600020905061225f8160010180548060200260200160405190810160405280929190818152602001828054801561225457602002820191906000526020600020905b815481526020019060010190808311612240575b50505050508361252a565b61229e576040517f08c379a000000000000000000000000000000000000000000000000000000000815260040161229590612f6d565b60405180910390fd5b60006122fc826001018054806020026020016040519081016040528092919081815260200182805480156122f157602002820191906000526020600020905b8154815260200190600101908083116122dd575b5050505050856125b8565b9050600061235c8360010180548060200260200160405190810160405280929190818152602001828054801561235157602002820191906000526020600020905b81548152602001906001019080831161233d575b505050505083612639565b905080836001019080519060200190612376929190612764565b505050505050565b6060600160008381526020019081526020016000206001018054806020026020016040519081016040528092919081815260200182805480156123e057602002820191906000526020600020905b8154815260200190600101908083116123cc575b50505050509050919050565b60046020528060005260406000206000915090508060000154908060010154908060020154908060030154908060040154908060050154908060060154908060070154905088565b60036020528060005260406000206000915090505481565b60008060056000848152602001908152602001600020600701905060005b818054905081101561251e57600360003373ffffffffffffffffffffffffffffffffffffffff1673ffffffffffffffffffffffffffffffffffffffff168152602001908152602001600020548282815481106124ef577f4e487b7100000000000000000000000000000000000000000000000000000000600052603260045260246000fd5b9060005260206000200154141561250b57600092505050612525565b808061251690613639565b91505061246a565b5060019150505b919050565b600080600090505b6001845161254091906134b5565b8110156125ac5782848281518110612581577f4e487b7100000000000000000000000000000000000000000000000000000000600052603260045260246000fd5b602002602001015114156125995760019150506125b2565b80806125a490613639565b915050612532565b50600090505b92915050565b600080600090505b835181101561262d5782848281518110612603577f4e487b7100000000000000000000000000000000000000000000000000000000600052603260045260246000fd5b6020026020010151141561261a5780915050612633565b808061262590613639565b9150506125c0565b50600090505b92915050565b60608251821061264857600080fd5b60008290505b6001845161265c91906134b5565b811015612708578360018261267191906133d4565b815181106126a8577f4e487b7100000000000000000000000000000000000000000000000000000000600052603260045260246000fd5b60200260200101518482815181106126e9577f4e487b7100000000000000000000000000000000000000000000000000000000600052603260045260246000fd5b602002602001018181525050808061270090613639565b91505061264e565b50826001845161271891906134b5565b8151811061274f577f4e487b7100000000000000000000000000000000000000000000000000000000600052603260045260246000fd5b60200260200101600081525082905092915050565b8280548282559060005260206000209081019282156127a0579160200282015b8281111561279f578251825591602001919060010190612784565b5b5090506127ad9190612837565b5090565b8280546127bd906135d6565b90600052602060002090601f0160209004810192826127df5760008555612826565b82601f106127f857805160ff1916838001178555612826565b82800160010185558215612826579182015b8281111561282557825182559160200191906001019061280a565b5b5090506128339190612837565b5090565b5b80821115612850576000816000905550600101612838565b5090565b600061286761286284613311565b6132ec565b9050808382526020820190508285602086028201111561288657600080fd5b60005b858110156128b6578161289c8882612a7c565b845260208401935060208301925050600181019050612889565b5050509392505050565b60006128d36128ce8461333d565b6132ec565b9050828152602081018484840111156128eb57600080fd5b6128f6848285613594565b509392505050565b60008135905061290d816138ad565b92915050565b600082601f83011261292457600080fd5b8135612934848260208601612854565b91505092915050565b60008135905061294c816138c4565b92915050565b600082601f83011261296357600080fd5b81356129738482602086016128c0565b91505092915050565b600060a0828403121561298e57600080fd5b61299860a06132ec565b9050600082013567ffffffffffffffff8111156129b457600080fd5b6129c084828501612952565b600083015250602082013567ffffffffffffffff8111156129e057600080fd5b6129ec84828501612952565b602083015250604082013567ffffffffffffffff811115612a0c57600080fd5b612a1884828501612952565b604083015250606082013567ffffffffffffffff811115612a3857600080fd5b612a4484828501612952565b606083015250608082013567ffffffffffffffff811115612a6457600080fd5b612a7084828501612952565b60808301525092915050565b600081359050612a8b816138d4565b92915050565b600060208284031215612aa357600080fd5b6000612ab1848285016128fe565b91505092915050565b600080600080600080600060e0888a031215612ad557600080fd5b600088013567ffffffffffffffff811115612aef57600080fd5b612afb8a828b01612913565b9750506020612b0c8a828b01612a7c565b9650506040612b1d8a828b01612a7c565b955050606088013567ffffffffffffffff811115612b3a57600080fd5b612b468a828b01612952565b945050608088013567ffffffffffffffff811115612b6357600080fd5b612b6f8a828b0161297c565b93505060a088013567ffffffffffffffff811115612b8c57600080fd5b612b988a828b01612952565b92505060c0612ba98a828b01612a7c565b91505092959891949750929550565b600060208284031215612bca57600080fd5b6000612bd884828501612a7c565b91505092915050565b60008060408385031215612bf457600080fd5b6000612c0285828601612a7c565b9250506020612c138582860161293d565b9150509250929050565b60008060408385031215612c3057600080fd5b6000612c3e85828601612a7c565b9250506020612c4f85828601612a7c565b9150509250929050565b600080600060608486031215612c6e57600080fd5b6000612c7c86828701612a7c565b9350506020612c8d86828701612a7c565b9250506040612c9e86828701612a7c565b9150509250925092565b6000612cb48383612f0d565b60208301905092915050565b612cc9816134e9565b82525050565b6000612cda8261337e565b612ce481856133a1565b9350612cef8361336e565b8060005b83811015612d20578151612d078882612ca8565b9750612d1283613394565b925050600181019050612cf3565b5085935050505092915050565b612d368161355e565b82525050565b612d4581613570565b82525050565b612d5481613582565b82525050565b6000612d6582613389565b612d6f81856133b2565b9350612d7f8185602086016135a3565b612d888161376d565b840191505092915050565b6000612d9e82613389565b612da881856133c3565b9350612db88185602086016135a3565b612dc18161376d565b840191505092915050565b6000612dd9601a836133c3565b9150612de48261377e565b602082019050919050565b6000612dfc6025836133c3565b9150612e07826137a7565b604082019050919050565b6000612e1f6012836133c3565b9150612e2a826137f6565b602082019050919050565b6000612e426012836133c3565b9150612e4d8261381f565b602082019050919050565b6000612e656013836133c3565b9150612e7082613848565b602082019050919050565b600060a0830160008301518482036000860152612e988282612d5a565b91505060208301518482036020860152612eb28282612d5a565b91505060408301518482036040860152612ecc8282612d5a565b91505060608301518482036060860152612ee68282612d5a565b91505060808301518482036080860152612f008282612d5a565b9150508091505092915050565b612f1681613554565b82525050565b612f2581613554565b82525050565b60006020820190508181036000830152612f458184612ccf565b905092915050565b60006020820190508181036000830152612f6681612dcc565b9050919050565b60006020820190508181036000830152612f8681612def565b9050919050565b60006020820190508181036000830152612fa681612e12565b9050919050565b60006020820190508181036000830152612fc681612e35565b9050919050565b60006020820190508181036000830152612fe681612e58565b9050919050565b60006020820190506130026000830184612f1c565b92915050565b600060a08201905061301d6000830188612f1c565b818103602083015261302f8187612d93565b905061303e6040830186612cc0565b81810360608301526130508185612d93565b905061305f6080830184612f1c565b9695505050505050565b60006101408201905061307f600083018d612f1c565b8181036020830152613091818c612d93565b905081810360408301526130a5818b612d93565b90506130b4606083018a612f1c565b81810360808301526130c68189612d93565b90506130d560a0830188612cc0565b6130e260c0830187612f1c565b6130ef60e0830186612d4b565b6130fd610100830185612d2d565b8181036101208301526131108184612e7b565b90509b9a5050505050505050505050565b600060e082019050613136600083018a612f1c565b81810360208301526131488189612d93565b9050818103604083015261315c8188612e7b565b905081810360608301526131708187612d93565b905061317f6080830186612f1c565b61318c60a0830185612f1c565b61319960c0830184612f1c565b98975050505050505050565b600060e0820190506131ba600083018a612f1c565b6131c76020830189612f1c565b6131d46040830188612f1c565b81810360608301526131e68187612d93565b90506131f56080830186612f1c565b61320260a0830185612d3c565b61320f60c0830184612f1c565b98975050505050505050565b600060a0820190506132306000830188612f1c565b61323d6020830187612f1c565b61324a6040830186612f1c565b6132576060830185612f1c565b6132646080830184612d3c565b9695505050505050565b600061010082019050613284600083018b612f1c565b613291602083018a612f1c565b61329e6040830189612f1c565b6132ab6060830188612f1c565b6132b86080830187612f1c565b6132c560a0830186612f1c565b6132d260c0830185612f1c565b6132df60e0830184612f1c565b9998505050505050505050565b60006132f6613307565b90506133028282613608565b919050565b6000604051905090565b600067ffffffffffffffff82111561332c5761332b61373e565b5b602082029050602081019050919050565b600067ffffffffffffffff8211156133585761335761373e565b5b6133618261376d565b9050602081019050919050565b6000819050602082019050919050565b600081519050919050565b600081519050919050565b6000602082019050919050565b600082825260208201905092915050565b600082825260208201905092915050565b600082825260208201905092915050565b60006133df82613554565b91506133ea83613554565b9250827fffffffffffffffffffffffffffffffffffffffffffffffffffffffffffffffff0382111561341f5761341e613682565b5b828201905092915050565b600061343582613554565b915061344083613554565b9250826134505761344f6136b1565b5b828204905092915050565b600061346682613554565b915061347183613554565b9250817fffffffffffffffffffffffffffffffffffffffffffffffffffffffffffffffff04831182151516156134aa576134a9613682565b5b828202905092915050565b60006134c082613554565b91506134cb83613554565b9250828210156134de576134dd613682565b5b828203905092915050565b60006134f482613534565b9050919050565b600081905061350982613871565b919050565b600081905061351c82613885565b919050565b600081905061352f82613899565b919050565b600073ffffffffffffffffffffffffffffffffffffffff82169050919050565b6000819050919050565b6000613569826134fb565b9050919050565b600061357b8261350e565b9050919050565b600061358d82613521565b9050919050565b82818337600083830152505050565b60005b838110156135c15780820151818401526020810190506135a6565b838111156135d0576000848401525b50505050565b600060028204905060018216806135ee57607f821691505b602082108114156136025761360161370f565b5b50919050565b6136118261376d565b810181811067ffffffffffffffff821117156136305761362f61373e565b5b80604052505050565b600061364482613554565b91507fffffffffffffffffffffffffffffffffffffffffffffffffffffffffffffffff82141561367757613676613682565b5b600182019050919050565b7f4e487b7100000000000000000000000000000000000000000000000000000000600052601160045260246000fd5b7f4e487b7100000000000000000000000000000000000000000000000000000000600052601260045260246000fd5b7f4e487b7100000000000000000000000000000000000000000000000000000000600052602160045260246000fd5b7f4e487b7100000000000000000000000000000000000000000000000000000000600052602260045260246000fd5b7f4e487b7100000000000000000000000000000000000000000000000000000000600052604160045260246000fd5b6000601f19601f8301169050919050565b7f41746c656173742037206d656d62657273207265717569726564000000000000600082015250565b7f5573657220697320616c7265616479206e6f7420612070617274206f6620746860008201527f6520534847000000000000000000000000000000000000000000000000000000602082015250565b7f5573657220616c72656164792061646465640000000000000000000000000000600082015250565b7f556e617070726f76656420726571756573740000000000000000000000000000600082015250565b7f556e617574686f72697a65642072657165737400000000000000000000000000600082015250565b60038110613882576138816136e0565b5b50565b60048110613896576138956136e0565b5b50565b600681106138aa576138a96136e0565b5b50565b6138b6816134e9565b81146138c157600080fd5b50565b600681106138d157600080fd5b50565b6138dd81613554565b81146138e857600080fd5b5056fea2646970667358221220a6f3bb58f1596ff6a16a3307d83f00956b1d200a50485ac0f4784efbddf6f72864736f6c63430008040033",
  "immutableReferences": {},
  "source": "// SPDX-License-Identifier: MIT\npragma solidity ^0.8.1;\n\nimport \"./structs.sol\";\nimport \"./helpers.sol\";\nimport \"./modifiers.sol\";\n\ncontract SHG is structs, helpers, modifiers {\n    function addSHG(\n        uint256[] memory members,\n        uint256 president,\n        uint256 treasurer,\n        string memory name,\n        Location memory location,\n        string memory dateOfFormation,\n        uint256 _baseIntrest\n    ) public {\n        require(members.length >= 7, \"Atleast 7 members required\");\n        uint256 id = ++numSHGs;\n        shgs[id] = SHG(\n            id,\n            members,\n            name,\n            location,\n            dateOfFormation,\n            0,\n            0,\n            new uint256[](0),\n            new uint256[](0),\n            _baseIntrest\n        );\n        for (uint256 i = 0; i < members.length; i++) {\n            users[members[i]].userType = UserType.MEMBER;\n            if (members[i] == president)\n                users[members[i]].userType = UserType.PRESIDENT;\n            if (members[i] == treasurer)\n                users[members[i]].userType = UserType.TREASURER;\n        }\n\n        for (uint256 i = 0; i < members.length; i++) {\n            addressToSHGid[users[members[i]].walletAddress] = numSHGs;\n        }\n    }\n\n    function addSHGMember(uint256 userid, uint256 shg) public {\n        require(users[userid].shgid == shg, \"User already added\");\n        users[userid].shgid = shg;\n        users[userid].userType = UserType.MEMBER;\n        shgs[shg].users.push(userid);\n    }\n\n    function removeSHGMember(uint256 userid, uint256 shgid) public {\n        SHG storage shg = shgs[shgid];\n        require(\n            check(shg.users, shgid),\n            \"User is already not a part of the SHG\"\n        );\n\n        uint256 index = getIndex(shg.users, userid);\n        uint256[] memory newusers = deleteIndex(shg.users, index);\n        shg.users = newusers;\n    }\n\n    function updateMemberRole(uint256 id, UserType updatedType) public {\n        // TODO: add requires\n        users[id].userType = updatedType;\n    }\n\n    function sendGrant(uint256 _requestid) public {\n        require(\n            users[addressToUser[msg.sender]].userType == UserType.TREASURER,\n            \"Unauthorized reqest\"\n        );\n        require(\n            userRequests[_requestid].status == RequestStatus.APPROVED,\n            \"Unapproved request\"\n        );\n        UserRequest storage request = userRequests[_requestid];\n\n        request.status = RequestStatus.COMPLETED;\n\n        Loan memory newLoan = Loan({\n            loanId: ++numLoans,\n            lenderId: request.SHGId,\n            amount: request.amount,\n            lendeeId: request.userId,\n            intrest: shgs[request.SHGId].baseIntrest,\n            loanTime: request.loanTime,\n            date: block.timestamp,\n            lastEMI: 0\n        });\n\n        loans[numLoans] = newLoan;\n        shgs[request.SHGId].loansGiven.push(numLoans);\n        users[request.userId].loansTaken.push(numLoans);\n\n        require(shgs[request.SHGId].currentBalance >= request.amount);\n        payable(users[request.userId].walletAddress).transfer(request.amount);\n        shgs[request.SHGId].currentBalance -= request.amount;\n    }\n\n    function checkApproval(uint256 _requestid) internal view returns (bool) {\n        uint256[] storage approvals = userRequests[_requestid].approvals;\n\n        for (uint256 i = 0; i < approvals.length; i++) {\n            if (approvals[i] == addressToUser[msg.sender]) {\n                return false;\n            }\n        }\n\n        return true;\n    }\n\n    function approveRequest(uint256 _requestid, uint256 _shgid)\n        public\n        onlySHG(_shgid)\n    {\n        UserRequest storage request = userRequests[_requestid];\n        require(request.SHGId == _shgid);\n\n        require(checkApproval(_requestid));\n        request.approvals.push(addressToUser[msg.sender]);\n\n        if (request.approvals.length > shgs[_shgid].users.length / 2) {\n            request.status = RequestStatus.APPROVED;\n        }\n    }\n\n    function sendRequestToBank(\n        uint256 _shgid,\n        uint256 _amount,\n        uint256 _loanTime\n    ) public onlySHG(_shgid) {\n        require(users[addressToUser[msg.sender]].shgid == _shgid);\n        uint256 reqid = numSHGRequests++;\n        shgRequests[reqid] = SHGRequest(\n            reqid,\n            _shgid,\n            _amount,\n            _loanTime,\n            RequestStatus.IN_PROCESS\n        );\n        shgs[_shgid].loansTaken.push(reqid);\n    }\n\n    function shgPayEMI(\n        uint256 _shgid,\n        uint256 _loanid,\n        uint256 _amount\n    ) public onlySHG(_shgid) {\n        uint256 amount = getSHGEMI(_shgid, _loanid);\n        require(amount == _amount);\n        Loan storage loan = loans[_loanid];\n        payable(address(this)).transfer(_amount);\n        shgs[loan.lendeeId].currentBalance += _amount;\n        loan.lastEMI = block.timestamp;\n    }\n\n    // fetch functions\n    function getSHGEMI(uint256 _shgid, uint256 _loanid)\n        public\n        onlySHG(_shgid)\n        returns (uint256)\n    {\n        Loan storage loan = loans[_loanid];\n        uint256 months = ((block.timestamp - loan.lastEMI) / 24) * 60 * 60 * 30;\n\n        require(months > 0);\n        uint256 P = loan.amount;\n        uint256 r = loan.intrest;\n        uint256 t = loan.loanTime;\n        uint256 emi = (P * (1 + ((r / 100) * 12))) ^ ((12 * t) - P);\n\n        loan.amount = loan.amount - emi;\n        return emi;\n    }\n\n    function getSHGMembers(uint256 shgid)\n        public\n        view\n        returns (uint256[] memory)\n    {\n        return shgs[shgid].users;\n    }\n}\n",
  "sourcePath": "/home/sdas/code/yogdaan-contracts/contracts/lib/SHG.sol",
  "compiler": {
    "name": "solc",
    "version": "0.8.4+commit.c7e474f2.Emscripten.clang"
  },
  "schemaVersion": "3.4.9",
  "updatedAt": "2022-08-25T04:36:56.125Z",
  "devdoc": {
    "kind": "dev",
    "methods": {},
    "version": 1
  },
  "userdoc": {
    "kind": "user",
    "methods": {},
    "version": 1
  }
}