{
  "contractName": "SHG",
  "abi": [
    {
      "inputs": [
        {
          "internalType": "address",
          "name": "",
          "type": "address"
        }
      ],
      "name": "addressToBankid",
      "outputs": [
        {
          "internalType": "uint256",
          "name": "",
          "type": "uint256"
        }
      ],
      "stateMutability": "view",
      "type": "function"
    },
    {
      "inputs": [
        {
          "internalType": "address",
          "name": "",
          "type": "address"
        }
      ],
      "name": "addressToSHGid",
      "outputs": [
        {
          "internalType": "uint256",
          "name": "",
          "type": "uint256"
        }
      ],
      "stateMutability": "view",
      "type": "function"
    },
    {
      "inputs": [
        {
          "internalType": "address",
          "name": "",
          "type": "address"
        }
      ],
      "name": "addressToUser",
      "outputs": [
        {
          "internalType": "uint256",
          "name": "",
          "type": "uint256"
        }
      ],
      "stateMutability": "view",
      "type": "function"
    },
    {
      "inputs": [
        {
          "internalType": "uint256",
          "name": "",
          "type": "uint256"
        }
      ],
      "name": "banks",
      "outputs": [
        {
          "internalType": "uint256",
          "name": "id",
          "type": "uint256"
        },
        {
          "internalType": "string",
          "name": "name",
          "type": "string"
        },
        {
          "internalType": "address",
          "name": "walletAddress",
          "type": "address"
        },
        {
          "internalType": "string",
          "name": "code",
          "type": "string"
        },
        {
          "internalType": "uint256",
          "name": "intrestRate",
          "type": "uint256"
        }
      ],
      "stateMutability": "view",
      "type": "function"
    },
    {
      "inputs": [
        {
          "internalType": "string",
          "name": "",
          "type": "string"
        },
        {
          "internalType": "uint256",
          "name": "",
          "type": "uint256"
        }
      ],
      "name": "districtToSHGs",
      "outputs": [
        {
          "internalType": "uint256",
          "name": "",
          "type": "uint256"
        }
      ],
      "stateMutability": "view",
      "type": "function"
    },
    {
      "inputs": [
        {
          "internalType": "uint256",
          "name": "",
          "type": "uint256"
        }
      ],
      "name": "loans",
      "outputs": [
        {
          "internalType": "uint256",
          "name": "loanId",
          "type": "uint256"
        },
        {
          "internalType": "uint256",
          "name": "lenderId",
          "type": "uint256"
        },
        {
          "internalType": "uint256",
          "name": "amount",
          "type": "uint256"
        },
        {
          "internalType": "uint256",
          "name": "lendeeId",
          "type": "uint256"
        },
        {
          "internalType": "uint256",
          "name": "intrest",
          "type": "uint256"
        },
        {
          "internalType": "uint256",
          "name": "loanTime",
          "type": "uint256"
        },
        {
          "internalType": "uint256",
          "name": "date",
          "type": "uint256"
        },
        {
          "internalType": "uint256",
          "name": "lastEMI",
          "type": "uint256"
        }
      ],
      "stateMutability": "view",
      "type": "function"
    },
    {
      "inputs": [
        {
          "internalType": "uint256",
          "name": "",
          "type": "uint256"
        }
      ],
      "name": "shgRequests",
      "outputs": [
        {
          "internalType": "uint256",
          "name": "requestid",
          "type": "uint256"
        },
        {
          "internalType": "uint256",
          "name": "shgid",
          "type": "uint256"
        },
        {
          "internalType": "uint256",
          "name": "amount",
          "type": "uint256"
        },
        {
          "internalType": "uint256",
          "name": "loanTime",
          "type": "uint256"
        },
        {
          "internalType": "enum structs.RequestStatus",
          "name": "status",
          "type": "uint8"
        }
      ],
      "stateMutability": "view",
      "type": "function"
    },
    {
      "inputs": [
        {
          "internalType": "uint256",
          "name": "",
          "type": "uint256"
        },
        {
          "internalType": "uint256",
          "name": "",
          "type": "uint256"
        }
      ],
      "name": "shgToRequests",
      "outputs": [
        {
          "internalType": "uint256",
          "name": "",
          "type": "uint256"
        }
      ],
      "stateMutability": "view",
      "type": "function"
    },
    {
      "inputs": [
        {
          "internalType": "uint256",
          "name": "",
          "type": "uint256"
        }
      ],
      "name": "shgs",
      "outputs": [
        {
          "internalType": "uint256",
          "name": "id",
          "type": "uint256"
        },
        {
          "internalType": "string",
          "name": "name",
          "type": "string"
        },
        {
          "components": [
            {
              "internalType": "string",
              "name": "state",
              "type": "string"
            },
            {
              "internalType": "string",
              "name": "district",
              "type": "string"
            },
            {
              "internalType": "string",
              "name": "blockName",
              "type": "string"
            },
            {
              "internalType": "string",
              "name": "panchyatName",
              "type": "string"
            },
            {
              "internalType": "string",
              "name": "villageName",
              "type": "string"
            }
          ],
          "internalType": "struct structs.Location",
          "name": "location",
          "type": "tuple"
        },
        {
          "internalType": "string",
          "name": "dateOfFormation",
          "type": "string"
        },
        {
          "internalType": "uint256",
          "name": "currentBalance",
          "type": "uint256"
        },
        {
          "internalType": "uint256",
          "name": "owedBalance",
          "type": "uint256"
        },
        {
          "internalType": "uint256",
          "name": "baseIntrest",
          "type": "uint256"
        }
      ],
      "stateMutability": "view",
      "type": "function"
    },
    {
      "inputs": [
        {
          "internalType": "uint256",
          "name": "",
          "type": "uint256"
        }
      ],
      "name": "userRequests",
      "outputs": [
        {
          "internalType": "uint256",
          "name": "requestId",
          "type": "uint256"
        },
        {
          "internalType": "uint256",
          "name": "userId",
          "type": "uint256"
        },
        {
          "internalType": "uint256",
          "name": "amount",
          "type": "uint256"
        },
        {
          "internalType": "string",
          "name": "description",
          "type": "string"
        },
        {
          "internalType": "uint256",
          "name": "SHGId",
          "type": "uint256"
        },
        {
          "internalType": "enum structs.RequestStatus",
          "name": "status",
          "type": "uint8"
        },
        {
          "internalType": "uint256",
          "name": "loanTime",
          "type": "uint256"
        }
      ],
      "stateMutability": "view",
      "type": "function"
    },
    {
      "inputs": [
        {
          "internalType": "uint256",
          "name": "",
          "type": "uint256"
        },
        {
          "internalType": "uint256",
          "name": "",
          "type": "uint256"
        }
      ],
      "name": "userToRequests",
      "outputs": [
        {
          "internalType": "uint256",
          "name": "",
          "type": "uint256"
        }
      ],
      "stateMutability": "view",
      "type": "function"
    },
    {
      "inputs": [
        {
          "internalType": "uint256",
          "name": "",
          "type": "uint256"
        }
      ],
      "name": "users",
      "outputs": [
        {
          "internalType": "uint256",
          "name": "id",
          "type": "uint256"
        },
        {
          "internalType": "string",
          "name": "name",
          "type": "string"
        },
        {
          "internalType": "string",
          "name": "aadhar",
          "type": "string"
        },
        {
          "internalType": "uint256",
          "name": "mobno",
          "type": "uint256"
        },
        {
          "internalType": "string",
          "name": "fatherName",
          "type": "string"
        },
        {
          "internalType": "address",
          "name": "walletAddress",
          "type": "address"
        },
        {
          "internalType": "uint256",
          "name": "shgid",
          "type": "uint256"
        },
        {
          "internalType": "enum structs.UserType",
          "name": "userType",
          "type": "uint8"
        },
        {
          "internalType": "enum structs.Gender",
          "name": "gender",
          "type": "uint8"
        },
        {
          "components": [
            {
              "internalType": "string",
              "name": "state",
              "type": "string"
            },
            {
              "internalType": "string",
              "name": "district",
              "type": "string"
            },
            {
              "internalType": "string",
              "name": "blockName",
              "type": "string"
            },
            {
              "internalType": "string",
              "name": "panchyatName",
              "type": "string"
            },
            {
              "internalType": "string",
              "name": "villageName",
              "type": "string"
            }
          ],
          "internalType": "struct structs.Location",
          "name": "location",
          "type": "tuple"
        }
      ],
      "stateMutability": "view",
      "type": "function"
    },
    {
      "inputs": [
        {
          "internalType": "uint256[]",
          "name": "members",
          "type": "uint256[]"
        },
        {
          "internalType": "uint256",
          "name": "president",
          "type": "uint256"
        },
        {
          "internalType": "uint256",
          "name": "treasurer",
          "type": "uint256"
        },
        {
          "internalType": "string",
          "name": "name",
          "type": "string"
        },
        {
          "internalType": "string",
          "name": "_state",
          "type": "string"
        },
        {
          "internalType": "string",
          "name": "_district",
          "type": "string"
        },
        {
          "internalType": "string",
          "name": "_blockName",
          "type": "string"
        },
        {
          "internalType": "string",
          "name": "_panchyatName",
          "type": "string"
        },
        {
          "internalType": "string",
          "name": "_villageName",
          "type": "string"
        },
        {
          "internalType": "string",
          "name": "dateOfFormation",
          "type": "string"
        },
        {
          "internalType": "uint256",
          "name": "_baseIntrest",
          "type": "uint256"
        }
      ],
      "name": "addSHG",
      "outputs": [],
      "stateMutability": "nonpayable",
      "type": "function"
    },
    {
      "inputs": [
        {
          "internalType": "uint256",
          "name": "userid",
          "type": "uint256"
        },
        {
          "internalType": "uint256",
          "name": "shg",
          "type": "uint256"
        }
      ],
      "name": "addSHGMember",
      "outputs": [],
      "stateMutability": "nonpayable",
      "type": "function"
    },
    {
      "inputs": [
        {
          "internalType": "uint256",
          "name": "userid",
          "type": "uint256"
        },
        {
          "internalType": "uint256",
          "name": "shgid",
          "type": "uint256"
        }
      ],
      "name": "removeSHGMember",
      "outputs": [],
      "stateMutability": "nonpayable",
      "type": "function"
    },
    {
      "inputs": [
        {
          "internalType": "uint256",
          "name": "id",
          "type": "uint256"
        },
        {
          "internalType": "enum structs.UserType",
          "name": "updatedType",
          "type": "uint8"
        }
      ],
      "name": "updateMemberRole",
      "outputs": [],
      "stateMutability": "nonpayable",
      "type": "function"
    },
    {
      "inputs": [
        {
          "internalType": "uint256",
          "name": "_requestid",
          "type": "uint256"
        }
      ],
      "name": "sendGrant",
      "outputs": [],
      "stateMutability": "nonpayable",
      "type": "function"
    },
    {
      "inputs": [
        {
          "internalType": "uint256",
          "name": "_requestid",
          "type": "uint256"
        },
        {
          "internalType": "uint256",
          "name": "_shgid",
          "type": "uint256"
        }
      ],
      "name": "approveRequest",
      "outputs": [],
      "stateMutability": "nonpayable",
      "type": "function"
    },
    {
      "inputs": [
        {
          "internalType": "uint256",
          "name": "_shgid",
          "type": "uint256"
        },
        {
          "internalType": "uint256",
          "name": "_amount",
          "type": "uint256"
        },
        {
          "internalType": "uint256",
          "name": "_loanTime",
          "type": "uint256"
        }
      ],
      "name": "sendRequestToBank",
      "outputs": [],
      "stateMutability": "nonpayable",
      "type": "function"
    },
    {
      "inputs": [
        {
          "internalType": "uint256",
          "name": "_shgid",
          "type": "uint256"
        },
        {
          "internalType": "uint256",
          "name": "_loanid",
          "type": "uint256"
        },
        {
          "internalType": "uint256",
          "name": "_amount",
          "type": "uint256"
        }
      ],
      "name": "shgPayEMI",
      "outputs": [],
      "stateMutability": "nonpayable",
      "type": "function"
    },
    {
      "inputs": [],
      "name": "totalNumSHGs",
      "outputs": [
        {
          "internalType": "uint256",
          "name": "",
          "type": "uint256"
        }
      ],
      "stateMutability": "view",
      "type": "function"
    },
    {
      "inputs": [
        {
          "internalType": "uint256",
          "name": "_shgid",
          "type": "uint256"
        }
      ],
      "name": "getSHGRequests",
      "outputs": [
        {
          "internalType": "uint256[]",
          "name": "",
          "type": "uint256[]"
        }
      ],
      "stateMutability": "nonpayable",
      "type": "function"
    },
    {
      "inputs": [
        {
          "internalType": "uint256",
          "name": "_shgid",
          "type": "uint256"
        },
        {
          "internalType": "uint256",
          "name": "_loanid",
          "type": "uint256"
        }
      ],
      "name": "getSHGEMI",
      "outputs": [
        {
          "internalType": "uint256",
          "name": "",
          "type": "uint256"
        }
      ],
      "stateMutability": "nonpayable",
      "type": "function"
    },
    {
      "inputs": [
        {
          "internalType": "uint256",
          "name": "shgid",
          "type": "uint256"
        }
      ],
      "name": "getSHGMembers",
      "outputs": [
        {
          "internalType": "uint256[]",
          "name": "",
          "type": "uint256[]"
        }
      ],
      "stateMutability": "view",
      "type": "function"
    },
    {
      "inputs": [
        {
          "internalType": "string",
          "name": "district",
          "type": "string"
        }
      ],
      "name": "shgsOfDistrict",
      "outputs": [
        {
          "internalType": "uint256[]",
          "name": "",
          "type": "uint256[]"
        }
      ],
      "stateMutability": "view",
      "type": "function"
    }
  ],
  "bytecode": "0x608060405234801561001057600080fd5b50613ccc806100206000396000f3fe608060405234801561001057600080fd5b50600436106101725760003560e01c806361c91b70116100de578063a6e90a5811610097578063d3f86fb811610071578063d3f86fb8146104d2578063e1ec3c6814610502578063edf5388614610539578063f61074ff1461056957610172565b8063a6e90a581461046a578063af08a94f14610486578063bc1e72ad146104b657610172565b806361c91b701461036c578063769d0e161461039c5780637d550bb3146103cc57806394169656146103e857806397e492dd1461041e5780639bbc9ab11461044e57610172565b8063365b98b211610130578063365b98b21461027d57806339d8bed1146102b65780633ae0058f146102d25780633cec4272146103025780634f269c92146103325780635df3fc811461034e57610172565b806285ae2b14610177578063021af397146101ab5780630c1c7883146101c7578063257a170b146101f757806326271cf21461022b5780632c0a90a914610261575b600080fd5b610191600480360381019061018c9190612f10565b610599565b6040516101a29594939291906133a8565b60405180910390f35b6101c560048036038101906101c09190612fb1565b6106ff565b005b6101e160048036038101906101dc9190612f75565b6108d6565b6040516101ee919061338d565b60405180910390f35b610211600480360381019061020c9190612f10565b610907565b6040516102229594939291906135bb565b60405180910390f35b61024560048036038101906102409190612f10565b61094a565b60405161025897969594939291906134c1565b60405180910390f35b61027b60048036038101906102769190612f75565b610d80565b005b61029760048036038101906102929190612f10565b610ed6565b6040516102ad9a99989796959493929190613409565b60405180910390f35b6102d060048036038101906102cb9190612f75565b6113e0565b005b6102ec60048036038101906102e79190612ca2565b6114f6565b6040516102f9919061338d565b60405180910390f35b61031c60048036038101906103179190612ebc565b61150e565b604051610329919061338d565b60405180910390f35b61034c60048036038101906103479190612f39565b611555565b005b6103566115bc565b604051610363919061338d565b60405180910390f35b61038660048036038101906103819190612ca2565b6115c6565b604051610393919061338d565b60405180910390f35b6103b660048036038101906103b19190612f75565b6115de565b6040516103c3919061338d565b60405180910390f35b6103e660048036038101906103e19190612fb1565b6116f1565b005b61040260048036038101906103fd9190612f10565b6117d0565b6040516104159796959493929190613545565b60405180910390f35b61043860048036038101906104339190612e7b565b6118a7565b60405161044591906132cb565b60405180910390f35b61046860048036038101906104639190612f10565b61191d565b005b610484600480360381019061047f9190612f75565b611dc5565b005b6104a0600480360381019061049b9190612f10565b611f57565b6040516104ad91906132cb565b60405180910390f35b6104d060048036038101906104cb9190612ccb565b611fc5565b005b6104ec60048036038101906104e79190612f10565b6125e7565b6040516104f991906132cb565b60405180910390f35b61051c60048036038101906105179190612f10565b6126cc565b60405161053098979695949392919061360e565b60405180910390f35b610553600480360381019061054e9190612ca2565b612714565b604051610560919061338d565b60405180910390f35b610583600480360381019061057e9190612f75565b61272c565b604051610590919061338d565b60405180910390f35b60036020528060005260406000206000915090508060000154908060010180546105c290613981565b80601f01602080910402602001604051908101604052809291908181526020018280546105ee90613981565b801561063b5780601f106106105761010080835404028352916020019161063b565b820191906000526020600020905b81548152906001019060200180831161061e57829003601f168201915b5050505050908060020160009054906101000a900473ffffffffffffffffffffffffffffffffffffffff169080600301805461067690613981565b80601f01602080910402602001604051908101604052809291908181526020018280546106a290613981565b80156106ef5780601f106106c4576101008083540402835291602001916106ef565b820191906000526020600020905b8154815290600101906020018083116106d257829003601f168201915b5050505050908060040154905085565b8260006001600083815260200190815260200160002060000154141561072457600080fd5b83600080600460003373ffffffffffffffffffffffffffffffffffffffff1673ffffffffffffffffffffffffffffffffffffffff168152602001908152602001600020548152602001908152602001600020600801541461078457600080fd5b6000600f6000815480929190610799906139e4565b9190505590506040518060a001604052808281526020018681526020018581526020018481526020016003808111156107fb577f4e487b7100000000000000000000000000000000000000000000000000000000600052602160045260246000fd5b815250600760008381526020019081526020016000206000820151816000015560208201518160010155604082015181600201556060820151816003015560808201518160040160006101000a81548160ff0219169083600381111561088a577f4e487b7100000000000000000000000000000000000000000000000000000000600052602160045260246000fd5b021790555090505060016000868152602001908152602001600020600c018190806001815401808255809150506001900390600052602060002001600090919091909150555050505050565b600a60205281600052604060002081815481106108f257600080fd5b90600052602060002001600091509150505481565b60076020528060005260406000206000915090508060000154908060010154908060020154908060030154908060040160009054906101000a900460ff16905085565b600160205280600052604060002060009150905080600001549080600201805461097390613981565b80601f016020809104026020016040519081016040528092919081815260200182805461099f90613981565b80156109ec5780601f106109c1576101008083540402835291602001916109ec565b820191906000526020600020905b8154815290600101906020018083116109cf57829003601f168201915b505050505090806003016040518060a0016040529081600082018054610a1190613981565b80601f0160208091040260200160405190810160405280929190818152602001828054610a3d90613981565b8015610a8a5780601f10610a5f57610100808354040283529160200191610a8a565b820191906000526020600020905b815481529060010190602001808311610a6d57829003601f168201915b50505050508152602001600182018054610aa390613981565b80601f0160208091040260200160405190810160405280929190818152602001828054610acf90613981565b8015610b1c5780601f10610af157610100808354040283529160200191610b1c565b820191906000526020600020905b815481529060010190602001808311610aff57829003601f168201915b50505050508152602001600282018054610b3590613981565b80601f0160208091040260200160405190810160405280929190818152602001828054610b6190613981565b8015610bae5780601f10610b8357610100808354040283529160200191610bae565b820191906000526020600020905b815481529060010190602001808311610b9157829003601f168201915b50505050508152602001600382018054610bc790613981565b80601f0160208091040260200160405190810160405280929190818152602001828054610bf390613981565b8015610c405780601f10610c1557610100808354040283529160200191610c40565b820191906000526020600020905b815481529060010190602001808311610c2357829003601f168201915b50505050508152602001600482018054610c5990613981565b80601f0160208091040260200160405190810160405280929190818152602001828054610c8590613981565b8015610cd25780601f10610ca757610100808354040283529160200191610cd2565b820191906000526020600020905b815481529060010190602001808311610cb557829003601f168201915b50505050508152505090806008018054610ceb90613981565b80601f0160208091040260200160405190810160405280929190818152602001828054610d1790613981565b8015610d645780601f10610d3957610100808354040283529160200191610d64565b820191906000526020600020905b815481529060010190602001808311610d4757829003601f168201915b50505050509080600901549080600a01549080600e0154905087565b80600060016000838152602001908152602001600020600001541415610da557600080fd5b600060066000858152602001908152602001600020905082816004015414610dcc57600080fd5b610dd58461275d565b610dde57600080fd5b80600701600460003373ffffffffffffffffffffffffffffffffffffffff1673ffffffffffffffffffffffffffffffffffffffff16815260200190815260200160002054908060018154018082558091505060019003906000526020600020016000909190919091505560026001600085815260200190815260200160002060010180549050610e6e91906137d5565b81600701805490501115610ed05760008160050160006101000a81548160ff02191690836003811115610eca577f4e487b7100000000000000000000000000000000000000000000000000000000600052602160045260246000fd5b02179055505b50505050565b6000602052806000526040600020600091509050806000015490806001018054610eff90613981565b80601f0160208091040260200160405190810160405280929190818152602001828054610f2b90613981565b8015610f785780601f10610f4d57610100808354040283529160200191610f78565b820191906000526020600020905b815481529060010190602001808311610f5b57829003601f168201915b505050505090806002018054610f8d90613981565b80601f0160208091040260200160405190810160405280929190818152602001828054610fb990613981565b80156110065780601f10610fdb57610100808354040283529160200191611006565b820191906000526020600020905b815481529060010190602001808311610fe957829003601f168201915b50505050509080600301549080600401805461102190613981565b80601f016020809104026020016040519081016040528092919081815260200182805461104d90613981565b801561109a5780601f1061106f5761010080835404028352916020019161109a565b820191906000526020600020905b81548152906001019060200180831161107d57829003601f168201915b5050505050908060050160009054906101000a900473ffffffffffffffffffffffffffffffffffffffff16908060080154908060090160009054906101000a900460ff16908060090160019054906101000a900460ff169080600a016040518060a001604052908160008201805461111190613981565b80601f016020809104026020016040519081016040528092919081815260200182805461113d90613981565b801561118a5780601f1061115f5761010080835404028352916020019161118a565b820191906000526020600020905b81548152906001019060200180831161116d57829003601f168201915b505050505081526020016001820180546111a390613981565b80601f01602080910402602001604051908101604052809291908181526020018280546111cf90613981565b801561121c5780601f106111f15761010080835404028352916020019161121c565b820191906000526020600020905b8154815290600101906020018083116111ff57829003601f168201915b5050505050815260200160028201805461123590613981565b80601f016020809104026020016040519081016040528092919081815260200182805461126190613981565b80156112ae5780601f10611283576101008083540402835291602001916112ae565b820191906000526020600020905b81548152906001019060200180831161129157829003601f168201915b505050505081526020016003820180546112c790613981565b80601f01602080910402602001604051908101604052809291908181526020018280546112f390613981565b80156113405780601f1061131557610100808354040283529160200191611340565b820191906000526020600020905b81548152906001019060200180831161132357829003601f168201915b5050505050815260200160048201805461135990613981565b80601f016020809104026020016040519081016040528092919081815260200182805461138590613981565b80156113d25780601f106113a7576101008083540402835291602001916113d2565b820191906000526020600020905b8154815290600101906020018083116113b557829003601f168201915b50505050508152505090508a565b806000808481526020019081526020016000206008015414611437576040517f08c379a000000000000000000000000000000000000000000000000000000000815260040161142e9061332d565b60405180910390fd5b8060008084815260200190815260200160002060080181905550600360008084815260200190815260200160002060090160006101000a81548160ff021916908360058111156114b0577f4e487b7100000000000000000000000000000000000000000000000000000000600052602160045260246000fd5b0217905550600160008281526020019081526020016000206001018290806001815401808255809150506001900390600052602060002001600090919091909150555050565b60086020528060005260406000206000915090505481565b600282805160208101820180518482526020830160208501208183528095505050505050818154811061154057600080fd5b90600052602060002001600091509150505481565b8060008084815260200190815260200160002060090160006101000a81548160ff021916908360058111156115b3577f4e487b7100000000000000000000000000000000000000000000000000000000600052602160045260246000fd5b02179055505050565b6000600d54905090565b60096020528060005260406000206000915090505481565b60008260006001600083815260200190815260200160002060000154141561160557600080fd5b60006005600085815260200190815260200160002090506000601e603c8060188560070154426116359190613860565b61163f91906137d5565b6116499190613806565b6116539190613806565b61165d9190613806565b90506000811161166c57600080fd5b600082600201549050600083600401549050600084600501549050600081600c6116969190613806565b600c6064856116a591906137d5565b6116af9190613806565b60016116bb919061377f565b856116c69190613806565b1890508086600201546116d99190613860565b86600201819055508097505050505050505092915050565b8260006001600083815260200190815260200160002060000154141561171657600080fd5b600061172285856115de565b905082811461173057600080fd5b60006005600086815260200190815260200160002090503073ffffffffffffffffffffffffffffffffffffffff166108fc859081150290604051600060405180830381858888f1935050505015801561178d573d6000803e3d6000fd5b5083600160008360030154815260200190815260200160002060090160008282546117b8919061377f565b92505081905550428160070181905550505050505050565b600660205280600052604060002060009150905080600001549080600101549080600201549080600301805461180590613981565b80601f016020809104026020016040519081016040528092919081815260200182805461183190613981565b801561187e5780601f106118535761010080835404028352916020019161187e565b820191906000526020600020905b81548152906001019060200180831161186157829003601f168201915b5050505050908060040154908060050160009054906101000a900460ff16908060060154905087565b60606002826040516118b991906132b4565b908152602001604051809103902080548060200260200160405190810160405280929190818152602001828054801561191157602002820191906000526020600020905b8154815260200190600101908083116118fd575b50505050509050919050565b60026005811115611957577f4e487b7100000000000000000000000000000000000000000000000000000000600052602160045260246000fd5b600080600460003373ffffffffffffffffffffffffffffffffffffffff1673ffffffffffffffffffffffffffffffffffffffff16815260200190815260200160002054815260200190815260200160002060090160009054906101000a900460ff1660058111156119f1577f4e487b7100000000000000000000000000000000000000000000000000000000600052602160045260246000fd5b14611a31576040517f08c379a0000000000000000000000000000000000000000000000000000000008152600401611a289061336d565b60405180910390fd5b60006003811115611a6b577f4e487b7100000000000000000000000000000000000000000000000000000000600052602160045260246000fd5b6006600083815260200190815260200160002060050160009054906101000a900460ff166003811115611ac7577f4e487b7100000000000000000000000000000000000000000000000000000000600052602160045260246000fd5b14611b07576040517f08c379a0000000000000000000000000000000000000000000000000000000008152600401611afe9061334d565b60405180910390fd5b600060066000838152602001908152602001600020905060018160050160006101000a81548160ff02191690836003811115611b6c577f4e487b7100000000000000000000000000000000000000000000000000000000600052602160045260246000fd5b02179055506000604051806101000160405280601160008154611b8e906139e4565b91905081905581526020018360040154815260200183600201548152602001836001015481526020016001600085600401548152602001908152602001600020600e01548152602001836006015481526020014281526020016000815250905080600560006011548152602001908152602001600020600082015181600001556020820151816001015560408201518160020155606082015181600301556080820151816004015560a0820151816005015560c0820151816006015560e082015181600701559050506001600083600401548152602001908152602001600020600b01601154908060018154018082558091505060019003906000526020600020016000909190919091505560008083600101548152602001908152602001600020600601601154908060018154018082558091505060019003906000526020600020016000909190919091505581600201546001600084600401548152602001908152602001600020600901541015611d0757600080fd5b6000808360010154815260200190815260200160002060050160009054906101000a900473ffffffffffffffffffffffffffffffffffffffff1673ffffffffffffffffffffffffffffffffffffffff166108fc83600201549081150290604051600060405180830381858888f19350505050158015611d8a573d6000803e3d6000fd5b50816002015460016000846004015481526020019081526020016000206009016000828254611db99190613860565b92505081905550505050565b6000600160008381526020019081526020016000209050611e3881600101805480602002602001604051908101604052809291908181526020018280548015611e2d57602002820191906000526020600020905b815481526020019060010190808311611e19575b50505050508361283b565b611e77576040517f08c379a0000000000000000000000000000000000000000000000000000000008152600401611e6e9061330d565b60405180910390fd5b6000611ed582600101805480602002602001604051908101604052809291908181526020018280548015611eca57602002820191906000526020600020905b815481526020019060010190808311611eb6575b5050505050856128c9565b90506000611f3583600101805480602002602001604051908101604052809291908181526020018280548015611f2a57602002820191906000526020600020905b815481526020019060010190808311611f16575b50505050508361294a565b905080836001019080519060200190611f4f929190612a75565b505050505050565b606060016000838152602001908152602001600020600101805480602002602001604051908101604052809291908181526020018280548015611fb957602002820191906000526020600020905b815481526020019060010190808311611fa5575b50505050509050919050565b60078b51101561200a576040517f08c379a0000000000000000000000000000000000000000000000000000000008152600401612001906132ed565b60405180910390fd5b6000600d6000815461201b906139e4565b919050819055905060006040518060a001604052808a81526020018981526020018881526020018781526020018681525090506040518061016001604052808381526020018e81526020018b81526020018281526020018581526020016000815260200160008152602001600067ffffffffffffffff8111156120c7577f4e487b7100000000000000000000000000000000000000000000000000000000600052604160045260246000fd5b6040519080825280602002602001820160405280156120f55781602001602082028036833780820191505090505b508152602001600067ffffffffffffffff81111561213c577f4e487b7100000000000000000000000000000000000000000000000000000000600052604160045260246000fd5b60405190808252806020026020018201604052801561216a5781602001602082028036833780820191505090505b508152602001600067ffffffffffffffff8111156121b1577f4e487b7100000000000000000000000000000000000000000000000000000000600052604160045260246000fd5b6040519080825280602002602001820160405280156121df5781602001602082028036833780820191505090505b5081526020018481525060016000848152602001908152602001600020600082015181600001556020820151816001019080519060200190612222929190612a75565b50604082015181600201908051906020019061223f929190612ac2565b506060820151816003016000820151816000019080519060200190612265929190612ac2565b506020820151816001019080519060200190612282929190612ac2565b50604082015181600201908051906020019061229f929190612ac2565b5060608201518160030190805190602001906122bc929190612ac2565b5060808201518160040190805190602001906122d9929190612ac2565b50505060808201518160080190805190602001906122f8929190612ac2565b5060a0820151816009015560c082015181600a015560e082015181600b019080519060200190612329929190612a75565b5061010082015181600c019080519060200190612347929190612a75565b5061012082015181600d019080519060200190612365929190612a75565b5061014082015181600e015590505060005b8d518110156125925760008e82815181106123bb577f4e487b7100000000000000000000000000000000000000000000000000000000600052603260045260246000fd5b60200260200101519050600360008083815260200190815260200160002060090160006101000a81548160ff02191690836005811115612424577f4e487b7100000000000000000000000000000000000000000000000000000000600052602160045260246000fd5b02179055508d81141561249657600080600083815260200190815260200160002060090160006101000a81548160ff02191690836005811115612490577f4e487b7100000000000000000000000000000000000000000000000000000000600052602160045260246000fd5b02179055505b8c81141561250357600260008083815260200190815260200160002060090160006101000a81548160ff021916908360058111156124fd577f4e487b7100000000000000000000000000000000000000000000000000000000600052602160045260246000fd5b02179055505b600d546008600080600085815260200190815260200160002060050160009054906101000a900473ffffffffffffffffffffffffffffffffffffffff1673ffffffffffffffffffffffffffffffffffffffff1673ffffffffffffffffffffffffffffffffffffffff1681526020019081526020016000208190555050808061258a906139e4565b915050612377565b506002886040516125a391906132b4565b908152602001604051809103902082908060018154018082558091505060019003906000526020600020016000909190919091505550505050505050505050505050565b606060005b600f5481101561266257826007600083815260200190815260200160002060010154141561264f57600b60008481526020019081526020016000208190806001815401808255809150506001900390600052602060002001600090919091909150555b808061265a906139e4565b9150506125ec565b50600b60008381526020019081526020016000208054806020026020016040519081016040528092919081815260200182805480156126c057602002820191906000526020600020905b8154815260200190600101908083116126ac575b50505050509050919050565b60056020528060005260406000206000915090508060000154908060010154908060020154908060030154908060040154908060050154908060060154908060070154905088565b60046020528060005260406000206000915090505481565b600b602052816000526040600020818154811061274857600080fd5b90600052602060002001600091509150505481565b60008060066000848152602001908152602001600020600701905060005b818054905081101561282f57600460003373ffffffffffffffffffffffffffffffffffffffff1673ffffffffffffffffffffffffffffffffffffffff16815260200190815260200160002054828281548110612800577f4e487b7100000000000000000000000000000000000000000000000000000000600052603260045260246000fd5b9060005260206000200154141561281c57600092505050612836565b8080612827906139e4565b91505061277b565b5060019150505b919050565b600080600090505b600184516128519190613860565b8110156128bd5782848281518110612892577f4e487b7100000000000000000000000000000000000000000000000000000000600052603260045260246000fd5b602002602001015114156128aa5760019150506128c3565b80806128b5906139e4565b915050612843565b50600090505b92915050565b600080600090505b835181101561293e5782848281518110612914577f4e487b7100000000000000000000000000000000000000000000000000000000600052603260045260246000fd5b6020026020010151141561292b5780915050612944565b8080612936906139e4565b9150506128d1565b50600090505b92915050565b60608251821061295957600080fd5b60008290505b6001845161296d9190613860565b811015612a195783600182612982919061377f565b815181106129b9577f4e487b7100000000000000000000000000000000000000000000000000000000600052603260045260246000fd5b60200260200101518482815181106129fa577f4e487b7100000000000000000000000000000000000000000000000000000000600052603260045260246000fd5b6020026020010181815250508080612a11906139e4565b91505061295f565b508260018451612a299190613860565b81518110612a60577f4e487b7100000000000000000000000000000000000000000000000000000000600052603260045260246000fd5b60200260200101600081525082905092915050565b828054828255906000526020600020908101928215612ab1579160200282015b82811115612ab0578251825591602001919060010190612a95565b5b509050612abe9190612b48565b5090565b828054612ace90613981565b90600052602060002090601f016020900481019282612af05760008555612b37565b82601f10612b0957805160ff1916838001178555612b37565b82800160010185558215612b37579182015b82811115612b36578251825591602001919060010190612b1b565b5b509050612b449190612b48565b5090565b5b80821115612b61576000816000905550600101612b49565b5090565b6000612b78612b73846136b1565b61368c565b90508083825260208201905082856020860282011115612b9757600080fd5b60005b85811015612bc75781612bad8882612c8d565b845260208401935060208301925050600181019050612b9a565b5050509392505050565b6000612be4612bdf846136dd565b61368c565b905082815260208101848484011115612bfc57600080fd5b612c0784828561393f565b509392505050565b600081359050612c1e81613c58565b92915050565b600082601f830112612c3557600080fd5b8135612c45848260208601612b65565b91505092915050565b600081359050612c5d81613c6f565b92915050565b600082601f830112612c7457600080fd5b8135612c84848260208601612bd1565b91505092915050565b600081359050612c9c81613c7f565b92915050565b600060208284031215612cb457600080fd5b6000612cc284828501612c0f565b91505092915050565b60008060008060008060008060008060006101608c8e031215612ced57600080fd5b60008c013567ffffffffffffffff811115612d0757600080fd5b612d138e828f01612c24565b9b50506020612d248e828f01612c8d565b9a50506040612d358e828f01612c8d565b99505060608c013567ffffffffffffffff811115612d5257600080fd5b612d5e8e828f01612c63565b98505060808c013567ffffffffffffffff811115612d7b57600080fd5b612d878e828f01612c63565b97505060a08c013567ffffffffffffffff811115612da457600080fd5b612db08e828f01612c63565b96505060c08c013567ffffffffffffffff811115612dcd57600080fd5b612dd98e828f01612c63565b95505060e08c013567ffffffffffffffff811115612df657600080fd5b612e028e828f01612c63565b9450506101008c013567ffffffffffffffff811115612e2057600080fd5b612e2c8e828f01612c63565b9350506101208c013567ffffffffffffffff811115612e4a57600080fd5b612e568e828f01612c63565b925050610140612e688e828f01612c8d565b9150509295989b509295989b9093969950565b600060208284031215612e8d57600080fd5b600082013567ffffffffffffffff811115612ea757600080fd5b612eb384828501612c63565b91505092915050565b60008060408385031215612ecf57600080fd5b600083013567ffffffffffffffff811115612ee957600080fd5b612ef585828601612c63565b9250506020612f0685828601612c8d565b9150509250929050565b600060208284031215612f2257600080fd5b6000612f3084828501612c8d565b91505092915050565b60008060408385031215612f4c57600080fd5b6000612f5a85828601612c8d565b9250506020612f6b85828601612c4e565b9150509250929050565b60008060408385031215612f8857600080fd5b6000612f9685828601612c8d565b9250506020612fa785828601612c8d565b9150509250929050565b600080600060608486031215612fc657600080fd5b6000612fd486828701612c8d565b9350506020612fe586828701612c8d565b9250506040612ff686828701612c8d565b9150509250925092565b600061300c8383613296565b60208301905092915050565b61302181613894565b82525050565b60006130328261371e565b61303c8185613741565b93506130478361370e565b8060005b8381101561307857815161305f8882613000565b975061306a83613734565b92505060018101905061304b565b5085935050505092915050565b61308e81613909565b82525050565b61309d8161391b565b82525050565b6130ac8161392d565b82525050565b60006130bd82613729565b6130c78185613752565b93506130d781856020860161394e565b6130e081613b18565b840191505092915050565b60006130f682613729565b6131008185613763565b935061311081856020860161394e565b61311981613b18565b840191505092915050565b600061312f82613729565b6131398185613774565b935061314981856020860161394e565b80840191505092915050565b6000613162601a83613763565b915061316d82613b29565b602082019050919050565b6000613185602583613763565b915061319082613b52565b604082019050919050565b60006131a8601283613763565b91506131b382613ba1565b602082019050919050565b60006131cb601283613763565b91506131d682613bca565b602082019050919050565b60006131ee601383613763565b91506131f982613bf3565b602082019050919050565b600060a083016000830151848203600086015261322182826130b2565b9150506020830151848203602086015261323b82826130b2565b9150506040830151848203604086015261325582826130b2565b9150506060830151848203606086015261326f82826130b2565b9150506080830151848203608086015261328982826130b2565b9150508091505092915050565b61329f816138ff565b82525050565b6132ae816138ff565b82525050565b60006132c08284613124565b915081905092915050565b600060208201905081810360008301526132e58184613027565b905092915050565b6000602082019050818103600083015261330681613155565b9050919050565b6000602082019050818103600083015261332681613178565b9050919050565b600060208201905081810360008301526133468161319b565b9050919050565b60006020820190508181036000830152613366816131be565b9050919050565b60006020820190508181036000830152613386816131e1565b9050919050565b60006020820190506133a260008301846132a5565b92915050565b600060a0820190506133bd60008301886132a5565b81810360208301526133cf81876130eb565b90506133de6040830186613018565b81810360608301526133f081856130eb565b90506133ff60808301846132a5565b9695505050505050565b60006101408201905061341f600083018d6132a5565b8181036020830152613431818c6130eb565b90508181036040830152613445818b6130eb565b9050613454606083018a6132a5565b818103608083015261346681896130eb565b905061347560a0830188613018565b61348260c08301876132a5565b61348f60e08301866130a3565b61349d610100830185613085565b8181036101208301526134b08184613204565b90509b9a5050505050505050505050565b600060e0820190506134d6600083018a6132a5565b81810360208301526134e881896130eb565b905081810360408301526134fc8188613204565b9050818103606083015261351081876130eb565b905061351f60808301866132a5565b61352c60a08301856132a5565b61353960c08301846132a5565b98975050505050505050565b600060e08201905061355a600083018a6132a5565b61356760208301896132a5565b61357460408301886132a5565b818103606083015261358681876130eb565b905061359560808301866132a5565b6135a260a0830185613094565b6135af60c08301846132a5565b98975050505050505050565b600060a0820190506135d060008301886132a5565b6135dd60208301876132a5565b6135ea60408301866132a5565b6135f760608301856132a5565b6136046080830184613094565b9695505050505050565b600061010082019050613624600083018b6132a5565b613631602083018a6132a5565b61363e60408301896132a5565b61364b60608301886132a5565b61365860808301876132a5565b61366560a08301866132a5565b61367260c08301856132a5565b61367f60e08301846132a5565b9998505050505050505050565b60006136966136a7565b90506136a282826139b3565b919050565b6000604051905090565b600067ffffffffffffffff8211156136cc576136cb613ae9565b5b602082029050602081019050919050565b600067ffffffffffffffff8211156136f8576136f7613ae9565b5b61370182613b18565b9050602081019050919050565b6000819050602082019050919050565b600081519050919050565b600081519050919050565b6000602082019050919050565b600082825260208201905092915050565b600082825260208201905092915050565b600082825260208201905092915050565b600081905092915050565b600061378a826138ff565b9150613795836138ff565b9250827fffffffffffffffffffffffffffffffffffffffffffffffffffffffffffffffff038211156137ca576137c9613a2d565b5b828201905092915050565b60006137e0826138ff565b91506137eb836138ff565b9250826137fb576137fa613a5c565b5b828204905092915050565b6000613811826138ff565b915061381c836138ff565b9250817fffffffffffffffffffffffffffffffffffffffffffffffffffffffffffffffff048311821515161561385557613854613a2d565b5b828202905092915050565b600061386b826138ff565b9150613876836138ff565b92508282101561388957613888613a2d565b5b828203905092915050565b600061389f826138df565b9050919050565b60008190506138b482613c1c565b919050565b60008190506138c782613c30565b919050565b60008190506138da82613c44565b919050565b600073ffffffffffffffffffffffffffffffffffffffff82169050919050565b6000819050919050565b6000613914826138a6565b9050919050565b6000613926826138b9565b9050919050565b6000613938826138cc565b9050919050565b82818337600083830152505050565b60005b8381101561396c578082015181840152602081019050613951565b8381111561397b576000848401525b50505050565b6000600282049050600182168061399957607f821691505b602082108114156139ad576139ac613aba565b5b50919050565b6139bc82613b18565b810181811067ffffffffffffffff821117156139db576139da613ae9565b5b80604052505050565b60006139ef826138ff565b91507fffffffffffffffffffffffffffffffffffffffffffffffffffffffffffffffff821415613a2257613a21613a2d565b5b600182019050919050565b7f4e487b7100000000000000000000000000000000000000000000000000000000600052601160045260246000fd5b7f4e487b7100000000000000000000000000000000000000000000000000000000600052601260045260246000fd5b7f4e487b7100000000000000000000000000000000000000000000000000000000600052602160045260246000fd5b7f4e487b7100000000000000000000000000000000000000000000000000000000600052602260045260246000fd5b7f4e487b7100000000000000000000000000000000000000000000000000000000600052604160045260246000fd5b6000601f19601f8301169050919050565b7f41746c656173742037206d656d62657273207265717569726564000000000000600082015250565b7f5573657220697320616c7265616479206e6f7420612070617274206f6620746860008201527f6520534847000000000000000000000000000000000000000000000000000000602082015250565b7f5573657220616c72656164792061646465640000000000000000000000000000600082015250565b7f556e617070726f76656420726571756573740000000000000000000000000000600082015250565b7f556e617574686f72697a65642072657165737400000000000000000000000000600082015250565b60038110613c2d57613c2c613a8b565b5b50565b60048110613c4157613c40613a8b565b5b50565b60068110613c5557613c54613a8b565b5b50565b613c6181613894565b8114613c6c57600080fd5b50565b60068110613c7c57600080fd5b50565b613c88816138ff565b8114613c9357600080fd5b5056fea264697066735822122022d0d25fb4e9211c1d84a92006987cfab99b5e486396084f5481e39c88aae33d64736f6c63430008040033",
  "immutableReferences": {},
  "source": "// SPDX-License-Identifier: MIT\npragma solidity ^0.8.1;\n\nimport \"./structs.sol\";\nimport \"./helpers.sol\";\nimport \"./modifiers.sol\";\n\ncontract SHG is structs, helpers, modifiers {\n    function addSHG(\n        uint256[] memory members,\n        uint256 president,\n        uint256 treasurer,\n        string memory name,\n        string memory _state,\n        string memory _district,\n        string memory _blockName,\n        string memory _panchyatName,\n        string memory _villageName,\n        string memory dateOfFormation,\n        uint256 _baseIntrest\n    ) public {\n        require(members.length >= 7, \"Atleast 7 members required\");\n        uint256 id = ++numSHGs;\n\n        Location memory newlocation = Location({\n            state: _state,\n            district: _district,\n            blockName: _blockName,\n            panchyatName: _panchyatName,\n            villageName: _villageName\n        });\n\n        shgs[id] = SHG(\n            id,\n            members,\n            name,\n            newlocation,\n            dateOfFormation,\n            0,\n            0,\n            new uint256[](0),\n            new uint256[](0),\n            new uint256[](0),\n            _baseIntrest\n        );\n        for (uint256 i = 0; i < members.length; i++) {\n            uint256 userid = members[i];\n            users[userid].userType = UserType.MEMBER;\n            if (userid == president)\n                users[userid].userType = UserType.PRESIDENT;\n            if (userid == treasurer)\n                users[userid].userType = UserType.TREASURER;\n            addressToSHGid[users[userid].walletAddress] = numSHGs;\n        }\n        districtToSHGs[_district].push(id);\n    }\n\n    function addSHGMember(uint256 userid, uint256 shg) public {\n        require(users[userid].shgid == shg, \"User already added\");\n        users[userid].shgid = shg;\n        users[userid].userType = UserType.MEMBER;\n        shgs[shg].users.push(userid);\n    }\n\n    function removeSHGMember(uint256 userid, uint256 shgid) public {\n        SHG storage shg = shgs[shgid];\n        require(\n            check(shg.users, shgid),\n            \"User is already not a part of the SHG\"\n        );\n\n        uint256 index = getIndex(shg.users, userid);\n        uint256[] memory newusers = deleteIndex(shg.users, index);\n        shg.users = newusers;\n    }\n\n    function updateMemberRole(uint256 id, UserType updatedType) public {\n        // TODO: add requires\n        users[id].userType = updatedType;\n    }\n\n    function sendGrant(uint256 _requestid) public {\n        require(\n            users[addressToUser[msg.sender]].userType == UserType.TREASURER,\n            \"Unauthorized reqest\"\n        );\n        require(\n            userRequests[_requestid].status == RequestStatus.APPROVED,\n            \"Unapproved request\"\n        );\n        UserRequest storage request = userRequests[_requestid];\n\n        request.status = RequestStatus.COMPLETED;\n\n        Loan memory newLoan = Loan({\n            loanId: ++numLoans,\n            lenderId: request.SHGId,\n            amount: request.amount,\n            lendeeId: request.userId,\n            intrest: shgs[request.SHGId].baseIntrest,\n            loanTime: request.loanTime,\n            date: block.timestamp,\n            lastEMI: 0\n        });\n\n        loans[numLoans] = newLoan;\n        shgs[request.SHGId].loansGiven.push(numLoans);\n        users[request.userId].loansTaken.push(numLoans);\n\n        require(shgs[request.SHGId].currentBalance >= request.amount);\n        payable(users[request.userId].walletAddress).transfer(request.amount);\n        shgs[request.SHGId].currentBalance -= request.amount;\n    }\n\n    function checkApproval(uint256 _requestid) internal view returns (bool) {\n        uint256[] storage approvals = userRequests[_requestid].approvals;\n\n        for (uint256 i = 0; i < approvals.length; i++) {\n            if (approvals[i] == addressToUser[msg.sender]) {\n                return false;\n            }\n        }\n\n        return true;\n    }\n\n    function approveRequest(uint256 _requestid, uint256 _shgid)\n        public\n        onlySHG(_shgid)\n    {\n        UserRequest storage request = userRequests[_requestid];\n        require(request.SHGId == _shgid);\n\n        require(checkApproval(_requestid));\n        request.approvals.push(addressToUser[msg.sender]);\n\n        if (request.approvals.length > shgs[_shgid].users.length / 2) {\n            request.status = RequestStatus.APPROVED;\n        }\n    }\n\n    function sendRequestToBank(\n        uint256 _shgid,\n        uint256 _amount,\n        uint256 _loanTime\n    ) public onlySHG(_shgid) {\n        require(users[addressToUser[msg.sender]].shgid == _shgid);\n        uint256 reqid = numSHGRequests++;\n        shgRequests[reqid] = SHGRequest(\n            reqid,\n            _shgid,\n            _amount,\n            _loanTime,\n            RequestStatus.IN_PROCESS\n        );\n        shgs[_shgid].loansTaken.push(reqid);\n    }\n\n    function shgPayEMI(\n        uint256 _shgid,\n        uint256 _loanid,\n        uint256 _amount\n    ) public onlySHG(_shgid) {\n        uint256 amount = getSHGEMI(_shgid, _loanid);\n        require(amount == _amount);\n        Loan storage loan = loans[_loanid];\n        payable(address(this)).transfer(_amount);\n        shgs[loan.lendeeId].currentBalance += _amount;\n        loan.lastEMI = block.timestamp;\n    }\n\n    // fetch functions\n    function totalNumSHGs() public view returns (uint256) {\n        return numSHGs;\n    }\n\n    function getSHGRequests(uint256 _shgid) public returns (uint256[] memory) {\n        for (uint256 i = 0; i < numSHGRequests; i++) {\n            if (shgRequests[i].shgid == _shgid) {\n                shgToRequests[_shgid].push(i);\n            }\n        }\n        return shgToRequests[_shgid];\n    }\n\n    function getSHGEMI(uint256 _shgid, uint256 _loanid)\n        public\n        onlySHG(_shgid)\n        returns (uint256)\n    {\n        Loan storage loan = loans[_loanid];\n        uint256 months = ((block.timestamp - loan.lastEMI) / 24) * 60 * 60 * 30;\n\n        require(months > 0);\n        uint256 P = loan.amount;\n        uint256 r = loan.intrest;\n        uint256 t = loan.loanTime;\n        uint256 emi = (P * (1 + ((r / 100) * 12))) ^ ((12 * t));\n\n        loan.amount = loan.amount - emi;\n        return emi;\n    }\n\n    function getSHGMembers(uint256 shgid)\n        public\n        view\n        returns (uint256[] memory)\n    {\n        return shgs[shgid].users;\n    }\n\n    function shgsOfDistrict(string memory district)\n        public\n        view\n        returns (uint256[] memory)\n    {\n        return districtToSHGs[district];\n    }\n}\n",
  "sourcePath": "/home/sdas/code/yogdaan-contracts/contracts/lib/SHG.sol",
  "compiler": {
    "name": "solc",
    "version": "0.8.4+commit.c7e474f2.Emscripten.clang"
  },
  "schemaVersion": "3.4.9",
  "updatedAt": "2022-08-26T02:37:33.507Z",
  "devdoc": {
    "kind": "dev",
    "methods": {},
    "version": 1
  },
  "userdoc": {
    "kind": "user",
    "methods": {},
    "version": 1
  }
}