{
  "contractName": "SHG",
  "abi": [
    {
      "inputs": [
        {
          "internalType": "address",
          "name": "",
          "type": "address"
        }
      ],
      "name": "addressToBankid",
      "outputs": [
        {
          "internalType": "uint256",
          "name": "",
          "type": "uint256"
        }
      ],
      "stateMutability": "view",
      "type": "function"
    },
    {
      "inputs": [
        {
          "internalType": "address",
          "name": "",
          "type": "address"
        }
      ],
      "name": "addressToSHGid",
      "outputs": [
        {
          "internalType": "uint256",
          "name": "",
          "type": "uint256"
        }
      ],
      "stateMutability": "view",
      "type": "function"
    },
    {
      "inputs": [
        {
          "internalType": "address",
          "name": "",
          "type": "address"
        }
      ],
      "name": "addressToUser",
      "outputs": [
        {
          "internalType": "uint256",
          "name": "",
          "type": "uint256"
        }
      ],
      "stateMutability": "view",
      "type": "function"
    },
    {
      "inputs": [
        {
          "internalType": "uint256",
          "name": "",
          "type": "uint256"
        }
      ],
      "name": "banks",
      "outputs": [
        {
          "internalType": "uint256",
          "name": "id",
          "type": "uint256"
        },
        {
          "internalType": "string",
          "name": "name",
          "type": "string"
        },
        {
          "internalType": "address",
          "name": "walletAddress",
          "type": "address"
        },
        {
          "internalType": "string",
          "name": "code",
          "type": "string"
        },
        {
          "internalType": "uint256",
          "name": "intrestRate",
          "type": "uint256"
        }
      ],
      "stateMutability": "view",
      "type": "function"
    },
    {
      "inputs": [
        {
          "internalType": "string",
          "name": "",
          "type": "string"
        },
        {
          "internalType": "uint256",
          "name": "",
          "type": "uint256"
        }
      ],
      "name": "districtToSHGs",
      "outputs": [
        {
          "internalType": "uint256",
          "name": "",
          "type": "uint256"
        }
      ],
      "stateMutability": "view",
      "type": "function"
    },
    {
      "inputs": [
        {
          "internalType": "uint256",
          "name": "",
          "type": "uint256"
        }
      ],
      "name": "loans",
      "outputs": [
        {
          "internalType": "uint256",
          "name": "loanId",
          "type": "uint256"
        },
        {
          "internalType": "uint256",
          "name": "lenderId",
          "type": "uint256"
        },
        {
          "internalType": "uint256",
          "name": "amount",
          "type": "uint256"
        },
        {
          "internalType": "uint256",
          "name": "lendeeId",
          "type": "uint256"
        },
        {
          "internalType": "uint256",
          "name": "intrest",
          "type": "uint256"
        },
        {
          "internalType": "uint256",
          "name": "loanTime",
          "type": "uint256"
        },
        {
          "internalType": "uint256",
          "name": "date",
          "type": "uint256"
        },
        {
          "internalType": "uint256",
          "name": "lastEMI",
          "type": "uint256"
        }
      ],
      "stateMutability": "view",
      "type": "function"
    },
    {
      "inputs": [
        {
          "internalType": "uint256",
          "name": "",
          "type": "uint256"
        }
      ],
      "name": "shgRequests",
      "outputs": [
        {
          "internalType": "uint256",
          "name": "requestid",
          "type": "uint256"
        },
        {
          "internalType": "uint256",
          "name": "shgid",
          "type": "uint256"
        },
        {
          "internalType": "uint256",
          "name": "amount",
          "type": "uint256"
        },
        {
          "internalType": "uint256",
          "name": "loanTime",
          "type": "uint256"
        },
        {
          "internalType": "enum structs.RequestStatus",
          "name": "status",
          "type": "uint8"
        }
      ],
      "stateMutability": "view",
      "type": "function"
    },
    {
      "inputs": [
        {
          "internalType": "uint256",
          "name": "",
          "type": "uint256"
        }
      ],
      "name": "shgs",
      "outputs": [
        {
          "internalType": "uint256",
          "name": "id",
          "type": "uint256"
        },
        {
          "internalType": "string",
          "name": "name",
          "type": "string"
        },
        {
          "components": [
            {
              "internalType": "string",
              "name": "state",
              "type": "string"
            },
            {
              "internalType": "string",
              "name": "district",
              "type": "string"
            },
            {
              "internalType": "string",
              "name": "blockName",
              "type": "string"
            },
            {
              "internalType": "string",
              "name": "panchyatName",
              "type": "string"
            },
            {
              "internalType": "string",
              "name": "villageName",
              "type": "string"
            }
          ],
          "internalType": "struct structs.Location",
          "name": "location",
          "type": "tuple"
        },
        {
          "internalType": "string",
          "name": "dateOfFormation",
          "type": "string"
        },
        {
          "internalType": "uint256",
          "name": "currentBalance",
          "type": "uint256"
        },
        {
          "internalType": "uint256",
          "name": "owedBalance",
          "type": "uint256"
        },
        {
          "internalType": "uint256",
          "name": "baseIntrest",
          "type": "uint256"
        }
      ],
      "stateMutability": "view",
      "type": "function"
    },
    {
      "inputs": [
        {
          "internalType": "uint256",
          "name": "",
          "type": "uint256"
        }
      ],
      "name": "userRequests",
      "outputs": [
        {
          "internalType": "uint256",
          "name": "requestId",
          "type": "uint256"
        },
        {
          "internalType": "uint256",
          "name": "userId",
          "type": "uint256"
        },
        {
          "internalType": "uint256",
          "name": "amount",
          "type": "uint256"
        },
        {
          "internalType": "string",
          "name": "description",
          "type": "string"
        },
        {
          "internalType": "uint256",
          "name": "SHGId",
          "type": "uint256"
        },
        {
          "internalType": "enum structs.RequestStatus",
          "name": "status",
          "type": "uint8"
        },
        {
          "internalType": "uint256",
          "name": "loanTime",
          "type": "uint256"
        }
      ],
      "stateMutability": "view",
      "type": "function"
    },
    {
      "inputs": [
        {
          "internalType": "uint256",
          "name": "",
          "type": "uint256"
        }
      ],
      "name": "users",
      "outputs": [
        {
          "internalType": "uint256",
          "name": "id",
          "type": "uint256"
        },
        {
          "internalType": "string",
          "name": "name",
          "type": "string"
        },
        {
          "internalType": "string",
          "name": "aadhar",
          "type": "string"
        },
        {
          "internalType": "uint256",
          "name": "mobno",
          "type": "uint256"
        },
        {
          "internalType": "string",
          "name": "fatherName",
          "type": "string"
        },
        {
          "internalType": "address",
          "name": "walletAddress",
          "type": "address"
        },
        {
          "internalType": "uint256",
          "name": "shgid",
          "type": "uint256"
        },
        {
          "internalType": "enum structs.UserType",
          "name": "userType",
          "type": "uint8"
        },
        {
          "internalType": "enum structs.Gender",
          "name": "gender",
          "type": "uint8"
        },
        {
          "components": [
            {
              "internalType": "string",
              "name": "state",
              "type": "string"
            },
            {
              "internalType": "string",
              "name": "district",
              "type": "string"
            },
            {
              "internalType": "string",
              "name": "blockName",
              "type": "string"
            },
            {
              "internalType": "string",
              "name": "panchyatName",
              "type": "string"
            },
            {
              "internalType": "string",
              "name": "villageName",
              "type": "string"
            }
          ],
          "internalType": "struct structs.Location",
          "name": "location",
          "type": "tuple"
        }
      ],
      "stateMutability": "view",
      "type": "function"
    },
    {
      "inputs": [
        {
          "internalType": "uint256[]",
          "name": "members",
          "type": "uint256[]"
        },
        {
          "internalType": "uint256",
          "name": "president",
          "type": "uint256"
        },
        {
          "internalType": "uint256",
          "name": "treasurer",
          "type": "uint256"
        },
        {
          "internalType": "string",
          "name": "name",
          "type": "string"
        },
        {
          "internalType": "string",
          "name": "_state",
          "type": "string"
        },
        {
          "internalType": "string",
          "name": "_district",
          "type": "string"
        },
        {
          "internalType": "string",
          "name": "_blockName",
          "type": "string"
        },
        {
          "internalType": "string",
          "name": "_panchyatName",
          "type": "string"
        },
        {
          "internalType": "string",
          "name": "_villageName",
          "type": "string"
        },
        {
          "internalType": "string",
          "name": "dateOfFormation",
          "type": "string"
        },
        {
          "internalType": "uint256",
          "name": "_baseIntrest",
          "type": "uint256"
        }
      ],
      "name": "addSHG",
      "outputs": [],
      "stateMutability": "nonpayable",
      "type": "function"
    },
    {
      "inputs": [
        {
          "internalType": "uint256",
          "name": "userid",
          "type": "uint256"
        },
        {
          "internalType": "uint256",
          "name": "shg",
          "type": "uint256"
        }
      ],
      "name": "addSHGMember",
      "outputs": [],
      "stateMutability": "nonpayable",
      "type": "function"
    },
    {
      "inputs": [
        {
          "internalType": "uint256",
          "name": "userid",
          "type": "uint256"
        },
        {
          "internalType": "uint256",
          "name": "shgid",
          "type": "uint256"
        }
      ],
      "name": "removeSHGMember",
      "outputs": [],
      "stateMutability": "nonpayable",
      "type": "function"
    },
    {
      "inputs": [
        {
          "internalType": "uint256",
          "name": "id",
          "type": "uint256"
        },
        {
          "internalType": "enum structs.UserType",
          "name": "updatedType",
          "type": "uint8"
        }
      ],
      "name": "updateMemberRole",
      "outputs": [],
      "stateMutability": "nonpayable",
      "type": "function"
    },
    {
      "inputs": [
        {
          "internalType": "uint256",
          "name": "_requestid",
          "type": "uint256"
        }
      ],
      "name": "sendGrant",
      "outputs": [],
      "stateMutability": "nonpayable",
      "type": "function"
    },
    {
      "inputs": [
        {
          "internalType": "uint256",
          "name": "_requestid",
          "type": "uint256"
        },
        {
          "internalType": "uint256",
          "name": "_shgid",
          "type": "uint256"
        }
      ],
      "name": "approveRequest",
      "outputs": [],
      "stateMutability": "nonpayable",
      "type": "function"
    },
    {
      "inputs": [
        {
          "internalType": "uint256",
          "name": "_shgid",
          "type": "uint256"
        },
        {
          "internalType": "uint256",
          "name": "_amount",
          "type": "uint256"
        },
        {
          "internalType": "uint256",
          "name": "_loanTime",
          "type": "uint256"
        }
      ],
      "name": "sendRequestToBank",
      "outputs": [],
      "stateMutability": "nonpayable",
      "type": "function"
    },
    {
      "inputs": [
        {
          "internalType": "uint256",
          "name": "_shgid",
          "type": "uint256"
        },
        {
          "internalType": "uint256",
          "name": "_loanid",
          "type": "uint256"
        },
        {
          "internalType": "uint256",
          "name": "_amount",
          "type": "uint256"
        }
      ],
      "name": "shgPayEMI",
      "outputs": [],
      "stateMutability": "nonpayable",
      "type": "function"
    },
    {
      "inputs": [
        {
          "internalType": "uint256",
          "name": "_shgid",
          "type": "uint256"
        },
        {
          "internalType": "uint256",
          "name": "_loanid",
          "type": "uint256"
        }
      ],
      "name": "getSHGEMI",
      "outputs": [
        {
          "internalType": "uint256",
          "name": "",
          "type": "uint256"
        }
      ],
      "stateMutability": "nonpayable",
      "type": "function"
    },
    {
      "inputs": [
        {
          "internalType": "uint256",
          "name": "shgid",
          "type": "uint256"
        }
      ],
      "name": "getSHGMembers",
      "outputs": [
        {
          "internalType": "uint256[]",
          "name": "",
          "type": "uint256[]"
        }
      ],
      "stateMutability": "view",
      "type": "function"
    },
    {
      "inputs": [
        {
          "internalType": "string",
          "name": "district",
          "type": "string"
        }
      ],
      "name": "shgsOfDistrict",
      "outputs": [
        {
          "internalType": "uint256[]",
          "name": "",
          "type": "uint256[]"
        }
      ],
      "stateMutability": "view",
      "type": "function"
    }
  ],
  "bytecode": "0x608060405234801561001057600080fd5b50613a09806100206000396000f3fe608060405234801561001057600080fd5b50600436106101365760003560e01c806361c91b70116100b85780639bbc9ab11161007c5780639bbc9ab1146103c4578063a6e90a58146103e0578063af08a94f146103fc578063bc1e72ad1461042c578063e1ec3c6814610448578063edf538861461047f57610136565b806361c91b70146102e2578063769d0e16146103125780637d550bb314610342578063941696561461035e57806397e492dd1461039457610136565b8063365b98b2116100ff578063365b98b21461021157806339d8bed11461024a5780633ae0058f146102665780633cec4272146102965780634f269c92146102c657610136565b806285ae2b1461013b578063021af3971461016f578063257a170b1461018b57806326271cf2146101bf5780632c0a90a9146101f5575b600080fd5b61015560048036038101906101509190612c4d565b6104af565b6040516101669594939291906130e5565b60405180910390f35b61018960048036038101906101849190612cee565b610615565b005b6101a560048036038101906101a09190612c4d565b6107ec565b6040516101b69594939291906132f8565b60405180910390f35b6101d960048036038101906101d49190612c4d565b61082f565b6040516101ec97969594939291906131fe565b60405180910390f35b61020f600480360381019061020a9190612cb2565b610c65565b005b61022b60048036038101906102269190612c4d565b610dbb565b6040516102419a99989796959493929190613146565b60405180910390f35b610264600480360381019061025f9190612cb2565b6112c5565b005b610280600480360381019061027b91906129df565b6113db565b60405161028d91906130ca565b60405180910390f35b6102b060048036038101906102ab9190612bf9565b6113f3565b6040516102bd91906130ca565b60405180910390f35b6102e060048036038101906102db9190612c76565b61143a565b005b6102fc60048036038101906102f791906129df565b6114a1565b60405161030991906130ca565b60405180910390f35b61032c60048036038101906103279190612cb2565b6114b9565b60405161033991906130ca565b60405180910390f35b61035c60048036038101906103579190612cee565b6115d7565b005b61037860048036038101906103739190612c4d565b6116b6565b60405161038b9796959493929190613282565b60405180910390f35b6103ae60048036038101906103a99190612bb8565b61178d565b6040516103bb9190613008565b60405180910390f35b6103de60048036038101906103d99190612c4d565b611803565b005b6103fa60048036038101906103f59190612cb2565b611cab565b005b61041660048036038101906104119190612c4d565b611e3d565b6040516104239190613008565b60405180910390f35b61044660048036038101906104419190612a08565b611eab565b005b610462600480360381019061045d9190612c4d565b61243a565b60405161047698979695949392919061334b565b60405180910390f35b610499600480360381019061049491906129df565b612482565b6040516104a691906130ca565b60405180910390f35b60036020528060005260406000206000915090508060000154908060010180546104d8906136be565b80601f0160208091040260200160405190810160405280929190818152602001828054610504906136be565b80156105515780601f1061052657610100808354040283529160200191610551565b820191906000526020600020905b81548152906001019060200180831161053457829003601f168201915b5050505050908060020160009054906101000a900473ffffffffffffffffffffffffffffffffffffffff169080600301805461058c906136be565b80601f01602080910402602001604051908101604052809291908181526020018280546105b8906136be565b80156106055780601f106105da57610100808354040283529160200191610605565b820191906000526020600020905b8154815290600101906020018083116105e857829003601f168201915b5050505050908060040154905085565b8260006001600083815260200190815260200160002060000154141561063a57600080fd5b83600080600460003373ffffffffffffffffffffffffffffffffffffffff1673ffffffffffffffffffffffffffffffffffffffff168152602001908152602001600020548152602001908152602001600020600801541461069a57600080fd5b6000600d60008154809291906106af90613721565b9190505590506040518060a00160405280828152602001868152602001858152602001848152602001600380811115610711577f4e487b7100000000000000000000000000000000000000000000000000000000600052602160045260246000fd5b815250600760008381526020019081526020016000206000820151816000015560208201518160010155604082015181600201556060820151816003015560808201518160040160006101000a81548160ff021916908360038111156107a0577f4e487b7100000000000000000000000000000000000000000000000000000000600052602160045260246000fd5b021790555090505060016000868152602001908152602001600020600c018190806001815401808255809150506001900390600052602060002001600090919091909150555050505050565b60076020528060005260406000206000915090508060000154908060010154908060020154908060030154908060040160009054906101000a900460ff16905085565b6001602052806000526040600020600091509050806000015490806002018054610858906136be565b80601f0160208091040260200160405190810160405280929190818152602001828054610884906136be565b80156108d15780601f106108a6576101008083540402835291602001916108d1565b820191906000526020600020905b8154815290600101906020018083116108b457829003601f168201915b505050505090806003016040518060a00160405290816000820180546108f6906136be565b80601f0160208091040260200160405190810160405280929190818152602001828054610922906136be565b801561096f5780601f106109445761010080835404028352916020019161096f565b820191906000526020600020905b81548152906001019060200180831161095257829003601f168201915b50505050508152602001600182018054610988906136be565b80601f01602080910402602001604051908101604052809291908181526020018280546109b4906136be565b8015610a015780601f106109d657610100808354040283529160200191610a01565b820191906000526020600020905b8154815290600101906020018083116109e457829003601f168201915b50505050508152602001600282018054610a1a906136be565b80601f0160208091040260200160405190810160405280929190818152602001828054610a46906136be565b8015610a935780601f10610a6857610100808354040283529160200191610a93565b820191906000526020600020905b815481529060010190602001808311610a7657829003601f168201915b50505050508152602001600382018054610aac906136be565b80601f0160208091040260200160405190810160405280929190818152602001828054610ad8906136be565b8015610b255780601f10610afa57610100808354040283529160200191610b25565b820191906000526020600020905b815481529060010190602001808311610b0857829003601f168201915b50505050508152602001600482018054610b3e906136be565b80601f0160208091040260200160405190810160405280929190818152602001828054610b6a906136be565b8015610bb75780601f10610b8c57610100808354040283529160200191610bb7565b820191906000526020600020905b815481529060010190602001808311610b9a57829003601f168201915b50505050508152505090806008018054610bd0906136be565b80601f0160208091040260200160405190810160405280929190818152602001828054610bfc906136be565b8015610c495780601f10610c1e57610100808354040283529160200191610c49565b820191906000526020600020905b815481529060010190602001808311610c2c57829003601f168201915b50505050509080600901549080600a01549080600d0154905087565b80600060016000838152602001908152602001600020600001541415610c8a57600080fd5b600060066000858152602001908152602001600020905082816004015414610cb157600080fd5b610cba8461249a565b610cc357600080fd5b80600701600460003373ffffffffffffffffffffffffffffffffffffffff1673ffffffffffffffffffffffffffffffffffffffff16815260200190815260200160002054908060018154018082558091505060019003906000526020600020016000909190919091505560026001600085815260200190815260200160002060010180549050610d539190613512565b81600701805490501115610db55760008160050160006101000a81548160ff02191690836003811115610daf577f4e487b7100000000000000000000000000000000000000000000000000000000600052602160045260246000fd5b02179055505b50505050565b6000602052806000526040600020600091509050806000015490806001018054610de4906136be565b80601f0160208091040260200160405190810160405280929190818152602001828054610e10906136be565b8015610e5d5780601f10610e3257610100808354040283529160200191610e5d565b820191906000526020600020905b815481529060010190602001808311610e4057829003601f168201915b505050505090806002018054610e72906136be565b80601f0160208091040260200160405190810160405280929190818152602001828054610e9e906136be565b8015610eeb5780601f10610ec057610100808354040283529160200191610eeb565b820191906000526020600020905b815481529060010190602001808311610ece57829003601f168201915b505050505090806003015490806004018054610f06906136be565b80601f0160208091040260200160405190810160405280929190818152602001828054610f32906136be565b8015610f7f5780601f10610f5457610100808354040283529160200191610f7f565b820191906000526020600020905b815481529060010190602001808311610f6257829003601f168201915b5050505050908060050160009054906101000a900473ffffffffffffffffffffffffffffffffffffffff16908060080154908060090160009054906101000a900460ff16908060090160019054906101000a900460ff169080600a016040518060a0016040529081600082018054610ff6906136be565b80601f0160208091040260200160405190810160405280929190818152602001828054611022906136be565b801561106f5780601f106110445761010080835404028352916020019161106f565b820191906000526020600020905b81548152906001019060200180831161105257829003601f168201915b50505050508152602001600182018054611088906136be565b80601f01602080910402602001604051908101604052809291908181526020018280546110b4906136be565b80156111015780601f106110d657610100808354040283529160200191611101565b820191906000526020600020905b8154815290600101906020018083116110e457829003601f168201915b5050505050815260200160028201805461111a906136be565b80601f0160208091040260200160405190810160405280929190818152602001828054611146906136be565b80156111935780601f1061116857610100808354040283529160200191611193565b820191906000526020600020905b81548152906001019060200180831161117657829003601f168201915b505050505081526020016003820180546111ac906136be565b80601f01602080910402602001604051908101604052809291908181526020018280546111d8906136be565b80156112255780601f106111fa57610100808354040283529160200191611225565b820191906000526020600020905b81548152906001019060200180831161120857829003601f168201915b5050505050815260200160048201805461123e906136be565b80601f016020809104026020016040519081016040528092919081815260200182805461126a906136be565b80156112b75780601f1061128c576101008083540402835291602001916112b7565b820191906000526020600020905b81548152906001019060200180831161129a57829003601f168201915b50505050508152505090508a565b80600080848152602001908152602001600020600801541461131c576040517f08c379a00000000000000000000000000000000000000000000000000000000081526004016113139061306a565b60405180910390fd5b8060008084815260200190815260200160002060080181905550600360008084815260200190815260200160002060090160006101000a81548160ff02191690836005811115611395577f4e487b7100000000000000000000000000000000000000000000000000000000600052602160045260246000fd5b0217905550600160008281526020019081526020016000206001018290806001815401808255809150506001900390600052602060002001600090919091909150555050565b60086020528060005260406000206000915090505481565b600282805160208101820180518482526020830160208501208183528095505050505050818154811061142557600080fd5b90600052602060002001600091509150505481565b8060008084815260200190815260200160002060090160006101000a81548160ff02191690836005811115611498577f4e487b7100000000000000000000000000000000000000000000000000000000600052602160045260246000fd5b02179055505050565b60096020528060005260406000206000915090505481565b6000826000600160008381526020019081526020016000206000015414156114e057600080fd5b60006005600085815260200190815260200160002090506000601e603c806018856007015442611510919061359d565b61151a9190613512565b6115249190613543565b61152e9190613543565b6115389190613543565b90506000811161154757600080fd5b60008260020154905060008360040154905060008460050154905060008382600c6115729190613543565b61157c919061359d565b600c60648561158b9190613512565b6115959190613543565b60016115a191906134bc565b856115ac9190613543565b1890508086600201546115bf919061359d565b86600201819055508097505050505050505092915050565b826000600160008381526020019081526020016000206000015414156115fc57600080fd5b600061160885856114b9565b905082811461161657600080fd5b60006005600086815260200190815260200160002090503073ffffffffffffffffffffffffffffffffffffffff166108fc859081150290604051600060405180830381858888f19350505050158015611673573d6000803e3d6000fd5b50836001600083600301548152602001908152602001600020600901600082825461169e91906134bc565b92505081905550428160070181905550505050505050565b60066020528060005260406000206000915090508060000154908060010154908060020154908060030180546116eb906136be565b80601f0160208091040260200160405190810160405280929190818152602001828054611717906136be565b80156117645780601f1061173957610100808354040283529160200191611764565b820191906000526020600020905b81548152906001019060200180831161174757829003601f168201915b5050505050908060040154908060050160009054906101000a900460ff16908060060154905087565b606060028260405161179f9190612ff1565b90815260200160405180910390208054806020026020016040519081016040528092919081815260200182805480156117f757602002820191906000526020600020905b8154815260200190600101908083116117e3575b50505050509050919050565b6002600581111561183d577f4e487b7100000000000000000000000000000000000000000000000000000000600052602160045260246000fd5b600080600460003373ffffffffffffffffffffffffffffffffffffffff1673ffffffffffffffffffffffffffffffffffffffff16815260200190815260200160002054815260200190815260200160002060090160009054906101000a900460ff1660058111156118d7577f4e487b7100000000000000000000000000000000000000000000000000000000600052602160045260246000fd5b14611917576040517f08c379a000000000000000000000000000000000000000000000000000000000815260040161190e906130aa565b60405180910390fd5b60006003811115611951577f4e487b7100000000000000000000000000000000000000000000000000000000600052602160045260246000fd5b6006600083815260200190815260200160002060050160009054906101000a900460ff1660038111156119ad577f4e487b7100000000000000000000000000000000000000000000000000000000600052602160045260246000fd5b146119ed576040517f08c379a00000000000000000000000000000000000000000000000000000000081526004016119e49061308a565b60405180910390fd5b600060066000838152602001908152602001600020905060018160050160006101000a81548160ff02191690836003811115611a52577f4e487b7100000000000000000000000000000000000000000000000000000000600052602160045260246000fd5b02179055506000604051806101000160405280600f60008154611a7490613721565b91905081905581526020018360040154815260200183600201548152602001836001015481526020016001600085600401548152602001908152602001600020600d0154815260200183600601548152602001428152602001600081525090508060056000600f548152602001908152602001600020600082015181600001556020820151816001015560408201518160020155606082015181600301556080820151816004015560a0820151816005015560c0820151816006015560e082015181600701559050506001600083600401548152602001908152602001600020600b01600f54908060018154018082558091505060019003906000526020600020016000909190919091505560008083600101548152602001908152602001600020600601600f54908060018154018082558091505060019003906000526020600020016000909190919091505581600201546001600084600401548152602001908152602001600020600901541015611bed57600080fd5b6000808360010154815260200190815260200160002060050160009054906101000a900473ffffffffffffffffffffffffffffffffffffffff1673ffffffffffffffffffffffffffffffffffffffff166108fc83600201549081150290604051600060405180830381858888f19350505050158015611c70573d6000803e3d6000fd5b50816002015460016000846004015481526020019081526020016000206009016000828254611c9f919061359d565b92505081905550505050565b6000600160008381526020019081526020016000209050611d1e81600101805480602002602001604051908101604052809291908181526020018280548015611d1357602002820191906000526020600020905b815481526020019060010190808311611cff575b505050505083612578565b611d5d576040517f08c379a0000000000000000000000000000000000000000000000000000000008152600401611d549061304a565b60405180910390fd5b6000611dbb82600101805480602002602001604051908101604052809291908181526020018280548015611db057602002820191906000526020600020905b815481526020019060010190808311611d9c575b505050505085612606565b90506000611e1b83600101805480602002602001604051908101604052809291908181526020018280548015611e1057602002820191906000526020600020905b815481526020019060010190808311611dfc575b505050505083612687565b905080836001019080519060200190611e359291906127b2565b505050505050565b606060016000838152602001908152602001600020600101805480602002602001604051908101604052809291908181526020018280548015611e9f57602002820191906000526020600020905b815481526020019060010190808311611e8b575b50505050509050919050565b60078b511015611ef0576040517f08c379a0000000000000000000000000000000000000000000000000000000008152600401611ee79061302a565b60405180910390fd5b6000600b60008154611f0190613721565b919050819055905060006040518060a001604052808a81526020018981526020018881526020018781526020018681525090506040518061014001604052808381526020018e81526020018b81526020018281526020018581526020016000815260200160008152602001600067ffffffffffffffff811115611fad577f4e487b7100000000000000000000000000000000000000000000000000000000600052604160045260246000fd5b604051908082528060200260200182016040528015611fdb5781602001602082028036833780820191505090505b508152602001600067ffffffffffffffff811115612022577f4e487b7100000000000000000000000000000000000000000000000000000000600052604160045260246000fd5b6040519080825280602002602001820160405280156120505781602001602082028036833780820191505090505b50815260200184815250600160008481526020019081526020016000206000820151816000015560208201518160010190805190602001906120939291906127b2565b5060408201518160020190805190602001906120b09291906127ff565b5060608201518160030160008201518160000190805190602001906120d69291906127ff565b5060208201518160010190805190602001906120f39291906127ff565b5060408201518160020190805190602001906121109291906127ff565b50606082015181600301908051906020019061212d9291906127ff565b50608082015181600401908051906020019061214a9291906127ff565b50505060808201518160080190805190602001906121699291906127ff565b5060a0820151816009015560c082015181600a015560e082015181600b01908051906020019061219a9291906127b2565b5061010082015181600c0190805190602001906121b89291906127b2565b5061012082015181600d015590505060005b8d518110156123e55760008e828151811061220e577f4e487b7100000000000000000000000000000000000000000000000000000000600052603260045260246000fd5b60200260200101519050600360008083815260200190815260200160002060090160006101000a81548160ff02191690836005811115612277577f4e487b7100000000000000000000000000000000000000000000000000000000600052602160045260246000fd5b02179055508d8114156122e957600080600083815260200190815260200160002060090160006101000a81548160ff021916908360058111156122e3577f4e487b7100000000000000000000000000000000000000000000000000000000600052602160045260246000fd5b02179055505b8c81141561235657600260008083815260200190815260200160002060090160006101000a81548160ff02191690836005811115612350577f4e487b7100000000000000000000000000000000000000000000000000000000600052602160045260246000fd5b02179055505b600b546008600080600085815260200190815260200160002060050160009054906101000a900473ffffffffffffffffffffffffffffffffffffffff1673ffffffffffffffffffffffffffffffffffffffff1673ffffffffffffffffffffffffffffffffffffffff168152602001908152602001600020819055505080806123dd90613721565b9150506121ca565b506002886040516123f69190612ff1565b908152602001604051809103902082908060018154018082558091505060019003906000526020600020016000909190919091505550505050505050505050505050565b60056020528060005260406000206000915090508060000154908060010154908060020154908060030154908060040154908060050154908060060154908060070154905088565b60046020528060005260406000206000915090505481565b60008060066000848152602001908152602001600020600701905060005b818054905081101561256c57600460003373ffffffffffffffffffffffffffffffffffffffff1673ffffffffffffffffffffffffffffffffffffffff1681526020019081526020016000205482828154811061253d577f4e487b7100000000000000000000000000000000000000000000000000000000600052603260045260246000fd5b9060005260206000200154141561255957600092505050612573565b808061256490613721565b9150506124b8565b5060019150505b919050565b600080600090505b6001845161258e919061359d565b8110156125fa57828482815181106125cf577f4e487b7100000000000000000000000000000000000000000000000000000000600052603260045260246000fd5b602002602001015114156125e7576001915050612600565b80806125f290613721565b915050612580565b50600090505b92915050565b600080600090505b835181101561267b5782848281518110612651577f4e487b7100000000000000000000000000000000000000000000000000000000600052603260045260246000fd5b602002602001015114156126685780915050612681565b808061267390613721565b91505061260e565b50600090505b92915050565b60608251821061269657600080fd5b60008290505b600184516126aa919061359d565b81101561275657836001826126bf91906134bc565b815181106126f6577f4e487b7100000000000000000000000000000000000000000000000000000000600052603260045260246000fd5b6020026020010151848281518110612737577f4e487b7100000000000000000000000000000000000000000000000000000000600052603260045260246000fd5b602002602001018181525050808061274e90613721565b91505061269c565b508260018451612766919061359d565b8151811061279d577f4e487b7100000000000000000000000000000000000000000000000000000000600052603260045260246000fd5b60200260200101600081525082905092915050565b8280548282559060005260206000209081019282156127ee579160200282015b828111156127ed5782518255916020019190600101906127d2565b5b5090506127fb9190612885565b5090565b82805461280b906136be565b90600052602060002090601f01602090048101928261282d5760008555612874565b82601f1061284657805160ff1916838001178555612874565b82800160010185558215612874579182015b82811115612873578251825591602001919060010190612858565b5b5090506128819190612885565b5090565b5b8082111561289e576000816000905550600101612886565b5090565b60006128b56128b0846133ee565b6133c9565b905080838252602082019050828560208602820111156128d457600080fd5b60005b8581101561290457816128ea88826129ca565b8452602084019350602083019250506001810190506128d7565b5050509392505050565b600061292161291c8461341a565b6133c9565b90508281526020810184848401111561293957600080fd5b61294484828561367c565b509392505050565b60008135905061295b81613995565b92915050565b600082601f83011261297257600080fd5b81356129828482602086016128a2565b91505092915050565b60008135905061299a816139ac565b92915050565b600082601f8301126129b157600080fd5b81356129c184826020860161290e565b91505092915050565b6000813590506129d9816139bc565b92915050565b6000602082840312156129f157600080fd5b60006129ff8482850161294c565b91505092915050565b60008060008060008060008060008060006101608c8e031215612a2a57600080fd5b60008c013567ffffffffffffffff811115612a4457600080fd5b612a508e828f01612961565b9b50506020612a618e828f016129ca565b9a50506040612a728e828f016129ca565b99505060608c013567ffffffffffffffff811115612a8f57600080fd5b612a9b8e828f016129a0565b98505060808c013567ffffffffffffffff811115612ab857600080fd5b612ac48e828f016129a0565b97505060a08c013567ffffffffffffffff811115612ae157600080fd5b612aed8e828f016129a0565b96505060c08c013567ffffffffffffffff811115612b0a57600080fd5b612b168e828f016129a0565b95505060e08c013567ffffffffffffffff811115612b3357600080fd5b612b3f8e828f016129a0565b9450506101008c013567ffffffffffffffff811115612b5d57600080fd5b612b698e828f016129a0565b9350506101208c013567ffffffffffffffff811115612b8757600080fd5b612b938e828f016129a0565b925050610140612ba58e828f016129ca565b9150509295989b509295989b9093969950565b600060208284031215612bca57600080fd5b600082013567ffffffffffffffff811115612be457600080fd5b612bf0848285016129a0565b91505092915050565b60008060408385031215612c0c57600080fd5b600083013567ffffffffffffffff811115612c2657600080fd5b612c32858286016129a0565b9250506020612c43858286016129ca565b9150509250929050565b600060208284031215612c5f57600080fd5b6000612c6d848285016129ca565b91505092915050565b60008060408385031215612c8957600080fd5b6000612c97858286016129ca565b9250506020612ca88582860161298b565b9150509250929050565b60008060408385031215612cc557600080fd5b6000612cd3858286016129ca565b9250506020612ce4858286016129ca565b9150509250929050565b600080600060608486031215612d0357600080fd5b6000612d11868287016129ca565b9350506020612d22868287016129ca565b9250506040612d33868287016129ca565b9150509250925092565b6000612d498383612fd3565b60208301905092915050565b612d5e816135d1565b82525050565b6000612d6f8261345b565b612d79818561347e565b9350612d848361344b565b8060005b83811015612db5578151612d9c8882612d3d565b9750612da783613471565b925050600181019050612d88565b5085935050505092915050565b612dcb81613646565b82525050565b612dda81613658565b82525050565b612de98161366a565b82525050565b6000612dfa82613466565b612e04818561348f565b9350612e1481856020860161368b565b612e1d81613855565b840191505092915050565b6000612e3382613466565b612e3d81856134a0565b9350612e4d81856020860161368b565b612e5681613855565b840191505092915050565b6000612e6c82613466565b612e7681856134b1565b9350612e8681856020860161368b565b80840191505092915050565b6000612e9f601a836134a0565b9150612eaa82613866565b602082019050919050565b6000612ec26025836134a0565b9150612ecd8261388f565b604082019050919050565b6000612ee56012836134a0565b9150612ef0826138de565b602082019050919050565b6000612f086012836134a0565b9150612f1382613907565b602082019050919050565b6000612f2b6013836134a0565b9150612f3682613930565b602082019050919050565b600060a0830160008301518482036000860152612f5e8282612def565b91505060208301518482036020860152612f788282612def565b91505060408301518482036040860152612f928282612def565b91505060608301518482036060860152612fac8282612def565b91505060808301518482036080860152612fc68282612def565b9150508091505092915050565b612fdc8161363c565b82525050565b612feb8161363c565b82525050565b6000612ffd8284612e61565b915081905092915050565b600060208201905081810360008301526130228184612d64565b905092915050565b6000602082019050818103600083015261304381612e92565b9050919050565b6000602082019050818103600083015261306381612eb5565b9050919050565b6000602082019050818103600083015261308381612ed8565b9050919050565b600060208201905081810360008301526130a381612efb565b9050919050565b600060208201905081810360008301526130c381612f1e565b9050919050565b60006020820190506130df6000830184612fe2565b92915050565b600060a0820190506130fa6000830188612fe2565b818103602083015261310c8187612e28565b905061311b6040830186612d55565b818103606083015261312d8185612e28565b905061313c6080830184612fe2565b9695505050505050565b60006101408201905061315c600083018d612fe2565b818103602083015261316e818c612e28565b90508181036040830152613182818b612e28565b9050613191606083018a612fe2565b81810360808301526131a38189612e28565b90506131b260a0830188612d55565b6131bf60c0830187612fe2565b6131cc60e0830186612de0565b6131da610100830185612dc2565b8181036101208301526131ed8184612f41565b90509b9a5050505050505050505050565b600060e082019050613213600083018a612fe2565b81810360208301526132258189612e28565b905081810360408301526132398188612f41565b9050818103606083015261324d8187612e28565b905061325c6080830186612fe2565b61326960a0830185612fe2565b61327660c0830184612fe2565b98975050505050505050565b600060e082019050613297600083018a612fe2565b6132a46020830189612fe2565b6132b16040830188612fe2565b81810360608301526132c38187612e28565b90506132d26080830186612fe2565b6132df60a0830185612dd1565b6132ec60c0830184612fe2565b98975050505050505050565b600060a08201905061330d6000830188612fe2565b61331a6020830187612fe2565b6133276040830186612fe2565b6133346060830185612fe2565b6133416080830184612dd1565b9695505050505050565b600061010082019050613361600083018b612fe2565b61336e602083018a612fe2565b61337b6040830189612fe2565b6133886060830188612fe2565b6133956080830187612fe2565b6133a260a0830186612fe2565b6133af60c0830185612fe2565b6133bc60e0830184612fe2565b9998505050505050505050565b60006133d36133e4565b90506133df82826136f0565b919050565b6000604051905090565b600067ffffffffffffffff82111561340957613408613826565b5b602082029050602081019050919050565b600067ffffffffffffffff82111561343557613434613826565b5b61343e82613855565b9050602081019050919050565b6000819050602082019050919050565b600081519050919050565b600081519050919050565b6000602082019050919050565b600082825260208201905092915050565b600082825260208201905092915050565b600082825260208201905092915050565b600081905092915050565b60006134c78261363c565b91506134d28361363c565b9250827fffffffffffffffffffffffffffffffffffffffffffffffffffffffffffffffff038211156135075761350661376a565b5b828201905092915050565b600061351d8261363c565b91506135288361363c565b92508261353857613537613799565b5b828204905092915050565b600061354e8261363c565b91506135598361363c565b9250817fffffffffffffffffffffffffffffffffffffffffffffffffffffffffffffffff04831182151516156135925761359161376a565b5b828202905092915050565b60006135a88261363c565b91506135b38361363c565b9250828210156135c6576135c561376a565b5b828203905092915050565b60006135dc8261361c565b9050919050565b60008190506135f182613959565b919050565b60008190506136048261396d565b919050565b600081905061361782613981565b919050565b600073ffffffffffffffffffffffffffffffffffffffff82169050919050565b6000819050919050565b6000613651826135e3565b9050919050565b6000613663826135f6565b9050919050565b600061367582613609565b9050919050565b82818337600083830152505050565b60005b838110156136a957808201518184015260208101905061368e565b838111156136b8576000848401525b50505050565b600060028204905060018216806136d657607f821691505b602082108114156136ea576136e96137f7565b5b50919050565b6136f982613855565b810181811067ffffffffffffffff8211171561371857613717613826565b5b80604052505050565b600061372c8261363c565b91507fffffffffffffffffffffffffffffffffffffffffffffffffffffffffffffffff82141561375f5761375e61376a565b5b600182019050919050565b7f4e487b7100000000000000000000000000000000000000000000000000000000600052601160045260246000fd5b7f4e487b7100000000000000000000000000000000000000000000000000000000600052601260045260246000fd5b7f4e487b7100000000000000000000000000000000000000000000000000000000600052602160045260246000fd5b7f4e487b7100000000000000000000000000000000000000000000000000000000600052602260045260246000fd5b7f4e487b7100000000000000000000000000000000000000000000000000000000600052604160045260246000fd5b6000601f19601f8301169050919050565b7f41746c656173742037206d656d62657273207265717569726564000000000000600082015250565b7f5573657220697320616c7265616479206e6f7420612070617274206f6620746860008201527f6520534847000000000000000000000000000000000000000000000000000000602082015250565b7f5573657220616c72656164792061646465640000000000000000000000000000600082015250565b7f556e617070726f76656420726571756573740000000000000000000000000000600082015250565b7f556e617574686f72697a65642072657165737400000000000000000000000000600082015250565b6003811061396a576139696137c8565b5b50565b6004811061397e5761397d6137c8565b5b50565b60068110613992576139916137c8565b5b50565b61399e816135d1565b81146139a957600080fd5b50565b600681106139b957600080fd5b50565b6139c58161363c565b81146139d057600080fd5b5056fea264697066735822122052eb01fa08011431bea1ea069ce2b7500ce661d4e40a1dd2838faf533a62061a64736f6c63430008040033",
  "immutableReferences": {},
  "source": "// SPDX-License-Identifier: MIT\npragma solidity ^0.8.1;\n\nimport \"./structs.sol\";\nimport \"./helpers.sol\";\nimport \"./modifiers.sol\";\n\ncontract SHG is structs, helpers, modifiers {\n    function addSHG(\n        uint256[] memory members,\n        uint256 president,\n        uint256 treasurer,\n        string memory name,\n        string memory _state,\n        string memory _district,\n        string memory _blockName,\n        string memory _panchyatName,\n        string memory _villageName,\n        string memory dateOfFormation,\n        uint256 _baseIntrest\n    ) public {\n        require(members.length >= 7, \"Atleast 7 members required\");\n        uint256 id = ++numSHGs;\n\n        Location memory newlocation = Location({\n            state: _state,\n            district: _district,\n            blockName: _blockName,\n            panchyatName: _panchyatName,\n            villageName: _villageName\n        });\n\n        shgs[id] = SHG(\n            id,\n            members,\n            name,\n            newlocation,\n            dateOfFormation,\n            0,\n            0,\n            new uint256[](0),\n            new uint256[](0),\n            _baseIntrest\n        );\n        for (uint256 i = 0; i < members.length; i++) {\n            uint256 userid = members[i];\n            users[userid].userType = UserType.MEMBER;\n            if (userid == president)\n                users[userid].userType = UserType.PRESIDENT;\n            if (userid == treasurer)\n                users[userid].userType = UserType.TREASURER;\n            addressToSHGid[users[userid].walletAddress] = numSHGs;\n        }\n        districtToSHGs[_district].push(id);\n    }\n\n    function addSHGMember(uint256 userid, uint256 shg) public {\n        require(users[userid].shgid == shg, \"User already added\");\n        users[userid].shgid = shg;\n        users[userid].userType = UserType.MEMBER;\n        shgs[shg].users.push(userid);\n    }\n\n    function removeSHGMember(uint256 userid, uint256 shgid) public {\n        SHG storage shg = shgs[shgid];\n        require(\n            check(shg.users, shgid),\n            \"User is already not a part of the SHG\"\n        );\n\n        uint256 index = getIndex(shg.users, userid);\n        uint256[] memory newusers = deleteIndex(shg.users, index);\n        shg.users = newusers;\n    }\n\n    function updateMemberRole(uint256 id, UserType updatedType) public {\n        // TODO: add requires\n        users[id].userType = updatedType;\n    }\n\n    function sendGrant(uint256 _requestid) public {\n        require(\n            users[addressToUser[msg.sender]].userType == UserType.TREASURER,\n            \"Unauthorized reqest\"\n        );\n        require(\n            userRequests[_requestid].status == RequestStatus.APPROVED,\n            \"Unapproved request\"\n        );\n        UserRequest storage request = userRequests[_requestid];\n\n        request.status = RequestStatus.COMPLETED;\n\n        Loan memory newLoan = Loan({\n            loanId: ++numLoans,\n            lenderId: request.SHGId,\n            amount: request.amount,\n            lendeeId: request.userId,\n            intrest: shgs[request.SHGId].baseIntrest,\n            loanTime: request.loanTime,\n            date: block.timestamp,\n            lastEMI: 0\n        });\n\n        loans[numLoans] = newLoan;\n        shgs[request.SHGId].loansGiven.push(numLoans);\n        users[request.userId].loansTaken.push(numLoans);\n\n        require(shgs[request.SHGId].currentBalance >= request.amount);\n        payable(users[request.userId].walletAddress).transfer(request.amount);\n        shgs[request.SHGId].currentBalance -= request.amount;\n    }\n\n    function checkApproval(uint256 _requestid) internal view returns (bool) {\n        uint256[] storage approvals = userRequests[_requestid].approvals;\n\n        for (uint256 i = 0; i < approvals.length; i++) {\n            if (approvals[i] == addressToUser[msg.sender]) {\n                return false;\n            }\n        }\n\n        return true;\n    }\n\n    function approveRequest(uint256 _requestid, uint256 _shgid)\n        public\n        onlySHG(_shgid)\n    {\n        UserRequest storage request = userRequests[_requestid];\n        require(request.SHGId == _shgid);\n\n        require(checkApproval(_requestid));\n        request.approvals.push(addressToUser[msg.sender]);\n\n        if (request.approvals.length > shgs[_shgid].users.length / 2) {\n            request.status = RequestStatus.APPROVED;\n        }\n    }\n\n    function sendRequestToBank(\n        uint256 _shgid,\n        uint256 _amount,\n        uint256 _loanTime\n    ) public onlySHG(_shgid) {\n        require(users[addressToUser[msg.sender]].shgid == _shgid);\n        uint256 reqid = numSHGRequests++;\n        shgRequests[reqid] = SHGRequest(\n            reqid,\n            _shgid,\n            _amount,\n            _loanTime,\n            RequestStatus.IN_PROCESS\n        );\n        shgs[_shgid].loansTaken.push(reqid);\n    }\n\n    function shgPayEMI(\n        uint256 _shgid,\n        uint256 _loanid,\n        uint256 _amount\n    ) public onlySHG(_shgid) {\n        uint256 amount = getSHGEMI(_shgid, _loanid);\n        require(amount == _amount);\n        Loan storage loan = loans[_loanid];\n        payable(address(this)).transfer(_amount);\n        shgs[loan.lendeeId].currentBalance += _amount;\n        loan.lastEMI = block.timestamp;\n    }\n\n    // fetch functions\n    function getSHGEMI(uint256 _shgid, uint256 _loanid)\n        public\n        onlySHG(_shgid)\n        returns (uint256)\n    {\n        Loan storage loan = loans[_loanid];\n        uint256 months = ((block.timestamp - loan.lastEMI) / 24) * 60 * 60 * 30;\n\n        require(months > 0);\n        uint256 P = loan.amount;\n        uint256 r = loan.intrest;\n        uint256 t = loan.loanTime;\n        uint256 emi = (P * (1 + ((r / 100) * 12))) ^ ((12 * t) - P);\n\n        loan.amount = loan.amount - emi;\n        return emi;\n    }\n\n    function getSHGMembers(uint256 shgid)\n        public\n        view\n        returns (uint256[] memory)\n    {\n        return shgs[shgid].users;\n    }\n\n    function shgsOfDistrict(string memory district)\n        public\n        view\n        returns (uint256[] memory)\n    {\n        return districtToSHGs[district];\n    }\n}\n",
  "sourcePath": "/home/sdas/code/yogdaan-contracts/contracts/lib/SHG.sol",
  "compiler": {
    "name": "solc",
    "version": "0.8.4+commit.c7e474f2.Emscripten.clang"
  },
  "schemaVersion": "3.4.9",
  "updatedAt": "2022-08-25T19:03:09.009Z",
  "devdoc": {
    "kind": "dev",
    "methods": {},
    "version": 1
  },
  "userdoc": {
    "kind": "user",
    "methods": {},
    "version": 1
  }
}