{
  "contractName": "SHG",
  "abi": [
    {
      "inputs": [
        {
          "internalType": "address",
          "name": "",
          "type": "address"
        }
      ],
      "name": "addressToBankid",
      "outputs": [
        {
          "internalType": "uint256",
          "name": "",
          "type": "uint256"
        }
      ],
      "stateMutability": "view",
      "type": "function"
    },
    {
      "inputs": [
        {
          "internalType": "address",
          "name": "",
          "type": "address"
        }
      ],
      "name": "addressToSHGid",
      "outputs": [
        {
          "internalType": "uint256",
          "name": "",
          "type": "uint256"
        }
      ],
      "stateMutability": "view",
      "type": "function"
    },
    {
      "inputs": [
        {
          "internalType": "address",
          "name": "",
          "type": "address"
        }
      ],
      "name": "addressToUser",
      "outputs": [
        {
          "internalType": "uint256",
          "name": "",
          "type": "uint256"
        }
      ],
      "stateMutability": "view",
      "type": "function"
    },
    {
      "inputs": [
        {
          "internalType": "uint256",
          "name": "",
          "type": "uint256"
        }
      ],
      "name": "banks",
      "outputs": [
        {
          "internalType": "uint256",
          "name": "id",
          "type": "uint256"
        },
        {
          "internalType": "string",
          "name": "name",
          "type": "string"
        },
        {
          "internalType": "address",
          "name": "walletAddress",
          "type": "address"
        },
        {
          "internalType": "string",
          "name": "code",
          "type": "string"
        },
        {
          "internalType": "uint256",
          "name": "intrestRate",
          "type": "uint256"
        }
      ],
      "stateMutability": "view",
      "type": "function"
    },
    {
      "inputs": [
        {
          "internalType": "uint256",
          "name": "",
          "type": "uint256"
        }
      ],
      "name": "loans",
      "outputs": [
        {
          "internalType": "uint256",
          "name": "loanId",
          "type": "uint256"
        },
        {
          "internalType": "uint256",
          "name": "lenderId",
          "type": "uint256"
        },
        {
          "internalType": "uint256",
          "name": "amount",
          "type": "uint256"
        },
        {
          "internalType": "uint256",
          "name": "lendeeId",
          "type": "uint256"
        },
        {
          "internalType": "uint256",
          "name": "intrest",
          "type": "uint256"
        },
        {
          "internalType": "uint256",
          "name": "loanTime",
          "type": "uint256"
        },
        {
          "internalType": "uint256",
          "name": "date",
          "type": "uint256"
        },
        {
          "internalType": "uint256",
          "name": "lastEMI",
          "type": "uint256"
        }
      ],
      "stateMutability": "view",
      "type": "function"
    },
    {
      "inputs": [
        {
          "internalType": "uint256",
          "name": "",
          "type": "uint256"
        }
      ],
      "name": "shgRequests",
      "outputs": [
        {
          "internalType": "uint256",
          "name": "requestid",
          "type": "uint256"
        },
        {
          "internalType": "uint256",
          "name": "shgid",
          "type": "uint256"
        },
        {
          "internalType": "uint256",
          "name": "amount",
          "type": "uint256"
        },
        {
          "internalType": "uint256",
          "name": "loanTime",
          "type": "uint256"
        },
        {
          "internalType": "enum structs.RequestStatus",
          "name": "status",
          "type": "uint8"
        }
      ],
      "stateMutability": "view",
      "type": "function"
    },
    {
      "inputs": [
        {
          "internalType": "uint256",
          "name": "",
          "type": "uint256"
        }
      ],
      "name": "shgs",
      "outputs": [
        {
          "internalType": "uint256",
          "name": "id",
          "type": "uint256"
        },
        {
          "internalType": "string",
          "name": "name",
          "type": "string"
        },
        {
          "components": [
            {
              "internalType": "string",
              "name": "state",
              "type": "string"
            },
            {
              "internalType": "string",
              "name": "district",
              "type": "string"
            },
            {
              "internalType": "string",
              "name": "blockName",
              "type": "string"
            },
            {
              "internalType": "string",
              "name": "panchyatName",
              "type": "string"
            },
            {
              "internalType": "string",
              "name": "villageName",
              "type": "string"
            }
          ],
          "internalType": "struct structs.Location",
          "name": "location",
          "type": "tuple"
        },
        {
          "internalType": "string",
          "name": "dateOfFormation",
          "type": "string"
        },
        {
          "internalType": "uint256",
          "name": "currentBalance",
          "type": "uint256"
        },
        {
          "internalType": "uint256",
          "name": "owedBalance",
          "type": "uint256"
        },
        {
          "internalType": "uint256",
          "name": "baseIntrest",
          "type": "uint256"
        }
      ],
      "stateMutability": "view",
      "type": "function"
    },
    {
      "inputs": [
        {
          "internalType": "string",
          "name": "",
          "type": "string"
        },
        {
          "internalType": "uint256",
          "name": "",
          "type": "uint256"
        }
      ],
      "name": "shgsOfDistrict",
      "outputs": [
        {
          "internalType": "uint256",
          "name": "",
          "type": "uint256"
        }
      ],
      "stateMutability": "view",
      "type": "function"
    },
    {
      "inputs": [
        {
          "internalType": "uint256",
          "name": "",
          "type": "uint256"
        }
      ],
      "name": "userRequests",
      "outputs": [
        {
          "internalType": "uint256",
          "name": "requestId",
          "type": "uint256"
        },
        {
          "internalType": "uint256",
          "name": "userId",
          "type": "uint256"
        },
        {
          "internalType": "uint256",
          "name": "amount",
          "type": "uint256"
        },
        {
          "internalType": "string",
          "name": "description",
          "type": "string"
        },
        {
          "internalType": "uint256",
          "name": "SHGId",
          "type": "uint256"
        },
        {
          "internalType": "enum structs.RequestStatus",
          "name": "status",
          "type": "uint8"
        },
        {
          "internalType": "uint256",
          "name": "loanTime",
          "type": "uint256"
        }
      ],
      "stateMutability": "view",
      "type": "function"
    },
    {
      "inputs": [
        {
          "internalType": "uint256",
          "name": "",
          "type": "uint256"
        }
      ],
      "name": "users",
      "outputs": [
        {
          "internalType": "uint256",
          "name": "id",
          "type": "uint256"
        },
        {
          "internalType": "string",
          "name": "name",
          "type": "string"
        },
        {
          "internalType": "string",
          "name": "aadhar",
          "type": "string"
        },
        {
          "internalType": "uint256",
          "name": "mobno",
          "type": "uint256"
        },
        {
          "internalType": "string",
          "name": "fatherName",
          "type": "string"
        },
        {
          "internalType": "address",
          "name": "walletAddress",
          "type": "address"
        },
        {
          "internalType": "uint256",
          "name": "shgid",
          "type": "uint256"
        },
        {
          "internalType": "enum structs.UserType",
          "name": "userType",
          "type": "uint8"
        },
        {
          "internalType": "enum structs.Gender",
          "name": "gender",
          "type": "uint8"
        },
        {
          "components": [
            {
              "internalType": "string",
              "name": "state",
              "type": "string"
            },
            {
              "internalType": "string",
              "name": "district",
              "type": "string"
            },
            {
              "internalType": "string",
              "name": "blockName",
              "type": "string"
            },
            {
              "internalType": "string",
              "name": "panchyatName",
              "type": "string"
            },
            {
              "internalType": "string",
              "name": "villageName",
              "type": "string"
            }
          ],
          "internalType": "struct structs.Location",
          "name": "location",
          "type": "tuple"
        }
      ],
      "stateMutability": "view",
      "type": "function"
    },
    {
      "inputs": [
        {
          "internalType": "uint256[]",
          "name": "members",
          "type": "uint256[]"
        },
        {
          "internalType": "uint256",
          "name": "president",
          "type": "uint256"
        },
        {
          "internalType": "uint256",
          "name": "treasurer",
          "type": "uint256"
        },
        {
          "internalType": "string",
          "name": "name",
          "type": "string"
        },
        {
          "internalType": "string",
          "name": "_state",
          "type": "string"
        },
        {
          "internalType": "string",
          "name": "_district",
          "type": "string"
        },
        {
          "internalType": "string",
          "name": "_blockName",
          "type": "string"
        },
        {
          "internalType": "string",
          "name": "_panchyatName",
          "type": "string"
        },
        {
          "internalType": "string",
          "name": "_villageName",
          "type": "string"
        },
        {
          "internalType": "string",
          "name": "dateOfFormation",
          "type": "string"
        },
        {
          "internalType": "uint256",
          "name": "_baseIntrest",
          "type": "uint256"
        }
      ],
      "name": "addSHG",
      "outputs": [],
      "stateMutability": "nonpayable",
      "type": "function"
    },
    {
      "inputs": [
        {
          "internalType": "uint256",
          "name": "userid",
          "type": "uint256"
        },
        {
          "internalType": "uint256",
          "name": "shg",
          "type": "uint256"
        }
      ],
      "name": "addSHGMember",
      "outputs": [],
      "stateMutability": "nonpayable",
      "type": "function"
    },
    {
      "inputs": [
        {
          "internalType": "uint256",
          "name": "userid",
          "type": "uint256"
        },
        {
          "internalType": "uint256",
          "name": "shgid",
          "type": "uint256"
        }
      ],
      "name": "removeSHGMember",
      "outputs": [],
      "stateMutability": "nonpayable",
      "type": "function"
    },
    {
      "inputs": [
        {
          "internalType": "uint256",
          "name": "id",
          "type": "uint256"
        },
        {
          "internalType": "enum structs.UserType",
          "name": "updatedType",
          "type": "uint8"
        }
      ],
      "name": "updateMemberRole",
      "outputs": [],
      "stateMutability": "nonpayable",
      "type": "function"
    },
    {
      "inputs": [
        {
          "internalType": "uint256",
          "name": "_requestid",
          "type": "uint256"
        }
      ],
      "name": "sendGrant",
      "outputs": [],
      "stateMutability": "nonpayable",
      "type": "function"
    },
    {
      "inputs": [
        {
          "internalType": "uint256",
          "name": "_requestid",
          "type": "uint256"
        },
        {
          "internalType": "uint256",
          "name": "_shgid",
          "type": "uint256"
        }
      ],
      "name": "approveRequest",
      "outputs": [],
      "stateMutability": "nonpayable",
      "type": "function"
    },
    {
      "inputs": [
        {
          "internalType": "uint256",
          "name": "_shgid",
          "type": "uint256"
        },
        {
          "internalType": "uint256",
          "name": "_amount",
          "type": "uint256"
        },
        {
          "internalType": "uint256",
          "name": "_loanTime",
          "type": "uint256"
        }
      ],
      "name": "sendRequestToBank",
      "outputs": [],
      "stateMutability": "nonpayable",
      "type": "function"
    },
    {
      "inputs": [
        {
          "internalType": "uint256",
          "name": "_shgid",
          "type": "uint256"
        },
        {
          "internalType": "uint256",
          "name": "_loanid",
          "type": "uint256"
        },
        {
          "internalType": "uint256",
          "name": "_amount",
          "type": "uint256"
        }
      ],
      "name": "shgPayEMI",
      "outputs": [],
      "stateMutability": "nonpayable",
      "type": "function"
    },
    {
      "inputs": [
        {
          "internalType": "uint256",
          "name": "_shgid",
          "type": "uint256"
        },
        {
          "internalType": "uint256",
          "name": "_loanid",
          "type": "uint256"
        }
      ],
      "name": "getSHGEMI",
      "outputs": [
        {
          "internalType": "uint256",
          "name": "",
          "type": "uint256"
        }
      ],
      "stateMutability": "nonpayable",
      "type": "function"
    },
    {
      "inputs": [
        {
          "internalType": "uint256",
          "name": "shgid",
          "type": "uint256"
        }
      ],
      "name": "getSHGMembers",
      "outputs": [
        {
          "internalType": "uint256[]",
          "name": "",
          "type": "uint256[]"
        }
      ],
      "stateMutability": "view",
      "type": "function"
    }
  ],
  "bytecode": "0x608060405234801561001057600080fd5b50613917806100206000396000f3fe608060405234801561001057600080fd5b506004361061012b5760003560e01c8063769d0e16116100ad578063a6e90a5811610071578063a6e90a58146103a5578063af08a94f146103c1578063bc1e72ad146103f1578063e1ec3c681461040d578063edf53886146104445761012b565b8063769d0e16146102d75780637c97761a146103075780637d550bb31461033757806394169656146103535780639bbc9ab1146103895761012b565b8063365b98b2116100f4578063365b98b21461020657806339d8bed11461023f5780633ae0058f1461025b5780634f269c921461028b57806361c91b70146102a75761012b565b806285ae2b14610130578063021af39714610164578063257a170b1461018057806326271cf2146101b45780632c0a90a9146101ea575b600080fd5b61014a60048036038101906101459190612b5b565b610474565b60405161015b959493929190612ff3565b60405180910390f35b61017e60048036038101906101799190612bfc565b6105da565b005b61019a60048036038101906101959190612b5b565b6107b1565b6040516101ab959493929190613206565b60405180910390f35b6101ce60048036038101906101c99190612b5b565b6107f4565b6040516101e1979695949392919061310c565b60405180910390f35b61020460048036038101906101ff9190612bc0565b610c2a565b005b610220600480360381019061021b9190612b5b565b610d80565b6040516102369a99989796959493929190613054565b60405180910390f35b61025960048036038101906102549190612bc0565b61128a565b005b6102756004803603810190610270919061292e565b6113a0565b6040516102829190612fd8565b60405180910390f35b6102a560048036038101906102a09190612b84565b6113b8565b005b6102c160048036038101906102bc919061292e565b61141f565b6040516102ce9190612fd8565b60405180910390f35b6102f160048036038101906102ec9190612bc0565b611437565b6040516102fe9190612fd8565b60405180910390f35b610321600480360381019061031c9190612b07565b611555565b60405161032e9190612fd8565b60405180910390f35b610351600480360381019061034c9190612bfc565b61159c565b005b61036d60048036038101906103689190612b5b565b61167b565b6040516103809796959493929190613190565b60405180910390f35b6103a3600480360381019061039e9190612b5b565b611752565b005b6103bf60048036038101906103ba9190612bc0565b611bfa565b005b6103db60048036038101906103d69190612b5b565b611d8c565b6040516103e89190612f16565b60405180910390f35b61040b60048036038101906104069190612957565b611dfa565b005b61042760048036038101906104229190612b5b565b612389565b60405161043b989796959493929190613259565b60405180910390f35b61045e6004803603810190610459919061292e565b6123d1565b60405161046b9190612fd8565b60405180910390f35b600360205280600052604060002060009150905080600001549080600101805461049d906135cc565b80601f01602080910402602001604051908101604052809291908181526020018280546104c9906135cc565b80156105165780601f106104eb57610100808354040283529160200191610516565b820191906000526020600020905b8154815290600101906020018083116104f957829003601f168201915b5050505050908060020160009054906101000a900473ffffffffffffffffffffffffffffffffffffffff1690806003018054610551906135cc565b80601f016020809104026020016040519081016040528092919081815260200182805461057d906135cc565b80156105ca5780601f1061059f576101008083540402835291602001916105ca565b820191906000526020600020905b8154815290600101906020018083116105ad57829003601f168201915b5050505050908060040154905085565b826000600160008381526020019081526020016000206000015414156105ff57600080fd5b83600080600460003373ffffffffffffffffffffffffffffffffffffffff1673ffffffffffffffffffffffffffffffffffffffff168152602001908152602001600020548152602001908152602001600020600801541461065f57600080fd5b6000600d60008154809291906106749061362f565b9190505590506040518060a001604052808281526020018681526020018581526020018481526020016003808111156106d6577f4e487b7100000000000000000000000000000000000000000000000000000000600052602160045260246000fd5b815250600760008381526020019081526020016000206000820151816000015560208201518160010155604082015181600201556060820151816003015560808201518160040160006101000a81548160ff02191690836003811115610765577f4e487b7100000000000000000000000000000000000000000000000000000000600052602160045260246000fd5b021790555090505060016000868152602001908152602001600020600c018190806001815401808255809150506001900390600052602060002001600090919091909150555050505050565b60076020528060005260406000206000915090508060000154908060010154908060020154908060030154908060040160009054906101000a900460ff16905085565b600160205280600052604060002060009150905080600001549080600201805461081d906135cc565b80601f0160208091040260200160405190810160405280929190818152602001828054610849906135cc565b80156108965780601f1061086b57610100808354040283529160200191610896565b820191906000526020600020905b81548152906001019060200180831161087957829003601f168201915b505050505090806003016040518060a00160405290816000820180546108bb906135cc565b80601f01602080910402602001604051908101604052809291908181526020018280546108e7906135cc565b80156109345780601f1061090957610100808354040283529160200191610934565b820191906000526020600020905b81548152906001019060200180831161091757829003601f168201915b5050505050815260200160018201805461094d906135cc565b80601f0160208091040260200160405190810160405280929190818152602001828054610979906135cc565b80156109c65780601f1061099b576101008083540402835291602001916109c6565b820191906000526020600020905b8154815290600101906020018083116109a957829003601f168201915b505050505081526020016002820180546109df906135cc565b80601f0160208091040260200160405190810160405280929190818152602001828054610a0b906135cc565b8015610a585780601f10610a2d57610100808354040283529160200191610a58565b820191906000526020600020905b815481529060010190602001808311610a3b57829003601f168201915b50505050508152602001600382018054610a71906135cc565b80601f0160208091040260200160405190810160405280929190818152602001828054610a9d906135cc565b8015610aea5780601f10610abf57610100808354040283529160200191610aea565b820191906000526020600020905b815481529060010190602001808311610acd57829003601f168201915b50505050508152602001600482018054610b03906135cc565b80601f0160208091040260200160405190810160405280929190818152602001828054610b2f906135cc565b8015610b7c5780601f10610b5157610100808354040283529160200191610b7c565b820191906000526020600020905b815481529060010190602001808311610b5f57829003601f168201915b50505050508152505090806008018054610b95906135cc565b80601f0160208091040260200160405190810160405280929190818152602001828054610bc1906135cc565b8015610c0e5780601f10610be357610100808354040283529160200191610c0e565b820191906000526020600020905b815481529060010190602001808311610bf157829003601f168201915b50505050509080600901549080600a01549080600d0154905087565b80600060016000838152602001908152602001600020600001541415610c4f57600080fd5b600060066000858152602001908152602001600020905082816004015414610c7657600080fd5b610c7f846123e9565b610c8857600080fd5b80600701600460003373ffffffffffffffffffffffffffffffffffffffff1673ffffffffffffffffffffffffffffffffffffffff16815260200190815260200160002054908060018154018082558091505060019003906000526020600020016000909190919091505560026001600085815260200190815260200160002060010180549050610d189190613420565b81600701805490501115610d7a5760008160050160006101000a81548160ff02191690836003811115610d74577f4e487b7100000000000000000000000000000000000000000000000000000000600052602160045260246000fd5b02179055505b50505050565b6000602052806000526040600020600091509050806000015490806001018054610da9906135cc565b80601f0160208091040260200160405190810160405280929190818152602001828054610dd5906135cc565b8015610e225780601f10610df757610100808354040283529160200191610e22565b820191906000526020600020905b815481529060010190602001808311610e0557829003601f168201915b505050505090806002018054610e37906135cc565b80601f0160208091040260200160405190810160405280929190818152602001828054610e63906135cc565b8015610eb05780601f10610e8557610100808354040283529160200191610eb0565b820191906000526020600020905b815481529060010190602001808311610e9357829003601f168201915b505050505090806003015490806004018054610ecb906135cc565b80601f0160208091040260200160405190810160405280929190818152602001828054610ef7906135cc565b8015610f445780601f10610f1957610100808354040283529160200191610f44565b820191906000526020600020905b815481529060010190602001808311610f2757829003601f168201915b5050505050908060050160009054906101000a900473ffffffffffffffffffffffffffffffffffffffff16908060080154908060090160009054906101000a900460ff16908060090160019054906101000a900460ff169080600a016040518060a0016040529081600082018054610fbb906135cc565b80601f0160208091040260200160405190810160405280929190818152602001828054610fe7906135cc565b80156110345780601f1061100957610100808354040283529160200191611034565b820191906000526020600020905b81548152906001019060200180831161101757829003601f168201915b5050505050815260200160018201805461104d906135cc565b80601f0160208091040260200160405190810160405280929190818152602001828054611079906135cc565b80156110c65780601f1061109b576101008083540402835291602001916110c6565b820191906000526020600020905b8154815290600101906020018083116110a957829003601f168201915b505050505081526020016002820180546110df906135cc565b80601f016020809104026020016040519081016040528092919081815260200182805461110b906135cc565b80156111585780601f1061112d57610100808354040283529160200191611158565b820191906000526020600020905b81548152906001019060200180831161113b57829003601f168201915b50505050508152602001600382018054611171906135cc565b80601f016020809104026020016040519081016040528092919081815260200182805461119d906135cc565b80156111ea5780601f106111bf576101008083540402835291602001916111ea565b820191906000526020600020905b8154815290600101906020018083116111cd57829003601f168201915b50505050508152602001600482018054611203906135cc565b80601f016020809104026020016040519081016040528092919081815260200182805461122f906135cc565b801561127c5780601f106112515761010080835404028352916020019161127c565b820191906000526020600020905b81548152906001019060200180831161125f57829003601f168201915b50505050508152505090508a565b8060008084815260200190815260200160002060080154146112e1576040517f08c379a00000000000000000000000000000000000000000000000000000000081526004016112d890612f78565b60405180910390fd5b8060008084815260200190815260200160002060080181905550600360008084815260200190815260200160002060090160006101000a81548160ff0219169083600581111561135a577f4e487b7100000000000000000000000000000000000000000000000000000000600052602160045260246000fd5b0217905550600160008281526020019081526020016000206001018290806001815401808255809150506001900390600052602060002001600090919091909150555050565b60086020528060005260406000206000915090505481565b8060008084815260200190815260200160002060090160006101000a81548160ff02191690836005811115611416577f4e487b7100000000000000000000000000000000000000000000000000000000600052602160045260246000fd5b02179055505050565b60096020528060005260406000206000915090505481565b60008260006001600083815260200190815260200160002060000154141561145e57600080fd5b60006005600085815260200190815260200160002090506000601e603c80601885600701544261148e91906134ab565b6114989190613420565b6114a29190613451565b6114ac9190613451565b6114b69190613451565b9050600081116114c557600080fd5b60008260020154905060008360040154905060008460050154905060008382600c6114f09190613451565b6114fa91906134ab565b600c6064856115099190613420565b6115139190613451565b600161151f91906133ca565b8561152a9190613451565b18905080866002015461153d91906134ab565b86600201819055508097505050505050505092915050565b600282805160208101820180518482526020830160208501208183528095505050505050818154811061158757600080fd5b90600052602060002001600091509150505481565b826000600160008381526020019081526020016000206000015414156115c157600080fd5b60006115cd8585611437565b90508281146115db57600080fd5b60006005600086815260200190815260200160002090503073ffffffffffffffffffffffffffffffffffffffff166108fc859081150290604051600060405180830381858888f19350505050158015611638573d6000803e3d6000fd5b50836001600083600301548152602001908152602001600020600901600082825461166391906133ca565b92505081905550428160070181905550505050505050565b60066020528060005260406000206000915090508060000154908060010154908060020154908060030180546116b0906135cc565b80601f01602080910402602001604051908101604052809291908181526020018280546116dc906135cc565b80156117295780601f106116fe57610100808354040283529160200191611729565b820191906000526020600020905b81548152906001019060200180831161170c57829003601f168201915b5050505050908060040154908060050160009054906101000a900460ff16908060060154905087565b6002600581111561178c577f4e487b7100000000000000000000000000000000000000000000000000000000600052602160045260246000fd5b600080600460003373ffffffffffffffffffffffffffffffffffffffff1673ffffffffffffffffffffffffffffffffffffffff16815260200190815260200160002054815260200190815260200160002060090160009054906101000a900460ff166005811115611826577f4e487b7100000000000000000000000000000000000000000000000000000000600052602160045260246000fd5b14611866576040517f08c379a000000000000000000000000000000000000000000000000000000000815260040161185d90612fb8565b60405180910390fd5b600060038111156118a0577f4e487b7100000000000000000000000000000000000000000000000000000000600052602160045260246000fd5b6006600083815260200190815260200160002060050160009054906101000a900460ff1660038111156118fc577f4e487b7100000000000000000000000000000000000000000000000000000000600052602160045260246000fd5b1461193c576040517f08c379a000000000000000000000000000000000000000000000000000000000815260040161193390612f98565b60405180910390fd5b600060066000838152602001908152602001600020905060018160050160006101000a81548160ff021916908360038111156119a1577f4e487b7100000000000000000000000000000000000000000000000000000000600052602160045260246000fd5b02179055506000604051806101000160405280600f600081546119c39061362f565b91905081905581526020018360040154815260200183600201548152602001836001015481526020016001600085600401548152602001908152602001600020600d0154815260200183600601548152602001428152602001600081525090508060056000600f548152602001908152602001600020600082015181600001556020820151816001015560408201518160020155606082015181600301556080820151816004015560a0820151816005015560c0820151816006015560e082015181600701559050506001600083600401548152602001908152602001600020600b01600f54908060018154018082558091505060019003906000526020600020016000909190919091505560008083600101548152602001908152602001600020600601600f54908060018154018082558091505060019003906000526020600020016000909190919091505581600201546001600084600401548152602001908152602001600020600901541015611b3c57600080fd5b6000808360010154815260200190815260200160002060050160009054906101000a900473ffffffffffffffffffffffffffffffffffffffff1673ffffffffffffffffffffffffffffffffffffffff166108fc83600201549081150290604051600060405180830381858888f19350505050158015611bbf573d6000803e3d6000fd5b50816002015460016000846004015481526020019081526020016000206009016000828254611bee91906134ab565b92505081905550505050565b6000600160008381526020019081526020016000209050611c6d81600101805480602002602001604051908101604052809291908181526020018280548015611c6257602002820191906000526020600020905b815481526020019060010190808311611c4e575b5050505050836124c7565b611cac576040517f08c379a0000000000000000000000000000000000000000000000000000000008152600401611ca390612f58565b60405180910390fd5b6000611d0a82600101805480602002602001604051908101604052809291908181526020018280548015611cff57602002820191906000526020600020905b815481526020019060010190808311611ceb575b505050505085612555565b90506000611d6a83600101805480602002602001604051908101604052809291908181526020018280548015611d5f57602002820191906000526020600020905b815481526020019060010190808311611d4b575b5050505050836125d6565b905080836001019080519060200190611d84929190612701565b505050505050565b606060016000838152602001908152602001600020600101805480602002602001604051908101604052809291908181526020018280548015611dee57602002820191906000526020600020905b815481526020019060010190808311611dda575b50505050509050919050565b60078b511015611e3f576040517f08c379a0000000000000000000000000000000000000000000000000000000008152600401611e3690612f38565b60405180910390fd5b6000600b60008154611e509061362f565b919050819055905060006040518060a001604052808a81526020018981526020018881526020018781526020018681525090506040518061014001604052808381526020018e81526020018b81526020018281526020018581526020016000815260200160008152602001600067ffffffffffffffff811115611efc577f4e487b7100000000000000000000000000000000000000000000000000000000600052604160045260246000fd5b604051908082528060200260200182016040528015611f2a5781602001602082028036833780820191505090505b508152602001600067ffffffffffffffff811115611f71577f4e487b7100000000000000000000000000000000000000000000000000000000600052604160045260246000fd5b604051908082528060200260200182016040528015611f9f5781602001602082028036833780820191505090505b5081526020018481525060016000848152602001908152602001600020600082015181600001556020820151816001019080519060200190611fe2929190612701565b506040820151816002019080519060200190611fff92919061274e565b50606082015181600301600082015181600001908051906020019061202592919061274e565b50602082015181600101908051906020019061204292919061274e565b50604082015181600201908051906020019061205f92919061274e565b50606082015181600301908051906020019061207c92919061274e565b50608082015181600401908051906020019061209992919061274e565b50505060808201518160080190805190602001906120b892919061274e565b5060a0820151816009015560c082015181600a015560e082015181600b0190805190602001906120e9929190612701565b5061010082015181600c019080519060200190612107929190612701565b5061012082015181600d015590505060005b8d518110156123345760008e828151811061215d577f4e487b7100000000000000000000000000000000000000000000000000000000600052603260045260246000fd5b60200260200101519050600360008083815260200190815260200160002060090160006101000a81548160ff021916908360058111156121c6577f4e487b7100000000000000000000000000000000000000000000000000000000600052602160045260246000fd5b02179055508d81141561223857600080600083815260200190815260200160002060090160006101000a81548160ff02191690836005811115612232577f4e487b7100000000000000000000000000000000000000000000000000000000600052602160045260246000fd5b02179055505b8c8114156122a557600260008083815260200190815260200160002060090160006101000a81548160ff0219169083600581111561229f577f4e487b7100000000000000000000000000000000000000000000000000000000600052602160045260246000fd5b02179055505b600b546008600080600085815260200190815260200160002060050160009054906101000a900473ffffffffffffffffffffffffffffffffffffffff1673ffffffffffffffffffffffffffffffffffffffff1673ffffffffffffffffffffffffffffffffffffffff1681526020019081526020016000208190555050808061232c9061362f565b915050612119565b506002886040516123459190612eff565b908152602001604051809103902082908060018154018082558091505060019003906000526020600020016000909190919091505550505050505050505050505050565b60056020528060005260406000206000915090508060000154908060010154908060020154908060030154908060040154908060050154908060060154908060070154905088565b60046020528060005260406000206000915090505481565b60008060066000848152602001908152602001600020600701905060005b81805490508110156124bb57600460003373ffffffffffffffffffffffffffffffffffffffff1673ffffffffffffffffffffffffffffffffffffffff1681526020019081526020016000205482828154811061248c577f4e487b7100000000000000000000000000000000000000000000000000000000600052603260045260246000fd5b906000526020600020015414156124a8576000925050506124c2565b80806124b39061362f565b915050612407565b5060019150505b919050565b600080600090505b600184516124dd91906134ab565b811015612549578284828151811061251e577f4e487b7100000000000000000000000000000000000000000000000000000000600052603260045260246000fd5b6020026020010151141561253657600191505061254f565b80806125419061362f565b9150506124cf565b50600090505b92915050565b600080600090505b83518110156125ca57828482815181106125a0577f4e487b7100000000000000000000000000000000000000000000000000000000600052603260045260246000fd5b602002602001015114156125b757809150506125d0565b80806125c29061362f565b91505061255d565b50600090505b92915050565b6060825182106125e557600080fd5b60008290505b600184516125f991906134ab565b8110156126a5578360018261260e91906133ca565b81518110612645577f4e487b7100000000000000000000000000000000000000000000000000000000600052603260045260246000fd5b6020026020010151848281518110612686577f4e487b7100000000000000000000000000000000000000000000000000000000600052603260045260246000fd5b602002602001018181525050808061269d9061362f565b9150506125eb565b5082600184516126b591906134ab565b815181106126ec577f4e487b7100000000000000000000000000000000000000000000000000000000600052603260045260246000fd5b60200260200101600081525082905092915050565b82805482825590600052602060002090810192821561273d579160200282015b8281111561273c578251825591602001919060010190612721565b5b50905061274a91906127d4565b5090565b82805461275a906135cc565b90600052602060002090601f01602090048101928261277c57600085556127c3565b82601f1061279557805160ff19168380011785556127c3565b828001600101855582156127c3579182015b828111156127c25782518255916020019190600101906127a7565b5b5090506127d091906127d4565b5090565b5b808211156127ed5760008160009055506001016127d5565b5090565b60006128046127ff846132fc565b6132d7565b9050808382526020820190508285602086028201111561282357600080fd5b60005b8581101561285357816128398882612919565b845260208401935060208301925050600181019050612826565b5050509392505050565b600061287061286b84613328565b6132d7565b90508281526020810184848401111561288857600080fd5b61289384828561358a565b509392505050565b6000813590506128aa816138a3565b92915050565b600082601f8301126128c157600080fd5b81356128d18482602086016127f1565b91505092915050565b6000813590506128e9816138ba565b92915050565b600082601f83011261290057600080fd5b813561291084826020860161285d565b91505092915050565b600081359050612928816138ca565b92915050565b60006020828403121561294057600080fd5b600061294e8482850161289b565b91505092915050565b60008060008060008060008060008060006101608c8e03121561297957600080fd5b60008c013567ffffffffffffffff81111561299357600080fd5b61299f8e828f016128b0565b9b505060206129b08e828f01612919565b9a505060406129c18e828f01612919565b99505060608c013567ffffffffffffffff8111156129de57600080fd5b6129ea8e828f016128ef565b98505060808c013567ffffffffffffffff811115612a0757600080fd5b612a138e828f016128ef565b97505060a08c013567ffffffffffffffff811115612a3057600080fd5b612a3c8e828f016128ef565b96505060c08c013567ffffffffffffffff811115612a5957600080fd5b612a658e828f016128ef565b95505060e08c013567ffffffffffffffff811115612a8257600080fd5b612a8e8e828f016128ef565b9450506101008c013567ffffffffffffffff811115612aac57600080fd5b612ab88e828f016128ef565b9350506101208c013567ffffffffffffffff811115612ad657600080fd5b612ae28e828f016128ef565b925050610140612af48e828f01612919565b9150509295989b509295989b9093969950565b60008060408385031215612b1a57600080fd5b600083013567ffffffffffffffff811115612b3457600080fd5b612b40858286016128ef565b9250506020612b5185828601612919565b9150509250929050565b600060208284031215612b6d57600080fd5b6000612b7b84828501612919565b91505092915050565b60008060408385031215612b9757600080fd5b6000612ba585828601612919565b9250506020612bb6858286016128da565b9150509250929050565b60008060408385031215612bd357600080fd5b6000612be185828601612919565b9250506020612bf285828601612919565b9150509250929050565b600080600060608486031215612c1157600080fd5b6000612c1f86828701612919565b9350506020612c3086828701612919565b9250506040612c4186828701612919565b9150509250925092565b6000612c578383612ee1565b60208301905092915050565b612c6c816134df565b82525050565b6000612c7d82613369565b612c87818561338c565b9350612c9283613359565b8060005b83811015612cc3578151612caa8882612c4b565b9750612cb58361337f565b925050600181019050612c96565b5085935050505092915050565b612cd981613554565b82525050565b612ce881613566565b82525050565b612cf781613578565b82525050565b6000612d0882613374565b612d12818561339d565b9350612d22818560208601613599565b612d2b81613763565b840191505092915050565b6000612d4182613374565b612d4b81856133ae565b9350612d5b818560208601613599565b612d6481613763565b840191505092915050565b6000612d7a82613374565b612d8481856133bf565b9350612d94818560208601613599565b80840191505092915050565b6000612dad601a836133ae565b9150612db882613774565b602082019050919050565b6000612dd06025836133ae565b9150612ddb8261379d565b604082019050919050565b6000612df36012836133ae565b9150612dfe826137ec565b602082019050919050565b6000612e166012836133ae565b9150612e2182613815565b602082019050919050565b6000612e396013836133ae565b9150612e448261383e565b602082019050919050565b600060a0830160008301518482036000860152612e6c8282612cfd565b91505060208301518482036020860152612e868282612cfd565b91505060408301518482036040860152612ea08282612cfd565b91505060608301518482036060860152612eba8282612cfd565b91505060808301518482036080860152612ed48282612cfd565b9150508091505092915050565b612eea8161354a565b82525050565b612ef98161354a565b82525050565b6000612f0b8284612d6f565b915081905092915050565b60006020820190508181036000830152612f308184612c72565b905092915050565b60006020820190508181036000830152612f5181612da0565b9050919050565b60006020820190508181036000830152612f7181612dc3565b9050919050565b60006020820190508181036000830152612f9181612de6565b9050919050565b60006020820190508181036000830152612fb181612e09565b9050919050565b60006020820190508181036000830152612fd181612e2c565b9050919050565b6000602082019050612fed6000830184612ef0565b92915050565b600060a0820190506130086000830188612ef0565b818103602083015261301a8187612d36565b90506130296040830186612c63565b818103606083015261303b8185612d36565b905061304a6080830184612ef0565b9695505050505050565b60006101408201905061306a600083018d612ef0565b818103602083015261307c818c612d36565b90508181036040830152613090818b612d36565b905061309f606083018a612ef0565b81810360808301526130b18189612d36565b90506130c060a0830188612c63565b6130cd60c0830187612ef0565b6130da60e0830186612cee565b6130e8610100830185612cd0565b8181036101208301526130fb8184612e4f565b90509b9a5050505050505050505050565b600060e082019050613121600083018a612ef0565b81810360208301526131338189612d36565b905081810360408301526131478188612e4f565b9050818103606083015261315b8187612d36565b905061316a6080830186612ef0565b61317760a0830185612ef0565b61318460c0830184612ef0565b98975050505050505050565b600060e0820190506131a5600083018a612ef0565b6131b26020830189612ef0565b6131bf6040830188612ef0565b81810360608301526131d18187612d36565b90506131e06080830186612ef0565b6131ed60a0830185612cdf565b6131fa60c0830184612ef0565b98975050505050505050565b600060a08201905061321b6000830188612ef0565b6132286020830187612ef0565b6132356040830186612ef0565b6132426060830185612ef0565b61324f6080830184612cdf565b9695505050505050565b60006101008201905061326f600083018b612ef0565b61327c602083018a612ef0565b6132896040830189612ef0565b6132966060830188612ef0565b6132a36080830187612ef0565b6132b060a0830186612ef0565b6132bd60c0830185612ef0565b6132ca60e0830184612ef0565b9998505050505050505050565b60006132e16132f2565b90506132ed82826135fe565b919050565b6000604051905090565b600067ffffffffffffffff82111561331757613316613734565b5b602082029050602081019050919050565b600067ffffffffffffffff82111561334357613342613734565b5b61334c82613763565b9050602081019050919050565b6000819050602082019050919050565b600081519050919050565b600081519050919050565b6000602082019050919050565b600082825260208201905092915050565b600082825260208201905092915050565b600082825260208201905092915050565b600081905092915050565b60006133d58261354a565b91506133e08361354a565b9250827fffffffffffffffffffffffffffffffffffffffffffffffffffffffffffffffff0382111561341557613414613678565b5b828201905092915050565b600061342b8261354a565b91506134368361354a565b925082613446576134456136a7565b5b828204905092915050565b600061345c8261354a565b91506134678361354a565b9250817fffffffffffffffffffffffffffffffffffffffffffffffffffffffffffffffff04831182151516156134a05761349f613678565b5b828202905092915050565b60006134b68261354a565b91506134c18361354a565b9250828210156134d4576134d3613678565b5b828203905092915050565b60006134ea8261352a565b9050919050565b60008190506134ff82613867565b919050565b60008190506135128261387b565b919050565b60008190506135258261388f565b919050565b600073ffffffffffffffffffffffffffffffffffffffff82169050919050565b6000819050919050565b600061355f826134f1565b9050919050565b600061357182613504565b9050919050565b600061358382613517565b9050919050565b82818337600083830152505050565b60005b838110156135b757808201518184015260208101905061359c565b838111156135c6576000848401525b50505050565b600060028204905060018216806135e457607f821691505b602082108114156135f8576135f7613705565b5b50919050565b61360782613763565b810181811067ffffffffffffffff8211171561362657613625613734565b5b80604052505050565b600061363a8261354a565b91507fffffffffffffffffffffffffffffffffffffffffffffffffffffffffffffffff82141561366d5761366c613678565b5b600182019050919050565b7f4e487b7100000000000000000000000000000000000000000000000000000000600052601160045260246000fd5b7f4e487b7100000000000000000000000000000000000000000000000000000000600052601260045260246000fd5b7f4e487b7100000000000000000000000000000000000000000000000000000000600052602160045260246000fd5b7f4e487b7100000000000000000000000000000000000000000000000000000000600052602260045260246000fd5b7f4e487b7100000000000000000000000000000000000000000000000000000000600052604160045260246000fd5b6000601f19601f8301169050919050565b7f41746c656173742037206d656d62657273207265717569726564000000000000600082015250565b7f5573657220697320616c7265616479206e6f7420612070617274206f6620746860008201527f6520534847000000000000000000000000000000000000000000000000000000602082015250565b7f5573657220616c72656164792061646465640000000000000000000000000000600082015250565b7f556e617070726f76656420726571756573740000000000000000000000000000600082015250565b7f556e617574686f72697a65642072657165737400000000000000000000000000600082015250565b60038110613878576138776136d6565b5b50565b6004811061388c5761388b6136d6565b5b50565b600681106138a05761389f6136d6565b5b50565b6138ac816134df565b81146138b757600080fd5b50565b600681106138c757600080fd5b50565b6138d38161354a565b81146138de57600080fd5b5056fea26469706673582212202f4e553531fd7dc354e3e4ddc1cae6c77599eef0e7688c66f95cc88dd85613a664736f6c63430008040033",
  "immutableReferences": {},
  "source": "// SPDX-License-Identifier: MIT\npragma solidity ^0.8.1;\n\nimport \"./structs.sol\";\nimport \"./helpers.sol\";\nimport \"./modifiers.sol\";\n\ncontract SHG is structs, helpers, modifiers {\n    function addSHG(\n        uint256[] memory members,\n        uint256 president,\n        uint256 treasurer,\n        string memory name,\n        string memory _state,\n        string memory _district,\n        string memory _blockName,\n        string memory _panchyatName,\n        string memory _villageName,\n        string memory dateOfFormation,\n        uint256 _baseIntrest\n    ) public {\n        require(members.length >= 7, \"Atleast 7 members required\");\n        uint256 id = ++numSHGs;\n\n        Location memory newlocation = Location({\n            state: _state,\n            district: _district,\n            blockName: _blockName,\n            panchyatName: _panchyatName,\n            villageName: _villageName\n        });\n\n        shgs[id] = SHG(\n            id,\n            members,\n            name,\n            newlocation,\n            dateOfFormation,\n            0,\n            0,\n            new uint256[](0),\n            new uint256[](0),\n            _baseIntrest\n        );\n        for (uint256 i = 0; i < members.length; i++) {\n            uint256 userid = members[i];\n            users[userid].userType = UserType.MEMBER;\n            if (userid == president)\n                users[userid].userType = UserType.PRESIDENT;\n            if (userid == treasurer)\n                users[userid].userType = UserType.TREASURER;\n            addressToSHGid[users[userid].walletAddress] = numSHGs;\n        }\n        shgsOfDistrict[_district].push(id);\n    }\n\n    function addSHGMember(uint256 userid, uint256 shg) public {\n        require(users[userid].shgid == shg, \"User already added\");\n        users[userid].shgid = shg;\n        users[userid].userType = UserType.MEMBER;\n        shgs[shg].users.push(userid);\n    }\n\n    function removeSHGMember(uint256 userid, uint256 shgid) public {\n        SHG storage shg = shgs[shgid];\n        require(\n            check(shg.users, shgid),\n            \"User is already not a part of the SHG\"\n        );\n\n        uint256 index = getIndex(shg.users, userid);\n        uint256[] memory newusers = deleteIndex(shg.users, index);\n        shg.users = newusers;\n    }\n\n    function updateMemberRole(uint256 id, UserType updatedType) public {\n        // TODO: add requires\n        users[id].userType = updatedType;\n    }\n\n    function sendGrant(uint256 _requestid) public {\n        require(\n            users[addressToUser[msg.sender]].userType == UserType.TREASURER,\n            \"Unauthorized reqest\"\n        );\n        require(\n            userRequests[_requestid].status == RequestStatus.APPROVED,\n            \"Unapproved request\"\n        );\n        UserRequest storage request = userRequests[_requestid];\n\n        request.status = RequestStatus.COMPLETED;\n\n        Loan memory newLoan = Loan({\n            loanId: ++numLoans,\n            lenderId: request.SHGId,\n            amount: request.amount,\n            lendeeId: request.userId,\n            intrest: shgs[request.SHGId].baseIntrest,\n            loanTime: request.loanTime,\n            date: block.timestamp,\n            lastEMI: 0\n        });\n\n        loans[numLoans] = newLoan;\n        shgs[request.SHGId].loansGiven.push(numLoans);\n        users[request.userId].loansTaken.push(numLoans);\n\n        require(shgs[request.SHGId].currentBalance >= request.amount);\n        payable(users[request.userId].walletAddress).transfer(request.amount);\n        shgs[request.SHGId].currentBalance -= request.amount;\n    }\n\n    function checkApproval(uint256 _requestid) internal view returns (bool) {\n        uint256[] storage approvals = userRequests[_requestid].approvals;\n\n        for (uint256 i = 0; i < approvals.length; i++) {\n            if (approvals[i] == addressToUser[msg.sender]) {\n                return false;\n            }\n        }\n\n        return true;\n    }\n\n    function approveRequest(uint256 _requestid, uint256 _shgid)\n        public\n        onlySHG(_shgid)\n    {\n        UserRequest storage request = userRequests[_requestid];\n        require(request.SHGId == _shgid);\n\n        require(checkApproval(_requestid));\n        request.approvals.push(addressToUser[msg.sender]);\n\n        if (request.approvals.length > shgs[_shgid].users.length / 2) {\n            request.status = RequestStatus.APPROVED;\n        }\n    }\n\n    function sendRequestToBank(\n        uint256 _shgid,\n        uint256 _amount,\n        uint256 _loanTime\n    ) public onlySHG(_shgid) {\n        require(users[addressToUser[msg.sender]].shgid == _shgid);\n        uint256 reqid = numSHGRequests++;\n        shgRequests[reqid] = SHGRequest(\n            reqid,\n            _shgid,\n            _amount,\n            _loanTime,\n            RequestStatus.IN_PROCESS\n        );\n        shgs[_shgid].loansTaken.push(reqid);\n    }\n\n    function shgPayEMI(\n        uint256 _shgid,\n        uint256 _loanid,\n        uint256 _amount\n    ) public onlySHG(_shgid) {\n        uint256 amount = getSHGEMI(_shgid, _loanid);\n        require(amount == _amount);\n        Loan storage loan = loans[_loanid];\n        payable(address(this)).transfer(_amount);\n        shgs[loan.lendeeId].currentBalance += _amount;\n        loan.lastEMI = block.timestamp;\n    }\n\n    // fetch functions\n    function getSHGEMI(uint256 _shgid, uint256 _loanid)\n        public\n        onlySHG(_shgid)\n        returns (uint256)\n    {\n        Loan storage loan = loans[_loanid];\n        uint256 months = ((block.timestamp - loan.lastEMI) / 24) * 60 * 60 * 30;\n\n        require(months > 0);\n        uint256 P = loan.amount;\n        uint256 r = loan.intrest;\n        uint256 t = loan.loanTime;\n        uint256 emi = (P * (1 + ((r / 100) * 12))) ^ ((12 * t) - P);\n\n        loan.amount = loan.amount - emi;\n        return emi;\n    }\n\n    function getSHGMembers(uint256 shgid)\n        public\n        view\n        returns (uint256[] memory)\n    {\n        return shgs[shgid].users;\n    }\n}\n",
  "sourcePath": "/home/sdas/code/yogdaan-contracts/contracts/lib/SHG.sol",
  "compiler": {
    "name": "solc",
    "version": "0.8.4+commit.c7e474f2.Emscripten.clang"
  },
  "schemaVersion": "3.4.9",
  "updatedAt": "2022-08-25T18:42:24.413Z",
  "devdoc": {
    "kind": "dev",
    "methods": {},
    "version": 1
  },
  "userdoc": {
    "kind": "user",
    "methods": {},
    "version": 1
  }
}