{
  "contractName": "SHG",
  "abi": [
    {
      "inputs": [
        {
          "internalType": "address",
          "name": "",
          "type": "address"
        }
      ],
      "name": "addressToBankid",
      "outputs": [
        {
          "internalType": "uint256",
          "name": "",
          "type": "uint256"
        }
      ],
      "stateMutability": "view",
      "type": "function"
    },
    {
      "inputs": [
        {
          "internalType": "address",
          "name": "",
          "type": "address"
        }
      ],
      "name": "addressToSHGid",
      "outputs": [
        {
          "internalType": "uint256",
          "name": "",
          "type": "uint256"
        }
      ],
      "stateMutability": "view",
      "type": "function"
    },
    {
      "inputs": [
        {
          "internalType": "address",
          "name": "",
          "type": "address"
        }
      ],
      "name": "addressToUser",
      "outputs": [
        {
          "internalType": "uint256",
          "name": "",
          "type": "uint256"
        }
      ],
      "stateMutability": "view",
      "type": "function"
    },
    {
      "inputs": [
        {
          "internalType": "uint256",
          "name": "",
          "type": "uint256"
        }
      ],
      "name": "banks",
      "outputs": [
        {
          "internalType": "uint256",
          "name": "id",
          "type": "uint256"
        },
        {
          "internalType": "string",
          "name": "name",
          "type": "string"
        },
        {
          "internalType": "address",
          "name": "walletAddress",
          "type": "address"
        },
        {
          "internalType": "string",
          "name": "code",
          "type": "string"
        },
        {
          "internalType": "uint256",
          "name": "intrestRate",
          "type": "uint256"
        }
      ],
      "stateMutability": "view",
      "type": "function"
    },
    {
      "inputs": [
        {
          "internalType": "string",
          "name": "",
          "type": "string"
        },
        {
          "internalType": "uint256",
          "name": "",
          "type": "uint256"
        }
      ],
      "name": "districtToSHGs",
      "outputs": [
        {
          "internalType": "uint256",
          "name": "",
          "type": "uint256"
        }
      ],
      "stateMutability": "view",
      "type": "function"
    },
    {
      "inputs": [
        {
          "internalType": "uint256",
          "name": "",
          "type": "uint256"
        }
      ],
      "name": "loans",
      "outputs": [
        {
          "internalType": "uint256",
          "name": "loanId",
          "type": "uint256"
        },
        {
          "internalType": "uint256",
          "name": "lenderId",
          "type": "uint256"
        },
        {
          "internalType": "uint256",
          "name": "amount",
          "type": "uint256"
        },
        {
          "internalType": "uint256",
          "name": "lendeeId",
          "type": "uint256"
        },
        {
          "internalType": "uint256",
          "name": "intrest",
          "type": "uint256"
        },
        {
          "internalType": "uint256",
          "name": "loanTime",
          "type": "uint256"
        },
        {
          "internalType": "uint256",
          "name": "date",
          "type": "uint256"
        },
        {
          "internalType": "uint256",
          "name": "lastEMI",
          "type": "uint256"
        }
      ],
      "stateMutability": "view",
      "type": "function"
    },
    {
      "inputs": [
        {
          "internalType": "uint256",
          "name": "",
          "type": "uint256"
        }
      ],
      "name": "shgRequests",
      "outputs": [
        {
          "internalType": "uint256",
          "name": "requestid",
          "type": "uint256"
        },
        {
          "internalType": "uint256",
          "name": "shgid",
          "type": "uint256"
        },
        {
          "internalType": "uint256",
          "name": "amount",
          "type": "uint256"
        },
        {
          "internalType": "uint256",
          "name": "loanTime",
          "type": "uint256"
        },
        {
          "internalType": "enum structs.RequestStatus",
          "name": "status",
          "type": "uint8"
        }
      ],
      "stateMutability": "view",
      "type": "function"
    },
    {
      "inputs": [
        {
          "internalType": "uint256",
          "name": "",
          "type": "uint256"
        },
        {
          "internalType": "uint256",
          "name": "",
          "type": "uint256"
        }
      ],
      "name": "shgToRequests",
      "outputs": [
        {
          "internalType": "uint256",
          "name": "",
          "type": "uint256"
        }
      ],
      "stateMutability": "view",
      "type": "function"
    },
    {
      "inputs": [
        {
          "internalType": "uint256",
          "name": "",
          "type": "uint256"
        }
      ],
      "name": "shgs",
      "outputs": [
        {
          "internalType": "uint256",
          "name": "id",
          "type": "uint256"
        },
        {
          "internalType": "string",
          "name": "name",
          "type": "string"
        },
        {
          "components": [
            {
              "internalType": "string",
              "name": "state",
              "type": "string"
            },
            {
              "internalType": "string",
              "name": "district",
              "type": "string"
            },
            {
              "internalType": "string",
              "name": "blockName",
              "type": "string"
            },
            {
              "internalType": "string",
              "name": "panchyatName",
              "type": "string"
            },
            {
              "internalType": "string",
              "name": "villageName",
              "type": "string"
            }
          ],
          "internalType": "struct structs.Location",
          "name": "location",
          "type": "tuple"
        },
        {
          "internalType": "string",
          "name": "dateOfFormation",
          "type": "string"
        },
        {
          "internalType": "uint256",
          "name": "currentBalance",
          "type": "uint256"
        },
        {
          "internalType": "uint256",
          "name": "owedBalance",
          "type": "uint256"
        },
        {
          "internalType": "uint256",
          "name": "baseIntrest",
          "type": "uint256"
        }
      ],
      "stateMutability": "view",
      "type": "function"
    },
    {
      "inputs": [
        {
          "internalType": "uint256",
          "name": "",
          "type": "uint256"
        }
      ],
      "name": "userRequests",
      "outputs": [
        {
          "internalType": "uint256",
          "name": "requestId",
          "type": "uint256"
        },
        {
          "internalType": "uint256",
          "name": "userId",
          "type": "uint256"
        },
        {
          "internalType": "uint256",
          "name": "amount",
          "type": "uint256"
        },
        {
          "internalType": "string",
          "name": "description",
          "type": "string"
        },
        {
          "internalType": "uint256",
          "name": "SHGId",
          "type": "uint256"
        },
        {
          "internalType": "enum structs.RequestStatus",
          "name": "status",
          "type": "uint8"
        },
        {
          "internalType": "uint256",
          "name": "loanTime",
          "type": "uint256"
        }
      ],
      "stateMutability": "view",
      "type": "function"
    },
    {
      "inputs": [
        {
          "internalType": "uint256",
          "name": "",
          "type": "uint256"
        },
        {
          "internalType": "uint256",
          "name": "",
          "type": "uint256"
        }
      ],
      "name": "userToRequests",
      "outputs": [
        {
          "internalType": "uint256",
          "name": "",
          "type": "uint256"
        }
      ],
      "stateMutability": "view",
      "type": "function"
    },
    {
      "inputs": [
        {
          "internalType": "uint256",
          "name": "",
          "type": "uint256"
        }
      ],
      "name": "users",
      "outputs": [
        {
          "internalType": "uint256",
          "name": "id",
          "type": "uint256"
        },
        {
          "internalType": "string",
          "name": "name",
          "type": "string"
        },
        {
          "internalType": "string",
          "name": "aadhar",
          "type": "string"
        },
        {
          "internalType": "uint256",
          "name": "mobno",
          "type": "uint256"
        },
        {
          "internalType": "string",
          "name": "fatherName",
          "type": "string"
        },
        {
          "internalType": "address",
          "name": "walletAddress",
          "type": "address"
        },
        {
          "internalType": "uint256",
          "name": "shgid",
          "type": "uint256"
        },
        {
          "internalType": "enum structs.UserType",
          "name": "userType",
          "type": "uint8"
        },
        {
          "internalType": "enum structs.Gender",
          "name": "gender",
          "type": "uint8"
        },
        {
          "components": [
            {
              "internalType": "string",
              "name": "state",
              "type": "string"
            },
            {
              "internalType": "string",
              "name": "district",
              "type": "string"
            },
            {
              "internalType": "string",
              "name": "blockName",
              "type": "string"
            },
            {
              "internalType": "string",
              "name": "panchyatName",
              "type": "string"
            },
            {
              "internalType": "string",
              "name": "villageName",
              "type": "string"
            }
          ],
          "internalType": "struct structs.Location",
          "name": "location",
          "type": "tuple"
        }
      ],
      "stateMutability": "view",
      "type": "function"
    },
    {
      "inputs": [
        {
          "internalType": "uint256[]",
          "name": "members",
          "type": "uint256[]"
        },
        {
          "internalType": "uint256",
          "name": "president",
          "type": "uint256"
        },
        {
          "internalType": "uint256",
          "name": "treasurer",
          "type": "uint256"
        },
        {
          "internalType": "string",
          "name": "name",
          "type": "string"
        },
        {
          "internalType": "string",
          "name": "_state",
          "type": "string"
        },
        {
          "internalType": "string",
          "name": "_district",
          "type": "string"
        },
        {
          "internalType": "string",
          "name": "_blockName",
          "type": "string"
        },
        {
          "internalType": "string",
          "name": "_panchyatName",
          "type": "string"
        },
        {
          "internalType": "string",
          "name": "_villageName",
          "type": "string"
        },
        {
          "internalType": "string",
          "name": "dateOfFormation",
          "type": "string"
        },
        {
          "internalType": "uint256",
          "name": "_baseIntrest",
          "type": "uint256"
        }
      ],
      "name": "addSHG",
      "outputs": [],
      "stateMutability": "nonpayable",
      "type": "function"
    },
    {
      "inputs": [
        {
          "internalType": "uint256",
          "name": "userid",
          "type": "uint256"
        },
        {
          "internalType": "uint256",
          "name": "shg",
          "type": "uint256"
        }
      ],
      "name": "addSHGMember",
      "outputs": [],
      "stateMutability": "nonpayable",
      "type": "function"
    },
    {
      "inputs": [
        {
          "internalType": "uint256",
          "name": "userid",
          "type": "uint256"
        },
        {
          "internalType": "uint256",
          "name": "shgid",
          "type": "uint256"
        }
      ],
      "name": "removeSHGMember",
      "outputs": [],
      "stateMutability": "nonpayable",
      "type": "function"
    },
    {
      "inputs": [
        {
          "internalType": "uint256",
          "name": "id",
          "type": "uint256"
        },
        {
          "internalType": "enum structs.UserType",
          "name": "updatedType",
          "type": "uint8"
        }
      ],
      "name": "updateMemberRole",
      "outputs": [],
      "stateMutability": "nonpayable",
      "type": "function"
    },
    {
      "inputs": [
        {
          "internalType": "uint256",
          "name": "_requestid",
          "type": "uint256"
        }
      ],
      "name": "sendGrant",
      "outputs": [],
      "stateMutability": "nonpayable",
      "type": "function"
    },
    {
      "inputs": [
        {
          "internalType": "uint256",
          "name": "_requestid",
          "type": "uint256"
        },
        {
          "internalType": "uint256",
          "name": "_shgid",
          "type": "uint256"
        }
      ],
      "name": "approveRequest",
      "outputs": [],
      "stateMutability": "nonpayable",
      "type": "function"
    },
    {
      "inputs": [
        {
          "internalType": "uint256",
          "name": "_shgid",
          "type": "uint256"
        },
        {
          "internalType": "uint256",
          "name": "_amount",
          "type": "uint256"
        },
        {
          "internalType": "uint256",
          "name": "_loanTime",
          "type": "uint256"
        }
      ],
      "name": "sendRequestToBank",
      "outputs": [],
      "stateMutability": "nonpayable",
      "type": "function"
    },
    {
      "inputs": [
        {
          "internalType": "uint256",
          "name": "_shgid",
          "type": "uint256"
        },
        {
          "internalType": "uint256",
          "name": "_loanid",
          "type": "uint256"
        },
        {
          "internalType": "uint256",
          "name": "_amount",
          "type": "uint256"
        }
      ],
      "name": "shgPayEMI",
      "outputs": [],
      "stateMutability": "nonpayable",
      "type": "function"
    },
    {
      "inputs": [],
      "name": "totalNumSHGs",
      "outputs": [
        {
          "internalType": "uint256",
          "name": "",
          "type": "uint256"
        }
      ],
      "stateMutability": "view",
      "type": "function"
    },
    {
      "inputs": [
        {
          "internalType": "uint256",
          "name": "_shgid",
          "type": "uint256"
        }
      ],
      "name": "getSHGRequests",
      "outputs": [
        {
          "internalType": "uint256[]",
          "name": "",
          "type": "uint256[]"
        }
      ],
      "stateMutability": "nonpayable",
      "type": "function"
    },
    {
      "inputs": [
        {
          "internalType": "uint256",
          "name": "_shgid",
          "type": "uint256"
        },
        {
          "internalType": "uint256",
          "name": "_loanid",
          "type": "uint256"
        }
      ],
      "name": "getSHGEMI",
      "outputs": [
        {
          "internalType": "uint256",
          "name": "",
          "type": "uint256"
        }
      ],
      "stateMutability": "nonpayable",
      "type": "function"
    },
    {
      "inputs": [
        {
          "internalType": "uint256",
          "name": "shgid",
          "type": "uint256"
        }
      ],
      "name": "getSHGMembers",
      "outputs": [
        {
          "internalType": "uint256[]",
          "name": "",
          "type": "uint256[]"
        }
      ],
      "stateMutability": "view",
      "type": "function"
    },
    {
      "inputs": [
        {
          "internalType": "string",
          "name": "district",
          "type": "string"
        }
      ],
      "name": "shgsOfDistrict",
      "outputs": [
        {
          "internalType": "uint256[]",
          "name": "",
          "type": "uint256[]"
        }
      ],
      "stateMutability": "view",
      "type": "function"
    }
  ],
  "bytecode": "0x608060405234801561001057600080fd5b50613c39806100206000396000f3fe608060405234801561001057600080fd5b50600436106101725760003560e01c806361c91b70116100de578063a6e90a5811610097578063d3f86fb811610071578063d3f86fb8146104d2578063e1ec3c6814610502578063edf5388614610539578063f61074ff1461056957610172565b8063a6e90a581461046a578063af08a94f14610486578063bc1e72ad146104b657610172565b806361c91b701461036c578063769d0e161461039c5780637d550bb3146103cc57806394169656146103e857806397e492dd1461041e5780639bbc9ab11461044e57610172565b8063365b98b211610130578063365b98b21461027d57806339d8bed1146102b65780633ae0058f146102d25780633cec4272146103025780634f269c92146103325780635df3fc811461034e57610172565b806285ae2b14610177578063021af397146101ab5780630c1c7883146101c7578063257a170b146101f757806326271cf21461022b5780632c0a90a914610261575b600080fd5b610191600480360381019061018c9190612e7d565b610599565b6040516101a2959493929190613315565b60405180910390f35b6101c560048036038101906101c09190612f1e565b6106ff565b005b6101e160048036038101906101dc9190612ee2565b6108d6565b6040516101ee91906132fa565b60405180910390f35b610211600480360381019061020c9190612e7d565b610907565b604051610222959493929190613528565b60405180910390f35b61024560048036038101906102409190612e7d565b61094a565b604051610258979695949392919061342e565b60405180910390f35b61027b60048036038101906102769190612ee2565b610d80565b005b61029760048036038101906102929190612e7d565b610ed6565b6040516102ad9a99989796959493929190613376565b60405180910390f35b6102d060048036038101906102cb9190612ee2565b6113e0565b005b6102ec60048036038101906102e79190612c0f565b6114f6565b6040516102f991906132fa565b60405180910390f35b61031c60048036038101906103179190612e29565b61150e565b60405161032991906132fa565b60405180910390f35b61034c60048036038101906103479190612ea6565b611555565b005b6103566115bc565b60405161036391906132fa565b60405180910390f35b61038660048036038101906103819190612c0f565b6115c6565b60405161039391906132fa565b60405180910390f35b6103b660048036038101906103b19190612ee2565b6115de565b6040516103c391906132fa565b60405180910390f35b6103e660048036038101906103e19190612f1e565b6116f1565b005b61040260048036038101906103fd9190612e7d565b6117d0565b60405161041597969594939291906134b2565b60405180910390f35b61043860048036038101906104339190612de8565b6118a7565b6040516104459190613238565b60405180910390f35b61046860048036038101906104639190612e7d565b61191d565b005b610484600480360381019061047f9190612ee2565b611dc5565b005b6104a0600480360381019061049b9190612e7d565b611f57565b6040516104ad9190613238565b60405180910390f35b6104d060048036038101906104cb9190612c38565b611fc5565b005b6104ec60048036038101906104e79190612e7d565b612554565b6040516104f99190613238565b60405180910390f35b61051c60048036038101906105179190612e7d565b612639565b60405161053098979695949392919061357b565b60405180910390f35b610553600480360381019061054e9190612c0f565b612681565b60405161056091906132fa565b60405180910390f35b610583600480360381019061057e9190612ee2565b612699565b60405161059091906132fa565b60405180910390f35b60036020528060005260406000206000915090508060000154908060010180546105c2906138ee565b80601f01602080910402602001604051908101604052809291908181526020018280546105ee906138ee565b801561063b5780601f106106105761010080835404028352916020019161063b565b820191906000526020600020905b81548152906001019060200180831161061e57829003601f168201915b5050505050908060020160009054906101000a900473ffffffffffffffffffffffffffffffffffffffff1690806003018054610676906138ee565b80601f01602080910402602001604051908101604052809291908181526020018280546106a2906138ee565b80156106ef5780601f106106c4576101008083540402835291602001916106ef565b820191906000526020600020905b8154815290600101906020018083116106d257829003601f168201915b5050505050908060040154905085565b8260006001600083815260200190815260200160002060000154141561072457600080fd5b83600080600460003373ffffffffffffffffffffffffffffffffffffffff1673ffffffffffffffffffffffffffffffffffffffff168152602001908152602001600020548152602001908152602001600020600801541461078457600080fd5b6000600f600081548092919061079990613951565b9190505590506040518060a001604052808281526020018681526020018581526020018481526020016003808111156107fb577f4e487b7100000000000000000000000000000000000000000000000000000000600052602160045260246000fd5b815250600760008381526020019081526020016000206000820151816000015560208201518160010155604082015181600201556060820151816003015560808201518160040160006101000a81548160ff0219169083600381111561088a577f4e487b7100000000000000000000000000000000000000000000000000000000600052602160045260246000fd5b021790555090505060016000868152602001908152602001600020600c018190806001815401808255809150506001900390600052602060002001600090919091909150555050505050565b600a60205281600052604060002081815481106108f257600080fd5b90600052602060002001600091509150505481565b60076020528060005260406000206000915090508060000154908060010154908060020154908060030154908060040160009054906101000a900460ff16905085565b6001602052806000526040600020600091509050806000015490806002018054610973906138ee565b80601f016020809104026020016040519081016040528092919081815260200182805461099f906138ee565b80156109ec5780601f106109c1576101008083540402835291602001916109ec565b820191906000526020600020905b8154815290600101906020018083116109cf57829003601f168201915b505050505090806003016040518060a0016040529081600082018054610a11906138ee565b80601f0160208091040260200160405190810160405280929190818152602001828054610a3d906138ee565b8015610a8a5780601f10610a5f57610100808354040283529160200191610a8a565b820191906000526020600020905b815481529060010190602001808311610a6d57829003601f168201915b50505050508152602001600182018054610aa3906138ee565b80601f0160208091040260200160405190810160405280929190818152602001828054610acf906138ee565b8015610b1c5780601f10610af157610100808354040283529160200191610b1c565b820191906000526020600020905b815481529060010190602001808311610aff57829003601f168201915b50505050508152602001600282018054610b35906138ee565b80601f0160208091040260200160405190810160405280929190818152602001828054610b61906138ee565b8015610bae5780601f10610b8357610100808354040283529160200191610bae565b820191906000526020600020905b815481529060010190602001808311610b9157829003601f168201915b50505050508152602001600382018054610bc7906138ee565b80601f0160208091040260200160405190810160405280929190818152602001828054610bf3906138ee565b8015610c405780601f10610c1557610100808354040283529160200191610c40565b820191906000526020600020905b815481529060010190602001808311610c2357829003601f168201915b50505050508152602001600482018054610c59906138ee565b80601f0160208091040260200160405190810160405280929190818152602001828054610c85906138ee565b8015610cd25780601f10610ca757610100808354040283529160200191610cd2565b820191906000526020600020905b815481529060010190602001808311610cb557829003601f168201915b50505050508152505090806008018054610ceb906138ee565b80601f0160208091040260200160405190810160405280929190818152602001828054610d17906138ee565b8015610d645780601f10610d3957610100808354040283529160200191610d64565b820191906000526020600020905b815481529060010190602001808311610d4757829003601f168201915b50505050509080600901549080600a01549080600d0154905087565b80600060016000838152602001908152602001600020600001541415610da557600080fd5b600060066000858152602001908152602001600020905082816004015414610dcc57600080fd5b610dd5846126ca565b610dde57600080fd5b80600701600460003373ffffffffffffffffffffffffffffffffffffffff1673ffffffffffffffffffffffffffffffffffffffff16815260200190815260200160002054908060018154018082558091505060019003906000526020600020016000909190919091505560026001600085815260200190815260200160002060010180549050610e6e9190613742565b81600701805490501115610ed05760008160050160006101000a81548160ff02191690836003811115610eca577f4e487b7100000000000000000000000000000000000000000000000000000000600052602160045260246000fd5b02179055505b50505050565b6000602052806000526040600020600091509050806000015490806001018054610eff906138ee565b80601f0160208091040260200160405190810160405280929190818152602001828054610f2b906138ee565b8015610f785780601f10610f4d57610100808354040283529160200191610f78565b820191906000526020600020905b815481529060010190602001808311610f5b57829003601f168201915b505050505090806002018054610f8d906138ee565b80601f0160208091040260200160405190810160405280929190818152602001828054610fb9906138ee565b80156110065780601f10610fdb57610100808354040283529160200191611006565b820191906000526020600020905b815481529060010190602001808311610fe957829003601f168201915b505050505090806003015490806004018054611021906138ee565b80601f016020809104026020016040519081016040528092919081815260200182805461104d906138ee565b801561109a5780601f1061106f5761010080835404028352916020019161109a565b820191906000526020600020905b81548152906001019060200180831161107d57829003601f168201915b5050505050908060050160009054906101000a900473ffffffffffffffffffffffffffffffffffffffff16908060080154908060090160009054906101000a900460ff16908060090160019054906101000a900460ff169080600a016040518060a0016040529081600082018054611111906138ee565b80601f016020809104026020016040519081016040528092919081815260200182805461113d906138ee565b801561118a5780601f1061115f5761010080835404028352916020019161118a565b820191906000526020600020905b81548152906001019060200180831161116d57829003601f168201915b505050505081526020016001820180546111a3906138ee565b80601f01602080910402602001604051908101604052809291908181526020018280546111cf906138ee565b801561121c5780601f106111f15761010080835404028352916020019161121c565b820191906000526020600020905b8154815290600101906020018083116111ff57829003601f168201915b50505050508152602001600282018054611235906138ee565b80601f0160208091040260200160405190810160405280929190818152602001828054611261906138ee565b80156112ae5780601f10611283576101008083540402835291602001916112ae565b820191906000526020600020905b81548152906001019060200180831161129157829003601f168201915b505050505081526020016003820180546112c7906138ee565b80601f01602080910402602001604051908101604052809291908181526020018280546112f3906138ee565b80156113405780601f1061131557610100808354040283529160200191611340565b820191906000526020600020905b81548152906001019060200180831161132357829003601f168201915b50505050508152602001600482018054611359906138ee565b80601f0160208091040260200160405190810160405280929190818152602001828054611385906138ee565b80156113d25780601f106113a7576101008083540402835291602001916113d2565b820191906000526020600020905b8154815290600101906020018083116113b557829003601f168201915b50505050508152505090508a565b806000808481526020019081526020016000206008015414611437576040517f08c379a000000000000000000000000000000000000000000000000000000000815260040161142e9061329a565b60405180910390fd5b8060008084815260200190815260200160002060080181905550600360008084815260200190815260200160002060090160006101000a81548160ff021916908360058111156114b0577f4e487b7100000000000000000000000000000000000000000000000000000000600052602160045260246000fd5b0217905550600160008281526020019081526020016000206001018290806001815401808255809150506001900390600052602060002001600090919091909150555050565b60086020528060005260406000206000915090505481565b600282805160208101820180518482526020830160208501208183528095505050505050818154811061154057600080fd5b90600052602060002001600091509150505481565b8060008084815260200190815260200160002060090160006101000a81548160ff021916908360058111156115b3577f4e487b7100000000000000000000000000000000000000000000000000000000600052602160045260246000fd5b02179055505050565b6000600d54905090565b60096020528060005260406000206000915090505481565b60008260006001600083815260200190815260200160002060000154141561160557600080fd5b60006005600085815260200190815260200160002090506000601e603c80601885600701544261163591906137cd565b61163f9190613742565b6116499190613773565b6116539190613773565b61165d9190613773565b90506000811161166c57600080fd5b600082600201549050600083600401549050600084600501549050600081600c6116969190613773565b600c6064856116a59190613742565b6116af9190613773565b60016116bb91906136ec565b856116c69190613773565b1890508086600201546116d991906137cd565b86600201819055508097505050505050505092915050565b8260006001600083815260200190815260200160002060000154141561171657600080fd5b600061172285856115de565b905082811461173057600080fd5b60006005600086815260200190815260200160002090503073ffffffffffffffffffffffffffffffffffffffff166108fc859081150290604051600060405180830381858888f1935050505015801561178d573d6000803e3d6000fd5b5083600160008360030154815260200190815260200160002060090160008282546117b891906136ec565b92505081905550428160070181905550505050505050565b6006602052806000526040600020600091509050806000015490806001015490806002015490806003018054611805906138ee565b80601f0160208091040260200160405190810160405280929190818152602001828054611831906138ee565b801561187e5780601f106118535761010080835404028352916020019161187e565b820191906000526020600020905b81548152906001019060200180831161186157829003601f168201915b5050505050908060040154908060050160009054906101000a900460ff16908060060154905087565b60606002826040516118b99190613221565b908152602001604051809103902080548060200260200160405190810160405280929190818152602001828054801561191157602002820191906000526020600020905b8154815260200190600101908083116118fd575b50505050509050919050565b60026005811115611957577f4e487b7100000000000000000000000000000000000000000000000000000000600052602160045260246000fd5b600080600460003373ffffffffffffffffffffffffffffffffffffffff1673ffffffffffffffffffffffffffffffffffffffff16815260200190815260200160002054815260200190815260200160002060090160009054906101000a900460ff1660058111156119f1577f4e487b7100000000000000000000000000000000000000000000000000000000600052602160045260246000fd5b14611a31576040517f08c379a0000000000000000000000000000000000000000000000000000000008152600401611a28906132da565b60405180910390fd5b60006003811115611a6b577f4e487b7100000000000000000000000000000000000000000000000000000000600052602160045260246000fd5b6006600083815260200190815260200160002060050160009054906101000a900460ff166003811115611ac7577f4e487b7100000000000000000000000000000000000000000000000000000000600052602160045260246000fd5b14611b07576040517f08c379a0000000000000000000000000000000000000000000000000000000008152600401611afe906132ba565b60405180910390fd5b600060066000838152602001908152602001600020905060018160050160006101000a81548160ff02191690836003811115611b6c577f4e487b7100000000000000000000000000000000000000000000000000000000600052602160045260246000fd5b02179055506000604051806101000160405280601160008154611b8e90613951565b91905081905581526020018360040154815260200183600201548152602001836001015481526020016001600085600401548152602001908152602001600020600d01548152602001836006015481526020014281526020016000815250905080600560006011548152602001908152602001600020600082015181600001556020820151816001015560408201518160020155606082015181600301556080820151816004015560a0820151816005015560c0820151816006015560e082015181600701559050506001600083600401548152602001908152602001600020600b01601154908060018154018082558091505060019003906000526020600020016000909190919091505560008083600101548152602001908152602001600020600601601154908060018154018082558091505060019003906000526020600020016000909190919091505581600201546001600084600401548152602001908152602001600020600901541015611d0757600080fd5b6000808360010154815260200190815260200160002060050160009054906101000a900473ffffffffffffffffffffffffffffffffffffffff1673ffffffffffffffffffffffffffffffffffffffff166108fc83600201549081150290604051600060405180830381858888f19350505050158015611d8a573d6000803e3d6000fd5b50816002015460016000846004015481526020019081526020016000206009016000828254611db991906137cd565b92505081905550505050565b6000600160008381526020019081526020016000209050611e3881600101805480602002602001604051908101604052809291908181526020018280548015611e2d57602002820191906000526020600020905b815481526020019060010190808311611e19575b5050505050836127a8565b611e77576040517f08c379a0000000000000000000000000000000000000000000000000000000008152600401611e6e9061327a565b60405180910390fd5b6000611ed582600101805480602002602001604051908101604052809291908181526020018280548015611eca57602002820191906000526020600020905b815481526020019060010190808311611eb6575b505050505085612836565b90506000611f3583600101805480602002602001604051908101604052809291908181526020018280548015611f2a57602002820191906000526020600020905b815481526020019060010190808311611f16575b5050505050836128b7565b905080836001019080519060200190611f4f9291906129e2565b505050505050565b606060016000838152602001908152602001600020600101805480602002602001604051908101604052809291908181526020018280548015611fb957602002820191906000526020600020905b815481526020019060010190808311611fa5575b50505050509050919050565b60078b51101561200a576040517f08c379a00000000000000000000000000000000000000000000000000000000081526004016120019061325a565b60405180910390fd5b6000600d6000815461201b90613951565b919050819055905060006040518060a001604052808a81526020018981526020018881526020018781526020018681525090506040518061014001604052808381526020018e81526020018b81526020018281526020018581526020016000815260200160008152602001600067ffffffffffffffff8111156120c7577f4e487b7100000000000000000000000000000000000000000000000000000000600052604160045260246000fd5b6040519080825280602002602001820160405280156120f55781602001602082028036833780820191505090505b508152602001600067ffffffffffffffff81111561213c577f4e487b7100000000000000000000000000000000000000000000000000000000600052604160045260246000fd5b60405190808252806020026020018201604052801561216a5781602001602082028036833780820191505090505b50815260200184815250600160008481526020019081526020016000206000820151816000015560208201518160010190805190602001906121ad9291906129e2565b5060408201518160020190805190602001906121ca929190612a2f565b5060608201518160030160008201518160000190805190602001906121f0929190612a2f565b50602082015181600101908051906020019061220d929190612a2f565b50604082015181600201908051906020019061222a929190612a2f565b506060820151816003019080519060200190612247929190612a2f565b506080820151816004019080519060200190612264929190612a2f565b5050506080820151816008019080519060200190612283929190612a2f565b5060a0820151816009015560c082015181600a015560e082015181600b0190805190602001906122b49291906129e2565b5061010082015181600c0190805190602001906122d29291906129e2565b5061012082015181600d015590505060005b8d518110156124ff5760008e8281518110612328577f4e487b7100000000000000000000000000000000000000000000000000000000600052603260045260246000fd5b60200260200101519050600360008083815260200190815260200160002060090160006101000a81548160ff02191690836005811115612391577f4e487b7100000000000000000000000000000000000000000000000000000000600052602160045260246000fd5b02179055508d81141561240357600080600083815260200190815260200160002060090160006101000a81548160ff021916908360058111156123fd577f4e487b7100000000000000000000000000000000000000000000000000000000600052602160045260246000fd5b02179055505b8c81141561247057600260008083815260200190815260200160002060090160006101000a81548160ff0219169083600581111561246a577f4e487b7100000000000000000000000000000000000000000000000000000000600052602160045260246000fd5b02179055505b600d546008600080600085815260200190815260200160002060050160009054906101000a900473ffffffffffffffffffffffffffffffffffffffff1673ffffffffffffffffffffffffffffffffffffffff1673ffffffffffffffffffffffffffffffffffffffff168152602001908152602001600020819055505080806124f790613951565b9150506122e4565b506002886040516125109190613221565b908152602001604051809103902082908060018154018082558091505060019003906000526020600020016000909190919091505550505050505050505050505050565b606060005b600f548110156125cf5782600760008381526020019081526020016000206001015414156125bc57600b60008481526020019081526020016000208190806001815401808255809150506001900390600052602060002001600090919091909150555b80806125c790613951565b915050612559565b50600b600083815260200190815260200160002080548060200260200160405190810160405280929190818152602001828054801561262d57602002820191906000526020600020905b815481526020019060010190808311612619575b50505050509050919050565b60056020528060005260406000206000915090508060000154908060010154908060020154908060030154908060040154908060050154908060060154908060070154905088565b60046020528060005260406000206000915090505481565b600b60205281600052604060002081815481106126b557600080fd5b90600052602060002001600091509150505481565b60008060066000848152602001908152602001600020600701905060005b818054905081101561279c57600460003373ffffffffffffffffffffffffffffffffffffffff1673ffffffffffffffffffffffffffffffffffffffff1681526020019081526020016000205482828154811061276d577f4e487b7100000000000000000000000000000000000000000000000000000000600052603260045260246000fd5b90600052602060002001541415612789576000925050506127a3565b808061279490613951565b9150506126e8565b5060019150505b919050565b600080600090505b600184516127be91906137cd565b81101561282a57828482815181106127ff577f4e487b7100000000000000000000000000000000000000000000000000000000600052603260045260246000fd5b60200260200101511415612817576001915050612830565b808061282290613951565b9150506127b0565b50600090505b92915050565b600080600090505b83518110156128ab5782848281518110612881577f4e487b7100000000000000000000000000000000000000000000000000000000600052603260045260246000fd5b6020026020010151141561289857809150506128b1565b80806128a390613951565b91505061283e565b50600090505b92915050565b6060825182106128c657600080fd5b60008290505b600184516128da91906137cd565b81101561298657836001826128ef91906136ec565b81518110612926577f4e487b7100000000000000000000000000000000000000000000000000000000600052603260045260246000fd5b6020026020010151848281518110612967577f4e487b7100000000000000000000000000000000000000000000000000000000600052603260045260246000fd5b602002602001018181525050808061297e90613951565b9150506128cc565b50826001845161299691906137cd565b815181106129cd577f4e487b7100000000000000000000000000000000000000000000000000000000600052603260045260246000fd5b60200260200101600081525082905092915050565b828054828255906000526020600020908101928215612a1e579160200282015b82811115612a1d578251825591602001919060010190612a02565b5b509050612a2b9190612ab5565b5090565b828054612a3b906138ee565b90600052602060002090601f016020900481019282612a5d5760008555612aa4565b82601f10612a7657805160ff1916838001178555612aa4565b82800160010185558215612aa4579182015b82811115612aa3578251825591602001919060010190612a88565b5b509050612ab19190612ab5565b5090565b5b80821115612ace576000816000905550600101612ab6565b5090565b6000612ae5612ae08461361e565b6135f9565b90508083825260208201905082856020860282011115612b0457600080fd5b60005b85811015612b345781612b1a8882612bfa565b845260208401935060208301925050600181019050612b07565b5050509392505050565b6000612b51612b4c8461364a565b6135f9565b905082815260208101848484011115612b6957600080fd5b612b748482856138ac565b509392505050565b600081359050612b8b81613bc5565b92915050565b600082601f830112612ba257600080fd5b8135612bb2848260208601612ad2565b91505092915050565b600081359050612bca81613bdc565b92915050565b600082601f830112612be157600080fd5b8135612bf1848260208601612b3e565b91505092915050565b600081359050612c0981613bec565b92915050565b600060208284031215612c2157600080fd5b6000612c2f84828501612b7c565b91505092915050565b60008060008060008060008060008060006101608c8e031215612c5a57600080fd5b60008c013567ffffffffffffffff811115612c7457600080fd5b612c808e828f01612b91565b9b50506020612c918e828f01612bfa565b9a50506040612ca28e828f01612bfa565b99505060608c013567ffffffffffffffff811115612cbf57600080fd5b612ccb8e828f01612bd0565b98505060808c013567ffffffffffffffff811115612ce857600080fd5b612cf48e828f01612bd0565b97505060a08c013567ffffffffffffffff811115612d1157600080fd5b612d1d8e828f01612bd0565b96505060c08c013567ffffffffffffffff811115612d3a57600080fd5b612d468e828f01612bd0565b95505060e08c013567ffffffffffffffff811115612d6357600080fd5b612d6f8e828f01612bd0565b9450506101008c013567ffffffffffffffff811115612d8d57600080fd5b612d998e828f01612bd0565b9350506101208c013567ffffffffffffffff811115612db757600080fd5b612dc38e828f01612bd0565b925050610140612dd58e828f01612bfa565b9150509295989b509295989b9093969950565b600060208284031215612dfa57600080fd5b600082013567ffffffffffffffff811115612e1457600080fd5b612e2084828501612bd0565b91505092915050565b60008060408385031215612e3c57600080fd5b600083013567ffffffffffffffff811115612e5657600080fd5b612e6285828601612bd0565b9250506020612e7385828601612bfa565b9150509250929050565b600060208284031215612e8f57600080fd5b6000612e9d84828501612bfa565b91505092915050565b60008060408385031215612eb957600080fd5b6000612ec785828601612bfa565b9250506020612ed885828601612bbb565b9150509250929050565b60008060408385031215612ef557600080fd5b6000612f0385828601612bfa565b9250506020612f1485828601612bfa565b9150509250929050565b600080600060608486031215612f3357600080fd5b6000612f4186828701612bfa565b9350506020612f5286828701612bfa565b9250506040612f6386828701612bfa565b9150509250925092565b6000612f798383613203565b60208301905092915050565b612f8e81613801565b82525050565b6000612f9f8261368b565b612fa981856136ae565b9350612fb48361367b565b8060005b83811015612fe5578151612fcc8882612f6d565b9750612fd7836136a1565b925050600181019050612fb8565b5085935050505092915050565b612ffb81613876565b82525050565b61300a81613888565b82525050565b6130198161389a565b82525050565b600061302a82613696565b61303481856136bf565b93506130448185602086016138bb565b61304d81613a85565b840191505092915050565b600061306382613696565b61306d81856136d0565b935061307d8185602086016138bb565b61308681613a85565b840191505092915050565b600061309c82613696565b6130a681856136e1565b93506130b68185602086016138bb565b80840191505092915050565b60006130cf601a836136d0565b91506130da82613a96565b602082019050919050565b60006130f26025836136d0565b91506130fd82613abf565b604082019050919050565b60006131156012836136d0565b915061312082613b0e565b602082019050919050565b60006131386012836136d0565b915061314382613b37565b602082019050919050565b600061315b6013836136d0565b915061316682613b60565b602082019050919050565b600060a083016000830151848203600086015261318e828261301f565b915050602083015184820360208601526131a8828261301f565b915050604083015184820360408601526131c2828261301f565b915050606083015184820360608601526131dc828261301f565b915050608083015184820360808601526131f6828261301f565b9150508091505092915050565b61320c8161386c565b82525050565b61321b8161386c565b82525050565b600061322d8284613091565b915081905092915050565b600060208201905081810360008301526132528184612f94565b905092915050565b60006020820190508181036000830152613273816130c2565b9050919050565b60006020820190508181036000830152613293816130e5565b9050919050565b600060208201905081810360008301526132b381613108565b9050919050565b600060208201905081810360008301526132d38161312b565b9050919050565b600060208201905081810360008301526132f38161314e565b9050919050565b600060208201905061330f6000830184613212565b92915050565b600060a08201905061332a6000830188613212565b818103602083015261333c8187613058565b905061334b6040830186612f85565b818103606083015261335d8185613058565b905061336c6080830184613212565b9695505050505050565b60006101408201905061338c600083018d613212565b818103602083015261339e818c613058565b905081810360408301526133b2818b613058565b90506133c1606083018a613212565b81810360808301526133d38189613058565b90506133e260a0830188612f85565b6133ef60c0830187613212565b6133fc60e0830186613010565b61340a610100830185612ff2565b81810361012083015261341d8184613171565b90509b9a5050505050505050505050565b600060e082019050613443600083018a613212565b81810360208301526134558189613058565b905081810360408301526134698188613171565b9050818103606083015261347d8187613058565b905061348c6080830186613212565b61349960a0830185613212565b6134a660c0830184613212565b98975050505050505050565b600060e0820190506134c7600083018a613212565b6134d46020830189613212565b6134e16040830188613212565b81810360608301526134f38187613058565b90506135026080830186613212565b61350f60a0830185613001565b61351c60c0830184613212565b98975050505050505050565b600060a08201905061353d6000830188613212565b61354a6020830187613212565b6135576040830186613212565b6135646060830185613212565b6135716080830184613001565b9695505050505050565b600061010082019050613591600083018b613212565b61359e602083018a613212565b6135ab6040830189613212565b6135b86060830188613212565b6135c56080830187613212565b6135d260a0830186613212565b6135df60c0830185613212565b6135ec60e0830184613212565b9998505050505050505050565b6000613603613614565b905061360f8282613920565b919050565b6000604051905090565b600067ffffffffffffffff82111561363957613638613a56565b5b602082029050602081019050919050565b600067ffffffffffffffff82111561366557613664613a56565b5b61366e82613a85565b9050602081019050919050565b6000819050602082019050919050565b600081519050919050565b600081519050919050565b6000602082019050919050565b600082825260208201905092915050565b600082825260208201905092915050565b600082825260208201905092915050565b600081905092915050565b60006136f78261386c565b91506137028361386c565b9250827fffffffffffffffffffffffffffffffffffffffffffffffffffffffffffffffff038211156137375761373661399a565b5b828201905092915050565b600061374d8261386c565b91506137588361386c565b925082613768576137676139c9565b5b828204905092915050565b600061377e8261386c565b91506137898361386c565b9250817fffffffffffffffffffffffffffffffffffffffffffffffffffffffffffffffff04831182151516156137c2576137c161399a565b5b828202905092915050565b60006137d88261386c565b91506137e38361386c565b9250828210156137f6576137f561399a565b5b828203905092915050565b600061380c8261384c565b9050919050565b600081905061382182613b89565b919050565b600081905061383482613b9d565b919050565b600081905061384782613bb1565b919050565b600073ffffffffffffffffffffffffffffffffffffffff82169050919050565b6000819050919050565b600061388182613813565b9050919050565b600061389382613826565b9050919050565b60006138a582613839565b9050919050565b82818337600083830152505050565b60005b838110156138d95780820151818401526020810190506138be565b838111156138e8576000848401525b50505050565b6000600282049050600182168061390657607f821691505b6020821081141561391a57613919613a27565b5b50919050565b61392982613a85565b810181811067ffffffffffffffff8211171561394857613947613a56565b5b80604052505050565b600061395c8261386c565b91507fffffffffffffffffffffffffffffffffffffffffffffffffffffffffffffffff82141561398f5761398e61399a565b5b600182019050919050565b7f4e487b7100000000000000000000000000000000000000000000000000000000600052601160045260246000fd5b7f4e487b7100000000000000000000000000000000000000000000000000000000600052601260045260246000fd5b7f4e487b7100000000000000000000000000000000000000000000000000000000600052602160045260246000fd5b7f4e487b7100000000000000000000000000000000000000000000000000000000600052602260045260246000fd5b7f4e487b7100000000000000000000000000000000000000000000000000000000600052604160045260246000fd5b6000601f19601f8301169050919050565b7f41746c656173742037206d656d62657273207265717569726564000000000000600082015250565b7f5573657220697320616c7265616479206e6f7420612070617274206f6620746860008201527f6520534847000000000000000000000000000000000000000000000000000000602082015250565b7f5573657220616c72656164792061646465640000000000000000000000000000600082015250565b7f556e617070726f76656420726571756573740000000000000000000000000000600082015250565b7f556e617574686f72697a65642072657165737400000000000000000000000000600082015250565b60038110613b9a57613b996139f8565b5b50565b60048110613bae57613bad6139f8565b5b50565b60068110613bc257613bc16139f8565b5b50565b613bce81613801565b8114613bd957600080fd5b50565b60068110613be957600080fd5b50565b613bf58161386c565b8114613c0057600080fd5b5056fea264697066735822122019100a7322ce9058d5bd2cfa3fde4ea88889358adc335d48c771641287ce5de064736f6c63430008040033",
  "immutableReferences": {},
  "source": "// SPDX-License-Identifier: MIT\npragma solidity ^0.8.1;\n\nimport \"./structs.sol\";\nimport \"./helpers.sol\";\nimport \"./modifiers.sol\";\n\ncontract SHG is structs, helpers, modifiers {\n    function addSHG(\n        uint256[] memory members,\n        uint256 president,\n        uint256 treasurer,\n        string memory name,\n        string memory _state,\n        string memory _district,\n        string memory _blockName,\n        string memory _panchyatName,\n        string memory _villageName,\n        string memory dateOfFormation,\n        uint256 _baseIntrest\n    ) public {\n        require(members.length >= 7, \"Atleast 7 members required\");\n        uint256 id = ++numSHGs;\n\n        Location memory newlocation = Location({\n            state: _state,\n            district: _district,\n            blockName: _blockName,\n            panchyatName: _panchyatName,\n            villageName: _villageName\n        });\n\n        shgs[id] = SHG(\n            id,\n            members,\n            name,\n            newlocation,\n            dateOfFormation,\n            0,\n            0,\n            new uint256[](0),\n            new uint256[](0),\n            _baseIntrest\n        );\n        for (uint256 i = 0; i < members.length; i++) {\n            uint256 userid = members[i];\n            users[userid].userType = UserType.MEMBER;\n            if (userid == president)\n                users[userid].userType = UserType.PRESIDENT;\n            if (userid == treasurer)\n                users[userid].userType = UserType.TREASURER;\n            addressToSHGid[users[userid].walletAddress] = numSHGs;\n        }\n        districtToSHGs[_district].push(id);\n    }\n\n    function addSHGMember(uint256 userid, uint256 shg) public {\n        require(users[userid].shgid == shg, \"User already added\");\n        users[userid].shgid = shg;\n        users[userid].userType = UserType.MEMBER;\n        shgs[shg].users.push(userid);\n    }\n\n    function removeSHGMember(uint256 userid, uint256 shgid) public {\n        SHG storage shg = shgs[shgid];\n        require(\n            check(shg.users, shgid),\n            \"User is already not a part of the SHG\"\n        );\n\n        uint256 index = getIndex(shg.users, userid);\n        uint256[] memory newusers = deleteIndex(shg.users, index);\n        shg.users = newusers;\n    }\n\n    function updateMemberRole(uint256 id, UserType updatedType) public {\n        // TODO: add requires\n        users[id].userType = updatedType;\n    }\n\n    function sendGrant(uint256 _requestid) public {\n        require(\n            users[addressToUser[msg.sender]].userType == UserType.TREASURER,\n            \"Unauthorized reqest\"\n        );\n        require(\n            userRequests[_requestid].status == RequestStatus.APPROVED,\n            \"Unapproved request\"\n        );\n        UserRequest storage request = userRequests[_requestid];\n\n        request.status = RequestStatus.COMPLETED;\n\n        Loan memory newLoan = Loan({\n            loanId: ++numLoans,\n            lenderId: request.SHGId,\n            amount: request.amount,\n            lendeeId: request.userId,\n            intrest: shgs[request.SHGId].baseIntrest,\n            loanTime: request.loanTime,\n            date: block.timestamp,\n            lastEMI: 0\n        });\n\n        loans[numLoans] = newLoan;\n        shgs[request.SHGId].loansGiven.push(numLoans);\n        users[request.userId].loansTaken.push(numLoans);\n\n        require(shgs[request.SHGId].currentBalance >= request.amount);\n        payable(users[request.userId].walletAddress).transfer(request.amount);\n        shgs[request.SHGId].currentBalance -= request.amount;\n    }\n\n    function checkApproval(uint256 _requestid) internal view returns (bool) {\n        uint256[] storage approvals = userRequests[_requestid].approvals;\n\n        for (uint256 i = 0; i < approvals.length; i++) {\n            if (approvals[i] == addressToUser[msg.sender]) {\n                return false;\n            }\n        }\n\n        return true;\n    }\n\n    function approveRequest(uint256 _requestid, uint256 _shgid)\n        public\n        onlySHG(_shgid)\n    {\n        UserRequest storage request = userRequests[_requestid];\n        require(request.SHGId == _shgid);\n\n        require(checkApproval(_requestid));\n        request.approvals.push(addressToUser[msg.sender]);\n\n        if (request.approvals.length > shgs[_shgid].users.length / 2) {\n            request.status = RequestStatus.APPROVED;\n        }\n    }\n\n    function sendRequestToBank(\n        uint256 _shgid,\n        uint256 _amount,\n        uint256 _loanTime\n    ) public onlySHG(_shgid) {\n        require(users[addressToUser[msg.sender]].shgid == _shgid);\n        uint256 reqid = numSHGRequests++;\n        shgRequests[reqid] = SHGRequest(\n            reqid,\n            _shgid,\n            _amount,\n            _loanTime,\n            RequestStatus.IN_PROCESS\n        );\n        shgs[_shgid].loansTaken.push(reqid);\n    }\n\n    function shgPayEMI(\n        uint256 _shgid,\n        uint256 _loanid,\n        uint256 _amount\n    ) public onlySHG(_shgid) {\n        uint256 amount = getSHGEMI(_shgid, _loanid);\n        require(amount == _amount);\n        Loan storage loan = loans[_loanid];\n        payable(address(this)).transfer(_amount);\n        shgs[loan.lendeeId].currentBalance += _amount;\n        loan.lastEMI = block.timestamp;\n    }\n\n    // fetch functions\n    function totalNumSHGs() public view returns (uint256) {\n        return numSHGs;\n    }\n\n    function getSHGRequests(uint256 _shgid) public returns (uint256[] memory) {\n        for (uint256 i = 0; i < numSHGRequests; i++) {\n            if (shgRequests[i].shgid == _shgid) {\n                shgToRequests[_shgid].push(i);\n            }\n        }\n        return shgToRequests[_shgid];\n    }\n\n    function getSHGEMI(uint256 _shgid, uint256 _loanid)\n        public\n        onlySHG(_shgid)\n        returns (uint256)\n    {\n        Loan storage loan = loans[_loanid];\n        uint256 months = ((block.timestamp - loan.lastEMI) / 24) * 60 * 60 * 30;\n\n        require(months > 0);\n        uint256 P = loan.amount;\n        uint256 r = loan.intrest;\n        uint256 t = loan.loanTime;\n        uint256 emi = (P * (1 + ((r / 100) * 12))) ^ ((12 * t));\n\n        loan.amount = loan.amount - emi;\n        return emi;\n    }\n\n    function getSHGMembers(uint256 shgid)\n        public\n        view\n        returns (uint256[] memory)\n    {\n        return shgs[shgid].users;\n    }\n\n    function shgsOfDistrict(string memory district)\n        public\n        view\n        returns (uint256[] memory)\n    {\n        return districtToSHGs[district];\n    }\n}\n",
  "sourcePath": "/home/sdas/code/yogdaan-contracts/contracts/lib/SHG.sol",
  "compiler": {
    "name": "solc",
    "version": "0.8.4+commit.c7e474f2.Emscripten.clang"
  },
  "schemaVersion": "3.4.9",
  "updatedAt": "2022-08-25T23:39:21.909Z",
  "devdoc": {
    "kind": "dev",
    "methods": {},
    "version": 1
  },
  "userdoc": {
    "kind": "user",
    "methods": {},
    "version": 1
  }
}