{
  "contractName": "SHG",
  "abi": [
    {
      "inputs": [
        {
          "internalType": "address",
          "name": "",
          "type": "address"
        }
      ],
      "name": "addressToBankid",
      "outputs": [
        {
          "internalType": "uint256",
          "name": "",
          "type": "uint256"
        }
      ],
      "stateMutability": "view",
      "type": "function"
    },
    {
      "inputs": [
        {
          "internalType": "address",
          "name": "",
          "type": "address"
        }
      ],
      "name": "addressToSHGid",
      "outputs": [
        {
          "internalType": "uint256",
          "name": "",
          "type": "uint256"
        }
      ],
      "stateMutability": "view",
      "type": "function"
    },
    {
      "inputs": [
        {
          "internalType": "address",
          "name": "",
          "type": "address"
        }
      ],
      "name": "addressToUser",
      "outputs": [
        {
          "internalType": "uint256",
          "name": "",
          "type": "uint256"
        }
      ],
      "stateMutability": "view",
      "type": "function"
    },
    {
      "inputs": [
        {
          "internalType": "uint256",
          "name": "",
          "type": "uint256"
        }
      ],
      "name": "banks",
      "outputs": [
        {
          "internalType": "uint256",
          "name": "id",
          "type": "uint256"
        },
        {
          "internalType": "string",
          "name": "name",
          "type": "string"
        },
        {
          "internalType": "address",
          "name": "walletAddress",
          "type": "address"
        },
        {
          "internalType": "string",
          "name": "code",
          "type": "string"
        },
        {
          "internalType": "uint256",
          "name": "intrestRate",
          "type": "uint256"
        }
      ],
      "stateMutability": "view",
      "type": "function"
    },
    {
      "inputs": [
        {
          "internalType": "uint256",
          "name": "",
          "type": "uint256"
        }
      ],
      "name": "loans",
      "outputs": [
        {
          "internalType": "uint256",
          "name": "loanId",
          "type": "uint256"
        },
        {
          "internalType": "uint256",
          "name": "lenderId",
          "type": "uint256"
        },
        {
          "internalType": "uint256",
          "name": "amount",
          "type": "uint256"
        },
        {
          "internalType": "uint256",
          "name": "lendeeId",
          "type": "uint256"
        },
        {
          "internalType": "uint256",
          "name": "intrest",
          "type": "uint256"
        },
        {
          "internalType": "uint256",
          "name": "loanTime",
          "type": "uint256"
        },
        {
          "internalType": "uint256",
          "name": "date",
          "type": "uint256"
        },
        {
          "internalType": "uint256",
          "name": "lastEMI",
          "type": "uint256"
        }
      ],
      "stateMutability": "view",
      "type": "function"
    },
    {
      "inputs": [
        {
          "internalType": "uint256",
          "name": "",
          "type": "uint256"
        }
      ],
      "name": "shgRequests",
      "outputs": [
        {
          "internalType": "uint256",
          "name": "requestid",
          "type": "uint256"
        },
        {
          "internalType": "uint256",
          "name": "shgid",
          "type": "uint256"
        },
        {
          "internalType": "uint256",
          "name": "amount",
          "type": "uint256"
        },
        {
          "internalType": "uint256",
          "name": "loanTime",
          "type": "uint256"
        },
        {
          "internalType": "enum structs.RequestStatus",
          "name": "status",
          "type": "uint8"
        }
      ],
      "stateMutability": "view",
      "type": "function"
    },
    {
      "inputs": [
        {
          "internalType": "uint256",
          "name": "",
          "type": "uint256"
        }
      ],
      "name": "shgs",
      "outputs": [
        {
          "internalType": "uint256",
          "name": "id",
          "type": "uint256"
        },
        {
          "internalType": "string",
          "name": "name",
          "type": "string"
        },
        {
          "components": [
            {
              "internalType": "string",
              "name": "state",
              "type": "string"
            },
            {
              "internalType": "string",
              "name": "district",
              "type": "string"
            },
            {
              "internalType": "string",
              "name": "blockName",
              "type": "string"
            },
            {
              "internalType": "string",
              "name": "panchyatName",
              "type": "string"
            },
            {
              "internalType": "string",
              "name": "villageName",
              "type": "string"
            }
          ],
          "internalType": "struct structs.Location",
          "name": "location",
          "type": "tuple"
        },
        {
          "internalType": "string",
          "name": "dateOfFormation",
          "type": "string"
        },
        {
          "internalType": "uint256",
          "name": "currentBalance",
          "type": "uint256"
        },
        {
          "internalType": "uint256",
          "name": "owedBalance",
          "type": "uint256"
        },
        {
          "internalType": "uint256",
          "name": "baseIntrest",
          "type": "uint256"
        }
      ],
      "stateMutability": "view",
      "type": "function"
    },
    {
      "inputs": [
        {
          "internalType": "uint256",
          "name": "",
          "type": "uint256"
        }
      ],
      "name": "userRequests",
      "outputs": [
        {
          "internalType": "uint256",
          "name": "requestId",
          "type": "uint256"
        },
        {
          "internalType": "uint256",
          "name": "userId",
          "type": "uint256"
        },
        {
          "internalType": "uint256",
          "name": "amount",
          "type": "uint256"
        },
        {
          "internalType": "string",
          "name": "description",
          "type": "string"
        },
        {
          "internalType": "uint256",
          "name": "SHGId",
          "type": "uint256"
        },
        {
          "internalType": "enum structs.RequestStatus",
          "name": "status",
          "type": "uint8"
        },
        {
          "internalType": "uint256",
          "name": "loanTime",
          "type": "uint256"
        }
      ],
      "stateMutability": "view",
      "type": "function"
    },
    {
      "inputs": [
        {
          "internalType": "uint256",
          "name": "",
          "type": "uint256"
        }
      ],
      "name": "users",
      "outputs": [
        {
          "internalType": "uint256",
          "name": "id",
          "type": "uint256"
        },
        {
          "internalType": "string",
          "name": "name",
          "type": "string"
        },
        {
          "internalType": "string",
          "name": "aadhar",
          "type": "string"
        },
        {
          "internalType": "uint256",
          "name": "mobno",
          "type": "uint256"
        },
        {
          "internalType": "string",
          "name": "fatherName",
          "type": "string"
        },
        {
          "internalType": "address",
          "name": "walletAddress",
          "type": "address"
        },
        {
          "internalType": "uint256",
          "name": "amountTaken",
          "type": "uint256"
        },
        {
          "internalType": "uint256",
          "name": "shgid",
          "type": "uint256"
        },
        {
          "internalType": "enum structs.UserType",
          "name": "userType",
          "type": "uint8"
        },
        {
          "internalType": "enum structs.Gender",
          "name": "gender",
          "type": "uint8"
        },
        {
          "components": [
            {
              "internalType": "string",
              "name": "state",
              "type": "string"
            },
            {
              "internalType": "string",
              "name": "district",
              "type": "string"
            },
            {
              "internalType": "string",
              "name": "blockName",
              "type": "string"
            },
            {
              "internalType": "string",
              "name": "panchyatName",
              "type": "string"
            },
            {
              "internalType": "string",
              "name": "villageName",
              "type": "string"
            }
          ],
          "internalType": "struct structs.Location",
          "name": "location",
          "type": "tuple"
        }
      ],
      "stateMutability": "view",
      "type": "function"
    },
    {
      "inputs": [
        {
          "internalType": "uint256[]",
          "name": "members",
          "type": "uint256[]"
        },
        {
          "internalType": "uint256",
          "name": "president",
          "type": "uint256"
        },
        {
          "internalType": "string",
          "name": "name",
          "type": "string"
        },
        {
          "components": [
            {
              "internalType": "string",
              "name": "state",
              "type": "string"
            },
            {
              "internalType": "string",
              "name": "district",
              "type": "string"
            },
            {
              "internalType": "string",
              "name": "blockName",
              "type": "string"
            },
            {
              "internalType": "string",
              "name": "panchyatName",
              "type": "string"
            },
            {
              "internalType": "string",
              "name": "villageName",
              "type": "string"
            }
          ],
          "internalType": "struct structs.Location",
          "name": "location",
          "type": "tuple"
        },
        {
          "internalType": "string",
          "name": "dateOfFormation",
          "type": "string"
        },
        {
          "internalType": "uint256",
          "name": "_baseIntrest",
          "type": "uint256"
        }
      ],
      "name": "addSHG",
      "outputs": [],
      "stateMutability": "nonpayable",
      "type": "function"
    },
    {
      "inputs": [
        {
          "internalType": "uint256",
          "name": "userid",
          "type": "uint256"
        },
        {
          "internalType": "uint256",
          "name": "shg",
          "type": "uint256"
        }
      ],
      "name": "addSHGMember",
      "outputs": [],
      "stateMutability": "nonpayable",
      "type": "function"
    },
    {
      "inputs": [
        {
          "internalType": "uint256",
          "name": "userid",
          "type": "uint256"
        },
        {
          "internalType": "uint256",
          "name": "shgid",
          "type": "uint256"
        }
      ],
      "name": "removeSHGMember",
      "outputs": [],
      "stateMutability": "nonpayable",
      "type": "function"
    },
    {
      "inputs": [
        {
          "internalType": "uint256",
          "name": "id",
          "type": "uint256"
        },
        {
          "internalType": "enum structs.UserType",
          "name": "updatedType",
          "type": "uint8"
        }
      ],
      "name": "updateMemberRole",
      "outputs": [],
      "stateMutability": "nonpayable",
      "type": "function"
    },
    {
      "inputs": [
        {
          "internalType": "uint256",
          "name": "_requestid",
          "type": "uint256"
        }
      ],
      "name": "sendGrant",
      "outputs": [],
      "stateMutability": "nonpayable",
      "type": "function"
    },
    {
      "inputs": [
        {
          "internalType": "uint256",
          "name": "_requestid",
          "type": "uint256"
        },
        {
          "internalType": "uint256",
          "name": "_shgid",
          "type": "uint256"
        }
      ],
      "name": "approveRequest",
      "outputs": [],
      "stateMutability": "nonpayable",
      "type": "function"
    },
    {
      "inputs": [
        {
          "internalType": "uint256",
          "name": "_shgid",
          "type": "uint256"
        },
        {
          "internalType": "uint256",
          "name": "_amount",
          "type": "uint256"
        },
        {
          "internalType": "uint256",
          "name": "_loanTime",
          "type": "uint256"
        }
      ],
      "name": "sendRequestToBank",
      "outputs": [],
      "stateMutability": "nonpayable",
      "type": "function"
    },
    {
      "inputs": [
        {
          "internalType": "uint256",
          "name": "_shgid",
          "type": "uint256"
        },
        {
          "internalType": "uint256",
          "name": "_loanid",
          "type": "uint256"
        },
        {
          "internalType": "uint256",
          "name": "_amount",
          "type": "uint256"
        }
      ],
      "name": "shgPayEMI",
      "outputs": [],
      "stateMutability": "nonpayable",
      "type": "function"
    },
    {
      "inputs": [
        {
          "internalType": "uint256",
          "name": "_shgid",
          "type": "uint256"
        },
        {
          "internalType": "uint256",
          "name": "_loanid",
          "type": "uint256"
        }
      ],
      "name": "getSHGEMI",
      "outputs": [
        {
          "internalType": "uint256",
          "name": "",
          "type": "uint256"
        }
      ],
      "stateMutability": "nonpayable",
      "type": "function"
    },
    {
      "inputs": [
        {
          "internalType": "uint256",
          "name": "shgid",
          "type": "uint256"
        }
      ],
      "name": "getSHGMembers",
      "outputs": [
        {
          "internalType": "uint256[]",
          "name": "",
          "type": "uint256[]"
        }
      ],
      "stateMutability": "view",
      "type": "function"
    }
  ],
  "bytecode": "0x608060405234801561001057600080fd5b50613796806100206000396000f3fe608060405234801561001057600080fd5b50600436106101205760003560e01c806361c91b70116100ad578063a29231fe11610071578063a29231fe1461036b578063a6e90a5814610387578063af08a94f146103a3578063e1ec3c68146103d3578063edf538861461040a57610120565b806361c91b701461029d578063769d0e16146102cd5780637d550bb3146102fd57806394169656146103195780639bbc9ab11461034f57610120565b80632c0a90a9116100f45780632c0a90a9146101df578063365b98b2146101fb57806339d8bed1146102355780633ae0058f146102515780634f269c921461028157610120565b806285ae2b14610125578063021af39714610159578063257a170b1461017557806326271cf2146101a9575b600080fd5b61013f600480360381019061013a9190612a1e565b61043a565b604051610150959493929190612e6e565b60405180910390f35b610173600480360381019061016e9190612abf565b6105a0565b005b61018f600480360381019061018a9190612a1e565b610777565b6040516101a0959493929190613090565b60405180910390f35b6101c360048036038101906101be9190612a1e565b6107ba565b6040516101d69796959493929190612f96565b60405180910390f35b6101f960048036038101906101f49190612a83565b610bf0565b005b61021560048036038101906102109190612a1e565b610d46565b60405161022c9b9a99989796959493929190612ecf565b60405180910390f35b61024f600480360381019061024a9190612a83565b611256565b005b61026b6004803603810190610266919061290c565b61136c565b6040516102789190612e53565b60405180910390f35b61029b60048036038101906102969190612a47565b611384565b005b6102b760048036038101906102b2919061290c565b6113eb565b6040516102c49190612e53565b60405180910390f35b6102e760048036038101906102e29190612a83565b611403565b6040516102f49190612e53565b60405180910390f35b61031760048036038101906103129190612abf565b611521565b005b610333600480360381019061032e9190612a1e565b611600565b604051610346979695949392919061301a565b60405180910390f35b61036960048036038101906103649190612a1e565b6116d7565b005b61038560048036038101906103809190612935565b611b7f565b005b6103a1600480360381019061039c9190612a83565b612067565b005b6103bd60048036038101906103b89190612a1e565b6121f9565b6040516103ca9190612d91565b60405180910390f35b6103ed60048036038101906103e89190612a1e565b612267565b6040516104019897969594939291906130e3565b60405180910390f35b610424600480360381019061041f919061290c565b6122af565b6040516104319190612e53565b60405180910390f35b60026020528060005260406000206000915090508060000154908060010180546104639061344b565b80601f016020809104026020016040519081016040528092919081815260200182805461048f9061344b565b80156104dc5780601f106104b1576101008083540402835291602001916104dc565b820191906000526020600020905b8154815290600101906020018083116104bf57829003601f168201915b5050505050908060020160009054906101000a900473ffffffffffffffffffffffffffffffffffffffff16908060030180546105179061344b565b80601f01602080910402602001604051908101604052809291908181526020018280546105439061344b565b80156105905780601f1061056557610100808354040283529160200191610590565b820191906000526020600020905b81548152906001019060200180831161057357829003601f168201915b5050505050908060040154905085565b826000600160008381526020019081526020016000206000015414156105c557600080fd5b83600080600360003373ffffffffffffffffffffffffffffffffffffffff1673ffffffffffffffffffffffffffffffffffffffff168152602001908152602001600020548152602001908152602001600020600801541461062557600080fd5b6000600c600081548092919061063a906134ae565b9190505590506040518060a0016040528082815260200186815260200185815260200184815260200160038081111561069c577f4e487b7100000000000000000000000000000000000000000000000000000000600052602160045260246000fd5b815250600660008381526020019081526020016000206000820151816000015560208201518160010155604082015181600201556060820151816003015560808201518160040160006101000a81548160ff0219169083600381111561072b577f4e487b7100000000000000000000000000000000000000000000000000000000600052602160045260246000fd5b021790555090505060016000868152602001908152602001600020600c018190806001815401808255809150506001900390600052602060002001600090919091909150555050505050565b60066020528060005260406000206000915090508060000154908060010154908060020154908060030154908060040160009054906101000a900460ff16905085565b60016020528060005260406000206000915090508060000154908060020180546107e39061344b565b80601f016020809104026020016040519081016040528092919081815260200182805461080f9061344b565b801561085c5780601f106108315761010080835404028352916020019161085c565b820191906000526020600020905b81548152906001019060200180831161083f57829003601f168201915b505050505090806003016040518060a00160405290816000820180546108819061344b565b80601f01602080910402602001604051908101604052809291908181526020018280546108ad9061344b565b80156108fa5780601f106108cf576101008083540402835291602001916108fa565b820191906000526020600020905b8154815290600101906020018083116108dd57829003601f168201915b505050505081526020016001820180546109139061344b565b80601f016020809104026020016040519081016040528092919081815260200182805461093f9061344b565b801561098c5780601f106109615761010080835404028352916020019161098c565b820191906000526020600020905b81548152906001019060200180831161096f57829003601f168201915b505050505081526020016002820180546109a59061344b565b80601f01602080910402602001604051908101604052809291908181526020018280546109d19061344b565b8015610a1e5780601f106109f357610100808354040283529160200191610a1e565b820191906000526020600020905b815481529060010190602001808311610a0157829003601f168201915b50505050508152602001600382018054610a379061344b565b80601f0160208091040260200160405190810160405280929190818152602001828054610a639061344b565b8015610ab05780601f10610a8557610100808354040283529160200191610ab0565b820191906000526020600020905b815481529060010190602001808311610a9357829003601f168201915b50505050508152602001600482018054610ac99061344b565b80601f0160208091040260200160405190810160405280929190818152602001828054610af59061344b565b8015610b425780601f10610b1757610100808354040283529160200191610b42565b820191906000526020600020905b815481529060010190602001808311610b2557829003601f168201915b50505050508152505090806008018054610b5b9061344b565b80601f0160208091040260200160405190810160405280929190818152602001828054610b879061344b565b8015610bd45780601f10610ba957610100808354040283529160200191610bd4565b820191906000526020600020905b815481529060010190602001808311610bb757829003601f168201915b50505050509080600901549080600a01549080600d0154905087565b80600060016000838152602001908152602001600020600001541415610c1557600080fd5b600060056000858152602001908152602001600020905082816004015414610c3c57600080fd5b610c45846122c7565b610c4e57600080fd5b80600701600360003373ffffffffffffffffffffffffffffffffffffffff1673ffffffffffffffffffffffffffffffffffffffff16815260200190815260200160002054908060018154018082558091505060019003906000526020600020016000909190919091505560026001600085815260200190815260200160002060010180549050610cde919061329f565b81600701805490501115610d405760008160050160006101000a81548160ff02191690836003811115610d3a577f4e487b7100000000000000000000000000000000000000000000000000000000600052602160045260246000fd5b02179055505b50505050565b6000602052806000526040600020600091509050806000015490806001018054610d6f9061344b565b80601f0160208091040260200160405190810160405280929190818152602001828054610d9b9061344b565b8015610de85780601f10610dbd57610100808354040283529160200191610de8565b820191906000526020600020905b815481529060010190602001808311610dcb57829003601f168201915b505050505090806002018054610dfd9061344b565b80601f0160208091040260200160405190810160405280929190818152602001828054610e299061344b565b8015610e765780601f10610e4b57610100808354040283529160200191610e76565b820191906000526020600020905b815481529060010190602001808311610e5957829003601f168201915b505050505090806003015490806004018054610e919061344b565b80601f0160208091040260200160405190810160405280929190818152602001828054610ebd9061344b565b8015610f0a5780601f10610edf57610100808354040283529160200191610f0a565b820191906000526020600020905b815481529060010190602001808311610eed57829003601f168201915b5050505050908060050160009054906101000a900473ffffffffffffffffffffffffffffffffffffffff16908060070154908060080154908060090160009054906101000a900460ff16908060090160019054906101000a900460ff169080600a016040518060a0016040529081600082018054610f879061344b565b80601f0160208091040260200160405190810160405280929190818152602001828054610fb39061344b565b80156110005780601f10610fd557610100808354040283529160200191611000565b820191906000526020600020905b815481529060010190602001808311610fe357829003601f168201915b505050505081526020016001820180546110199061344b565b80601f01602080910402602001604051908101604052809291908181526020018280546110459061344b565b80156110925780601f1061106757610100808354040283529160200191611092565b820191906000526020600020905b81548152906001019060200180831161107557829003601f168201915b505050505081526020016002820180546110ab9061344b565b80601f01602080910402602001604051908101604052809291908181526020018280546110d79061344b565b80156111245780601f106110f957610100808354040283529160200191611124565b820191906000526020600020905b81548152906001019060200180831161110757829003601f168201915b5050505050815260200160038201805461113d9061344b565b80601f01602080910402602001604051908101604052809291908181526020018280546111699061344b565b80156111b65780601f1061118b576101008083540402835291602001916111b6565b820191906000526020600020905b81548152906001019060200180831161119957829003601f168201915b505050505081526020016004820180546111cf9061344b565b80601f01602080910402602001604051908101604052809291908181526020018280546111fb9061344b565b80156112485780601f1061121d57610100808354040283529160200191611248565b820191906000526020600020905b81548152906001019060200180831161122b57829003601f168201915b50505050508152505090508b565b8060008084815260200190815260200160002060080154146112ad576040517f08c379a00000000000000000000000000000000000000000000000000000000081526004016112a490612df3565b60405180910390fd5b8060008084815260200190815260200160002060080181905550600360008084815260200190815260200160002060090160006101000a81548160ff02191690836005811115611326577f4e487b7100000000000000000000000000000000000000000000000000000000600052602160045260246000fd5b0217905550600160008281526020019081526020016000206001018290806001815401808255809150506001900390600052602060002001600090919091909150555050565b60076020528060005260406000206000915090505481565b8060008084815260200190815260200160002060090160006101000a81548160ff021916908360058111156113e2577f4e487b7100000000000000000000000000000000000000000000000000000000600052602160045260246000fd5b02179055505050565b60086020528060005260406000206000915090505481565b60008260006001600083815260200190815260200160002060000154141561142a57600080fd5b60006004600085815260200190815260200160002090506000601e603c80601885600701544261145a919061332a565b611464919061329f565b61146e91906132d0565b61147891906132d0565b61148291906132d0565b90506000811161149157600080fd5b60008260020154905060008360040154905060008460050154905060008382600c6114bc91906132d0565b6114c6919061332a565b600c6064856114d5919061329f565b6114df91906132d0565b60016114eb9190613249565b856114f691906132d0565b189050808660020154611509919061332a565b86600201819055508097505050505050505092915050565b8260006001600083815260200190815260200160002060000154141561154657600080fd5b60006115528585611403565b905082811461156057600080fd5b60006004600086815260200190815260200160002090503073ffffffffffffffffffffffffffffffffffffffff166108fc859081150290604051600060405180830381858888f193505050501580156115bd573d6000803e3d6000fd5b5083600160008360030154815260200190815260200160002060090160008282546115e89190613249565b92505081905550428160070181905550505050505050565b60056020528060005260406000206000915090508060000154908060010154908060020154908060030180546116359061344b565b80601f01602080910402602001604051908101604052809291908181526020018280546116619061344b565b80156116ae5780601f10611683576101008083540402835291602001916116ae565b820191906000526020600020905b81548152906001019060200180831161169157829003601f168201915b5050505050908060040154908060050160009054906101000a900460ff16908060060154905087565b60026005811115611711577f4e487b7100000000000000000000000000000000000000000000000000000000600052602160045260246000fd5b600080600360003373ffffffffffffffffffffffffffffffffffffffff1673ffffffffffffffffffffffffffffffffffffffff16815260200190815260200160002054815260200190815260200160002060090160009054906101000a900460ff1660058111156117ab577f4e487b7100000000000000000000000000000000000000000000000000000000600052602160045260246000fd5b146117eb576040517f08c379a00000000000000000000000000000000000000000000000000000000081526004016117e290612e33565b60405180910390fd5b60006003811115611825577f4e487b7100000000000000000000000000000000000000000000000000000000600052602160045260246000fd5b6005600083815260200190815260200160002060050160009054906101000a900460ff166003811115611881577f4e487b7100000000000000000000000000000000000000000000000000000000600052602160045260246000fd5b146118c1576040517f08c379a00000000000000000000000000000000000000000000000000000000081526004016118b890612e13565b60405180910390fd5b600060056000838152602001908152602001600020905060018160050160006101000a81548160ff02191690836003811115611926577f4e487b7100000000000000000000000000000000000000000000000000000000600052602160045260246000fd5b02179055506000604051806101000160405280600e60008154611948906134ae565b91905081905581526020018360040154815260200183600201548152602001836001015481526020016001600085600401548152602001908152602001600020600d0154815260200183600601548152602001428152602001600081525090508060046000600e548152602001908152602001600020600082015181600001556020820151816001015560408201518160020155606082015181600301556080820151816004015560a0820151816005015560c0820151816006015560e082015181600701559050506001600083600401548152602001908152602001600020600b01600e54908060018154018082558091505060019003906000526020600020016000909190919091505560008083600101548152602001908152602001600020600601600e54908060018154018082558091505060019003906000526020600020016000909190919091505581600201546001600084600401548152602001908152602001600020600901541015611ac157600080fd5b6000808360010154815260200190815260200160002060050160009054906101000a900473ffffffffffffffffffffffffffffffffffffffff1673ffffffffffffffffffffffffffffffffffffffff166108fc83600201549081150290604051600060405180830381858888f19350505050158015611b44573d6000803e3d6000fd5b50816002015460016000846004015481526020019081526020016000206009016000828254611b73919061332a565b92505081905550505050565b600786511015611bc4576040517f08c379a0000000000000000000000000000000000000000000000000000000008152600401611bbb90612db3565b60405180910390fd5b6000600a60008154611bd5906134ae565b91905081905590506040518061014001604052808281526020018881526020018681526020018581526020018481526020016000815260200160008152602001600067ffffffffffffffff811115611c56577f4e487b7100000000000000000000000000000000000000000000000000000000600052604160045260246000fd5b604051908082528060200260200182016040528015611c845781602001602082028036833780820191505090505b508152602001600067ffffffffffffffff811115611ccb577f4e487b7100000000000000000000000000000000000000000000000000000000600052604160045260246000fd5b604051908082528060200260200182016040528015611cf95781602001602082028036833780820191505090505b5081526020018381525060016000838152602001908152602001600020600082015181600001556020820151816001019080519060200190611d3c9291906125df565b506040820151816002019080519060200190611d5992919061262c565b506060820151816003016000820151816000019080519060200190611d7f92919061262c565b506020820151816001019080519060200190611d9c92919061262c565b506040820151816002019080519060200190611db992919061262c565b506060820151816003019080519060200190611dd692919061262c565b506080820151816004019080519060200190611df392919061262c565b5050506080820151816008019080519060200190611e1292919061262c565b5060a0820151816009015560c082015181600a015560e082015181600b019080519060200190611e439291906125df565b5061010082015181600c019080519060200190611e619291906125df565b5061012082015181600d015590505060005b8751811015611f825786888281518110611eb6577f4e487b7100000000000000000000000000000000000000000000000000000000600052603260045260246000fd5b602002602001015114611eca576003611ecd565b60005b6000808a8481518110611f09577f4e487b7100000000000000000000000000000000000000000000000000000000600052603260045260246000fd5b6020026020010151815260200190815260200160002060090160006101000a81548160ff02191690836005811115611f6a577f4e487b7100000000000000000000000000000000000000000000000000000000600052602160045260246000fd5b02179055508080611f7a906134ae565b915050611e73565b5060005b875181101561205d57600a54600760008060008c8681518110611fd2577f4e487b7100000000000000000000000000000000000000000000000000000000600052603260045260246000fd5b6020026020010151815260200190815260200160002060050160009054906101000a900473ffffffffffffffffffffffffffffffffffffffff1673ffffffffffffffffffffffffffffffffffffffff1673ffffffffffffffffffffffffffffffffffffffff168152602001908152602001600020819055508080612055906134ae565b915050611f86565b5050505050505050565b60006001600083815260200190815260200160002090506120da816001018054806020026020016040519081016040528092919081815260200182805480156120cf57602002820191906000526020600020905b8154815260200190600101908083116120bb575b5050505050836123a5565b612119576040517f08c379a000000000000000000000000000000000000000000000000000000000815260040161211090612dd3565b60405180910390fd5b60006121778260010180548060200260200160405190810160405280929190818152602001828054801561216c57602002820191906000526020600020905b815481526020019060010190808311612158575b505050505085612433565b905060006121d7836001018054806020026020016040519081016040528092919081815260200182805480156121cc57602002820191906000526020600020905b8154815260200190600101908083116121b8575b5050505050836124b4565b9050808360010190805190602001906121f19291906125df565b505050505050565b60606001600083815260200190815260200160002060010180548060200260200160405190810160405280929190818152602001828054801561225b57602002820191906000526020600020905b815481526020019060010190808311612247575b50505050509050919050565b60046020528060005260406000206000915090508060000154908060010154908060020154908060030154908060040154908060050154908060060154908060070154905088565b60036020528060005260406000206000915090505481565b60008060056000848152602001908152602001600020600701905060005b818054905081101561239957600360003373ffffffffffffffffffffffffffffffffffffffff1673ffffffffffffffffffffffffffffffffffffffff1681526020019081526020016000205482828154811061236a577f4e487b7100000000000000000000000000000000000000000000000000000000600052603260045260246000fd5b90600052602060002001541415612386576000925050506123a0565b8080612391906134ae565b9150506122e5565b5060019150505b919050565b600080600090505b600184516123bb919061332a565b81101561242757828482815181106123fc577f4e487b7100000000000000000000000000000000000000000000000000000000600052603260045260246000fd5b6020026020010151141561241457600191505061242d565b808061241f906134ae565b9150506123ad565b50600090505b92915050565b600080600090505b83518110156124a8578284828151811061247e577f4e487b7100000000000000000000000000000000000000000000000000000000600052603260045260246000fd5b6020026020010151141561249557809150506124ae565b80806124a0906134ae565b91505061243b565b50600090505b92915050565b6060825182106124c357600080fd5b60008290505b600184516124d7919061332a565b81101561258357836001826124ec9190613249565b81518110612523577f4e487b7100000000000000000000000000000000000000000000000000000000600052603260045260246000fd5b6020026020010151848281518110612564577f4e487b7100000000000000000000000000000000000000000000000000000000600052603260045260246000fd5b602002602001018181525050808061257b906134ae565b9150506124c9565b508260018451612593919061332a565b815181106125ca577f4e487b7100000000000000000000000000000000000000000000000000000000600052603260045260246000fd5b60200260200101600081525082905092915050565b82805482825590600052602060002090810192821561261b579160200282015b8281111561261a5782518255916020019190600101906125ff565b5b50905061262891906126b2565b5090565b8280546126389061344b565b90600052602060002090601f01602090048101928261265a57600085556126a1565b82601f1061267357805160ff19168380011785556126a1565b828001600101855582156126a1579182015b828111156126a0578251825591602001919060010190612685565b5b5090506126ae91906126b2565b5090565b5b808211156126cb5760008160009055506001016126b3565b5090565b60006126e26126dd84613186565b613161565b9050808382526020820190508285602086028201111561270157600080fd5b60005b85811015612731578161271788826128f7565b845260208401935060208301925050600181019050612704565b5050509392505050565b600061274e612749846131b2565b613161565b90508281526020810184848401111561276657600080fd5b612771848285613409565b509392505050565b60008135905061278881613722565b92915050565b600082601f83011261279f57600080fd5b81356127af8482602086016126cf565b91505092915050565b6000813590506127c781613739565b92915050565b600082601f8301126127de57600080fd5b81356127ee84826020860161273b565b91505092915050565b600060a0828403121561280957600080fd5b61281360a0613161565b9050600082013567ffffffffffffffff81111561282f57600080fd5b61283b848285016127cd565b600083015250602082013567ffffffffffffffff81111561285b57600080fd5b612867848285016127cd565b602083015250604082013567ffffffffffffffff81111561288757600080fd5b612893848285016127cd565b604083015250606082013567ffffffffffffffff8111156128b357600080fd5b6128bf848285016127cd565b606083015250608082013567ffffffffffffffff8111156128df57600080fd5b6128eb848285016127cd565b60808301525092915050565b60008135905061290681613749565b92915050565b60006020828403121561291e57600080fd5b600061292c84828501612779565b91505092915050565b60008060008060008060c0878903121561294e57600080fd5b600087013567ffffffffffffffff81111561296857600080fd5b61297489828a0161278e565b965050602061298589828a016128f7565b955050604087013567ffffffffffffffff8111156129a257600080fd5b6129ae89828a016127cd565b945050606087013567ffffffffffffffff8111156129cb57600080fd5b6129d789828a016127f7565b935050608087013567ffffffffffffffff8111156129f457600080fd5b612a0089828a016127cd565b92505060a0612a1189828a016128f7565b9150509295509295509295565b600060208284031215612a3057600080fd5b6000612a3e848285016128f7565b91505092915050565b60008060408385031215612a5a57600080fd5b6000612a68858286016128f7565b9250506020612a79858286016127b8565b9150509250929050565b60008060408385031215612a9657600080fd5b6000612aa4858286016128f7565b9250506020612ab5858286016128f7565b9150509250929050565b600080600060608486031215612ad457600080fd5b6000612ae2868287016128f7565b9350506020612af3868287016128f7565b9250506040612b04868287016128f7565b9150509250925092565b6000612b1a8383612d73565b60208301905092915050565b612b2f8161335e565b82525050565b6000612b40826131f3565b612b4a8185613216565b9350612b55836131e3565b8060005b83811015612b86578151612b6d8882612b0e565b9750612b7883613209565b925050600181019050612b59565b5085935050505092915050565b612b9c816133d3565b82525050565b612bab816133e5565b82525050565b612bba816133f7565b82525050565b6000612bcb826131fe565b612bd58185613227565b9350612be5818560208601613418565b612bee816135e2565b840191505092915050565b6000612c04826131fe565b612c0e8185613238565b9350612c1e818560208601613418565b612c27816135e2565b840191505092915050565b6000612c3f601a83613238565b9150612c4a826135f3565b602082019050919050565b6000612c62602583613238565b9150612c6d8261361c565b604082019050919050565b6000612c85601283613238565b9150612c908261366b565b602082019050919050565b6000612ca8601283613238565b9150612cb382613694565b602082019050919050565b6000612ccb601383613238565b9150612cd6826136bd565b602082019050919050565b600060a0830160008301518482036000860152612cfe8282612bc0565b91505060208301518482036020860152612d188282612bc0565b91505060408301518482036040860152612d328282612bc0565b91505060608301518482036060860152612d4c8282612bc0565b91505060808301518482036080860152612d668282612bc0565b9150508091505092915050565b612d7c816133c9565b82525050565b612d8b816133c9565b82525050565b60006020820190508181036000830152612dab8184612b35565b905092915050565b60006020820190508181036000830152612dcc81612c32565b9050919050565b60006020820190508181036000830152612dec81612c55565b9050919050565b60006020820190508181036000830152612e0c81612c78565b9050919050565b60006020820190508181036000830152612e2c81612c9b565b9050919050565b60006020820190508181036000830152612e4c81612cbe565b9050919050565b6000602082019050612e686000830184612d82565b92915050565b600060a082019050612e836000830188612d82565b8181036020830152612e958187612bf9565b9050612ea46040830186612b26565b8181036060830152612eb68185612bf9565b9050612ec56080830184612d82565b9695505050505050565b600061016082019050612ee5600083018e612d82565b8181036020830152612ef7818d612bf9565b90508181036040830152612f0b818c612bf9565b9050612f1a606083018b612d82565b8181036080830152612f2c818a612bf9565b9050612f3b60a0830189612b26565b612f4860c0830188612d82565b612f5560e0830187612d82565b612f63610100830186612bb1565b612f71610120830185612b93565b818103610140830152612f848184612ce1565b90509c9b505050505050505050505050565b600060e082019050612fab600083018a612d82565b8181036020830152612fbd8189612bf9565b90508181036040830152612fd18188612ce1565b90508181036060830152612fe58187612bf9565b9050612ff46080830186612d82565b61300160a0830185612d82565b61300e60c0830184612d82565b98975050505050505050565b600060e08201905061302f600083018a612d82565b61303c6020830189612d82565b6130496040830188612d82565b818103606083015261305b8187612bf9565b905061306a6080830186612d82565b61307760a0830185612ba2565b61308460c0830184612d82565b98975050505050505050565b600060a0820190506130a56000830188612d82565b6130b26020830187612d82565b6130bf6040830186612d82565b6130cc6060830185612d82565b6130d96080830184612ba2565b9695505050505050565b6000610100820190506130f9600083018b612d82565b613106602083018a612d82565b6131136040830189612d82565b6131206060830188612d82565b61312d6080830187612d82565b61313a60a0830186612d82565b61314760c0830185612d82565b61315460e0830184612d82565b9998505050505050505050565b600061316b61317c565b9050613177828261347d565b919050565b6000604051905090565b600067ffffffffffffffff8211156131a1576131a06135b3565b5b602082029050602081019050919050565b600067ffffffffffffffff8211156131cd576131cc6135b3565b5b6131d6826135e2565b9050602081019050919050565b6000819050602082019050919050565b600081519050919050565b600081519050919050565b6000602082019050919050565b600082825260208201905092915050565b600082825260208201905092915050565b600082825260208201905092915050565b6000613254826133c9565b915061325f836133c9565b9250827fffffffffffffffffffffffffffffffffffffffffffffffffffffffffffffffff03821115613294576132936134f7565b5b828201905092915050565b60006132aa826133c9565b91506132b5836133c9565b9250826132c5576132c4613526565b5b828204905092915050565b60006132db826133c9565b91506132e6836133c9565b9250817fffffffffffffffffffffffffffffffffffffffffffffffffffffffffffffffff048311821515161561331f5761331e6134f7565b5b828202905092915050565b6000613335826133c9565b9150613340836133c9565b925082821015613353576133526134f7565b5b828203905092915050565b6000613369826133a9565b9050919050565b600081905061337e826136e6565b919050565b6000819050613391826136fa565b919050565b60008190506133a48261370e565b919050565b600073ffffffffffffffffffffffffffffffffffffffff82169050919050565b6000819050919050565b60006133de82613370565b9050919050565b60006133f082613383565b9050919050565b600061340282613396565b9050919050565b82818337600083830152505050565b60005b8381101561343657808201518184015260208101905061341b565b83811115613445576000848401525b50505050565b6000600282049050600182168061346357607f821691505b6020821081141561347757613476613584565b5b50919050565b613486826135e2565b810181811067ffffffffffffffff821117156134a5576134a46135b3565b5b80604052505050565b60006134b9826133c9565b91507fffffffffffffffffffffffffffffffffffffffffffffffffffffffffffffffff8214156134ec576134eb6134f7565b5b600182019050919050565b7f4e487b7100000000000000000000000000000000000000000000000000000000600052601160045260246000fd5b7f4e487b7100000000000000000000000000000000000000000000000000000000600052601260045260246000fd5b7f4e487b7100000000000000000000000000000000000000000000000000000000600052602160045260246000fd5b7f4e487b7100000000000000000000000000000000000000000000000000000000600052602260045260246000fd5b7f4e487b7100000000000000000000000000000000000000000000000000000000600052604160045260246000fd5b6000601f19601f8301169050919050565b7f41746c656173742037206d656d62657273207265717569726564000000000000600082015250565b7f5573657220697320616c7265616479206e6f7420612070617274206f6620746860008201527f6520534847000000000000000000000000000000000000000000000000000000602082015250565b7f5573657220616c72656164792061646465640000000000000000000000000000600082015250565b7f556e617070726f76656420726571756573740000000000000000000000000000600082015250565b7f556e617574686f72697a65642072657165737400000000000000000000000000600082015250565b600381106136f7576136f6613555565b5b50565b6004811061370b5761370a613555565b5b50565b6006811061371f5761371e613555565b5b50565b61372b8161335e565b811461373657600080fd5b50565b6006811061374657600080fd5b50565b613752816133c9565b811461375d57600080fd5b5056fea2646970667358221220ff870d9114e37b633a26ace595a54858573a115151a2e1f91623a11f1b6d99fe64736f6c63430008040033",
  "immutableReferences": {},
  "source": "// SPDX-License-Identifier: MIT\npragma solidity ^0.8.1;\n\nimport \"./structs.sol\";\nimport \"./helpers.sol\";\nimport \"./modifiers.sol\";\n\ncontract SHG is structs, helpers, modifiers {\n    function addSHG(\n        uint256[] memory members,\n        uint256 president,\n        string memory name,\n        Location memory location,\n        string memory dateOfFormation,\n        uint256 _baseIntrest\n    ) public {\n        require(members.length >= 7, \"Atleast 7 members required\");\n        uint256 id = ++numSHGs;\n        shgs[id] = SHG(\n            id,\n            members,\n            name,\n            location,\n            dateOfFormation,\n            0,\n            0,\n            new uint256[](0),\n            new uint256[](0),\n            _baseIntrest\n        );\n        for (uint256 i = 0; i < members.length; i++) {\n            users[members[i]].userType = members[i] == president\n                ? UserType.PRESIDENT\n                : UserType.MEMBER;\n        }\n\n        for (uint256 i = 0; i < members.length; i++) {\n            addressToSHGid[users[members[i]].walletAddress] = numSHGs;\n        }\n    }\n\n    function addSHGMember(uint256 userid, uint256 shg) public {\n        require(users[userid].shgid == shg, \"User already added\");\n        users[userid].shgid = shg;\n        users[userid].userType = UserType.MEMBER;\n        shgs[shg].users.push(userid);\n    }\n\n    function removeSHGMember(uint256 userid, uint256 shgid) public {\n        SHG storage shg = shgs[shgid];\n        require(\n            check(shg.users, shgid),\n            \"User is already not a part of the SHG\"\n        );\n\n        uint256 index = getIndex(shg.users, userid);\n        uint256[] memory newusers = deleteIndex(shg.users, index);\n        shg.users = newusers;\n    }\n\n    function updateMemberRole(uint256 id, UserType updatedType) public {\n        // TODO: add requires\n        users[id].userType = updatedType;\n    }\n\n    function sendGrant(uint256 _requestid) public {\n        require(\n            users[addressToUser[msg.sender]].userType == UserType.TREASURER,\n            \"Unauthorized reqest\"\n        );\n        require(\n            userRequests[_requestid].status == RequestStatus.APPROVED,\n            \"Unapproved request\"\n        );\n        UserRequest storage request = userRequests[_requestid];\n\n        request.status = RequestStatus.COMPLETED;\n\n        Loan memory newLoan = Loan({\n            loanId: ++numLoans,\n            lenderId: request.SHGId,\n            amount: request.amount,\n            lendeeId: request.userId,\n            intrest: shgs[request.SHGId].baseIntrest,\n            loanTime: request.loanTime,\n            date: block.timestamp,\n            lastEMI: 0\n        });\n\n        loans[numLoans] = newLoan;\n        shgs[request.SHGId].loansGiven.push(numLoans);\n        users[request.userId].loansTaken.push(numLoans);\n\n        require(shgs[request.SHGId].currentBalance >= request.amount);\n        payable(users[request.userId].walletAddress).transfer(request.amount);\n        shgs[request.SHGId].currentBalance -= request.amount;\n    }\n\n    function checkApproval(uint256 _requestid) internal view returns (bool) {\n        uint256[] storage approvals = userRequests[_requestid].approvals;\n\n        for (uint256 i = 0; i < approvals.length; i++) {\n            if (approvals[i] == addressToUser[msg.sender]) {\n                return false;\n            }\n        }\n\n        return true;\n    }\n\n    function approveRequest(uint256 _requestid, uint256 _shgid)\n        public\n        onlySHG(_shgid)\n    {\n        UserRequest storage request = userRequests[_requestid];\n        require(request.SHGId == _shgid);\n\n        require(checkApproval(_requestid));\n        request.approvals.push(addressToUser[msg.sender]);\n\n        if (request.approvals.length > shgs[_shgid].users.length / 2) {\n            request.status = RequestStatus.APPROVED;\n        }\n    }\n\n    function sendRequestToBank(\n        uint256 _shgid,\n        uint256 _amount,\n        uint256 _loanTime\n    ) public onlySHG(_shgid) {\n        require(users[addressToUser[msg.sender]].shgid == _shgid);\n        uint256 reqid = numSHGRequests++;\n        shgRequests[reqid] = SHGRequest(\n            reqid,\n            _shgid,\n            _amount,\n            _loanTime,\n            RequestStatus.IN_PROCESS\n        );\n        shgs[_shgid].loansTaken.push(reqid);\n    }\n\n    function shgPayEMI(\n        uint256 _shgid,\n        uint256 _loanid,\n        uint256 _amount\n    ) public onlySHG(_shgid) {\n        uint256 amount = getSHGEMI(_shgid, _loanid);\n        require(amount == _amount);\n        Loan storage loan = loans[_loanid];\n        payable(address(this)).transfer(_amount);\n        shgs[loan.lendeeId].currentBalance += _amount;\n        loan.lastEMI = block.timestamp;\n    }\n\n    // fetch functions\n    function getSHGEMI(uint256 _shgid, uint256 _loanid)\n        public\n        onlySHG(_shgid)\n        returns (uint256)\n    {\n        Loan storage loan = loans[_loanid];\n        uint256 months = ((block.timestamp - loan.lastEMI) / 24) * 60 * 60 * 30;\n\n        require(months > 0);\n        uint256 P = loan.amount;\n        uint256 r = loan.intrest;\n        uint256 t = loan.loanTime;\n        uint256 emi = (P * (1 + ((r / 100) * 12))) ^ ((12 * t) - P);\n\n        loan.amount = loan.amount - emi;\n        return emi;\n    }\n\n    function getSHGMembers(uint256 shgid)\n        public\n        view\n        returns (uint256[] memory)\n    {\n        return shgs[shgid].users;\n    }\n}\n",
  "sourcePath": "/home/sdas/code/yogdaan-contracts/contracts/lib/SHG.sol",
  "compiler": {
    "name": "solc",
    "version": "0.8.4+commit.c7e474f2.Emscripten.clang"
  },
  "schemaVersion": "3.4.9",
  "updatedAt": "2022-08-24T17:03:22.868Z",
  "devdoc": {
    "kind": "dev",
    "methods": {},
    "version": 1
  },
  "userdoc": {
    "kind": "user",
    "methods": {},
    "version": 1
  }
}