{
  "contractName": "SHG",
  "abi": [
    {
      "inputs": [
        {
          "internalType": "address",
          "name": "",
          "type": "address"
        }
      ],
      "name": "addressToBankid",
      "outputs": [
        {
          "internalType": "uint256",
          "name": "",
          "type": "uint256"
        }
      ],
      "stateMutability": "view",
      "type": "function"
    },
    {
      "inputs": [
        {
          "internalType": "address",
          "name": "",
          "type": "address"
        }
      ],
      "name": "addressToSHGid",
      "outputs": [
        {
          "internalType": "uint256",
          "name": "",
          "type": "uint256"
        }
      ],
      "stateMutability": "view",
      "type": "function"
    },
    {
      "inputs": [
        {
          "internalType": "address",
          "name": "",
          "type": "address"
        }
      ],
      "name": "addressToUser",
      "outputs": [
        {
          "internalType": "uint256",
          "name": "",
          "type": "uint256"
        }
      ],
      "stateMutability": "view",
      "type": "function"
    },
    {
      "inputs": [
        {
          "internalType": "uint256",
          "name": "",
          "type": "uint256"
        }
      ],
      "name": "banks",
      "outputs": [
        {
          "internalType": "uint256",
          "name": "id",
          "type": "uint256"
        },
        {
          "internalType": "string",
          "name": "name",
          "type": "string"
        },
        {
          "internalType": "address",
          "name": "walletAddress",
          "type": "address"
        },
        {
          "internalType": "string",
          "name": "code",
          "type": "string"
        },
        {
          "internalType": "uint256",
          "name": "intrestRate",
          "type": "uint256"
        }
      ],
      "stateMutability": "view",
      "type": "function"
    },
    {
      "inputs": [
        {
          "internalType": "uint256",
          "name": "",
          "type": "uint256"
        }
      ],
      "name": "loans",
      "outputs": [
        {
          "internalType": "uint256",
          "name": "loanId",
          "type": "uint256"
        },
        {
          "internalType": "uint256",
          "name": "lenderId",
          "type": "uint256"
        },
        {
          "internalType": "uint256",
          "name": "amount",
          "type": "uint256"
        },
        {
          "internalType": "uint256",
          "name": "lendeeId",
          "type": "uint256"
        },
        {
          "internalType": "uint256",
          "name": "intrest",
          "type": "uint256"
        },
        {
          "internalType": "uint256",
          "name": "loanTime",
          "type": "uint256"
        },
        {
          "internalType": "uint256",
          "name": "date",
          "type": "uint256"
        },
        {
          "internalType": "uint256",
          "name": "lastEMI",
          "type": "uint256"
        }
      ],
      "stateMutability": "view",
      "type": "function"
    },
    {
      "inputs": [
        {
          "internalType": "uint256",
          "name": "",
          "type": "uint256"
        }
      ],
      "name": "shgRequests",
      "outputs": [
        {
          "internalType": "uint256",
          "name": "requestid",
          "type": "uint256"
        },
        {
          "internalType": "uint256",
          "name": "shgid",
          "type": "uint256"
        },
        {
          "internalType": "uint256",
          "name": "amount",
          "type": "uint256"
        },
        {
          "internalType": "uint256",
          "name": "loanTime",
          "type": "uint256"
        },
        {
          "internalType": "enum structs.RequestStatus",
          "name": "status",
          "type": "uint8"
        }
      ],
      "stateMutability": "view",
      "type": "function"
    },
    {
      "inputs": [
        {
          "internalType": "uint256",
          "name": "",
          "type": "uint256"
        }
      ],
      "name": "shgs",
      "outputs": [
        {
          "internalType": "uint256",
          "name": "id",
          "type": "uint256"
        },
        {
          "internalType": "string",
          "name": "name",
          "type": "string"
        },
        {
          "components": [
            {
              "internalType": "string",
              "name": "state",
              "type": "string"
            },
            {
              "internalType": "string",
              "name": "district",
              "type": "string"
            },
            {
              "internalType": "string",
              "name": "blockName",
              "type": "string"
            },
            {
              "internalType": "string",
              "name": "panchyatName",
              "type": "string"
            },
            {
              "internalType": "string",
              "name": "villageName",
              "type": "string"
            }
          ],
          "internalType": "struct structs.Location",
          "name": "location",
          "type": "tuple"
        },
        {
          "internalType": "string",
          "name": "dateOfFormation",
          "type": "string"
        },
        {
          "internalType": "uint256",
          "name": "currentBalance",
          "type": "uint256"
        },
        {
          "internalType": "uint256",
          "name": "owedBalance",
          "type": "uint256"
        },
        {
          "internalType": "uint256",
          "name": "baseIntrest",
          "type": "uint256"
        }
      ],
      "stateMutability": "view",
      "type": "function"
    },
    {
      "inputs": [
        {
          "internalType": "uint256",
          "name": "",
          "type": "uint256"
        }
      ],
      "name": "userRequests",
      "outputs": [
        {
          "internalType": "uint256",
          "name": "requestId",
          "type": "uint256"
        },
        {
          "internalType": "uint256",
          "name": "userId",
          "type": "uint256"
        },
        {
          "internalType": "uint256",
          "name": "amount",
          "type": "uint256"
        },
        {
          "internalType": "string",
          "name": "description",
          "type": "string"
        },
        {
          "internalType": "uint256",
          "name": "SHGId",
          "type": "uint256"
        },
        {
          "internalType": "enum structs.RequestStatus",
          "name": "status",
          "type": "uint8"
        },
        {
          "internalType": "uint256",
          "name": "loanTime",
          "type": "uint256"
        }
      ],
      "stateMutability": "view",
      "type": "function"
    },
    {
      "inputs": [
        {
          "internalType": "uint256",
          "name": "",
          "type": "uint256"
        }
      ],
      "name": "users",
      "outputs": [
        {
          "internalType": "uint256",
          "name": "id",
          "type": "uint256"
        },
        {
          "internalType": "string",
          "name": "name",
          "type": "string"
        },
        {
          "internalType": "string",
          "name": "aadhar",
          "type": "string"
        },
        {
          "internalType": "uint256",
          "name": "mobno",
          "type": "uint256"
        },
        {
          "internalType": "string",
          "name": "fatherName",
          "type": "string"
        },
        {
          "internalType": "address",
          "name": "walletAddress",
          "type": "address"
        },
        {
          "internalType": "uint256",
          "name": "shgid",
          "type": "uint256"
        },
        {
          "internalType": "enum structs.UserType",
          "name": "userType",
          "type": "uint8"
        },
        {
          "internalType": "enum structs.Gender",
          "name": "gender",
          "type": "uint8"
        },
        {
          "components": [
            {
              "internalType": "string",
              "name": "state",
              "type": "string"
            },
            {
              "internalType": "string",
              "name": "district",
              "type": "string"
            },
            {
              "internalType": "string",
              "name": "blockName",
              "type": "string"
            },
            {
              "internalType": "string",
              "name": "panchyatName",
              "type": "string"
            },
            {
              "internalType": "string",
              "name": "villageName",
              "type": "string"
            }
          ],
          "internalType": "struct structs.Location",
          "name": "location",
          "type": "tuple"
        }
      ],
      "stateMutability": "view",
      "type": "function"
    },
    {
      "inputs": [
        {
          "internalType": "uint256[]",
          "name": "members",
          "type": "uint256[]"
        },
        {
          "internalType": "uint256",
          "name": "president",
          "type": "uint256"
        },
        {
          "internalType": "uint256",
          "name": "treasurer",
          "type": "uint256"
        },
        {
          "internalType": "string",
          "name": "name",
          "type": "string"
        },
        {
          "internalType": "string",
          "name": "_state",
          "type": "string"
        },
        {
          "internalType": "string",
          "name": "_district",
          "type": "string"
        },
        {
          "internalType": "string",
          "name": "_blockName",
          "type": "string"
        },
        {
          "internalType": "string",
          "name": "_panchyatName",
          "type": "string"
        },
        {
          "internalType": "string",
          "name": "_villageName",
          "type": "string"
        },
        {
          "internalType": "string",
          "name": "dateOfFormation",
          "type": "string"
        },
        {
          "internalType": "uint256",
          "name": "_baseIntrest",
          "type": "uint256"
        }
      ],
      "name": "addSHG",
      "outputs": [],
      "stateMutability": "nonpayable",
      "type": "function"
    },
    {
      "inputs": [
        {
          "internalType": "uint256",
          "name": "userid",
          "type": "uint256"
        },
        {
          "internalType": "uint256",
          "name": "shg",
          "type": "uint256"
        }
      ],
      "name": "addSHGMember",
      "outputs": [],
      "stateMutability": "nonpayable",
      "type": "function"
    },
    {
      "inputs": [
        {
          "internalType": "uint256",
          "name": "userid",
          "type": "uint256"
        },
        {
          "internalType": "uint256",
          "name": "shgid",
          "type": "uint256"
        }
      ],
      "name": "removeSHGMember",
      "outputs": [],
      "stateMutability": "nonpayable",
      "type": "function"
    },
    {
      "inputs": [
        {
          "internalType": "uint256",
          "name": "id",
          "type": "uint256"
        },
        {
          "internalType": "enum structs.UserType",
          "name": "updatedType",
          "type": "uint8"
        }
      ],
      "name": "updateMemberRole",
      "outputs": [],
      "stateMutability": "nonpayable",
      "type": "function"
    },
    {
      "inputs": [
        {
          "internalType": "uint256",
          "name": "_requestid",
          "type": "uint256"
        }
      ],
      "name": "sendGrant",
      "outputs": [],
      "stateMutability": "nonpayable",
      "type": "function"
    },
    {
      "inputs": [
        {
          "internalType": "uint256",
          "name": "_requestid",
          "type": "uint256"
        },
        {
          "internalType": "uint256",
          "name": "_shgid",
          "type": "uint256"
        }
      ],
      "name": "approveRequest",
      "outputs": [],
      "stateMutability": "nonpayable",
      "type": "function"
    },
    {
      "inputs": [
        {
          "internalType": "uint256",
          "name": "_shgid",
          "type": "uint256"
        },
        {
          "internalType": "uint256",
          "name": "_amount",
          "type": "uint256"
        },
        {
          "internalType": "uint256",
          "name": "_loanTime",
          "type": "uint256"
        }
      ],
      "name": "sendRequestToBank",
      "outputs": [],
      "stateMutability": "nonpayable",
      "type": "function"
    },
    {
      "inputs": [
        {
          "internalType": "uint256",
          "name": "_shgid",
          "type": "uint256"
        },
        {
          "internalType": "uint256",
          "name": "_loanid",
          "type": "uint256"
        },
        {
          "internalType": "uint256",
          "name": "_amount",
          "type": "uint256"
        }
      ],
      "name": "shgPayEMI",
      "outputs": [],
      "stateMutability": "nonpayable",
      "type": "function"
    },
    {
      "inputs": [
        {
          "internalType": "uint256",
          "name": "_shgid",
          "type": "uint256"
        },
        {
          "internalType": "uint256",
          "name": "_loanid",
          "type": "uint256"
        }
      ],
      "name": "getSHGEMI",
      "outputs": [
        {
          "internalType": "uint256",
          "name": "",
          "type": "uint256"
        }
      ],
      "stateMutability": "nonpayable",
      "type": "function"
    },
    {
      "inputs": [
        {
          "internalType": "uint256",
          "name": "shgid",
          "type": "uint256"
        }
      ],
      "name": "getSHGMembers",
      "outputs": [
        {
          "internalType": "uint256[]",
          "name": "",
          "type": "uint256[]"
        }
      ],
      "stateMutability": "view",
      "type": "function"
    }
  ],
  "bytecode": "0x608060405234801561001057600080fd5b506137a9806100206000396000f3fe608060405234801561001057600080fd5b50600436106101205760003560e01c806361c91b70116100ad578063a6e90a5811610071578063a6e90a581461036a578063af08a94f14610386578063bc1e72ad146103b6578063e1ec3c68146103d2578063edf538861461040957610120565b806361c91b701461029c578063769d0e16146102cc5780637d550bb3146102fc57806394169656146103185780639bbc9ab11461034e57610120565b80632c0a90a9116100f45780632c0a90a9146101df578063365b98b2146101fb57806339d8bed1146102345780633ae0058f146102505780634f269c921461028057610120565b806285ae2b14610125578063021af39714610159578063257a170b1461017557806326271cf2146101a9575b600080fd5b61013f600480360381019061013a9190612a40565b610439565b604051610150959493929190612e90565b60405180910390f35b610173600480360381019061016e9190612ae1565b61059f565b005b61018f600480360381019061018a9190612a40565b610776565b6040516101a09594939291906130a3565b60405180910390f35b6101c360048036038101906101be9190612a40565b6107b9565b6040516101d69796959493929190612fa9565b60405180910390f35b6101f960048036038101906101f49190612aa5565b610bef565b005b61021560048036038101906102109190612a40565b610d45565b60405161022b9a99989796959493929190612ef1565b60405180910390f35b61024e60048036038101906102499190612aa5565b61124f565b005b61026a60048036038101906102659190612867565b611365565b6040516102779190612e75565b60405180910390f35b61029a60048036038101906102959190612a69565b61137d565b005b6102b660048036038101906102b19190612867565b6113e4565b6040516102c39190612e75565b60405180910390f35b6102e660048036038101906102e19190612aa5565b6113fc565b6040516102f39190612e75565b60405180910390f35b61031660048036038101906103119190612ae1565b61151a565b005b610332600480360381019061032d9190612a40565b6115f9565b604051610345979695949392919061302d565b60405180910390f35b61036860048036038101906103639190612a40565b6116d0565b005b610384600480360381019061037f9190612aa5565b611b78565b005b6103a0600480360381019061039b9190612a40565b611d0a565b6040516103ad9190612db3565b60405180910390f35b6103d060048036038101906103cb9190612890565b611d78565b005b6103ec60048036038101906103e79190612a40565b6122c2565b6040516104009897969594939291906130f6565b60405180910390f35b610423600480360381019061041e9190612867565b61230a565b6040516104309190612e75565b60405180910390f35b60026020528060005260406000206000915090508060000154908060010180546104629061345e565b80601f016020809104026020016040519081016040528092919081815260200182805461048e9061345e565b80156104db5780601f106104b0576101008083540402835291602001916104db565b820191906000526020600020905b8154815290600101906020018083116104be57829003601f168201915b5050505050908060020160009054906101000a900473ffffffffffffffffffffffffffffffffffffffff16908060030180546105169061345e565b80601f01602080910402602001604051908101604052809291908181526020018280546105429061345e565b801561058f5780601f106105645761010080835404028352916020019161058f565b820191906000526020600020905b81548152906001019060200180831161057257829003601f168201915b5050505050908060040154905085565b826000600160008381526020019081526020016000206000015414156105c457600080fd5b83600080600360003373ffffffffffffffffffffffffffffffffffffffff1673ffffffffffffffffffffffffffffffffffffffff168152602001908152602001600020548152602001908152602001600020600801541461062457600080fd5b6000600c6000815480929190610639906134c1565b9190505590506040518060a0016040528082815260200186815260200185815260200184815260200160038081111561069b577f4e487b7100000000000000000000000000000000000000000000000000000000600052602160045260246000fd5b815250600660008381526020019081526020016000206000820151816000015560208201518160010155604082015181600201556060820151816003015560808201518160040160006101000a81548160ff0219169083600381111561072a577f4e487b7100000000000000000000000000000000000000000000000000000000600052602160045260246000fd5b021790555090505060016000868152602001908152602001600020600c018190806001815401808255809150506001900390600052602060002001600090919091909150555050505050565b60066020528060005260406000206000915090508060000154908060010154908060020154908060030154908060040160009054906101000a900460ff16905085565b60016020528060005260406000206000915090508060000154908060020180546107e29061345e565b80601f016020809104026020016040519081016040528092919081815260200182805461080e9061345e565b801561085b5780601f106108305761010080835404028352916020019161085b565b820191906000526020600020905b81548152906001019060200180831161083e57829003601f168201915b505050505090806003016040518060a00160405290816000820180546108809061345e565b80601f01602080910402602001604051908101604052809291908181526020018280546108ac9061345e565b80156108f95780601f106108ce576101008083540402835291602001916108f9565b820191906000526020600020905b8154815290600101906020018083116108dc57829003601f168201915b505050505081526020016001820180546109129061345e565b80601f016020809104026020016040519081016040528092919081815260200182805461093e9061345e565b801561098b5780601f106109605761010080835404028352916020019161098b565b820191906000526020600020905b81548152906001019060200180831161096e57829003601f168201915b505050505081526020016002820180546109a49061345e565b80601f01602080910402602001604051908101604052809291908181526020018280546109d09061345e565b8015610a1d5780601f106109f257610100808354040283529160200191610a1d565b820191906000526020600020905b815481529060010190602001808311610a0057829003601f168201915b50505050508152602001600382018054610a369061345e565b80601f0160208091040260200160405190810160405280929190818152602001828054610a629061345e565b8015610aaf5780601f10610a8457610100808354040283529160200191610aaf565b820191906000526020600020905b815481529060010190602001808311610a9257829003601f168201915b50505050508152602001600482018054610ac89061345e565b80601f0160208091040260200160405190810160405280929190818152602001828054610af49061345e565b8015610b415780601f10610b1657610100808354040283529160200191610b41565b820191906000526020600020905b815481529060010190602001808311610b2457829003601f168201915b50505050508152505090806008018054610b5a9061345e565b80601f0160208091040260200160405190810160405280929190818152602001828054610b869061345e565b8015610bd35780601f10610ba857610100808354040283529160200191610bd3565b820191906000526020600020905b815481529060010190602001808311610bb657829003601f168201915b50505050509080600901549080600a01549080600d0154905087565b80600060016000838152602001908152602001600020600001541415610c1457600080fd5b600060056000858152602001908152602001600020905082816004015414610c3b57600080fd5b610c4484612322565b610c4d57600080fd5b80600701600360003373ffffffffffffffffffffffffffffffffffffffff1673ffffffffffffffffffffffffffffffffffffffff16815260200190815260200160002054908060018154018082558091505060019003906000526020600020016000909190919091505560026001600085815260200190815260200160002060010180549050610cdd91906132b2565b81600701805490501115610d3f5760008160050160006101000a81548160ff02191690836003811115610d39577f4e487b7100000000000000000000000000000000000000000000000000000000600052602160045260246000fd5b02179055505b50505050565b6000602052806000526040600020600091509050806000015490806001018054610d6e9061345e565b80601f0160208091040260200160405190810160405280929190818152602001828054610d9a9061345e565b8015610de75780601f10610dbc57610100808354040283529160200191610de7565b820191906000526020600020905b815481529060010190602001808311610dca57829003601f168201915b505050505090806002018054610dfc9061345e565b80601f0160208091040260200160405190810160405280929190818152602001828054610e289061345e565b8015610e755780601f10610e4a57610100808354040283529160200191610e75565b820191906000526020600020905b815481529060010190602001808311610e5857829003601f168201915b505050505090806003015490806004018054610e909061345e565b80601f0160208091040260200160405190810160405280929190818152602001828054610ebc9061345e565b8015610f095780601f10610ede57610100808354040283529160200191610f09565b820191906000526020600020905b815481529060010190602001808311610eec57829003601f168201915b5050505050908060050160009054906101000a900473ffffffffffffffffffffffffffffffffffffffff16908060080154908060090160009054906101000a900460ff16908060090160019054906101000a900460ff169080600a016040518060a0016040529081600082018054610f809061345e565b80601f0160208091040260200160405190810160405280929190818152602001828054610fac9061345e565b8015610ff95780601f10610fce57610100808354040283529160200191610ff9565b820191906000526020600020905b815481529060010190602001808311610fdc57829003601f168201915b505050505081526020016001820180546110129061345e565b80601f016020809104026020016040519081016040528092919081815260200182805461103e9061345e565b801561108b5780601f106110605761010080835404028352916020019161108b565b820191906000526020600020905b81548152906001019060200180831161106e57829003601f168201915b505050505081526020016002820180546110a49061345e565b80601f01602080910402602001604051908101604052809291908181526020018280546110d09061345e565b801561111d5780601f106110f25761010080835404028352916020019161111d565b820191906000526020600020905b81548152906001019060200180831161110057829003601f168201915b505050505081526020016003820180546111369061345e565b80601f01602080910402602001604051908101604052809291908181526020018280546111629061345e565b80156111af5780601f10611184576101008083540402835291602001916111af565b820191906000526020600020905b81548152906001019060200180831161119257829003601f168201915b505050505081526020016004820180546111c89061345e565b80601f01602080910402602001604051908101604052809291908181526020018280546111f49061345e565b80156112415780601f1061121657610100808354040283529160200191611241565b820191906000526020600020905b81548152906001019060200180831161122457829003601f168201915b50505050508152505090508a565b8060008084815260200190815260200160002060080154146112a6576040517f08c379a000000000000000000000000000000000000000000000000000000000815260040161129d90612e15565b60405180910390fd5b8060008084815260200190815260200160002060080181905550600360008084815260200190815260200160002060090160006101000a81548160ff0219169083600581111561131f577f4e487b7100000000000000000000000000000000000000000000000000000000600052602160045260246000fd5b0217905550600160008281526020019081526020016000206001018290806001815401808255809150506001900390600052602060002001600090919091909150555050565b60076020528060005260406000206000915090505481565b8060008084815260200190815260200160002060090160006101000a81548160ff021916908360058111156113db577f4e487b7100000000000000000000000000000000000000000000000000000000600052602160045260246000fd5b02179055505050565b60086020528060005260406000206000915090505481565b60008260006001600083815260200190815260200160002060000154141561142357600080fd5b60006004600085815260200190815260200160002090506000601e603c806018856007015442611453919061333d565b61145d91906132b2565b61146791906132e3565b61147191906132e3565b61147b91906132e3565b90506000811161148a57600080fd5b60008260020154905060008360040154905060008460050154905060008382600c6114b591906132e3565b6114bf919061333d565b600c6064856114ce91906132b2565b6114d891906132e3565b60016114e4919061325c565b856114ef91906132e3565b189050808660020154611502919061333d565b86600201819055508097505050505050505092915050565b8260006001600083815260200190815260200160002060000154141561153f57600080fd5b600061154b85856113fc565b905082811461155957600080fd5b60006004600086815260200190815260200160002090503073ffffffffffffffffffffffffffffffffffffffff166108fc859081150290604051600060405180830381858888f193505050501580156115b6573d6000803e3d6000fd5b5083600160008360030154815260200190815260200160002060090160008282546115e1919061325c565b92505081905550428160070181905550505050505050565b600560205280600052604060002060009150905080600001549080600101549080600201549080600301805461162e9061345e565b80601f016020809104026020016040519081016040528092919081815260200182805461165a9061345e565b80156116a75780601f1061167c576101008083540402835291602001916116a7565b820191906000526020600020905b81548152906001019060200180831161168a57829003601f168201915b5050505050908060040154908060050160009054906101000a900460ff16908060060154905087565b6002600581111561170a577f4e487b7100000000000000000000000000000000000000000000000000000000600052602160045260246000fd5b600080600360003373ffffffffffffffffffffffffffffffffffffffff1673ffffffffffffffffffffffffffffffffffffffff16815260200190815260200160002054815260200190815260200160002060090160009054906101000a900460ff1660058111156117a4577f4e487b7100000000000000000000000000000000000000000000000000000000600052602160045260246000fd5b146117e4576040517f08c379a00000000000000000000000000000000000000000000000000000000081526004016117db90612e55565b60405180910390fd5b6000600381111561181e577f4e487b7100000000000000000000000000000000000000000000000000000000600052602160045260246000fd5b6005600083815260200190815260200160002060050160009054906101000a900460ff16600381111561187a577f4e487b7100000000000000000000000000000000000000000000000000000000600052602160045260246000fd5b146118ba576040517f08c379a00000000000000000000000000000000000000000000000000000000081526004016118b190612e35565b60405180910390fd5b600060056000838152602001908152602001600020905060018160050160006101000a81548160ff0219169083600381111561191f577f4e487b7100000000000000000000000000000000000000000000000000000000600052602160045260246000fd5b02179055506000604051806101000160405280600e60008154611941906134c1565b91905081905581526020018360040154815260200183600201548152602001836001015481526020016001600085600401548152602001908152602001600020600d0154815260200183600601548152602001428152602001600081525090508060046000600e548152602001908152602001600020600082015181600001556020820151816001015560408201518160020155606082015181600301556080820151816004015560a0820151816005015560c0820151816006015560e082015181600701559050506001600083600401548152602001908152602001600020600b01600e54908060018154018082558091505060019003906000526020600020016000909190919091505560008083600101548152602001908152602001600020600601600e54908060018154018082558091505060019003906000526020600020016000909190919091505581600201546001600084600401548152602001908152602001600020600901541015611aba57600080fd5b6000808360010154815260200190815260200160002060050160009054906101000a900473ffffffffffffffffffffffffffffffffffffffff1673ffffffffffffffffffffffffffffffffffffffff166108fc83600201549081150290604051600060405180830381858888f19350505050158015611b3d573d6000803e3d6000fd5b50816002015460016000846004015481526020019081526020016000206009016000828254611b6c919061333d565b92505081905550505050565b6000600160008381526020019081526020016000209050611beb81600101805480602002602001604051908101604052809291908181526020018280548015611be057602002820191906000526020600020905b815481526020019060010190808311611bcc575b505050505083612400565b611c2a576040517f08c379a0000000000000000000000000000000000000000000000000000000008152600401611c2190612df5565b60405180910390fd5b6000611c8882600101805480602002602001604051908101604052809291908181526020018280548015611c7d57602002820191906000526020600020905b815481526020019060010190808311611c69575b50505050508561248e565b90506000611ce883600101805480602002602001604051908101604052809291908181526020018280548015611cdd57602002820191906000526020600020905b815481526020019060010190808311611cc9575b50505050508361250f565b905080836001019080519060200190611d0292919061263a565b505050505050565b606060016000838152602001908152602001600020600101805480602002602001604051908101604052809291908181526020018280548015611d6c57602002820191906000526020600020905b815481526020019060010190808311611d58575b50505050509050919050565b60078b511015611dbd576040517f08c379a0000000000000000000000000000000000000000000000000000000008152600401611db490612dd5565b60405180910390fd5b6000600a60008154611dce906134c1565b919050819055905060006040518060a001604052808a81526020018981526020018881526020018781526020018681525090506040518061014001604052808381526020018e81526020018b81526020018281526020018581526020016000815260200160008152602001600067ffffffffffffffff811115611e7a577f4e487b7100000000000000000000000000000000000000000000000000000000600052604160045260246000fd5b604051908082528060200260200182016040528015611ea85781602001602082028036833780820191505090505b508152602001600067ffffffffffffffff811115611eef577f4e487b7100000000000000000000000000000000000000000000000000000000600052604160045260246000fd5b604051908082528060200260200182016040528015611f1d5781602001602082028036833780820191505090505b5081526020018481525060016000848152602001908152602001600020600082015181600001556020820151816001019080519060200190611f6092919061263a565b506040820151816002019080519060200190611f7d929190612687565b506060820151816003016000820151816000019080519060200190611fa3929190612687565b506020820151816001019080519060200190611fc0929190612687565b506040820151816002019080519060200190611fdd929190612687565b506060820151816003019080519060200190611ffa929190612687565b506080820151816004019080519060200190612017929190612687565b5050506080820151816008019080519060200190612036929190612687565b5060a0820151816009015560c082015181600a015560e082015181600b01908051906020019061206792919061263a565b5061010082015181600c01908051906020019061208592919061263a565b5061012082015181600d015590505060005b8d518110156122b25760008e82815181106120db577f4e487b7100000000000000000000000000000000000000000000000000000000600052603260045260246000fd5b60200260200101519050600360008083815260200190815260200160002060090160006101000a81548160ff02191690836005811115612144577f4e487b7100000000000000000000000000000000000000000000000000000000600052602160045260246000fd5b02179055508d8114156121b657600080600083815260200190815260200160002060090160006101000a81548160ff021916908360058111156121b0577f4e487b7100000000000000000000000000000000000000000000000000000000600052602160045260246000fd5b02179055505b8c81141561222357600260008083815260200190815260200160002060090160006101000a81548160ff0219169083600581111561221d577f4e487b7100000000000000000000000000000000000000000000000000000000600052602160045260246000fd5b02179055505b600a546007600080600085815260200190815260200160002060050160009054906101000a900473ffffffffffffffffffffffffffffffffffffffff1673ffffffffffffffffffffffffffffffffffffffff1673ffffffffffffffffffffffffffffffffffffffff168152602001908152602001600020819055505080806122aa906134c1565b915050612097565b5050505050505050505050505050565b60046020528060005260406000206000915090508060000154908060010154908060020154908060030154908060040154908060050154908060060154908060070154905088565b60036020528060005260406000206000915090505481565b60008060056000848152602001908152602001600020600701905060005b81805490508110156123f457600360003373ffffffffffffffffffffffffffffffffffffffff1673ffffffffffffffffffffffffffffffffffffffff168152602001908152602001600020548282815481106123c5577f4e487b7100000000000000000000000000000000000000000000000000000000600052603260045260246000fd5b906000526020600020015414156123e1576000925050506123fb565b80806123ec906134c1565b915050612340565b5060019150505b919050565b600080600090505b60018451612416919061333d565b8110156124825782848281518110612457577f4e487b7100000000000000000000000000000000000000000000000000000000600052603260045260246000fd5b6020026020010151141561246f576001915050612488565b808061247a906134c1565b915050612408565b50600090505b92915050565b600080600090505b835181101561250357828482815181106124d9577f4e487b7100000000000000000000000000000000000000000000000000000000600052603260045260246000fd5b602002602001015114156124f05780915050612509565b80806124fb906134c1565b915050612496565b50600090505b92915050565b60608251821061251e57600080fd5b60008290505b60018451612532919061333d565b8110156125de5783600182612547919061325c565b8151811061257e577f4e487b7100000000000000000000000000000000000000000000000000000000600052603260045260246000fd5b60200260200101518482815181106125bf577f4e487b7100000000000000000000000000000000000000000000000000000000600052603260045260246000fd5b60200260200101818152505080806125d6906134c1565b915050612524565b5082600184516125ee919061333d565b81518110612625577f4e487b7100000000000000000000000000000000000000000000000000000000600052603260045260246000fd5b60200260200101600081525082905092915050565b828054828255906000526020600020908101928215612676579160200282015b8281111561267557825182559160200191906001019061265a565b5b509050612683919061270d565b5090565b8280546126939061345e565b90600052602060002090601f0160209004810192826126b557600085556126fc565b82601f106126ce57805160ff19168380011785556126fc565b828001600101855582156126fc579182015b828111156126fb5782518255916020019190600101906126e0565b5b509050612709919061270d565b5090565b5b8082111561272657600081600090555060010161270e565b5090565b600061273d61273884613199565b613174565b9050808382526020820190508285602086028201111561275c57600080fd5b60005b8581101561278c57816127728882612852565b84526020840193506020830192505060018101905061275f565b5050509392505050565b60006127a96127a4846131c5565b613174565b9050828152602081018484840111156127c157600080fd5b6127cc84828561341c565b509392505050565b6000813590506127e381613735565b92915050565b600082601f8301126127fa57600080fd5b813561280a84826020860161272a565b91505092915050565b6000813590506128228161374c565b92915050565b600082601f83011261283957600080fd5b8135612849848260208601612796565b91505092915050565b6000813590506128618161375c565b92915050565b60006020828403121561287957600080fd5b6000612887848285016127d4565b91505092915050565b60008060008060008060008060008060006101608c8e0312156128b257600080fd5b60008c013567ffffffffffffffff8111156128cc57600080fd5b6128d88e828f016127e9565b9b505060206128e98e828f01612852565b9a505060406128fa8e828f01612852565b99505060608c013567ffffffffffffffff81111561291757600080fd5b6129238e828f01612828565b98505060808c013567ffffffffffffffff81111561294057600080fd5b61294c8e828f01612828565b97505060a08c013567ffffffffffffffff81111561296957600080fd5b6129758e828f01612828565b96505060c08c013567ffffffffffffffff81111561299257600080fd5b61299e8e828f01612828565b95505060e08c013567ffffffffffffffff8111156129bb57600080fd5b6129c78e828f01612828565b9450506101008c013567ffffffffffffffff8111156129e557600080fd5b6129f18e828f01612828565b9350506101208c013567ffffffffffffffff811115612a0f57600080fd5b612a1b8e828f01612828565b925050610140612a2d8e828f01612852565b9150509295989b509295989b9093969950565b600060208284031215612a5257600080fd5b6000612a6084828501612852565b91505092915050565b60008060408385031215612a7c57600080fd5b6000612a8a85828601612852565b9250506020612a9b85828601612813565b9150509250929050565b60008060408385031215612ab857600080fd5b6000612ac685828601612852565b9250506020612ad785828601612852565b9150509250929050565b600080600060608486031215612af657600080fd5b6000612b0486828701612852565b9350506020612b1586828701612852565b9250506040612b2686828701612852565b9150509250925092565b6000612b3c8383612d95565b60208301905092915050565b612b5181613371565b82525050565b6000612b6282613206565b612b6c8185613229565b9350612b77836131f6565b8060005b83811015612ba8578151612b8f8882612b30565b9750612b9a8361321c565b925050600181019050612b7b565b5085935050505092915050565b612bbe816133e6565b82525050565b612bcd816133f8565b82525050565b612bdc8161340a565b82525050565b6000612bed82613211565b612bf7818561323a565b9350612c0781856020860161342b565b612c10816135f5565b840191505092915050565b6000612c2682613211565b612c30818561324b565b9350612c4081856020860161342b565b612c49816135f5565b840191505092915050565b6000612c61601a8361324b565b9150612c6c82613606565b602082019050919050565b6000612c8460258361324b565b9150612c8f8261362f565b604082019050919050565b6000612ca760128361324b565b9150612cb28261367e565b602082019050919050565b6000612cca60128361324b565b9150612cd5826136a7565b602082019050919050565b6000612ced60138361324b565b9150612cf8826136d0565b602082019050919050565b600060a0830160008301518482036000860152612d208282612be2565b91505060208301518482036020860152612d3a8282612be2565b91505060408301518482036040860152612d548282612be2565b91505060608301518482036060860152612d6e8282612be2565b91505060808301518482036080860152612d888282612be2565b9150508091505092915050565b612d9e816133dc565b82525050565b612dad816133dc565b82525050565b60006020820190508181036000830152612dcd8184612b57565b905092915050565b60006020820190508181036000830152612dee81612c54565b9050919050565b60006020820190508181036000830152612e0e81612c77565b9050919050565b60006020820190508181036000830152612e2e81612c9a565b9050919050565b60006020820190508181036000830152612e4e81612cbd565b9050919050565b60006020820190508181036000830152612e6e81612ce0565b9050919050565b6000602082019050612e8a6000830184612da4565b92915050565b600060a082019050612ea56000830188612da4565b8181036020830152612eb78187612c1b565b9050612ec66040830186612b48565b8181036060830152612ed88185612c1b565b9050612ee76080830184612da4565b9695505050505050565b600061014082019050612f07600083018d612da4565b8181036020830152612f19818c612c1b565b90508181036040830152612f2d818b612c1b565b9050612f3c606083018a612da4565b8181036080830152612f4e8189612c1b565b9050612f5d60a0830188612b48565b612f6a60c0830187612da4565b612f7760e0830186612bd3565b612f85610100830185612bb5565b818103610120830152612f988184612d03565b90509b9a5050505050505050505050565b600060e082019050612fbe600083018a612da4565b8181036020830152612fd08189612c1b565b90508181036040830152612fe48188612d03565b90508181036060830152612ff88187612c1b565b90506130076080830186612da4565b61301460a0830185612da4565b61302160c0830184612da4565b98975050505050505050565b600060e082019050613042600083018a612da4565b61304f6020830189612da4565b61305c6040830188612da4565b818103606083015261306e8187612c1b565b905061307d6080830186612da4565b61308a60a0830185612bc4565b61309760c0830184612da4565b98975050505050505050565b600060a0820190506130b86000830188612da4565b6130c56020830187612da4565b6130d26040830186612da4565b6130df6060830185612da4565b6130ec6080830184612bc4565b9695505050505050565b60006101008201905061310c600083018b612da4565b613119602083018a612da4565b6131266040830189612da4565b6131336060830188612da4565b6131406080830187612da4565b61314d60a0830186612da4565b61315a60c0830185612da4565b61316760e0830184612da4565b9998505050505050505050565b600061317e61318f565b905061318a8282613490565b919050565b6000604051905090565b600067ffffffffffffffff8211156131b4576131b36135c6565b5b602082029050602081019050919050565b600067ffffffffffffffff8211156131e0576131df6135c6565b5b6131e9826135f5565b9050602081019050919050565b6000819050602082019050919050565b600081519050919050565b600081519050919050565b6000602082019050919050565b600082825260208201905092915050565b600082825260208201905092915050565b600082825260208201905092915050565b6000613267826133dc565b9150613272836133dc565b9250827fffffffffffffffffffffffffffffffffffffffffffffffffffffffffffffffff038211156132a7576132a661350a565b5b828201905092915050565b60006132bd826133dc565b91506132c8836133dc565b9250826132d8576132d7613539565b5b828204905092915050565b60006132ee826133dc565b91506132f9836133dc565b9250817fffffffffffffffffffffffffffffffffffffffffffffffffffffffffffffffff04831182151516156133325761333161350a565b5b828202905092915050565b6000613348826133dc565b9150613353836133dc565b9250828210156133665761336561350a565b5b828203905092915050565b600061337c826133bc565b9050919050565b6000819050613391826136f9565b919050565b60008190506133a48261370d565b919050565b60008190506133b782613721565b919050565b600073ffffffffffffffffffffffffffffffffffffffff82169050919050565b6000819050919050565b60006133f182613383565b9050919050565b600061340382613396565b9050919050565b6000613415826133a9565b9050919050565b82818337600083830152505050565b60005b8381101561344957808201518184015260208101905061342e565b83811115613458576000848401525b50505050565b6000600282049050600182168061347657607f821691505b6020821081141561348a57613489613597565b5b50919050565b613499826135f5565b810181811067ffffffffffffffff821117156134b8576134b76135c6565b5b80604052505050565b60006134cc826133dc565b91507fffffffffffffffffffffffffffffffffffffffffffffffffffffffffffffffff8214156134ff576134fe61350a565b5b600182019050919050565b7f4e487b7100000000000000000000000000000000000000000000000000000000600052601160045260246000fd5b7f4e487b7100000000000000000000000000000000000000000000000000000000600052601260045260246000fd5b7f4e487b7100000000000000000000000000000000000000000000000000000000600052602160045260246000fd5b7f4e487b7100000000000000000000000000000000000000000000000000000000600052602260045260246000fd5b7f4e487b7100000000000000000000000000000000000000000000000000000000600052604160045260246000fd5b6000601f19601f8301169050919050565b7f41746c656173742037206d656d62657273207265717569726564000000000000600082015250565b7f5573657220697320616c7265616479206e6f7420612070617274206f6620746860008201527f6520534847000000000000000000000000000000000000000000000000000000602082015250565b7f5573657220616c72656164792061646465640000000000000000000000000000600082015250565b7f556e617070726f76656420726571756573740000000000000000000000000000600082015250565b7f556e617574686f72697a65642072657165737400000000000000000000000000600082015250565b6003811061370a57613709613568565b5b50565b6004811061371e5761371d613568565b5b50565b6006811061373257613731613568565b5b50565b61373e81613371565b811461374957600080fd5b50565b6006811061375957600080fd5b50565b613765816133dc565b811461377057600080fd5b5056fea26469706673582212205cbc20d1606254e349c181fa99fddcc8bd870eac74b719e176aff626fbf05a9e64736f6c63430008040033",
  "immutableReferences": {},
  "source": "// SPDX-License-Identifier: MIT\npragma solidity ^0.8.1;\n\nimport \"./structs.sol\";\nimport \"./helpers.sol\";\nimport \"./modifiers.sol\";\n\ncontract SHG is structs, helpers, modifiers {\n    function addSHG(\n        uint256[] memory members,\n        uint256 president,\n        uint256 treasurer,\n        string memory name,\n        string memory _state,\n        string memory _district,\n        string memory _blockName,\n        string memory _panchyatName,\n        string memory _villageName,\n        string memory dateOfFormation,\n        uint256 _baseIntrest\n    ) public {\n        require(members.length >= 7, \"Atleast 7 members required\");\n        uint256 id = ++numSHGs;\n\n        Location memory newlocation = Location({\n            state: _state,\n            district: _district,\n            blockName: _blockName,\n            panchyatName: _panchyatName,\n            villageName: _villageName\n        });\n\n        shgs[id] = SHG(\n            id,\n            members,\n            name,\n            newlocation,\n            dateOfFormation,\n            0,\n            0,\n            new uint256[](0),\n            new uint256[](0),\n            _baseIntrest\n        );\n        for (uint256 i = 0; i < members.length; i++) {\n            uint256 userid = members[i];\n            users[userid].userType = UserType.MEMBER;\n            if (userid == president)\n                users[userid].userType = UserType.PRESIDENT;\n            if (userid == treasurer)\n                users[userid].userType = UserType.TREASURER;\n            addressToSHGid[users[userid].walletAddress] = numSHGs;\n        }\n    }\n\n    function addSHGMember(uint256 userid, uint256 shg) public {\n        require(users[userid].shgid == shg, \"User already added\");\n        users[userid].shgid = shg;\n        users[userid].userType = UserType.MEMBER;\n        shgs[shg].users.push(userid);\n    }\n\n    function removeSHGMember(uint256 userid, uint256 shgid) public {\n        SHG storage shg = shgs[shgid];\n        require(\n            check(shg.users, shgid),\n            \"User is already not a part of the SHG\"\n        );\n\n        uint256 index = getIndex(shg.users, userid);\n        uint256[] memory newusers = deleteIndex(shg.users, index);\n        shg.users = newusers;\n    }\n\n    function updateMemberRole(uint256 id, UserType updatedType) public {\n        // TODO: add requires\n        users[id].userType = updatedType;\n    }\n\n    function sendGrant(uint256 _requestid) public {\n        require(\n            users[addressToUser[msg.sender]].userType == UserType.TREASURER,\n            \"Unauthorized reqest\"\n        );\n        require(\n            userRequests[_requestid].status == RequestStatus.APPROVED,\n            \"Unapproved request\"\n        );\n        UserRequest storage request = userRequests[_requestid];\n\n        request.status = RequestStatus.COMPLETED;\n\n        Loan memory newLoan = Loan({\n            loanId: ++numLoans,\n            lenderId: request.SHGId,\n            amount: request.amount,\n            lendeeId: request.userId,\n            intrest: shgs[request.SHGId].baseIntrest,\n            loanTime: request.loanTime,\n            date: block.timestamp,\n            lastEMI: 0\n        });\n\n        loans[numLoans] = newLoan;\n        shgs[request.SHGId].loansGiven.push(numLoans);\n        users[request.userId].loansTaken.push(numLoans);\n\n        require(shgs[request.SHGId].currentBalance >= request.amount);\n        payable(users[request.userId].walletAddress).transfer(request.amount);\n        shgs[request.SHGId].currentBalance -= request.amount;\n    }\n\n    function checkApproval(uint256 _requestid) internal view returns (bool) {\n        uint256[] storage approvals = userRequests[_requestid].approvals;\n\n        for (uint256 i = 0; i < approvals.length; i++) {\n            if (approvals[i] == addressToUser[msg.sender]) {\n                return false;\n            }\n        }\n\n        return true;\n    }\n\n    function approveRequest(uint256 _requestid, uint256 _shgid)\n        public\n        onlySHG(_shgid)\n    {\n        UserRequest storage request = userRequests[_requestid];\n        require(request.SHGId == _shgid);\n\n        require(checkApproval(_requestid));\n        request.approvals.push(addressToUser[msg.sender]);\n\n        if (request.approvals.length > shgs[_shgid].users.length / 2) {\n            request.status = RequestStatus.APPROVED;\n        }\n    }\n\n    function sendRequestToBank(\n        uint256 _shgid,\n        uint256 _amount,\n        uint256 _loanTime\n    ) public onlySHG(_shgid) {\n        require(users[addressToUser[msg.sender]].shgid == _shgid);\n        uint256 reqid = numSHGRequests++;\n        shgRequests[reqid] = SHGRequest(\n            reqid,\n            _shgid,\n            _amount,\n            _loanTime,\n            RequestStatus.IN_PROCESS\n        );\n        shgs[_shgid].loansTaken.push(reqid);\n    }\n\n    function shgPayEMI(\n        uint256 _shgid,\n        uint256 _loanid,\n        uint256 _amount\n    ) public onlySHG(_shgid) {\n        uint256 amount = getSHGEMI(_shgid, _loanid);\n        require(amount == _amount);\n        Loan storage loan = loans[_loanid];\n        payable(address(this)).transfer(_amount);\n        shgs[loan.lendeeId].currentBalance += _amount;\n        loan.lastEMI = block.timestamp;\n    }\n\n    // fetch functions\n    function getSHGEMI(uint256 _shgid, uint256 _loanid)\n        public\n        onlySHG(_shgid)\n        returns (uint256)\n    {\n        Loan storage loan = loans[_loanid];\n        uint256 months = ((block.timestamp - loan.lastEMI) / 24) * 60 * 60 * 30;\n\n        require(months > 0);\n        uint256 P = loan.amount;\n        uint256 r = loan.intrest;\n        uint256 t = loan.loanTime;\n        uint256 emi = (P * (1 + ((r / 100) * 12))) ^ ((12 * t) - P);\n\n        loan.amount = loan.amount - emi;\n        return emi;\n    }\n\n    function getSHGMembers(uint256 shgid)\n        public\n        view\n        returns (uint256[] memory)\n    {\n        return shgs[shgid].users;\n    }\n}\n",
  "sourcePath": "/home/sdas/code/yogdaan-contracts/contracts/lib/SHG.sol",
  "compiler": {
    "name": "solc",
    "version": "0.8.4+commit.c7e474f2.Emscripten.clang"
  },
  "schemaVersion": "3.4.9",
  "updatedAt": "2022-08-25T15:51:49.911Z",
  "devdoc": {
    "kind": "dev",
    "methods": {},
    "version": 1
  },
  "userdoc": {
    "kind": "user",
    "methods": {},
    "version": 1
  }
}