{
  "contractName": "structs",
  "abi": [
    {
      "inputs": [
        {
          "internalType": "uint256",
          "name": "",
          "type": "uint256"
        }
      ],
      "name": "shgs",
      "outputs": [
        {
          "internalType": "uint256",
          "name": "id",
          "type": "uint256"
        },
        {
          "internalType": "string",
          "name": "name",
          "type": "string"
        },
        {
          "components": [
            {
              "internalType": "string",
              "name": "state",
              "type": "string"
            },
            {
              "internalType": "string",
              "name": "district",
              "type": "string"
            },
            {
              "internalType": "string",
              "name": "blockName",
              "type": "string"
            },
            {
              "internalType": "string",
              "name": "panchyarName",
              "type": "string"
            },
            {
              "internalType": "string",
              "name": "villageName",
              "type": "string"
            }
          ],
          "internalType": "struct structs.Location",
          "name": "location",
          "type": "tuple"
        },
        {
          "internalType": "string",
          "name": "dateOfFormation",
          "type": "string"
        },
        {
          "internalType": "uint256",
          "name": "currentBalance",
          "type": "uint256"
        },
        {
          "internalType": "uint256",
          "name": "owedBalance",
          "type": "uint256"
        },
        {
          "internalType": "uint256",
          "name": "baseIntrest",
          "type": "uint256"
        }
      ],
      "stateMutability": "view",
      "type": "function"
    }
  ],
  "bytecode": "0x608060405234801561001057600080fd5b5061079a806100206000396000f3fe608060405234801561001057600080fd5b506004361061002b5760003560e01c806326271cf214610030575b600080fd5b61004a600480360381019061004591906104b1565b610066565b60405161005d97969594939291906105ed565b60405180910390f35b600160205280600052604060002060009150905080600001549080600201805461008f906106db565b80601f01602080910402602001604051908101604052809291908181526020018280546100bb906106db565b80156101085780601f106100dd57610100808354040283529160200191610108565b820191906000526020600020905b8154815290600101906020018083116100eb57829003601f168201915b505050505090806003016040518060a001604052908160008201805461012d906106db565b80601f0160208091040260200160405190810160405280929190818152602001828054610159906106db565b80156101a65780601f1061017b576101008083540402835291602001916101a6565b820191906000526020600020905b81548152906001019060200180831161018957829003601f168201915b505050505081526020016001820180546101bf906106db565b80601f01602080910402602001604051908101604052809291908181526020018280546101eb906106db565b80156102385780601f1061020d57610100808354040283529160200191610238565b820191906000526020600020905b81548152906001019060200180831161021b57829003601f168201915b50505050508152602001600282018054610251906106db565b80601f016020809104026020016040519081016040528092919081815260200182805461027d906106db565b80156102ca5780601f1061029f576101008083540402835291602001916102ca565b820191906000526020600020905b8154815290600101906020018083116102ad57829003601f168201915b505050505081526020016003820180546102e3906106db565b80601f016020809104026020016040519081016040528092919081815260200182805461030f906106db565b801561035c5780601f106103315761010080835404028352916020019161035c565b820191906000526020600020905b81548152906001019060200180831161033f57829003601f168201915b50505050508152602001600482018054610375906106db565b80601f01602080910402602001604051908101604052809291908181526020018280546103a1906106db565b80156103ee5780601f106103c3576101008083540402835291602001916103ee565b820191906000526020600020905b8154815290600101906020018083116103d157829003601f168201915b50505050508152505090806008018054610407906106db565b80601f0160208091040260200160405190810160405280929190818152602001828054610433906106db565b80156104805780601f1061045557610100808354040283529160200191610480565b820191906000526020600020905b81548152906001019060200180831161046357829003601f168201915b50505050509080600901549080600a01549080600d0154905087565b6000813590506104ab8161074d565b92915050565b6000602082840312156104c357600080fd5b60006104d18482850161049c565b91505092915050565b60006104e582610671565b6104ef818561067c565b93506104ff8185602086016106a8565b6105088161073c565b840191505092915050565b600061051e82610671565b610528818561068d565b93506105388185602086016106a8565b6105418161073c565b840191505092915050565b600060a083016000830151848203600086015261056982826104da565b9150506020830151848203602086015261058382826104da565b9150506040830151848203604086015261059d82826104da565b915050606083015184820360608601526105b782826104da565b915050608083015184820360808601526105d182826104da565b9150508091505092915050565b6105e78161069e565b82525050565b600060e082019050610602600083018a6105de565b81810360208301526106148189610513565b90508181036040830152610628818861054c565b9050818103606083015261063c8187610513565b905061064b60808301866105de565b61065860a08301856105de565b61066560c08301846105de565b98975050505050505050565b600081519050919050565b600082825260208201905092915050565b600082825260208201905092915050565b6000819050919050565b60005b838110156106c65780820151818401526020810190506106ab565b838111156106d5576000848401525b50505050565b600060028204905060018216806106f357607f821691505b602082108114156107075761070661070d565b5b50919050565b7f4e487b7100000000000000000000000000000000000000000000000000000000600052602260045260246000fd5b6000601f19601f8301169050919050565b6107568161069e565b811461076157600080fd5b5056fea26469706673582212204bd19a6172fa937bd865dc9e751215eb97fb91efe6ee049467069bf772a19b8964736f6c63430008040033",
  "immutableReferences": {},
  "source": "// SPDX-License-Identifier: MIT\r\npragma solidity ^0.8.1;\r\n\r\ncontract structs {\r\n    enum UserType {\r\n        PRESIDENT,\r\n        VICE_PRESIDENT,\r\n        TREASURER,\r\n        MEMBER,\r\n        NONE,\r\n        ADMIN\r\n    }\r\n\r\n    enum Gender {\r\n        MALE,\r\n        FEMALE,\r\n        OTHER\r\n    }\r\n\r\n    enum RequestStatus {\r\n        APPROVED,\r\n        COMPLETED,\r\n        REJECTED,\r\n        IN_PROCESS\r\n    }\r\n\r\n    struct User {\r\n        uint256 id;\r\n        string name;\r\n        string aadhar;\r\n        uint256 mobno;\r\n        string fatherName;\r\n        address walletAddress;\r\n        uint256[] loansTaken;\r\n        uint256 amountTaken;\r\n        uint256 shgid;\r\n        UserType userType;\r\n        Gender gender;\r\n    }\r\n\r\n    struct Location {\r\n        string state;\r\n        string district;\r\n        string blockName;\r\n        string panchyarName;\r\n        string villageName;\r\n    }\r\n\r\n    struct Bank {\r\n        uint256 id;\r\n        string name;\r\n        address walletAddress;\r\n        string code;\r\n        uint256 intrestRate;\r\n        uint256[] requests;\r\n    }\r\n\r\n    struct SHG {\r\n        uint256 id;\r\n        uint256[] users;\r\n        string name;\r\n        Location location;\r\n        string dateOfFormation;\r\n        uint256 currentBalance;\r\n        uint256 owedBalance;\r\n        uint256[] loansGiven;\r\n        uint256[] loansTaken;\r\n        uint256 baseIntrest;\r\n    }\r\n\r\n    struct Loan {\r\n        uint256 loanId;\r\n        uint256 lenderId;\r\n        uint256 amount;\r\n        uint256 lendeeId;\r\n        uint256 intrest;\r\n        uint256 loanTime;\r\n        uint256 date;\r\n        uint256 lastEMI;\r\n    }\r\n\r\n    struct Status {\r\n        RequestStatus requestStatus;\r\n        uint256 Id;\r\n    }\r\n\r\n    struct UserRequest {\r\n        uint256 requestId;\r\n        uint256 userId;\r\n        uint256 amount;\r\n        string description;\r\n        uint256 SHGId;\r\n        RequestStatus status;\r\n        uint256 loanTime;\r\n        uint256[] approvals;\r\n    }\r\n\r\n    struct SHGRequest {\r\n        uint256 requestid;\r\n        uint256 shgid;\r\n        uint256 amount;\r\n        uint256 loanTime;\r\n        RequestStatus status;\r\n    }\r\n\r\n    mapping(uint256 => User) users;\r\n    mapping(uint256 => SHG) public shgs;\r\n    mapping(uint256 => Bank) banks;\r\n\r\n    mapping(address => uint256) addressToUser;\r\n    mapping(uint256 => Loan) loans;\r\n    mapping(uint256 => UserRequest) userRequests;\r\n    mapping(uint256 => SHGRequest) shgRequests;\r\n\r\n    uint256 numUsers;\r\n    uint256 numSHGs;\r\n    uint256 numUserRequests;\r\n    uint256 numSHGRequests;\r\n    uint256 numBanks;\r\n    uint256 numLoans;\r\n}\r\n",
  "sourcePath": "C:/Users/hardi/Desktop/yogdaan/contracts/lib/structs.sol",
  "compiler": {
    "name": "solc",
    "version": "0.8.4+commit.c7e474f2.Emscripten.clang"
  },
  "schemaVersion": "3.4.0",
  "updatedAt": "2022-08-21T20:12:02.031Z",
  "devdoc": {
    "kind": "dev",
    "methods": {},
    "version": 1
  },
  "userdoc": {
    "kind": "user",
    "methods": {},
    "version": 1
  }
}