{
  "contractName": "structs",
  "abi": [
    {
      "inputs": [
        {
          "internalType": "address",
          "name": "",
          "type": "address"
        }
      ],
      "name": "addressToBankid",
      "outputs": [
        {
          "internalType": "uint256",
          "name": "",
          "type": "uint256"
        }
      ],
      "stateMutability": "view",
      "type": "function"
    },
    {
      "inputs": [
        {
          "internalType": "address",
          "name": "",
          "type": "address"
        }
      ],
      "name": "addressToSHGid",
      "outputs": [
        {
          "internalType": "uint256",
          "name": "",
          "type": "uint256"
        }
      ],
      "stateMutability": "view",
      "type": "function"
    },
    {
      "inputs": [
        {
          "internalType": "address",
          "name": "",
          "type": "address"
        }
      ],
      "name": "addressToUser",
      "outputs": [
        {
          "internalType": "uint256",
          "name": "",
          "type": "uint256"
        }
      ],
      "stateMutability": "view",
      "type": "function"
    },
    {
      "inputs": [
        {
          "internalType": "uint256",
          "name": "",
          "type": "uint256"
        }
      ],
      "name": "banks",
      "outputs": [
        {
          "internalType": "uint256",
          "name": "id",
          "type": "uint256"
        },
        {
          "internalType": "string",
          "name": "name",
          "type": "string"
        },
        {
          "internalType": "address",
          "name": "walletAddress",
          "type": "address"
        },
        {
          "internalType": "string",
          "name": "code",
          "type": "string"
        },
        {
          "internalType": "uint256",
          "name": "intrestRate",
          "type": "uint256"
        }
      ],
      "stateMutability": "view",
      "type": "function"
    },
    {
      "inputs": [
        {
          "internalType": "uint256",
          "name": "",
          "type": "uint256"
        }
      ],
      "name": "loans",
      "outputs": [
        {
          "internalType": "uint256",
          "name": "loanId",
          "type": "uint256"
        },
        {
          "internalType": "uint256",
          "name": "lenderId",
          "type": "uint256"
        },
        {
          "internalType": "uint256",
          "name": "amount",
          "type": "uint256"
        },
        {
          "internalType": "uint256",
          "name": "lendeeId",
          "type": "uint256"
        },
        {
          "internalType": "uint256",
          "name": "intrest",
          "type": "uint256"
        },
        {
          "internalType": "uint256",
          "name": "loanTime",
          "type": "uint256"
        },
        {
          "internalType": "uint256",
          "name": "date",
          "type": "uint256"
        },
        {
          "internalType": "uint256",
          "name": "lastEMI",
          "type": "uint256"
        }
      ],
      "stateMutability": "view",
      "type": "function"
    },
    {
      "inputs": [
        {
          "internalType": "uint256",
          "name": "",
          "type": "uint256"
        }
      ],
      "name": "shgRequests",
      "outputs": [
        {
          "internalType": "uint256",
          "name": "requestid",
          "type": "uint256"
        },
        {
          "internalType": "uint256",
          "name": "shgid",
          "type": "uint256"
        },
        {
          "internalType": "uint256",
          "name": "amount",
          "type": "uint256"
        },
        {
          "internalType": "uint256",
          "name": "loanTime",
          "type": "uint256"
        },
        {
          "internalType": "enum structs.RequestStatus",
          "name": "status",
          "type": "uint8"
        }
      ],
      "stateMutability": "view",
      "type": "function"
    },
    {
      "inputs": [
        {
          "internalType": "uint256",
          "name": "",
          "type": "uint256"
        }
      ],
      "name": "shgs",
      "outputs": [
        {
          "internalType": "uint256",
          "name": "id",
          "type": "uint256"
        },
        {
          "internalType": "string",
          "name": "name",
          "type": "string"
        },
        {
          "components": [
            {
              "internalType": "string",
              "name": "state",
              "type": "string"
            },
            {
              "internalType": "string",
              "name": "district",
              "type": "string"
            },
            {
              "internalType": "string",
              "name": "blockName",
              "type": "string"
            },
            {
              "internalType": "string",
              "name": "panchyatName",
              "type": "string"
            },
            {
              "internalType": "string",
              "name": "villageName",
              "type": "string"
            }
          ],
          "internalType": "struct structs.Location",
          "name": "location",
          "type": "tuple"
        },
        {
          "internalType": "string",
          "name": "dateOfFormation",
          "type": "string"
        },
        {
          "internalType": "uint256",
          "name": "currentBalance",
          "type": "uint256"
        },
        {
          "internalType": "uint256",
          "name": "owedBalance",
          "type": "uint256"
        },
        {
          "internalType": "uint256",
          "name": "baseIntrest",
          "type": "uint256"
        }
      ],
      "stateMutability": "view",
      "type": "function"
    },
    {
      "inputs": [
        {
          "internalType": "uint256",
          "name": "",
          "type": "uint256"
        }
      ],
      "name": "userRequests",
      "outputs": [
        {
          "internalType": "uint256",
          "name": "requestId",
          "type": "uint256"
        },
        {
          "internalType": "uint256",
          "name": "userId",
          "type": "uint256"
        },
        {
          "internalType": "uint256",
          "name": "amount",
          "type": "uint256"
        },
        {
          "internalType": "string",
          "name": "description",
          "type": "string"
        },
        {
          "internalType": "uint256",
          "name": "SHGId",
          "type": "uint256"
        },
        {
          "internalType": "enum structs.RequestStatus",
          "name": "status",
          "type": "uint8"
        },
        {
          "internalType": "uint256",
          "name": "loanTime",
          "type": "uint256"
        }
      ],
      "stateMutability": "view",
      "type": "function"
    },
    {
      "inputs": [
        {
          "internalType": "uint256",
          "name": "",
          "type": "uint256"
        }
      ],
      "name": "users",
      "outputs": [
        {
          "internalType": "uint256",
          "name": "id",
          "type": "uint256"
        },
        {
          "internalType": "string",
          "name": "name",
          "type": "string"
        },
        {
          "internalType": "string",
          "name": "aadhar",
          "type": "string"
        },
        {
          "internalType": "uint256",
          "name": "mobno",
          "type": "uint256"
        },
        {
          "internalType": "string",
          "name": "fatherName",
          "type": "string"
        },
        {
          "internalType": "address",
          "name": "walletAddress",
          "type": "address"
        },
        {
          "internalType": "uint256",
          "name": "shgid",
          "type": "uint256"
        },
        {
          "internalType": "enum structs.UserType",
          "name": "userType",
          "type": "uint8"
        },
        {
          "internalType": "enum structs.Gender",
          "name": "gender",
          "type": "uint8"
        },
        {
          "components": [
            {
              "internalType": "string",
              "name": "state",
              "type": "string"
            },
            {
              "internalType": "string",
              "name": "district",
              "type": "string"
            },
            {
              "internalType": "string",
              "name": "blockName",
              "type": "string"
            },
            {
              "internalType": "string",
              "name": "panchyatName",
              "type": "string"
            },
            {
              "internalType": "string",
              "name": "villageName",
              "type": "string"
            }
          ],
          "internalType": "struct structs.Location",
          "name": "location",
          "type": "tuple"
        }
      ],
      "stateMutability": "view",
      "type": "function"
    }
  ],
  "bytecode": "0x608060405234801561001057600080fd5b506115d1806100206000396000f3fe608060405234801561001057600080fd5b50600436106100925760003560e01c80633ae0058f116100665780633ae0058f1461016e57806361c91b701461019e57806394169656146101ce578063e1ec3c6814610204578063edf538861461023b57610092565b806285ae2b14610097578063257a170b146100cb57806326271cf2146100ff578063365b98b214610135575b600080fd5b6100b160048036038101906100ac9190610f0e565b61026b565b6040516100c29594939291906110a1565b60405180910390f35b6100e560048036038101906100e09190610f0e565b6103d1565b6040516100f69594939291906112b4565b60405180910390f35b61011960048036038101906101149190610f0e565b610414565b60405161012c97969594939291906111ba565b60405180910390f35b61014f600480360381019061014a9190610f0e565b61084a565b6040516101659a99989796959493929190611102565b60405180910390f35b61018860048036038101906101839190610ee5565b610d54565b6040516101959190611086565b60405180910390f35b6101b860048036038101906101b39190610ee5565b610d6c565b6040516101c59190611086565b60405180910390f35b6101e860048036038101906101e39190610f0e565b610d84565b6040516101fb979695949392919061123e565b60405180910390f35b61021e60048036038101906102199190610f0e565b610e5b565b604051610232989796959493929190611307565b60405180910390f35b61025560048036038101906102509190610ee5565b610ea3565b6040516102629190611086565b60405180910390f35b600260205280600052604060002060009150905080600001549080600101805461029490611490565b80601f01602080910402602001604051908101604052809291908181526020018280546102c090611490565b801561030d5780601f106102e25761010080835404028352916020019161030d565b820191906000526020600020905b8154815290600101906020018083116102f057829003601f168201915b5050505050908060020160009054906101000a900473ffffffffffffffffffffffffffffffffffffffff169080600301805461034890611490565b80601f016020809104026020016040519081016040528092919081815260200182805461037490611490565b80156103c15780601f10610396576101008083540402835291602001916103c1565b820191906000526020600020905b8154815290600101906020018083116103a457829003601f168201915b5050505050908060040154905085565b60066020528060005260406000206000915090508060000154908060010154908060020154908060030154908060040160009054906101000a900460ff16905085565b600160205280600052604060002060009150905080600001549080600201805461043d90611490565b80601f016020809104026020016040519081016040528092919081815260200182805461046990611490565b80156104b65780601f1061048b576101008083540402835291602001916104b6565b820191906000526020600020905b81548152906001019060200180831161049957829003601f168201915b505050505090806003016040518060a00160405290816000820180546104db90611490565b80601f016020809104026020016040519081016040528092919081815260200182805461050790611490565b80156105545780601f1061052957610100808354040283529160200191610554565b820191906000526020600020905b81548152906001019060200180831161053757829003601f168201915b5050505050815260200160018201805461056d90611490565b80601f016020809104026020016040519081016040528092919081815260200182805461059990611490565b80156105e65780601f106105bb576101008083540402835291602001916105e6565b820191906000526020600020905b8154815290600101906020018083116105c957829003601f168201915b505050505081526020016002820180546105ff90611490565b80601f016020809104026020016040519081016040528092919081815260200182805461062b90611490565b80156106785780601f1061064d57610100808354040283529160200191610678565b820191906000526020600020905b81548152906001019060200180831161065b57829003601f168201915b5050505050815260200160038201805461069190611490565b80601f01602080910402602001604051908101604052809291908181526020018280546106bd90611490565b801561070a5780601f106106df5761010080835404028352916020019161070a565b820191906000526020600020905b8154815290600101906020018083116106ed57829003601f168201915b5050505050815260200160048201805461072390611490565b80601f016020809104026020016040519081016040528092919081815260200182805461074f90611490565b801561079c5780601f106107715761010080835404028352916020019161079c565b820191906000526020600020905b81548152906001019060200180831161077f57829003601f168201915b505050505081525050908060080180546107b590611490565b80601f01602080910402602001604051908101604052809291908181526020018280546107e190611490565b801561082e5780601f106108035761010080835404028352916020019161082e565b820191906000526020600020905b81548152906001019060200180831161081157829003601f168201915b50505050509080600901549080600a01549080600d0154905087565b600060205280600052604060002060009150905080600001549080600101805461087390611490565b80601f016020809104026020016040519081016040528092919081815260200182805461089f90611490565b80156108ec5780601f106108c1576101008083540402835291602001916108ec565b820191906000526020600020905b8154815290600101906020018083116108cf57829003601f168201915b50505050509080600201805461090190611490565b80601f016020809104026020016040519081016040528092919081815260200182805461092d90611490565b801561097a5780601f1061094f5761010080835404028352916020019161097a565b820191906000526020600020905b81548152906001019060200180831161095d57829003601f168201915b50505050509080600301549080600401805461099590611490565b80601f01602080910402602001604051908101604052809291908181526020018280546109c190611490565b8015610a0e5780601f106109e357610100808354040283529160200191610a0e565b820191906000526020600020905b8154815290600101906020018083116109f157829003601f168201915b5050505050908060050160009054906101000a900473ffffffffffffffffffffffffffffffffffffffff16908060080154908060090160009054906101000a900460ff16908060090160019054906101000a900460ff169080600a016040518060a0016040529081600082018054610a8590611490565b80601f0160208091040260200160405190810160405280929190818152602001828054610ab190611490565b8015610afe5780601f10610ad357610100808354040283529160200191610afe565b820191906000526020600020905b815481529060010190602001808311610ae157829003601f168201915b50505050508152602001600182018054610b1790611490565b80601f0160208091040260200160405190810160405280929190818152602001828054610b4390611490565b8015610b905780601f10610b6557610100808354040283529160200191610b90565b820191906000526020600020905b815481529060010190602001808311610b7357829003601f168201915b50505050508152602001600282018054610ba990611490565b80601f0160208091040260200160405190810160405280929190818152602001828054610bd590611490565b8015610c225780601f10610bf757610100808354040283529160200191610c22565b820191906000526020600020905b815481529060010190602001808311610c0557829003601f168201915b50505050508152602001600382018054610c3b90611490565b80601f0160208091040260200160405190810160405280929190818152602001828054610c6790611490565b8015610cb45780601f10610c8957610100808354040283529160200191610cb4565b820191906000526020600020905b815481529060010190602001808311610c9757829003601f168201915b50505050508152602001600482018054610ccd90611490565b80601f0160208091040260200160405190810160405280929190818152602001828054610cf990611490565b8015610d465780601f10610d1b57610100808354040283529160200191610d46565b820191906000526020600020905b815481529060010190602001808311610d2957829003601f168201915b50505050508152505090508a565b60076020528060005260406000206000915090505481565b60086020528060005260406000206000915090505481565b6005602052806000526040600020600091509050806000015490806001015490806002015490806003018054610db990611490565b80601f0160208091040260200160405190810160405280929190818152602001828054610de590611490565b8015610e325780601f10610e0757610100808354040283529160200191610e32565b820191906000526020600020905b815481529060010190602001808311610e1557829003601f168201915b5050505050908060040154908060050160009054906101000a900460ff16908060060154905087565b60046020528060005260406000206000915090508060000154908060010154908060020154908060030154908060040154908060050154908060060154908060070154905088565b60036020528060005260406000206000915090505481565b600081359050610eca8161156d565b92915050565b600081359050610edf81611584565b92915050565b600060208284031215610ef757600080fd5b6000610f0584828501610ebb565b91505092915050565b600060208284031215610f2057600080fd5b6000610f2e84828501610ed0565b91505092915050565b610f40816113b2565b82525050565b610f4f81611427565b82525050565b610f5e81611439565b82525050565b610f6d8161144b565b82525050565b6000610f7e82611385565b610f888185611390565b9350610f9881856020860161145d565b610fa181611520565b840191505092915050565b6000610fb782611385565b610fc181856113a1565b9350610fd181856020860161145d565b610fda81611520565b840191505092915050565b600060a08301600083015184820360008601526110028282610f73565b9150506020830151848203602086015261101c8282610f73565b915050604083015184820360408601526110368282610f73565b915050606083015184820360608601526110508282610f73565b9150506080830151848203608086015261106a8282610f73565b9150508091505092915050565b6110808161141d565b82525050565b600060208201905061109b6000830184611077565b92915050565b600060a0820190506110b66000830188611077565b81810360208301526110c88187610fac565b90506110d76040830186610f37565b81810360608301526110e98185610fac565b90506110f86080830184611077565b9695505050505050565b600061014082019050611118600083018d611077565b818103602083015261112a818c610fac565b9050818103604083015261113e818b610fac565b905061114d606083018a611077565b818103608083015261115f8189610fac565b905061116e60a0830188610f37565b61117b60c0830187611077565b61118860e0830186610f64565b611196610100830185610f46565b8181036101208301526111a98184610fe5565b90509b9a5050505050505050505050565b600060e0820190506111cf600083018a611077565b81810360208301526111e18189610fac565b905081810360408301526111f58188610fe5565b905081810360608301526112098187610fac565b90506112186080830186611077565b61122560a0830185611077565b61123260c0830184611077565b98975050505050505050565b600060e082019050611253600083018a611077565b6112606020830189611077565b61126d6040830188611077565b818103606083015261127f8187610fac565b905061128e6080830186611077565b61129b60a0830185610f55565b6112a860c0830184611077565b98975050505050505050565b600060a0820190506112c96000830188611077565b6112d66020830187611077565b6112e36040830186611077565b6112f06060830185611077565b6112fd6080830184610f55565b9695505050505050565b60006101008201905061131d600083018b611077565b61132a602083018a611077565b6113376040830189611077565b6113446060830188611077565b6113516080830187611077565b61135e60a0830186611077565b61136b60c0830185611077565b61137860e0830184611077565b9998505050505050505050565b600081519050919050565b600082825260208201905092915050565b600082825260208201905092915050565b60006113bd826113fd565b9050919050565b60008190506113d282611531565b919050565b60008190506113e582611545565b919050565b60008190506113f882611559565b919050565b600073ffffffffffffffffffffffffffffffffffffffff82169050919050565b6000819050919050565b6000611432826113c4565b9050919050565b6000611444826113d7565b9050919050565b6000611456826113ea565b9050919050565b60005b8381101561147b578082015181840152602081019050611460565b8381111561148a576000848401525b50505050565b600060028204905060018216806114a857607f821691505b602082108114156114bc576114bb6114f1565b5b50919050565b7f4e487b7100000000000000000000000000000000000000000000000000000000600052602160045260246000fd5b7f4e487b7100000000000000000000000000000000000000000000000000000000600052602260045260246000fd5b6000601f19601f8301169050919050565b60038110611542576115416114c2565b5b50565b60048110611556576115556114c2565b5b50565b6006811061156a576115696114c2565b5b50565b611576816113b2565b811461158157600080fd5b50565b61158d8161141d565b811461159857600080fd5b5056fea264697066735822122007d4d76b242f37587a032ec5bdc289642b32ec39a264f35a506ce8c2de1f051a64736f6c63430008040033",
  "immutableReferences": {},
  "source": "// SPDX-License-Identifier: MIT\npragma solidity ^0.8.1;\n\ncontract structs {\n    enum UserType {\n        PRESIDENT,\n        VICE_PRESIDENT,\n        TREASURER,\n        MEMBER,\n        NONE,\n        ADMIN\n    }\n\n    enum Gender {\n        MALE,\n        FEMALE,\n        OTHER\n    }\n\n    enum RequestStatus {\n        APPROVED,\n        COMPLETED,\n        REJECTED,\n        IN_PROCESS\n    }\n\n    struct User {\n        uint256 id;\n        string name;\n        string aadhar;\n        uint256 mobno;\n        string fatherName;\n        address walletAddress;\n        uint256[] loansTaken;\n        uint256[] requests;\n        uint256 shgid;\n        UserType userType;\n        Gender gender;\n        Location location;\n    }\n\n    struct Location {\n        string state;\n        string district;\n        string blockName;\n        string panchyatName;\n        string villageName;\n    }\n\n    struct Bank {\n        uint256 id;\n        string name;\n        address walletAddress;\n        string code;\n        uint256 intrestRate;\n        uint256[] requests;\n    }\n\n    struct SHG {\n        uint256 id;\n        uint256[] users;\n        string name;\n        Location location;\n        string dateOfFormation;\n        uint256 currentBalance;\n        uint256 owedBalance;\n        uint256[] loansGiven;\n        uint256[] loansTaken;\n        uint256 baseIntrest;\n    }\n\n    struct Loan {\n        uint256 loanId;\n        uint256 lenderId;\n        uint256 amount;\n        uint256 lendeeId;\n        uint256 intrest;\n        uint256 loanTime;\n        uint256 date;\n        uint256 lastEMI;\n    }\n\n    struct Status {\n        RequestStatus requestStatus;\n        uint256 Id;\n    }\n\n    struct UserRequest {\n        uint256 requestId;\n        uint256 userId;\n        uint256 amount;\n        string description;\n        uint256 SHGId;\n        RequestStatus status;\n        uint256 loanTime;\n        uint256[] approvals;\n    }\n\n    struct SHGRequest {\n        uint256 requestid;\n        uint256 shgid;\n        uint256 amount;\n        uint256 loanTime;\n        RequestStatus status;\n    }\n\n    mapping(uint256 => User) public users;\n    mapping(uint256 => SHG) public shgs;\n    mapping(uint256 => Bank) public banks;\n\n    mapping(address => uint256) public addressToUser;\n    mapping(uint256 => Loan) public loans;\n    mapping(uint256 => UserRequest) public userRequests;\n    mapping(uint256 => SHGRequest) public shgRequests;\n\n    // Login\n    mapping(address => uint256) public addressToSHGid;\n    mapping(address => uint256) public addressToBankid;\n\n    uint256 numUsers;\n    uint256 numSHGs;\n    uint256 numUserRequests;\n    uint256 numSHGRequests;\n    uint256 numBanks;\n    uint256 numLoans;\n}\n",
  "sourcePath": "/home/sdas/code/yogdaan-contracts/contracts/lib/structs.sol",
  "compiler": {
    "name": "solc",
    "version": "0.8.4+commit.c7e474f2.Emscripten.clang"
  },
  "schemaVersion": "3.4.9",
  "updatedAt": "2022-08-25T04:36:56.169Z",
  "devdoc": {
    "kind": "dev",
    "methods": {},
    "version": 1
  },
  "userdoc": {
    "kind": "user",
    "methods": {},
    "version": 1
  }
}