{
  "contractName": "User",
  "abi": [
    {
      "inputs": [
        {
          "internalType": "address",
          "name": "",
          "type": "address"
        }
      ],
      "name": "addressToBankid",
      "outputs": [
        {
          "internalType": "uint256",
          "name": "",
          "type": "uint256"
        }
      ],
      "stateMutability": "view",
      "type": "function"
    },
    {
      "inputs": [
        {
          "internalType": "address",
          "name": "",
          "type": "address"
        }
      ],
      "name": "addressToSHGid",
      "outputs": [
        {
          "internalType": "uint256",
          "name": "",
          "type": "uint256"
        }
      ],
      "stateMutability": "view",
      "type": "function"
    },
    {
      "inputs": [
        {
          "internalType": "address",
          "name": "",
          "type": "address"
        }
      ],
      "name": "addressToUser",
      "outputs": [
        {
          "internalType": "uint256",
          "name": "",
          "type": "uint256"
        }
      ],
      "stateMutability": "view",
      "type": "function"
    },
    {
      "inputs": [
        {
          "internalType": "uint256",
          "name": "",
          "type": "uint256"
        }
      ],
      "name": "banks",
      "outputs": [
        {
          "internalType": "uint256",
          "name": "id",
          "type": "uint256"
        },
        {
          "internalType": "string",
          "name": "name",
          "type": "string"
        },
        {
          "internalType": "address",
          "name": "walletAddress",
          "type": "address"
        },
        {
          "internalType": "string",
          "name": "code",
          "type": "string"
        },
        {
          "internalType": "uint256",
          "name": "intrestRate",
          "type": "uint256"
        }
      ],
      "stateMutability": "view",
      "type": "function"
    },
    {
      "inputs": [
        {
          "internalType": "uint256",
          "name": "",
          "type": "uint256"
        }
      ],
      "name": "loans",
      "outputs": [
        {
          "internalType": "uint256",
          "name": "loanId",
          "type": "uint256"
        },
        {
          "internalType": "uint256",
          "name": "lenderId",
          "type": "uint256"
        },
        {
          "internalType": "uint256",
          "name": "amount",
          "type": "uint256"
        },
        {
          "internalType": "uint256",
          "name": "lendeeId",
          "type": "uint256"
        },
        {
          "internalType": "uint256",
          "name": "intrest",
          "type": "uint256"
        },
        {
          "internalType": "uint256",
          "name": "loanTime",
          "type": "uint256"
        },
        {
          "internalType": "uint256",
          "name": "date",
          "type": "uint256"
        },
        {
          "internalType": "uint256",
          "name": "lastEMI",
          "type": "uint256"
        }
      ],
      "stateMutability": "view",
      "type": "function"
    },
    {
      "inputs": [
        {
          "internalType": "uint256",
          "name": "",
          "type": "uint256"
        }
      ],
      "name": "shgRequests",
      "outputs": [
        {
          "internalType": "uint256",
          "name": "requestid",
          "type": "uint256"
        },
        {
          "internalType": "uint256",
          "name": "shgid",
          "type": "uint256"
        },
        {
          "internalType": "uint256",
          "name": "amount",
          "type": "uint256"
        },
        {
          "internalType": "uint256",
          "name": "loanTime",
          "type": "uint256"
        },
        {
          "internalType": "enum structs.RequestStatus",
          "name": "status",
          "type": "uint8"
        }
      ],
      "stateMutability": "view",
      "type": "function"
    },
    {
      "inputs": [
        {
          "internalType": "uint256",
          "name": "",
          "type": "uint256"
        }
      ],
      "name": "shgs",
      "outputs": [
        {
          "internalType": "uint256",
          "name": "id",
          "type": "uint256"
        },
        {
          "internalType": "string",
          "name": "name",
          "type": "string"
        },
        {
          "components": [
            {
              "internalType": "string",
              "name": "state",
              "type": "string"
            },
            {
              "internalType": "string",
              "name": "district",
              "type": "string"
            },
            {
              "internalType": "string",
              "name": "blockName",
              "type": "string"
            },
            {
              "internalType": "string",
              "name": "panchyatName",
              "type": "string"
            },
            {
              "internalType": "string",
              "name": "villageName",
              "type": "string"
            }
          ],
          "internalType": "struct structs.Location",
          "name": "location",
          "type": "tuple"
        },
        {
          "internalType": "string",
          "name": "dateOfFormation",
          "type": "string"
        },
        {
          "internalType": "uint256",
          "name": "currentBalance",
          "type": "uint256"
        },
        {
          "internalType": "uint256",
          "name": "owedBalance",
          "type": "uint256"
        },
        {
          "internalType": "uint256",
          "name": "baseIntrest",
          "type": "uint256"
        }
      ],
      "stateMutability": "view",
      "type": "function"
    },
    {
      "inputs": [
        {
          "internalType": "uint256",
          "name": "",
          "type": "uint256"
        }
      ],
      "name": "userRequests",
      "outputs": [
        {
          "internalType": "uint256",
          "name": "requestId",
          "type": "uint256"
        },
        {
          "internalType": "uint256",
          "name": "userId",
          "type": "uint256"
        },
        {
          "internalType": "uint256",
          "name": "amount",
          "type": "uint256"
        },
        {
          "internalType": "string",
          "name": "description",
          "type": "string"
        },
        {
          "internalType": "uint256",
          "name": "SHGId",
          "type": "uint256"
        },
        {
          "internalType": "enum structs.RequestStatus",
          "name": "status",
          "type": "uint8"
        },
        {
          "internalType": "uint256",
          "name": "loanTime",
          "type": "uint256"
        }
      ],
      "stateMutability": "view",
      "type": "function"
    },
    {
      "inputs": [
        {
          "internalType": "uint256",
          "name": "",
          "type": "uint256"
        }
      ],
      "name": "users",
      "outputs": [
        {
          "internalType": "uint256",
          "name": "id",
          "type": "uint256"
        },
        {
          "internalType": "string",
          "name": "name",
          "type": "string"
        },
        {
          "internalType": "string",
          "name": "aadhar",
          "type": "string"
        },
        {
          "internalType": "uint256",
          "name": "mobno",
          "type": "uint256"
        },
        {
          "internalType": "string",
          "name": "fatherName",
          "type": "string"
        },
        {
          "internalType": "address",
          "name": "walletAddress",
          "type": "address"
        },
        {
          "internalType": "uint256",
          "name": "amountTaken",
          "type": "uint256"
        },
        {
          "internalType": "uint256",
          "name": "shgid",
          "type": "uint256"
        },
        {
          "internalType": "enum structs.UserType",
          "name": "userType",
          "type": "uint8"
        },
        {
          "internalType": "enum structs.Gender",
          "name": "gender",
          "type": "uint8"
        },
        {
          "components": [
            {
              "internalType": "string",
              "name": "state",
              "type": "string"
            },
            {
              "internalType": "string",
              "name": "district",
              "type": "string"
            },
            {
              "internalType": "string",
              "name": "blockName",
              "type": "string"
            },
            {
              "internalType": "string",
              "name": "panchyatName",
              "type": "string"
            },
            {
              "internalType": "string",
              "name": "villageName",
              "type": "string"
            }
          ],
          "internalType": "struct structs.Location",
          "name": "location",
          "type": "tuple"
        }
      ],
      "stateMutability": "view",
      "type": "function"
    },
    {
      "inputs": [],
      "name": "login",
      "outputs": [
        {
          "internalType": "bool",
          "name": "",
          "type": "bool"
        }
      ],
      "stateMutability": "view",
      "type": "function"
    },
    {
      "inputs": [
        {
          "internalType": "string",
          "name": "name",
          "type": "string"
        },
        {
          "internalType": "string",
          "name": "aadhar",
          "type": "string"
        },
        {
          "internalType": "uint256",
          "name": "mobno",
          "type": "uint256"
        },
        {
          "internalType": "string",
          "name": "fatherName",
          "type": "string"
        },
        {
          "internalType": "enum structs.Gender",
          "name": "gender",
          "type": "uint8"
        },
        {
          "internalType": "string",
          "name": "_state",
          "type": "string"
        },
        {
          "internalType": "string",
          "name": "_district",
          "type": "string"
        },
        {
          "internalType": "string",
          "name": "_blockName",
          "type": "string"
        },
        {
          "internalType": "string",
          "name": "_panchyatName",
          "type": "string"
        },
        {
          "internalType": "string",
          "name": "_villageName",
          "type": "string"
        }
      ],
      "name": "addUser",
      "outputs": [],
      "stateMutability": "nonpayable",
      "type": "function"
    },
    {
      "inputs": [
        {
          "internalType": "uint256",
          "name": "_shgid",
          "type": "uint256"
        },
        {
          "internalType": "uint256",
          "name": "_userid",
          "type": "uint256"
        },
        {
          "internalType": "uint256",
          "name": "_amount",
          "type": "uint256"
        },
        {
          "internalType": "string",
          "name": "_description",
          "type": "string"
        },
        {
          "internalType": "uint256",
          "name": "_loanTime",
          "type": "uint256"
        }
      ],
      "name": "makeRequest",
      "outputs": [],
      "stateMutability": "nonpayable",
      "type": "function"
    },
    {
      "inputs": [
        {
          "internalType": "uint256",
          "name": "_userid",
          "type": "uint256"
        },
        {
          "internalType": "uint256",
          "name": "_requestid",
          "type": "uint256"
        }
      ],
      "name": "deleteRequest",
      "outputs": [],
      "stateMutability": "nonpayable",
      "type": "function"
    },
    {
      "inputs": [
        {
          "internalType": "uint256",
          "name": "_userid",
          "type": "uint256"
        },
        {
          "internalType": "uint256",
          "name": "_loanid",
          "type": "uint256"
        },
        {
          "internalType": "uint256",
          "name": "_amount",
          "type": "uint256"
        }
      ],
      "name": "payEMI",
      "outputs": [],
      "stateMutability": "payable",
      "type": "function"
    },
    {
      "inputs": [
        {
          "internalType": "uint256",
          "name": "userid",
          "type": "uint256"
        },
        {
          "internalType": "uint256",
          "name": "loanid",
          "type": "uint256"
        }
      ],
      "name": "getUserEMI",
      "outputs": [
        {
          "internalType": "uint256",
          "name": "",
          "type": "uint256"
        }
      ],
      "stateMutability": "nonpayable",
      "type": "function"
    },
    {
      "inputs": [
        {
          "internalType": "uint256",
          "name": "userid",
          "type": "uint256"
        }
      ],
      "name": "getAllLoans",
      "outputs": [
        {
          "internalType": "uint256[]",
          "name": "",
          "type": "uint256[]"
        }
      ],
      "stateMutability": "view",
      "type": "function"
    }
  ],
  "bytecode": "0x608060405234801561001057600080fd5b50612bc6806100206000396000f3fe6080604052600436106100f25760003560e01c806342f5f8151161008a578063cfcb4b2f11610059578063cfcb4b2f14610396578063e1ec3c68146103d3578063edf5388614610417578063f736ae4314610454576100f2565b806342f5f815146102cf57806361c91b70146102eb5780639416965614610328578063b34e97e81461036b576100f2565b80632e131046116100c65780632e131046146101e5578063365b98b21461020e5780633ae0058f146102555780633c56575714610292576100f2565b806285ae2b146100f75780630227f43514610138578063257a170b1461016157806326271cf2146101a2575b600080fd5b34801561010357600080fd5b5061011e60048036038101906101199190611fc7565b61047d565b60405161012f959493929190612388565b60405180910390f35b34801561014457600080fd5b5061015f600480360381019061015a919061207b565b6105e3565b005b34801561016d57600080fd5b5061018860048036038101906101839190611fc7565b6107bd565b6040516101999594939291906125aa565b60405180910390f35b3480156101ae57600080fd5b506101c960048036038101906101c49190611fc7565b610800565b6040516101dc97969594939291906124b0565b60405180910390f35b3480156101f157600080fd5b5061020c60048036038101906102079190611e2c565b610c36565b005b34801561021a57600080fd5b5061023560048036038101906102309190611fc7565b611153565b60405161024c9b9a999897969594939291906123e9565b60405180910390f35b34801561026157600080fd5b5061027c60048036038101906102779190611e03565b611663565b604051610289919061236d565b60405180910390f35b34801561029e57600080fd5b506102b960048036038101906102b49190611ff0565b61167b565b6040516102c6919061236d565b60405180910390f35b6102e960048036038101906102e4919061202c565b611798565b005b3480156102f757600080fd5b50610312600480360381019061030d9190611e03565b611876565b60405161031f919061236d565b60405180910390f35b34801561033457600080fd5b5061034f600480360381019061034a9190611fc7565b61188e565b6040516103629796959493929190612534565b60405180910390f35b34801561037757600080fd5b50610380611965565b60405161038d9190612332565b60405180910390f35b3480156103a257600080fd5b506103bd60048036038101906103b89190611fc7565b611a0f565b6040516103ca9190612310565b60405180910390f35b3480156103df57600080fd5b506103fa60048036038101906103f59190611fc7565b611aa1565b60405161040e9897969594939291906125fd565b60405180910390f35b34801561042357600080fd5b5061043e60048036038101906104399190611e03565b611ae9565b60405161044b919061236d565b60405180910390f35b34801561046057600080fd5b5061047b60048036038101906104769190611ff0565b611b01565b005b60026020528060005260406000206000915090508060000154908060010180546104a690612945565b80601f01602080910402602001604051908101604052809291908181526020018280546104d290612945565b801561051f5780601f106104f45761010080835404028352916020019161051f565b820191906000526020600020905b81548152906001019060200180831161050257829003601f168201915b5050505050908060020160009054906101000a900473ffffffffffffffffffffffffffffffffffffffff169080600301805461055a90612945565b80601f016020809104026020016040519081016040528092919081815260200182805461058690612945565b80156105d35780601f106105a8576101008083540402835291602001916105d3565b820191906000526020600020905b8154815290600101906020018083116105b657829003601f168201915b5050505050908060040154905085565b6000600b600081546105f4906129a8565b919050819055905060405180610100016040528082815260200186815260200185815260200184815260200187815260200160038081111561065f577f4e487b7100000000000000000000000000000000000000000000000000000000600052602160045260246000fd5b8152602001838152602001600067ffffffffffffffff8111156106ab577f4e487b7100000000000000000000000000000000000000000000000000000000600052604160045260246000fd5b6040519080825280602002602001820160405280156106d95781602001602082028036833780820191505090505b5081525060056000838152602001908152602001600020600082015181600001556020820151816001015560408201518160020155606082015181600301908051906020019061072a929190611c0b565b506080820151816004015560a08201518160050160006101000a81548160ff02191690836003811115610786577f4e487b7100000000000000000000000000000000000000000000000000000000600052602160045260246000fd5b021790555060c0820151816006015560e08201518160070190805190602001906107b1929190611c91565b50905050505050505050565b60066020528060005260406000206000915090508060000154908060010154908060020154908060030154908060040160009054906101000a900460ff16905085565b600160205280600052604060002060009150905080600001549080600201805461082990612945565b80601f016020809104026020016040519081016040528092919081815260200182805461085590612945565b80156108a25780601f10610877576101008083540402835291602001916108a2565b820191906000526020600020905b81548152906001019060200180831161088557829003601f168201915b505050505090806003016040518060a00160405290816000820180546108c790612945565b80601f01602080910402602001604051908101604052809291908181526020018280546108f390612945565b80156109405780601f1061091557610100808354040283529160200191610940565b820191906000526020600020905b81548152906001019060200180831161092357829003601f168201915b5050505050815260200160018201805461095990612945565b80601f016020809104026020016040519081016040528092919081815260200182805461098590612945565b80156109d25780601f106109a7576101008083540402835291602001916109d2565b820191906000526020600020905b8154815290600101906020018083116109b557829003601f168201915b505050505081526020016002820180546109eb90612945565b80601f0160208091040260200160405190810160405280929190818152602001828054610a1790612945565b8015610a645780601f10610a3957610100808354040283529160200191610a64565b820191906000526020600020905b815481529060010190602001808311610a4757829003601f168201915b50505050508152602001600382018054610a7d90612945565b80601f0160208091040260200160405190810160405280929190818152602001828054610aa990612945565b8015610af65780601f10610acb57610100808354040283529160200191610af6565b820191906000526020600020905b815481529060010190602001808311610ad957829003601f168201915b50505050508152602001600482018054610b0f90612945565b80601f0160208091040260200160405190810160405280929190818152602001828054610b3b90612945565b8015610b885780601f10610b5d57610100808354040283529160200191610b88565b820191906000526020600020905b815481529060010190602001808311610b6b57829003601f168201915b50505050508152505090806008018054610ba190612945565b80601f0160208091040260200160405190810160405280929190818152602001828054610bcd90612945565b8015610c1a5780601f10610bef57610100808354040283529160200191610c1a565b820191906000526020600020905b815481529060010190602001808311610bfd57829003601f168201915b50505050509080600901549080600a01549080600d0154905087565b3373ffffffffffffffffffffffffffffffffffffffff16600080600360003373ffffffffffffffffffffffffffffffffffffffff1673ffffffffffffffffffffffffffffffffffffffff16815260200190815260200160002054815260200190815260200160002060050160009054906101000a900473ffffffffffffffffffffffffffffffffffffffff1673ffffffffffffffffffffffffffffffffffffffff161415610d19576040517f08c379a0000000000000000000000000000000000000000000000000000000008152600401610d109061234d565b60405180910390fd5b6000600960008154610d2a906129a8565b919050819055905080600360003373ffffffffffffffffffffffffffffffffffffffff1673ffffffffffffffffffffffffffffffffffffffff1681526020019081526020016000208190555060006040518060a0016040528088815260200187815260200186815260200185815260200184815250905060405180610180016040528060096000815480929190610dc0906129a8565b9190505581526020018d81526020018c81526020018b81526020018a81526020013373ffffffffffffffffffffffffffffffffffffffff168152602001600067ffffffffffffffff811115610e3e577f4e487b7100000000000000000000000000000000000000000000000000000000600052604160045260246000fd5b604051908082528060200260200182016040528015610e6c5781602001602082028036833780820191505090505b508152602001600081526020016000815260200160046005811115610eba577f4e487b7100000000000000000000000000000000000000000000000000000000600052602160045260246000fd5b8152602001896002811115610ef8577f4e487b7100000000000000000000000000000000000000000000000000000000600052602160045260246000fd5b815260200182815250600080848152602001908152602001600020600082015181600001556020820151816001019080519060200190610f39929190611c0b565b506040820151816002019080519060200190610f56929190611c0b565b50606082015181600301556080820151816004019080519060200190610f7d929190611c0b565b5060a08201518160050160006101000a81548173ffffffffffffffffffffffffffffffffffffffff021916908373ffffffffffffffffffffffffffffffffffffffff16021790555060c0820151816006019080519060200190610fe1929190611c91565b5060e0820151816007015561010082015181600801556101208201518160090160006101000a81548160ff02191690836005811115611049577f4e487b7100000000000000000000000000000000000000000000000000000000600052602160045260246000fd5b02179055506101408201518160090160016101000a81548160ff021916908360028111156110a0577f4e487b7100000000000000000000000000000000000000000000000000000000600052602160045260246000fd5b021790555061016082015181600a0160008201518160000190805190602001906110cb929190611c0b565b5060208201518160010190805190602001906110e8929190611c0b565b506040820151816002019080519060200190611105929190611c0b565b506060820151816003019080519060200190611122929190611c0b565b50608082015181600401908051906020019061113f929190611c0b565b505050905050505050505050505050505050565b600060205280600052604060002060009150905080600001549080600101805461117c90612945565b80601f01602080910402602001604051908101604052809291908181526020018280546111a890612945565b80156111f55780601f106111ca576101008083540402835291602001916111f5565b820191906000526020600020905b8154815290600101906020018083116111d857829003601f168201915b50505050509080600201805461120a90612945565b80601f016020809104026020016040519081016040528092919081815260200182805461123690612945565b80156112835780601f1061125857610100808354040283529160200191611283565b820191906000526020600020905b81548152906001019060200180831161126657829003601f168201915b50505050509080600301549080600401805461129e90612945565b80601f01602080910402602001604051908101604052809291908181526020018280546112ca90612945565b80156113175780601f106112ec57610100808354040283529160200191611317565b820191906000526020600020905b8154815290600101906020018083116112fa57829003601f168201915b5050505050908060050160009054906101000a900473ffffffffffffffffffffffffffffffffffffffff16908060070154908060080154908060090160009054906101000a900460ff16908060090160019054906101000a900460ff169080600a016040518060a001604052908160008201805461139490612945565b80601f01602080910402602001604051908101604052809291908181526020018280546113c090612945565b801561140d5780601f106113e25761010080835404028352916020019161140d565b820191906000526020600020905b8154815290600101906020018083116113f057829003601f168201915b5050505050815260200160018201805461142690612945565b80601f016020809104026020016040519081016040528092919081815260200182805461145290612945565b801561149f5780601f106114745761010080835404028352916020019161149f565b820191906000526020600020905b81548152906001019060200180831161148257829003601f168201915b505050505081526020016002820180546114b890612945565b80601f01602080910402602001604051908101604052809291908181526020018280546114e490612945565b80156115315780601f1061150657610100808354040283529160200191611531565b820191906000526020600020905b81548152906001019060200180831161151457829003601f168201915b5050505050815260200160038201805461154a90612945565b80601f016020809104026020016040519081016040528092919081815260200182805461157690612945565b80156115c35780601f10611598576101008083540402835291602001916115c3565b820191906000526020600020905b8154815290600101906020018083116115a657829003601f168201915b505050505081526020016004820180546115dc90612945565b80601f016020809104026020016040519081016040528092919081815260200182805461160890612945565b80156116555780601f1061162a57610100808354040283529160200191611655565b820191906000526020600020905b81548152906001019060200180831161163857829003601f168201915b50505050508152505090508b565b60076020528060005260406000206000915090505481565b60008260008060008381526020019081526020016000206000015414156116a157600080fd5b60006004600085815260200190815260200160002090506000601e603c8060188560070154426116d19190612818565b6116db919061278d565b6116e591906127be565b6116ef91906127be565b6116f991906127be565b90506000811161170857600080fd5b60008260020154905060008360040154905060008460050154905060008382600c61173391906127be565b61173d9190612818565b600c60648561174c919061278d565b61175691906127be565b60016117629190612737565b8561176d91906127be565b1890508086600201546117809190612818565b86600201819055508097505050505050505092915050565b8260008060008381526020019081526020016000206000015414156117bc57600080fd5b60006117c8858561167b565b90508281146117d657600080fd5b60006004600086815260200190815260200160002090503073ffffffffffffffffffffffffffffffffffffffff166108fc859081150290604051600060405180830381858888f19350505050158015611833573d6000803e3d6000fd5b50836001600083600301548152602001908152602001600020600901600082825461185e9190612737565b92505081905550428160070181905550505050505050565b60086020528060005260406000206000915090505481565b60056020528060005260406000206000915090508060000154908060010154908060020154908060030180546118c390612945565b80601f01602080910402602001604051908101604052809291908181526020018280546118ef90612945565b801561193c5780601f106119115761010080835404028352916020019161193c565b820191906000526020600020905b81548152906001019060200180831161191f57829003601f168201915b5050505050908060040154908060050160009054906101000a900460ff16908060060154905087565b60003373ffffffffffffffffffffffffffffffffffffffff16600080600360003373ffffffffffffffffffffffffffffffffffffffff1673ffffffffffffffffffffffffffffffffffffffff16815260200190815260200160002054815260200190815260200160002060050160009054906101000a900473ffffffffffffffffffffffffffffffffffffffff1673ffffffffffffffffffffffffffffffffffffffff1614905090565b6060816000806000838152602001908152602001600020600001541415611a3557600080fd5b600080848152602001908152602001600020600601805480602002602001604051908101604052809291908181526020018280548015611a9457602002820191906000526020600020905b815481526020019060010190808311611a80575b5050505050915050919050565b60046020528060005260406000206000915090508060000154908060010154908060020154908060030154908060040154908060050154908060060154908060070154905088565b60036020528060005260406000206000915090505481565b816000806000838152602001908152602001600020600001541415611b2557600080fd5b82600560008481526020019081526020016000206001015414611b4757600080fd5b600080600090505b600b54811015611b92578460056000838152602001908152602001600020600101541415611b7f57809150611b92565b8080611b8a906129a8565b915050611b4f565b506005600082815260200190815260200160002060008082016000905560018201600090556002820160009055600382016000611bcf9190611cde565b60048201600090556005820160006101000a81549060ff02191690556006820160009055600782016000611c039190611d1e565b505050505050565b828054611c1790612945565b90600052602060002090601f016020900481019282611c395760008555611c80565b82601f10611c5257805160ff1916838001178555611c80565b82800160010185558215611c80579182015b82811115611c7f578251825591602001919060010190611c64565b5b509050611c8d9190611d3f565b5090565b828054828255906000526020600020908101928215611ccd579160200282015b82811115611ccc578251825591602001919060010190611cb1565b5b509050611cda9190611d3f565b5090565b508054611cea90612945565b6000825580601f10611cfc5750611d1b565b601f016020900490600052602060002090810190611d1a9190611d3f565b5b50565b5080546000825590600052602060002090810190611d3c9190611d3f565b50565b5b80821115611d58576000816000905550600101611d40565b5090565b6000611d6f611d6a846126a0565b61267b565b905082815260208101848484011115611d8757600080fd5b611d92848285612903565b509392505050565b600081359050611da981612b52565b92915050565b600081359050611dbe81612b69565b92915050565b600082601f830112611dd557600080fd5b8135611de5848260208601611d5c565b91505092915050565b600081359050611dfd81612b79565b92915050565b600060208284031215611e1557600080fd5b6000611e2384828501611d9a565b91505092915050565b6000806000806000806000806000806101408b8d031215611e4c57600080fd5b60008b013567ffffffffffffffff811115611e6657600080fd5b611e728d828e01611dc4565b9a505060208b013567ffffffffffffffff811115611e8f57600080fd5b611e9b8d828e01611dc4565b9950506040611eac8d828e01611dee565b98505060608b013567ffffffffffffffff811115611ec957600080fd5b611ed58d828e01611dc4565b9750506080611ee68d828e01611daf565b96505060a08b013567ffffffffffffffff811115611f0357600080fd5b611f0f8d828e01611dc4565b95505060c08b013567ffffffffffffffff811115611f2c57600080fd5b611f388d828e01611dc4565b94505060e08b013567ffffffffffffffff811115611f5557600080fd5b611f618d828e01611dc4565b9350506101008b013567ffffffffffffffff811115611f7f57600080fd5b611f8b8d828e01611dc4565b9250506101208b013567ffffffffffffffff811115611fa957600080fd5b611fb58d828e01611dc4565b9150509295989b9194979a5092959850565b600060208284031215611fd957600080fd5b6000611fe784828501611dee565b91505092915050565b6000806040838503121561200357600080fd5b600061201185828601611dee565b925050602061202285828601611dee565b9150509250929050565b60008060006060848603121561204157600080fd5b600061204f86828701611dee565b935050602061206086828701611dee565b925050604061207186828701611dee565b9150509250925092565b600080600080600060a0868803121561209357600080fd5b60006120a188828901611dee565b95505060206120b288828901611dee565b94505060406120c388828901611dee565b935050606086013567ffffffffffffffff8111156120e057600080fd5b6120ec88828901611dc4565b92505060806120fd88828901611dee565b9150509295509295909350565b600061211683836122f2565b60208301905092915050565b61212b8161284c565b82525050565b600061213c826126e1565b6121468185612704565b9350612151836126d1565b8060005b83811015612182578151612169888261210a565b9750612174836126f7565b925050600181019050612155565b5085935050505092915050565b6121988161285e565b82525050565b6121a7816128cd565b82525050565b6121b6816128df565b82525050565b6121c5816128f1565b82525050565b60006121d6826126ec565b6121e08185612715565b93506121f0818560208601612912565b6121f981612adc565b840191505092915050565b600061220f826126ec565b6122198185612726565b9350612229818560208601612912565b61223281612adc565b840191505092915050565b600061224a601283612726565b915061225582612aed565b602082019050919050565b600060a083016000830151848203600086015261227d82826121cb565b9150506020830151848203602086015261229782826121cb565b915050604083015184820360408601526122b182826121cb565b915050606083015184820360608601526122cb82826121cb565b915050608083015184820360808601526122e582826121cb565b9150508091505092915050565b6122fb816128c3565b82525050565b61230a816128c3565b82525050565b6000602082019050818103600083015261232a8184612131565b905092915050565b6000602082019050612347600083018461218f565b92915050565b600060208201905081810360008301526123668161223d565b9050919050565b60006020820190506123826000830184612301565b92915050565b600060a08201905061239d6000830188612301565b81810360208301526123af8187612204565b90506123be6040830186612122565b81810360608301526123d08185612204565b90506123df6080830184612301565b9695505050505050565b6000610160820190506123ff600083018e612301565b8181036020830152612411818d612204565b90508181036040830152612425818c612204565b9050612434606083018b612301565b8181036080830152612446818a612204565b905061245560a0830189612122565b61246260c0830188612301565b61246f60e0830187612301565b61247d6101008301866121bc565b61248b61012083018561219e565b81810361014083015261249e8184612260565b90509c9b505050505050505050505050565b600060e0820190506124c5600083018a612301565b81810360208301526124d78189612204565b905081810360408301526124eb8188612260565b905081810360608301526124ff8187612204565b905061250e6080830186612301565b61251b60a0830185612301565b61252860c0830184612301565b98975050505050505050565b600060e082019050612549600083018a612301565b6125566020830189612301565b6125636040830188612301565b81810360608301526125758187612204565b90506125846080830186612301565b61259160a08301856121ad565b61259e60c0830184612301565b98975050505050505050565b600060a0820190506125bf6000830188612301565b6125cc6020830187612301565b6125d96040830186612301565b6125e66060830185612301565b6125f360808301846121ad565b9695505050505050565b600061010082019050612613600083018b612301565b612620602083018a612301565b61262d6040830189612301565b61263a6060830188612301565b6126476080830187612301565b61265460a0830186612301565b61266160c0830185612301565b61266e60e0830184612301565b9998505050505050505050565b6000612685612696565b90506126918282612977565b919050565b6000604051905090565b600067ffffffffffffffff8211156126bb576126ba612aad565b5b6126c482612adc565b9050602081019050919050565b6000819050602082019050919050565b600081519050919050565b600081519050919050565b6000602082019050919050565b600082825260208201905092915050565b600082825260208201905092915050565b600082825260208201905092915050565b6000612742826128c3565b915061274d836128c3565b9250827fffffffffffffffffffffffffffffffffffffffffffffffffffffffffffffffff03821115612782576127816129f1565b5b828201905092915050565b6000612798826128c3565b91506127a3836128c3565b9250826127b3576127b2612a20565b5b828204905092915050565b60006127c9826128c3565b91506127d4836128c3565b9250817fffffffffffffffffffffffffffffffffffffffffffffffffffffffffffffffff048311821515161561280d5761280c6129f1565b5b828202905092915050565b6000612823826128c3565b915061282e836128c3565b925082821015612841576128406129f1565b5b828203905092915050565b6000612857826128a3565b9050919050565b60008115159050919050565b600081905061287882612b16565b919050565b600081905061288b82612b2a565b919050565b600081905061289e82612b3e565b919050565b600073ffffffffffffffffffffffffffffffffffffffff82169050919050565b6000819050919050565b60006128d88261286a565b9050919050565b60006128ea8261287d565b9050919050565b60006128fc82612890565b9050919050565b82818337600083830152505050565b60005b83811015612930578082015181840152602081019050612915565b8381111561293f576000848401525b50505050565b6000600282049050600182168061295d57607f821691505b6020821081141561297157612970612a7e565b5b50919050565b61298082612adc565b810181811067ffffffffffffffff8211171561299f5761299e612aad565b5b80604052505050565b60006129b3826128c3565b91507fffffffffffffffffffffffffffffffffffffffffffffffffffffffffffffffff8214156129e6576129e56129f1565b5b600182019050919050565b7f4e487b7100000000000000000000000000000000000000000000000000000000600052601160045260246000fd5b7f4e487b7100000000000000000000000000000000000000000000000000000000600052601260045260246000fd5b7f4e487b7100000000000000000000000000000000000000000000000000000000600052602160045260246000fd5b7f4e487b7100000000000000000000000000000000000000000000000000000000600052602260045260246000fd5b7f4e487b7100000000000000000000000000000000000000000000000000000000600052604160045260246000fd5b6000601f19601f8301169050919050565b7f416c726561647920526567697374657265640000000000000000000000000000600082015250565b60038110612b2757612b26612a4f565b5b50565b60048110612b3b57612b3a612a4f565b5b50565b60068110612b4f57612b4e612a4f565b5b50565b612b5b8161284c565b8114612b6657600080fd5b50565b60038110612b7657600080fd5b50565b612b82816128c3565b8114612b8d57600080fd5b5056fea26469706673582212208277bf0d22edb4e51ae364f35c853919777419c8906ae6952fa26c53e1ec4f7a64736f6c63430008040033",
  "immutableReferences": {},
  "source": "// SPDX-License-Identifier: MIT\npragma solidity ^0.8.1;\nimport \"./structs.sol\";\nimport \"./modifiers.sol\";\n\ncontract User is structs, modifiers {\n    function login() public view returns (bool) {\n        return (users[addressToUser[msg.sender]].walletAddress == msg.sender);\n    }\n\n    function addUser(\n        string memory name,\n        string memory aadhar,\n        uint256 mobno,\n        string memory fatherName,\n        Gender gender,\n        string memory _state,\n        string memory _district,\n        string memory _blockName,\n        string memory _panchyatName,\n        string memory _villageName\n    ) public {\n        require(\n            users[addressToUser[msg.sender]].walletAddress != msg.sender,\n            \"Already Registered\"\n        );\n        uint256 id = ++numUsers;\n        addressToUser[msg.sender] = id;\n\n        Location memory newlocation = Location({\n            state: _state,\n            district: _district,\n            blockName: _blockName,\n            panchyatName: _panchyatName,\n            villageName: _villageName\n        });\n\n        users[id] = User(\n            numUsers++,\n            name,\n            aadhar,\n            mobno,\n            fatherName,\n            msg.sender,\n            new uint256[](0),\n            0,\n            0, // SHG id is zero inttially as a placeholder for every user\n            UserType.NONE,\n            gender,\n            newlocation\n        );\n    }\n\n    // Request functions for user\n\n    function makeRequest(\n        uint256 _shgid,\n        uint256 _userid,\n        uint256 _amount,\n        string memory _description,\n        uint256 _loanTime\n    ) public {\n        uint256 _requestId = ++numUserRequests;\n        userRequests[_requestId] = UserRequest(\n            _requestId,\n            _userid,\n            _amount,\n            _description,\n            _shgid,\n            RequestStatus.IN_PROCESS,\n            _loanTime,\n            new uint256[](0)\n        );\n    }\n\n    function deleteRequest(uint256 _userid, uint256 _requestid)\n        public\n        onlyUser(_userid)\n    {\n        require(userRequests[_requestid].userId == _userid);\n\n        uint256 index;\n        for (uint256 i = 0; i < numUserRequests; i++) {\n            if (userRequests[i].userId == _userid) {\n                index = i;\n                break;\n            }\n        }\n        delete userRequests[index];\n    }\n\n    // Repay functions for user\n\n    function payEMI(\n        uint256 _userid,\n        uint256 _loanid,\n        uint256 _amount\n    ) public payable onlyUser(_userid) {\n        uint256 amount = getUserEMI(_userid, _loanid);\n        require(amount == _amount);\n        Loan storage loan = loans[_loanid];\n        payable(address(this)).transfer(_amount);\n        shgs[loan.lendeeId].currentBalance += _amount;\n        loan.lastEMI = block.timestamp;\n    }\n\n    // fetch functions\n\n    function getUserEMI(uint256 userid, uint256 loanid)\n        public\n        onlyUser(userid)\n        returns (uint256)\n    {\n        Loan storage loan = loans[loanid];\n        uint256 months = ((block.timestamp - loan.lastEMI) / 24) * 60 * 60 * 30;\n\n        require(months > 0);\n        uint256 P = loan.amount;\n        uint256 r = loan.intrest;\n        uint256 t = loan.loanTime;\n        uint256 emi = (P * (1 + ((r / 100) * 12))) ^ ((12 * t) - P);\n\n        loan.amount = loan.amount - emi;\n        return emi;\n    }\n\n    function getAllLoans(uint256 userid)\n        public\n        view\n        onlyUser(userid)\n        returns (uint256[] memory)\n    {\n        return users[userid].loansTaken;\n    }\n\n    // function flagDefaulters() public {}\n}\n",
  "sourcePath": "/home/sdas/code/yogdaan-contracts/contracts/lib/User.sol",
  "compiler": {
    "name": "solc",
    "version": "0.8.4+commit.c7e474f2.Emscripten.clang"
  },
  "schemaVersion": "3.4.9",
  "updatedAt": "2022-08-24T17:03:22.889Z",
  "devdoc": {
    "kind": "dev",
    "methods": {},
    "version": 1
  },
  "userdoc": {
    "kind": "user",
    "methods": {},
    "version": 1
  }
}