{
  "contractName": "User",
  "abi": [
    {
      "inputs": [
        {
          "internalType": "address",
          "name": "",
          "type": "address"
        }
      ],
      "name": "addressToBankid",
      "outputs": [
        {
          "internalType": "uint256",
          "name": "",
          "type": "uint256"
        }
      ],
      "stateMutability": "view",
      "type": "function"
    },
    {
      "inputs": [
        {
          "internalType": "address",
          "name": "",
          "type": "address"
        }
      ],
      "name": "addressToSHGid",
      "outputs": [
        {
          "internalType": "uint256",
          "name": "",
          "type": "uint256"
        }
      ],
      "stateMutability": "view",
      "type": "function"
    },
    {
      "inputs": [
        {
          "internalType": "address",
          "name": "",
          "type": "address"
        }
      ],
      "name": "addressToUser",
      "outputs": [
        {
          "internalType": "uint256",
          "name": "",
          "type": "uint256"
        }
      ],
      "stateMutability": "view",
      "type": "function"
    },
    {
      "inputs": [
        {
          "internalType": "uint256",
          "name": "",
          "type": "uint256"
        }
      ],
      "name": "banks",
      "outputs": [
        {
          "internalType": "uint256",
          "name": "id",
          "type": "uint256"
        },
        {
          "internalType": "string",
          "name": "name",
          "type": "string"
        },
        {
          "internalType": "address",
          "name": "walletAddress",
          "type": "address"
        },
        {
          "internalType": "string",
          "name": "code",
          "type": "string"
        },
        {
          "internalType": "uint256",
          "name": "intrestRate",
          "type": "uint256"
        }
      ],
      "stateMutability": "view",
      "type": "function"
    },
    {
      "inputs": [
        {
          "internalType": "string",
          "name": "",
          "type": "string"
        },
        {
          "internalType": "uint256",
          "name": "",
          "type": "uint256"
        }
      ],
      "name": "districtToSHGs",
      "outputs": [
        {
          "internalType": "uint256",
          "name": "",
          "type": "uint256"
        }
      ],
      "stateMutability": "view",
      "type": "function"
    },
    {
      "inputs": [
        {
          "internalType": "uint256",
          "name": "",
          "type": "uint256"
        }
      ],
      "name": "loans",
      "outputs": [
        {
          "internalType": "uint256",
          "name": "loanId",
          "type": "uint256"
        },
        {
          "internalType": "uint256",
          "name": "lenderId",
          "type": "uint256"
        },
        {
          "internalType": "uint256",
          "name": "amount",
          "type": "uint256"
        },
        {
          "internalType": "uint256",
          "name": "lendeeId",
          "type": "uint256"
        },
        {
          "internalType": "uint256",
          "name": "intrest",
          "type": "uint256"
        },
        {
          "internalType": "uint256",
          "name": "loanTime",
          "type": "uint256"
        },
        {
          "internalType": "uint256",
          "name": "date",
          "type": "uint256"
        },
        {
          "internalType": "uint256",
          "name": "lastEMI",
          "type": "uint256"
        }
      ],
      "stateMutability": "view",
      "type": "function"
    },
    {
      "inputs": [
        {
          "internalType": "uint256",
          "name": "",
          "type": "uint256"
        }
      ],
      "name": "shgRequests",
      "outputs": [
        {
          "internalType": "uint256",
          "name": "requestid",
          "type": "uint256"
        },
        {
          "internalType": "uint256",
          "name": "shgid",
          "type": "uint256"
        },
        {
          "internalType": "uint256",
          "name": "amount",
          "type": "uint256"
        },
        {
          "internalType": "uint256",
          "name": "loanTime",
          "type": "uint256"
        },
        {
          "internalType": "enum structs.RequestStatus",
          "name": "status",
          "type": "uint8"
        }
      ],
      "stateMutability": "view",
      "type": "function"
    },
    {
      "inputs": [
        {
          "internalType": "uint256",
          "name": "",
          "type": "uint256"
        }
      ],
      "name": "shgs",
      "outputs": [
        {
          "internalType": "uint256",
          "name": "id",
          "type": "uint256"
        },
        {
          "internalType": "string",
          "name": "name",
          "type": "string"
        },
        {
          "components": [
            {
              "internalType": "string",
              "name": "state",
              "type": "string"
            },
            {
              "internalType": "string",
              "name": "district",
              "type": "string"
            },
            {
              "internalType": "string",
              "name": "blockName",
              "type": "string"
            },
            {
              "internalType": "string",
              "name": "panchyatName",
              "type": "string"
            },
            {
              "internalType": "string",
              "name": "villageName",
              "type": "string"
            }
          ],
          "internalType": "struct structs.Location",
          "name": "location",
          "type": "tuple"
        },
        {
          "internalType": "string",
          "name": "dateOfFormation",
          "type": "string"
        },
        {
          "internalType": "uint256",
          "name": "currentBalance",
          "type": "uint256"
        },
        {
          "internalType": "uint256",
          "name": "owedBalance",
          "type": "uint256"
        },
        {
          "internalType": "uint256",
          "name": "baseIntrest",
          "type": "uint256"
        }
      ],
      "stateMutability": "view",
      "type": "function"
    },
    {
      "inputs": [
        {
          "internalType": "uint256",
          "name": "",
          "type": "uint256"
        }
      ],
      "name": "userRequests",
      "outputs": [
        {
          "internalType": "uint256",
          "name": "requestId",
          "type": "uint256"
        },
        {
          "internalType": "uint256",
          "name": "userId",
          "type": "uint256"
        },
        {
          "internalType": "uint256",
          "name": "amount",
          "type": "uint256"
        },
        {
          "internalType": "string",
          "name": "description",
          "type": "string"
        },
        {
          "internalType": "uint256",
          "name": "SHGId",
          "type": "uint256"
        },
        {
          "internalType": "enum structs.RequestStatus",
          "name": "status",
          "type": "uint8"
        },
        {
          "internalType": "uint256",
          "name": "loanTime",
          "type": "uint256"
        }
      ],
      "stateMutability": "view",
      "type": "function"
    },
    {
      "inputs": [
        {
          "internalType": "uint256",
          "name": "",
          "type": "uint256"
        }
      ],
      "name": "users",
      "outputs": [
        {
          "internalType": "uint256",
          "name": "id",
          "type": "uint256"
        },
        {
          "internalType": "string",
          "name": "name",
          "type": "string"
        },
        {
          "internalType": "string",
          "name": "aadhar",
          "type": "string"
        },
        {
          "internalType": "uint256",
          "name": "mobno",
          "type": "uint256"
        },
        {
          "internalType": "string",
          "name": "fatherName",
          "type": "string"
        },
        {
          "internalType": "address",
          "name": "walletAddress",
          "type": "address"
        },
        {
          "internalType": "uint256",
          "name": "shgid",
          "type": "uint256"
        },
        {
          "internalType": "enum structs.UserType",
          "name": "userType",
          "type": "uint8"
        },
        {
          "internalType": "enum structs.Gender",
          "name": "gender",
          "type": "uint8"
        },
        {
          "components": [
            {
              "internalType": "string",
              "name": "state",
              "type": "string"
            },
            {
              "internalType": "string",
              "name": "district",
              "type": "string"
            },
            {
              "internalType": "string",
              "name": "blockName",
              "type": "string"
            },
            {
              "internalType": "string",
              "name": "panchyatName",
              "type": "string"
            },
            {
              "internalType": "string",
              "name": "villageName",
              "type": "string"
            }
          ],
          "internalType": "struct structs.Location",
          "name": "location",
          "type": "tuple"
        }
      ],
      "stateMutability": "view",
      "type": "function"
    },
    {
      "inputs": [],
      "name": "login",
      "outputs": [
        {
          "internalType": "bool",
          "name": "",
          "type": "bool"
        }
      ],
      "stateMutability": "view",
      "type": "function"
    },
    {
      "inputs": [
        {
          "internalType": "string",
          "name": "name",
          "type": "string"
        },
        {
          "internalType": "string",
          "name": "aadhar",
          "type": "string"
        },
        {
          "internalType": "uint256",
          "name": "mobno",
          "type": "uint256"
        },
        {
          "internalType": "string",
          "name": "fatherName",
          "type": "string"
        },
        {
          "internalType": "enum structs.Gender",
          "name": "gender",
          "type": "uint8"
        },
        {
          "internalType": "string",
          "name": "_state",
          "type": "string"
        },
        {
          "internalType": "string",
          "name": "_district",
          "type": "string"
        },
        {
          "internalType": "string",
          "name": "_blockName",
          "type": "string"
        },
        {
          "internalType": "string",
          "name": "_panchyatName",
          "type": "string"
        },
        {
          "internalType": "string",
          "name": "_villageName",
          "type": "string"
        }
      ],
      "name": "addUser",
      "outputs": [],
      "stateMutability": "nonpayable",
      "type": "function"
    },
    {
      "inputs": [
        {
          "internalType": "uint256",
          "name": "_shgid",
          "type": "uint256"
        },
        {
          "internalType": "uint256",
          "name": "_userid",
          "type": "uint256"
        },
        {
          "internalType": "uint256",
          "name": "_amount",
          "type": "uint256"
        },
        {
          "internalType": "string",
          "name": "_description",
          "type": "string"
        },
        {
          "internalType": "uint256",
          "name": "_loanTime",
          "type": "uint256"
        }
      ],
      "name": "makeRequest",
      "outputs": [],
      "stateMutability": "nonpayable",
      "type": "function"
    },
    {
      "inputs": [
        {
          "internalType": "uint256",
          "name": "_userid",
          "type": "uint256"
        },
        {
          "internalType": "uint256",
          "name": "_requestid",
          "type": "uint256"
        }
      ],
      "name": "deleteRequest",
      "outputs": [],
      "stateMutability": "nonpayable",
      "type": "function"
    },
    {
      "inputs": [
        {
          "internalType": "uint256",
          "name": "_userid",
          "type": "uint256"
        },
        {
          "internalType": "uint256",
          "name": "_loanid",
          "type": "uint256"
        },
        {
          "internalType": "uint256",
          "name": "_amount",
          "type": "uint256"
        }
      ],
      "name": "payEMI",
      "outputs": [],
      "stateMutability": "payable",
      "type": "function"
    },
    {
      "inputs": [
        {
          "internalType": "uint256",
          "name": "userid",
          "type": "uint256"
        },
        {
          "internalType": "uint256",
          "name": "loanid",
          "type": "uint256"
        }
      ],
      "name": "getUserEMI",
      "outputs": [
        {
          "internalType": "uint256",
          "name": "",
          "type": "uint256"
        }
      ],
      "stateMutability": "nonpayable",
      "type": "function"
    },
    {
      "inputs": [
        {
          "internalType": "uint256",
          "name": "userid",
          "type": "uint256"
        }
      ],
      "name": "getAllLoans",
      "outputs": [
        {
          "internalType": "uint256[]",
          "name": "",
          "type": "uint256[]"
        }
      ],
      "stateMutability": "view",
      "type": "function"
    },
    {
      "inputs": [
        {
          "internalType": "uint256",
          "name": "_userid",
          "type": "uint256"
        }
      ],
      "name": "getUserLoanAmount",
      "outputs": [
        {
          "internalType": "uint256",
          "name": "",
          "type": "uint256"
        }
      ],
      "stateMutability": "view",
      "type": "function"
    }
  ],
  "bytecode": "0x608060405234801561001057600080fd5b50612e7f806100206000396000f3fe6080604052600436106101085760003560e01c80633cec427211610095578063b34e97e811610064578063b34e97e8146103fa578063cfcb4b2f14610425578063e1ec3c6814610462578063edf53886146104a6578063f736ae43146104e357610108565b80633cec42721461032157806342f5f8151461035e57806361c91b701461037a57806394169656146103b757610108565b806326271cf2116100dc57806326271cf2146101f55780632e13104614610238578063365b98b2146102615780633ae0058f146102a75780633c565757146102e457610108565b806285ae2b1461010d5780630227f4351461014e578063089511f714610177578063257a170b146101b4575b600080fd5b34801561011957600080fd5b50610134600480360381019061012f919061228f565b61050c565b604051610145959493929190612650565b60405180910390f35b34801561015a57600080fd5b5061017560048036038101906101709190612343565b610672565b005b34801561018357600080fd5b5061019e6004803603810190610199919061228f565b610888565b6040516101ab9190612635565b60405180910390f35b3480156101c057600080fd5b506101db60048036038101906101d6919061228f565b61096f565b6040516101ec959493929190612863565b60405180910390f35b34801561020157600080fd5b5061021c6004803603810190610217919061228f565b6109b2565b60405161022f9796959493929190612769565b60405180910390f35b34801561024457600080fd5b5061025f600480360381019061025a91906120a0565b610de8565b005b34801561026d57600080fd5b506102886004803603810190610283919061228f565b611386565b60405161029e9a999897969594939291906126b1565b60405180910390f35b3480156102b357600080fd5b506102ce60048036038101906102c99190612077565b611890565b6040516102db9190612635565b60405180910390f35b3480156102f057600080fd5b5061030b600480360381019061030691906122b8565b6118a8565b6040516103189190612635565b60405180910390f35b34801561032d57600080fd5b506103486004803603810190610343919061223b565b6119c5565b6040516103559190612635565b60405180910390f35b610378600480360381019061037391906122f4565b611a0c565b005b34801561038657600080fd5b506103a1600480360381019061039c9190612077565b611aea565b6040516103ae9190612635565b60405180910390f35b3480156103c357600080fd5b506103de60048036038101906103d9919061228f565b611b02565b6040516103f197969594939291906127ed565b60405180910390f35b34801561040657600080fd5b5061040f611bd9565b60405161041c91906125fa565b60405180910390f35b34801561043157600080fd5b5061044c6004803603810190610447919061228f565b611c83565b60405161045991906125d8565b60405180910390f35b34801561046e57600080fd5b506104896004803603810190610484919061228f565b611d15565b60405161049d9897969594939291906128b6565b60405180910390f35b3480156104b257600080fd5b506104cd60048036038101906104c89190612077565b611d5d565b6040516104da9190612635565b60405180910390f35b3480156104ef57600080fd5b5061050a600480360381019061050591906122b8565b611d75565b005b600360205280600052604060002060009150905080600001549080600101805461053590612bfe565b80601f016020809104026020016040519081016040528092919081815260200182805461056190612bfe565b80156105ae5780601f10610583576101008083540402835291602001916105ae565b820191906000526020600020905b81548152906001019060200180831161059157829003601f168201915b5050505050908060020160009054906101000a900473ffffffffffffffffffffffffffffffffffffffff16908060030180546105e990612bfe565b80601f016020809104026020016040519081016040528092919081815260200182805461061590612bfe565b80156106625780601f1061063757610100808354040283529160200191610662565b820191906000526020600020905b81548152906001019060200180831161064557829003601f168201915b5050505050908060040154905085565b6000600c6000815461068390612c61565b91905081905590506040518061010001604052808281526020018681526020018581526020018481526020018781526020016003808111156106ee577f4e487b7100000000000000000000000000000000000000000000000000000000600052602160045260246000fd5b8152602001838152602001600067ffffffffffffffff81111561073a577f4e487b7100000000000000000000000000000000000000000000000000000000600052604160045260246000fd5b6040519080825280602002602001820160405280156107685781602001602082028036833780820191505090505b508152506006600083815260200190815260200160002060008201518160000155602082015181600101556040820151816002015560608201518160030190805190602001906107b9929190611e7f565b506080820151816004015560a08201518160050160006101000a81548160ff02191690836003811115610815577f4e487b7100000000000000000000000000000000000000000000000000000000600052602160045260246000fd5b021790555060c0820151816006015560e0820151816007019080519060200190610840929190611f05565b50905050600080868152602001908152602001600020600701819080600181540180825580915050600190039060005260206000200160009091909190915055505050505050565b6000806000905060008060008581526020019081526020016000206006018054806020026020016040519081016040528092919081815260200182805480156108f057602002820191906000526020600020905b8154815260200190600101908083116108dc575b5050505050905060005b81518110156109645781818151811061093c577f4e487b7100000000000000000000000000000000000000000000000000000000600052603260045260246000fd5b60200260200101518361094f91906129f0565b9250808061095c90612c61565b9150506108fa565b508192505050919050565b60076020528060005260406000206000915090508060000154908060010154908060020154908060030154908060040160009054906101000a900460ff16905085565b60016020528060005260406000206000915090508060000154908060020180546109db90612bfe565b80601f0160208091040260200160405190810160405280929190818152602001828054610a0790612bfe565b8015610a545780601f10610a2957610100808354040283529160200191610a54565b820191906000526020600020905b815481529060010190602001808311610a3757829003601f168201915b505050505090806003016040518060a0016040529081600082018054610a7990612bfe565b80601f0160208091040260200160405190810160405280929190818152602001828054610aa590612bfe565b8015610af25780601f10610ac757610100808354040283529160200191610af2565b820191906000526020600020905b815481529060010190602001808311610ad557829003601f168201915b50505050508152602001600182018054610b0b90612bfe565b80601f0160208091040260200160405190810160405280929190818152602001828054610b3790612bfe565b8015610b845780601f10610b5957610100808354040283529160200191610b84565b820191906000526020600020905b815481529060010190602001808311610b6757829003601f168201915b50505050508152602001600282018054610b9d90612bfe565b80601f0160208091040260200160405190810160405280929190818152602001828054610bc990612bfe565b8015610c165780601f10610beb57610100808354040283529160200191610c16565b820191906000526020600020905b815481529060010190602001808311610bf957829003601f168201915b50505050508152602001600382018054610c2f90612bfe565b80601f0160208091040260200160405190810160405280929190818152602001828054610c5b90612bfe565b8015610ca85780601f10610c7d57610100808354040283529160200191610ca8565b820191906000526020600020905b815481529060010190602001808311610c8b57829003601f168201915b50505050508152602001600482018054610cc190612bfe565b80601f0160208091040260200160405190810160405280929190818152602001828054610ced90612bfe565b8015610d3a5780601f10610d0f57610100808354040283529160200191610d3a565b820191906000526020600020905b815481529060010190602001808311610d1d57829003601f168201915b50505050508152505090806008018054610d5390612bfe565b80601f0160208091040260200160405190810160405280929190818152602001828054610d7f90612bfe565b8015610dcc5780601f10610da157610100808354040283529160200191610dcc565b820191906000526020600020905b815481529060010190602001808311610daf57829003601f168201915b50505050509080600901549080600a01549080600d0154905087565b3373ffffffffffffffffffffffffffffffffffffffff16600080600460003373ffffffffffffffffffffffffffffffffffffffff1673ffffffffffffffffffffffffffffffffffffffff16815260200190815260200160002054815260200190815260200160002060050160009054906101000a900473ffffffffffffffffffffffffffffffffffffffff1673ffffffffffffffffffffffffffffffffffffffff161415610ecb576040517f08c379a0000000000000000000000000000000000000000000000000000000008152600401610ec290612615565b60405180910390fd5b6000600a60008154610edc90612c61565b919050819055905080600460003373ffffffffffffffffffffffffffffffffffffffff1673ffffffffffffffffffffffffffffffffffffffff1681526020019081526020016000208190555060006040518060a00160405280888152602001878152602001868152602001858152602001848152509050604051806101800160405280600a6000815480929190610f7290612c61565b9190505581526020018d81526020018c81526020018b81526020018a81526020013373ffffffffffffffffffffffffffffffffffffffff168152602001600067ffffffffffffffff811115610ff0577f4e487b7100000000000000000000000000000000000000000000000000000000600052604160045260246000fd5b60405190808252806020026020018201604052801561101e5781602001602082028036833780820191505090505b508152602001600067ffffffffffffffff811115611065577f4e487b7100000000000000000000000000000000000000000000000000000000600052604160045260246000fd5b6040519080825280602002602001820160405280156110935781602001602082028036833780820191505090505b50815260200160008152602001600460058111156110da577f4e487b7100000000000000000000000000000000000000000000000000000000600052602160045260246000fd5b8152602001896002811115611118577f4e487b7100000000000000000000000000000000000000000000000000000000600052602160045260246000fd5b815260200182815250600080848152602001908152602001600020600082015181600001556020820151816001019080519060200190611159929190611e7f565b506040820151816002019080519060200190611176929190611e7f565b5060608201518160030155608082015181600401908051906020019061119d929190611e7f565b5060a08201518160050160006101000a81548173ffffffffffffffffffffffffffffffffffffffff021916908373ffffffffffffffffffffffffffffffffffffffff16021790555060c0820151816006019080519060200190611201929190611f05565b5060e082015181600701908051906020019061121e929190611f05565b5061010082015181600801556101208201518160090160006101000a81548160ff0219169083600581111561127c577f4e487b7100000000000000000000000000000000000000000000000000000000600052602160045260246000fd5b02179055506101408201518160090160016101000a81548160ff021916908360028111156112d3577f4e487b7100000000000000000000000000000000000000000000000000000000600052602160045260246000fd5b021790555061016082015181600a0160008201518160000190805190602001906112fe929190611e7f565b50602082015181600101908051906020019061131b929190611e7f565b506040820151816002019080519060200190611338929190611e7f565b506060820151816003019080519060200190611355929190611e7f565b506080820151816004019080519060200190611372929190611e7f565b505050905050505050505050505050505050565b60006020528060005260406000206000915090508060000154908060010180546113af90612bfe565b80601f01602080910402602001604051908101604052809291908181526020018280546113db90612bfe565b80156114285780601f106113fd57610100808354040283529160200191611428565b820191906000526020600020905b81548152906001019060200180831161140b57829003601f168201915b50505050509080600201805461143d90612bfe565b80601f016020809104026020016040519081016040528092919081815260200182805461146990612bfe565b80156114b65780601f1061148b576101008083540402835291602001916114b6565b820191906000526020600020905b81548152906001019060200180831161149957829003601f168201915b5050505050908060030154908060040180546114d190612bfe565b80601f01602080910402602001604051908101604052809291908181526020018280546114fd90612bfe565b801561154a5780601f1061151f5761010080835404028352916020019161154a565b820191906000526020600020905b81548152906001019060200180831161152d57829003601f168201915b5050505050908060050160009054906101000a900473ffffffffffffffffffffffffffffffffffffffff16908060080154908060090160009054906101000a900460ff16908060090160019054906101000a900460ff169080600a016040518060a00160405290816000820180546115c190612bfe565b80601f01602080910402602001604051908101604052809291908181526020018280546115ed90612bfe565b801561163a5780601f1061160f5761010080835404028352916020019161163a565b820191906000526020600020905b81548152906001019060200180831161161d57829003601f168201915b5050505050815260200160018201805461165390612bfe565b80601f016020809104026020016040519081016040528092919081815260200182805461167f90612bfe565b80156116cc5780601f106116a1576101008083540402835291602001916116cc565b820191906000526020600020905b8154815290600101906020018083116116af57829003601f168201915b505050505081526020016002820180546116e590612bfe565b80601f016020809104026020016040519081016040528092919081815260200182805461171190612bfe565b801561175e5780601f106117335761010080835404028352916020019161175e565b820191906000526020600020905b81548152906001019060200180831161174157829003601f168201915b5050505050815260200160038201805461177790612bfe565b80601f01602080910402602001604051908101604052809291908181526020018280546117a390612bfe565b80156117f05780601f106117c5576101008083540402835291602001916117f0565b820191906000526020600020905b8154815290600101906020018083116117d357829003601f168201915b5050505050815260200160048201805461180990612bfe565b80601f016020809104026020016040519081016040528092919081815260200182805461183590612bfe565b80156118825780601f1061185757610100808354040283529160200191611882565b820191906000526020600020905b81548152906001019060200180831161186557829003601f168201915b50505050508152505090508a565b60086020528060005260406000206000915090505481565b60008260008060008381526020019081526020016000206000015414156118ce57600080fd5b60006005600085815260200190815260200160002090506000601e603c8060188560070154426118fe9190612ad1565b6119089190612a46565b6119129190612a77565b61191c9190612a77565b6119269190612a77565b90506000811161193557600080fd5b60008260020154905060008360040154905060008460050154905060008382600c6119609190612a77565b61196a9190612ad1565b600c6064856119799190612a46565b6119839190612a77565b600161198f91906129f0565b8561199a9190612a77565b1890508086600201546119ad9190612ad1565b86600201819055508097505050505050505092915050565b60028280516020810182018051848252602083016020850120818352809550505050505081815481106119f757600080fd5b90600052602060002001600091509150505481565b826000806000838152602001908152602001600020600001541415611a3057600080fd5b6000611a3c85856118a8565b9050828114611a4a57600080fd5b60006005600086815260200190815260200160002090503073ffffffffffffffffffffffffffffffffffffffff166108fc859081150290604051600060405180830381858888f19350505050158015611aa7573d6000803e3d6000fd5b508360016000836003015481526020019081526020016000206009016000828254611ad291906129f0565b92505081905550428160070181905550505050505050565b60096020528060005260406000206000915090505481565b6006602052806000526040600020600091509050806000015490806001015490806002015490806003018054611b3790612bfe565b80601f0160208091040260200160405190810160405280929190818152602001828054611b6390612bfe565b8015611bb05780601f10611b8557610100808354040283529160200191611bb0565b820191906000526020600020905b815481529060010190602001808311611b9357829003601f168201915b5050505050908060040154908060050160009054906101000a900460ff16908060060154905087565b60003373ffffffffffffffffffffffffffffffffffffffff16600080600460003373ffffffffffffffffffffffffffffffffffffffff1673ffffffffffffffffffffffffffffffffffffffff16815260200190815260200160002054815260200190815260200160002060050160009054906101000a900473ffffffffffffffffffffffffffffffffffffffff1673ffffffffffffffffffffffffffffffffffffffff1614905090565b6060816000806000838152602001908152602001600020600001541415611ca957600080fd5b600080848152602001908152602001600020600601805480602002602001604051908101604052809291908181526020018280548015611d0857602002820191906000526020600020905b815481526020019060010190808311611cf4575b5050505050915050919050565b60056020528060005260406000206000915090508060000154908060010154908060020154908060030154908060040154908060050154908060060154908060070154905088565b60046020528060005260406000206000915090505481565b816000806000838152602001908152602001600020600001541415611d9957600080fd5b82600660008481526020019081526020016000206001015414611dbb57600080fd5b600080600090505b600c54811015611e06578460066000838152602001908152602001600020600101541415611df357809150611e06565b8080611dfe90612c61565b915050611dc3565b506006600082815260200190815260200160002060008082016000905560018201600090556002820160009055600382016000611e439190611f52565b60048201600090556005820160006101000a81549060ff02191690556006820160009055600782016000611e779190611f92565b505050505050565b828054611e8b90612bfe565b90600052602060002090601f016020900481019282611ead5760008555611ef4565b82601f10611ec657805160ff1916838001178555611ef4565b82800160010185558215611ef4579182015b82811115611ef3578251825591602001919060010190611ed8565b5b509050611f019190611fb3565b5090565b828054828255906000526020600020908101928215611f41579160200282015b82811115611f40578251825591602001919060010190611f25565b5b509050611f4e9190611fb3565b5090565b508054611f5e90612bfe565b6000825580601f10611f705750611f8f565b601f016020900490600052602060002090810190611f8e9190611fb3565b5b50565b5080546000825590600052602060002090810190611fb09190611fb3565b50565b5b80821115611fcc576000816000905550600101611fb4565b5090565b6000611fe3611fde84612959565b612934565b905082815260208101848484011115611ffb57600080fd5b612006848285612bbc565b509392505050565b60008135905061201d81612e0b565b92915050565b60008135905061203281612e22565b92915050565b600082601f83011261204957600080fd5b8135612059848260208601611fd0565b91505092915050565b60008135905061207181612e32565b92915050565b60006020828403121561208957600080fd5b60006120978482850161200e565b91505092915050565b6000806000806000806000806000806101408b8d0312156120c057600080fd5b60008b013567ffffffffffffffff8111156120da57600080fd5b6120e68d828e01612038565b9a505060208b013567ffffffffffffffff81111561210357600080fd5b61210f8d828e01612038565b99505060406121208d828e01612062565b98505060608b013567ffffffffffffffff81111561213d57600080fd5b6121498d828e01612038565b975050608061215a8d828e01612023565b96505060a08b013567ffffffffffffffff81111561217757600080fd5b6121838d828e01612038565b95505060c08b013567ffffffffffffffff8111156121a057600080fd5b6121ac8d828e01612038565b94505060e08b013567ffffffffffffffff8111156121c957600080fd5b6121d58d828e01612038565b9350506101008b013567ffffffffffffffff8111156121f357600080fd5b6121ff8d828e01612038565b9250506101208b013567ffffffffffffffff81111561221d57600080fd5b6122298d828e01612038565b9150509295989b9194979a5092959850565b6000806040838503121561224e57600080fd5b600083013567ffffffffffffffff81111561226857600080fd5b61227485828601612038565b925050602061228585828601612062565b9150509250929050565b6000602082840312156122a157600080fd5b60006122af84828501612062565b91505092915050565b600080604083850312156122cb57600080fd5b60006122d985828601612062565b92505060206122ea85828601612062565b9150509250929050565b60008060006060848603121561230957600080fd5b600061231786828701612062565b935050602061232886828701612062565b925050604061233986828701612062565b9150509250925092565b600080600080600060a0868803121561235b57600080fd5b600061236988828901612062565b955050602061237a88828901612062565b945050604061238b88828901612062565b935050606086013567ffffffffffffffff8111156123a857600080fd5b6123b488828901612038565b92505060806123c588828901612062565b9150509295509295909350565b60006123de83836125ba565b60208301905092915050565b6123f381612b05565b82525050565b60006124048261299a565b61240e81856129bd565b93506124198361298a565b8060005b8381101561244a57815161243188826123d2565b975061243c836129b0565b92505060018101905061241d565b5085935050505092915050565b61246081612b17565b82525050565b61246f81612b86565b82525050565b61247e81612b98565b82525050565b61248d81612baa565b82525050565b600061249e826129a5565b6124a881856129ce565b93506124b8818560208601612bcb565b6124c181612d95565b840191505092915050565b60006124d7826129a5565b6124e181856129df565b93506124f1818560208601612bcb565b6124fa81612d95565b840191505092915050565b60006125126012836129df565b915061251d82612da6565b602082019050919050565b600060a08301600083015184820360008601526125458282612493565b9150506020830151848203602086015261255f8282612493565b915050604083015184820360408601526125798282612493565b915050606083015184820360608601526125938282612493565b915050608083015184820360808601526125ad8282612493565b9150508091505092915050565b6125c381612b7c565b82525050565b6125d281612b7c565b82525050565b600060208201905081810360008301526125f281846123f9565b905092915050565b600060208201905061260f6000830184612457565b92915050565b6000602082019050818103600083015261262e81612505565b9050919050565b600060208201905061264a60008301846125c9565b92915050565b600060a08201905061266560008301886125c9565b818103602083015261267781876124cc565b905061268660408301866123ea565b818103606083015261269881856124cc565b90506126a760808301846125c9565b9695505050505050565b6000610140820190506126c7600083018d6125c9565b81810360208301526126d9818c6124cc565b905081810360408301526126ed818b6124cc565b90506126fc606083018a6125c9565b818103608083015261270e81896124cc565b905061271d60a08301886123ea565b61272a60c08301876125c9565b61273760e0830186612484565b612745610100830185612466565b8181036101208301526127588184612528565b90509b9a5050505050505050505050565b600060e08201905061277e600083018a6125c9565b818103602083015261279081896124cc565b905081810360408301526127a48188612528565b905081810360608301526127b881876124cc565b90506127c760808301866125c9565b6127d460a08301856125c9565b6127e160c08301846125c9565b98975050505050505050565b600060e082019050612802600083018a6125c9565b61280f60208301896125c9565b61281c60408301886125c9565b818103606083015261282e81876124cc565b905061283d60808301866125c9565b61284a60a0830185612475565b61285760c08301846125c9565b98975050505050505050565b600060a08201905061287860008301886125c9565b61288560208301876125c9565b61289260408301866125c9565b61289f60608301856125c9565b6128ac6080830184612475565b9695505050505050565b6000610100820190506128cc600083018b6125c9565b6128d9602083018a6125c9565b6128e660408301896125c9565b6128f360608301886125c9565b61290060808301876125c9565b61290d60a08301866125c9565b61291a60c08301856125c9565b61292760e08301846125c9565b9998505050505050505050565b600061293e61294f565b905061294a8282612c30565b919050565b6000604051905090565b600067ffffffffffffffff82111561297457612973612d66565b5b61297d82612d95565b9050602081019050919050565b6000819050602082019050919050565b600081519050919050565b600081519050919050565b6000602082019050919050565b600082825260208201905092915050565b600082825260208201905092915050565b600082825260208201905092915050565b60006129fb82612b7c565b9150612a0683612b7c565b9250827fffffffffffffffffffffffffffffffffffffffffffffffffffffffffffffffff03821115612a3b57612a3a612caa565b5b828201905092915050565b6000612a5182612b7c565b9150612a5c83612b7c565b925082612a6c57612a6b612cd9565b5b828204905092915050565b6000612a8282612b7c565b9150612a8d83612b7c565b9250817fffffffffffffffffffffffffffffffffffffffffffffffffffffffffffffffff0483118215151615612ac657612ac5612caa565b5b828202905092915050565b6000612adc82612b7c565b9150612ae783612b7c565b925082821015612afa57612af9612caa565b5b828203905092915050565b6000612b1082612b5c565b9050919050565b60008115159050919050565b6000819050612b3182612dcf565b919050565b6000819050612b4482612de3565b919050565b6000819050612b5782612df7565b919050565b600073ffffffffffffffffffffffffffffffffffffffff82169050919050565b6000819050919050565b6000612b9182612b23565b9050919050565b6000612ba382612b36565b9050919050565b6000612bb582612b49565b9050919050565b82818337600083830152505050565b60005b83811015612be9578082015181840152602081019050612bce565b83811115612bf8576000848401525b50505050565b60006002820490506001821680612c1657607f821691505b60208210811415612c2a57612c29612d37565b5b50919050565b612c3982612d95565b810181811067ffffffffffffffff82111715612c5857612c57612d66565b5b80604052505050565b6000612c6c82612b7c565b91507fffffffffffffffffffffffffffffffffffffffffffffffffffffffffffffffff821415612c9f57612c9e612caa565b5b600182019050919050565b7f4e487b7100000000000000000000000000000000000000000000000000000000600052601160045260246000fd5b7f4e487b7100000000000000000000000000000000000000000000000000000000600052601260045260246000fd5b7f4e487b7100000000000000000000000000000000000000000000000000000000600052602160045260246000fd5b7f4e487b7100000000000000000000000000000000000000000000000000000000600052602260045260246000fd5b7f4e487b7100000000000000000000000000000000000000000000000000000000600052604160045260246000fd5b6000601f19601f8301169050919050565b7f416c726561647920526567697374657265640000000000000000000000000000600082015250565b60038110612de057612ddf612d08565b5b50565b60048110612df457612df3612d08565b5b50565b60068110612e0857612e07612d08565b5b50565b612e1481612b05565b8114612e1f57600080fd5b50565b60038110612e2f57600080fd5b50565b612e3b81612b7c565b8114612e4657600080fd5b5056fea264697066735822122034255d2407b57b0101b1a9acafc5c2793ea697e9a96f40154e26bdb4ac674ee164736f6c63430008040033",
  "immutableReferences": {},
  "source": "// SPDX-License-Identifier: MIT\npragma solidity ^0.8.1;\nimport \"./structs.sol\";\nimport \"./modifiers.sol\";\n\ncontract User is structs, modifiers {\n    function login() public view returns (bool) {\n        return (users[addressToUser[msg.sender]].walletAddress == msg.sender);\n    }\n\n    function addUser(\n        string memory name,\n        string memory aadhar,\n        uint256 mobno,\n        string memory fatherName,\n        Gender gender,\n        string memory _state,\n        string memory _district,\n        string memory _blockName,\n        string memory _panchyatName,\n        string memory _villageName\n    ) public {\n        require(\n            users[addressToUser[msg.sender]].walletAddress != msg.sender,\n            \"Already Registered\"\n        );\n        uint256 id = ++numUsers;\n        addressToUser[msg.sender] = id;\n\n        Location memory newlocation = Location({\n            state: _state,\n            district: _district,\n            blockName: _blockName,\n            panchyatName: _panchyatName,\n            villageName: _villageName\n        });\n\n        users[id] = User(\n            numUsers++,\n            name,\n            aadhar,\n            mobno,\n            fatherName,\n            msg.sender,\n            new uint256[](0),\n            new uint256[](0),\n            0, // SHG id is zero inttially as a placeholder for every user\n            UserType.NONE,\n            gender,\n            newlocation\n        );\n    }\n\n    // Request functions for user\n\n    function makeRequest(\n        uint256 _shgid,\n        uint256 _userid,\n        uint256 _amount,\n        string memory _description,\n        uint256 _loanTime\n    ) public {\n        uint256 requestId = ++numUserRequests;\n        userRequests[requestId] = UserRequest(\n            requestId,\n            _userid,\n            _amount,\n            _description,\n            _shgid,\n            RequestStatus.IN_PROCESS,\n            _loanTime,\n            new uint256[](0)\n        );\n        users[_userid].requests.push(requestId);\n    }\n\n    function deleteRequest(uint256 _userid, uint256 _requestid)\n        public\n        onlyUser(_userid)\n    {\n        require(userRequests[_requestid].userId == _userid);\n\n        uint256 index;\n        for (uint256 i = 0; i < numUserRequests; i++) {\n            if (userRequests[i].userId == _userid) {\n                index = i;\n                break;\n            }\n        }\n        delete userRequests[index];\n    }\n\n    // Repay functions for user\n\n    function payEMI(\n        uint256 _userid,\n        uint256 _loanid,\n        uint256 _amount\n    ) public payable onlyUser(_userid) {\n        uint256 amount = getUserEMI(_userid, _loanid);\n        require(amount == _amount);\n        Loan storage loan = loans[_loanid];\n        payable(address(this)).transfer(_amount);\n        shgs[loan.lendeeId].currentBalance += _amount;\n        loan.lastEMI = block.timestamp;\n    }\n\n    // fetch functions\n\n    function getUserEMI(uint256 userid, uint256 loanid)\n        public\n        onlyUser(userid)\n        returns (uint256)\n    {\n        Loan storage loan = loans[loanid];\n        uint256 months = ((block.timestamp - loan.lastEMI) / 24) * 60 * 60 * 30;\n\n        require(months > 0);\n        uint256 P = loan.amount;\n        uint256 r = loan.intrest;\n        uint256 t = loan.loanTime;\n        uint256 emi = (P * (1 + ((r / 100) * 12))) ^ ((12 * t) - P);\n\n        loan.amount = loan.amount - emi;\n        return emi;\n    }\n\n    function getAllLoans(uint256 userid)\n        public\n        view\n        onlyUser(userid)\n        returns (uint256[] memory)\n    {\n        return users[userid].loansTaken;\n    }\n\n    function getUserLoanAmount(uint256 _userid) public view returns (uint256) {\n        uint256 amount = 0;\n        uint256[] memory loans = users[_userid].loansTaken;\n        for (uint256 i = 0; i < loans.length; i++) {\n            amount += loans[i];\n        }\n        return amount;\n    }\n\n    // function flagDefaulters() public {}\n}\n",
  "sourcePath": "/home/sdas/code/yogdaan-contracts/contracts/lib/User.sol",
  "compiler": {
    "name": "solc",
    "version": "0.8.4+commit.c7e474f2.Emscripten.clang"
  },
  "schemaVersion": "3.4.9",
  "updatedAt": "2022-08-25T19:03:09.027Z",
  "devdoc": {
    "kind": "dev",
    "methods": {},
    "version": 1
  },
  "userdoc": {
    "kind": "user",
    "methods": {},
    "version": 1
  }
}