{
  "contractName": "User",
  "abi": [
    {
      "inputs": [
        {
          "internalType": "address",
          "name": "",
          "type": "address"
        }
      ],
      "name": "addressToBankid",
      "outputs": [
        {
          "internalType": "uint256",
          "name": "",
          "type": "uint256"
        }
      ],
      "stateMutability": "view",
      "type": "function"
    },
    {
      "inputs": [
        {
          "internalType": "address",
          "name": "",
          "type": "address"
        }
      ],
      "name": "addressToSHGid",
      "outputs": [
        {
          "internalType": "uint256",
          "name": "",
          "type": "uint256"
        }
      ],
      "stateMutability": "view",
      "type": "function"
    },
    {
      "inputs": [
        {
          "internalType": "address",
          "name": "",
          "type": "address"
        }
      ],
      "name": "addressToUser",
      "outputs": [
        {
          "internalType": "uint256",
          "name": "",
          "type": "uint256"
        }
      ],
      "stateMutability": "view",
      "type": "function"
    },
    {
      "inputs": [
        {
          "internalType": "uint256",
          "name": "",
          "type": "uint256"
        }
      ],
      "name": "banks",
      "outputs": [
        {
          "internalType": "uint256",
          "name": "id",
          "type": "uint256"
        },
        {
          "internalType": "string",
          "name": "name",
          "type": "string"
        },
        {
          "internalType": "address",
          "name": "walletAddress",
          "type": "address"
        },
        {
          "internalType": "string",
          "name": "code",
          "type": "string"
        },
        {
          "internalType": "uint256",
          "name": "intrestRate",
          "type": "uint256"
        }
      ],
      "stateMutability": "view",
      "type": "function"
    },
    {
      "inputs": [
        {
          "internalType": "string",
          "name": "",
          "type": "string"
        },
        {
          "internalType": "uint256",
          "name": "",
          "type": "uint256"
        }
      ],
      "name": "districtToSHGs",
      "outputs": [
        {
          "internalType": "uint256",
          "name": "",
          "type": "uint256"
        }
      ],
      "stateMutability": "view",
      "type": "function"
    },
    {
      "inputs": [
        {
          "internalType": "uint256",
          "name": "",
          "type": "uint256"
        }
      ],
      "name": "loans",
      "outputs": [
        {
          "internalType": "uint256",
          "name": "loanId",
          "type": "uint256"
        },
        {
          "internalType": "uint256",
          "name": "lenderId",
          "type": "uint256"
        },
        {
          "internalType": "uint256",
          "name": "amount",
          "type": "uint256"
        },
        {
          "internalType": "uint256",
          "name": "lendeeId",
          "type": "uint256"
        },
        {
          "internalType": "uint256",
          "name": "intrest",
          "type": "uint256"
        },
        {
          "internalType": "uint256",
          "name": "loanTime",
          "type": "uint256"
        },
        {
          "internalType": "uint256",
          "name": "date",
          "type": "uint256"
        },
        {
          "internalType": "uint256",
          "name": "lastEMI",
          "type": "uint256"
        }
      ],
      "stateMutability": "view",
      "type": "function"
    },
    {
      "inputs": [
        {
          "internalType": "uint256",
          "name": "",
          "type": "uint256"
        }
      ],
      "name": "shgRequests",
      "outputs": [
        {
          "internalType": "uint256",
          "name": "requestid",
          "type": "uint256"
        },
        {
          "internalType": "uint256",
          "name": "shgid",
          "type": "uint256"
        },
        {
          "internalType": "uint256",
          "name": "amount",
          "type": "uint256"
        },
        {
          "internalType": "uint256",
          "name": "loanTime",
          "type": "uint256"
        },
        {
          "internalType": "enum structs.RequestStatus",
          "name": "status",
          "type": "uint8"
        }
      ],
      "stateMutability": "view",
      "type": "function"
    },
    {
      "inputs": [
        {
          "internalType": "uint256",
          "name": "",
          "type": "uint256"
        },
        {
          "internalType": "uint256",
          "name": "",
          "type": "uint256"
        }
      ],
      "name": "shgToRequests",
      "outputs": [
        {
          "internalType": "uint256",
          "name": "",
          "type": "uint256"
        }
      ],
      "stateMutability": "view",
      "type": "function"
    },
    {
      "inputs": [
        {
          "internalType": "uint256",
          "name": "",
          "type": "uint256"
        }
      ],
      "name": "shgs",
      "outputs": [
        {
          "internalType": "uint256",
          "name": "id",
          "type": "uint256"
        },
        {
          "internalType": "string",
          "name": "name",
          "type": "string"
        },
        {
          "components": [
            {
              "internalType": "string",
              "name": "state",
              "type": "string"
            },
            {
              "internalType": "string",
              "name": "district",
              "type": "string"
            },
            {
              "internalType": "string",
              "name": "blockName",
              "type": "string"
            },
            {
              "internalType": "string",
              "name": "panchyatName",
              "type": "string"
            },
            {
              "internalType": "string",
              "name": "villageName",
              "type": "string"
            }
          ],
          "internalType": "struct structs.Location",
          "name": "location",
          "type": "tuple"
        },
        {
          "internalType": "string",
          "name": "dateOfFormation",
          "type": "string"
        },
        {
          "internalType": "uint256",
          "name": "currentBalance",
          "type": "uint256"
        },
        {
          "internalType": "uint256",
          "name": "owedBalance",
          "type": "uint256"
        },
        {
          "internalType": "uint256",
          "name": "baseIntrest",
          "type": "uint256"
        }
      ],
      "stateMutability": "view",
      "type": "function"
    },
    {
      "inputs": [
        {
          "internalType": "uint256",
          "name": "",
          "type": "uint256"
        }
      ],
      "name": "userRequests",
      "outputs": [
        {
          "internalType": "uint256",
          "name": "requestId",
          "type": "uint256"
        },
        {
          "internalType": "uint256",
          "name": "userId",
          "type": "uint256"
        },
        {
          "internalType": "uint256",
          "name": "amount",
          "type": "uint256"
        },
        {
          "internalType": "string",
          "name": "description",
          "type": "string"
        },
        {
          "internalType": "uint256",
          "name": "SHGId",
          "type": "uint256"
        },
        {
          "internalType": "enum structs.RequestStatus",
          "name": "status",
          "type": "uint8"
        },
        {
          "internalType": "uint256",
          "name": "loanTime",
          "type": "uint256"
        }
      ],
      "stateMutability": "view",
      "type": "function"
    },
    {
      "inputs": [
        {
          "internalType": "uint256",
          "name": "",
          "type": "uint256"
        },
        {
          "internalType": "uint256",
          "name": "",
          "type": "uint256"
        }
      ],
      "name": "userToRequests",
      "outputs": [
        {
          "internalType": "uint256",
          "name": "",
          "type": "uint256"
        }
      ],
      "stateMutability": "view",
      "type": "function"
    },
    {
      "inputs": [
        {
          "internalType": "uint256",
          "name": "",
          "type": "uint256"
        }
      ],
      "name": "users",
      "outputs": [
        {
          "internalType": "uint256",
          "name": "id",
          "type": "uint256"
        },
        {
          "internalType": "string",
          "name": "name",
          "type": "string"
        },
        {
          "internalType": "string",
          "name": "aadhar",
          "type": "string"
        },
        {
          "internalType": "uint256",
          "name": "mobno",
          "type": "uint256"
        },
        {
          "internalType": "string",
          "name": "fatherName",
          "type": "string"
        },
        {
          "internalType": "address",
          "name": "walletAddress",
          "type": "address"
        },
        {
          "internalType": "uint256",
          "name": "shgid",
          "type": "uint256"
        },
        {
          "internalType": "enum structs.UserType",
          "name": "userType",
          "type": "uint8"
        },
        {
          "internalType": "enum structs.Gender",
          "name": "gender",
          "type": "uint8"
        },
        {
          "components": [
            {
              "internalType": "string",
              "name": "state",
              "type": "string"
            },
            {
              "internalType": "string",
              "name": "district",
              "type": "string"
            },
            {
              "internalType": "string",
              "name": "blockName",
              "type": "string"
            },
            {
              "internalType": "string",
              "name": "panchyatName",
              "type": "string"
            },
            {
              "internalType": "string",
              "name": "villageName",
              "type": "string"
            }
          ],
          "internalType": "struct structs.Location",
          "name": "location",
          "type": "tuple"
        }
      ],
      "stateMutability": "view",
      "type": "function"
    },
    {
      "inputs": [],
      "name": "login",
      "outputs": [
        {
          "internalType": "bool",
          "name": "",
          "type": "bool"
        }
      ],
      "stateMutability": "view",
      "type": "function"
    },
    {
      "inputs": [
        {
          "internalType": "string",
          "name": "name",
          "type": "string"
        },
        {
          "internalType": "string",
          "name": "aadhar",
          "type": "string"
        },
        {
          "internalType": "uint256",
          "name": "mobno",
          "type": "uint256"
        },
        {
          "internalType": "string",
          "name": "fatherName",
          "type": "string"
        },
        {
          "internalType": "enum structs.Gender",
          "name": "gender",
          "type": "uint8"
        },
        {
          "internalType": "string",
          "name": "_state",
          "type": "string"
        },
        {
          "internalType": "string",
          "name": "_district",
          "type": "string"
        },
        {
          "internalType": "string",
          "name": "_blockName",
          "type": "string"
        },
        {
          "internalType": "string",
          "name": "_panchyatName",
          "type": "string"
        },
        {
          "internalType": "string",
          "name": "_villageName",
          "type": "string"
        }
      ],
      "name": "addUser",
      "outputs": [],
      "stateMutability": "nonpayable",
      "type": "function"
    },
    {
      "inputs": [
        {
          "internalType": "uint256",
          "name": "_shgid",
          "type": "uint256"
        },
        {
          "internalType": "uint256",
          "name": "_userid",
          "type": "uint256"
        },
        {
          "internalType": "uint256",
          "name": "_amount",
          "type": "uint256"
        },
        {
          "internalType": "string",
          "name": "_description",
          "type": "string"
        },
        {
          "internalType": "uint256",
          "name": "_loanTime",
          "type": "uint256"
        }
      ],
      "name": "makeRequest",
      "outputs": [],
      "stateMutability": "nonpayable",
      "type": "function"
    },
    {
      "inputs": [
        {
          "internalType": "uint256",
          "name": "_userid",
          "type": "uint256"
        },
        {
          "internalType": "uint256",
          "name": "_requestid",
          "type": "uint256"
        }
      ],
      "name": "deleteRequest",
      "outputs": [],
      "stateMutability": "nonpayable",
      "type": "function"
    },
    {
      "inputs": [
        {
          "internalType": "uint256",
          "name": "_userid",
          "type": "uint256"
        },
        {
          "internalType": "uint256",
          "name": "_loanid",
          "type": "uint256"
        },
        {
          "internalType": "uint256",
          "name": "_amount",
          "type": "uint256"
        }
      ],
      "name": "payEMI",
      "outputs": [],
      "stateMutability": "payable",
      "type": "function"
    },
    {
      "inputs": [],
      "name": "getNumUsers",
      "outputs": [
        {
          "internalType": "uint256",
          "name": "",
          "type": "uint256"
        }
      ],
      "stateMutability": "view",
      "type": "function"
    },
    {
      "inputs": [
        {
          "internalType": "uint256",
          "name": "_userid",
          "type": "uint256"
        }
      ],
      "name": "getUserRequest",
      "outputs": [
        {
          "internalType": "uint256[]",
          "name": "",
          "type": "uint256[]"
        }
      ],
      "stateMutability": "nonpayable",
      "type": "function"
    },
    {
      "inputs": [
        {
          "internalType": "uint256",
          "name": "userid",
          "type": "uint256"
        },
        {
          "internalType": "uint256",
          "name": "loanid",
          "type": "uint256"
        }
      ],
      "name": "getUserEMI",
      "outputs": [
        {
          "internalType": "uint256",
          "name": "",
          "type": "uint256"
        }
      ],
      "stateMutability": "nonpayable",
      "type": "function"
    },
    {
      "inputs": [
        {
          "internalType": "uint256",
          "name": "userid",
          "type": "uint256"
        }
      ],
      "name": "getAllLoans",
      "outputs": [
        {
          "internalType": "uint256[]",
          "name": "",
          "type": "uint256[]"
        }
      ],
      "stateMutability": "view",
      "type": "function"
    },
    {
      "inputs": [
        {
          "internalType": "uint256",
          "name": "_userid",
          "type": "uint256"
        }
      ],
      "name": "getUserLoanAmount",
      "outputs": [
        {
          "internalType": "uint256",
          "name": "",
          "type": "uint256"
        }
      ],
      "stateMutability": "view",
      "type": "function"
    }
  ],
  "bytecode": "0x608060405234801561001057600080fd5b506130d3806100206000396000f3fe6080604052600436106101345760003560e01c80633cec4272116100ab578063b34e97e81161006f578063b34e97e8146104cb578063cfcb4b2f146104f6578063e1ec3c6814610533578063edf5388614610577578063f61074ff146105b4578063f736ae43146105f157610134565b80633cec4272146103c757806342f5f8151461040457806361c91b701461042057806365f88c0d1461045d578063941696561461048857610134565b8063257a170b116100fd578063257a170b1461025a57806326271cf21461029b5780632e131046146102de578063365b98b2146103075780633ae0058f1461034d5780633c5657571461038a57610134565b806285ae2b146101395780630227f4351461017a578063089511f7146101a35780630c1c7883146101e05780631d3ff78a1461021d575b600080fd5b34801561014557600080fd5b50610160600480360381019061015b91906124e3565b61061a565b6040516101719594939291906128a4565b60405180910390f35b34801561018657600080fd5b506101a1600480360381019061019c9190612597565b610780565b005b3480156101af57600080fd5b506101ca60048036038101906101c591906124e3565b610996565b6040516101d79190612889565b60405180910390f35b3480156101ec57600080fd5b506102076004803603810190610202919061250c565b610a7d565b6040516102149190612889565b60405180910390f35b34801561022957600080fd5b50610244600480360381019061023f91906124e3565b610aae565b604051610251919061282c565b60405180910390f35b34801561026657600080fd5b50610281600480360381019061027c91906124e3565b610b93565b604051610292959493929190612ab7565b60405180910390f35b3480156102a757600080fd5b506102c260048036038101906102bd91906124e3565b610bd6565b6040516102d597969594939291906129bd565b60405180910390f35b3480156102ea57600080fd5b50610305600480360381019061030091906122f4565b61100c565b005b34801561031357600080fd5b5061032e600480360381019061032991906124e3565b6115aa565b6040516103449a99989796959493929190612905565b60405180910390f35b34801561035957600080fd5b50610374600480360381019061036f91906122cb565b611ab4565b6040516103819190612889565b60405180910390f35b34801561039657600080fd5b506103b160048036038101906103ac919061250c565b611acc565b6040516103be9190612889565b60405180910390f35b3480156103d357600080fd5b506103ee60048036038101906103e9919061248f565b611bde565b6040516103fb9190612889565b60405180910390f35b61041e60048036038101906104199190612548565b611c25565b005b34801561042c57600080fd5b50610447600480360381019061044291906122cb565b611d03565b6040516104549190612889565b60405180910390f35b34801561046957600080fd5b50610472611d1b565b60405161047f9190612889565b60405180910390f35b34801561049457600080fd5b506104af60048036038101906104aa91906124e3565b611d25565b6040516104c29796959493929190612a41565b60405180910390f35b3480156104d757600080fd5b506104e0611dfc565b6040516104ed919061284e565b60405180910390f35b34801561050257600080fd5b5061051d600480360381019061051891906124e3565b611ea6565b60405161052a919061282c565b60405180910390f35b34801561053f57600080fd5b5061055a600480360381019061055591906124e3565b611f38565b60405161056e989796959493929190612b0a565b60405180910390f35b34801561058357600080fd5b5061059e600480360381019061059991906122cb565b611f80565b6040516105ab9190612889565b60405180910390f35b3480156105c057600080fd5b506105db60048036038101906105d6919061250c565b611f98565b6040516105e89190612889565b60405180910390f35b3480156105fd57600080fd5b506106186004803603810190610613919061250c565b611fc9565b005b600360205280600052604060002060009150905080600001549080600101805461064390612e52565b80601f016020809104026020016040519081016040528092919081815260200182805461066f90612e52565b80156106bc5780601f10610691576101008083540402835291602001916106bc565b820191906000526020600020905b81548152906001019060200180831161069f57829003601f168201915b5050505050908060020160009054906101000a900473ffffffffffffffffffffffffffffffffffffffff16908060030180546106f790612e52565b80601f016020809104026020016040519081016040528092919081815260200182805461072390612e52565b80156107705780601f1061074557610100808354040283529160200191610770565b820191906000526020600020905b81548152906001019060200180831161075357829003601f168201915b5050505050908060040154905085565b6000600e6000815461079190612eb5565b91905081905590506040518061010001604052808281526020018681526020018581526020018481526020018781526020016003808111156107fc577f4e487b7100000000000000000000000000000000000000000000000000000000600052602160045260246000fd5b8152602001838152602001600067ffffffffffffffff811115610848577f4e487b7100000000000000000000000000000000000000000000000000000000600052604160045260246000fd5b6040519080825280602002602001820160405280156108765781602001602082028036833780820191505090505b508152506006600083815260200190815260200160002060008201518160000155602082015181600101556040820151816002015560608201518160030190805190602001906108c79291906120d3565b506080820151816004015560a08201518160050160006101000a81548160ff02191690836003811115610923577f4e487b7100000000000000000000000000000000000000000000000000000000600052602160045260246000fd5b021790555060c0820151816006015560e082015181600701908051906020019061094e929190612159565b50905050600080868152602001908152602001600020600701819080600181540180825580915050600190039060005260206000200160009091909190915055505050505050565b6000806000905060008060008581526020019081526020016000206006018054806020026020016040519081016040528092919081815260200182805480156109fe57602002820191906000526020600020905b8154815260200190600101908083116109ea575b5050505050905060005b8151811015610a7257818181518110610a4a577f4e487b7100000000000000000000000000000000000000000000000000000000600052603260045260246000fd5b602002602001015183610a5d9190612c44565b92508080610a6a90612eb5565b915050610a08565b508192505050919050565b600a6020528160005260406000208181548110610a9957600080fd5b90600052602060002001600091509150505481565b606060005b600e54811015610b29578260066000838152602001908152602001600020600101541415610b1657600a60008481526020019081526020016000208190806001815401808255809150506001900390600052602060002001600090919091909150555b8080610b2190612eb5565b915050610ab3565b50600a6000838152602001908152602001600020805480602002602001604051908101604052809291908181526020018280548015610b8757602002820191906000526020600020905b815481526020019060010190808311610b73575b50505050509050919050565b60076020528060005260406000206000915090508060000154908060010154908060020154908060030154908060040160009054906101000a900460ff16905085565b6001602052806000526040600020600091509050806000015490806002018054610bff90612e52565b80601f0160208091040260200160405190810160405280929190818152602001828054610c2b90612e52565b8015610c785780601f10610c4d57610100808354040283529160200191610c78565b820191906000526020600020905b815481529060010190602001808311610c5b57829003601f168201915b505050505090806003016040518060a0016040529081600082018054610c9d90612e52565b80601f0160208091040260200160405190810160405280929190818152602001828054610cc990612e52565b8015610d165780601f10610ceb57610100808354040283529160200191610d16565b820191906000526020600020905b815481529060010190602001808311610cf957829003601f168201915b50505050508152602001600182018054610d2f90612e52565b80601f0160208091040260200160405190810160405280929190818152602001828054610d5b90612e52565b8015610da85780601f10610d7d57610100808354040283529160200191610da8565b820191906000526020600020905b815481529060010190602001808311610d8b57829003601f168201915b50505050508152602001600282018054610dc190612e52565b80601f0160208091040260200160405190810160405280929190818152602001828054610ded90612e52565b8015610e3a5780601f10610e0f57610100808354040283529160200191610e3a565b820191906000526020600020905b815481529060010190602001808311610e1d57829003601f168201915b50505050508152602001600382018054610e5390612e52565b80601f0160208091040260200160405190810160405280929190818152602001828054610e7f90612e52565b8015610ecc5780601f10610ea157610100808354040283529160200191610ecc565b820191906000526020600020905b815481529060010190602001808311610eaf57829003601f168201915b50505050508152602001600482018054610ee590612e52565b80601f0160208091040260200160405190810160405280929190818152602001828054610f1190612e52565b8015610f5e5780601f10610f3357610100808354040283529160200191610f5e565b820191906000526020600020905b815481529060010190602001808311610f4157829003601f168201915b50505050508152505090806008018054610f7790612e52565b80601f0160208091040260200160405190810160405280929190818152602001828054610fa390612e52565b8015610ff05780601f10610fc557610100808354040283529160200191610ff0565b820191906000526020600020905b815481529060010190602001808311610fd357829003601f168201915b50505050509080600901549080600a01549080600d0154905087565b3373ffffffffffffffffffffffffffffffffffffffff16600080600460003373ffffffffffffffffffffffffffffffffffffffff1673ffffffffffffffffffffffffffffffffffffffff16815260200190815260200160002054815260200190815260200160002060050160009054906101000a900473ffffffffffffffffffffffffffffffffffffffff1673ffffffffffffffffffffffffffffffffffffffff1614156110ef576040517f08c379a00000000000000000000000000000000000000000000000000000000081526004016110e690612869565b60405180910390fd5b6000600c6000815461110090612eb5565b919050819055905080600460003373ffffffffffffffffffffffffffffffffffffffff1673ffffffffffffffffffffffffffffffffffffffff1681526020019081526020016000208190555060006040518060a00160405280888152602001878152602001868152602001858152602001848152509050604051806101800160405280600c600081548092919061119690612eb5565b9190505581526020018d81526020018c81526020018b81526020018a81526020013373ffffffffffffffffffffffffffffffffffffffff168152602001600067ffffffffffffffff811115611214577f4e487b7100000000000000000000000000000000000000000000000000000000600052604160045260246000fd5b6040519080825280602002602001820160405280156112425781602001602082028036833780820191505090505b508152602001600067ffffffffffffffff811115611289577f4e487b7100000000000000000000000000000000000000000000000000000000600052604160045260246000fd5b6040519080825280602002602001820160405280156112b75781602001602082028036833780820191505090505b50815260200160008152602001600460058111156112fe577f4e487b7100000000000000000000000000000000000000000000000000000000600052602160045260246000fd5b815260200189600281111561133c577f4e487b7100000000000000000000000000000000000000000000000000000000600052602160045260246000fd5b81526020018281525060008084815260200190815260200160002060008201518160000155602082015181600101908051906020019061137d9291906120d3565b50604082015181600201908051906020019061139a9291906120d3565b506060820151816003015560808201518160040190805190602001906113c19291906120d3565b5060a08201518160050160006101000a81548173ffffffffffffffffffffffffffffffffffffffff021916908373ffffffffffffffffffffffffffffffffffffffff16021790555060c0820151816006019080519060200190611425929190612159565b5060e0820151816007019080519060200190611442929190612159565b5061010082015181600801556101208201518160090160006101000a81548160ff021916908360058111156114a0577f4e487b7100000000000000000000000000000000000000000000000000000000600052602160045260246000fd5b02179055506101408201518160090160016101000a81548160ff021916908360028111156114f7577f4e487b7100000000000000000000000000000000000000000000000000000000600052602160045260246000fd5b021790555061016082015181600a0160008201518160000190805190602001906115229291906120d3565b50602082015181600101908051906020019061153f9291906120d3565b50604082015181600201908051906020019061155c9291906120d3565b5060608201518160030190805190602001906115799291906120d3565b5060808201518160040190805190602001906115969291906120d3565b505050905050505050505050505050505050565b60006020528060005260406000206000915090508060000154908060010180546115d390612e52565b80601f01602080910402602001604051908101604052809291908181526020018280546115ff90612e52565b801561164c5780601f106116215761010080835404028352916020019161164c565b820191906000526020600020905b81548152906001019060200180831161162f57829003601f168201915b50505050509080600201805461166190612e52565b80601f016020809104026020016040519081016040528092919081815260200182805461168d90612e52565b80156116da5780601f106116af576101008083540402835291602001916116da565b820191906000526020600020905b8154815290600101906020018083116116bd57829003601f168201915b5050505050908060030154908060040180546116f590612e52565b80601f016020809104026020016040519081016040528092919081815260200182805461172190612e52565b801561176e5780601f106117435761010080835404028352916020019161176e565b820191906000526020600020905b81548152906001019060200180831161175157829003601f168201915b5050505050908060050160009054906101000a900473ffffffffffffffffffffffffffffffffffffffff16908060080154908060090160009054906101000a900460ff16908060090160019054906101000a900460ff169080600a016040518060a00160405290816000820180546117e590612e52565b80601f016020809104026020016040519081016040528092919081815260200182805461181190612e52565b801561185e5780601f106118335761010080835404028352916020019161185e565b820191906000526020600020905b81548152906001019060200180831161184157829003601f168201915b5050505050815260200160018201805461187790612e52565b80601f01602080910402602001604051908101604052809291908181526020018280546118a390612e52565b80156118f05780601f106118c5576101008083540402835291602001916118f0565b820191906000526020600020905b8154815290600101906020018083116118d357829003601f168201915b5050505050815260200160028201805461190990612e52565b80601f016020809104026020016040519081016040528092919081815260200182805461193590612e52565b80156119825780601f1061195757610100808354040283529160200191611982565b820191906000526020600020905b81548152906001019060200180831161196557829003601f168201915b5050505050815260200160038201805461199b90612e52565b80601f01602080910402602001604051908101604052809291908181526020018280546119c790612e52565b8015611a145780601f106119e957610100808354040283529160200191611a14565b820191906000526020600020905b8154815290600101906020018083116119f757829003601f168201915b50505050508152602001600482018054611a2d90612e52565b80601f0160208091040260200160405190810160405280929190818152602001828054611a5990612e52565b8015611aa65780601f10611a7b57610100808354040283529160200191611aa6565b820191906000526020600020905b815481529060010190602001808311611a8957829003601f168201915b50505050508152505090508a565b60086020528060005260406000206000915090505481565b6000826000806000838152602001908152602001600020600001541415611af257600080fd5b60006005600085815260200190815260200160002090506000601e603c806018856007015442611b229190612d25565b611b2c9190612c9a565b611b369190612ccb565b611b409190612ccb565b611b4a9190612ccb565b905060008111611b5957600080fd5b600082600201549050600083600401549050600084600501549050600081600c611b839190612ccb565b600c606485611b929190612c9a565b611b9c9190612ccb565b6001611ba89190612c44565b85611bb39190612ccb565b189050808660020154611bc69190612d25565b86600201819055508097505050505050505092915050565b6002828051602081018201805184825260208301602085012081835280955050505050508181548110611c1057600080fd5b90600052602060002001600091509150505481565b826000806000838152602001908152602001600020600001541415611c4957600080fd5b6000611c558585611acc565b9050828114611c6357600080fd5b60006005600086815260200190815260200160002090503073ffffffffffffffffffffffffffffffffffffffff166108fc859081150290604051600060405180830381858888f19350505050158015611cc0573d6000803e3d6000fd5b508360016000836003015481526020019081526020016000206009016000828254611ceb9190612c44565b92505081905550428160070181905550505050505050565b60096020528060005260406000206000915090505481565b6000600c54905090565b6006602052806000526040600020600091509050806000015490806001015490806002015490806003018054611d5a90612e52565b80601f0160208091040260200160405190810160405280929190818152602001828054611d8690612e52565b8015611dd35780601f10611da857610100808354040283529160200191611dd3565b820191906000526020600020905b815481529060010190602001808311611db657829003601f168201915b5050505050908060040154908060050160009054906101000a900460ff16908060060154905087565b60003373ffffffffffffffffffffffffffffffffffffffff16600080600460003373ffffffffffffffffffffffffffffffffffffffff1673ffffffffffffffffffffffffffffffffffffffff16815260200190815260200160002054815260200190815260200160002060050160009054906101000a900473ffffffffffffffffffffffffffffffffffffffff1673ffffffffffffffffffffffffffffffffffffffff1614905090565b6060816000806000838152602001908152602001600020600001541415611ecc57600080fd5b600080848152602001908152602001600020600601805480602002602001604051908101604052809291908181526020018280548015611f2b57602002820191906000526020600020905b815481526020019060010190808311611f17575b5050505050915050919050565b60056020528060005260406000206000915090508060000154908060010154908060020154908060030154908060040154908060050154908060060154908060070154905088565b60046020528060005260406000206000915090505481565b600b6020528160005260406000208181548110611fb457600080fd5b90600052602060002001600091509150505481565b816000806000838152602001908152602001600020600001541415611fed57600080fd5b8260066000848152602001908152602001600020600101541461200f57600080fd5b600080600090505b600e5481101561205a5784600660008381526020019081526020016000206001015414156120475780915061205a565b808061205290612eb5565b915050612017565b50600660008281526020019081526020016000206000808201600090556001820160009055600282016000905560038201600061209791906121a6565b60048201600090556005820160006101000a81549060ff021916905560068201600090556007820160006120cb91906121e6565b505050505050565b8280546120df90612e52565b90600052602060002090601f0160209004810192826121015760008555612148565b82601f1061211a57805160ff1916838001178555612148565b82800160010185558215612148579182015b8281111561214757825182559160200191906001019061212c565b5b5090506121559190612207565b5090565b828054828255906000526020600020908101928215612195579160200282015b82811115612194578251825591602001919060010190612179565b5b5090506121a29190612207565b5090565b5080546121b290612e52565b6000825580601f106121c457506121e3565b601f0160209004906000526020600020908101906121e29190612207565b5b50565b50805460008255906000526020600020908101906122049190612207565b50565b5b80821115612220576000816000905550600101612208565b5090565b600061223761223284612bad565b612b88565b90508281526020810184848401111561224f57600080fd5b61225a848285612e10565b509392505050565b6000813590506122718161305f565b92915050565b60008135905061228681613076565b92915050565b600082601f83011261229d57600080fd5b81356122ad848260208601612224565b91505092915050565b6000813590506122c581613086565b92915050565b6000602082840312156122dd57600080fd5b60006122eb84828501612262565b91505092915050565b6000806000806000806000806000806101408b8d03121561231457600080fd5b60008b013567ffffffffffffffff81111561232e57600080fd5b61233a8d828e0161228c565b9a505060208b013567ffffffffffffffff81111561235757600080fd5b6123638d828e0161228c565b99505060406123748d828e016122b6565b98505060608b013567ffffffffffffffff81111561239157600080fd5b61239d8d828e0161228c565b97505060806123ae8d828e01612277565b96505060a08b013567ffffffffffffffff8111156123cb57600080fd5b6123d78d828e0161228c565b95505060c08b013567ffffffffffffffff8111156123f457600080fd5b6124008d828e0161228c565b94505060e08b013567ffffffffffffffff81111561241d57600080fd5b6124298d828e0161228c565b9350506101008b013567ffffffffffffffff81111561244757600080fd5b6124538d828e0161228c565b9250506101208b013567ffffffffffffffff81111561247157600080fd5b61247d8d828e0161228c565b9150509295989b9194979a5092959850565b600080604083850312156124a257600080fd5b600083013567ffffffffffffffff8111156124bc57600080fd5b6124c88582860161228c565b92505060206124d9858286016122b6565b9150509250929050565b6000602082840312156124f557600080fd5b6000612503848285016122b6565b91505092915050565b6000806040838503121561251f57600080fd5b600061252d858286016122b6565b925050602061253e858286016122b6565b9150509250929050565b60008060006060848603121561255d57600080fd5b600061256b868287016122b6565b935050602061257c868287016122b6565b925050604061258d868287016122b6565b9150509250925092565b600080600080600060a086880312156125af57600080fd5b60006125bd888289016122b6565b95505060206125ce888289016122b6565b94505060406125df888289016122b6565b935050606086013567ffffffffffffffff8111156125fc57600080fd5b6126088882890161228c565b9250506080612619888289016122b6565b9150509295509295909350565b6000612632838361280e565b60208301905092915050565b61264781612d59565b82525050565b600061265882612bee565b6126628185612c11565b935061266d83612bde565b8060005b8381101561269e5781516126858882612626565b975061269083612c04565b925050600181019050612671565b5085935050505092915050565b6126b481612d6b565b82525050565b6126c381612dda565b82525050565b6126d281612dec565b82525050565b6126e181612dfe565b82525050565b60006126f282612bf9565b6126fc8185612c22565b935061270c818560208601612e1f565b61271581612fe9565b840191505092915050565b600061272b82612bf9565b6127358185612c33565b9350612745818560208601612e1f565b61274e81612fe9565b840191505092915050565b6000612766601283612c33565b915061277182612ffa565b602082019050919050565b600060a083016000830151848203600086015261279982826126e7565b915050602083015184820360208601526127b382826126e7565b915050604083015184820360408601526127cd82826126e7565b915050606083015184820360608601526127e782826126e7565b9150506080830151848203608086015261280182826126e7565b9150508091505092915050565b61281781612dd0565b82525050565b61282681612dd0565b82525050565b60006020820190508181036000830152612846818461264d565b905092915050565b600060208201905061286360008301846126ab565b92915050565b6000602082019050818103600083015261288281612759565b9050919050565b600060208201905061289e600083018461281d565b92915050565b600060a0820190506128b9600083018861281d565b81810360208301526128cb8187612720565b90506128da604083018661263e565b81810360608301526128ec8185612720565b90506128fb608083018461281d565b9695505050505050565b60006101408201905061291b600083018d61281d565b818103602083015261292d818c612720565b90508181036040830152612941818b612720565b9050612950606083018a61281d565b81810360808301526129628189612720565b905061297160a083018861263e565b61297e60c083018761281d565b61298b60e08301866126d8565b6129996101008301856126ba565b8181036101208301526129ac818461277c565b90509b9a5050505050505050505050565b600060e0820190506129d2600083018a61281d565b81810360208301526129e48189612720565b905081810360408301526129f8818861277c565b90508181036060830152612a0c8187612720565b9050612a1b608083018661281d565b612a2860a083018561281d565b612a3560c083018461281d565b98975050505050505050565b600060e082019050612a56600083018a61281d565b612a63602083018961281d565b612a70604083018861281d565b8181036060830152612a828187612720565b9050612a91608083018661281d565b612a9e60a08301856126c9565b612aab60c083018461281d565b98975050505050505050565b600060a082019050612acc600083018861281d565b612ad9602083018761281d565b612ae6604083018661281d565b612af3606083018561281d565b612b0060808301846126c9565b9695505050505050565b600061010082019050612b20600083018b61281d565b612b2d602083018a61281d565b612b3a604083018961281d565b612b47606083018861281d565b612b54608083018761281d565b612b6160a083018661281d565b612b6e60c083018561281d565b612b7b60e083018461281d565b9998505050505050505050565b6000612b92612ba3565b9050612b9e8282612e84565b919050565b6000604051905090565b600067ffffffffffffffff821115612bc857612bc7612fba565b5b612bd182612fe9565b9050602081019050919050565b6000819050602082019050919050565b600081519050919050565b600081519050919050565b6000602082019050919050565b600082825260208201905092915050565b600082825260208201905092915050565b600082825260208201905092915050565b6000612c4f82612dd0565b9150612c5a83612dd0565b9250827fffffffffffffffffffffffffffffffffffffffffffffffffffffffffffffffff03821115612c8f57612c8e612efe565b5b828201905092915050565b6000612ca582612dd0565b9150612cb083612dd0565b925082612cc057612cbf612f2d565b5b828204905092915050565b6000612cd682612dd0565b9150612ce183612dd0565b9250817fffffffffffffffffffffffffffffffffffffffffffffffffffffffffffffffff0483118215151615612d1a57612d19612efe565b5b828202905092915050565b6000612d3082612dd0565b9150612d3b83612dd0565b925082821015612d4e57612d4d612efe565b5b828203905092915050565b6000612d6482612db0565b9050919050565b60008115159050919050565b6000819050612d8582613023565b919050565b6000819050612d9882613037565b919050565b6000819050612dab8261304b565b919050565b600073ffffffffffffffffffffffffffffffffffffffff82169050919050565b6000819050919050565b6000612de582612d77565b9050919050565b6000612df782612d8a565b9050919050565b6000612e0982612d9d565b9050919050565b82818337600083830152505050565b60005b83811015612e3d578082015181840152602081019050612e22565b83811115612e4c576000848401525b50505050565b60006002820490506001821680612e6a57607f821691505b60208210811415612e7e57612e7d612f8b565b5b50919050565b612e8d82612fe9565b810181811067ffffffffffffffff82111715612eac57612eab612fba565b5b80604052505050565b6000612ec082612dd0565b91507fffffffffffffffffffffffffffffffffffffffffffffffffffffffffffffffff821415612ef357612ef2612efe565b5b600182019050919050565b7f4e487b7100000000000000000000000000000000000000000000000000000000600052601160045260246000fd5b7f4e487b7100000000000000000000000000000000000000000000000000000000600052601260045260246000fd5b7f4e487b7100000000000000000000000000000000000000000000000000000000600052602160045260246000fd5b7f4e487b7100000000000000000000000000000000000000000000000000000000600052602260045260246000fd5b7f4e487b7100000000000000000000000000000000000000000000000000000000600052604160045260246000fd5b6000601f19601f8301169050919050565b7f416c726561647920526567697374657265640000000000000000000000000000600082015250565b6003811061303457613033612f5c565b5b50565b6004811061304857613047612f5c565b5b50565b6006811061305c5761305b612f5c565b5b50565b61306881612d59565b811461307357600080fd5b50565b6003811061308357600080fd5b50565b61308f81612dd0565b811461309a57600080fd5b5056fea2646970667358221220d9cffe78680114d6cd295118598ce76c10939c4553a2b75e777e8544c2e127c764736f6c63430008040033",
  "immutableReferences": {},
  "source": "// SPDX-License-Identifier: MIT\npragma solidity ^0.8.1;\nimport \"./structs.sol\";\nimport \"./modifiers.sol\";\n\ncontract User is structs, modifiers {\n    function login() public view returns (bool) {\n        return (users[addressToUser[msg.sender]].walletAddress == msg.sender);\n    }\n\n    function addUser(\n        string memory name,\n        string memory aadhar,\n        uint256 mobno,\n        string memory fatherName,\n        Gender gender,\n        string memory _state,\n        string memory _district,\n        string memory _blockName,\n        string memory _panchyatName,\n        string memory _villageName\n    ) public {\n        require(\n            users[addressToUser[msg.sender]].walletAddress != msg.sender,\n            \"Already Registered\"\n        );\n        uint256 id = ++numUsers;\n        addressToUser[msg.sender] = id;\n\n        Location memory newlocation = Location({\n            state: _state,\n            district: _district,\n            blockName: _blockName,\n            panchyatName: _panchyatName,\n            villageName: _villageName\n        });\n\n        users[id] = User(\n            numUsers++,\n            name,\n            aadhar,\n            mobno,\n            fatherName,\n            msg.sender,\n            new uint256[](0),\n            new uint256[](0),\n            0, // SHG id is zero inttially as a placeholder for every user\n            UserType.NONE,\n            gender,\n            newlocation\n        );\n    }\n\n    // Request functions for user\n\n    function makeRequest(\n        uint256 _shgid,\n        uint256 _userid,\n        uint256 _amount,\n        string memory _description,\n        uint256 _loanTime\n    ) public {\n        uint256 requestId = ++numUserRequests;\n        userRequests[requestId] = UserRequest(\n            requestId,\n            _userid,\n            _amount,\n            _description,\n            _shgid,\n            RequestStatus.IN_PROCESS,\n            _loanTime,\n            new uint256[](0)\n        );\n        users[_userid].requests.push(requestId);\n    }\n\n    function deleteRequest(uint256 _userid, uint256 _requestid)\n        public\n        onlyUser(_userid)\n    {\n        require(userRequests[_requestid].userId == _userid);\n\n        uint256 index;\n        for (uint256 i = 0; i < numUserRequests; i++) {\n            if (userRequests[i].userId == _userid) {\n                index = i;\n                break;\n            }\n        }\n        delete userRequests[index];\n    }\n\n    // Repay functions for user\n\n    function payEMI(\n        uint256 _userid,\n        uint256 _loanid,\n        uint256 _amount\n    ) public payable onlyUser(_userid) {\n        uint256 amount = getUserEMI(_userid, _loanid);\n        require(amount == _amount);\n        Loan storage loan = loans[_loanid];\n        payable(address(this)).transfer(_amount);\n        shgs[loan.lendeeId].currentBalance += _amount;\n        loan.lastEMI = block.timestamp;\n    }\n\n    // fetch functions\n\n    function getNumUsers() public view returns (uint256) {\n        return numUsers;\n    }\n\n    function getUserRequest(uint256 _userid) public returns (uint256[] memory) {\n        for (uint256 i = 0; i < numUserRequests; i++) {\n            if (userRequests[i].userId == _userid) {\n                userToRequests[_userid].push(i);\n            }\n        }\n        return userToRequests[_userid];\n    }\n\n    function getUserEMI(uint256 userid, uint256 loanid)\n        public\n        onlyUser(userid)\n        returns (uint256)\n    {\n        Loan storage loan = loans[loanid];\n        uint256 months = ((block.timestamp - loan.lastEMI) / 24) * 60 * 60 * 30;\n\n        require(months > 0);\n        uint256 P = loan.amount;\n        uint256 r = loan.intrest;\n        uint256 t = loan.loanTime;\n        uint256 emi = (P * (1 + ((r / 100) * 12))) ^ ((12 * t));\n\n        loan.amount = loan.amount - emi;\n        return emi;\n    }\n\n    function getAllLoans(uint256 userid)\n        public\n        view\n        onlyUser(userid)\n        returns (uint256[] memory)\n    {\n        return users[userid].loansTaken;\n    }\n\n    function getUserLoanAmount(uint256 _userid) public view returns (uint256) {\n        uint256 amount = 0;\n        uint256[] memory loans = users[_userid].loansTaken;\n        for (uint256 i = 0; i < loans.length; i++) {\n            amount += loans[i];\n        }\n        return amount;\n    }\n\n    // function flagDefaulters() public {}\n}\n",
  "sourcePath": "/home/sdas/code/yogdaan-contracts/contracts/lib/User.sol",
  "compiler": {
    "name": "solc",
    "version": "0.8.4+commit.c7e474f2.Emscripten.clang"
  },
  "schemaVersion": "3.4.9",
  "updatedAt": "2022-08-25T23:39:21.930Z",
  "devdoc": {
    "kind": "dev",
    "methods": {},
    "version": 1
  },
  "userdoc": {
    "kind": "user",
    "methods": {},
    "version": 1
  }
}