{
  "contractName": "User",
  "abi": [
    {
      "inputs": [
        {
          "internalType": "address",
          "name": "",
          "type": "address"
        }
      ],
      "name": "addressToBankid",
      "outputs": [
        {
          "internalType": "uint256",
          "name": "",
          "type": "uint256"
        }
      ],
      "stateMutability": "view",
      "type": "function"
    },
    {
      "inputs": [
        {
          "internalType": "address",
          "name": "",
          "type": "address"
        }
      ],
      "name": "addressToSHGid",
      "outputs": [
        {
          "internalType": "uint256",
          "name": "",
          "type": "uint256"
        }
      ],
      "stateMutability": "view",
      "type": "function"
    },
    {
      "inputs": [
        {
          "internalType": "address",
          "name": "",
          "type": "address"
        }
      ],
      "name": "addressToUser",
      "outputs": [
        {
          "internalType": "uint256",
          "name": "",
          "type": "uint256"
        }
      ],
      "stateMutability": "view",
      "type": "function"
    },
    {
      "inputs": [
        {
          "internalType": "uint256",
          "name": "",
          "type": "uint256"
        }
      ],
      "name": "banks",
      "outputs": [
        {
          "internalType": "uint256",
          "name": "id",
          "type": "uint256"
        },
        {
          "internalType": "string",
          "name": "name",
          "type": "string"
        },
        {
          "internalType": "address",
          "name": "walletAddress",
          "type": "address"
        },
        {
          "internalType": "string",
          "name": "code",
          "type": "string"
        },
        {
          "internalType": "uint256",
          "name": "intrestRate",
          "type": "uint256"
        }
      ],
      "stateMutability": "view",
      "type": "function"
    },
    {
      "inputs": [
        {
          "internalType": "uint256",
          "name": "",
          "type": "uint256"
        }
      ],
      "name": "loans",
      "outputs": [
        {
          "internalType": "uint256",
          "name": "loanId",
          "type": "uint256"
        },
        {
          "internalType": "uint256",
          "name": "lenderId",
          "type": "uint256"
        },
        {
          "internalType": "uint256",
          "name": "amount",
          "type": "uint256"
        },
        {
          "internalType": "uint256",
          "name": "lendeeId",
          "type": "uint256"
        },
        {
          "internalType": "uint256",
          "name": "intrest",
          "type": "uint256"
        },
        {
          "internalType": "uint256",
          "name": "loanTime",
          "type": "uint256"
        },
        {
          "internalType": "uint256",
          "name": "date",
          "type": "uint256"
        },
        {
          "internalType": "uint256",
          "name": "lastEMI",
          "type": "uint256"
        }
      ],
      "stateMutability": "view",
      "type": "function"
    },
    {
      "inputs": [
        {
          "internalType": "uint256",
          "name": "",
          "type": "uint256"
        }
      ],
      "name": "shgRequests",
      "outputs": [
        {
          "internalType": "uint256",
          "name": "requestid",
          "type": "uint256"
        },
        {
          "internalType": "uint256",
          "name": "shgid",
          "type": "uint256"
        },
        {
          "internalType": "uint256",
          "name": "amount",
          "type": "uint256"
        },
        {
          "internalType": "uint256",
          "name": "loanTime",
          "type": "uint256"
        },
        {
          "internalType": "enum structs.RequestStatus",
          "name": "status",
          "type": "uint8"
        }
      ],
      "stateMutability": "view",
      "type": "function"
    },
    {
      "inputs": [
        {
          "internalType": "uint256",
          "name": "",
          "type": "uint256"
        }
      ],
      "name": "shgs",
      "outputs": [
        {
          "internalType": "uint256",
          "name": "id",
          "type": "uint256"
        },
        {
          "internalType": "string",
          "name": "name",
          "type": "string"
        },
        {
          "components": [
            {
              "internalType": "string",
              "name": "state",
              "type": "string"
            },
            {
              "internalType": "string",
              "name": "district",
              "type": "string"
            },
            {
              "internalType": "string",
              "name": "blockName",
              "type": "string"
            },
            {
              "internalType": "string",
              "name": "panchyatName",
              "type": "string"
            },
            {
              "internalType": "string",
              "name": "villageName",
              "type": "string"
            }
          ],
          "internalType": "struct structs.Location",
          "name": "location",
          "type": "tuple"
        },
        {
          "internalType": "string",
          "name": "dateOfFormation",
          "type": "string"
        },
        {
          "internalType": "uint256",
          "name": "currentBalance",
          "type": "uint256"
        },
        {
          "internalType": "uint256",
          "name": "owedBalance",
          "type": "uint256"
        },
        {
          "internalType": "uint256",
          "name": "baseIntrest",
          "type": "uint256"
        }
      ],
      "stateMutability": "view",
      "type": "function"
    },
    {
      "inputs": [
        {
          "internalType": "uint256",
          "name": "",
          "type": "uint256"
        }
      ],
      "name": "userRequests",
      "outputs": [
        {
          "internalType": "uint256",
          "name": "requestId",
          "type": "uint256"
        },
        {
          "internalType": "uint256",
          "name": "userId",
          "type": "uint256"
        },
        {
          "internalType": "uint256",
          "name": "amount",
          "type": "uint256"
        },
        {
          "internalType": "string",
          "name": "description",
          "type": "string"
        },
        {
          "internalType": "uint256",
          "name": "SHGId",
          "type": "uint256"
        },
        {
          "internalType": "enum structs.RequestStatus",
          "name": "status",
          "type": "uint8"
        },
        {
          "internalType": "uint256",
          "name": "loanTime",
          "type": "uint256"
        }
      ],
      "stateMutability": "view",
      "type": "function"
    },
    {
      "inputs": [
        {
          "internalType": "uint256",
          "name": "",
          "type": "uint256"
        }
      ],
      "name": "users",
      "outputs": [
        {
          "internalType": "uint256",
          "name": "id",
          "type": "uint256"
        },
        {
          "internalType": "string",
          "name": "name",
          "type": "string"
        },
        {
          "internalType": "string",
          "name": "aadhar",
          "type": "string"
        },
        {
          "internalType": "uint256",
          "name": "mobno",
          "type": "uint256"
        },
        {
          "internalType": "string",
          "name": "fatherName",
          "type": "string"
        },
        {
          "internalType": "address",
          "name": "walletAddress",
          "type": "address"
        },
        {
          "internalType": "uint256",
          "name": "shgid",
          "type": "uint256"
        },
        {
          "internalType": "enum structs.UserType",
          "name": "userType",
          "type": "uint8"
        },
        {
          "internalType": "enum structs.Gender",
          "name": "gender",
          "type": "uint8"
        },
        {
          "components": [
            {
              "internalType": "string",
              "name": "state",
              "type": "string"
            },
            {
              "internalType": "string",
              "name": "district",
              "type": "string"
            },
            {
              "internalType": "string",
              "name": "blockName",
              "type": "string"
            },
            {
              "internalType": "string",
              "name": "panchyatName",
              "type": "string"
            },
            {
              "internalType": "string",
              "name": "villageName",
              "type": "string"
            }
          ],
          "internalType": "struct structs.Location",
          "name": "location",
          "type": "tuple"
        }
      ],
      "stateMutability": "view",
      "type": "function"
    },
    {
      "inputs": [],
      "name": "login",
      "outputs": [
        {
          "internalType": "bool",
          "name": "",
          "type": "bool"
        }
      ],
      "stateMutability": "view",
      "type": "function"
    },
    {
      "inputs": [
        {
          "internalType": "string",
          "name": "name",
          "type": "string"
        },
        {
          "internalType": "string",
          "name": "aadhar",
          "type": "string"
        },
        {
          "internalType": "uint256",
          "name": "mobno",
          "type": "uint256"
        },
        {
          "internalType": "string",
          "name": "fatherName",
          "type": "string"
        },
        {
          "internalType": "enum structs.Gender",
          "name": "gender",
          "type": "uint8"
        },
        {
          "internalType": "string",
          "name": "_state",
          "type": "string"
        },
        {
          "internalType": "string",
          "name": "_district",
          "type": "string"
        },
        {
          "internalType": "string",
          "name": "_blockName",
          "type": "string"
        },
        {
          "internalType": "string",
          "name": "_panchyatName",
          "type": "string"
        },
        {
          "internalType": "string",
          "name": "_villageName",
          "type": "string"
        }
      ],
      "name": "addUser",
      "outputs": [],
      "stateMutability": "nonpayable",
      "type": "function"
    },
    {
      "inputs": [
        {
          "internalType": "uint256",
          "name": "_shgid",
          "type": "uint256"
        },
        {
          "internalType": "uint256",
          "name": "_userid",
          "type": "uint256"
        },
        {
          "internalType": "uint256",
          "name": "_amount",
          "type": "uint256"
        },
        {
          "internalType": "string",
          "name": "_description",
          "type": "string"
        },
        {
          "internalType": "uint256",
          "name": "_loanTime",
          "type": "uint256"
        }
      ],
      "name": "makeRequest",
      "outputs": [],
      "stateMutability": "nonpayable",
      "type": "function"
    },
    {
      "inputs": [
        {
          "internalType": "uint256",
          "name": "_userid",
          "type": "uint256"
        },
        {
          "internalType": "uint256",
          "name": "_requestid",
          "type": "uint256"
        }
      ],
      "name": "deleteRequest",
      "outputs": [],
      "stateMutability": "nonpayable",
      "type": "function"
    },
    {
      "inputs": [
        {
          "internalType": "uint256",
          "name": "_userid",
          "type": "uint256"
        },
        {
          "internalType": "uint256",
          "name": "_loanid",
          "type": "uint256"
        },
        {
          "internalType": "uint256",
          "name": "_amount",
          "type": "uint256"
        }
      ],
      "name": "payEMI",
      "outputs": [],
      "stateMutability": "payable",
      "type": "function"
    },
    {
      "inputs": [
        {
          "internalType": "uint256",
          "name": "userid",
          "type": "uint256"
        },
        {
          "internalType": "uint256",
          "name": "loanid",
          "type": "uint256"
        }
      ],
      "name": "getUserEMI",
      "outputs": [
        {
          "internalType": "uint256",
          "name": "",
          "type": "uint256"
        }
      ],
      "stateMutability": "nonpayable",
      "type": "function"
    },
    {
      "inputs": [
        {
          "internalType": "uint256",
          "name": "userid",
          "type": "uint256"
        }
      ],
      "name": "getAllLoans",
      "outputs": [
        {
          "internalType": "uint256[]",
          "name": "",
          "type": "uint256[]"
        }
      ],
      "stateMutability": "view",
      "type": "function"
    },
    {
      "inputs": [
        {
          "internalType": "uint256",
          "name": "_userid",
          "type": "uint256"
        }
      ],
      "name": "getUserLoanAmount",
      "outputs": [
        {
          "internalType": "uint256",
          "name": "",
          "type": "uint256"
        }
      ],
      "stateMutability": "view",
      "type": "function"
    }
  ],
  "bytecode": "0x608060405234801561001057600080fd5b50612d9c806100206000396000f3fe6080604052600436106100fd5760003560e01c80633c56575711610095578063b34e97e811610064578063b34e97e8146103b2578063cfcb4b2f146103dd578063e1ec3c681461041a578063edf538861461045e578063f736ae431461049b576100fd565b80633c565757146102d957806342f5f8151461031657806361c91b7014610332578063941696561461036f576100fd565b806326271cf2116100d157806326271cf2146101ea5780632e1310461461022d578063365b98b2146102565780633ae0058f1461029c576100fd565b806285ae2b146101025780630227f43514610143578063089511f71461016c578063257a170b146101a9575b600080fd5b34801561010e57600080fd5b50610129600480360381019061012491906121ac565b6104c4565b60405161013a95949392919061256d565b60405180910390f35b34801561014f57600080fd5b5061016a60048036038101906101659190612260565b61062a565b005b34801561017857600080fd5b50610193600480360381019061018e91906121ac565b610840565b6040516101a09190612552565b60405180910390f35b3480156101b557600080fd5b506101d060048036038101906101cb91906121ac565b610927565b6040516101e1959493929190612780565b60405180910390f35b3480156101f657600080fd5b50610211600480360381019061020c91906121ac565b61096a565b6040516102249796959493929190612686565b60405180910390f35b34801561023957600080fd5b50610254600480360381019061024f9190612011565b610da0565b005b34801561026257600080fd5b5061027d600480360381019061027891906121ac565b61133e565b6040516102939a999897969594939291906125ce565b60405180910390f35b3480156102a857600080fd5b506102c360048036038101906102be9190611fe8565b611848565b6040516102d09190612552565b60405180910390f35b3480156102e557600080fd5b5061030060048036038101906102fb91906121d5565b611860565b60405161030d9190612552565b60405180910390f35b610330600480360381019061032b9190612211565b61197d565b005b34801561033e57600080fd5b5061035960048036038101906103549190611fe8565b611a5b565b6040516103669190612552565b60405180910390f35b34801561037b57600080fd5b50610396600480360381019061039191906121ac565b611a73565b6040516103a9979695949392919061270a565b60405180910390f35b3480156103be57600080fd5b506103c7611b4a565b6040516103d49190612517565b60405180910390f35b3480156103e957600080fd5b5061040460048036038101906103ff91906121ac565b611bf4565b60405161041191906124f5565b60405180910390f35b34801561042657600080fd5b50610441600480360381019061043c91906121ac565b611c86565b6040516104559897969594939291906127d3565b60405180910390f35b34801561046a57600080fd5b5061048560048036038101906104809190611fe8565b611cce565b6040516104929190612552565b60405180910390f35b3480156104a757600080fd5b506104c260048036038101906104bd91906121d5565b611ce6565b005b60026020528060005260406000206000915090508060000154908060010180546104ed90612b1b565b80601f016020809104026020016040519081016040528092919081815260200182805461051990612b1b565b80156105665780601f1061053b57610100808354040283529160200191610566565b820191906000526020600020905b81548152906001019060200180831161054957829003601f168201915b5050505050908060020160009054906101000a900473ffffffffffffffffffffffffffffffffffffffff16908060030180546105a190612b1b565b80601f01602080910402602001604051908101604052809291908181526020018280546105cd90612b1b565b801561061a5780601f106105ef5761010080835404028352916020019161061a565b820191906000526020600020905b8154815290600101906020018083116105fd57829003601f168201915b5050505050908060040154905085565b6000600b6000815461063b90612b7e565b91905081905590506040518061010001604052808281526020018681526020018581526020018481526020018781526020016003808111156106a6577f4e487b7100000000000000000000000000000000000000000000000000000000600052602160045260246000fd5b8152602001838152602001600067ffffffffffffffff8111156106f2577f4e487b7100000000000000000000000000000000000000000000000000000000600052604160045260246000fd5b6040519080825280602002602001820160405280156107205781602001602082028036833780820191505090505b50815250600560008381526020019081526020016000206000820151816000015560208201518160010155604082015181600201556060820151816003019080519060200190610771929190611df0565b506080820151816004015560a08201518160050160006101000a81548160ff021916908360038111156107cd577f4e487b7100000000000000000000000000000000000000000000000000000000600052602160045260246000fd5b021790555060c0820151816006015560e08201518160070190805190602001906107f8929190611e76565b50905050600080868152602001908152602001600020600701819080600181540180825580915050600190039060005260206000200160009091909190915055505050505050565b6000806000905060008060008581526020019081526020016000206006018054806020026020016040519081016040528092919081815260200182805480156108a857602002820191906000526020600020905b815481526020019060010190808311610894575b5050505050905060005b815181101561091c578181815181106108f4577f4e487b7100000000000000000000000000000000000000000000000000000000600052603260045260246000fd5b602002602001015183610907919061290d565b9250808061091490612b7e565b9150506108b2565b508192505050919050565b60066020528060005260406000206000915090508060000154908060010154908060020154908060030154908060040160009054906101000a900460ff16905085565b600160205280600052604060002060009150905080600001549080600201805461099390612b1b565b80601f01602080910402602001604051908101604052809291908181526020018280546109bf90612b1b565b8015610a0c5780601f106109e157610100808354040283529160200191610a0c565b820191906000526020600020905b8154815290600101906020018083116109ef57829003601f168201915b505050505090806003016040518060a0016040529081600082018054610a3190612b1b565b80601f0160208091040260200160405190810160405280929190818152602001828054610a5d90612b1b565b8015610aaa5780601f10610a7f57610100808354040283529160200191610aaa565b820191906000526020600020905b815481529060010190602001808311610a8d57829003601f168201915b50505050508152602001600182018054610ac390612b1b565b80601f0160208091040260200160405190810160405280929190818152602001828054610aef90612b1b565b8015610b3c5780601f10610b1157610100808354040283529160200191610b3c565b820191906000526020600020905b815481529060010190602001808311610b1f57829003601f168201915b50505050508152602001600282018054610b5590612b1b565b80601f0160208091040260200160405190810160405280929190818152602001828054610b8190612b1b565b8015610bce5780601f10610ba357610100808354040283529160200191610bce565b820191906000526020600020905b815481529060010190602001808311610bb157829003601f168201915b50505050508152602001600382018054610be790612b1b565b80601f0160208091040260200160405190810160405280929190818152602001828054610c1390612b1b565b8015610c605780601f10610c3557610100808354040283529160200191610c60565b820191906000526020600020905b815481529060010190602001808311610c4357829003601f168201915b50505050508152602001600482018054610c7990612b1b565b80601f0160208091040260200160405190810160405280929190818152602001828054610ca590612b1b565b8015610cf25780601f10610cc757610100808354040283529160200191610cf2565b820191906000526020600020905b815481529060010190602001808311610cd557829003601f168201915b50505050508152505090806008018054610d0b90612b1b565b80601f0160208091040260200160405190810160405280929190818152602001828054610d3790612b1b565b8015610d845780601f10610d5957610100808354040283529160200191610d84565b820191906000526020600020905b815481529060010190602001808311610d6757829003601f168201915b50505050509080600901549080600a01549080600d0154905087565b3373ffffffffffffffffffffffffffffffffffffffff16600080600360003373ffffffffffffffffffffffffffffffffffffffff1673ffffffffffffffffffffffffffffffffffffffff16815260200190815260200160002054815260200190815260200160002060050160009054906101000a900473ffffffffffffffffffffffffffffffffffffffff1673ffffffffffffffffffffffffffffffffffffffff161415610e83576040517f08c379a0000000000000000000000000000000000000000000000000000000008152600401610e7a90612532565b60405180910390fd5b6000600960008154610e9490612b7e565b919050819055905080600360003373ffffffffffffffffffffffffffffffffffffffff1673ffffffffffffffffffffffffffffffffffffffff1681526020019081526020016000208190555060006040518060a0016040528088815260200187815260200186815260200185815260200184815250905060405180610180016040528060096000815480929190610f2a90612b7e565b9190505581526020018d81526020018c81526020018b81526020018a81526020013373ffffffffffffffffffffffffffffffffffffffff168152602001600067ffffffffffffffff811115610fa8577f4e487b7100000000000000000000000000000000000000000000000000000000600052604160045260246000fd5b604051908082528060200260200182016040528015610fd65781602001602082028036833780820191505090505b508152602001600067ffffffffffffffff81111561101d577f4e487b7100000000000000000000000000000000000000000000000000000000600052604160045260246000fd5b60405190808252806020026020018201604052801561104b5781602001602082028036833780820191505090505b5081526020016000815260200160046005811115611092577f4e487b7100000000000000000000000000000000000000000000000000000000600052602160045260246000fd5b81526020018960028111156110d0577f4e487b7100000000000000000000000000000000000000000000000000000000600052602160045260246000fd5b815260200182815250600080848152602001908152602001600020600082015181600001556020820151816001019080519060200190611111929190611df0565b50604082015181600201908051906020019061112e929190611df0565b50606082015181600301556080820151816004019080519060200190611155929190611df0565b5060a08201518160050160006101000a81548173ffffffffffffffffffffffffffffffffffffffff021916908373ffffffffffffffffffffffffffffffffffffffff16021790555060c08201518160060190805190602001906111b9929190611e76565b5060e08201518160070190805190602001906111d6929190611e76565b5061010082015181600801556101208201518160090160006101000a81548160ff02191690836005811115611234577f4e487b7100000000000000000000000000000000000000000000000000000000600052602160045260246000fd5b02179055506101408201518160090160016101000a81548160ff0219169083600281111561128b577f4e487b7100000000000000000000000000000000000000000000000000000000600052602160045260246000fd5b021790555061016082015181600a0160008201518160000190805190602001906112b6929190611df0565b5060208201518160010190805190602001906112d3929190611df0565b5060408201518160020190805190602001906112f0929190611df0565b50606082015181600301908051906020019061130d929190611df0565b50608082015181600401908051906020019061132a929190611df0565b505050905050505050505050505050505050565b600060205280600052604060002060009150905080600001549080600101805461136790612b1b565b80601f016020809104026020016040519081016040528092919081815260200182805461139390612b1b565b80156113e05780601f106113b5576101008083540402835291602001916113e0565b820191906000526020600020905b8154815290600101906020018083116113c357829003601f168201915b5050505050908060020180546113f590612b1b565b80601f016020809104026020016040519081016040528092919081815260200182805461142190612b1b565b801561146e5780601f106114435761010080835404028352916020019161146e565b820191906000526020600020905b81548152906001019060200180831161145157829003601f168201915b50505050509080600301549080600401805461148990612b1b565b80601f01602080910402602001604051908101604052809291908181526020018280546114b590612b1b565b80156115025780601f106114d757610100808354040283529160200191611502565b820191906000526020600020905b8154815290600101906020018083116114e557829003601f168201915b5050505050908060050160009054906101000a900473ffffffffffffffffffffffffffffffffffffffff16908060080154908060090160009054906101000a900460ff16908060090160019054906101000a900460ff169080600a016040518060a001604052908160008201805461157990612b1b565b80601f01602080910402602001604051908101604052809291908181526020018280546115a590612b1b565b80156115f25780601f106115c7576101008083540402835291602001916115f2565b820191906000526020600020905b8154815290600101906020018083116115d557829003601f168201915b5050505050815260200160018201805461160b90612b1b565b80601f016020809104026020016040519081016040528092919081815260200182805461163790612b1b565b80156116845780601f1061165957610100808354040283529160200191611684565b820191906000526020600020905b81548152906001019060200180831161166757829003601f168201915b5050505050815260200160028201805461169d90612b1b565b80601f01602080910402602001604051908101604052809291908181526020018280546116c990612b1b565b80156117165780601f106116eb57610100808354040283529160200191611716565b820191906000526020600020905b8154815290600101906020018083116116f957829003601f168201915b5050505050815260200160038201805461172f90612b1b565b80601f016020809104026020016040519081016040528092919081815260200182805461175b90612b1b565b80156117a85780601f1061177d576101008083540402835291602001916117a8565b820191906000526020600020905b81548152906001019060200180831161178b57829003601f168201915b505050505081526020016004820180546117c190612b1b565b80601f01602080910402602001604051908101604052809291908181526020018280546117ed90612b1b565b801561183a5780601f1061180f5761010080835404028352916020019161183a565b820191906000526020600020905b81548152906001019060200180831161181d57829003601f168201915b50505050508152505090508a565b60076020528060005260406000206000915090505481565b600082600080600083815260200190815260200160002060000154141561188657600080fd5b60006004600085815260200190815260200160002090506000601e603c8060188560070154426118b691906129ee565b6118c09190612963565b6118ca9190612994565b6118d49190612994565b6118de9190612994565b9050600081116118ed57600080fd5b60008260020154905060008360040154905060008460050154905060008382600c6119189190612994565b61192291906129ee565b600c6064856119319190612963565b61193b9190612994565b6001611947919061290d565b856119529190612994565b18905080866002015461196591906129ee565b86600201819055508097505050505050505092915050565b8260008060008381526020019081526020016000206000015414156119a157600080fd5b60006119ad8585611860565b90508281146119bb57600080fd5b60006004600086815260200190815260200160002090503073ffffffffffffffffffffffffffffffffffffffff166108fc859081150290604051600060405180830381858888f19350505050158015611a18573d6000803e3d6000fd5b508360016000836003015481526020019081526020016000206009016000828254611a43919061290d565b92505081905550428160070181905550505050505050565b60086020528060005260406000206000915090505481565b6005602052806000526040600020600091509050806000015490806001015490806002015490806003018054611aa890612b1b565b80601f0160208091040260200160405190810160405280929190818152602001828054611ad490612b1b565b8015611b215780601f10611af657610100808354040283529160200191611b21565b820191906000526020600020905b815481529060010190602001808311611b0457829003601f168201915b5050505050908060040154908060050160009054906101000a900460ff16908060060154905087565b60003373ffffffffffffffffffffffffffffffffffffffff16600080600360003373ffffffffffffffffffffffffffffffffffffffff1673ffffffffffffffffffffffffffffffffffffffff16815260200190815260200160002054815260200190815260200160002060050160009054906101000a900473ffffffffffffffffffffffffffffffffffffffff1673ffffffffffffffffffffffffffffffffffffffff1614905090565b6060816000806000838152602001908152602001600020600001541415611c1a57600080fd5b600080848152602001908152602001600020600601805480602002602001604051908101604052809291908181526020018280548015611c7957602002820191906000526020600020905b815481526020019060010190808311611c65575b5050505050915050919050565b60046020528060005260406000206000915090508060000154908060010154908060020154908060030154908060040154908060050154908060060154908060070154905088565b60036020528060005260406000206000915090505481565b816000806000838152602001908152602001600020600001541415611d0a57600080fd5b82600560008481526020019081526020016000206001015414611d2c57600080fd5b600080600090505b600b54811015611d77578460056000838152602001908152602001600020600101541415611d6457809150611d77565b8080611d6f90612b7e565b915050611d34565b506005600082815260200190815260200160002060008082016000905560018201600090556002820160009055600382016000611db49190611ec3565b60048201600090556005820160006101000a81549060ff02191690556006820160009055600782016000611de89190611f03565b505050505050565b828054611dfc90612b1b565b90600052602060002090601f016020900481019282611e1e5760008555611e65565b82601f10611e3757805160ff1916838001178555611e65565b82800160010185558215611e65579182015b82811115611e64578251825591602001919060010190611e49565b5b509050611e729190611f24565b5090565b828054828255906000526020600020908101928215611eb2579160200282015b82811115611eb1578251825591602001919060010190611e96565b5b509050611ebf9190611f24565b5090565b508054611ecf90612b1b565b6000825580601f10611ee15750611f00565b601f016020900490600052602060002090810190611eff9190611f24565b5b50565b5080546000825590600052602060002090810190611f219190611f24565b50565b5b80821115611f3d576000816000905550600101611f25565b5090565b6000611f54611f4f84612876565b612851565b905082815260208101848484011115611f6c57600080fd5b611f77848285612ad9565b509392505050565b600081359050611f8e81612d28565b92915050565b600081359050611fa381612d3f565b92915050565b600082601f830112611fba57600080fd5b8135611fca848260208601611f41565b91505092915050565b600081359050611fe281612d4f565b92915050565b600060208284031215611ffa57600080fd5b600061200884828501611f7f565b91505092915050565b6000806000806000806000806000806101408b8d03121561203157600080fd5b60008b013567ffffffffffffffff81111561204b57600080fd5b6120578d828e01611fa9565b9a505060208b013567ffffffffffffffff81111561207457600080fd5b6120808d828e01611fa9565b99505060406120918d828e01611fd3565b98505060608b013567ffffffffffffffff8111156120ae57600080fd5b6120ba8d828e01611fa9565b97505060806120cb8d828e01611f94565b96505060a08b013567ffffffffffffffff8111156120e857600080fd5b6120f48d828e01611fa9565b95505060c08b013567ffffffffffffffff81111561211157600080fd5b61211d8d828e01611fa9565b94505060e08b013567ffffffffffffffff81111561213a57600080fd5b6121468d828e01611fa9565b9350506101008b013567ffffffffffffffff81111561216457600080fd5b6121708d828e01611fa9565b9250506101208b013567ffffffffffffffff81111561218e57600080fd5b61219a8d828e01611fa9565b9150509295989b9194979a5092959850565b6000602082840312156121be57600080fd5b60006121cc84828501611fd3565b91505092915050565b600080604083850312156121e857600080fd5b60006121f685828601611fd3565b925050602061220785828601611fd3565b9150509250929050565b60008060006060848603121561222657600080fd5b600061223486828701611fd3565b935050602061224586828701611fd3565b925050604061225686828701611fd3565b9150509250925092565b600080600080600060a0868803121561227857600080fd5b600061228688828901611fd3565b955050602061229788828901611fd3565b94505060406122a888828901611fd3565b935050606086013567ffffffffffffffff8111156122c557600080fd5b6122d188828901611fa9565b92505060806122e288828901611fd3565b9150509295509295909350565b60006122fb83836124d7565b60208301905092915050565b61231081612a22565b82525050565b6000612321826128b7565b61232b81856128da565b9350612336836128a7565b8060005b8381101561236757815161234e88826122ef565b9750612359836128cd565b92505060018101905061233a565b5085935050505092915050565b61237d81612a34565b82525050565b61238c81612aa3565b82525050565b61239b81612ab5565b82525050565b6123aa81612ac7565b82525050565b60006123bb826128c2565b6123c581856128eb565b93506123d5818560208601612ae8565b6123de81612cb2565b840191505092915050565b60006123f4826128c2565b6123fe81856128fc565b935061240e818560208601612ae8565b61241781612cb2565b840191505092915050565b600061242f6012836128fc565b915061243a82612cc3565b602082019050919050565b600060a083016000830151848203600086015261246282826123b0565b9150506020830151848203602086015261247c82826123b0565b9150506040830151848203604086015261249682826123b0565b915050606083015184820360608601526124b082826123b0565b915050608083015184820360808601526124ca82826123b0565b9150508091505092915050565b6124e081612a99565b82525050565b6124ef81612a99565b82525050565b6000602082019050818103600083015261250f8184612316565b905092915050565b600060208201905061252c6000830184612374565b92915050565b6000602082019050818103600083015261254b81612422565b9050919050565b600060208201905061256760008301846124e6565b92915050565b600060a08201905061258260008301886124e6565b818103602083015261259481876123e9565b90506125a36040830186612307565b81810360608301526125b581856123e9565b90506125c460808301846124e6565b9695505050505050565b6000610140820190506125e4600083018d6124e6565b81810360208301526125f6818c6123e9565b9050818103604083015261260a818b6123e9565b9050612619606083018a6124e6565b818103608083015261262b81896123e9565b905061263a60a0830188612307565b61264760c08301876124e6565b61265460e08301866123a1565b612662610100830185612383565b8181036101208301526126758184612445565b90509b9a5050505050505050505050565b600060e08201905061269b600083018a6124e6565b81810360208301526126ad81896123e9565b905081810360408301526126c18188612445565b905081810360608301526126d581876123e9565b90506126e460808301866124e6565b6126f160a08301856124e6565b6126fe60c08301846124e6565b98975050505050505050565b600060e08201905061271f600083018a6124e6565b61272c60208301896124e6565b61273960408301886124e6565b818103606083015261274b81876123e9565b905061275a60808301866124e6565b61276760a0830185612392565b61277460c08301846124e6565b98975050505050505050565b600060a08201905061279560008301886124e6565b6127a260208301876124e6565b6127af60408301866124e6565b6127bc60608301856124e6565b6127c96080830184612392565b9695505050505050565b6000610100820190506127e9600083018b6124e6565b6127f6602083018a6124e6565b61280360408301896124e6565b61281060608301886124e6565b61281d60808301876124e6565b61282a60a08301866124e6565b61283760c08301856124e6565b61284460e08301846124e6565b9998505050505050505050565b600061285b61286c565b90506128678282612b4d565b919050565b6000604051905090565b600067ffffffffffffffff82111561289157612890612c83565b5b61289a82612cb2565b9050602081019050919050565b6000819050602082019050919050565b600081519050919050565b600081519050919050565b6000602082019050919050565b600082825260208201905092915050565b600082825260208201905092915050565b600082825260208201905092915050565b600061291882612a99565b915061292383612a99565b9250827fffffffffffffffffffffffffffffffffffffffffffffffffffffffffffffffff0382111561295857612957612bc7565b5b828201905092915050565b600061296e82612a99565b915061297983612a99565b92508261298957612988612bf6565b5b828204905092915050565b600061299f82612a99565b91506129aa83612a99565b9250817fffffffffffffffffffffffffffffffffffffffffffffffffffffffffffffffff04831182151516156129e3576129e2612bc7565b5b828202905092915050565b60006129f982612a99565b9150612a0483612a99565b925082821015612a1757612a16612bc7565b5b828203905092915050565b6000612a2d82612a79565b9050919050565b60008115159050919050565b6000819050612a4e82612cec565b919050565b6000819050612a6182612d00565b919050565b6000819050612a7482612d14565b919050565b600073ffffffffffffffffffffffffffffffffffffffff82169050919050565b6000819050919050565b6000612aae82612a40565b9050919050565b6000612ac082612a53565b9050919050565b6000612ad282612a66565b9050919050565b82818337600083830152505050565b60005b83811015612b06578082015181840152602081019050612aeb565b83811115612b15576000848401525b50505050565b60006002820490506001821680612b3357607f821691505b60208210811415612b4757612b46612c54565b5b50919050565b612b5682612cb2565b810181811067ffffffffffffffff82111715612b7557612b74612c83565b5b80604052505050565b6000612b8982612a99565b91507fffffffffffffffffffffffffffffffffffffffffffffffffffffffffffffffff821415612bbc57612bbb612bc7565b5b600182019050919050565b7f4e487b7100000000000000000000000000000000000000000000000000000000600052601160045260246000fd5b7f4e487b7100000000000000000000000000000000000000000000000000000000600052601260045260246000fd5b7f4e487b7100000000000000000000000000000000000000000000000000000000600052602160045260246000fd5b7f4e487b7100000000000000000000000000000000000000000000000000000000600052602260045260246000fd5b7f4e487b7100000000000000000000000000000000000000000000000000000000600052604160045260246000fd5b6000601f19601f8301169050919050565b7f416c726561647920526567697374657265640000000000000000000000000000600082015250565b60038110612cfd57612cfc612c25565b5b50565b60048110612d1157612d10612c25565b5b50565b60068110612d2557612d24612c25565b5b50565b612d3181612a22565b8114612d3c57600080fd5b50565b60038110612d4c57600080fd5b50565b612d5881612a99565b8114612d6357600080fd5b5056fea2646970667358221220036c3547fb061d3e475c4c1df137ab835653306a2f6990f1e069085117a7e1f664736f6c63430008040033",
  "immutableReferences": {},
  "source": "// SPDX-License-Identifier: MIT\npragma solidity ^0.8.1;\nimport \"./structs.sol\";\nimport \"./modifiers.sol\";\n\ncontract User is structs, modifiers {\n    function login() public view returns (bool) {\n        return (users[addressToUser[msg.sender]].walletAddress == msg.sender);\n    }\n\n    function addUser(\n        string memory name,\n        string memory aadhar,\n        uint256 mobno,\n        string memory fatherName,\n        Gender gender,\n        string memory _state,\n        string memory _district,\n        string memory _blockName,\n        string memory _panchyatName,\n        string memory _villageName\n    ) public {\n        require(\n            users[addressToUser[msg.sender]].walletAddress != msg.sender,\n            \"Already Registered\"\n        );\n        uint256 id = ++numUsers;\n        addressToUser[msg.sender] = id;\n\n        Location memory newlocation = Location({\n            state: _state,\n            district: _district,\n            blockName: _blockName,\n            panchyatName: _panchyatName,\n            villageName: _villageName\n        });\n\n        users[id] = User(\n            numUsers++,\n            name,\n            aadhar,\n            mobno,\n            fatherName,\n            msg.sender,\n            new uint256[](0),\n            new uint256[](0),\n            0, // SHG id is zero inttially as a placeholder for every user\n            UserType.NONE,\n            gender,\n            newlocation\n        );\n    }\n\n    // Request functions for user\n\n    function makeRequest(\n        uint256 _shgid,\n        uint256 _userid,\n        uint256 _amount,\n        string memory _description,\n        uint256 _loanTime\n    ) public {\n        uint256 requestId = ++numUserRequests;\n        userRequests[requestId] = UserRequest(\n            requestId,\n            _userid,\n            _amount,\n            _description,\n            _shgid,\n            RequestStatus.IN_PROCESS,\n            _loanTime,\n            new uint256[](0)\n        );\n        users[_userid].requests.push(requestId);\n    }\n\n    function deleteRequest(uint256 _userid, uint256 _requestid)\n        public\n        onlyUser(_userid)\n    {\n        require(userRequests[_requestid].userId == _userid);\n\n        uint256 index;\n        for (uint256 i = 0; i < numUserRequests; i++) {\n            if (userRequests[i].userId == _userid) {\n                index = i;\n                break;\n            }\n        }\n        delete userRequests[index];\n    }\n\n    // Repay functions for user\n\n    function payEMI(\n        uint256 _userid,\n        uint256 _loanid,\n        uint256 _amount\n    ) public payable onlyUser(_userid) {\n        uint256 amount = getUserEMI(_userid, _loanid);\n        require(amount == _amount);\n        Loan storage loan = loans[_loanid];\n        payable(address(this)).transfer(_amount);\n        shgs[loan.lendeeId].currentBalance += _amount;\n        loan.lastEMI = block.timestamp;\n    }\n\n    // fetch functions\n\n    function getUserEMI(uint256 userid, uint256 loanid)\n        public\n        onlyUser(userid)\n        returns (uint256)\n    {\n        Loan storage loan = loans[loanid];\n        uint256 months = ((block.timestamp - loan.lastEMI) / 24) * 60 * 60 * 30;\n\n        require(months > 0);\n        uint256 P = loan.amount;\n        uint256 r = loan.intrest;\n        uint256 t = loan.loanTime;\n        uint256 emi = (P * (1 + ((r / 100) * 12))) ^ ((12 * t) - P);\n\n        loan.amount = loan.amount - emi;\n        return emi;\n    }\n\n    function getAllLoans(uint256 userid)\n        public\n        view\n        onlyUser(userid)\n        returns (uint256[] memory)\n    {\n        return users[userid].loansTaken;\n    }\n\n    function getUserLoanAmount(uint256 _userid) public view returns (uint256) {\n        uint256 amount = 0;\n        uint256[] memory loans = users[_userid].loansTaken;\n        for (uint256 i = 0; i < loans.length; i++) {\n            amount += loans[i];\n        }\n        return amount;\n    }\n\n    // function flagDefaulters() public {}\n}\n",
  "sourcePath": "/home/sdas/code/yogdaan-contracts/contracts/lib/User.sol",
  "compiler": {
    "name": "solc",
    "version": "0.8.4+commit.c7e474f2.Emscripten.clang"
  },
  "schemaVersion": "3.4.9",
  "updatedAt": "2022-08-25T04:36:56.146Z",
  "devdoc": {
    "kind": "dev",
    "methods": {},
    "version": 1
  },
  "userdoc": {
    "kind": "user",
    "methods": {},
    "version": 1
  }
}