{
  "contractName": "User",
  "abi": [
    {
      "inputs": [
        {
          "internalType": "address",
          "name": "",
          "type": "address"
        }
      ],
      "name": "addressToBankid",
      "outputs": [
        {
          "internalType": "uint256",
          "name": "",
          "type": "uint256"
        }
      ],
      "stateMutability": "view",
      "type": "function"
    },
    {
      "inputs": [
        {
          "internalType": "address",
          "name": "",
          "type": "address"
        }
      ],
      "name": "addressToSHGid",
      "outputs": [
        {
          "internalType": "uint256",
          "name": "",
          "type": "uint256"
        }
      ],
      "stateMutability": "view",
      "type": "function"
    },
    {
      "inputs": [
        {
          "internalType": "address",
          "name": "",
          "type": "address"
        }
      ],
      "name": "addressToUser",
      "outputs": [
        {
          "internalType": "uint256",
          "name": "",
          "type": "uint256"
        }
      ],
      "stateMutability": "view",
      "type": "function"
    },
    {
      "inputs": [
        {
          "internalType": "uint256",
          "name": "",
          "type": "uint256"
        }
      ],
      "name": "banks",
      "outputs": [
        {
          "internalType": "uint256",
          "name": "id",
          "type": "uint256"
        },
        {
          "internalType": "string",
          "name": "name",
          "type": "string"
        },
        {
          "internalType": "address",
          "name": "walletAddress",
          "type": "address"
        },
        {
          "internalType": "string",
          "name": "code",
          "type": "string"
        },
        {
          "internalType": "uint256",
          "name": "intrestRate",
          "type": "uint256"
        }
      ],
      "stateMutability": "view",
      "type": "function"
    },
    {
      "inputs": [
        {
          "internalType": "string",
          "name": "",
          "type": "string"
        },
        {
          "internalType": "uint256",
          "name": "",
          "type": "uint256"
        }
      ],
      "name": "districtToSHGs",
      "outputs": [
        {
          "internalType": "uint256",
          "name": "",
          "type": "uint256"
        }
      ],
      "stateMutability": "view",
      "type": "function"
    },
    {
      "inputs": [
        {
          "internalType": "uint256",
          "name": "",
          "type": "uint256"
        }
      ],
      "name": "loans",
      "outputs": [
        {
          "internalType": "uint256",
          "name": "loanId",
          "type": "uint256"
        },
        {
          "internalType": "uint256",
          "name": "lenderId",
          "type": "uint256"
        },
        {
          "internalType": "uint256",
          "name": "amount",
          "type": "uint256"
        },
        {
          "internalType": "uint256",
          "name": "lendeeId",
          "type": "uint256"
        },
        {
          "internalType": "uint256",
          "name": "intrest",
          "type": "uint256"
        },
        {
          "internalType": "uint256",
          "name": "loanTime",
          "type": "uint256"
        },
        {
          "internalType": "uint256",
          "name": "date",
          "type": "uint256"
        },
        {
          "internalType": "uint256",
          "name": "lastEMI",
          "type": "uint256"
        }
      ],
      "stateMutability": "view",
      "type": "function"
    },
    {
      "inputs": [
        {
          "internalType": "uint256",
          "name": "",
          "type": "uint256"
        }
      ],
      "name": "shgRequests",
      "outputs": [
        {
          "internalType": "uint256",
          "name": "requestid",
          "type": "uint256"
        },
        {
          "internalType": "uint256",
          "name": "shgid",
          "type": "uint256"
        },
        {
          "internalType": "uint256",
          "name": "amount",
          "type": "uint256"
        },
        {
          "internalType": "uint256",
          "name": "loanTime",
          "type": "uint256"
        },
        {
          "internalType": "enum structs.RequestStatus",
          "name": "status",
          "type": "uint8"
        }
      ],
      "stateMutability": "view",
      "type": "function"
    },
    {
      "inputs": [
        {
          "internalType": "uint256",
          "name": "",
          "type": "uint256"
        },
        {
          "internalType": "uint256",
          "name": "",
          "type": "uint256"
        }
      ],
      "name": "shgToRequests",
      "outputs": [
        {
          "internalType": "uint256",
          "name": "",
          "type": "uint256"
        }
      ],
      "stateMutability": "view",
      "type": "function"
    },
    {
      "inputs": [
        {
          "internalType": "uint256",
          "name": "",
          "type": "uint256"
        }
      ],
      "name": "shgs",
      "outputs": [
        {
          "internalType": "uint256",
          "name": "id",
          "type": "uint256"
        },
        {
          "internalType": "string",
          "name": "name",
          "type": "string"
        },
        {
          "components": [
            {
              "internalType": "string",
              "name": "state",
              "type": "string"
            },
            {
              "internalType": "string",
              "name": "district",
              "type": "string"
            },
            {
              "internalType": "string",
              "name": "blockName",
              "type": "string"
            },
            {
              "internalType": "string",
              "name": "panchyatName",
              "type": "string"
            },
            {
              "internalType": "string",
              "name": "villageName",
              "type": "string"
            }
          ],
          "internalType": "struct structs.Location",
          "name": "location",
          "type": "tuple"
        },
        {
          "internalType": "string",
          "name": "dateOfFormation",
          "type": "string"
        },
        {
          "internalType": "uint256",
          "name": "currentBalance",
          "type": "uint256"
        },
        {
          "internalType": "uint256",
          "name": "owedBalance",
          "type": "uint256"
        },
        {
          "internalType": "uint256",
          "name": "baseIntrest",
          "type": "uint256"
        }
      ],
      "stateMutability": "view",
      "type": "function"
    },
    {
      "inputs": [
        {
          "internalType": "uint256",
          "name": "",
          "type": "uint256"
        }
      ],
      "name": "userRequests",
      "outputs": [
        {
          "internalType": "uint256",
          "name": "requestId",
          "type": "uint256"
        },
        {
          "internalType": "uint256",
          "name": "userId",
          "type": "uint256"
        },
        {
          "internalType": "uint256",
          "name": "amount",
          "type": "uint256"
        },
        {
          "internalType": "string",
          "name": "description",
          "type": "string"
        },
        {
          "internalType": "uint256",
          "name": "SHGId",
          "type": "uint256"
        },
        {
          "internalType": "enum structs.RequestStatus",
          "name": "status",
          "type": "uint8"
        },
        {
          "internalType": "uint256",
          "name": "loanTime",
          "type": "uint256"
        }
      ],
      "stateMutability": "view",
      "type": "function"
    },
    {
      "inputs": [
        {
          "internalType": "uint256",
          "name": "",
          "type": "uint256"
        },
        {
          "internalType": "uint256",
          "name": "",
          "type": "uint256"
        }
      ],
      "name": "userToRequests",
      "outputs": [
        {
          "internalType": "uint256",
          "name": "",
          "type": "uint256"
        }
      ],
      "stateMutability": "view",
      "type": "function"
    },
    {
      "inputs": [
        {
          "internalType": "uint256",
          "name": "",
          "type": "uint256"
        }
      ],
      "name": "users",
      "outputs": [
        {
          "internalType": "uint256",
          "name": "id",
          "type": "uint256"
        },
        {
          "internalType": "string",
          "name": "name",
          "type": "string"
        },
        {
          "internalType": "string",
          "name": "aadhar",
          "type": "string"
        },
        {
          "internalType": "uint256",
          "name": "mobno",
          "type": "uint256"
        },
        {
          "internalType": "string",
          "name": "fatherName",
          "type": "string"
        },
        {
          "internalType": "address",
          "name": "walletAddress",
          "type": "address"
        },
        {
          "internalType": "uint256",
          "name": "shgid",
          "type": "uint256"
        },
        {
          "internalType": "enum structs.UserType",
          "name": "userType",
          "type": "uint8"
        },
        {
          "internalType": "enum structs.Gender",
          "name": "gender",
          "type": "uint8"
        },
        {
          "components": [
            {
              "internalType": "string",
              "name": "state",
              "type": "string"
            },
            {
              "internalType": "string",
              "name": "district",
              "type": "string"
            },
            {
              "internalType": "string",
              "name": "blockName",
              "type": "string"
            },
            {
              "internalType": "string",
              "name": "panchyatName",
              "type": "string"
            },
            {
              "internalType": "string",
              "name": "villageName",
              "type": "string"
            }
          ],
          "internalType": "struct structs.Location",
          "name": "location",
          "type": "tuple"
        }
      ],
      "stateMutability": "view",
      "type": "function"
    },
    {
      "inputs": [],
      "name": "login",
      "outputs": [
        {
          "internalType": "bool",
          "name": "",
          "type": "bool"
        }
      ],
      "stateMutability": "view",
      "type": "function"
    },
    {
      "inputs": [
        {
          "internalType": "string",
          "name": "name",
          "type": "string"
        },
        {
          "internalType": "string",
          "name": "aadhar",
          "type": "string"
        },
        {
          "internalType": "uint256",
          "name": "mobno",
          "type": "uint256"
        },
        {
          "internalType": "string",
          "name": "fatherName",
          "type": "string"
        },
        {
          "internalType": "enum structs.Gender",
          "name": "gender",
          "type": "uint8"
        },
        {
          "internalType": "string",
          "name": "_state",
          "type": "string"
        },
        {
          "internalType": "string",
          "name": "_district",
          "type": "string"
        },
        {
          "internalType": "string",
          "name": "_blockName",
          "type": "string"
        },
        {
          "internalType": "string",
          "name": "_panchyatName",
          "type": "string"
        },
        {
          "internalType": "string",
          "name": "_villageName",
          "type": "string"
        }
      ],
      "name": "addUser",
      "outputs": [],
      "stateMutability": "nonpayable",
      "type": "function"
    },
    {
      "inputs": [
        {
          "internalType": "uint256",
          "name": "_shgid",
          "type": "uint256"
        },
        {
          "internalType": "uint256",
          "name": "_userid",
          "type": "uint256"
        },
        {
          "internalType": "uint256",
          "name": "_amount",
          "type": "uint256"
        },
        {
          "internalType": "string",
          "name": "_description",
          "type": "string"
        },
        {
          "internalType": "uint256",
          "name": "_loanTime",
          "type": "uint256"
        }
      ],
      "name": "makeRequest",
      "outputs": [],
      "stateMutability": "nonpayable",
      "type": "function"
    },
    {
      "inputs": [
        {
          "internalType": "uint256",
          "name": "_userid",
          "type": "uint256"
        },
        {
          "internalType": "uint256",
          "name": "_requestid",
          "type": "uint256"
        }
      ],
      "name": "deleteRequest",
      "outputs": [],
      "stateMutability": "nonpayable",
      "type": "function"
    },
    {
      "inputs": [
        {
          "internalType": "uint256",
          "name": "_userid",
          "type": "uint256"
        },
        {
          "internalType": "uint256",
          "name": "_loanid",
          "type": "uint256"
        },
        {
          "internalType": "uint256",
          "name": "_amount",
          "type": "uint256"
        }
      ],
      "name": "payEMI",
      "outputs": [],
      "stateMutability": "payable",
      "type": "function"
    },
    {
      "inputs": [],
      "name": "getNumUsers",
      "outputs": [
        {
          "internalType": "uint256",
          "name": "",
          "type": "uint256"
        }
      ],
      "stateMutability": "view",
      "type": "function"
    },
    {
      "inputs": [
        {
          "internalType": "uint256",
          "name": "_userid",
          "type": "uint256"
        }
      ],
      "name": "getUserRequest",
      "outputs": [
        {
          "internalType": "uint256[]",
          "name": "",
          "type": "uint256[]"
        }
      ],
      "stateMutability": "view",
      "type": "function"
    },
    {
      "inputs": [
        {
          "internalType": "uint256",
          "name": "userid",
          "type": "uint256"
        },
        {
          "internalType": "uint256",
          "name": "loanid",
          "type": "uint256"
        }
      ],
      "name": "getUserEMI",
      "outputs": [
        {
          "internalType": "uint256",
          "name": "",
          "type": "uint256"
        }
      ],
      "stateMutability": "nonpayable",
      "type": "function"
    },
    {
      "inputs": [
        {
          "internalType": "uint256",
          "name": "userid",
          "type": "uint256"
        }
      ],
      "name": "getAllLoans",
      "outputs": [
        {
          "internalType": "uint256[]",
          "name": "",
          "type": "uint256[]"
        }
      ],
      "stateMutability": "view",
      "type": "function"
    },
    {
      "inputs": [
        {
          "internalType": "uint256",
          "name": "_userid",
          "type": "uint256"
        }
      ],
      "name": "getUserLoanAmount",
      "outputs": [
        {
          "internalType": "uint256",
          "name": "",
          "type": "uint256"
        }
      ],
      "stateMutability": "view",
      "type": "function"
    }
  ],
  "bytecode": "0x608060405234801561001057600080fd5b50613098806100206000396000f3fe6080604052600436106101345760003560e01c80633cec4272116100ab578063b34e97e81161006f578063b34e97e8146104cb578063cfcb4b2f146104f6578063e1ec3c6814610533578063edf5388614610577578063f61074ff146105b4578063f736ae43146105f157610134565b80633cec4272146103c757806342f5f8151461040457806361c91b701461042057806365f88c0d1461045d578063941696561461048857610134565b8063257a170b116100fd578063257a170b1461025a57806326271cf21461029b5780632e131046146102de578063365b98b2146103075780633ae0058f1461034d5780633c5657571461038a57610134565b806285ae2b146101395780630227f4351461017a578063089511f7146101a35780630c1c7883146101e05780631d3ff78a1461021d575b600080fd5b34801561014557600080fd5b50610160600480360381019061015b91906124a8565b61061a565b604051610171959493929190612869565b60405180910390f35b34801561018657600080fd5b506101a1600480360381019061019c919061255c565b610780565b005b3480156101af57600080fd5b506101ca60048036038101906101c591906124a8565b6109d3565b6040516101d7919061284e565b60405180910390f35b3480156101ec57600080fd5b50610207600480360381019061020291906124d1565b610aba565b604051610214919061284e565b60405180910390f35b34801561022957600080fd5b50610244600480360381019061023f91906124a8565b610aeb565b60405161025191906127f1565b60405180910390f35b34801561026657600080fd5b50610281600480360381019061027c91906124a8565b610b58565b604051610292959493929190612a7c565b60405180910390f35b3480156102a757600080fd5b506102c260048036038101906102bd91906124a8565b610b9b565b6040516102d59796959493929190612982565b60405180910390f35b3480156102ea57600080fd5b50610305600480360381019061030091906122b9565b610fd1565b005b34801561031357600080fd5b5061032e600480360381019061032991906124a8565b61156f565b6040516103449a999897969594939291906128ca565b60405180910390f35b34801561035957600080fd5b50610374600480360381019061036f9190612290565b611a79565b604051610381919061284e565b60405180910390f35b34801561039657600080fd5b506103b160048036038101906103ac91906124d1565b611a91565b6040516103be919061284e565b60405180910390f35b3480156103d357600080fd5b506103ee60048036038101906103e99190612454565b611ba3565b6040516103fb919061284e565b60405180910390f35b61041e6004803603810190610419919061250d565b611bea565b005b34801561042c57600080fd5b5061044760048036038101906104429190612290565b611cc8565b604051610454919061284e565b60405180910390f35b34801561046957600080fd5b50610472611ce0565b60405161047f919061284e565b60405180910390f35b34801561049457600080fd5b506104af60048036038101906104aa91906124a8565b611cea565b6040516104c29796959493929190612a06565b60405180910390f35b3480156104d757600080fd5b506104e0611dc1565b6040516104ed9190612813565b60405180910390f35b34801561050257600080fd5b5061051d600480360381019061051891906124a8565b611e6b565b60405161052a91906127f1565b60405180910390f35b34801561053f57600080fd5b5061055a600480360381019061055591906124a8565b611efd565b60405161056e989796959493929190612acf565b60405180910390f35b34801561058357600080fd5b5061059e60048036038101906105999190612290565b611f45565b6040516105ab919061284e565b60405180910390f35b3480156105c057600080fd5b506105db60048036038101906105d691906124d1565b611f5d565b6040516105e8919061284e565b60405180910390f35b3480156105fd57600080fd5b50610618600480360381019061061391906124d1565b611f8e565b005b600360205280600052604060002060009150905080600001549080600101805461064390612e17565b80601f016020809104026020016040519081016040528092919081815260200182805461066f90612e17565b80156106bc5780601f10610691576101008083540402835291602001916106bc565b820191906000526020600020905b81548152906001019060200180831161069f57829003601f168201915b5050505050908060020160009054906101000a900473ffffffffffffffffffffffffffffffffffffffff16908060030180546106f790612e17565b80601f016020809104026020016040519081016040528092919081815260200182805461072390612e17565b80156107705780601f1061074557610100808354040283529160200191610770565b820191906000526020600020905b81548152906001019060200180831161075357829003601f168201915b5050505050908060040154905085565b6000600e6000815461079190612e7a565b91905081905590506040518061010001604052808281526020018681526020018581526020018481526020018781526020016003808111156107fc577f4e487b7100000000000000000000000000000000000000000000000000000000600052602160045260246000fd5b8152602001838152602001600067ffffffffffffffff811115610848577f4e487b7100000000000000000000000000000000000000000000000000000000600052604160045260246000fd5b6040519080825280602002602001820160405280156108765781602001602082028036833780820191505090505b508152506006600083815260200190815260200160002060008201518160000155602082015181600101556040820151816002015560608201518160030190805190602001906108c7929190612098565b506080820151816004015560a08201518160050160006101000a81548160ff02191690836003811115610923577f4e487b7100000000000000000000000000000000000000000000000000000000600052602160045260246000fd5b021790555060c0820151816006015560e082015181600701908051906020019061094e92919061211e565b5090505060008086815260200190815260200160002060070181908060018154018082558091505060019003906000526020600020016000909190919091505560016000878152602001908152602001600020600d01819080600181540180825580915050600190039060005260206000200160009091909190915055505050505050565b600080600090506000806000858152602001908152602001600020600601805480602002602001604051908101604052809291908181526020018280548015610a3b57602002820191906000526020600020905b815481526020019060010190808311610a27575b5050505050905060005b8151811015610aaf57818181518110610a87577f4e487b7100000000000000000000000000000000000000000000000000000000600052603260045260246000fd5b602002602001015183610a9a9190612c09565b92508080610aa790612e7a565b915050610a45565b508192505050919050565b600a6020528160005260406000208181548110610ad657600080fd5b90600052602060002001600091509150505481565b6060600080838152602001908152602001600020600701805480602002602001604051908101604052809291908181526020018280548015610b4c57602002820191906000526020600020905b815481526020019060010190808311610b38575b50505050509050919050565b60076020528060005260406000206000915090508060000154908060010154908060020154908060030154908060040160009054906101000a900460ff16905085565b6001602052806000526040600020600091509050806000015490806002018054610bc490612e17565b80601f0160208091040260200160405190810160405280929190818152602001828054610bf090612e17565b8015610c3d5780601f10610c1257610100808354040283529160200191610c3d565b820191906000526020600020905b815481529060010190602001808311610c2057829003601f168201915b505050505090806003016040518060a0016040529081600082018054610c6290612e17565b80601f0160208091040260200160405190810160405280929190818152602001828054610c8e90612e17565b8015610cdb5780601f10610cb057610100808354040283529160200191610cdb565b820191906000526020600020905b815481529060010190602001808311610cbe57829003601f168201915b50505050508152602001600182018054610cf490612e17565b80601f0160208091040260200160405190810160405280929190818152602001828054610d2090612e17565b8015610d6d5780601f10610d4257610100808354040283529160200191610d6d565b820191906000526020600020905b815481529060010190602001808311610d5057829003601f168201915b50505050508152602001600282018054610d8690612e17565b80601f0160208091040260200160405190810160405280929190818152602001828054610db290612e17565b8015610dff5780601f10610dd457610100808354040283529160200191610dff565b820191906000526020600020905b815481529060010190602001808311610de257829003601f168201915b50505050508152602001600382018054610e1890612e17565b80601f0160208091040260200160405190810160405280929190818152602001828054610e4490612e17565b8015610e915780601f10610e6657610100808354040283529160200191610e91565b820191906000526020600020905b815481529060010190602001808311610e7457829003601f168201915b50505050508152602001600482018054610eaa90612e17565b80601f0160208091040260200160405190810160405280929190818152602001828054610ed690612e17565b8015610f235780601f10610ef857610100808354040283529160200191610f23565b820191906000526020600020905b815481529060010190602001808311610f0657829003601f168201915b50505050508152505090806008018054610f3c90612e17565b80601f0160208091040260200160405190810160405280929190818152602001828054610f6890612e17565b8015610fb55780601f10610f8a57610100808354040283529160200191610fb5565b820191906000526020600020905b815481529060010190602001808311610f9857829003601f168201915b50505050509080600901549080600a01549080600e0154905087565b3373ffffffffffffffffffffffffffffffffffffffff16600080600460003373ffffffffffffffffffffffffffffffffffffffff1673ffffffffffffffffffffffffffffffffffffffff16815260200190815260200160002054815260200190815260200160002060050160009054906101000a900473ffffffffffffffffffffffffffffffffffffffff1673ffffffffffffffffffffffffffffffffffffffff1614156110b4576040517f08c379a00000000000000000000000000000000000000000000000000000000081526004016110ab9061282e565b60405180910390fd5b6000600c600081546110c590612e7a565b919050819055905080600460003373ffffffffffffffffffffffffffffffffffffffff1673ffffffffffffffffffffffffffffffffffffffff1681526020019081526020016000208190555060006040518060a00160405280888152602001878152602001868152602001858152602001848152509050604051806101800160405280600c600081548092919061115b90612e7a565b9190505581526020018d81526020018c81526020018b81526020018a81526020013373ffffffffffffffffffffffffffffffffffffffff168152602001600067ffffffffffffffff8111156111d9577f4e487b7100000000000000000000000000000000000000000000000000000000600052604160045260246000fd5b6040519080825280602002602001820160405280156112075781602001602082028036833780820191505090505b508152602001600067ffffffffffffffff81111561124e577f4e487b7100000000000000000000000000000000000000000000000000000000600052604160045260246000fd5b60405190808252806020026020018201604052801561127c5781602001602082028036833780820191505090505b50815260200160008152602001600460058111156112c3577f4e487b7100000000000000000000000000000000000000000000000000000000600052602160045260246000fd5b8152602001896002811115611301577f4e487b7100000000000000000000000000000000000000000000000000000000600052602160045260246000fd5b815260200182815250600080848152602001908152602001600020600082015181600001556020820151816001019080519060200190611342929190612098565b50604082015181600201908051906020019061135f929190612098565b50606082015181600301556080820151816004019080519060200190611386929190612098565b5060a08201518160050160006101000a81548173ffffffffffffffffffffffffffffffffffffffff021916908373ffffffffffffffffffffffffffffffffffffffff16021790555060c08201518160060190805190602001906113ea92919061211e565b5060e082015181600701908051906020019061140792919061211e565b5061010082015181600801556101208201518160090160006101000a81548160ff02191690836005811115611465577f4e487b7100000000000000000000000000000000000000000000000000000000600052602160045260246000fd5b02179055506101408201518160090160016101000a81548160ff021916908360028111156114bc577f4e487b7100000000000000000000000000000000000000000000000000000000600052602160045260246000fd5b021790555061016082015181600a0160008201518160000190805190602001906114e7929190612098565b506020820151816001019080519060200190611504929190612098565b506040820151816002019080519060200190611521929190612098565b50606082015181600301908051906020019061153e929190612098565b50608082015181600401908051906020019061155b929190612098565b505050905050505050505050505050505050565b600060205280600052604060002060009150905080600001549080600101805461159890612e17565b80601f01602080910402602001604051908101604052809291908181526020018280546115c490612e17565b80156116115780601f106115e657610100808354040283529160200191611611565b820191906000526020600020905b8154815290600101906020018083116115f457829003601f168201915b50505050509080600201805461162690612e17565b80601f016020809104026020016040519081016040528092919081815260200182805461165290612e17565b801561169f5780601f106116745761010080835404028352916020019161169f565b820191906000526020600020905b81548152906001019060200180831161168257829003601f168201915b5050505050908060030154908060040180546116ba90612e17565b80601f01602080910402602001604051908101604052809291908181526020018280546116e690612e17565b80156117335780601f1061170857610100808354040283529160200191611733565b820191906000526020600020905b81548152906001019060200180831161171657829003601f168201915b5050505050908060050160009054906101000a900473ffffffffffffffffffffffffffffffffffffffff16908060080154908060090160009054906101000a900460ff16908060090160019054906101000a900460ff169080600a016040518060a00160405290816000820180546117aa90612e17565b80601f01602080910402602001604051908101604052809291908181526020018280546117d690612e17565b80156118235780601f106117f857610100808354040283529160200191611823565b820191906000526020600020905b81548152906001019060200180831161180657829003601f168201915b5050505050815260200160018201805461183c90612e17565b80601f016020809104026020016040519081016040528092919081815260200182805461186890612e17565b80156118b55780601f1061188a576101008083540402835291602001916118b5565b820191906000526020600020905b81548152906001019060200180831161189857829003601f168201915b505050505081526020016002820180546118ce90612e17565b80601f01602080910402602001604051908101604052809291908181526020018280546118fa90612e17565b80156119475780601f1061191c57610100808354040283529160200191611947565b820191906000526020600020905b81548152906001019060200180831161192a57829003601f168201915b5050505050815260200160038201805461196090612e17565b80601f016020809104026020016040519081016040528092919081815260200182805461198c90612e17565b80156119d95780601f106119ae576101008083540402835291602001916119d9565b820191906000526020600020905b8154815290600101906020018083116119bc57829003601f168201915b505050505081526020016004820180546119f290612e17565b80601f0160208091040260200160405190810160405280929190818152602001828054611a1e90612e17565b8015611a6b5780601f10611a4057610100808354040283529160200191611a6b565b820191906000526020600020905b815481529060010190602001808311611a4e57829003601f168201915b50505050508152505090508a565b60086020528060005260406000206000915090505481565b6000826000806000838152602001908152602001600020600001541415611ab757600080fd5b60006005600085815260200190815260200160002090506000601e603c806018856007015442611ae79190612cea565b611af19190612c5f565b611afb9190612c90565b611b059190612c90565b611b0f9190612c90565b905060008111611b1e57600080fd5b600082600201549050600083600401549050600084600501549050600081600c611b489190612c90565b600c606485611b579190612c5f565b611b619190612c90565b6001611b6d9190612c09565b85611b789190612c90565b189050808660020154611b8b9190612cea565b86600201819055508097505050505050505092915050565b6002828051602081018201805184825260208301602085012081835280955050505050508181548110611bd557600080fd5b90600052602060002001600091509150505481565b826000806000838152602001908152602001600020600001541415611c0e57600080fd5b6000611c1a8585611a91565b9050828114611c2857600080fd5b60006005600086815260200190815260200160002090503073ffffffffffffffffffffffffffffffffffffffff166108fc859081150290604051600060405180830381858888f19350505050158015611c85573d6000803e3d6000fd5b508360016000836003015481526020019081526020016000206009016000828254611cb09190612c09565b92505081905550428160070181905550505050505050565b60096020528060005260406000206000915090505481565b6000600c54905090565b6006602052806000526040600020600091509050806000015490806001015490806002015490806003018054611d1f90612e17565b80601f0160208091040260200160405190810160405280929190818152602001828054611d4b90612e17565b8015611d985780601f10611d6d57610100808354040283529160200191611d98565b820191906000526020600020905b815481529060010190602001808311611d7b57829003601f168201915b5050505050908060040154908060050160009054906101000a900460ff16908060060154905087565b60003373ffffffffffffffffffffffffffffffffffffffff16600080600460003373ffffffffffffffffffffffffffffffffffffffff1673ffffffffffffffffffffffffffffffffffffffff16815260200190815260200160002054815260200190815260200160002060050160009054906101000a900473ffffffffffffffffffffffffffffffffffffffff1673ffffffffffffffffffffffffffffffffffffffff1614905090565b6060816000806000838152602001908152602001600020600001541415611e9157600080fd5b600080848152602001908152602001600020600601805480602002602001604051908101604052809291908181526020018280548015611ef057602002820191906000526020600020905b815481526020019060010190808311611edc575b5050505050915050919050565b60056020528060005260406000206000915090508060000154908060010154908060020154908060030154908060040154908060050154908060060154908060070154905088565b60046020528060005260406000206000915090505481565b600b6020528160005260406000208181548110611f7957600080fd5b90600052602060002001600091509150505481565b816000806000838152602001908152602001600020600001541415611fb257600080fd5b82600660008481526020019081526020016000206001015414611fd457600080fd5b600080600090505b600e5481101561201f57846006600083815260200190815260200160002060010154141561200c5780915061201f565b808061201790612e7a565b915050611fdc565b50600660008281526020019081526020016000206000808201600090556001820160009055600282016000905560038201600061205c919061216b565b60048201600090556005820160006101000a81549060ff0219169055600682016000905560078201600061209091906121ab565b505050505050565b8280546120a490612e17565b90600052602060002090601f0160209004810192826120c6576000855561210d565b82601f106120df57805160ff191683800117855561210d565b8280016001018555821561210d579182015b8281111561210c5782518255916020019190600101906120f1565b5b50905061211a91906121cc565b5090565b82805482825590600052602060002090810192821561215a579160200282015b8281111561215957825182559160200191906001019061213e565b5b50905061216791906121cc565b5090565b50805461217790612e17565b6000825580601f1061218957506121a8565b601f0160209004906000526020600020908101906121a791906121cc565b5b50565b50805460008255906000526020600020908101906121c991906121cc565b50565b5b808211156121e55760008160009055506001016121cd565b5090565b60006121fc6121f784612b72565b612b4d565b90508281526020810184848401111561221457600080fd5b61221f848285612dd5565b509392505050565b60008135905061223681613024565b92915050565b60008135905061224b8161303b565b92915050565b600082601f83011261226257600080fd5b81356122728482602086016121e9565b91505092915050565b60008135905061228a8161304b565b92915050565b6000602082840312156122a257600080fd5b60006122b084828501612227565b91505092915050565b6000806000806000806000806000806101408b8d0312156122d957600080fd5b60008b013567ffffffffffffffff8111156122f357600080fd5b6122ff8d828e01612251565b9a505060208b013567ffffffffffffffff81111561231c57600080fd5b6123288d828e01612251565b99505060406123398d828e0161227b565b98505060608b013567ffffffffffffffff81111561235657600080fd5b6123628d828e01612251565b97505060806123738d828e0161223c565b96505060a08b013567ffffffffffffffff81111561239057600080fd5b61239c8d828e01612251565b95505060c08b013567ffffffffffffffff8111156123b957600080fd5b6123c58d828e01612251565b94505060e08b013567ffffffffffffffff8111156123e257600080fd5b6123ee8d828e01612251565b9350506101008b013567ffffffffffffffff81111561240c57600080fd5b6124188d828e01612251565b9250506101208b013567ffffffffffffffff81111561243657600080fd5b6124428d828e01612251565b9150509295989b9194979a5092959850565b6000806040838503121561246757600080fd5b600083013567ffffffffffffffff81111561248157600080fd5b61248d85828601612251565b925050602061249e8582860161227b565b9150509250929050565b6000602082840312156124ba57600080fd5b60006124c88482850161227b565b91505092915050565b600080604083850312156124e457600080fd5b60006124f28582860161227b565b92505060206125038582860161227b565b9150509250929050565b60008060006060848603121561252257600080fd5b60006125308682870161227b565b93505060206125418682870161227b565b92505060406125528682870161227b565b9150509250925092565b600080600080600060a0868803121561257457600080fd5b60006125828882890161227b565b95505060206125938882890161227b565b94505060406125a48882890161227b565b935050606086013567ffffffffffffffff8111156125c157600080fd5b6125cd88828901612251565b92505060806125de8882890161227b565b9150509295509295909350565b60006125f783836127d3565b60208301905092915050565b61260c81612d1e565b82525050565b600061261d82612bb3565b6126278185612bd6565b935061263283612ba3565b8060005b8381101561266357815161264a88826125eb565b975061265583612bc9565b925050600181019050612636565b5085935050505092915050565b61267981612d30565b82525050565b61268881612d9f565b82525050565b61269781612db1565b82525050565b6126a681612dc3565b82525050565b60006126b782612bbe565b6126c18185612be7565b93506126d1818560208601612de4565b6126da81612fae565b840191505092915050565b60006126f082612bbe565b6126fa8185612bf8565b935061270a818560208601612de4565b61271381612fae565b840191505092915050565b600061272b601283612bf8565b915061273682612fbf565b602082019050919050565b600060a083016000830151848203600086015261275e82826126ac565b9150506020830151848203602086015261277882826126ac565b9150506040830151848203604086015261279282826126ac565b915050606083015184820360608601526127ac82826126ac565b915050608083015184820360808601526127c682826126ac565b9150508091505092915050565b6127dc81612d95565b82525050565b6127eb81612d95565b82525050565b6000602082019050818103600083015261280b8184612612565b905092915050565b60006020820190506128286000830184612670565b92915050565b600060208201905081810360008301526128478161271e565b9050919050565b600060208201905061286360008301846127e2565b92915050565b600060a08201905061287e60008301886127e2565b818103602083015261289081876126e5565b905061289f6040830186612603565b81810360608301526128b181856126e5565b90506128c060808301846127e2565b9695505050505050565b6000610140820190506128e0600083018d6127e2565b81810360208301526128f2818c6126e5565b90508181036040830152612906818b6126e5565b9050612915606083018a6127e2565b818103608083015261292781896126e5565b905061293660a0830188612603565b61294360c08301876127e2565b61295060e083018661269d565b61295e61010083018561267f565b8181036101208301526129718184612741565b90509b9a5050505050505050505050565b600060e082019050612997600083018a6127e2565b81810360208301526129a981896126e5565b905081810360408301526129bd8188612741565b905081810360608301526129d181876126e5565b90506129e060808301866127e2565b6129ed60a08301856127e2565b6129fa60c08301846127e2565b98975050505050505050565b600060e082019050612a1b600083018a6127e2565b612a2860208301896127e2565b612a3560408301886127e2565b8181036060830152612a4781876126e5565b9050612a5660808301866127e2565b612a6360a083018561268e565b612a7060c08301846127e2565b98975050505050505050565b600060a082019050612a9160008301886127e2565b612a9e60208301876127e2565b612aab60408301866127e2565b612ab860608301856127e2565b612ac5608083018461268e565b9695505050505050565b600061010082019050612ae5600083018b6127e2565b612af2602083018a6127e2565b612aff60408301896127e2565b612b0c60608301886127e2565b612b1960808301876127e2565b612b2660a08301866127e2565b612b3360c08301856127e2565b612b4060e08301846127e2565b9998505050505050505050565b6000612b57612b68565b9050612b638282612e49565b919050565b6000604051905090565b600067ffffffffffffffff821115612b8d57612b8c612f7f565b5b612b9682612fae565b9050602081019050919050565b6000819050602082019050919050565b600081519050919050565b600081519050919050565b6000602082019050919050565b600082825260208201905092915050565b600082825260208201905092915050565b600082825260208201905092915050565b6000612c1482612d95565b9150612c1f83612d95565b9250827fffffffffffffffffffffffffffffffffffffffffffffffffffffffffffffffff03821115612c5457612c53612ec3565b5b828201905092915050565b6000612c6a82612d95565b9150612c7583612d95565b925082612c8557612c84612ef2565b5b828204905092915050565b6000612c9b82612d95565b9150612ca683612d95565b9250817fffffffffffffffffffffffffffffffffffffffffffffffffffffffffffffffff0483118215151615612cdf57612cde612ec3565b5b828202905092915050565b6000612cf582612d95565b9150612d0083612d95565b925082821015612d1357612d12612ec3565b5b828203905092915050565b6000612d2982612d75565b9050919050565b60008115159050919050565b6000819050612d4a82612fe8565b919050565b6000819050612d5d82612ffc565b919050565b6000819050612d7082613010565b919050565b600073ffffffffffffffffffffffffffffffffffffffff82169050919050565b6000819050919050565b6000612daa82612d3c565b9050919050565b6000612dbc82612d4f565b9050919050565b6000612dce82612d62565b9050919050565b82818337600083830152505050565b60005b83811015612e02578082015181840152602081019050612de7565b83811115612e11576000848401525b50505050565b60006002820490506001821680612e2f57607f821691505b60208210811415612e4357612e42612f50565b5b50919050565b612e5282612fae565b810181811067ffffffffffffffff82111715612e7157612e70612f7f565b5b80604052505050565b6000612e8582612d95565b91507fffffffffffffffffffffffffffffffffffffffffffffffffffffffffffffffff821415612eb857612eb7612ec3565b5b600182019050919050565b7f4e487b7100000000000000000000000000000000000000000000000000000000600052601160045260246000fd5b7f4e487b7100000000000000000000000000000000000000000000000000000000600052601260045260246000fd5b7f4e487b7100000000000000000000000000000000000000000000000000000000600052602160045260246000fd5b7f4e487b7100000000000000000000000000000000000000000000000000000000600052602260045260246000fd5b7f4e487b7100000000000000000000000000000000000000000000000000000000600052604160045260246000fd5b6000601f19601f8301169050919050565b7f416c726561647920526567697374657265640000000000000000000000000000600082015250565b60038110612ff957612ff8612f21565b5b50565b6004811061300d5761300c612f21565b5b50565b6006811061302157613020612f21565b5b50565b61302d81612d1e565b811461303857600080fd5b50565b6003811061304857600080fd5b50565b61305481612d95565b811461305f57600080fd5b5056fea2646970667358221220b703d77de373f28ca8068c9fe513cddfa8d816ca0c82db6808a71b6f6ac70f2b64736f6c63430008040033",
  "immutableReferences": {},
  "source": "// SPDX-License-Identifier: MIT\npragma solidity ^0.8.1;\nimport \"./structs.sol\";\nimport \"./modifiers.sol\";\n\ncontract User is structs, modifiers {\n    function login() public view returns (bool) {\n        return (users[addressToUser[msg.sender]].walletAddress == msg.sender);\n    }\n\n    function addUser(\n        string memory name,\n        string memory aadhar,\n        uint256 mobno,\n        string memory fatherName,\n        Gender gender,\n        string memory _state,\n        string memory _district,\n        string memory _blockName,\n        string memory _panchyatName,\n        string memory _villageName\n    ) public {\n        require(\n            users[addressToUser[msg.sender]].walletAddress != msg.sender,\n            \"Already Registered\"\n        );\n        uint256 id = ++numUsers;\n        addressToUser[msg.sender] = id;\n\n        Location memory newlocation = Location({\n            state: _state,\n            district: _district,\n            blockName: _blockName,\n            panchyatName: _panchyatName,\n            villageName: _villageName\n        });\n\n        users[id] = User(\n            numUsers++,\n            name,\n            aadhar,\n            mobno,\n            fatherName,\n            msg.sender,\n            new uint256[](0),\n            new uint256[](0),\n            0, // SHG id is zero inttially as a placeholder for every user\n            UserType.NONE,\n            gender,\n            newlocation\n        );\n    }\n\n    // Request functions for user\n\n    function makeRequest(\n        uint256 _shgid,\n        uint256 _userid,\n        uint256 _amount,\n        string memory _description,\n        uint256 _loanTime\n    ) public {\n        uint256 requestId = ++numUserRequests;\n        userRequests[requestId] = UserRequest(\n            requestId,\n            _userid,\n            _amount,\n            _description,\n            _shgid,\n            RequestStatus.IN_PROCESS,\n            _loanTime,\n            new uint256[](0)\n        );\n        users[_userid].requests.push(requestId);\n        shgs[_shgid].userRequests.push(requestId);\n    }\n\n    function deleteRequest(uint256 _userid, uint256 _requestid)\n        public\n        onlyUser(_userid)\n    {\n        require(userRequests[_requestid].userId == _userid);\n\n        uint256 index;\n        for (uint256 i = 0; i < numUserRequests; i++) {\n            if (userRequests[i].userId == _userid) {\n                index = i;\n                break;\n            }\n        }\n        delete userRequests[index];\n    }\n\n    // Repay functions for user\n\n    function payEMI(\n        uint256 _userid,\n        uint256 _loanid,\n        uint256 _amount\n    ) public payable onlyUser(_userid) {\n        uint256 amount = getUserEMI(_userid, _loanid);\n        require(amount == _amount);\n        Loan storage loan = loans[_loanid];\n        payable(address(this)).transfer(_amount);\n        shgs[loan.lendeeId].currentBalance += _amount;\n        loan.lastEMI = block.timestamp;\n    }\n\n    // fetch functions\n\n    function getNumUsers() public view returns (uint256) {\n        return numUsers;\n    }\n\n    function getUserRequest(uint256 _userid)\n        public\n        view\n        returns (uint256[] memory)\n    {\n        return users[_userid].requests;\n    }\n\n    function getUserEMI(uint256 userid, uint256 loanid)\n        public\n        onlyUser(userid)\n        returns (uint256)\n    {\n        Loan storage loan = loans[loanid];\n        uint256 months = ((block.timestamp - loan.lastEMI) / 24) * 60 * 60 * 30;\n\n        require(months > 0);\n        uint256 P = loan.amount;\n        uint256 r = loan.intrest;\n        uint256 t = loan.loanTime;\n        uint256 emi = (P * (1 + ((r / 100) * 12))) ^ ((12 * t));\n\n        loan.amount = loan.amount - emi;\n        return emi;\n    }\n\n    function getAllLoans(uint256 userid)\n        public\n        view\n        onlyUser(userid)\n        returns (uint256[] memory)\n    {\n        return users[userid].loansTaken;\n    }\n\n    function getUserLoanAmount(uint256 _userid) public view returns (uint256) {\n        uint256 amount = 0;\n        uint256[] memory loans = users[_userid].loansTaken;\n        for (uint256 i = 0; i < loans.length; i++) {\n            amount += loans[i];\n        }\n        return amount;\n    }\n\n    // function flagDefaulters() public {}\n}\n",
  "sourcePath": "/home/sdas/code/yogdaan-contracts/contracts/lib/User.sol",
  "compiler": {
    "name": "solc",
    "version": "0.8.4+commit.c7e474f2.Emscripten.clang"
  },
  "schemaVersion": "3.4.9",
  "updatedAt": "2022-08-26T03:00:35.645Z",
  "devdoc": {
    "kind": "dev",
    "methods": {},
    "version": 1
  },
  "userdoc": {
    "kind": "user",
    "methods": {},
    "version": 1
  }
}