{
  "contractName": "User",
  "abi": [
    {
      "inputs": [
        {
          "internalType": "uint256",
          "name": "",
          "type": "uint256"
        }
      ],
      "name": "shgs",
      "outputs": [
        {
          "internalType": "uint256",
          "name": "id",
          "type": "uint256"
        },
        {
          "internalType": "string",
          "name": "name",
          "type": "string"
        },
        {
          "components": [
            {
              "internalType": "string",
              "name": "state",
              "type": "string"
            },
            {
              "internalType": "string",
              "name": "district",
              "type": "string"
            },
            {
              "internalType": "string",
              "name": "blockName",
              "type": "string"
            },
            {
              "internalType": "string",
              "name": "panchyarName",
              "type": "string"
            },
            {
              "internalType": "string",
              "name": "villageName",
              "type": "string"
            }
          ],
          "internalType": "struct structs.Location",
          "name": "location",
          "type": "tuple"
        },
        {
          "internalType": "string",
          "name": "dateOfFormation",
          "type": "string"
        },
        {
          "internalType": "uint256",
          "name": "currentBalance",
          "type": "uint256"
        },
        {
          "internalType": "uint256",
          "name": "owedBalance",
          "type": "uint256"
        },
        {
          "internalType": "uint256",
          "name": "baseIntrest",
          "type": "uint256"
        }
      ],
      "stateMutability": "view",
      "type": "function"
    },
    {
      "inputs": [],
      "name": "login",
      "outputs": [
        {
          "internalType": "bool",
          "name": "",
          "type": "bool"
        }
      ],
      "stateMutability": "view",
      "type": "function"
    },
    {
      "inputs": [
        {
          "internalType": "string",
          "name": "name",
          "type": "string"
        },
        {
          "internalType": "string",
          "name": "aadhar",
          "type": "string"
        },
        {
          "internalType": "uint256",
          "name": "mobno",
          "type": "uint256"
        },
        {
          "internalType": "string",
          "name": "fatherName",
          "type": "string"
        },
        {
          "internalType": "enum structs.Gender",
          "name": "gender",
          "type": "uint8"
        }
      ],
      "name": "addUser",
      "outputs": [],
      "stateMutability": "nonpayable",
      "type": "function"
    },
    {
      "inputs": [
        {
          "internalType": "uint256",
          "name": "_shgid",
          "type": "uint256"
        },
        {
          "internalType": "uint256",
          "name": "_userid",
          "type": "uint256"
        },
        {
          "internalType": "uint256",
          "name": "_amount",
          "type": "uint256"
        },
        {
          "internalType": "string",
          "name": "_description",
          "type": "string"
        },
        {
          "internalType": "uint256",
          "name": "_loanTime",
          "type": "uint256"
        }
      ],
      "name": "makeRequest",
      "outputs": [],
      "stateMutability": "nonpayable",
      "type": "function"
    },
    {
      "inputs": [
        {
          "internalType": "uint256",
          "name": "_userid",
          "type": "uint256"
        },
        {
          "internalType": "uint256",
          "name": "_requestid",
          "type": "uint256"
        }
      ],
      "name": "deleteRequest",
      "outputs": [],
      "stateMutability": "nonpayable",
      "type": "function"
    },
    {
      "inputs": [
        {
          "internalType": "uint256",
          "name": "_userid",
          "type": "uint256"
        },
        {
          "internalType": "uint256",
          "name": "_loanid",
          "type": "uint256"
        },
        {
          "internalType": "uint256",
          "name": "_amount",
          "type": "uint256"
        }
      ],
      "name": "payEMI",
      "outputs": [],
      "stateMutability": "payable",
      "type": "function"
    },
    {
      "inputs": [
        {
          "internalType": "uint256",
          "name": "userid",
          "type": "uint256"
        },
        {
          "internalType": "uint256",
          "name": "loanid",
          "type": "uint256"
        }
      ],
      "name": "getUserEMI",
      "outputs": [
        {
          "internalType": "uint256",
          "name": "",
          "type": "uint256"
        }
      ],
      "stateMutability": "nonpayable",
      "type": "function"
    },
    {
      "inputs": [
        {
          "internalType": "uint256",
          "name": "userid",
          "type": "uint256"
        }
      ],
      "name": "getAllLoans",
      "outputs": [
        {
          "internalType": "uint256[]",
          "name": "",
          "type": "uint256[]"
        }
      ],
      "stateMutability": "view",
      "type": "function"
    },
    {
      "inputs": [],
      "name": "flagDefaulters",
      "outputs": [],
      "stateMutability": "nonpayable",
      "type": "function"
    }
  ],
  "bytecode": "0x608060405234801561001057600080fd5b50611b90806100206000396000f3fe6080604052600436106100865760003560e01c80635582a13e116100595780635582a13e14610150578063b34e97e814610179578063cfcb4b2f146101a4578063ded9e96c146101e1578063f736ae43146101f857610086565b80630227f4351461008b57806326271cf2146100b45780633c565757146100f757806342f5f81514610134575b600080fd5b34801561009757600080fd5b506100b260048036038101906100ad9190611413565b610221565b005b3480156100c057600080fd5b506100db60048036038101906100d6919061135f565b6103fb565b6040516100ee97969594939291906116e4565b60405180910390f35b34801561010357600080fd5b5061011e60048036038101906101199190611388565b610831565b60405161012b91906116c9565b60405180910390f35b61014e600480360381019061014991906113c4565b61094e565b005b34801561015c57600080fd5b50610177600480360381019061017291906112a0565b610a2c565b005b34801561018557600080fd5b5061018e610e75565b60405161019b919061168e565b60405180910390f35b3480156101b057600080fd5b506101cb60048036038101906101c6919061135f565b610f1f565b6040516101d8919061166c565b60405180910390f35b3480156101ed57600080fd5b506101f6610fb1565b005b34801561020457600080fd5b5061021f600480360381019061021a9190611388565b610fb3565b005b6000600960008154610232906119f4565b919050819055905060405180610100016040528082815260200186815260200185815260200184815260200187815260200160038081111561029d577f4e487b7100000000000000000000000000000000000000000000000000000000600052602160045260246000fd5b8152602001838152602001600067ffffffffffffffff8111156102e9577f4e487b7100000000000000000000000000000000000000000000000000000000600052604160045260246000fd5b6040519080825280602002602001820160405280156103175781602001602082028036833780820191505090505b508152506005600083815260200190815260200160002060008201518160000155602082015181600101556040820151816002015560608201518160030190805190602001906103689291906110bd565b506080820151816004015560a08201518160050160006101000a81548160ff021916908360038111156103c4577f4e487b7100000000000000000000000000000000000000000000000000000000600052602160045260246000fd5b021790555060c0820151816006015560e08201518160070190805190602001906103ef929190611143565b50905050505050505050565b600160205280600052604060002060009150905080600001549080600201805461042490611991565b80601f016020809104026020016040519081016040528092919081815260200182805461045090611991565b801561049d5780601f106104725761010080835404028352916020019161049d565b820191906000526020600020905b81548152906001019060200180831161048057829003601f168201915b505050505090806003016040518060a00160405290816000820180546104c290611991565b80601f01602080910402602001604051908101604052809291908181526020018280546104ee90611991565b801561053b5780601f106105105761010080835404028352916020019161053b565b820191906000526020600020905b81548152906001019060200180831161051e57829003601f168201915b5050505050815260200160018201805461055490611991565b80601f016020809104026020016040519081016040528092919081815260200182805461058090611991565b80156105cd5780601f106105a2576101008083540402835291602001916105cd565b820191906000526020600020905b8154815290600101906020018083116105b057829003601f168201915b505050505081526020016002820180546105e690611991565b80601f016020809104026020016040519081016040528092919081815260200182805461061290611991565b801561065f5780601f106106345761010080835404028352916020019161065f565b820191906000526020600020905b81548152906001019060200180831161064257829003601f168201915b5050505050815260200160038201805461067890611991565b80601f01602080910402602001604051908101604052809291908181526020018280546106a490611991565b80156106f15780601f106106c6576101008083540402835291602001916106f1565b820191906000526020600020905b8154815290600101906020018083116106d457829003601f168201915b5050505050815260200160048201805461070a90611991565b80601f016020809104026020016040519081016040528092919081815260200182805461073690611991565b80156107835780601f1061075857610100808354040283529160200191610783565b820191906000526020600020905b81548152906001019060200180831161076657829003601f168201915b5050505050815250509080600801805461079c90611991565b80601f01602080910402602001604051908101604052809291908181526020018280546107c890611991565b80156108155780601f106107ea57610100808354040283529160200191610815565b820191906000526020600020905b8154815290600101906020018083116107f857829003601f168201915b50505050509080600901549080600a01549080600d0154905087565b600082600080600083815260200190815260200160002060000154141561085757600080fd5b60006004600085815260200190815260200160002090506000601e603c8060188560070154426108879190611905565b610891919061187a565b61089b91906118ab565b6108a591906118ab565b6108af91906118ab565b9050600081116108be57600080fd5b60008260020154905060008360040154905060008460050154905060008382600c6108e991906118ab565b6108f39190611905565b600c606485610902919061187a565b61090c91906118ab565b60016109189190611824565b8561092391906118ab565b1890508086600201546109369190611905565b86600201819055508097505050505050505092915050565b82600080600083815260200190815260200160002060000154141561097257600080fd5b600061097e8585610831565b905082811461098c57600080fd5b60006004600086815260200190815260200160002090503073ffffffffffffffffffffffffffffffffffffffff166108fc859081150290604051600060405180830381858888f193505050501580156109e9573d6000803e3d6000fd5b508360016000836003015481526020019081526020016000206009016000828254610a149190611824565b92505081905550428160070181905550505050505050565b3373ffffffffffffffffffffffffffffffffffffffff16600080600360003373ffffffffffffffffffffffffffffffffffffffff1673ffffffffffffffffffffffffffffffffffffffff16815260200190815260200160002054815260200190815260200160002060050160009054906101000a900473ffffffffffffffffffffffffffffffffffffffff1673ffffffffffffffffffffffffffffffffffffffff161415610b0f576040517f08c379a0000000000000000000000000000000000000000000000000000000008152600401610b06906116a9565b60405180910390fd5b6000600760008154610b20906119f4565b919050819055905080600360003373ffffffffffffffffffffffffffffffffffffffff1673ffffffffffffffffffffffffffffffffffffffff1681526020019081526020016000208190555060405180610160016040528060076000815480929190610b8b906119f4565b9190505581526020018781526020018681526020018581526020018481526020013373ffffffffffffffffffffffffffffffffffffffff168152602001600067ffffffffffffffff811115610c09577f4e487b7100000000000000000000000000000000000000000000000000000000600052604160045260246000fd5b604051908082528060200260200182016040528015610c375781602001602082028036833780820191505090505b508152602001600081526020016000815260200160046005811115610c85577f4e487b7100000000000000000000000000000000000000000000000000000000600052602160045260246000fd5b8152602001836002811115610cc3577f4e487b7100000000000000000000000000000000000000000000000000000000600052602160045260246000fd5b815250600080838152602001908152602001600020600082015181600001556020820151816001019080519060200190610cfe9291906110bd565b506040820151816002019080519060200190610d1b9291906110bd565b50606082015181600301556080820151816004019080519060200190610d429291906110bd565b5060a08201518160050160006101000a81548173ffffffffffffffffffffffffffffffffffffffff021916908373ffffffffffffffffffffffffffffffffffffffff16021790555060c0820151816006019080519060200190610da6929190611143565b5060e0820151816007015561010082015181600801556101208201518160090160006101000a81548160ff02191690836005811115610e0e577f4e487b7100000000000000000000000000000000000000000000000000000000600052602160045260246000fd5b02179055506101408201518160090160016101000a81548160ff02191690836002811115610e65577f4e487b7100000000000000000000000000000000000000000000000000000000600052602160045260246000fd5b0217905550905050505050505050565b60003373ffffffffffffffffffffffffffffffffffffffff16600080600360003373ffffffffffffffffffffffffffffffffffffffff1673ffffffffffffffffffffffffffffffffffffffff16815260200190815260200160002054815260200190815260200160002060050160009054906101000a900473ffffffffffffffffffffffffffffffffffffffff1673ffffffffffffffffffffffffffffffffffffffff1614905090565b6060816000806000838152602001908152602001600020600001541415610f4557600080fd5b600080848152602001908152602001600020600601805480602002602001604051908101604052809291908181526020018280548015610fa457602002820191906000526020600020905b815481526020019060010190808311610f90575b5050505050915050919050565b565b816000806000838152602001908152602001600020600001541415610fd757600080fd5b82600560008481526020019081526020016000206001015414610ff957600080fd5b600080600090505b60095481101561104457846005600083815260200190815260200160002060010154141561103157809150611044565b808061103c906119f4565b915050611001565b5060056000828152602001908152602001600020600080820160009055600182016000905560028201600090556003820160006110819190611190565b60048201600090556005820160006101000a81549060ff021916905560068201600090556007820160006110b591906111d0565b505050505050565b8280546110c990611991565b90600052602060002090601f0160209004810192826110eb5760008555611132565b82601f1061110457805160ff1916838001178555611132565b82800160010185558215611132579182015b82811115611131578251825591602001919060010190611116565b5b50905061113f91906111f1565b5090565b82805482825590600052602060002090810192821561117f579160200282015b8281111561117e578251825591602001919060010190611163565b5b50905061118c91906111f1565b5090565b50805461119c90611991565b6000825580601f106111ae57506111cd565b601f0160209004906000526020600020908101906111cc91906111f1565b5b50565b50805460008255906000526020600020908101906111ee91906111f1565b50565b5b8082111561120a5760008160009055506001016111f2565b5090565b600061122161121c8461178d565b611768565b90508281526020810184848401111561123957600080fd5b61124484828561194f565b509392505050565b60008135905061125b81611b33565b92915050565b600082601f83011261127257600080fd5b813561128284826020860161120e565b91505092915050565b60008135905061129a81611b43565b92915050565b600080600080600060a086880312156112b857600080fd5b600086013567ffffffffffffffff8111156112d257600080fd5b6112de88828901611261565b955050602086013567ffffffffffffffff8111156112fb57600080fd5b61130788828901611261565b94505060406113188882890161128b565b935050606086013567ffffffffffffffff81111561133557600080fd5b61134188828901611261565b92505060806113528882890161124c565b9150509295509295909350565b60006020828403121561137157600080fd5b600061137f8482850161128b565b91505092915050565b6000806040838503121561139b57600080fd5b60006113a98582860161128b565b92505060206113ba8582860161128b565b9150509250929050565b6000806000606084860312156113d957600080fd5b60006113e78682870161128b565b93505060206113f88682870161128b565b92505060406114098682870161128b565b9150509250925092565b600080600080600060a0868803121561142b57600080fd5b60006114398882890161128b565b955050602061144a8882890161128b565b945050604061145b8882890161128b565b935050606086013567ffffffffffffffff81111561147857600080fd5b61148488828901611261565b92505060806114958882890161128b565b9150509295509295909350565b60006114ae838361164e565b60208301905092915050565b60006114c5826117ce565b6114cf81856117f1565b93506114da836117be565b8060005b8381101561150b5781516114f288826114a2565b97506114fd836117e4565b9250506001810190506114de565b5085935050505092915050565b61152181611939565b82525050565b6000611532826117d9565b61153c8185611802565b935061154c81856020860161195e565b61155581611af9565b840191505092915050565b600061156b826117d9565b6115758185611813565b935061158581856020860161195e565b61158e81611af9565b840191505092915050565b60006115a6601283611813565b91506115b182611b0a565b602082019050919050565b600060a08301600083015184820360008601526115d98282611527565b915050602083015184820360208601526115f38282611527565b9150506040830151848203604086015261160d8282611527565b915050606083015184820360608601526116278282611527565b915050608083015184820360808601526116418282611527565b9150508091505092915050565b61165781611945565b82525050565b61166681611945565b82525050565b6000602082019050818103600083015261168681846114ba565b905092915050565b60006020820190506116a36000830184611518565b92915050565b600060208201905081810360008301526116c281611599565b9050919050565b60006020820190506116de600083018461165d565b92915050565b600060e0820190506116f9600083018a61165d565b818103602083015261170b8189611560565b9050818103604083015261171f81886115bc565b905081810360608301526117338187611560565b9050611742608083018661165d565b61174f60a083018561165d565b61175c60c083018461165d565b98975050505050505050565b6000611772611783565b905061177e82826119c3565b919050565b6000604051905090565b600067ffffffffffffffff8211156117a8576117a7611aca565b5b6117b182611af9565b9050602081019050919050565b6000819050602082019050919050565b600081519050919050565b600081519050919050565b6000602082019050919050565b600082825260208201905092915050565b600082825260208201905092915050565b600082825260208201905092915050565b600061182f82611945565b915061183a83611945565b9250827fffffffffffffffffffffffffffffffffffffffffffffffffffffffffffffffff0382111561186f5761186e611a3d565b5b828201905092915050565b600061188582611945565b915061189083611945565b9250826118a05761189f611a6c565b5b828204905092915050565b60006118b682611945565b91506118c183611945565b9250817fffffffffffffffffffffffffffffffffffffffffffffffffffffffffffffffff04831182151516156118fa576118f9611a3d565b5b828202905092915050565b600061191082611945565b915061191b83611945565b92508282101561192e5761192d611a3d565b5b828203905092915050565b60008115159050919050565b6000819050919050565b82818337600083830152505050565b60005b8381101561197c578082015181840152602081019050611961565b8381111561198b576000848401525b50505050565b600060028204905060018216806119a957607f821691505b602082108114156119bd576119bc611a9b565b5b50919050565b6119cc82611af9565b810181811067ffffffffffffffff821117156119eb576119ea611aca565b5b80604052505050565b60006119ff82611945565b91507fffffffffffffffffffffffffffffffffffffffffffffffffffffffffffffffff821415611a3257611a31611a3d565b5b600182019050919050565b7f4e487b7100000000000000000000000000000000000000000000000000000000600052601160045260246000fd5b7f4e487b7100000000000000000000000000000000000000000000000000000000600052601260045260246000fd5b7f4e487b7100000000000000000000000000000000000000000000000000000000600052602260045260246000fd5b7f4e487b7100000000000000000000000000000000000000000000000000000000600052604160045260246000fd5b6000601f19601f8301169050919050565b7f416c726561647920526567697374657265640000000000000000000000000000600082015250565b60038110611b4057600080fd5b50565b611b4c81611945565b8114611b5757600080fd5b5056fea2646970667358221220deee6188fc8bf75ae44b8ee01c5a2593531fc1a2bdf35ce882d2ddfcc0293bad64736f6c63430008040033",
  "immutableReferences": {},
  "source": "// SPDX-License-Identifier: MIT\r\npragma solidity ^0.8.1;\r\nimport \"./structs.sol\";\r\nimport \"./modifiers.sol\";\r\n\r\ncontract User is structs, modifiers {\r\n    function login() public view returns (bool) {\r\n        return (users[addressToUser[msg.sender]].walletAddress == msg.sender);\r\n    }\r\n\r\n    function addUser(\r\n        string memory name,\r\n        string memory aadhar,\r\n        uint256 mobno,\r\n        string memory fatherName,\r\n        Gender gender\r\n    ) public {\r\n        require(\r\n            users[addressToUser[msg.sender]].walletAddress != msg.sender,\r\n            \"Already Registered\"\r\n        );\r\n        uint256 id = ++numUsers;\r\n        addressToUser[msg.sender] = id;\r\n        users[id] = User(\r\n            numUsers++,\r\n            name,\r\n            aadhar,\r\n            mobno,\r\n            fatherName,\r\n            msg.sender,\r\n            new uint256[](0),\r\n            0,\r\n            0, // SHG id is zero inttially as a placeholder for every user\r\n            UserType.NONE,\r\n            gender\r\n        );\r\n    }\r\n\r\n    // Request functions for user\r\n\r\n    function makeRequest(\r\n        uint256 _shgid,\r\n        uint256 _userid,\r\n        uint256 _amount,\r\n        string memory _description,\r\n        uint256 _loanTime\r\n    ) public {\r\n        uint256 _requestId = ++numUserRequests;\r\n        userRequests[_requestId] = UserRequest(\r\n            _requestId,\r\n            _userid,\r\n            _amount,\r\n            _description,\r\n            _shgid,\r\n            RequestStatus.IN_PROCESS,\r\n            _loanTime,\r\n            new uint256[](0)\r\n        );\r\n    }\r\n\r\n    function deleteRequest(uint256 _userid, uint256 _requestid)\r\n        public\r\n        onlyUser(_userid)\r\n    {\r\n        require(userRequests[_requestid].userId == _userid);\r\n\r\n        uint256 index;\r\n        for (uint256 i = 0; i < numUserRequests; i++) {\r\n            if (userRequests[i].userId == _userid) {\r\n                index = i;\r\n                break;\r\n            }\r\n        }\r\n        delete userRequests[index];\r\n    }\r\n\r\n    // Repay functions for user\r\n\r\n    function payEMI(\r\n        uint256 _userid,\r\n        uint256 _loanid,\r\n        uint256 _amount\r\n    ) public payable onlyUser(_userid) {\r\n        uint256 amount = getUserEMI(_userid, _loanid);\r\n        require(amount == _amount);\r\n        Loan storage loan = loans[_loanid];\r\n        payable(address(this)).transfer(_amount);\r\n        shgs[loan.lendeeId].currentBalance += _amount;\r\n        loan.lastEMI = block.timestamp;\r\n    }\r\n\r\n    // fetch functions\r\n\r\n    function getUserEMI(uint256 userid, uint256 loanid)\r\n        public\r\n        onlyUser(userid)\r\n        returns (uint256)\r\n    {\r\n        Loan storage loan = loans[loanid];\r\n        uint256 months = ((block.timestamp - loan.lastEMI) / 24) * 60 * 60 * 30;\r\n\r\n        require(months > 0);\r\n        uint256 P = loan.amount;\r\n        uint256 r = loan.intrest;\r\n        uint256 t = loan.loanTime;\r\n        uint256 emi = (P * (1 + ((r / 100) * 12))) ^ ((12 * t) - P);\r\n\r\n        loan.amount = loan.amount - emi;\r\n        return emi;\r\n    }\r\n\r\n    function getAllLoans(uint256 userid)\r\n        public\r\n        view\r\n        onlyUser(userid)\r\n        returns (uint256[] memory)\r\n    {\r\n        return users[userid].loansTaken;\r\n    }\r\n\r\n    function flagDefaulters() public {}\r\n}\r\n",
  "sourcePath": "C:/Users/hardi/Desktop/yogdaan/contracts/lib/User.sol",
  "compiler": {
    "name": "solc",
    "version": "0.8.4+commit.c7e474f2.Emscripten.clang"
  },
  "schemaVersion": "3.4.0",
  "updatedAt": "2022-08-21T20:06:16.474Z",
  "devdoc": {
    "kind": "dev",
    "methods": {},
    "version": 1
  },
  "userdoc": {
    "kind": "user",
    "methods": {},
    "version": 1
  }
}