{
  "contractName": "Yogdaan",
  "abi": [
    {
      "inputs": [],
      "stateMutability": "nonpayable",
      "type": "constructor"
    },
    {
      "inputs": [
        {
          "internalType": "string",
          "name": "_name",
          "type": "string"
        },
        {
          "internalType": "address",
          "name": "_walletAddress",
          "type": "address"
        },
        {
          "internalType": "string",
          "name": "_code",
          "type": "string"
        },
        {
          "internalType": "uint256",
          "name": "_intrestRate",
          "type": "uint256"
        }
      ],
      "name": "addBank",
      "outputs": [],
      "stateMutability": "nonpayable",
      "type": "function"
    },
    {
      "inputs": [
        {
          "internalType": "uint256[]",
          "name": "members",
          "type": "uint256[]"
        },
        {
          "internalType": "uint256",
          "name": "president",
          "type": "uint256"
        },
        {
          "internalType": "uint256",
          "name": "treasurer",
          "type": "uint256"
        },
        {
          "internalType": "string",
          "name": "name",
          "type": "string"
        },
        {
          "internalType": "string",
          "name": "_state",
          "type": "string"
        },
        {
          "internalType": "string",
          "name": "_district",
          "type": "string"
        },
        {
          "internalType": "string",
          "name": "_blockName",
          "type": "string"
        },
        {
          "internalType": "string",
          "name": "_panchyatName",
          "type": "string"
        },
        {
          "internalType": "string",
          "name": "_villageName",
          "type": "string"
        },
        {
          "internalType": "string",
          "name": "dateOfFormation",
          "type": "string"
        },
        {
          "internalType": "uint256",
          "name": "_baseIntrest",
          "type": "uint256"
        }
      ],
      "name": "addSHG",
      "outputs": [],
      "stateMutability": "nonpayable",
      "type": "function"
    },
    {
      "inputs": [
        {
          "internalType": "uint256",
          "name": "userid",
          "type": "uint256"
        },
        {
          "internalType": "uint256",
          "name": "shg",
          "type": "uint256"
        }
      ],
      "name": "addSHGMember",
      "outputs": [],
      "stateMutability": "nonpayable",
      "type": "function"
    },
    {
      "inputs": [
        {
          "internalType": "string",
          "name": "name",
          "type": "string"
        },
        {
          "internalType": "string",
          "name": "aadhar",
          "type": "string"
        },
        {
          "internalType": "uint256",
          "name": "mobno",
          "type": "uint256"
        },
        {
          "internalType": "string",
          "name": "fatherName",
          "type": "string"
        },
        {
          "internalType": "enum structs.Gender",
          "name": "gender",
          "type": "uint8"
        },
        {
          "internalType": "string",
          "name": "_state",
          "type": "string"
        },
        {
          "internalType": "string",
          "name": "_district",
          "type": "string"
        },
        {
          "internalType": "string",
          "name": "_blockName",
          "type": "string"
        },
        {
          "internalType": "string",
          "name": "_panchyatName",
          "type": "string"
        },
        {
          "internalType": "string",
          "name": "_villageName",
          "type": "string"
        }
      ],
      "name": "addUser",
      "outputs": [],
      "stateMutability": "nonpayable",
      "type": "function"
    },
    {
      "inputs": [
        {
          "internalType": "address",
          "name": "",
          "type": "address"
        }
      ],
      "name": "addressToBankid",
      "outputs": [
        {
          "internalType": "uint256",
          "name": "",
          "type": "uint256"
        }
      ],
      "stateMutability": "view",
      "type": "function",
      "constant": true
    },
    {
      "inputs": [
        {
          "internalType": "address",
          "name": "",
          "type": "address"
        }
      ],
      "name": "addressToSHGid",
      "outputs": [
        {
          "internalType": "uint256",
          "name": "",
          "type": "uint256"
        }
      ],
      "stateMutability": "view",
      "type": "function",
      "constant": true
    },
    {
      "inputs": [
        {
          "internalType": "address",
          "name": "",
          "type": "address"
        }
      ],
      "name": "addressToUser",
      "outputs": [
        {
          "internalType": "uint256",
          "name": "",
          "type": "uint256"
        }
      ],
      "stateMutability": "view",
      "type": "function",
      "constant": true
    },
    {
      "inputs": [
        {
          "internalType": "uint256",
          "name": "_shgrequestid",
          "type": "uint256"
        },
        {
          "internalType": "uint256",
          "name": "_bankid",
          "type": "uint256"
        }
      ],
      "name": "approveLoan",
      "outputs": [],
      "stateMutability": "nonpayable",
      "type": "function"
    },
    {
      "inputs": [
        {
          "internalType": "uint256",
          "name": "_requestid",
          "type": "uint256"
        },
        {
          "internalType": "uint256",
          "name": "_shgid",
          "type": "uint256"
        }
      ],
      "name": "approveRequest",
      "outputs": [],
      "stateMutability": "nonpayable",
      "type": "function"
    },
    {
      "inputs": [
        {
          "internalType": "uint256",
          "name": "",
          "type": "uint256"
        }
      ],
      "name": "banks",
      "outputs": [
        {
          "internalType": "uint256",
          "name": "id",
          "type": "uint256"
        },
        {
          "internalType": "string",
          "name": "name",
          "type": "string"
        },
        {
          "internalType": "address",
          "name": "walletAddress",
          "type": "address"
        },
        {
          "internalType": "string",
          "name": "code",
          "type": "string"
        },
        {
          "internalType": "uint256",
          "name": "intrestRate",
          "type": "uint256"
        }
      ],
      "stateMutability": "view",
      "type": "function",
      "constant": true
    },
    {
      "inputs": [
        {
          "internalType": "uint256",
          "name": "_userid",
          "type": "uint256"
        },
        {
          "internalType": "uint256",
          "name": "_requestid",
          "type": "uint256"
        }
      ],
      "name": "deleteRequest",
      "outputs": [],
      "stateMutability": "nonpayable",
      "type": "function"
    },
    {
      "inputs": [
        {
          "internalType": "uint256",
          "name": "userid",
          "type": "uint256"
        }
      ],
      "name": "getAllLoans",
      "outputs": [
        {
          "internalType": "uint256[]",
          "name": "",
          "type": "uint256[]"
        }
      ],
      "stateMutability": "view",
      "type": "function",
      "constant": true
    },
    {
      "inputs": [
        {
          "internalType": "uint256",
          "name": "_shgid",
          "type": "uint256"
        },
        {
          "internalType": "uint256",
          "name": "_loanid",
          "type": "uint256"
        }
      ],
      "name": "getSHGEMI",
      "outputs": [
        {
          "internalType": "uint256",
          "name": "",
          "type": "uint256"
        }
      ],
      "stateMutability": "nonpayable",
      "type": "function"
    },
    {
      "inputs": [
        {
          "internalType": "uint256",
          "name": "shgid",
          "type": "uint256"
        }
      ],
      "name": "getSHGMembers",
      "outputs": [
        {
          "internalType": "uint256[]",
          "name": "",
          "type": "uint256[]"
        }
      ],
      "stateMutability": "view",
      "type": "function",
      "constant": true
    },
    {
      "inputs": [
        {
          "internalType": "uint256",
          "name": "userid",
          "type": "uint256"
        },
        {
          "internalType": "uint256",
          "name": "loanid",
          "type": "uint256"
        }
      ],
      "name": "getUserEMI",
      "outputs": [
        {
          "internalType": "uint256",
          "name": "",
          "type": "uint256"
        }
      ],
      "stateMutability": "nonpayable",
      "type": "function"
    },
    {
      "inputs": [
        {
          "internalType": "uint256",
          "name": "_userid",
          "type": "uint256"
        }
      ],
      "name": "getUserLoanAmount",
      "outputs": [
        {
          "internalType": "uint256",
          "name": "",
          "type": "uint256"
        }
      ],
      "stateMutability": "view",
      "type": "function",
      "constant": true
    },
    {
      "inputs": [
        {
          "internalType": "uint256",
          "name": "_shgrequestid",
          "type": "uint256"
        },
        {
          "internalType": "uint256",
          "name": "_bankid",
          "type": "uint256"
        },
        {
          "internalType": "uint256",
          "name": "_amount",
          "type": "uint256"
        }
      ],
      "name": "grantLoan",
      "outputs": [],
      "stateMutability": "nonpayable",
      "type": "function"
    },
    {
      "inputs": [
        {
          "internalType": "uint256",
          "name": "",
          "type": "uint256"
        }
      ],
      "name": "loans",
      "outputs": [
        {
          "internalType": "uint256",
          "name": "loanId",
          "type": "uint256"
        },
        {
          "internalType": "uint256",
          "name": "lenderId",
          "type": "uint256"
        },
        {
          "internalType": "uint256",
          "name": "amount",
          "type": "uint256"
        },
        {
          "internalType": "uint256",
          "name": "lendeeId",
          "type": "uint256"
        },
        {
          "internalType": "uint256",
          "name": "intrest",
          "type": "uint256"
        },
        {
          "internalType": "uint256",
          "name": "loanTime",
          "type": "uint256"
        },
        {
          "internalType": "uint256",
          "name": "date",
          "type": "uint256"
        },
        {
          "internalType": "uint256",
          "name": "lastEMI",
          "type": "uint256"
        }
      ],
      "stateMutability": "view",
      "type": "function",
      "constant": true
    },
    {
      "inputs": [],
      "name": "login",
      "outputs": [
        {
          "internalType": "bool",
          "name": "",
          "type": "bool"
        }
      ],
      "stateMutability": "view",
      "type": "function",
      "constant": true
    },
    {
      "inputs": [
        {
          "internalType": "uint256",
          "name": "_shgid",
          "type": "uint256"
        },
        {
          "internalType": "uint256",
          "name": "_userid",
          "type": "uint256"
        },
        {
          "internalType": "uint256",
          "name": "_amount",
          "type": "uint256"
        },
        {
          "internalType": "string",
          "name": "_description",
          "type": "string"
        },
        {
          "internalType": "uint256",
          "name": "_loanTime",
          "type": "uint256"
        }
      ],
      "name": "makeRequest",
      "outputs": [],
      "stateMutability": "nonpayable",
      "type": "function"
    },
    {
      "inputs": [
        {
          "internalType": "uint256",
          "name": "_userid",
          "type": "uint256"
        },
        {
          "internalType": "uint256",
          "name": "_loanid",
          "type": "uint256"
        },
        {
          "internalType": "uint256",
          "name": "_amount",
          "type": "uint256"
        }
      ],
      "name": "payEMI",
      "outputs": [],
      "stateMutability": "payable",
      "type": "function",
      "payable": true
    },
    {
      "inputs": [
        {
          "internalType": "uint256",
          "name": "userid",
          "type": "uint256"
        },
        {
          "internalType": "uint256",
          "name": "shgid",
          "type": "uint256"
        }
      ],
      "name": "removeSHGMember",
      "outputs": [],
      "stateMutability": "nonpayable",
      "type": "function"
    },
    {
      "inputs": [
        {
          "internalType": "uint256",
          "name": "_requestid",
          "type": "uint256"
        }
      ],
      "name": "sendGrant",
      "outputs": [],
      "stateMutability": "nonpayable",
      "type": "function"
    },
    {
      "inputs": [
        {
          "internalType": "uint256",
          "name": "_shgid",
          "type": "uint256"
        },
        {
          "internalType": "uint256",
          "name": "_amount",
          "type": "uint256"
        },
        {
          "internalType": "uint256",
          "name": "_loanTime",
          "type": "uint256"
        }
      ],
      "name": "sendRequestToBank",
      "outputs": [],
      "stateMutability": "nonpayable",
      "type": "function"
    },
    {
      "inputs": [
        {
          "internalType": "uint256",
          "name": "_bankid",
          "type": "uint256"
        },
        {
          "internalType": "uint256",
          "name": "_requestid",
          "type": "uint256"
        },
        {
          "internalType": "uint256",
          "name": "_amount",
          "type": "uint256"
        }
      ],
      "name": "shgLoan",
      "outputs": [],
      "stateMutability": "payable",
      "type": "function",
      "payable": true
    },
    {
      "inputs": [
        {
          "internalType": "uint256",
          "name": "_shgid",
          "type": "uint256"
        },
        {
          "internalType": "uint256",
          "name": "_loanid",
          "type": "uint256"
        },
        {
          "internalType": "uint256",
          "name": "_amount",
          "type": "uint256"
        }
      ],
      "name": "shgPayEMI",
      "outputs": [],
      "stateMutability": "nonpayable",
      "type": "function"
    },
    {
      "inputs": [
        {
          "internalType": "uint256",
          "name": "",
          "type": "uint256"
        }
      ],
      "name": "shgRequests",
      "outputs": [
        {
          "internalType": "uint256",
          "name": "requestid",
          "type": "uint256"
        },
        {
          "internalType": "uint256",
          "name": "shgid",
          "type": "uint256"
        },
        {
          "internalType": "uint256",
          "name": "amount",
          "type": "uint256"
        },
        {
          "internalType": "uint256",
          "name": "loanTime",
          "type": "uint256"
        },
        {
          "internalType": "enum structs.RequestStatus",
          "name": "status",
          "type": "uint8"
        }
      ],
      "stateMutability": "view",
      "type": "function",
      "constant": true
    },
    {
      "inputs": [
        {
          "internalType": "uint256",
          "name": "",
          "type": "uint256"
        }
      ],
      "name": "shgs",
      "outputs": [
        {
          "internalType": "uint256",
          "name": "id",
          "type": "uint256"
        },
        {
          "internalType": "string",
          "name": "name",
          "type": "string"
        },
        {
          "components": [
            {
              "internalType": "string",
              "name": "state",
              "type": "string"
            },
            {
              "internalType": "string",
              "name": "district",
              "type": "string"
            },
            {
              "internalType": "string",
              "name": "blockName",
              "type": "string"
            },
            {
              "internalType": "string",
              "name": "panchyatName",
              "type": "string"
            },
            {
              "internalType": "string",
              "name": "villageName",
              "type": "string"
            }
          ],
          "internalType": "struct structs.Location",
          "name": "location",
          "type": "tuple"
        },
        {
          "internalType": "string",
          "name": "dateOfFormation",
          "type": "string"
        },
        {
          "internalType": "uint256",
          "name": "currentBalance",
          "type": "uint256"
        },
        {
          "internalType": "uint256",
          "name": "owedBalance",
          "type": "uint256"
        },
        {
          "internalType": "uint256",
          "name": "baseIntrest",
          "type": "uint256"
        }
      ],
      "stateMutability": "view",
      "type": "function",
      "constant": true
    },
    {
      "inputs": [
        {
          "internalType": "string",
          "name": "",
          "type": "string"
        },
        {
          "internalType": "uint256",
          "name": "",
          "type": "uint256"
        }
      ],
      "name": "shgsOfDistrict",
      "outputs": [
        {
          "internalType": "uint256",
          "name": "",
          "type": "uint256"
        }
      ],
      "stateMutability": "view",
      "type": "function",
      "constant": true
    },
    {
      "inputs": [
        {
          "internalType": "uint256",
          "name": "id",
          "type": "uint256"
        },
        {
          "internalType": "enum structs.UserType",
          "name": "updatedType",
          "type": "uint8"
        }
      ],
      "name": "updateMemberRole",
      "outputs": [],
      "stateMutability": "nonpayable",
      "type": "function"
    },
    {
      "inputs": [
        {
          "internalType": "uint256",
          "name": "",
          "type": "uint256"
        }
      ],
      "name": "userRequests",
      "outputs": [
        {
          "internalType": "uint256",
          "name": "requestId",
          "type": "uint256"
        },
        {
          "internalType": "uint256",
          "name": "userId",
          "type": "uint256"
        },
        {
          "internalType": "uint256",
          "name": "amount",
          "type": "uint256"
        },
        {
          "internalType": "string",
          "name": "description",
          "type": "string"
        },
        {
          "internalType": "uint256",
          "name": "SHGId",
          "type": "uint256"
        },
        {
          "internalType": "enum structs.RequestStatus",
          "name": "status",
          "type": "uint8"
        },
        {
          "internalType": "uint256",
          "name": "loanTime",
          "type": "uint256"
        }
      ],
      "stateMutability": "view",
      "type": "function",
      "constant": true
    },
    {
      "inputs": [
        {
          "internalType": "uint256",
          "name": "",
          "type": "uint256"
        }
      ],
      "name": "users",
      "outputs": [
        {
          "internalType": "uint256",
          "name": "id",
          "type": "uint256"
        },
        {
          "internalType": "string",
          "name": "name",
          "type": "string"
        },
        {
          "internalType": "string",
          "name": "aadhar",
          "type": "string"
        },
        {
          "internalType": "uint256",
          "name": "mobno",
          "type": "uint256"
        },
        {
          "internalType": "string",
          "name": "fatherName",
          "type": "string"
        },
        {
          "internalType": "address",
          "name": "walletAddress",
          "type": "address"
        },
        {
          "internalType": "uint256",
          "name": "shgid",
          "type": "uint256"
        },
        {
          "internalType": "enum structs.UserType",
          "name": "userType",
          "type": "uint8"
        },
        {
          "internalType": "enum structs.Gender",
          "name": "gender",
          "type": "uint8"
        },
        {
          "components": [
            {
              "internalType": "string",
              "name": "state",
              "type": "string"
            },
            {
              "internalType": "string",
              "name": "district",
              "type": "string"
            },
            {
              "internalType": "string",
              "name": "blockName",
              "type": "string"
            },
            {
              "internalType": "string",
              "name": "panchyatName",
              "type": "string"
            },
            {
              "internalType": "string",
              "name": "villageName",
              "type": "string"
            }
          ],
          "internalType": "struct structs.Location",
          "name": "location",
          "type": "tuple"
        }
      ],
      "stateMutability": "view",
      "type": "function",
      "constant": true
    }
  ],
  "bytecode": "0x608060405234801561001057600080fd5b5033601060006101000a81548173ffffffffffffffffffffffffffffffffffffffff021916908373ffffffffffffffffffffffffffffffffffffffff160217905550615335806100616000396000f3fe6080604052600436106101e25760003560e01c806361c91b7011610102578063af08a94f11610095578063db223b4c11610064578063db223b4c1461076c578063e1ec3c6814610795578063edf53886146107d9578063f736ae4314610816576101e2565b8063af08a94f1461069e578063b34e97e8146106db578063bc1e72ad14610706578063cfcb4b2f1461072f576101e2565b80637d550bb3116100d15780637d550bb3146105e057806394169656146106095780639bbc9ab11461064c578063a6e90a5814610675576101e2565b806361c91b7014610500578063769d0e161461053d5780637a6464921461057a5780637c97761a146105a3576101e2565b80632c0a90a91161017a5780633ae0058f116101495780633ae0058f146104415780633c5657571461047e57806342f5f815146104bb5780634f269c92146104d7576101e2565b80632c0a90a9146103805780632e131046146103a9578063365b98b2146103d257806339d8bed114610418576101e2565b806314795ce3116101b657806314795ce3146102b7578063249c4bff146102e0578063257a170b146102fc57806326271cf21461033d576101e2565b806285ae2b146101e7578063021af397146102285780630227f43514610251578063089511f71461027a575b600080fd5b3480156101f357600080fd5b5061020e60048036038101906102099190614438565b61083f565b60405161021f9594939291906149cc565b60405180910390f35b34801561023457600080fd5b5061024f600480360381019061024a91906144d9565b6109a5565b005b34801561025d57600080fd5b5061027860048036038101906102739190614528565b610b7c565b005b34801561028657600080fd5b506102a1600480360381019061029c9190614438565b610d92565b6040516102ae91906149b1565b60405180910390f35b3480156102c357600080fd5b506102de60048036038101906102d991906141b6565b610e79565b005b6102fa60048036038101906102f591906144d9565b611059565b005b34801561030857600080fd5b50610323600480360381019061031e9190614438565b611262565b604051610334959493929190614bdf565b60405180910390f35b34801561034957600080fd5b50610364600480360381019061035f9190614438565b6112a5565b6040516103779796959493929190614ae5565b60405180910390f35b34801561038c57600080fd5b506103a760048036038101906103a2919061449d565b6116db565b005b3480156103b557600080fd5b506103d060048036038101906103cb9190614249565b611831565b005b3480156103de57600080fd5b506103f960048036038101906103f49190614438565b611dcf565b60405161040f9a99989796959493929190614a2d565b60405180910390f35b34801561042457600080fd5b5061043f600480360381019061043a919061449d565b6122d9565b005b34801561044d57600080fd5b5061046860048036038101906104639190613fdd565b6123ef565b60405161047591906149b1565b60405180910390f35b34801561048a57600080fd5b506104a560048036038101906104a0919061449d565b612407565b6040516104b291906149b1565b60405180910390f35b6104d560048036038101906104d091906144d9565b612524565b005b3480156104e357600080fd5b506104fe60048036038101906104f99190614461565b612602565b005b34801561050c57600080fd5b5061052760048036038101906105229190613fdd565b612669565b60405161053491906149b1565b60405180910390f35b34801561054957600080fd5b50610564600480360381019061055f919061449d565b612681565b60405161057191906149b1565b60405180910390f35b34801561058657600080fd5b506105a1600480360381019061059c919061449d565b61279f565b005b3480156105af57600080fd5b506105ca60048036038101906105c591906143e4565b61282e565b6040516105d791906149b1565b60405180910390f35b3480156105ec57600080fd5b50610607600480360381019061060291906144d9565b612875565b005b34801561061557600080fd5b50610630600480360381019061062b9190614438565b612954565b6040516106439796959493929190614b69565b60405180910390f35b34801561065857600080fd5b50610673600480360381019061066e9190614438565b612a2b565b005b34801561068157600080fd5b5061069c6004803603810190610697919061449d565b612ed3565b005b3480156106aa57600080fd5b506106c560048036038101906106c09190614438565b613065565b6040516106d291906148b4565b60405180910390f35b3480156106e757600080fd5b506106f06130d3565b6040516106fd91906148d6565b60405180910390f35b34801561071257600080fd5b5061072d60048036038101906107289190614006565b61317d565b005b34801561073b57600080fd5b5061075660048036038101906107519190614438565b61370c565b60405161076391906148b4565b60405180910390f35b34801561077857600080fd5b50610793600480360381019061078e91906144d9565b61379e565b005b3480156107a157600080fd5b506107bc60048036038101906107b79190614438565b6138b8565b6040516107d0989796959493929190614c32565b60405180910390f35b3480156107e557600080fd5b5061080060048036038101906107fb9190613fdd565b613900565b60405161080d91906149b1565b60405180910390f35b34801561082257600080fd5b5061083d6004803603810190610838919061449d565b613918565b005b600360205280600052604060002060009150905080600001549080600101805461086890614fb1565b80601f016020809104026020016040519081016040528092919081815260200182805461089490614fb1565b80156108e15780601f106108b6576101008083540402835291602001916108e1565b820191906000526020600020905b8154815290600101906020018083116108c457829003601f168201915b5050505050908060020160009054906101000a900473ffffffffffffffffffffffffffffffffffffffff169080600301805461091c90614fb1565b80601f016020809104026020016040519081016040528092919081815260200182805461094890614fb1565b80156109955780601f1061096a57610100808354040283529160200191610995565b820191906000526020600020905b81548152906001019060200180831161097857829003601f168201915b5050505050908060040154905085565b826000600160008381526020019081526020016000206000015414156109ca57600080fd5b83600080600460003373ffffffffffffffffffffffffffffffffffffffff1673ffffffffffffffffffffffffffffffffffffffff1681526020019081526020016000205481526020019081526020016000206008015414610a2a57600080fd5b6000600d6000815480929190610a3f90615014565b9190505590506040518060a00160405280828152602001868152602001858152602001848152602001600380811115610aa1577f4e487b7100000000000000000000000000000000000000000000000000000000600052602160045260246000fd5b815250600760008381526020019081526020016000206000820151816000015560208201518160010155604082015181600201556060820151816003015560808201518160040160006101000a81548160ff02191690836003811115610b30577f4e487b7100000000000000000000000000000000000000000000000000000000600052602160045260246000fd5b021790555090505060016000868152602001908152602001600020600c018190806001815401808255809150506001900390600052602060002001600090919091909150555050505050565b6000600c60008154610b8d90615014565b9190508190559050604051806101000160405280828152602001868152602001858152602001848152602001878152602001600380811115610bf8577f4e487b7100000000000000000000000000000000000000000000000000000000600052602160045260246000fd5b8152602001838152602001600067ffffffffffffffff811115610c44577f4e487b7100000000000000000000000000000000000000000000000000000000600052604160045260246000fd5b604051908082528060200260200182016040528015610c725781602001602082028036833780820191505090505b50815250600660008381526020019081526020016000206000820151816000015560208201518160010155604082015181600201556060820151816003019080519060200190610cc3929190613d3a565b506080820151816004015560a08201518160050160006101000a81548160ff02191690836003811115610d1f577f4e487b7100000000000000000000000000000000000000000000000000000000600052602160045260246000fd5b021790555060c0820151816006015560e0820151816007019080519060200190610d4a929190613dc0565b50905050600080868152602001908152602001600020600701819080600181540180825580915050600190039060005260206000200160009091909190915055505050505050565b600080600090506000806000858152602001908152602001600020600601805480602002602001604051908101604052809291908181526020018280548015610dfa57602002820191906000526020600020905b815481526020019060010190808311610de6575b5050505050905060005b8151811015610e6e57818181518110610e46577f4e487b7100000000000000000000000000000000000000000000000000000000600052603260045260246000fd5b602002602001015183610e599190614da3565b92508080610e6690615014565b915050610e04565b508192505050919050565b6000600e60008154610e8a90615014565b91905081905590506040518060c001604052808281526020018681526020018573ffffffffffffffffffffffffffffffffffffffff168152602001848152602001838152602001600067ffffffffffffffff811115610f12577f4e487b7100000000000000000000000000000000000000000000000000000000600052604160045260246000fd5b604051908082528060200260200182016040528015610f405781602001602082028036833780820191505090505b5081525060036000838152602001908152602001600020600082015181600001556020820151816001019080519060200190610f7d929190613d3a565b5060408201518160020160006101000a81548173ffffffffffffffffffffffffffffffffffffffff021916908373ffffffffffffffffffffffffffffffffffffffff1602179055506060820151816003019080519060200190610fe1929190613d3a565b506080820151816004015560a0820151816005019080519060200190611008929190613dc0565b50905050600e54600960008673ffffffffffffffffffffffffffffffffffffffff1673ffffffffffffffffffffffffffffffffffffffff168152602001908152602001600020819055505050505050565b8260006003600083815260200190815260200160002060000154141561107e57600080fd5b6000604051806101000160405280600f6000815461109b90615014565b9190508190558152602001600760008781526020019081526020016000206001015481526020018481526020018681526020016003600088815260200190815260200160002060040154815260200160076000878152602001908152602001600020600301548152602001428152602001600081525090506001600060076000878152602001908152602001600020600101548152602001908152602001600020600c01600f5490806001815401808255809150506001900390600052602060002001600090919091909150553073ffffffffffffffffffffffffffffffffffffffff166108fc849081150290604051600060405180830381858888f193505050501580156111ae573d6000803e3d6000fd5b5082600160006007600088815260200190815260200160002060010154815260200190815260200160002060090160008282546111eb9190614da3565b925050819055508060056000600f548152602001908152602001600020600082015181600001556020820151816001015560408201518160020155606082015181600301556080820151816004015560a0820151816005015560c0820151816006015560e082015181600701559050505050505050565b60076020528060005260406000206000915090508060000154908060010154908060020154908060030154908060040160009054906101000a900460ff16905085565b60016020528060005260406000206000915090508060000154908060020180546112ce90614fb1565b80601f01602080910402602001604051908101604052809291908181526020018280546112fa90614fb1565b80156113475780601f1061131c57610100808354040283529160200191611347565b820191906000526020600020905b81548152906001019060200180831161132a57829003601f168201915b505050505090806003016040518060a001604052908160008201805461136c90614fb1565b80601f016020809104026020016040519081016040528092919081815260200182805461139890614fb1565b80156113e55780601f106113ba576101008083540402835291602001916113e5565b820191906000526020600020905b8154815290600101906020018083116113c857829003601f168201915b505050505081526020016001820180546113fe90614fb1565b80601f016020809104026020016040519081016040528092919081815260200182805461142a90614fb1565b80156114775780601f1061144c57610100808354040283529160200191611477565b820191906000526020600020905b81548152906001019060200180831161145a57829003601f168201915b5050505050815260200160028201805461149090614fb1565b80601f01602080910402602001604051908101604052809291908181526020018280546114bc90614fb1565b80156115095780601f106114de57610100808354040283529160200191611509565b820191906000526020600020905b8154815290600101906020018083116114ec57829003601f168201915b5050505050815260200160038201805461152290614fb1565b80601f016020809104026020016040519081016040528092919081815260200182805461154e90614fb1565b801561159b5780601f106115705761010080835404028352916020019161159b565b820191906000526020600020905b81548152906001019060200180831161157e57829003601f168201915b505050505081526020016004820180546115b490614fb1565b80601f01602080910402602001604051908101604052809291908181526020018280546115e090614fb1565b801561162d5780601f106116025761010080835404028352916020019161162d565b820191906000526020600020905b81548152906001019060200180831161161057829003601f168201915b5050505050815250509080600801805461164690614fb1565b80601f016020809104026020016040519081016040528092919081815260200182805461167290614fb1565b80156116bf5780601f10611694576101008083540402835291602001916116bf565b820191906000526020600020905b8154815290600101906020018083116116a257829003601f168201915b50505050509080600901549080600a01549080600d0154905087565b8060006001600083815260200190815260200160002060000154141561170057600080fd5b60006006600085815260200190815260200160002090508281600401541461172757600080fd5b61173084613a22565b61173957600080fd5b80600701600460003373ffffffffffffffffffffffffffffffffffffffff1673ffffffffffffffffffffffffffffffffffffffff168152602001908152602001600020549080600181540180825580915050600190039060005260206000200160009091909190915055600260016000858152602001908152602001600020600101805490506117c99190614df9565b8160070180549050111561182b5760008160050160006101000a81548160ff02191690836003811115611825577f4e487b7100000000000000000000000000000000000000000000000000000000600052602160045260246000fd5b02179055505b50505050565b3373ffffffffffffffffffffffffffffffffffffffff16600080600460003373ffffffffffffffffffffffffffffffffffffffff1673ffffffffffffffffffffffffffffffffffffffff16815260200190815260200160002054815260200190815260200160002060050160009054906101000a900473ffffffffffffffffffffffffffffffffffffffff1673ffffffffffffffffffffffffffffffffffffffff161415611914576040517f08c379a000000000000000000000000000000000000000000000000000000000815260040161190b90614911565b60405180910390fd5b6000600a6000815461192590615014565b919050819055905080600460003373ffffffffffffffffffffffffffffffffffffffff1673ffffffffffffffffffffffffffffffffffffffff1681526020019081526020016000208190555060006040518060a00160405280888152602001878152602001868152602001858152602001848152509050604051806101800160405280600a60008154809291906119bb90615014565b9190505581526020018d81526020018c81526020018b81526020018a81526020013373ffffffffffffffffffffffffffffffffffffffff168152602001600067ffffffffffffffff811115611a39577f4e487b7100000000000000000000000000000000000000000000000000000000600052604160045260246000fd5b604051908082528060200260200182016040528015611a675781602001602082028036833780820191505090505b508152602001600067ffffffffffffffff811115611aae577f4e487b7100000000000000000000000000000000000000000000000000000000600052604160045260246000fd5b604051908082528060200260200182016040528015611adc5781602001602082028036833780820191505090505b5081526020016000815260200160046005811115611b23577f4e487b7100000000000000000000000000000000000000000000000000000000600052602160045260246000fd5b8152602001896002811115611b61577f4e487b7100000000000000000000000000000000000000000000000000000000600052602160045260246000fd5b815260200182815250600080848152602001908152602001600020600082015181600001556020820151816001019080519060200190611ba2929190613d3a565b506040820151816002019080519060200190611bbf929190613d3a565b50606082015181600301556080820151816004019080519060200190611be6929190613d3a565b5060a08201518160050160006101000a81548173ffffffffffffffffffffffffffffffffffffffff021916908373ffffffffffffffffffffffffffffffffffffffff16021790555060c0820151816006019080519060200190611c4a929190613dc0565b5060e0820151816007019080519060200190611c67929190613dc0565b5061010082015181600801556101208201518160090160006101000a81548160ff02191690836005811115611cc5577f4e487b7100000000000000000000000000000000000000000000000000000000600052602160045260246000fd5b02179055506101408201518160090160016101000a81548160ff02191690836002811115611d1c577f4e487b7100000000000000000000000000000000000000000000000000000000600052602160045260246000fd5b021790555061016082015181600a016000820151816000019080519060200190611d47929190613d3a565b506020820151816001019080519060200190611d64929190613d3a565b506040820151816002019080519060200190611d81929190613d3a565b506060820151816003019080519060200190611d9e929190613d3a565b506080820151816004019080519060200190611dbb929190613d3a565b505050905050505050505050505050505050565b6000602052806000526040600020600091509050806000015490806001018054611df890614fb1565b80601f0160208091040260200160405190810160405280929190818152602001828054611e2490614fb1565b8015611e715780601f10611e4657610100808354040283529160200191611e71565b820191906000526020600020905b815481529060010190602001808311611e5457829003601f168201915b505050505090806002018054611e8690614fb1565b80601f0160208091040260200160405190810160405280929190818152602001828054611eb290614fb1565b8015611eff5780601f10611ed457610100808354040283529160200191611eff565b820191906000526020600020905b815481529060010190602001808311611ee257829003601f168201915b505050505090806003015490806004018054611f1a90614fb1565b80601f0160208091040260200160405190810160405280929190818152602001828054611f4690614fb1565b8015611f935780601f10611f6857610100808354040283529160200191611f93565b820191906000526020600020905b815481529060010190602001808311611f7657829003601f168201915b5050505050908060050160009054906101000a900473ffffffffffffffffffffffffffffffffffffffff16908060080154908060090160009054906101000a900460ff16908060090160019054906101000a900460ff169080600a016040518060a001604052908160008201805461200a90614fb1565b80601f016020809104026020016040519081016040528092919081815260200182805461203690614fb1565b80156120835780601f1061205857610100808354040283529160200191612083565b820191906000526020600020905b81548152906001019060200180831161206657829003601f168201915b5050505050815260200160018201805461209c90614fb1565b80601f01602080910402602001604051908101604052809291908181526020018280546120c890614fb1565b80156121155780601f106120ea57610100808354040283529160200191612115565b820191906000526020600020905b8154815290600101906020018083116120f857829003601f168201915b5050505050815260200160028201805461212e90614fb1565b80601f016020809104026020016040519081016040528092919081815260200182805461215a90614fb1565b80156121a75780601f1061217c576101008083540402835291602001916121a7565b820191906000526020600020905b81548152906001019060200180831161218a57829003601f168201915b505050505081526020016003820180546121c090614fb1565b80601f01602080910402602001604051908101604052809291908181526020018280546121ec90614fb1565b80156122395780601f1061220e57610100808354040283529160200191612239565b820191906000526020600020905b81548152906001019060200180831161221c57829003601f168201915b5050505050815260200160048201805461225290614fb1565b80601f016020809104026020016040519081016040528092919081815260200182805461227e90614fb1565b80156122cb5780601f106122a0576101008083540402835291602001916122cb565b820191906000526020600020905b8154815290600101906020018083116122ae57829003601f168201915b50505050508152505090508a565b806000808481526020019081526020016000206008015414612330576040517f08c379a000000000000000000000000000000000000000000000000000000000815260040161232790614951565b60405180910390fd5b8060008084815260200190815260200160002060080181905550600360008084815260200190815260200160002060090160006101000a81548160ff021916908360058111156123a9577f4e487b7100000000000000000000000000000000000000000000000000000000600052602160045260246000fd5b0217905550600160008281526020019081526020016000206001018290806001815401808255809150506001900390600052602060002001600090919091909150555050565b60086020528060005260406000206000915090505481565b600082600080600083815260200190815260200160002060000154141561242d57600080fd5b60006005600085815260200190815260200160002090506000601e603c80601885600701544261245d9190614e84565b6124679190614df9565b6124719190614e2a565b61247b9190614e2a565b6124859190614e2a565b90506000811161249457600080fd5b60008260020154905060008360040154905060008460050154905060008382600c6124bf9190614e2a565b6124c99190614e84565b600c6064856124d89190614df9565b6124e29190614e2a565b60016124ee9190614da3565b856124f99190614e2a565b18905080866002015461250c9190614e84565b86600201819055508097505050505050505092915050565b82600080600083815260200190815260200160002060000154141561254857600080fd5b60006125548585612407565b905082811461256257600080fd5b60006005600086815260200190815260200160002090503073ffffffffffffffffffffffffffffffffffffffff166108fc859081150290604051600060405180830381858888f193505050501580156125bf573d6000803e3d6000fd5b5083600160008360030154815260200190815260200160002060090160008282546125ea9190614da3565b92505081905550428160070181905550505050505050565b8060008084815260200190815260200160002060090160006101000a81548160ff02191690836005811115612660577f4e487b7100000000000000000000000000000000000000000000000000000000600052602160045260246000fd5b02179055505050565b60096020528060005260406000206000915090505481565b6000826000600160008381526020019081526020016000206000015414156126a857600080fd5b60006005600085815260200190815260200160002090506000601e603c8060188560070154426126d89190614e84565b6126e29190614df9565b6126ec9190614e2a565b6126f69190614e2a565b6127009190614e2a565b90506000811161270f57600080fd5b60008260020154905060008360040154905060008460050154905060008382600c61273a9190614e2a565b6127449190614e84565b600c6064856127539190614df9565b61275d9190614e2a565b60016127699190614da3565b856127749190614e2a565b1890508086600201546127879190614e84565b86600201819055508097505050505050505092915050565b806000600360008381526020019081526020016000206000015414156127c457600080fd5b60006007600085815260200190815260200160002060040160006101000a81548160ff02191690836003811115612824577f4e487b7100000000000000000000000000000000000000000000000000000000600052602160045260246000fd5b0217905550505050565b600282805160208101820180518482526020830160208501208183528095505050505050818154811061286057600080fd5b90600052602060002001600091509150505481565b8260006001600083815260200190815260200160002060000154141561289a57600080fd5b60006128a68585612681565b90508281146128b457600080fd5b60006005600086815260200190815260200160002090503073ffffffffffffffffffffffffffffffffffffffff166108fc859081150290604051600060405180830381858888f19350505050158015612911573d6000803e3d6000fd5b50836001600083600301548152602001908152602001600020600901600082825461293c9190614da3565b92505081905550428160070181905550505050505050565b600660205280600052604060002060009150905080600001549080600101549080600201549080600301805461298990614fb1565b80601f01602080910402602001604051908101604052809291908181526020018280546129b590614fb1565b8015612a025780601f106129d757610100808354040283529160200191612a02565b820191906000526020600020905b8154815290600101906020018083116129e557829003601f168201915b5050505050908060040154908060050160009054906101000a900460ff16908060060154905087565b60026005811115612a65577f4e487b7100000000000000000000000000000000000000000000000000000000600052602160045260246000fd5b600080600460003373ffffffffffffffffffffffffffffffffffffffff1673ffffffffffffffffffffffffffffffffffffffff16815260200190815260200160002054815260200190815260200160002060090160009054906101000a900460ff166005811115612aff577f4e487b7100000000000000000000000000000000000000000000000000000000600052602160045260246000fd5b14612b3f576040517f08c379a0000000000000000000000000000000000000000000000000000000008152600401612b3690614991565b60405180910390fd5b60006003811115612b79577f4e487b7100000000000000000000000000000000000000000000000000000000600052602160045260246000fd5b6006600083815260200190815260200160002060050160009054906101000a900460ff166003811115612bd5577f4e487b7100000000000000000000000000000000000000000000000000000000600052602160045260246000fd5b14612c15576040517f08c379a0000000000000000000000000000000000000000000000000000000008152600401612c0c90614971565b60405180910390fd5b600060066000838152602001908152602001600020905060018160050160006101000a81548160ff02191690836003811115612c7a577f4e487b7100000000000000000000000000000000000000000000000000000000600052602160045260246000fd5b02179055506000604051806101000160405280600f60008154612c9c90615014565b91905081905581526020018360040154815260200183600201548152602001836001015481526020016001600085600401548152602001908152602001600020600d0154815260200183600601548152602001428152602001600081525090508060056000600f548152602001908152602001600020600082015181600001556020820151816001015560408201518160020155606082015181600301556080820151816004015560a0820151816005015560c0820151816006015560e082015181600701559050506001600083600401548152602001908152602001600020600b01600f54908060018154018082558091505060019003906000526020600020016000909190919091505560008083600101548152602001908152602001600020600601600f54908060018154018082558091505060019003906000526020600020016000909190919091505581600201546001600084600401548152602001908152602001600020600901541015612e1557600080fd5b6000808360010154815260200190815260200160002060050160009054906101000a900473ffffffffffffffffffffffffffffffffffffffff1673ffffffffffffffffffffffffffffffffffffffff166108fc83600201549081150290604051600060405180830381858888f19350505050158015612e98573d6000803e3d6000fd5b50816002015460016000846004015481526020019081526020016000206009016000828254612ec79190614e84565b92505081905550505050565b6000600160008381526020019081526020016000209050612f4681600101805480602002602001604051908101604052809291908181526020018280548015612f3b57602002820191906000526020600020905b815481526020019060010190808311612f27575b505050505083613b00565b612f85576040517f08c379a0000000000000000000000000000000000000000000000000000000008152600401612f7c90614931565b60405180910390fd5b6000612fe382600101805480602002602001604051908101604052809291908181526020018280548015612fd857602002820191906000526020600020905b815481526020019060010190808311612fc4575b505050505085613b8e565b905060006130438360010180548060200260200160405190810160405280929190818152602001828054801561303857602002820191906000526020600020905b815481526020019060010190808311613024575b505050505083613c0f565b90508083600101908051906020019061305d929190613dc0565b505050505050565b6060600160008381526020019081526020016000206001018054806020026020016040519081016040528092919081815260200182805480156130c757602002820191906000526020600020905b8154815260200190600101908083116130b3575b50505050509050919050565b60003373ffffffffffffffffffffffffffffffffffffffff16600080600460003373ffffffffffffffffffffffffffffffffffffffff1673ffffffffffffffffffffffffffffffffffffffff16815260200190815260200160002054815260200190815260200160002060050160009054906101000a900473ffffffffffffffffffffffffffffffffffffffff1673ffffffffffffffffffffffffffffffffffffffff1614905090565b60078b5110156131c2576040517f08c379a00000000000000000000000000000000000000000000000000000000081526004016131b9906148f1565b60405180910390fd5b6000600b600081546131d390615014565b919050819055905060006040518060a001604052808a81526020018981526020018881526020018781526020018681525090506040518061014001604052808381526020018e81526020018b81526020018281526020018581526020016000815260200160008152602001600067ffffffffffffffff81111561327f577f4e487b7100000000000000000000000000000000000000000000000000000000600052604160045260246000fd5b6040519080825280602002602001820160405280156132ad5781602001602082028036833780820191505090505b508152602001600067ffffffffffffffff8111156132f4577f4e487b7100000000000000000000000000000000000000000000000000000000600052604160045260246000fd5b6040519080825280602002602001820160405280156133225781602001602082028036833780820191505090505b5081526020018481525060016000848152602001908152602001600020600082015181600001556020820151816001019080519060200190613365929190613dc0565b506040820151816002019080519060200190613382929190613d3a565b5060608201518160030160008201518160000190805190602001906133a8929190613d3a565b5060208201518160010190805190602001906133c5929190613d3a565b5060408201518160020190805190602001906133e2929190613d3a565b5060608201518160030190805190602001906133ff929190613d3a565b50608082015181600401908051906020019061341c929190613d3a565b505050608082015181600801908051906020019061343b929190613d3a565b5060a0820151816009015560c082015181600a015560e082015181600b01908051906020019061346c929190613dc0565b5061010082015181600c01908051906020019061348a929190613dc0565b5061012082015181600d015590505060005b8d518110156136b75760008e82815181106134e0577f4e487b7100000000000000000000000000000000000000000000000000000000600052603260045260246000fd5b60200260200101519050600360008083815260200190815260200160002060090160006101000a81548160ff02191690836005811115613549577f4e487b7100000000000000000000000000000000000000000000000000000000600052602160045260246000fd5b02179055508d8114156135bb57600080600083815260200190815260200160002060090160006101000a81548160ff021916908360058111156135b5577f4e487b7100000000000000000000000000000000000000000000000000000000600052602160045260246000fd5b02179055505b8c81141561362857600260008083815260200190815260200160002060090160006101000a81548160ff02191690836005811115613622577f4e487b7100000000000000000000000000000000000000000000000000000000600052602160045260246000fd5b02179055505b600b546008600080600085815260200190815260200160002060050160009054906101000a900473ffffffffffffffffffffffffffffffffffffffff1673ffffffffffffffffffffffffffffffffffffffff1673ffffffffffffffffffffffffffffffffffffffff168152602001908152602001600020819055505080806136af90615014565b91505061349c565b506002886040516136c8919061489d565b908152602001604051809103902082908060018154018082558091505060019003906000526020600020016000909190919091505550505050505050505050505050565b606081600080600083815260200190815260200160002060000154141561373257600080fd5b60008084815260200190815260200160002060060180548060200260200160405190810160405280929190818152602001828054801561379157602002820191906000526020600020905b81548152602001906001019080831161377d575b5050505050915050919050565b816000600360008381526020019081526020016000206000015414156137c357600080fd5b3073ffffffffffffffffffffffffffffffffffffffff166108fc839081150290604051600060405180830381858888f19350505050158015613809573d6000803e3d6000fd5b5060016007600086815260200190815260200160002060040160006101000a81548160ff0219169083600381111561386a577f4e487b7100000000000000000000000000000000000000000000000000000000600052602160045260246000fd5b021790555081600160006007600088815260200190815260200160002060010154815260200190815260200160002060090160008282546138ab9190614da3565b9250508190555050505050565b60056020528060005260406000206000915090508060000154908060010154908060020154908060030154908060040154908060050154908060060154908060070154905088565b60046020528060005260406000206000915090505481565b81600080600083815260200190815260200160002060000154141561393c57600080fd5b8260066000848152602001908152602001600020600101541461395e57600080fd5b600080600090505b600c548110156139a9578460066000838152602001908152602001600020600101541415613996578091506139a9565b80806139a190615014565b915050613966565b5060066000828152602001908152602001600020600080820160009055600182016000905560028201600090556003820160006139e69190613e0d565b60048201600090556005820160006101000a81549060ff02191690556006820160009055600782016000613a1a9190613e4d565b505050505050565b60008060066000848152602001908152602001600020600701905060005b8180549050811015613af457600460003373ffffffffffffffffffffffffffffffffffffffff1673ffffffffffffffffffffffffffffffffffffffff16815260200190815260200160002054828281548110613ac5577f4e487b7100000000000000000000000000000000000000000000000000000000600052603260045260246000fd5b90600052602060002001541415613ae157600092505050613afb565b8080613aec90615014565b915050613a40565b5060019150505b919050565b600080600090505b60018451613b169190614e84565b811015613b825782848281518110613b57577f4e487b7100000000000000000000000000000000000000000000000000000000600052603260045260246000fd5b60200260200101511415613b6f576001915050613b88565b8080613b7a90615014565b915050613b08565b50600090505b92915050565b600080600090505b8351811015613c035782848281518110613bd9577f4e487b7100000000000000000000000000000000000000000000000000000000600052603260045260246000fd5b60200260200101511415613bf05780915050613c09565b8080613bfb90615014565b915050613b96565b50600090505b92915050565b606082518210613c1e57600080fd5b60008290505b60018451613c329190614e84565b811015613cde5783600182613c479190614da3565b81518110613c7e577f4e487b7100000000000000000000000000000000000000000000000000000000600052603260045260246000fd5b6020026020010151848281518110613cbf577f4e487b7100000000000000000000000000000000000000000000000000000000600052603260045260246000fd5b6020026020010181815250508080613cd690615014565b915050613c24565b508260018451613cee9190614e84565b81518110613d25577f4e487b7100000000000000000000000000000000000000000000000000000000600052603260045260246000fd5b60200260200101600081525082905092915050565b828054613d4690614fb1565b90600052602060002090601f016020900481019282613d685760008555613daf565b82601f10613d8157805160ff1916838001178555613daf565b82800160010185558215613daf579182015b82811115613dae578251825591602001919060010190613d93565b5b509050613dbc9190613e6e565b5090565b828054828255906000526020600020908101928215613dfc579160200282015b82811115613dfb578251825591602001919060010190613de0565b5b509050613e099190613e6e565b5090565b508054613e1990614fb1565b6000825580601f10613e2b5750613e4a565b601f016020900490600052602060002090810190613e499190613e6e565b5b50565b5080546000825590600052602060002090810190613e6b9190613e6e565b50565b5b80821115613e87576000816000905550600101613e6f565b5090565b6000613e9e613e9984614cd5565b614cb0565b90508083825260208201905082856020860282011115613ebd57600080fd5b60005b85811015613eed5781613ed38882613fc8565b845260208401935060208301925050600181019050613ec0565b5050509392505050565b6000613f0a613f0584614d01565b614cb0565b905082815260208101848484011115613f2257600080fd5b613f2d848285614f6f565b509392505050565b600081359050613f44816152b1565b92915050565b600082601f830112613f5b57600080fd5b8135613f6b848260208601613e8b565b91505092915050565b600081359050613f83816152c8565b92915050565b600081359050613f98816152d8565b92915050565b600082601f830112613faf57600080fd5b8135613fbf848260208601613ef7565b91505092915050565b600081359050613fd7816152e8565b92915050565b600060208284031215613fef57600080fd5b6000613ffd84828501613f35565b91505092915050565b60008060008060008060008060008060006101608c8e03121561402857600080fd5b60008c013567ffffffffffffffff81111561404257600080fd5b61404e8e828f01613f4a565b9b5050602061405f8e828f01613fc8565b9a505060406140708e828f01613fc8565b99505060608c013567ffffffffffffffff81111561408d57600080fd5b6140998e828f01613f9e565b98505060808c013567ffffffffffffffff8111156140b657600080fd5b6140c28e828f01613f9e565b97505060a08c013567ffffffffffffffff8111156140df57600080fd5b6140eb8e828f01613f9e565b96505060c08c013567ffffffffffffffff81111561410857600080fd5b6141148e828f01613f9e565b95505060e08c013567ffffffffffffffff81111561413157600080fd5b61413d8e828f01613f9e565b9450506101008c013567ffffffffffffffff81111561415b57600080fd5b6141678e828f01613f9e565b9350506101208c013567ffffffffffffffff81111561418557600080fd5b6141918e828f01613f9e565b9250506101406141a38e828f01613fc8565b9150509295989b509295989b9093969950565b600080600080608085870312156141cc57600080fd5b600085013567ffffffffffffffff8111156141e657600080fd5b6141f287828801613f9e565b945050602061420387828801613f35565b935050604085013567ffffffffffffffff81111561422057600080fd5b61422c87828801613f9e565b925050606061423d87828801613fc8565b91505092959194509250565b6000806000806000806000806000806101408b8d03121561426957600080fd5b60008b013567ffffffffffffffff81111561428357600080fd5b61428f8d828e01613f9e565b9a505060208b013567ffffffffffffffff8111156142ac57600080fd5b6142b88d828e01613f9e565b99505060406142c98d828e01613fc8565b98505060608b013567ffffffffffffffff8111156142e657600080fd5b6142f28d828e01613f9e565b97505060806143038d828e01613f74565b96505060a08b013567ffffffffffffffff81111561432057600080fd5b61432c8d828e01613f9e565b95505060c08b013567ffffffffffffffff81111561434957600080fd5b6143558d828e01613f9e565b94505060e08b013567ffffffffffffffff81111561437257600080fd5b61437e8d828e01613f9e565b9350506101008b013567ffffffffffffffff81111561439c57600080fd5b6143a88d828e01613f9e565b9250506101208b013567ffffffffffffffff8111156143c657600080fd5b6143d28d828e01613f9e565b9150509295989b9194979a5092959850565b600080604083850312156143f757600080fd5b600083013567ffffffffffffffff81111561441157600080fd5b61441d85828601613f9e565b925050602061442e85828601613fc8565b9150509250929050565b60006020828403121561444a57600080fd5b600061445884828501613fc8565b91505092915050565b6000806040838503121561447457600080fd5b600061448285828601613fc8565b925050602061449385828601613f89565b9150509250929050565b600080604083850312156144b057600080fd5b60006144be85828601613fc8565b92505060206144cf85828601613fc8565b9150509250929050565b6000806000606084860312156144ee57600080fd5b60006144fc86828701613fc8565b935050602061450d86828701613fc8565b925050604061451e86828701613fc8565b9150509250925092565b600080600080600060a0868803121561454057600080fd5b600061454e88828901613fc8565b955050602061455f88828901613fc8565b945050604061457088828901613fc8565b935050606086013567ffffffffffffffff81111561458d57600080fd5b61459988828901613f9e565b92505060806145aa88828901613fc8565b9150509295509295909350565b60006145c3838361487f565b60208301905092915050565b6145d881614eb8565b82525050565b60006145e982614d42565b6145f38185614d65565b93506145fe83614d32565b8060005b8381101561462f57815161461688826145b7565b975061462183614d58565b925050600181019050614602565b5085935050505092915050565b61464581614eca565b82525050565b61465481614f39565b82525050565b61466381614f4b565b82525050565b61467281614f5d565b82525050565b600061468382614d4d565b61468d8185614d76565b935061469d818560208601614f7e565b6146a681615148565b840191505092915050565b60006146bc82614d4d565b6146c68185614d87565b93506146d6818560208601614f7e565b6146df81615148565b840191505092915050565b60006146f582614d4d565b6146ff8185614d98565b935061470f818560208601614f7e565b80840191505092915050565b6000614728601a83614d87565b915061473382615159565b602082019050919050565b600061474b601283614d87565b915061475682615182565b602082019050919050565b600061476e602583614d87565b9150614779826151ab565b604082019050919050565b6000614791601283614d87565b915061479c826151fa565b602082019050919050565b60006147b4601283614d87565b91506147bf82615223565b602082019050919050565b60006147d7601383614d87565b91506147e28261524c565b602082019050919050565b600060a083016000830151848203600086015261480a8282614678565b915050602083015184820360208601526148248282614678565b9150506040830151848203604086015261483e8282614678565b915050606083015184820360608601526148588282614678565b915050608083015184820360808601526148728282614678565b9150508091505092915050565b61488881614f2f565b82525050565b61489781614f2f565b82525050565b60006148a982846146ea565b915081905092915050565b600060208201905081810360008301526148ce81846145de565b905092915050565b60006020820190506148eb600083018461463c565b92915050565b6000602082019050818103600083015261490a8161471b565b9050919050565b6000602082019050818103600083015261492a8161473e565b9050919050565b6000602082019050818103600083015261494a81614761565b9050919050565b6000602082019050818103600083015261496a81614784565b9050919050565b6000602082019050818103600083015261498a816147a7565b9050919050565b600060208201905081810360008301526149aa816147ca565b9050919050565b60006020820190506149c6600083018461488e565b92915050565b600060a0820190506149e1600083018861488e565b81810360208301526149f381876146b1565b9050614a0260408301866145cf565b8181036060830152614a1481856146b1565b9050614a23608083018461488e565b9695505050505050565b600061014082019050614a43600083018d61488e565b8181036020830152614a55818c6146b1565b90508181036040830152614a69818b6146b1565b9050614a78606083018a61488e565b8181036080830152614a8a81896146b1565b9050614a9960a08301886145cf565b614aa660c083018761488e565b614ab360e0830186614669565b614ac161010083018561464b565b818103610120830152614ad481846147ed565b90509b9a5050505050505050505050565b600060e082019050614afa600083018a61488e565b8181036020830152614b0c81896146b1565b90508181036040830152614b2081886147ed565b90508181036060830152614b3481876146b1565b9050614b43608083018661488e565b614b5060a083018561488e565b614b5d60c083018461488e565b98975050505050505050565b600060e082019050614b7e600083018a61488e565b614b8b602083018961488e565b614b98604083018861488e565b8181036060830152614baa81876146b1565b9050614bb9608083018661488e565b614bc660a083018561465a565b614bd360c083018461488e565b98975050505050505050565b600060a082019050614bf4600083018861488e565b614c01602083018761488e565b614c0e604083018661488e565b614c1b606083018561488e565b614c28608083018461465a565b9695505050505050565b600061010082019050614c48600083018b61488e565b614c55602083018a61488e565b614c62604083018961488e565b614c6f606083018861488e565b614c7c608083018761488e565b614c8960a083018661488e565b614c9660c083018561488e565b614ca360e083018461488e565b9998505050505050505050565b6000614cba614ccb565b9050614cc68282614fe3565b919050565b6000604051905090565b600067ffffffffffffffff821115614cf057614cef615119565b5b602082029050602081019050919050565b600067ffffffffffffffff821115614d1c57614d1b615119565b5b614d2582615148565b9050602081019050919050565b6000819050602082019050919050565b600081519050919050565b600081519050919050565b6000602082019050919050565b600082825260208201905092915050565b600082825260208201905092915050565b600082825260208201905092915050565b600081905092915050565b6000614dae82614f2f565b9150614db983614f2f565b9250827fffffffffffffffffffffffffffffffffffffffffffffffffffffffffffffffff03821115614dee57614ded61505d565b5b828201905092915050565b6000614e0482614f2f565b9150614e0f83614f2f565b925082614e1f57614e1e61508c565b5b828204905092915050565b6000614e3582614f2f565b9150614e4083614f2f565b9250817fffffffffffffffffffffffffffffffffffffffffffffffffffffffffffffffff0483118215151615614e7957614e7861505d565b5b828202905092915050565b6000614e8f82614f2f565b9150614e9a83614f2f565b925082821015614ead57614eac61505d565b5b828203905092915050565b6000614ec382614f0f565b9050919050565b60008115159050919050565b6000819050614ee482615275565b919050565b6000819050614ef782615289565b919050565b6000819050614f0a8261529d565b919050565b600073ffffffffffffffffffffffffffffffffffffffff82169050919050565b6000819050919050565b6000614f4482614ed6565b9050919050565b6000614f5682614ee9565b9050919050565b6000614f6882614efc565b9050919050565b82818337600083830152505050565b60005b83811015614f9c578082015181840152602081019050614f81565b83811115614fab576000848401525b50505050565b60006002820490506001821680614fc957607f821691505b60208210811415614fdd57614fdc6150ea565b5b50919050565b614fec82615148565b810181811067ffffffffffffffff8211171561500b5761500a615119565b5b80604052505050565b600061501f82614f2f565b91507fffffffffffffffffffffffffffffffffffffffffffffffffffffffffffffffff8214156150525761505161505d565b5b600182019050919050565b7f4e487b7100000000000000000000000000000000000000000000000000000000600052601160045260246000fd5b7f4e487b7100000000000000000000000000000000000000000000000000000000600052601260045260246000fd5b7f4e487b7100000000000000000000000000000000000000000000000000000000600052602160045260246000fd5b7f4e487b7100000000000000000000000000000000000000000000000000000000600052602260045260246000fd5b7f4e487b7100000000000000000000000000000000000000000000000000000000600052604160045260246000fd5b6000601f19601f8301169050919050565b7f41746c656173742037206d656d62657273207265717569726564000000000000600082015250565b7f416c726561647920526567697374657265640000000000000000000000000000600082015250565b7f5573657220697320616c7265616479206e6f7420612070617274206f6620746860008201527f6520534847000000000000000000000000000000000000000000000000000000602082015250565b7f5573657220616c72656164792061646465640000000000000000000000000000600082015250565b7f556e617070726f76656420726571756573740000000000000000000000000000600082015250565b7f556e617574686f72697a65642072657165737400000000000000000000000000600082015250565b60038110615286576152856150bb565b5b50565b6004811061529a576152996150bb565b5b50565b600681106152ae576152ad6150bb565b5b50565b6152ba81614eb8565b81146152c557600080fd5b50565b600381106152d557600080fd5b50565b600681106152e557600080fd5b50565b6152f181614f2f565b81146152fc57600080fd5b5056fea2646970667358221220fc85fcf8bbde82a43617513124fba90cb2b575c22c6414a0f94d1978e474d2eb64736f6c63430008040033",
  "immutableReferences": {},
  "source": "// SPDX-License-Identifier: MIT\npragma solidity ^0.8.1;\nimport \"./lib/Bank.sol\";\nimport \"./lib/SHG.sol\";\nimport \"./lib/User.sol\";\n\ncontract Yogdaan is Bank, SHG, User {\n    address admin;\n\n    constructor() {\n        admin = msg.sender;\n    }\n}\n",
  "sourcePath": "/home/sdas/code/yogdaan-contracts/contracts/yogdaan.sol",
  "compiler": {
    "name": "solc",
    "version": "0.8.4+commit.c7e474f2.Emscripten.clang"
  },
  "schemaVersion": "3.4.9",
  "updatedAt": "2022-08-25T18:44:25.704Z",
  "networkType": "ethereum",
  "devdoc": {
    "kind": "dev",
    "methods": {},
    "version": 1
  },
  "userdoc": {
    "kind": "user",
    "methods": {},
    "version": 1
  }
}