{
  "contractName": "Yogdaan",
  "abi": [
    {
      "inputs": [],
      "stateMutability": "nonpayable",
      "type": "constructor"
    },
    {
      "inputs": [
        {
          "internalType": "string",
          "name": "_name",
          "type": "string"
        },
        {
          "internalType": "address",
          "name": "_walletAddress",
          "type": "address"
        },
        {
          "internalType": "string",
          "name": "_code",
          "type": "string"
        },
        {
          "internalType": "uint256",
          "name": "_intrestRate",
          "type": "uint256"
        }
      ],
      "name": "addBank",
      "outputs": [],
      "stateMutability": "nonpayable",
      "type": "function"
    },
    {
      "inputs": [
        {
          "internalType": "uint256[]",
          "name": "members",
          "type": "uint256[]"
        },
        {
          "internalType": "uint256",
          "name": "president",
          "type": "uint256"
        },
        {
          "internalType": "uint256",
          "name": "treasurer",
          "type": "uint256"
        },
        {
          "internalType": "string",
          "name": "name",
          "type": "string"
        },
        {
          "internalType": "string",
          "name": "_state",
          "type": "string"
        },
        {
          "internalType": "string",
          "name": "_district",
          "type": "string"
        },
        {
          "internalType": "string",
          "name": "_blockName",
          "type": "string"
        },
        {
          "internalType": "string",
          "name": "_panchyatName",
          "type": "string"
        },
        {
          "internalType": "string",
          "name": "_villageName",
          "type": "string"
        },
        {
          "internalType": "string",
          "name": "dateOfFormation",
          "type": "string"
        },
        {
          "internalType": "uint256",
          "name": "_baseIntrest",
          "type": "uint256"
        }
      ],
      "name": "addSHG",
      "outputs": [],
      "stateMutability": "nonpayable",
      "type": "function"
    },
    {
      "inputs": [
        {
          "internalType": "uint256",
          "name": "userid",
          "type": "uint256"
        },
        {
          "internalType": "uint256",
          "name": "shg",
          "type": "uint256"
        }
      ],
      "name": "addSHGMember",
      "outputs": [],
      "stateMutability": "nonpayable",
      "type": "function"
    },
    {
      "inputs": [
        {
          "internalType": "string",
          "name": "name",
          "type": "string"
        },
        {
          "internalType": "string",
          "name": "aadhar",
          "type": "string"
        },
        {
          "internalType": "uint256",
          "name": "mobno",
          "type": "uint256"
        },
        {
          "internalType": "string",
          "name": "fatherName",
          "type": "string"
        },
        {
          "internalType": "enum structs.Gender",
          "name": "gender",
          "type": "uint8"
        },
        {
          "internalType": "string",
          "name": "_state",
          "type": "string"
        },
        {
          "internalType": "string",
          "name": "_district",
          "type": "string"
        },
        {
          "internalType": "string",
          "name": "_blockName",
          "type": "string"
        },
        {
          "internalType": "string",
          "name": "_panchyatName",
          "type": "string"
        },
        {
          "internalType": "string",
          "name": "_villageName",
          "type": "string"
        }
      ],
      "name": "addUser",
      "outputs": [],
      "stateMutability": "nonpayable",
      "type": "function"
    },
    {
      "inputs": [
        {
          "internalType": "address",
          "name": "",
          "type": "address"
        }
      ],
      "name": "addressToBankid",
      "outputs": [
        {
          "internalType": "uint256",
          "name": "",
          "type": "uint256"
        }
      ],
      "stateMutability": "view",
      "type": "function",
      "constant": true
    },
    {
      "inputs": [
        {
          "internalType": "address",
          "name": "",
          "type": "address"
        }
      ],
      "name": "addressToSHGid",
      "outputs": [
        {
          "internalType": "uint256",
          "name": "",
          "type": "uint256"
        }
      ],
      "stateMutability": "view",
      "type": "function",
      "constant": true
    },
    {
      "inputs": [
        {
          "internalType": "address",
          "name": "",
          "type": "address"
        }
      ],
      "name": "addressToUser",
      "outputs": [
        {
          "internalType": "uint256",
          "name": "",
          "type": "uint256"
        }
      ],
      "stateMutability": "view",
      "type": "function",
      "constant": true
    },
    {
      "inputs": [
        {
          "internalType": "uint256",
          "name": "_shgrequestid",
          "type": "uint256"
        },
        {
          "internalType": "uint256",
          "name": "_bankid",
          "type": "uint256"
        }
      ],
      "name": "approveLoan",
      "outputs": [],
      "stateMutability": "nonpayable",
      "type": "function"
    },
    {
      "inputs": [
        {
          "internalType": "uint256",
          "name": "_requestid",
          "type": "uint256"
        },
        {
          "internalType": "uint256",
          "name": "_shgid",
          "type": "uint256"
        }
      ],
      "name": "approveRequest",
      "outputs": [],
      "stateMutability": "nonpayable",
      "type": "function"
    },
    {
      "inputs": [
        {
          "internalType": "uint256",
          "name": "",
          "type": "uint256"
        }
      ],
      "name": "banks",
      "outputs": [
        {
          "internalType": "uint256",
          "name": "id",
          "type": "uint256"
        },
        {
          "internalType": "string",
          "name": "name",
          "type": "string"
        },
        {
          "internalType": "address",
          "name": "walletAddress",
          "type": "address"
        },
        {
          "internalType": "string",
          "name": "code",
          "type": "string"
        },
        {
          "internalType": "uint256",
          "name": "intrestRate",
          "type": "uint256"
        }
      ],
      "stateMutability": "view",
      "type": "function",
      "constant": true
    },
    {
      "inputs": [
        {
          "internalType": "uint256",
          "name": "_userid",
          "type": "uint256"
        },
        {
          "internalType": "uint256",
          "name": "_requestid",
          "type": "uint256"
        }
      ],
      "name": "deleteRequest",
      "outputs": [],
      "stateMutability": "nonpayable",
      "type": "function"
    },
    {
      "inputs": [
        {
          "internalType": "string",
          "name": "",
          "type": "string"
        },
        {
          "internalType": "uint256",
          "name": "",
          "type": "uint256"
        }
      ],
      "name": "districtToSHGs",
      "outputs": [
        {
          "internalType": "uint256",
          "name": "",
          "type": "uint256"
        }
      ],
      "stateMutability": "view",
      "type": "function",
      "constant": true
    },
    {
      "inputs": [
        {
          "internalType": "uint256",
          "name": "bankid",
          "type": "uint256"
        }
      ],
      "name": "getAllBanks",
      "outputs": [
        {
          "components": [
            {
              "internalType": "uint256",
              "name": "id",
              "type": "uint256"
            },
            {
              "internalType": "string",
              "name": "name",
              "type": "string"
            },
            {
              "internalType": "address",
              "name": "walletAddress",
              "type": "address"
            },
            {
              "internalType": "string",
              "name": "code",
              "type": "string"
            },
            {
              "internalType": "uint256",
              "name": "intrestRate",
              "type": "uint256"
            },
            {
              "internalType": "uint256[]",
              "name": "requests",
              "type": "uint256[]"
            }
          ],
          "internalType": "struct structs.Bank",
          "name": "",
          "type": "tuple"
        }
      ],
      "stateMutability": "view",
      "type": "function",
      "constant": true
    },
    {
      "inputs": [
        {
          "internalType": "uint256",
          "name": "userid",
          "type": "uint256"
        }
      ],
      "name": "getAllLoans",
      "outputs": [
        {
          "internalType": "uint256[]",
          "name": "",
          "type": "uint256[]"
        }
      ],
      "stateMutability": "view",
      "type": "function",
      "constant": true
    },
    {
      "inputs": [],
      "name": "getNumUsers",
      "outputs": [
        {
          "internalType": "uint256",
          "name": "",
          "type": "uint256"
        }
      ],
      "stateMutability": "view",
      "type": "function",
      "constant": true
    },
    {
      "inputs": [
        {
          "internalType": "uint256",
          "name": "_shgid",
          "type": "uint256"
        },
        {
          "internalType": "uint256",
          "name": "_loanid",
          "type": "uint256"
        }
      ],
      "name": "getSHGEMI",
      "outputs": [
        {
          "internalType": "uint256",
          "name": "",
          "type": "uint256"
        }
      ],
      "stateMutability": "nonpayable",
      "type": "function"
    },
    {
      "inputs": [
        {
          "internalType": "uint256",
          "name": "shgid",
          "type": "uint256"
        }
      ],
      "name": "getSHGMembers",
      "outputs": [
        {
          "internalType": "uint256[]",
          "name": "",
          "type": "uint256[]"
        }
      ],
      "stateMutability": "view",
      "type": "function",
      "constant": true
    },
    {
      "inputs": [
        {
          "internalType": "uint256",
          "name": "_shgid",
          "type": "uint256"
        }
      ],
      "name": "getSHGRequests",
      "outputs": [
        {
          "internalType": "uint256[]",
          "name": "",
          "type": "uint256[]"
        }
      ],
      "stateMutability": "nonpayable",
      "type": "function"
    },
    {
      "inputs": [],
      "name": "getTotalBanks",
      "outputs": [
        {
          "internalType": "uint256",
          "name": "",
          "type": "uint256"
        }
      ],
      "stateMutability": "view",
      "type": "function",
      "constant": true
    },
    {
      "inputs": [
        {
          "internalType": "uint256",
          "name": "userid",
          "type": "uint256"
        },
        {
          "internalType": "uint256",
          "name": "loanid",
          "type": "uint256"
        }
      ],
      "name": "getUserEMI",
      "outputs": [
        {
          "internalType": "uint256",
          "name": "",
          "type": "uint256"
        }
      ],
      "stateMutability": "nonpayable",
      "type": "function"
    },
    {
      "inputs": [
        {
          "internalType": "uint256",
          "name": "_userid",
          "type": "uint256"
        }
      ],
      "name": "getUserLoanAmount",
      "outputs": [
        {
          "internalType": "uint256",
          "name": "",
          "type": "uint256"
        }
      ],
      "stateMutability": "view",
      "type": "function",
      "constant": true
    },
    {
      "inputs": [
        {
          "internalType": "uint256",
          "name": "_userid",
          "type": "uint256"
        }
      ],
      "name": "getUserRequest",
      "outputs": [
        {
          "internalType": "uint256[]",
          "name": "",
          "type": "uint256[]"
        }
      ],
      "stateMutability": "nonpayable",
      "type": "function"
    },
    {
      "inputs": [
        {
          "internalType": "uint256",
          "name": "_shgrequestid",
          "type": "uint256"
        },
        {
          "internalType": "uint256",
          "name": "_bankid",
          "type": "uint256"
        },
        {
          "internalType": "uint256",
          "name": "_amount",
          "type": "uint256"
        }
      ],
      "name": "grantLoan",
      "outputs": [],
      "stateMutability": "nonpayable",
      "type": "function"
    },
    {
      "inputs": [
        {
          "internalType": "uint256",
          "name": "",
          "type": "uint256"
        }
      ],
      "name": "loans",
      "outputs": [
        {
          "internalType": "uint256",
          "name": "loanId",
          "type": "uint256"
        },
        {
          "internalType": "uint256",
          "name": "lenderId",
          "type": "uint256"
        },
        {
          "internalType": "uint256",
          "name": "amount",
          "type": "uint256"
        },
        {
          "internalType": "uint256",
          "name": "lendeeId",
          "type": "uint256"
        },
        {
          "internalType": "uint256",
          "name": "intrest",
          "type": "uint256"
        },
        {
          "internalType": "uint256",
          "name": "loanTime",
          "type": "uint256"
        },
        {
          "internalType": "uint256",
          "name": "date",
          "type": "uint256"
        },
        {
          "internalType": "uint256",
          "name": "lastEMI",
          "type": "uint256"
        }
      ],
      "stateMutability": "view",
      "type": "function",
      "constant": true
    },
    {
      "inputs": [],
      "name": "login",
      "outputs": [
        {
          "internalType": "bool",
          "name": "",
          "type": "bool"
        }
      ],
      "stateMutability": "view",
      "type": "function",
      "constant": true
    },
    {
      "inputs": [
        {
          "internalType": "uint256",
          "name": "_shgid",
          "type": "uint256"
        },
        {
          "internalType": "uint256",
          "name": "_userid",
          "type": "uint256"
        },
        {
          "internalType": "uint256",
          "name": "_amount",
          "type": "uint256"
        },
        {
          "internalType": "string",
          "name": "_description",
          "type": "string"
        },
        {
          "internalType": "uint256",
          "name": "_loanTime",
          "type": "uint256"
        }
      ],
      "name": "makeRequest",
      "outputs": [],
      "stateMutability": "nonpayable",
      "type": "function"
    },
    {
      "inputs": [
        {
          "internalType": "uint256",
          "name": "_userid",
          "type": "uint256"
        },
        {
          "internalType": "uint256",
          "name": "_loanid",
          "type": "uint256"
        },
        {
          "internalType": "uint256",
          "name": "_amount",
          "type": "uint256"
        }
      ],
      "name": "payEMI",
      "outputs": [],
      "stateMutability": "payable",
      "type": "function",
      "payable": true
    },
    {
      "inputs": [
        {
          "internalType": "uint256",
          "name": "userid",
          "type": "uint256"
        },
        {
          "internalType": "uint256",
          "name": "shgid",
          "type": "uint256"
        }
      ],
      "name": "removeSHGMember",
      "outputs": [],
      "stateMutability": "nonpayable",
      "type": "function"
    },
    {
      "inputs": [
        {
          "internalType": "uint256",
          "name": "_requestid",
          "type": "uint256"
        }
      ],
      "name": "sendGrant",
      "outputs": [],
      "stateMutability": "nonpayable",
      "type": "function"
    },
    {
      "inputs": [
        {
          "internalType": "uint256",
          "name": "_shgid",
          "type": "uint256"
        },
        {
          "internalType": "uint256",
          "name": "_amount",
          "type": "uint256"
        },
        {
          "internalType": "uint256",
          "name": "_loanTime",
          "type": "uint256"
        }
      ],
      "name": "sendRequestToBank",
      "outputs": [],
      "stateMutability": "nonpayable",
      "type": "function"
    },
    {
      "inputs": [
        {
          "internalType": "uint256",
          "name": "_bankid",
          "type": "uint256"
        },
        {
          "internalType": "uint256",
          "name": "_requestid",
          "type": "uint256"
        },
        {
          "internalType": "uint256",
          "name": "_amount",
          "type": "uint256"
        }
      ],
      "name": "shgLoan",
      "outputs": [],
      "stateMutability": "payable",
      "type": "function",
      "payable": true
    },
    {
      "inputs": [
        {
          "internalType": "uint256",
          "name": "_shgid",
          "type": "uint256"
        },
        {
          "internalType": "uint256",
          "name": "_loanid",
          "type": "uint256"
        },
        {
          "internalType": "uint256",
          "name": "_amount",
          "type": "uint256"
        }
      ],
      "name": "shgPayEMI",
      "outputs": [],
      "stateMutability": "nonpayable",
      "type": "function"
    },
    {
      "inputs": [
        {
          "internalType": "uint256",
          "name": "",
          "type": "uint256"
        }
      ],
      "name": "shgRequests",
      "outputs": [
        {
          "internalType": "uint256",
          "name": "requestid",
          "type": "uint256"
        },
        {
          "internalType": "uint256",
          "name": "shgid",
          "type": "uint256"
        },
        {
          "internalType": "uint256",
          "name": "amount",
          "type": "uint256"
        },
        {
          "internalType": "uint256",
          "name": "loanTime",
          "type": "uint256"
        },
        {
          "internalType": "enum structs.RequestStatus",
          "name": "status",
          "type": "uint8"
        }
      ],
      "stateMutability": "view",
      "type": "function",
      "constant": true
    },
    {
      "inputs": [
        {
          "internalType": "uint256",
          "name": "",
          "type": "uint256"
        },
        {
          "internalType": "uint256",
          "name": "",
          "type": "uint256"
        }
      ],
      "name": "shgToRequests",
      "outputs": [
        {
          "internalType": "uint256",
          "name": "",
          "type": "uint256"
        }
      ],
      "stateMutability": "view",
      "type": "function",
      "constant": true
    },
    {
      "inputs": [
        {
          "internalType": "uint256",
          "name": "",
          "type": "uint256"
        }
      ],
      "name": "shgs",
      "outputs": [
        {
          "internalType": "uint256",
          "name": "id",
          "type": "uint256"
        },
        {
          "internalType": "string",
          "name": "name",
          "type": "string"
        },
        {
          "components": [
            {
              "internalType": "string",
              "name": "state",
              "type": "string"
            },
            {
              "internalType": "string",
              "name": "district",
              "type": "string"
            },
            {
              "internalType": "string",
              "name": "blockName",
              "type": "string"
            },
            {
              "internalType": "string",
              "name": "panchyatName",
              "type": "string"
            },
            {
              "internalType": "string",
              "name": "villageName",
              "type": "string"
            }
          ],
          "internalType": "struct structs.Location",
          "name": "location",
          "type": "tuple"
        },
        {
          "internalType": "string",
          "name": "dateOfFormation",
          "type": "string"
        },
        {
          "internalType": "uint256",
          "name": "currentBalance",
          "type": "uint256"
        },
        {
          "internalType": "uint256",
          "name": "owedBalance",
          "type": "uint256"
        },
        {
          "internalType": "uint256",
          "name": "baseIntrest",
          "type": "uint256"
        }
      ],
      "stateMutability": "view",
      "type": "function",
      "constant": true
    },
    {
      "inputs": [
        {
          "internalType": "string",
          "name": "district",
          "type": "string"
        }
      ],
      "name": "shgsOfDistrict",
      "outputs": [
        {
          "internalType": "uint256[]",
          "name": "",
          "type": "uint256[]"
        }
      ],
      "stateMutability": "view",
      "type": "function",
      "constant": true
    },
    {
      "inputs": [],
      "name": "totalNumSHGs",
      "outputs": [
        {
          "internalType": "uint256",
          "name": "",
          "type": "uint256"
        }
      ],
      "stateMutability": "view",
      "type": "function",
      "constant": true
    },
    {
      "inputs": [
        {
          "internalType": "uint256",
          "name": "id",
          "type": "uint256"
        },
        {
          "internalType": "enum structs.UserType",
          "name": "updatedType",
          "type": "uint8"
        }
      ],
      "name": "updateMemberRole",
      "outputs": [],
      "stateMutability": "nonpayable",
      "type": "function"
    },
    {
      "inputs": [
        {
          "internalType": "uint256",
          "name": "",
          "type": "uint256"
        }
      ],
      "name": "userRequests",
      "outputs": [
        {
          "internalType": "uint256",
          "name": "requestId",
          "type": "uint256"
        },
        {
          "internalType": "uint256",
          "name": "userId",
          "type": "uint256"
        },
        {
          "internalType": "uint256",
          "name": "amount",
          "type": "uint256"
        },
        {
          "internalType": "string",
          "name": "description",
          "type": "string"
        },
        {
          "internalType": "uint256",
          "name": "SHGId",
          "type": "uint256"
        },
        {
          "internalType": "enum structs.RequestStatus",
          "name": "status",
          "type": "uint8"
        },
        {
          "internalType": "uint256",
          "name": "loanTime",
          "type": "uint256"
        }
      ],
      "stateMutability": "view",
      "type": "function",
      "constant": true
    },
    {
      "inputs": [
        {
          "internalType": "uint256",
          "name": "_shgid",
          "type": "uint256"
        }
      ],
      "name": "userRequestsOfSHG",
      "outputs": [
        {
          "internalType": "uint256[]",
          "name": "",
          "type": "uint256[]"
        }
      ],
      "stateMutability": "view",
      "type": "function",
      "constant": true
    },
    {
      "inputs": [
        {
          "internalType": "uint256",
          "name": "",
          "type": "uint256"
        },
        {
          "internalType": "uint256",
          "name": "",
          "type": "uint256"
        }
      ],
      "name": "userToRequests",
      "outputs": [
        {
          "internalType": "uint256",
          "name": "",
          "type": "uint256"
        }
      ],
      "stateMutability": "view",
      "type": "function",
      "constant": true
    },
    {
      "inputs": [
        {
          "internalType": "uint256",
          "name": "",
          "type": "uint256"
        }
      ],
      "name": "users",
      "outputs": [
        {
          "internalType": "uint256",
          "name": "id",
          "type": "uint256"
        },
        {
          "internalType": "string",
          "name": "name",
          "type": "string"
        },
        {
          "internalType": "string",
          "name": "aadhar",
          "type": "string"
        },
        {
          "internalType": "uint256",
          "name": "mobno",
          "type": "uint256"
        },
        {
          "internalType": "string",
          "name": "fatherName",
          "type": "string"
        },
        {
          "internalType": "address",
          "name": "walletAddress",
          "type": "address"
        },
        {
          "internalType": "uint256",
          "name": "shgid",
          "type": "uint256"
        },
        {
          "internalType": "enum structs.UserType",
          "name": "userType",
          "type": "uint8"
        },
        {
          "internalType": "enum structs.Gender",
          "name": "gender",
          "type": "uint8"
        },
        {
          "components": [
            {
              "internalType": "string",
              "name": "state",
              "type": "string"
            },
            {
              "internalType": "string",
              "name": "district",
              "type": "string"
            },
            {
              "internalType": "string",
              "name": "blockName",
              "type": "string"
            },
            {
              "internalType": "string",
              "name": "panchyatName",
              "type": "string"
            },
            {
              "internalType": "string",
              "name": "villageName",
              "type": "string"
            }
          ],
          "internalType": "struct structs.Location",
          "name": "location",
          "type": "tuple"
        }
      ],
      "stateMutability": "view",
      "type": "function",
      "constant": true
    }
  ],
  "bytecode": "0x608060405234801561001057600080fd5b5033601260006101000a81548173ffffffffffffffffffffffffffffffffffffffff021916908373ffffffffffffffffffffffffffffffffffffffff160217905550615d8e80620000626000396000f3fe6080604052600436106102505760003560e01c80634f269c9211610139578063a6e90a58116100b6578063d3f86fb81161007a578063d3f86fb81461098c578063db223b4c146109c9578063e1ec3c68146109f2578063edf5388614610a36578063f61074ff14610a73578063f736ae4314610ab057610250565b8063a6e90a5814610895578063af08a94f146108be578063b34e97e8146108fb578063bc1e72ad14610926578063cfcb4b2f1461094f57610250565b80637a646492116100fd5780637a6464921461079a5780637d550bb3146107c357806394169656146107ec57806397e492dd1461082f5780639bbc9ab11461086c57610250565b80634f269c92146106a15780635df3fc81146106ca57806361c91b70146106f557806365f88c0d14610732578063769d0e161461075d57610250565b806326271cf2116101d257806339d8bed11161019657806339d8bed1146105685780633ae0058f146105915780633c565757146105ce5780633cec42721461060b57806342f5f815146106485780634d82d8e81461066457610250565b806326271cf2146104505780632c0a90a9146104935780632e131046146104bc578063365b98b2146104e5578063368c2c531461052b57610250565b806311c988151161021957806311c988151461036257806314795ce31461038d5780631d3ff78a146103b6578063249c4bff146103f3578063257a170b1461040f57610250565b806285ae2b14610255578063021af397146102965780630227f435146102bf578063089511f7146102e85780630c1c788314610325575b600080fd5b34801561026157600080fd5b5061027c60048036038101906102779190614d5a565b610ad9565b60405161028d959493929190615414565b60405180910390f35b3480156102a257600080fd5b506102bd60048036038101906102b89190614dfb565b610c3f565b005b3480156102cb57600080fd5b506102e660048036038101906102e19190614e4a565b610e16565b005b3480156102f457600080fd5b5061030f600480360381019061030a9190614d5a565b611069565b60405161031c91906153f9565b60405180910390f35b34801561033157600080fd5b5061034c60048036038101906103479190614dbf565b611150565b60405161035991906153f9565b60405180910390f35b34801561036e57600080fd5b50610377611181565b60405161038491906153f9565b60405180910390f35b34801561039957600080fd5b506103b460048036038101906103af9190614ad8565b61118b565b005b3480156103c257600080fd5b506103dd60048036038101906103d89190614d5a565b61136b565b6040516103ea91906152da565b60405180910390f35b61040d60048036038101906104089190614dfb565b611450565b005b34801561041b57600080fd5b5061043660048036038101906104319190614d5a565b611659565b604051610447959493929190615627565b60405180910390f35b34801561045c57600080fd5b5061047760048036038101906104729190614d5a565b61169c565b60405161048a979695949392919061552d565b60405180910390f35b34801561049f57600080fd5b506104ba60048036038101906104b59190614dbf565b611ad2565b005b3480156104c857600080fd5b506104e360048036038101906104de9190614b6b565b611c28565b005b3480156104f157600080fd5b5061050c60048036038101906105079190614d5a565b6121c6565b6040516105229a99989796959493929190615475565b60405180910390f35b34801561053757600080fd5b50610552600480360381019061054d9190614d5a565b6126d0565b60405161055f91906152da565b60405180910390f35b34801561057457600080fd5b5061058f600480360381019061058a9190614dbf565b61273e565b005b34801561059d57600080fd5b506105b860048036038101906105b391906148be565b612854565b6040516105c591906153f9565b60405180910390f35b3480156105da57600080fd5b506105f560048036038101906105f09190614dbf565b61286c565b60405161060291906153f9565b60405180910390f35b34801561061757600080fd5b50610632600480360381019061062d9190614d06565b61297e565b60405161063f91906153f9565b60405180910390f35b610662600480360381019061065d9190614dfb565b6129c5565b005b34801561067057600080fd5b5061068b60048036038101906106869190614d5a565b612aa3565b60405161069891906153d7565b60405180910390f35b3480156106ad57600080fd5b506106c860048036038101906106c39190614d83565b612cb6565b005b3480156106d657600080fd5b506106df612d1d565b6040516106ec91906153f9565b60405180910390f35b34801561070157600080fd5b5061071c600480360381019061071791906148be565b612d27565b60405161072991906153f9565b60405180910390f35b34801561073e57600080fd5b50610747612d3f565b60405161075491906153f9565b60405180910390f35b34801561076957600080fd5b50610784600480360381019061077f9190614dbf565b612d49565b60405161079191906153f9565b60405180910390f35b3480156107a657600080fd5b506107c160048036038101906107bc9190614dbf565b612e5c565b005b3480156107cf57600080fd5b506107ea60048036038101906107e59190614dfb565b612eeb565b005b3480156107f857600080fd5b50610813600480360381019061080e9190614d5a565b612fca565b60405161082697969594939291906155b1565b60405180910390f35b34801561083b57600080fd5b5061085660048036038101906108519190614a97565b6130a1565b60405161086391906152da565b60405180910390f35b34801561087857600080fd5b50610893600480360381019061088e9190614d5a565b613117565b005b3480156108a157600080fd5b506108bc60048036038101906108b79190614dbf565b6135bf565b005b3480156108ca57600080fd5b506108e560048036038101906108e09190614d5a565b613751565b6040516108f291906152da565b60405180910390f35b34801561090757600080fd5b506109106137bf565b60405161091d91906152fc565b60405180910390f35b34801561093257600080fd5b5061094d600480360381019061094891906148e7565b613869565b005b34801561095b57600080fd5b5061097660048036038101906109719190614d5a565b613e8b565b60405161098391906152da565b60405180910390f35b34801561099857600080fd5b506109b360048036038101906109ae9190614d5a565b613f1d565b6040516109c091906152da565b60405180910390f35b3480156109d557600080fd5b506109f060048036038101906109eb9190614dfb565b614002565b005b3480156109fe57600080fd5b50610a196004803603810190610a149190614d5a565b61411c565b604051610a2d98979695949392919061567a565b60405180910390f35b348015610a4257600080fd5b50610a5d6004803603810190610a5891906148be565b614164565b604051610a6a91906153f9565b60405180910390f35b348015610a7f57600080fd5b50610a9a6004803603810190610a959190614dbf565b61417c565b604051610aa791906153f9565b60405180910390f35b348015610abc57600080fd5b50610ad76004803603810190610ad29190614dbf565b6141ad565b005b6003602052806000526040600020600091509050806000015490806001018054610b0290615a0a565b80601f0160208091040260200160405190810160405280929190818152602001828054610b2e90615a0a565b8015610b7b5780601f10610b5057610100808354040283529160200191610b7b565b820191906000526020600020905b815481529060010190602001808311610b5e57829003601f168201915b5050505050908060020160009054906101000a900473ffffffffffffffffffffffffffffffffffffffff1690806003018054610bb690615a0a565b80601f0160208091040260200160405190810160405280929190818152602001828054610be290615a0a565b8015610c2f5780601f10610c0457610100808354040283529160200191610c2f565b820191906000526020600020905b815481529060010190602001808311610c1257829003601f168201915b5050505050908060040154905085565b82600060016000838152602001908152602001600020600001541415610c6457600080fd5b83600080600460003373ffffffffffffffffffffffffffffffffffffffff1673ffffffffffffffffffffffffffffffffffffffff1681526020019081526020016000205481526020019081526020016000206008015414610cc457600080fd5b6000600f6000815480929190610cd990615a6d565b9190505590506040518060a00160405280828152602001868152602001858152602001848152602001600380811115610d3b577f4e487b7100000000000000000000000000000000000000000000000000000000600052602160045260246000fd5b815250600760008381526020019081526020016000206000820151816000015560208201518160010155604082015181600201556060820151816003015560808201518160040160006101000a81548160ff02191690836003811115610dca577f4e487b7100000000000000000000000000000000000000000000000000000000600052602160045260246000fd5b021790555090505060016000868152602001908152602001600020600c018190806001815401808255809150506001900390600052602060002001600090919091909150555050505050565b6000600e60008154610e2790615a6d565b9190508190559050604051806101000160405280828152602001868152602001858152602001848152602001878152602001600380811115610e92577f4e487b7100000000000000000000000000000000000000000000000000000000600052602160045260246000fd5b8152602001838152602001600067ffffffffffffffff811115610ede577f4e487b7100000000000000000000000000000000000000000000000000000000600052604160045260246000fd5b604051908082528060200260200182016040528015610f0c5781602001602082028036833780820191505090505b50815250600660008381526020019081526020016000206000820151816000015560208201518160010155604082015181600201556060820151816003019080519060200190610f5d9291906145cf565b506080820151816004015560a08201518160050160006101000a81548160ff02191690836003811115610fb9577f4e487b7100000000000000000000000000000000000000000000000000000000600052602160045260246000fd5b021790555060c0820151816006015560e0820151816007019080519060200190610fe4929190614655565b5090505060008086815260200190815260200160002060070181908060018154018082558091505060019003906000526020600020016000909190919091505560016000878152602001908152602001600020600d01819080600181540180825580915050600190039060005260206000200160009091909190915055505050505050565b6000806000905060008060008581526020019081526020016000206006018054806020026020016040519081016040528092919081815260200182805480156110d157602002820191906000526020600020905b8154815260200190600101908083116110bd575b5050505050905060005b81518110156111455781818151811061111d577f4e487b7100000000000000000000000000000000000000000000000000000000600052603260045260246000fd5b60200260200101518361113091906157fc565b9250808061113d90615a6d565b9150506110db565b508192505050919050565b600a602052816000526040600020818154811061116c57600080fd5b90600052602060002001600091509150505481565b6000601054905090565b600060106000815461119c90615a6d565b91905081905590506040518060c001604052808281526020018681526020018573ffffffffffffffffffffffffffffffffffffffff168152602001848152602001838152602001600067ffffffffffffffff811115611224577f4e487b7100000000000000000000000000000000000000000000000000000000600052604160045260246000fd5b6040519080825280602002602001820160405280156112525781602001602082028036833780820191505090505b508152506003600083815260200190815260200160002060008201518160000155602082015181600101908051906020019061128f9291906145cf565b5060408201518160020160006101000a81548173ffffffffffffffffffffffffffffffffffffffff021916908373ffffffffffffffffffffffffffffffffffffffff16021790555060608201518160030190805190602001906112f39291906145cf565b506080820151816004015560a082015181600501908051906020019061131a929190614655565b50905050601054600960008673ffffffffffffffffffffffffffffffffffffffff1673ffffffffffffffffffffffffffffffffffffffff168152602001908152602001600020819055505050505050565b606060005b600e548110156113e65782600660008381526020019081526020016000206001015414156113d357600a60008481526020019081526020016000208190806001815401808255809150506001900390600052602060002001600090919091909150555b80806113de90615a6d565b915050611370565b50600a600083815260200190815260200160002080548060200260200160405190810160405280929190818152602001828054801561144457602002820191906000526020600020905b815481526020019060010190808311611430575b50505050509050919050565b8260006003600083815260200190815260200160002060000154141561147557600080fd5b600060405180610100016040528060116000815461149290615a6d565b9190508190558152602001600760008781526020019081526020016000206001015481526020018481526020018681526020016003600088815260200190815260200160002060040154815260200160076000878152602001908152602001600020600301548152602001428152602001600081525090506001600060076000878152602001908152602001600020600101548152602001908152602001600020600c0160115490806001815401808255809150506001900390600052602060002001600090919091909150553073ffffffffffffffffffffffffffffffffffffffff166108fc849081150290604051600060405180830381858888f193505050501580156115a5573d6000803e3d6000fd5b5082600160006007600088815260200190815260200160002060010154815260200190815260200160002060090160008282546115e291906157fc565b9250508190555080600560006011548152602001908152602001600020600082015181600001556020820151816001015560408201518160020155606082015181600301556080820151816004015560a0820151816005015560c0820151816006015560e082015181600701559050505050505050565b60076020528060005260406000206000915090508060000154908060010154908060020154908060030154908060040160009054906101000a900460ff16905085565b60016020528060005260406000206000915090508060000154908060020180546116c590615a0a565b80601f01602080910402602001604051908101604052809291908181526020018280546116f190615a0a565b801561173e5780601f106117135761010080835404028352916020019161173e565b820191906000526020600020905b81548152906001019060200180831161172157829003601f168201915b505050505090806003016040518060a001604052908160008201805461176390615a0a565b80601f016020809104026020016040519081016040528092919081815260200182805461178f90615a0a565b80156117dc5780601f106117b1576101008083540402835291602001916117dc565b820191906000526020600020905b8154815290600101906020018083116117bf57829003601f168201915b505050505081526020016001820180546117f590615a0a565b80601f016020809104026020016040519081016040528092919081815260200182805461182190615a0a565b801561186e5780601f106118435761010080835404028352916020019161186e565b820191906000526020600020905b81548152906001019060200180831161185157829003601f168201915b5050505050815260200160028201805461188790615a0a565b80601f01602080910402602001604051908101604052809291908181526020018280546118b390615a0a565b80156119005780601f106118d557610100808354040283529160200191611900565b820191906000526020600020905b8154815290600101906020018083116118e357829003601f168201915b5050505050815260200160038201805461191990615a0a565b80601f016020809104026020016040519081016040528092919081815260200182805461194590615a0a565b80156119925780601f1061196757610100808354040283529160200191611992565b820191906000526020600020905b81548152906001019060200180831161197557829003601f168201915b505050505081526020016004820180546119ab90615a0a565b80601f01602080910402602001604051908101604052809291908181526020018280546119d790615a0a565b8015611a245780601f106119f957610100808354040283529160200191611a24565b820191906000526020600020905b815481529060010190602001808311611a0757829003601f168201915b50505050508152505090806008018054611a3d90615a0a565b80601f0160208091040260200160405190810160405280929190818152602001828054611a6990615a0a565b8015611ab65780601f10611a8b57610100808354040283529160200191611ab6565b820191906000526020600020905b815481529060010190602001808311611a9957829003601f168201915b50505050509080600901549080600a01549080600e0154905087565b80600060016000838152602001908152602001600020600001541415611af757600080fd5b600060066000858152602001908152602001600020905082816004015414611b1e57600080fd5b611b27846142b7565b611b3057600080fd5b80600701600460003373ffffffffffffffffffffffffffffffffffffffff1673ffffffffffffffffffffffffffffffffffffffff16815260200190815260200160002054908060018154018082558091505060019003906000526020600020016000909190919091505560026001600085815260200190815260200160002060010180549050611bc09190615852565b81600701805490501115611c225760008160050160006101000a81548160ff02191690836003811115611c1c577f4e487b7100000000000000000000000000000000000000000000000000000000600052602160045260246000fd5b02179055505b50505050565b3373ffffffffffffffffffffffffffffffffffffffff16600080600460003373ffffffffffffffffffffffffffffffffffffffff1673ffffffffffffffffffffffffffffffffffffffff16815260200190815260200160002054815260200190815260200160002060050160009054906101000a900473ffffffffffffffffffffffffffffffffffffffff1673ffffffffffffffffffffffffffffffffffffffff161415611d0b576040517f08c379a0000000000000000000000000000000000000000000000000000000008152600401611d0290615337565b60405180910390fd5b6000600c60008154611d1c90615a6d565b919050819055905080600460003373ffffffffffffffffffffffffffffffffffffffff1673ffffffffffffffffffffffffffffffffffffffff1681526020019081526020016000208190555060006040518060a00160405280888152602001878152602001868152602001858152602001848152509050604051806101800160405280600c6000815480929190611db290615a6d565b9190505581526020018d81526020018c81526020018b81526020018a81526020013373ffffffffffffffffffffffffffffffffffffffff168152602001600067ffffffffffffffff811115611e30577f4e487b7100000000000000000000000000000000000000000000000000000000600052604160045260246000fd5b604051908082528060200260200182016040528015611e5e5781602001602082028036833780820191505090505b508152602001600067ffffffffffffffff811115611ea5577f4e487b7100000000000000000000000000000000000000000000000000000000600052604160045260246000fd5b604051908082528060200260200182016040528015611ed35781602001602082028036833780820191505090505b5081526020016000815260200160046005811115611f1a577f4e487b7100000000000000000000000000000000000000000000000000000000600052602160045260246000fd5b8152602001896002811115611f58577f4e487b7100000000000000000000000000000000000000000000000000000000600052602160045260246000fd5b815260200182815250600080848152602001908152602001600020600082015181600001556020820151816001019080519060200190611f999291906145cf565b506040820151816002019080519060200190611fb69291906145cf565b50606082015181600301556080820151816004019080519060200190611fdd9291906145cf565b5060a08201518160050160006101000a81548173ffffffffffffffffffffffffffffffffffffffff021916908373ffffffffffffffffffffffffffffffffffffffff16021790555060c0820151816006019080519060200190612041929190614655565b5060e082015181600701908051906020019061205e929190614655565b5061010082015181600801556101208201518160090160006101000a81548160ff021916908360058111156120bc577f4e487b7100000000000000000000000000000000000000000000000000000000600052602160045260246000fd5b02179055506101408201518160090160016101000a81548160ff02191690836002811115612113577f4e487b7100000000000000000000000000000000000000000000000000000000600052602160045260246000fd5b021790555061016082015181600a01600082015181600001908051906020019061213e9291906145cf565b50602082015181600101908051906020019061215b9291906145cf565b5060408201518160020190805190602001906121789291906145cf565b5060608201518160030190805190602001906121959291906145cf565b5060808201518160040190805190602001906121b29291906145cf565b505050905050505050505050505050505050565b60006020528060005260406000206000915090508060000154908060010180546121ef90615a0a565b80601f016020809104026020016040519081016040528092919081815260200182805461221b90615a0a565b80156122685780601f1061223d57610100808354040283529160200191612268565b820191906000526020600020905b81548152906001019060200180831161224b57829003601f168201915b50505050509080600201805461227d90615a0a565b80601f01602080910402602001604051908101604052809291908181526020018280546122a990615a0a565b80156122f65780601f106122cb576101008083540402835291602001916122f6565b820191906000526020600020905b8154815290600101906020018083116122d957829003601f168201915b50505050509080600301549080600401805461231190615a0a565b80601f016020809104026020016040519081016040528092919081815260200182805461233d90615a0a565b801561238a5780601f1061235f5761010080835404028352916020019161238a565b820191906000526020600020905b81548152906001019060200180831161236d57829003601f168201915b5050505050908060050160009054906101000a900473ffffffffffffffffffffffffffffffffffffffff16908060080154908060090160009054906101000a900460ff16908060090160019054906101000a900460ff169080600a016040518060a001604052908160008201805461240190615a0a565b80601f016020809104026020016040519081016040528092919081815260200182805461242d90615a0a565b801561247a5780601f1061244f5761010080835404028352916020019161247a565b820191906000526020600020905b81548152906001019060200180831161245d57829003601f168201915b5050505050815260200160018201805461249390615a0a565b80601f01602080910402602001604051908101604052809291908181526020018280546124bf90615a0a565b801561250c5780601f106124e15761010080835404028352916020019161250c565b820191906000526020600020905b8154815290600101906020018083116124ef57829003601f168201915b5050505050815260200160028201805461252590615a0a565b80601f016020809104026020016040519081016040528092919081815260200182805461255190615a0a565b801561259e5780601f106125735761010080835404028352916020019161259e565b820191906000526020600020905b81548152906001019060200180831161258157829003601f168201915b505050505081526020016003820180546125b790615a0a565b80601f01602080910402602001604051908101604052809291908181526020018280546125e390615a0a565b80156126305780601f1061260557610100808354040283529160200191612630565b820191906000526020600020905b81548152906001019060200180831161261357829003601f168201915b5050505050815260200160048201805461264990615a0a565b80601f016020809104026020016040519081016040528092919081815260200182805461267590615a0a565b80156126c25780601f10612697576101008083540402835291602001916126c2565b820191906000526020600020905b8154815290600101906020018083116126a557829003601f168201915b50505050508152505090508a565b606060016000838152602001908152602001600020600d0180548060200260200160405190810160405280929190818152602001828054801561273257602002820191906000526020600020905b81548152602001906001019080831161271e575b50505050509050919050565b806000808481526020019081526020016000206008015414612795576040517f08c379a000000000000000000000000000000000000000000000000000000000815260040161278c90615377565b60405180910390fd5b8060008084815260200190815260200160002060080181905550600360008084815260200190815260200160002060090160006101000a81548160ff0219169083600581111561280e577f4e487b7100000000000000000000000000000000000000000000000000000000600052602160045260246000fd5b0217905550600160008281526020019081526020016000206001018290806001815401808255809150506001900390600052602060002001600090919091909150555050565b60086020528060005260406000206000915090505481565b600082600080600083815260200190815260200160002060000154141561289257600080fd5b60006005600085815260200190815260200160002090506000601e603c8060188560070154426128c291906158dd565b6128cc9190615852565b6128d69190615883565b6128e09190615883565b6128ea9190615883565b9050600081116128f957600080fd5b600082600201549050600083600401549050600084600501549050600081600c6129239190615883565b600c6064856129329190615852565b61293c9190615883565b600161294891906157fc565b856129539190615883565b18905080866002015461296691906158dd565b86600201819055508097505050505050505092915050565b60028280516020810182018051848252602083016020850120818352809550505050505081815481106129b057600080fd5b90600052602060002001600091509150505481565b8260008060008381526020019081526020016000206000015414156129e957600080fd5b60006129f5858561286c565b9050828114612a0357600080fd5b60006005600086815260200190815260200160002090503073ffffffffffffffffffffffffffffffffffffffff166108fc859081150290604051600060405180830381858888f19350505050158015612a60573d6000803e3d6000fd5b508360016000836003015481526020019081526020016000206009016000828254612a8b91906157fc565b92505081905550428160070181905550505050505050565b612aab6146a2565b600360008381526020019081526020016000206040518060c001604052908160008201548152602001600182018054612ae390615a0a565b80601f0160208091040260200160405190810160405280929190818152602001828054612b0f90615a0a565b8015612b5c5780601f10612b3157610100808354040283529160200191612b5c565b820191906000526020600020905b815481529060010190602001808311612b3f57829003601f168201915b505050505081526020016002820160009054906101000a900473ffffffffffffffffffffffffffffffffffffffff1673ffffffffffffffffffffffffffffffffffffffff1673ffffffffffffffffffffffffffffffffffffffff168152602001600382018054612bcb90615a0a565b80601f0160208091040260200160405190810160405280929190818152602001828054612bf790615a0a565b8015612c445780601f10612c1957610100808354040283529160200191612c44565b820191906000526020600020905b815481529060010190602001808311612c2757829003601f168201915b505050505081526020016004820154815260200160058201805480602002602001604051908101604052809291908181526020018280548015612ca657602002820191906000526020600020905b815481526020019060010190808311612c92575b5050505050815250509050919050565b8060008084815260200190815260200160002060090160006101000a81548160ff02191690836005811115612d14577f4e487b7100000000000000000000000000000000000000000000000000000000600052602160045260246000fd5b02179055505050565b6000600d54905090565b60096020528060005260406000206000915090505481565b6000600c54905090565b600082600060016000838152602001908152602001600020600001541415612d7057600080fd5b60006005600085815260200190815260200160002090506000601e603c806018856007015442612da091906158dd565b612daa9190615852565b612db49190615883565b612dbe9190615883565b612dc89190615883565b905060008111612dd757600080fd5b600082600201549050600083600401549050600084600501549050600081600c612e019190615883565b600c606485612e109190615852565b612e1a9190615883565b6001612e2691906157fc565b85612e319190615883565b189050808660020154612e4491906158dd565b86600201819055508097505050505050505092915050565b80600060036000838152602001908152602001600020600001541415612e8157600080fd5b60006007600085815260200190815260200160002060040160006101000a81548160ff02191690836003811115612ee1577f4e487b7100000000000000000000000000000000000000000000000000000000600052602160045260246000fd5b0217905550505050565b82600060016000838152602001908152602001600020600001541415612f1057600080fd5b6000612f1c8585612d49565b9050828114612f2a57600080fd5b60006005600086815260200190815260200160002090503073ffffffffffffffffffffffffffffffffffffffff166108fc859081150290604051600060405180830381858888f19350505050158015612f87573d6000803e3d6000fd5b508360016000836003015481526020019081526020016000206009016000828254612fb291906157fc565b92505081905550428160070181905550505050505050565b6006602052806000526040600020600091509050806000015490806001015490806002015490806003018054612fff90615a0a565b80601f016020809104026020016040519081016040528092919081815260200182805461302b90615a0a565b80156130785780601f1061304d57610100808354040283529160200191613078565b820191906000526020600020905b81548152906001019060200180831161305b57829003601f168201915b5050505050908060040154908060050160009054906101000a900460ff16908060060154905087565b60606002826040516130b391906152c3565b908152602001604051809103902080548060200260200160405190810160405280929190818152602001828054801561310b57602002820191906000526020600020905b8154815260200190600101908083116130f7575b50505050509050919050565b60026005811115613151577f4e487b7100000000000000000000000000000000000000000000000000000000600052602160045260246000fd5b600080600460003373ffffffffffffffffffffffffffffffffffffffff1673ffffffffffffffffffffffffffffffffffffffff16815260200190815260200160002054815260200190815260200160002060090160009054906101000a900460ff1660058111156131eb577f4e487b7100000000000000000000000000000000000000000000000000000000600052602160045260246000fd5b1461322b576040517f08c379a0000000000000000000000000000000000000000000000000000000008152600401613222906153b7565b60405180910390fd5b60006003811115613265577f4e487b7100000000000000000000000000000000000000000000000000000000600052602160045260246000fd5b6006600083815260200190815260200160002060050160009054906101000a900460ff1660038111156132c1577f4e487b7100000000000000000000000000000000000000000000000000000000600052602160045260246000fd5b14613301576040517f08c379a00000000000000000000000000000000000000000000000000000000081526004016132f890615397565b60405180910390fd5b600060066000838152602001908152602001600020905060018160050160006101000a81548160ff02191690836003811115613366577f4e487b7100000000000000000000000000000000000000000000000000000000600052602160045260246000fd5b0217905550600060405180610100016040528060116000815461338890615a6d565b91905081905581526020018360040154815260200183600201548152602001836001015481526020016001600085600401548152602001908152602001600020600e01548152602001836006015481526020014281526020016000815250905080600560006011548152602001908152602001600020600082015181600001556020820151816001015560408201518160020155606082015181600301556080820151816004015560a0820151816005015560c0820151816006015560e082015181600701559050506001600083600401548152602001908152602001600020600b0160115490806001815401808255809150506001900390600052602060002001600090919091909150556000808360010154815260200190815260200160002060060160115490806001815401808255809150506001900390600052602060002001600090919091909150558160020154600160008460040154815260200190815260200160002060090154101561350157600080fd5b6000808360010154815260200190815260200160002060050160009054906101000a900473ffffffffffffffffffffffffffffffffffffffff1673ffffffffffffffffffffffffffffffffffffffff166108fc83600201549081150290604051600060405180830381858888f19350505050158015613584573d6000803e3d6000fd5b508160020154600160008460040154815260200190815260200160002060090160008282546135b391906158dd565b92505081905550505050565b60006001600083815260200190815260200160002090506136328160010180548060200260200160405190810160405280929190818152602001828054801561362757602002820191906000526020600020905b815481526020019060010190808311613613575b505050505083614395565b613671576040517f08c379a000000000000000000000000000000000000000000000000000000000815260040161366890615357565b60405180910390fd5b60006136cf826001018054806020026020016040519081016040528092919081815260200182805480156136c457602002820191906000526020600020905b8154815260200190600101908083116136b0575b505050505085614423565b9050600061372f8360010180548060200260200160405190810160405280929190818152602001828054801561372457602002820191906000526020600020905b815481526020019060010190808311613710575b5050505050836144a4565b905080836001019080519060200190613749929190614655565b505050505050565b6060600160008381526020019081526020016000206001018054806020026020016040519081016040528092919081815260200182805480156137b357602002820191906000526020600020905b81548152602001906001019080831161379f575b50505050509050919050565b60003373ffffffffffffffffffffffffffffffffffffffff16600080600460003373ffffffffffffffffffffffffffffffffffffffff1673ffffffffffffffffffffffffffffffffffffffff16815260200190815260200160002054815260200190815260200160002060050160009054906101000a900473ffffffffffffffffffffffffffffffffffffffff1673ffffffffffffffffffffffffffffffffffffffff1614905090565b60078b5110156138ae576040517f08c379a00000000000000000000000000000000000000000000000000000000081526004016138a590615317565b60405180910390fd5b6000600d600081546138bf90615a6d565b919050819055905060006040518060a001604052808a81526020018981526020018881526020018781526020018681525090506040518061016001604052808381526020018e81526020018b81526020018281526020018581526020016000815260200160008152602001600067ffffffffffffffff81111561396b577f4e487b7100000000000000000000000000000000000000000000000000000000600052604160045260246000fd5b6040519080825280602002602001820160405280156139995781602001602082028036833780820191505090505b508152602001600067ffffffffffffffff8111156139e0577f4e487b7100000000000000000000000000000000000000000000000000000000600052604160045260246000fd5b604051908082528060200260200182016040528015613a0e5781602001602082028036833780820191505090505b508152602001600067ffffffffffffffff811115613a55577f4e487b7100000000000000000000000000000000000000000000000000000000600052604160045260246000fd5b604051908082528060200260200182016040528015613a835781602001602082028036833780820191505090505b5081526020018481525060016000848152602001908152602001600020600082015181600001556020820151816001019080519060200190613ac6929190614655565b506040820151816002019080519060200190613ae39291906145cf565b506060820151816003016000820151816000019080519060200190613b099291906145cf565b506020820151816001019080519060200190613b269291906145cf565b506040820151816002019080519060200190613b439291906145cf565b506060820151816003019080519060200190613b609291906145cf565b506080820151816004019080519060200190613b7d9291906145cf565b5050506080820151816008019080519060200190613b9c9291906145cf565b5060a0820151816009015560c082015181600a015560e082015181600b019080519060200190613bcd929190614655565b5061010082015181600c019080519060200190613beb929190614655565b5061012082015181600d019080519060200190613c09929190614655565b5061014082015181600e015590505060005b8d51811015613e365760008e8281518110613c5f577f4e487b7100000000000000000000000000000000000000000000000000000000600052603260045260246000fd5b60200260200101519050600360008083815260200190815260200160002060090160006101000a81548160ff02191690836005811115613cc8577f4e487b7100000000000000000000000000000000000000000000000000000000600052602160045260246000fd5b02179055508d811415613d3a57600080600083815260200190815260200160002060090160006101000a81548160ff02191690836005811115613d34577f4e487b7100000000000000000000000000000000000000000000000000000000600052602160045260246000fd5b02179055505b8c811415613da757600260008083815260200190815260200160002060090160006101000a81548160ff02191690836005811115613da1577f4e487b7100000000000000000000000000000000000000000000000000000000600052602160045260246000fd5b02179055505b600d546008600080600085815260200190815260200160002060050160009054906101000a900473ffffffffffffffffffffffffffffffffffffffff1673ffffffffffffffffffffffffffffffffffffffff1673ffffffffffffffffffffffffffffffffffffffff16815260200190815260200160002081905550508080613e2e90615a6d565b915050613c1b565b50600288604051613e4791906152c3565b908152602001604051809103902082908060018154018082558091505060019003906000526020600020016000909190919091505550505050505050505050505050565b6060816000806000838152602001908152602001600020600001541415613eb157600080fd5b600080848152602001908152602001600020600601805480602002602001604051908101604052809291908181526020018280548015613f1057602002820191906000526020600020905b815481526020019060010190808311613efc575b5050505050915050919050565b606060005b600f54811015613f98578260076000838152602001908152602001600020600101541415613f8557600b60008481526020019081526020016000208190806001815401808255809150506001900390600052602060002001600090919091909150555b8080613f9090615a6d565b915050613f22565b50600b6000838152602001908152602001600020805480602002602001604051908101604052809291908181526020018280548015613ff657602002820191906000526020600020905b815481526020019060010190808311613fe2575b50505050509050919050565b8160006003600083815260200190815260200160002060000154141561402757600080fd5b3073ffffffffffffffffffffffffffffffffffffffff166108fc839081150290604051600060405180830381858888f1935050505015801561406d573d6000803e3d6000fd5b5060016007600086815260200190815260200160002060040160006101000a81548160ff021916908360038111156140ce577f4e487b7100000000000000000000000000000000000000000000000000000000600052602160045260246000fd5b0217905550816001600060076000888152602001908152602001600020600101548152602001908152602001600020600901600082825461410f91906157fc565b9250508190555050505050565b60056020528060005260406000206000915090508060000154908060010154908060020154908060030154908060040154908060050154908060060154908060070154905088565b60046020528060005260406000206000915090505481565b600b602052816000526040600020818154811061419857600080fd5b90600052602060002001600091509150505481565b8160008060008381526020019081526020016000206000015414156141d157600080fd5b826006600084815260200190815260200160002060010154146141f357600080fd5b600080600090505b600e5481101561423e57846006600083815260200190815260200160002060010154141561422b5780915061423e565b808061423690615a6d565b9150506141fb565b50600660008281526020019081526020016000206000808201600090556001820160009055600282016000905560038201600061427b91906146ee565b60048201600090556005820160006101000a81549060ff021916905560068201600090556007820160006142af919061472e565b505050505050565b60008060066000848152602001908152602001600020600701905060005b818054905081101561438957600460003373ffffffffffffffffffffffffffffffffffffffff1673ffffffffffffffffffffffffffffffffffffffff1681526020019081526020016000205482828154811061435a577f4e487b7100000000000000000000000000000000000000000000000000000000600052603260045260246000fd5b9060005260206000200154141561437657600092505050614390565b808061438190615a6d565b9150506142d5565b5060019150505b919050565b600080600090505b600184516143ab91906158dd565b81101561441757828482815181106143ec577f4e487b7100000000000000000000000000000000000000000000000000000000600052603260045260246000fd5b6020026020010151141561440457600191505061441d565b808061440f90615a6d565b91505061439d565b50600090505b92915050565b600080600090505b8351811015614498578284828151811061446e577f4e487b7100000000000000000000000000000000000000000000000000000000600052603260045260246000fd5b60200260200101511415614485578091505061449e565b808061449090615a6d565b91505061442b565b50600090505b92915050565b6060825182106144b357600080fd5b60008290505b600184516144c791906158dd565b81101561457357836001826144dc91906157fc565b81518110614513577f4e487b7100000000000000000000000000000000000000000000000000000000600052603260045260246000fd5b6020026020010151848281518110614554577f4e487b7100000000000000000000000000000000000000000000000000000000600052603260045260246000fd5b602002602001018181525050808061456b90615a6d565b9150506144b9565b50826001845161458391906158dd565b815181106145ba577f4e487b7100000000000000000000000000000000000000000000000000000000600052603260045260246000fd5b60200260200101600081525082905092915050565b8280546145db90615a0a565b90600052602060002090601f0160209004810192826145fd5760008555614644565b82601f1061461657805160ff1916838001178555614644565b82800160010185558215614644579182015b82811115614643578251825591602001919060010190614628565b5b509050614651919061474f565b5090565b828054828255906000526020600020908101928215614691579160200282015b82811115614690578251825591602001919060010190614675565b5b50905061469e919061474f565b5090565b6040518060c001604052806000815260200160608152602001600073ffffffffffffffffffffffffffffffffffffffff1681526020016060815260200160008152602001606081525090565b5080546146fa90615a0a565b6000825580601f1061470c575061472b565b601f01602090049060005260206000209081019061472a919061474f565b5b50565b508054600082559060005260206000209081019061474c919061474f565b50565b5b80821115614768576000816000905550600101614750565b5090565b600061477f61477a8461571d565b6156f8565b9050808382526020820190508285602086028201111561479e57600080fd5b60005b858110156147ce57816147b488826148a9565b8452602084019350602083019250506001810190506147a1565b5050509392505050565b60006147eb6147e684615749565b6156f8565b90508281526020810184848401111561480357600080fd5b61480e8482856159c8565b509392505050565b60008135905061482581615d0a565b92915050565b600082601f83011261483c57600080fd5b813561484c84826020860161476c565b91505092915050565b60008135905061486481615d21565b92915050565b60008135905061487981615d31565b92915050565b600082601f83011261489057600080fd5b81356148a08482602086016147d8565b91505092915050565b6000813590506148b881615d41565b92915050565b6000602082840312156148d057600080fd5b60006148de84828501614816565b91505092915050565b60008060008060008060008060008060006101608c8e03121561490957600080fd5b60008c013567ffffffffffffffff81111561492357600080fd5b61492f8e828f0161482b565b9b505060206149408e828f016148a9565b9a505060406149518e828f016148a9565b99505060608c013567ffffffffffffffff81111561496e57600080fd5b61497a8e828f0161487f565b98505060808c013567ffffffffffffffff81111561499757600080fd5b6149a38e828f0161487f565b97505060a08c013567ffffffffffffffff8111156149c057600080fd5b6149cc8e828f0161487f565b96505060c08c013567ffffffffffffffff8111156149e957600080fd5b6149f58e828f0161487f565b95505060e08c013567ffffffffffffffff811115614a1257600080fd5b614a1e8e828f0161487f565b9450506101008c013567ffffffffffffffff811115614a3c57600080fd5b614a488e828f0161487f565b9350506101208c013567ffffffffffffffff811115614a6657600080fd5b614a728e828f0161487f565b925050610140614a848e828f016148a9565b9150509295989b509295989b9093969950565b600060208284031215614aa957600080fd5b600082013567ffffffffffffffff811115614ac357600080fd5b614acf8482850161487f565b91505092915050565b60008060008060808587031215614aee57600080fd5b600085013567ffffffffffffffff811115614b0857600080fd5b614b148782880161487f565b9450506020614b2587828801614816565b935050604085013567ffffffffffffffff811115614b4257600080fd5b614b4e8782880161487f565b9250506060614b5f878288016148a9565b91505092959194509250565b6000806000806000806000806000806101408b8d031215614b8b57600080fd5b60008b013567ffffffffffffffff811115614ba557600080fd5b614bb18d828e0161487f565b9a505060208b013567ffffffffffffffff811115614bce57600080fd5b614bda8d828e0161487f565b9950506040614beb8d828e016148a9565b98505060608b013567ffffffffffffffff811115614c0857600080fd5b614c148d828e0161487f565b9750506080614c258d828e01614855565b96505060a08b013567ffffffffffffffff811115614c4257600080fd5b614c4e8d828e0161487f565b95505060c08b013567ffffffffffffffff811115614c6b57600080fd5b614c778d828e0161487f565b94505060e08b013567ffffffffffffffff811115614c9457600080fd5b614ca08d828e0161487f565b9350506101008b013567ffffffffffffffff811115614cbe57600080fd5b614cca8d828e0161487f565b9250506101208b013567ffffffffffffffff811115614ce857600080fd5b614cf48d828e0161487f565b9150509295989b9194979a5092959850565b60008060408385031215614d1957600080fd5b600083013567ffffffffffffffff811115614d3357600080fd5b614d3f8582860161487f565b9250506020614d50858286016148a9565b9150509250929050565b600060208284031215614d6c57600080fd5b6000614d7a848285016148a9565b91505092915050565b60008060408385031215614d9657600080fd5b6000614da4858286016148a9565b9250506020614db58582860161486a565b9150509250929050565b60008060408385031215614dd257600080fd5b6000614de0858286016148a9565b9250506020614df1858286016148a9565b9150509250929050565b600080600060608486031215614e1057600080fd5b6000614e1e868287016148a9565b9350506020614e2f868287016148a9565b9250506040614e40868287016148a9565b9150509250925092565b600080600080600060a08688031215614e6257600080fd5b6000614e70888289016148a9565b9550506020614e81888289016148a9565b9450506040614e92888289016148a9565b935050606086013567ffffffffffffffff811115614eaf57600080fd5b614ebb8882890161487f565b9250506080614ecc888289016148a9565b9150509295509295909350565b6000614ee583836152a5565b60208301905092915050565b614efa81615911565b82525050565b614f0981615911565b82525050565b6000614f1a8261578a565b614f2481856157ad565b9350614f2f8361577a565b8060005b83811015614f60578151614f478882614ed9565b9750614f52836157a0565b925050600181019050614f33565b5085935050505092915050565b6000614f788261578a565b614f8281856157be565b9350614f8d8361577a565b8060005b83811015614fbe578151614fa58882614ed9565b9750614fb0836157a0565b925050600181019050614f91565b5085935050505092915050565b614fd481615923565b82525050565b614fe381615992565b82525050565b614ff2816159a4565b82525050565b615001816159b6565b82525050565b600061501282615795565b61501c81856157cf565b935061502c8185602086016159d7565b61503581615ba1565b840191505092915050565b600061504b82615795565b61505581856157e0565b93506150658185602086016159d7565b61506e81615ba1565b840191505092915050565b600061508482615795565b61508e81856157f1565b935061509e8185602086016159d7565b80840191505092915050565b60006150b7601a836157e0565b91506150c282615bb2565b602082019050919050565b60006150da6012836157e0565b91506150e582615bdb565b602082019050919050565b60006150fd6025836157e0565b915061510882615c04565b604082019050919050565b60006151206012836157e0565b915061512b82615c53565b602082019050919050565b60006151436012836157e0565b915061514e82615c7c565b602082019050919050565b60006151666013836157e0565b915061517182615ca5565b602082019050919050565b600060c08301600083015161519460008601826152a5565b50602083015184820360208601526151ac8282615007565b91505060408301516151c16040860182614ef1565b50606083015184820360608601526151d98282615007565b91505060808301516151ee60808601826152a5565b5060a083015184820360a08601526152068282614f0f565b9150508091505092915050565b600060a08301600083015184820360008601526152308282615007565b9150506020830151848203602086015261524a8282615007565b915050604083015184820360408601526152648282615007565b9150506060830151848203606086015261527e8282615007565b915050608083015184820360808601526152988282615007565b9150508091505092915050565b6152ae81615988565b82525050565b6152bd81615988565b82525050565b60006152cf8284615079565b915081905092915050565b600060208201905081810360008301526152f48184614f6d565b905092915050565b60006020820190506153116000830184614fcb565b92915050565b60006020820190508181036000830152615330816150aa565b9050919050565b60006020820190508181036000830152615350816150cd565b9050919050565b60006020820190508181036000830152615370816150f0565b9050919050565b6000602082019050818103600083015261539081615113565b9050919050565b600060208201905081810360008301526153b081615136565b9050919050565b600060208201905081810360008301526153d081615159565b9050919050565b600060208201905081810360008301526153f1818461517c565b905092915050565b600060208201905061540e60008301846152b4565b92915050565b600060a08201905061542960008301886152b4565b818103602083015261543b8187615040565b905061544a6040830186614f00565b818103606083015261545c8185615040565b905061546b60808301846152b4565b9695505050505050565b60006101408201905061548b600083018d6152b4565b818103602083015261549d818c615040565b905081810360408301526154b1818b615040565b90506154c0606083018a6152b4565b81810360808301526154d28189615040565b90506154e160a0830188614f00565b6154ee60c08301876152b4565b6154fb60e0830186614ff8565b615509610100830185614fda565b81810361012083015261551c8184615213565b90509b9a5050505050505050505050565b600060e082019050615542600083018a6152b4565b81810360208301526155548189615040565b905081810360408301526155688188615213565b9050818103606083015261557c8187615040565b905061558b60808301866152b4565b61559860a08301856152b4565b6155a560c08301846152b4565b98975050505050505050565b600060e0820190506155c6600083018a6152b4565b6155d360208301896152b4565b6155e060408301886152b4565b81810360608301526155f28187615040565b905061560160808301866152b4565b61560e60a0830185614fe9565b61561b60c08301846152b4565b98975050505050505050565b600060a08201905061563c60008301886152b4565b61564960208301876152b4565b61565660408301866152b4565b61566360608301856152b4565b6156706080830184614fe9565b9695505050505050565b600061010082019050615690600083018b6152b4565b61569d602083018a6152b4565b6156aa60408301896152b4565b6156b760608301886152b4565b6156c460808301876152b4565b6156d160a08301866152b4565b6156de60c08301856152b4565b6156eb60e08301846152b4565b9998505050505050505050565b6000615702615713565b905061570e8282615a3c565b919050565b6000604051905090565b600067ffffffffffffffff82111561573857615737615b72565b5b602082029050602081019050919050565b600067ffffffffffffffff82111561576457615763615b72565b5b61576d82615ba1565b9050602081019050919050565b6000819050602082019050919050565b600081519050919050565b600081519050919050565b6000602082019050919050565b600082825260208201905092915050565b600082825260208201905092915050565b600082825260208201905092915050565b600082825260208201905092915050565b600081905092915050565b600061580782615988565b915061581283615988565b9250827fffffffffffffffffffffffffffffffffffffffffffffffffffffffffffffffff0382111561584757615846615ab6565b5b828201905092915050565b600061585d82615988565b915061586883615988565b92508261587857615877615ae5565b5b828204905092915050565b600061588e82615988565b915061589983615988565b9250817fffffffffffffffffffffffffffffffffffffffffffffffffffffffffffffffff04831182151516156158d2576158d1615ab6565b5b828202905092915050565b60006158e882615988565b91506158f383615988565b92508282101561590657615905615ab6565b5b828203905092915050565b600061591c82615968565b9050919050565b60008115159050919050565b600081905061593d82615cce565b919050565b600081905061595082615ce2565b919050565b600081905061596382615cf6565b919050565b600073ffffffffffffffffffffffffffffffffffffffff82169050919050565b6000819050919050565b600061599d8261592f565b9050919050565b60006159af82615942565b9050919050565b60006159c182615955565b9050919050565b82818337600083830152505050565b60005b838110156159f55780820151818401526020810190506159da565b83811115615a04576000848401525b50505050565b60006002820490506001821680615a2257607f821691505b60208210811415615a3657615a35615b43565b5b50919050565b615a4582615ba1565b810181811067ffffffffffffffff82111715615a6457615a63615b72565b5b80604052505050565b6000615a7882615988565b91507fffffffffffffffffffffffffffffffffffffffffffffffffffffffffffffffff821415615aab57615aaa615ab6565b5b600182019050919050565b7f4e487b7100000000000000000000000000000000000000000000000000000000600052601160045260246000fd5b7f4e487b7100000000000000000000000000000000000000000000000000000000600052601260045260246000fd5b7f4e487b7100000000000000000000000000000000000000000000000000000000600052602160045260246000fd5b7f4e487b7100000000000000000000000000000000000000000000000000000000600052602260045260246000fd5b7f4e487b7100000000000000000000000000000000000000000000000000000000600052604160045260246000fd5b6000601f19601f8301169050919050565b7f41746c656173742037206d656d62657273207265717569726564000000000000600082015250565b7f416c726561647920526567697374657265640000000000000000000000000000600082015250565b7f5573657220697320616c7265616479206e6f7420612070617274206f6620746860008201527f6520534847000000000000000000000000000000000000000000000000000000602082015250565b7f5573657220616c72656164792061646465640000000000000000000000000000600082015250565b7f556e617070726f76656420726571756573740000000000000000000000000000600082015250565b7f556e617574686f72697a65642072657165737400000000000000000000000000600082015250565b60038110615cdf57615cde615b14565b5b50565b60048110615cf357615cf2615b14565b5b50565b60068110615d0757615d06615b14565b5b50565b615d1381615911565b8114615d1e57600080fd5b50565b60038110615d2e57600080fd5b50565b60068110615d3e57600080fd5b50565b615d4a81615988565b8114615d5557600080fd5b5056fea26469706673582212200db2d78793c7d9c71dccfa98a117abdc3b9e1c2a35227eba8a38e70f08c99f7364736f6c63430008040033",
  "immutableReferences": {},
  "source": "// SPDX-License-Identifier: MIT\npragma solidity ^0.8.1;\nimport \"./lib/Bank.sol\";\nimport \"./lib/SHG.sol\";\nimport \"./lib/User.sol\";\n\ncontract Yogdaan is Bank, SHG, User {\n    address admin;\n\n    constructor() {\n        admin = msg.sender;\n    }\n}\n",
  "sourcePath": "/home/sdas/code/yogdaan-contracts/contracts/yogdaan.sol",
  "compiler": {
    "name": "solc",
    "version": "0.8.4+commit.c7e474f2.Emscripten.clang"
  },
  "schemaVersion": "3.4.9",
  "updatedAt": "2022-08-26T02:43:19.903Z",
  "networkType": "ethereum",
  "devdoc": {
    "kind": "dev",
    "methods": {},
    "version": 1
  },
  "userdoc": {
    "kind": "user",
    "methods": {},
    "version": 1
  }
}