{
  "contractName": "Yogdaan",
  "abi": [
    {
      "inputs": [],
      "stateMutability": "nonpayable",
      "type": "constructor"
    },
    {
      "inputs": [
        {
          "internalType": "string",
          "name": "_name",
          "type": "string"
        },
        {
          "internalType": "address",
          "name": "_walletAddress",
          "type": "address"
        },
        {
          "internalType": "string",
          "name": "_code",
          "type": "string"
        },
        {
          "internalType": "uint256",
          "name": "_intrestRate",
          "type": "uint256"
        }
      ],
      "name": "addBank",
      "outputs": [],
      "stateMutability": "nonpayable",
      "type": "function"
    },
    {
      "inputs": [
        {
          "internalType": "uint256[]",
          "name": "members",
          "type": "uint256[]"
        },
        {
          "internalType": "uint256",
          "name": "president",
          "type": "uint256"
        },
        {
          "internalType": "string",
          "name": "name",
          "type": "string"
        },
        {
          "components": [
            {
              "internalType": "string",
              "name": "state",
              "type": "string"
            },
            {
              "internalType": "string",
              "name": "district",
              "type": "string"
            },
            {
              "internalType": "string",
              "name": "blockName",
              "type": "string"
            },
            {
              "internalType": "string",
              "name": "panchyatName",
              "type": "string"
            },
            {
              "internalType": "string",
              "name": "villageName",
              "type": "string"
            }
          ],
          "internalType": "struct structs.Location",
          "name": "location",
          "type": "tuple"
        },
        {
          "internalType": "string",
          "name": "dateOfFormation",
          "type": "string"
        },
        {
          "internalType": "uint256",
          "name": "_baseIntrest",
          "type": "uint256"
        }
      ],
      "name": "addSHG",
      "outputs": [],
      "stateMutability": "nonpayable",
      "type": "function"
    },
    {
      "inputs": [
        {
          "internalType": "uint256",
          "name": "userid",
          "type": "uint256"
        },
        {
          "internalType": "uint256",
          "name": "shg",
          "type": "uint256"
        }
      ],
      "name": "addSHGMember",
      "outputs": [],
      "stateMutability": "nonpayable",
      "type": "function"
    },
    {
      "inputs": [
        {
          "internalType": "string",
          "name": "name",
          "type": "string"
        },
        {
          "internalType": "string",
          "name": "aadhar",
          "type": "string"
        },
        {
          "internalType": "uint256",
          "name": "mobno",
          "type": "uint256"
        },
        {
          "internalType": "string",
          "name": "fatherName",
          "type": "string"
        },
        {
          "internalType": "enum structs.Gender",
          "name": "gender",
          "type": "uint8"
        },
        {
          "internalType": "string",
          "name": "_state",
          "type": "string"
        },
        {
          "internalType": "string",
          "name": "_district",
          "type": "string"
        },
        {
          "internalType": "string",
          "name": "_blockName",
          "type": "string"
        },
        {
          "internalType": "string",
          "name": "_panchyatName",
          "type": "string"
        },
        {
          "internalType": "string",
          "name": "_villageName",
          "type": "string"
        }
      ],
      "name": "addUser",
      "outputs": [],
      "stateMutability": "nonpayable",
      "type": "function"
    },
    {
      "inputs": [
        {
          "internalType": "address",
          "name": "",
          "type": "address"
        }
      ],
      "name": "addressToBankid",
      "outputs": [
        {
          "internalType": "uint256",
          "name": "",
          "type": "uint256"
        }
      ],
      "stateMutability": "view",
      "type": "function",
      "constant": true
    },
    {
      "inputs": [
        {
          "internalType": "address",
          "name": "",
          "type": "address"
        }
      ],
      "name": "addressToSHGid",
      "outputs": [
        {
          "internalType": "uint256",
          "name": "",
          "type": "uint256"
        }
      ],
      "stateMutability": "view",
      "type": "function",
      "constant": true
    },
    {
      "inputs": [
        {
          "internalType": "address",
          "name": "",
          "type": "address"
        }
      ],
      "name": "addressToUser",
      "outputs": [
        {
          "internalType": "uint256",
          "name": "",
          "type": "uint256"
        }
      ],
      "stateMutability": "view",
      "type": "function",
      "constant": true
    },
    {
      "inputs": [
        {
          "internalType": "uint256",
          "name": "_shgrequestid",
          "type": "uint256"
        },
        {
          "internalType": "uint256",
          "name": "_bankid",
          "type": "uint256"
        }
      ],
      "name": "approveLoan",
      "outputs": [],
      "stateMutability": "nonpayable",
      "type": "function"
    },
    {
      "inputs": [
        {
          "internalType": "uint256",
          "name": "_requestid",
          "type": "uint256"
        },
        {
          "internalType": "uint256",
          "name": "_shgid",
          "type": "uint256"
        }
      ],
      "name": "approveRequest",
      "outputs": [],
      "stateMutability": "nonpayable",
      "type": "function"
    },
    {
      "inputs": [
        {
          "internalType": "uint256",
          "name": "",
          "type": "uint256"
        }
      ],
      "name": "banks",
      "outputs": [
        {
          "internalType": "uint256",
          "name": "id",
          "type": "uint256"
        },
        {
          "internalType": "string",
          "name": "name",
          "type": "string"
        },
        {
          "internalType": "address",
          "name": "walletAddress",
          "type": "address"
        },
        {
          "internalType": "string",
          "name": "code",
          "type": "string"
        },
        {
          "internalType": "uint256",
          "name": "intrestRate",
          "type": "uint256"
        }
      ],
      "stateMutability": "view",
      "type": "function",
      "constant": true
    },
    {
      "inputs": [
        {
          "internalType": "uint256",
          "name": "_userid",
          "type": "uint256"
        },
        {
          "internalType": "uint256",
          "name": "_requestid",
          "type": "uint256"
        }
      ],
      "name": "deleteRequest",
      "outputs": [],
      "stateMutability": "nonpayable",
      "type": "function"
    },
    {
      "inputs": [
        {
          "internalType": "uint256",
          "name": "userid",
          "type": "uint256"
        }
      ],
      "name": "getAllLoans",
      "outputs": [
        {
          "internalType": "uint256[]",
          "name": "",
          "type": "uint256[]"
        }
      ],
      "stateMutability": "view",
      "type": "function",
      "constant": true
    },
    {
      "inputs": [
        {
          "internalType": "uint256",
          "name": "_shgid",
          "type": "uint256"
        },
        {
          "internalType": "uint256",
          "name": "_loanid",
          "type": "uint256"
        }
      ],
      "name": "getSHGEMI",
      "outputs": [
        {
          "internalType": "uint256",
          "name": "",
          "type": "uint256"
        }
      ],
      "stateMutability": "nonpayable",
      "type": "function"
    },
    {
      "inputs": [
        {
          "internalType": "uint256",
          "name": "shgid",
          "type": "uint256"
        }
      ],
      "name": "getSHGMembers",
      "outputs": [
        {
          "internalType": "uint256[]",
          "name": "",
          "type": "uint256[]"
        }
      ],
      "stateMutability": "view",
      "type": "function",
      "constant": true
    },
    {
      "inputs": [
        {
          "internalType": "uint256",
          "name": "userid",
          "type": "uint256"
        },
        {
          "internalType": "uint256",
          "name": "loanid",
          "type": "uint256"
        }
      ],
      "name": "getUserEMI",
      "outputs": [
        {
          "internalType": "uint256",
          "name": "",
          "type": "uint256"
        }
      ],
      "stateMutability": "nonpayable",
      "type": "function"
    },
    {
      "inputs": [
        {
          "internalType": "uint256",
          "name": "_shgrequestid",
          "type": "uint256"
        },
        {
          "internalType": "uint256",
          "name": "_bankid",
          "type": "uint256"
        },
        {
          "internalType": "uint256",
          "name": "_amount",
          "type": "uint256"
        }
      ],
      "name": "grantLoan",
      "outputs": [],
      "stateMutability": "nonpayable",
      "type": "function"
    },
    {
      "inputs": [
        {
          "internalType": "uint256",
          "name": "",
          "type": "uint256"
        }
      ],
      "name": "loans",
      "outputs": [
        {
          "internalType": "uint256",
          "name": "loanId",
          "type": "uint256"
        },
        {
          "internalType": "uint256",
          "name": "lenderId",
          "type": "uint256"
        },
        {
          "internalType": "uint256",
          "name": "amount",
          "type": "uint256"
        },
        {
          "internalType": "uint256",
          "name": "lendeeId",
          "type": "uint256"
        },
        {
          "internalType": "uint256",
          "name": "intrest",
          "type": "uint256"
        },
        {
          "internalType": "uint256",
          "name": "loanTime",
          "type": "uint256"
        },
        {
          "internalType": "uint256",
          "name": "date",
          "type": "uint256"
        },
        {
          "internalType": "uint256",
          "name": "lastEMI",
          "type": "uint256"
        }
      ],
      "stateMutability": "view",
      "type": "function",
      "constant": true
    },
    {
      "inputs": [],
      "name": "login",
      "outputs": [
        {
          "internalType": "bool",
          "name": "",
          "type": "bool"
        }
      ],
      "stateMutability": "view",
      "type": "function",
      "constant": true
    },
    {
      "inputs": [
        {
          "internalType": "uint256",
          "name": "_shgid",
          "type": "uint256"
        },
        {
          "internalType": "uint256",
          "name": "_userid",
          "type": "uint256"
        },
        {
          "internalType": "uint256",
          "name": "_amount",
          "type": "uint256"
        },
        {
          "internalType": "string",
          "name": "_description",
          "type": "string"
        },
        {
          "internalType": "uint256",
          "name": "_loanTime",
          "type": "uint256"
        }
      ],
      "name": "makeRequest",
      "outputs": [],
      "stateMutability": "nonpayable",
      "type": "function"
    },
    {
      "inputs": [
        {
          "internalType": "uint256",
          "name": "_userid",
          "type": "uint256"
        },
        {
          "internalType": "uint256",
          "name": "_loanid",
          "type": "uint256"
        },
        {
          "internalType": "uint256",
          "name": "_amount",
          "type": "uint256"
        }
      ],
      "name": "payEMI",
      "outputs": [],
      "stateMutability": "payable",
      "type": "function",
      "payable": true
    },
    {
      "inputs": [
        {
          "internalType": "uint256",
          "name": "userid",
          "type": "uint256"
        },
        {
          "internalType": "uint256",
          "name": "shgid",
          "type": "uint256"
        }
      ],
      "name": "removeSHGMember",
      "outputs": [],
      "stateMutability": "nonpayable",
      "type": "function"
    },
    {
      "inputs": [
        {
          "internalType": "uint256",
          "name": "_requestid",
          "type": "uint256"
        }
      ],
      "name": "sendGrant",
      "outputs": [],
      "stateMutability": "nonpayable",
      "type": "function"
    },
    {
      "inputs": [
        {
          "internalType": "uint256",
          "name": "_shgid",
          "type": "uint256"
        },
        {
          "internalType": "uint256",
          "name": "_amount",
          "type": "uint256"
        },
        {
          "internalType": "uint256",
          "name": "_loanTime",
          "type": "uint256"
        }
      ],
      "name": "sendRequestToBank",
      "outputs": [],
      "stateMutability": "nonpayable",
      "type": "function"
    },
    {
      "inputs": [
        {
          "internalType": "uint256",
          "name": "_bankid",
          "type": "uint256"
        },
        {
          "internalType": "uint256",
          "name": "_requestid",
          "type": "uint256"
        },
        {
          "internalType": "uint256",
          "name": "_amount",
          "type": "uint256"
        }
      ],
      "name": "shgLoan",
      "outputs": [],
      "stateMutability": "payable",
      "type": "function",
      "payable": true
    },
    {
      "inputs": [
        {
          "internalType": "uint256",
          "name": "_shgid",
          "type": "uint256"
        },
        {
          "internalType": "uint256",
          "name": "_loanid",
          "type": "uint256"
        },
        {
          "internalType": "uint256",
          "name": "_amount",
          "type": "uint256"
        }
      ],
      "name": "shgPayEMI",
      "outputs": [],
      "stateMutability": "nonpayable",
      "type": "function"
    },
    {
      "inputs": [
        {
          "internalType": "uint256",
          "name": "",
          "type": "uint256"
        }
      ],
      "name": "shgRequests",
      "outputs": [
        {
          "internalType": "uint256",
          "name": "requestid",
          "type": "uint256"
        },
        {
          "internalType": "uint256",
          "name": "shgid",
          "type": "uint256"
        },
        {
          "internalType": "uint256",
          "name": "amount",
          "type": "uint256"
        },
        {
          "internalType": "uint256",
          "name": "loanTime",
          "type": "uint256"
        },
        {
          "internalType": "enum structs.RequestStatus",
          "name": "status",
          "type": "uint8"
        }
      ],
      "stateMutability": "view",
      "type": "function",
      "constant": true
    },
    {
      "inputs": [
        {
          "internalType": "uint256",
          "name": "",
          "type": "uint256"
        }
      ],
      "name": "shgs",
      "outputs": [
        {
          "internalType": "uint256",
          "name": "id",
          "type": "uint256"
        },
        {
          "internalType": "string",
          "name": "name",
          "type": "string"
        },
        {
          "components": [
            {
              "internalType": "string",
              "name": "state",
              "type": "string"
            },
            {
              "internalType": "string",
              "name": "district",
              "type": "string"
            },
            {
              "internalType": "string",
              "name": "blockName",
              "type": "string"
            },
            {
              "internalType": "string",
              "name": "panchyatName",
              "type": "string"
            },
            {
              "internalType": "string",
              "name": "villageName",
              "type": "string"
            }
          ],
          "internalType": "struct structs.Location",
          "name": "location",
          "type": "tuple"
        },
        {
          "internalType": "string",
          "name": "dateOfFormation",
          "type": "string"
        },
        {
          "internalType": "uint256",
          "name": "currentBalance",
          "type": "uint256"
        },
        {
          "internalType": "uint256",
          "name": "owedBalance",
          "type": "uint256"
        },
        {
          "internalType": "uint256",
          "name": "baseIntrest",
          "type": "uint256"
        }
      ],
      "stateMutability": "view",
      "type": "function",
      "constant": true
    },
    {
      "inputs": [
        {
          "internalType": "uint256",
          "name": "id",
          "type": "uint256"
        },
        {
          "internalType": "enum structs.UserType",
          "name": "updatedType",
          "type": "uint8"
        }
      ],
      "name": "updateMemberRole",
      "outputs": [],
      "stateMutability": "nonpayable",
      "type": "function"
    },
    {
      "inputs": [
        {
          "internalType": "uint256",
          "name": "",
          "type": "uint256"
        }
      ],
      "name": "userRequests",
      "outputs": [
        {
          "internalType": "uint256",
          "name": "requestId",
          "type": "uint256"
        },
        {
          "internalType": "uint256",
          "name": "userId",
          "type": "uint256"
        },
        {
          "internalType": "uint256",
          "name": "amount",
          "type": "uint256"
        },
        {
          "internalType": "string",
          "name": "description",
          "type": "string"
        },
        {
          "internalType": "uint256",
          "name": "SHGId",
          "type": "uint256"
        },
        {
          "internalType": "enum structs.RequestStatus",
          "name": "status",
          "type": "uint8"
        },
        {
          "internalType": "uint256",
          "name": "loanTime",
          "type": "uint256"
        }
      ],
      "stateMutability": "view",
      "type": "function",
      "constant": true
    },
    {
      "inputs": [
        {
          "internalType": "uint256",
          "name": "",
          "type": "uint256"
        }
      ],
      "name": "users",
      "outputs": [
        {
          "internalType": "uint256",
          "name": "id",
          "type": "uint256"
        },
        {
          "internalType": "string",
          "name": "name",
          "type": "string"
        },
        {
          "internalType": "string",
          "name": "aadhar",
          "type": "string"
        },
        {
          "internalType": "uint256",
          "name": "mobno",
          "type": "uint256"
        },
        {
          "internalType": "string",
          "name": "fatherName",
          "type": "string"
        },
        {
          "internalType": "address",
          "name": "walletAddress",
          "type": "address"
        },
        {
          "internalType": "uint256",
          "name": "amountTaken",
          "type": "uint256"
        },
        {
          "internalType": "uint256",
          "name": "shgid",
          "type": "uint256"
        },
        {
          "internalType": "enum structs.UserType",
          "name": "userType",
          "type": "uint8"
        },
        {
          "internalType": "enum structs.Gender",
          "name": "gender",
          "type": "uint8"
        },
        {
          "components": [
            {
              "internalType": "string",
              "name": "state",
              "type": "string"
            },
            {
              "internalType": "string",
              "name": "district",
              "type": "string"
            },
            {
              "internalType": "string",
              "name": "blockName",
              "type": "string"
            },
            {
              "internalType": "string",
              "name": "panchyatName",
              "type": "string"
            },
            {
              "internalType": "string",
              "name": "villageName",
              "type": "string"
            }
          ],
          "internalType": "struct structs.Location",
          "name": "location",
          "type": "tuple"
        }
      ],
      "stateMutability": "view",
      "type": "function",
      "constant": true
    }
  ],
  "bytecode": "0x608060405234801561001057600080fd5b5033600f60006101000a81548173ffffffffffffffffffffffffffffffffffffffff021916908373ffffffffffffffffffffffffffffffffffffffff160217905550614fbb806100616000396000f3fe6080604052600436106101cc5760003560e01c806361c91b70116100f7578063a6e90a5811610095578063db223b4c11610064578063db223b4c146106dd578063e1ec3c6814610706578063edf538861461074a578063f736ae4314610787576101cc565b8063a6e90a581461060f578063af08a94f14610638578063b34e97e814610675578063cfcb4b2f146106a0576101cc565b80637d550bb3116100d15780637d550bb314610551578063941696561461057a5780639bbc9ab1146105bd578063a29231fe146105e6576101cc565b806361c91b70146104ae578063769d0e16146104eb5780637a64649214610528576101cc565b80632c0a90a91161016f5780633ae0058f1161013e5780633ae0058f146103ef5780633c5657571461042c57806342f5f815146104695780634f269c9214610485576101cc565b80632c0a90a91461032d5780632e13104614610356578063365b98b21461037f57806339d8bed1146103c6576101cc565b806314795ce3116101ab57806314795ce314610264578063249c4bff1461028d578063257a170b146102a957806326271cf2146102ea576101cc565b806285ae2b146101d1578063021af397146102125780630227f4351461023b575b600080fd5b3480156101dd57600080fd5b506101f860048036038101906101f39190614102565b6107b0565b60405161020995949392919061464e565b60405180910390f35b34801561021e57600080fd5b50610239600480360381019061023491906141a3565b610916565b005b34801561024757600080fd5b50610262600480360381019061025d91906141f2565b610aed565b005b34801561027057600080fd5b5061028b60048036038101906102869190613ed4565b610cc7565b005b6102a760048036038101906102a291906141a3565b610ea7565b005b3480156102b557600080fd5b506102d060048036038101906102cb9190614102565b6110b0565b6040516102e1959493929190614870565b60405180910390f35b3480156102f657600080fd5b50610311600480360381019061030c9190614102565b6110f3565b6040516103249796959493929190614776565b60405180910390f35b34801561033957600080fd5b50610354600480360381019061034f9190614167565b611529565b005b34801561036257600080fd5b5061037d60048036038101906103789190613f67565b61167f565b005b34801561038b57600080fd5b506103a660048036038101906103a19190614102565b611b9c565b6040516103bd9b9a999897969594939291906146af565b60405180910390f35b3480156103d257600080fd5b506103ed60048036038101906103e89190614167565b6120ac565b005b3480156103fb57600080fd5b5061041660048036038101906104119190613dc2565b6121c2565b6040516104239190614633565b60405180910390f35b34801561043857600080fd5b50610453600480360381019061044e9190614167565b6121da565b6040516104609190614633565b60405180910390f35b610483600480360381019061047e91906141a3565b6122f7565b005b34801561049157600080fd5b506104ac60048036038101906104a7919061412b565b6123d5565b005b3480156104ba57600080fd5b506104d560048036038101906104d09190613dc2565b61243c565b6040516104e29190614633565b60405180910390f35b3480156104f757600080fd5b50610512600480360381019061050d9190614167565b612454565b60405161051f9190614633565b60405180910390f35b34801561053457600080fd5b5061054f600480360381019061054a9190614167565b612572565b005b34801561055d57600080fd5b50610578600480360381019061057391906141a3565b612601565b005b34801561058657600080fd5b506105a1600480360381019061059c9190614102565b6126e0565b6040516105b497969594939291906147fa565b60405180910390f35b3480156105c957600080fd5b506105e460048036038101906105df9190614102565b6127b7565b005b3480156105f257600080fd5b5061060d60048036038101906106089190613deb565b612c5f565b005b34801561061b57600080fd5b5061063660048036038101906106319190614167565b613147565b005b34801561064457600080fd5b5061065f600480360381019061065a9190614102565b6132d9565b60405161066c9190614536565b60405180910390f35b34801561068157600080fd5b5061068a613347565b6040516106979190614558565b60405180910390f35b3480156106ac57600080fd5b506106c760048036038101906106c29190614102565b6133f1565b6040516106d49190614536565b60405180910390f35b3480156106e957600080fd5b5061070460048036038101906106ff91906141a3565b613483565b005b34801561071257600080fd5b5061072d60048036038101906107289190614102565b61359d565b6040516107419897969594939291906148c3565b60405180910390f35b34801561075657600080fd5b50610771600480360381019061076c9190613dc2565b6135e5565b60405161077e9190614633565b60405180910390f35b34801561079357600080fd5b506107ae60048036038101906107a99190614167565b6135fd565b005b60026020528060005260406000206000915090508060000154908060010180546107d990614c37565b80601f016020809104026020016040519081016040528092919081815260200182805461080590614c37565b80156108525780601f1061082757610100808354040283529160200191610852565b820191906000526020600020905b81548152906001019060200180831161083557829003601f168201915b5050505050908060020160009054906101000a900473ffffffffffffffffffffffffffffffffffffffff169080600301805461088d90614c37565b80601f01602080910402602001604051908101604052809291908181526020018280546108b990614c37565b80156109065780601f106108db57610100808354040283529160200191610906565b820191906000526020600020905b8154815290600101906020018083116108e957829003601f168201915b5050505050908060040154905085565b8260006001600083815260200190815260200160002060000154141561093b57600080fd5b83600080600360003373ffffffffffffffffffffffffffffffffffffffff1673ffffffffffffffffffffffffffffffffffffffff168152602001908152602001600020548152602001908152602001600020600801541461099b57600080fd5b6000600c60008154809291906109b090614c9a565b9190505590506040518060a00160405280828152602001868152602001858152602001848152602001600380811115610a12577f4e487b7100000000000000000000000000000000000000000000000000000000600052602160045260246000fd5b815250600660008381526020019081526020016000206000820151816000015560208201518160010155604082015181600201556060820151816003015560808201518160040160006101000a81548160ff02191690836003811115610aa1577f4e487b7100000000000000000000000000000000000000000000000000000000600052602160045260246000fd5b021790555090505060016000868152602001908152602001600020600c018190806001815401808255809150506001900390600052602060002001600090919091909150555050505050565b6000600b60008154610afe90614c9a565b9190508190559050604051806101000160405280828152602001868152602001858152602001848152602001878152602001600380811115610b69577f4e487b7100000000000000000000000000000000000000000000000000000000600052602160045260246000fd5b8152602001838152602001600067ffffffffffffffff811115610bb5577f4e487b7100000000000000000000000000000000000000000000000000000000600052604160045260246000fd5b604051908082528060200260200182016040528015610be35781602001602082028036833780820191505090505b50815250600560008381526020019081526020016000206000820151816000015560208201518160010155604082015181600201556060820151816003019080519060200190610c34929190613a1f565b506080820151816004015560a08201518160050160006101000a81548160ff02191690836003811115610c90577f4e487b7100000000000000000000000000000000000000000000000000000000600052602160045260246000fd5b021790555060c0820151816006015560e0820151816007019080519060200190610cbb929190613aa5565b50905050505050505050565b6000600d60008154610cd890614c9a565b91905081905590506040518060c001604052808281526020018681526020018573ffffffffffffffffffffffffffffffffffffffff168152602001848152602001838152602001600067ffffffffffffffff811115610d60577f4e487b7100000000000000000000000000000000000000000000000000000000600052604160045260246000fd5b604051908082528060200260200182016040528015610d8e5781602001602082028036833780820191505090505b5081525060026000838152602001908152602001600020600082015181600001556020820151816001019080519060200190610dcb929190613a1f565b5060408201518160020160006101000a81548173ffffffffffffffffffffffffffffffffffffffff021916908373ffffffffffffffffffffffffffffffffffffffff1602179055506060820151816003019080519060200190610e2f929190613a1f565b506080820151816004015560a0820151816005019080519060200190610e56929190613aa5565b50905050600d54600860008673ffffffffffffffffffffffffffffffffffffffff1673ffffffffffffffffffffffffffffffffffffffff168152602001908152602001600020819055505050505050565b82600060026000838152602001908152602001600020600001541415610ecc57600080fd5b6000604051806101000160405280600e60008154610ee990614c9a565b9190508190558152602001600660008781526020019081526020016000206001015481526020018481526020018681526020016002600088815260200190815260200160002060040154815260200160066000878152602001908152602001600020600301548152602001428152602001600081525090506001600060066000878152602001908152602001600020600101548152602001908152602001600020600c01600e5490806001815401808255809150506001900390600052602060002001600090919091909150553073ffffffffffffffffffffffffffffffffffffffff166108fc849081150290604051600060405180830381858888f19350505050158015610ffc573d6000803e3d6000fd5b5082600160006006600088815260200190815260200160002060010154815260200190815260200160002060090160008282546110399190614a29565b925050819055508060046000600e548152602001908152602001600020600082015181600001556020820151816001015560408201518160020155606082015181600301556080820151816004015560a0820151816005015560c0820151816006015560e082015181600701559050505050505050565b60066020528060005260406000206000915090508060000154908060010154908060020154908060030154908060040160009054906101000a900460ff16905085565b600160205280600052604060002060009150905080600001549080600201805461111c90614c37565b80601f016020809104026020016040519081016040528092919081815260200182805461114890614c37565b80156111955780601f1061116a57610100808354040283529160200191611195565b820191906000526020600020905b81548152906001019060200180831161117857829003601f168201915b505050505090806003016040518060a00160405290816000820180546111ba90614c37565b80601f01602080910402602001604051908101604052809291908181526020018280546111e690614c37565b80156112335780601f1061120857610100808354040283529160200191611233565b820191906000526020600020905b81548152906001019060200180831161121657829003601f168201915b5050505050815260200160018201805461124c90614c37565b80601f016020809104026020016040519081016040528092919081815260200182805461127890614c37565b80156112c55780601f1061129a576101008083540402835291602001916112c5565b820191906000526020600020905b8154815290600101906020018083116112a857829003601f168201915b505050505081526020016002820180546112de90614c37565b80601f016020809104026020016040519081016040528092919081815260200182805461130a90614c37565b80156113575780601f1061132c57610100808354040283529160200191611357565b820191906000526020600020905b81548152906001019060200180831161133a57829003601f168201915b5050505050815260200160038201805461137090614c37565b80601f016020809104026020016040519081016040528092919081815260200182805461139c90614c37565b80156113e95780601f106113be576101008083540402835291602001916113e9565b820191906000526020600020905b8154815290600101906020018083116113cc57829003601f168201915b5050505050815260200160048201805461140290614c37565b80601f016020809104026020016040519081016040528092919081815260200182805461142e90614c37565b801561147b5780601f106114505761010080835404028352916020019161147b565b820191906000526020600020905b81548152906001019060200180831161145e57829003601f168201915b5050505050815250509080600801805461149490614c37565b80601f01602080910402602001604051908101604052809291908181526020018280546114c090614c37565b801561150d5780601f106114e25761010080835404028352916020019161150d565b820191906000526020600020905b8154815290600101906020018083116114f057829003601f168201915b50505050509080600901549080600a01549080600d0154905087565b8060006001600083815260200190815260200160002060000154141561154e57600080fd5b60006005600085815260200190815260200160002090508281600401541461157557600080fd5b61157e84613707565b61158757600080fd5b80600701600360003373ffffffffffffffffffffffffffffffffffffffff1673ffffffffffffffffffffffffffffffffffffffff168152602001908152602001600020549080600181540180825580915050600190039060005260206000200160009091909190915055600260016000858152602001908152602001600020600101805490506116179190614a7f565b816007018054905011156116795760008160050160006101000a81548160ff02191690836003811115611673577f4e487b7100000000000000000000000000000000000000000000000000000000600052602160045260246000fd5b02179055505b50505050565b3373ffffffffffffffffffffffffffffffffffffffff16600080600360003373ffffffffffffffffffffffffffffffffffffffff1673ffffffffffffffffffffffffffffffffffffffff16815260200190815260200160002054815260200190815260200160002060050160009054906101000a900473ffffffffffffffffffffffffffffffffffffffff1673ffffffffffffffffffffffffffffffffffffffff161415611762576040517f08c379a000000000000000000000000000000000000000000000000000000000815260040161175990614593565b60405180910390fd5b600060096000815461177390614c9a565b919050819055905080600360003373ffffffffffffffffffffffffffffffffffffffff1673ffffffffffffffffffffffffffffffffffffffff1681526020019081526020016000208190555060006040518060a001604052808881526020018781526020018681526020018581526020018481525090506040518061018001604052806009600081548092919061180990614c9a565b9190505581526020018d81526020018c81526020018b81526020018a81526020013373ffffffffffffffffffffffffffffffffffffffff168152602001600067ffffffffffffffff811115611887577f4e487b7100000000000000000000000000000000000000000000000000000000600052604160045260246000fd5b6040519080825280602002602001820160405280156118b55781602001602082028036833780820191505090505b508152602001600081526020016000815260200160046005811115611903577f4e487b7100000000000000000000000000000000000000000000000000000000600052602160045260246000fd5b8152602001896002811115611941577f4e487b7100000000000000000000000000000000000000000000000000000000600052602160045260246000fd5b815260200182815250600080848152602001908152602001600020600082015181600001556020820151816001019080519060200190611982929190613a1f565b50604082015181600201908051906020019061199f929190613a1f565b506060820151816003015560808201518160040190805190602001906119c6929190613a1f565b5060a08201518160050160006101000a81548173ffffffffffffffffffffffffffffffffffffffff021916908373ffffffffffffffffffffffffffffffffffffffff16021790555060c0820151816006019080519060200190611a2a929190613aa5565b5060e0820151816007015561010082015181600801556101208201518160090160006101000a81548160ff02191690836005811115611a92577f4e487b7100000000000000000000000000000000000000000000000000000000600052602160045260246000fd5b02179055506101408201518160090160016101000a81548160ff02191690836002811115611ae9577f4e487b7100000000000000000000000000000000000000000000000000000000600052602160045260246000fd5b021790555061016082015181600a016000820151816000019080519060200190611b14929190613a1f565b506020820151816001019080519060200190611b31929190613a1f565b506040820151816002019080519060200190611b4e929190613a1f565b506060820151816003019080519060200190611b6b929190613a1f565b506080820151816004019080519060200190611b88929190613a1f565b505050905050505050505050505050505050565b6000602052806000526040600020600091509050806000015490806001018054611bc590614c37565b80601f0160208091040260200160405190810160405280929190818152602001828054611bf190614c37565b8015611c3e5780601f10611c1357610100808354040283529160200191611c3e565b820191906000526020600020905b815481529060010190602001808311611c2157829003601f168201915b505050505090806002018054611c5390614c37565b80601f0160208091040260200160405190810160405280929190818152602001828054611c7f90614c37565b8015611ccc5780601f10611ca157610100808354040283529160200191611ccc565b820191906000526020600020905b815481529060010190602001808311611caf57829003601f168201915b505050505090806003015490806004018054611ce790614c37565b80601f0160208091040260200160405190810160405280929190818152602001828054611d1390614c37565b8015611d605780601f10611d3557610100808354040283529160200191611d60565b820191906000526020600020905b815481529060010190602001808311611d4357829003601f168201915b5050505050908060050160009054906101000a900473ffffffffffffffffffffffffffffffffffffffff16908060070154908060080154908060090160009054906101000a900460ff16908060090160019054906101000a900460ff169080600a016040518060a0016040529081600082018054611ddd90614c37565b80601f0160208091040260200160405190810160405280929190818152602001828054611e0990614c37565b8015611e565780601f10611e2b57610100808354040283529160200191611e56565b820191906000526020600020905b815481529060010190602001808311611e3957829003601f168201915b50505050508152602001600182018054611e6f90614c37565b80601f0160208091040260200160405190810160405280929190818152602001828054611e9b90614c37565b8015611ee85780601f10611ebd57610100808354040283529160200191611ee8565b820191906000526020600020905b815481529060010190602001808311611ecb57829003601f168201915b50505050508152602001600282018054611f0190614c37565b80601f0160208091040260200160405190810160405280929190818152602001828054611f2d90614c37565b8015611f7a5780601f10611f4f57610100808354040283529160200191611f7a565b820191906000526020600020905b815481529060010190602001808311611f5d57829003601f168201915b50505050508152602001600382018054611f9390614c37565b80601f0160208091040260200160405190810160405280929190818152602001828054611fbf90614c37565b801561200c5780601f10611fe15761010080835404028352916020019161200c565b820191906000526020600020905b815481529060010190602001808311611fef57829003601f168201915b5050505050815260200160048201805461202590614c37565b80601f016020809104026020016040519081016040528092919081815260200182805461205190614c37565b801561209e5780601f106120735761010080835404028352916020019161209e565b820191906000526020600020905b81548152906001019060200180831161208157829003601f168201915b50505050508152505090508b565b806000808481526020019081526020016000206008015414612103576040517f08c379a00000000000000000000000000000000000000000000000000000000081526004016120fa906145d3565b60405180910390fd5b8060008084815260200190815260200160002060080181905550600360008084815260200190815260200160002060090160006101000a81548160ff0219169083600581111561217c577f4e487b7100000000000000000000000000000000000000000000000000000000600052602160045260246000fd5b0217905550600160008281526020019081526020016000206001018290806001815401808255809150506001900390600052602060002001600090919091909150555050565b60076020528060005260406000206000915090505481565b600082600080600083815260200190815260200160002060000154141561220057600080fd5b60006004600085815260200190815260200160002090506000601e603c8060188560070154426122309190614b0a565b61223a9190614a7f565b6122449190614ab0565b61224e9190614ab0565b6122589190614ab0565b90506000811161226757600080fd5b60008260020154905060008360040154905060008460050154905060008382600c6122929190614ab0565b61229c9190614b0a565b600c6064856122ab9190614a7f565b6122b59190614ab0565b60016122c19190614a29565b856122cc9190614ab0565b1890508086600201546122df9190614b0a565b86600201819055508097505050505050505092915050565b82600080600083815260200190815260200160002060000154141561231b57600080fd5b600061232785856121da565b905082811461233557600080fd5b60006004600086815260200190815260200160002090503073ffffffffffffffffffffffffffffffffffffffff166108fc859081150290604051600060405180830381858888f19350505050158015612392573d6000803e3d6000fd5b5083600160008360030154815260200190815260200160002060090160008282546123bd9190614a29565b92505081905550428160070181905550505050505050565b8060008084815260200190815260200160002060090160006101000a81548160ff02191690836005811115612433577f4e487b7100000000000000000000000000000000000000000000000000000000600052602160045260246000fd5b02179055505050565b60086020528060005260406000206000915090505481565b60008260006001600083815260200190815260200160002060000154141561247b57600080fd5b60006004600085815260200190815260200160002090506000601e603c8060188560070154426124ab9190614b0a565b6124b59190614a7f565b6124bf9190614ab0565b6124c99190614ab0565b6124d39190614ab0565b9050600081116124e257600080fd5b60008260020154905060008360040154905060008460050154905060008382600c61250d9190614ab0565b6125179190614b0a565b600c6064856125269190614a7f565b6125309190614ab0565b600161253c9190614a29565b856125479190614ab0565b18905080866002015461255a9190614b0a565b86600201819055508097505050505050505092915050565b8060006002600083815260200190815260200160002060000154141561259757600080fd5b60006006600085815260200190815260200160002060040160006101000a81548160ff021916908360038111156125f7577f4e487b7100000000000000000000000000000000000000000000000000000000600052602160045260246000fd5b0217905550505050565b8260006001600083815260200190815260200160002060000154141561262657600080fd5b60006126328585612454565b905082811461264057600080fd5b60006004600086815260200190815260200160002090503073ffffffffffffffffffffffffffffffffffffffff166108fc859081150290604051600060405180830381858888f1935050505015801561269d573d6000803e3d6000fd5b5083600160008360030154815260200190815260200160002060090160008282546126c89190614a29565b92505081905550428160070181905550505050505050565b600560205280600052604060002060009150905080600001549080600101549080600201549080600301805461271590614c37565b80601f016020809104026020016040519081016040528092919081815260200182805461274190614c37565b801561278e5780601f106127635761010080835404028352916020019161278e565b820191906000526020600020905b81548152906001019060200180831161277157829003601f168201915b5050505050908060040154908060050160009054906101000a900460ff16908060060154905087565b600260058111156127f1577f4e487b7100000000000000000000000000000000000000000000000000000000600052602160045260246000fd5b600080600360003373ffffffffffffffffffffffffffffffffffffffff1673ffffffffffffffffffffffffffffffffffffffff16815260200190815260200160002054815260200190815260200160002060090160009054906101000a900460ff16600581111561288b577f4e487b7100000000000000000000000000000000000000000000000000000000600052602160045260246000fd5b146128cb576040517f08c379a00000000000000000000000000000000000000000000000000000000081526004016128c290614613565b60405180910390fd5b60006003811115612905577f4e487b7100000000000000000000000000000000000000000000000000000000600052602160045260246000fd5b6005600083815260200190815260200160002060050160009054906101000a900460ff166003811115612961577f4e487b7100000000000000000000000000000000000000000000000000000000600052602160045260246000fd5b146129a1576040517f08c379a0000000000000000000000000000000000000000000000000000000008152600401612998906145f3565b60405180910390fd5b600060056000838152602001908152602001600020905060018160050160006101000a81548160ff02191690836003811115612a06577f4e487b7100000000000000000000000000000000000000000000000000000000600052602160045260246000fd5b02179055506000604051806101000160405280600e60008154612a2890614c9a565b91905081905581526020018360040154815260200183600201548152602001836001015481526020016001600085600401548152602001908152602001600020600d0154815260200183600601548152602001428152602001600081525090508060046000600e548152602001908152602001600020600082015181600001556020820151816001015560408201518160020155606082015181600301556080820151816004015560a0820151816005015560c0820151816006015560e082015181600701559050506001600083600401548152602001908152602001600020600b01600e54908060018154018082558091505060019003906000526020600020016000909190919091505560008083600101548152602001908152602001600020600601600e54908060018154018082558091505060019003906000526020600020016000909190919091505581600201546001600084600401548152602001908152602001600020600901541015612ba157600080fd5b6000808360010154815260200190815260200160002060050160009054906101000a900473ffffffffffffffffffffffffffffffffffffffff1673ffffffffffffffffffffffffffffffffffffffff166108fc83600201549081150290604051600060405180830381858888f19350505050158015612c24573d6000803e3d6000fd5b50816002015460016000846004015481526020019081526020016000206009016000828254612c539190614b0a565b92505081905550505050565b600786511015612ca4576040517f08c379a0000000000000000000000000000000000000000000000000000000008152600401612c9b90614573565b60405180910390fd5b6000600a60008154612cb590614c9a565b91905081905590506040518061014001604052808281526020018881526020018681526020018581526020018481526020016000815260200160008152602001600067ffffffffffffffff811115612d36577f4e487b7100000000000000000000000000000000000000000000000000000000600052604160045260246000fd5b604051908082528060200260200182016040528015612d645781602001602082028036833780820191505090505b508152602001600067ffffffffffffffff811115612dab577f4e487b7100000000000000000000000000000000000000000000000000000000600052604160045260246000fd5b604051908082528060200260200182016040528015612dd95781602001602082028036833780820191505090505b5081526020018381525060016000838152602001908152602001600020600082015181600001556020820151816001019080519060200190612e1c929190613aa5565b506040820151816002019080519060200190612e39929190613a1f565b506060820151816003016000820151816000019080519060200190612e5f929190613a1f565b506020820151816001019080519060200190612e7c929190613a1f565b506040820151816002019080519060200190612e99929190613a1f565b506060820151816003019080519060200190612eb6929190613a1f565b506080820151816004019080519060200190612ed3929190613a1f565b5050506080820151816008019080519060200190612ef2929190613a1f565b5060a0820151816009015560c082015181600a015560e082015181600b019080519060200190612f23929190613aa5565b5061010082015181600c019080519060200190612f41929190613aa5565b5061012082015181600d015590505060005b87518110156130625786888281518110612f96577f4e487b7100000000000000000000000000000000000000000000000000000000600052603260045260246000fd5b602002602001015114612faa576003612fad565b60005b6000808a8481518110612fe9577f4e487b7100000000000000000000000000000000000000000000000000000000600052603260045260246000fd5b6020026020010151815260200190815260200160002060090160006101000a81548160ff0219169083600581111561304a577f4e487b7100000000000000000000000000000000000000000000000000000000600052602160045260246000fd5b0217905550808061305a90614c9a565b915050612f53565b5060005b875181101561313d57600a54600760008060008c86815181106130b2577f4e487b7100000000000000000000000000000000000000000000000000000000600052603260045260246000fd5b6020026020010151815260200190815260200160002060050160009054906101000a900473ffffffffffffffffffffffffffffffffffffffff1673ffffffffffffffffffffffffffffffffffffffff1673ffffffffffffffffffffffffffffffffffffffff16815260200190815260200160002081905550808061313590614c9a565b915050613066565b5050505050505050565b60006001600083815260200190815260200160002090506131ba816001018054806020026020016040519081016040528092919081815260200182805480156131af57602002820191906000526020600020905b81548152602001906001019080831161319b575b5050505050836137e5565b6131f9576040517f08c379a00000000000000000000000000000000000000000000000000000000081526004016131f0906145b3565b60405180910390fd5b60006132578260010180548060200260200160405190810160405280929190818152602001828054801561324c57602002820191906000526020600020905b815481526020019060010190808311613238575b505050505085613873565b905060006132b7836001018054806020026020016040519081016040528092919081815260200182805480156132ac57602002820191906000526020600020905b815481526020019060010190808311613298575b5050505050836138f4565b9050808360010190805190602001906132d1929190613aa5565b505050505050565b60606001600083815260200190815260200160002060010180548060200260200160405190810160405280929190818152602001828054801561333b57602002820191906000526020600020905b815481526020019060010190808311613327575b50505050509050919050565b60003373ffffffffffffffffffffffffffffffffffffffff16600080600360003373ffffffffffffffffffffffffffffffffffffffff1673ffffffffffffffffffffffffffffffffffffffff16815260200190815260200160002054815260200190815260200160002060050160009054906101000a900473ffffffffffffffffffffffffffffffffffffffff1673ffffffffffffffffffffffffffffffffffffffff1614905090565b606081600080600083815260200190815260200160002060000154141561341757600080fd5b60008084815260200190815260200160002060060180548060200260200160405190810160405280929190818152602001828054801561347657602002820191906000526020600020905b815481526020019060010190808311613462575b5050505050915050919050565b816000600260008381526020019081526020016000206000015414156134a857600080fd5b3073ffffffffffffffffffffffffffffffffffffffff166108fc839081150290604051600060405180830381858888f193505050501580156134ee573d6000803e3d6000fd5b5060016006600086815260200190815260200160002060040160006101000a81548160ff0219169083600381111561354f577f4e487b7100000000000000000000000000000000000000000000000000000000600052602160045260246000fd5b021790555081600160006006600088815260200190815260200160002060010154815260200190815260200160002060090160008282546135909190614a29565b9250508190555050505050565b60046020528060005260406000206000915090508060000154908060010154908060020154908060030154908060040154908060050154908060060154908060070154905088565b60036020528060005260406000206000915090505481565b81600080600083815260200190815260200160002060000154141561362157600080fd5b8260056000848152602001908152602001600020600101541461364357600080fd5b600080600090505b600b5481101561368e57846005600083815260200190815260200160002060010154141561367b5780915061368e565b808061368690614c9a565b91505061364b565b5060056000828152602001908152602001600020600080820160009055600182016000905560028201600090556003820160006136cb9190613af2565b60048201600090556005820160006101000a81549060ff021916905560068201600090556007820160006136ff9190613b32565b505050505050565b60008060056000848152602001908152602001600020600701905060005b81805490508110156137d957600360003373ffffffffffffffffffffffffffffffffffffffff1673ffffffffffffffffffffffffffffffffffffffff168152602001908152602001600020548282815481106137aa577f4e487b7100000000000000000000000000000000000000000000000000000000600052603260045260246000fd5b906000526020600020015414156137c6576000925050506137e0565b80806137d190614c9a565b915050613725565b5060019150505b919050565b600080600090505b600184516137fb9190614b0a565b811015613867578284828151811061383c577f4e487b7100000000000000000000000000000000000000000000000000000000600052603260045260246000fd5b6020026020010151141561385457600191505061386d565b808061385f90614c9a565b9150506137ed565b50600090505b92915050565b600080600090505b83518110156138e857828482815181106138be577f4e487b7100000000000000000000000000000000000000000000000000000000600052603260045260246000fd5b602002602001015114156138d557809150506138ee565b80806138e090614c9a565b91505061387b565b50600090505b92915050565b60608251821061390357600080fd5b60008290505b600184516139179190614b0a565b8110156139c3578360018261392c9190614a29565b81518110613963577f4e487b7100000000000000000000000000000000000000000000000000000000600052603260045260246000fd5b60200260200101518482815181106139a4577f4e487b7100000000000000000000000000000000000000000000000000000000600052603260045260246000fd5b60200260200101818152505080806139bb90614c9a565b915050613909565b5082600184516139d39190614b0a565b81518110613a0a577f4e487b7100000000000000000000000000000000000000000000000000000000600052603260045260246000fd5b60200260200101600081525082905092915050565b828054613a2b90614c37565b90600052602060002090601f016020900481019282613a4d5760008555613a94565b82601f10613a6657805160ff1916838001178555613a94565b82800160010185558215613a94579182015b82811115613a93578251825591602001919060010190613a78565b5b509050613aa19190613b53565b5090565b828054828255906000526020600020908101928215613ae1579160200282015b82811115613ae0578251825591602001919060010190613ac5565b5b509050613aee9190613b53565b5090565b508054613afe90614c37565b6000825580601f10613b105750613b2f565b601f016020900490600052602060002090810190613b2e9190613b53565b5b50565b5080546000825590600052602060002090810190613b509190613b53565b50565b5b80821115613b6c576000816000905550600101613b54565b5090565b6000613b83613b7e84614966565b614941565b90508083825260208201905082856020860282011115613ba257600080fd5b60005b85811015613bd25781613bb88882613dad565b845260208401935060208301925050600181019050613ba5565b5050509392505050565b6000613bef613bea84614992565b614941565b905082815260208101848484011115613c0757600080fd5b613c12848285614bf5565b509392505050565b600081359050613c2981614f37565b92915050565b600082601f830112613c4057600080fd5b8135613c50848260208601613b70565b91505092915050565b600081359050613c6881614f4e565b92915050565b600081359050613c7d81614f5e565b92915050565b600082601f830112613c9457600080fd5b8135613ca4848260208601613bdc565b91505092915050565b600060a08284031215613cbf57600080fd5b613cc960a0614941565b9050600082013567ffffffffffffffff811115613ce557600080fd5b613cf184828501613c83565b600083015250602082013567ffffffffffffffff811115613d1157600080fd5b613d1d84828501613c83565b602083015250604082013567ffffffffffffffff811115613d3d57600080fd5b613d4984828501613c83565b604083015250606082013567ffffffffffffffff811115613d6957600080fd5b613d7584828501613c83565b606083015250608082013567ffffffffffffffff811115613d9557600080fd5b613da184828501613c83565b60808301525092915050565b600081359050613dbc81614f6e565b92915050565b600060208284031215613dd457600080fd5b6000613de284828501613c1a565b91505092915050565b60008060008060008060c08789031215613e0457600080fd5b600087013567ffffffffffffffff811115613e1e57600080fd5b613e2a89828a01613c2f565b9650506020613e3b89828a01613dad565b955050604087013567ffffffffffffffff811115613e5857600080fd5b613e6489828a01613c83565b945050606087013567ffffffffffffffff811115613e8157600080fd5b613e8d89828a01613cad565b935050608087013567ffffffffffffffff811115613eaa57600080fd5b613eb689828a01613c83565b92505060a0613ec789828a01613dad565b9150509295509295509295565b60008060008060808587031215613eea57600080fd5b600085013567ffffffffffffffff811115613f0457600080fd5b613f1087828801613c83565b9450506020613f2187828801613c1a565b935050604085013567ffffffffffffffff811115613f3e57600080fd5b613f4a87828801613c83565b9250506060613f5b87828801613dad565b91505092959194509250565b6000806000806000806000806000806101408b8d031215613f8757600080fd5b60008b013567ffffffffffffffff811115613fa157600080fd5b613fad8d828e01613c83565b9a505060208b013567ffffffffffffffff811115613fca57600080fd5b613fd68d828e01613c83565b9950506040613fe78d828e01613dad565b98505060608b013567ffffffffffffffff81111561400457600080fd5b6140108d828e01613c83565b97505060806140218d828e01613c59565b96505060a08b013567ffffffffffffffff81111561403e57600080fd5b61404a8d828e01613c83565b95505060c08b013567ffffffffffffffff81111561406757600080fd5b6140738d828e01613c83565b94505060e08b013567ffffffffffffffff81111561409057600080fd5b61409c8d828e01613c83565b9350506101008b013567ffffffffffffffff8111156140ba57600080fd5b6140c68d828e01613c83565b9250506101208b013567ffffffffffffffff8111156140e457600080fd5b6140f08d828e01613c83565b9150509295989b9194979a5092959850565b60006020828403121561411457600080fd5b600061412284828501613dad565b91505092915050565b6000806040838503121561413e57600080fd5b600061414c85828601613dad565b925050602061415d85828601613c6e565b9150509250929050565b6000806040838503121561417a57600080fd5b600061418885828601613dad565b925050602061419985828601613dad565b9150509250929050565b6000806000606084860312156141b857600080fd5b60006141c686828701613dad565b93505060206141d786828701613dad565b92505060406141e886828701613dad565b9150509250925092565b600080600080600060a0868803121561420a57600080fd5b600061421888828901613dad565b955050602061422988828901613dad565b945050604061423a88828901613dad565b935050606086013567ffffffffffffffff81111561425757600080fd5b61426388828901613c83565b925050608061427488828901613dad565b9150509295509295909350565b600061428d8383614518565b60208301905092915050565b6142a281614b3e565b82525050565b60006142b3826149d3565b6142bd81856149f6565b93506142c8836149c3565b8060005b838110156142f95781516142e08882614281565b97506142eb836149e9565b9250506001810190506142cc565b5085935050505092915050565b61430f81614b50565b82525050565b61431e81614bbf565b82525050565b61432d81614bd1565b82525050565b61433c81614be3565b82525050565b600061434d826149de565b6143578185614a07565b9350614367818560208601614c04565b61437081614dce565b840191505092915050565b6000614386826149de565b6143908185614a18565b93506143a0818560208601614c04565b6143a981614dce565b840191505092915050565b60006143c1601a83614a18565b91506143cc82614ddf565b602082019050919050565b60006143e4601283614a18565b91506143ef82614e08565b602082019050919050565b6000614407602583614a18565b915061441282614e31565b604082019050919050565b600061442a601283614a18565b915061443582614e80565b602082019050919050565b600061444d601283614a18565b915061445882614ea9565b602082019050919050565b6000614470601383614a18565b915061447b82614ed2565b602082019050919050565b600060a08301600083015184820360008601526144a38282614342565b915050602083015184820360208601526144bd8282614342565b915050604083015184820360408601526144d78282614342565b915050606083015184820360608601526144f18282614342565b9150506080830151848203608086015261450b8282614342565b9150508091505092915050565b61452181614bb5565b82525050565b61453081614bb5565b82525050565b6000602082019050818103600083015261455081846142a8565b905092915050565b600060208201905061456d6000830184614306565b92915050565b6000602082019050818103600083015261458c816143b4565b9050919050565b600060208201905081810360008301526145ac816143d7565b9050919050565b600060208201905081810360008301526145cc816143fa565b9050919050565b600060208201905081810360008301526145ec8161441d565b9050919050565b6000602082019050818103600083015261460c81614440565b9050919050565b6000602082019050818103600083015261462c81614463565b9050919050565b60006020820190506146486000830184614527565b92915050565b600060a0820190506146636000830188614527565b8181036020830152614675818761437b565b90506146846040830186614299565b8181036060830152614696818561437b565b90506146a56080830184614527565b9695505050505050565b6000610160820190506146c5600083018e614527565b81810360208301526146d7818d61437b565b905081810360408301526146eb818c61437b565b90506146fa606083018b614527565b818103608083015261470c818a61437b565b905061471b60a0830189614299565b61472860c0830188614527565b61473560e0830187614527565b614743610100830186614333565b614751610120830185614315565b8181036101408301526147648184614486565b90509c9b505050505050505050505050565b600060e08201905061478b600083018a614527565b818103602083015261479d818961437b565b905081810360408301526147b18188614486565b905081810360608301526147c5818761437b565b90506147d46080830186614527565b6147e160a0830185614527565b6147ee60c0830184614527565b98975050505050505050565b600060e08201905061480f600083018a614527565b61481c6020830189614527565b6148296040830188614527565b818103606083015261483b818761437b565b905061484a6080830186614527565b61485760a0830185614324565b61486460c0830184614527565b98975050505050505050565b600060a0820190506148856000830188614527565b6148926020830187614527565b61489f6040830186614527565b6148ac6060830185614527565b6148b96080830184614324565b9695505050505050565b6000610100820190506148d9600083018b614527565b6148e6602083018a614527565b6148f36040830189614527565b6149006060830188614527565b61490d6080830187614527565b61491a60a0830186614527565b61492760c0830185614527565b61493460e0830184614527565b9998505050505050505050565b600061494b61495c565b90506149578282614c69565b919050565b6000604051905090565b600067ffffffffffffffff82111561498157614980614d9f565b5b602082029050602081019050919050565b600067ffffffffffffffff8211156149ad576149ac614d9f565b5b6149b682614dce565b9050602081019050919050565b6000819050602082019050919050565b600081519050919050565b600081519050919050565b6000602082019050919050565b600082825260208201905092915050565b600082825260208201905092915050565b600082825260208201905092915050565b6000614a3482614bb5565b9150614a3f83614bb5565b9250827fffffffffffffffffffffffffffffffffffffffffffffffffffffffffffffffff03821115614a7457614a73614ce3565b5b828201905092915050565b6000614a8a82614bb5565b9150614a9583614bb5565b925082614aa557614aa4614d12565b5b828204905092915050565b6000614abb82614bb5565b9150614ac683614bb5565b9250817fffffffffffffffffffffffffffffffffffffffffffffffffffffffffffffffff0483118215151615614aff57614afe614ce3565b5b828202905092915050565b6000614b1582614bb5565b9150614b2083614bb5565b925082821015614b3357614b32614ce3565b5b828203905092915050565b6000614b4982614b95565b9050919050565b60008115159050919050565b6000819050614b6a82614efb565b919050565b6000819050614b7d82614f0f565b919050565b6000819050614b9082614f23565b919050565b600073ffffffffffffffffffffffffffffffffffffffff82169050919050565b6000819050919050565b6000614bca82614b5c565b9050919050565b6000614bdc82614b6f565b9050919050565b6000614bee82614b82565b9050919050565b82818337600083830152505050565b60005b83811015614c22578082015181840152602081019050614c07565b83811115614c31576000848401525b50505050565b60006002820490506001821680614c4f57607f821691505b60208210811415614c6357614c62614d70565b5b50919050565b614c7282614dce565b810181811067ffffffffffffffff82111715614c9157614c90614d9f565b5b80604052505050565b6000614ca582614bb5565b91507fffffffffffffffffffffffffffffffffffffffffffffffffffffffffffffffff821415614cd857614cd7614ce3565b5b600182019050919050565b7f4e487b7100000000000000000000000000000000000000000000000000000000600052601160045260246000fd5b7f4e487b7100000000000000000000000000000000000000000000000000000000600052601260045260246000fd5b7f4e487b7100000000000000000000000000000000000000000000000000000000600052602160045260246000fd5b7f4e487b7100000000000000000000000000000000000000000000000000000000600052602260045260246000fd5b7f4e487b7100000000000000000000000000000000000000000000000000000000600052604160045260246000fd5b6000601f19601f8301169050919050565b7f41746c656173742037206d656d62657273207265717569726564000000000000600082015250565b7f416c726561647920526567697374657265640000000000000000000000000000600082015250565b7f5573657220697320616c7265616479206e6f7420612070617274206f6620746860008201527f6520534847000000000000000000000000000000000000000000000000000000602082015250565b7f5573657220616c72656164792061646465640000000000000000000000000000600082015250565b7f556e617070726f76656420726571756573740000000000000000000000000000600082015250565b7f556e617574686f72697a65642072657165737400000000000000000000000000600082015250565b60038110614f0c57614f0b614d41565b5b50565b60048110614f2057614f1f614d41565b5b50565b60068110614f3457614f33614d41565b5b50565b614f4081614b3e565b8114614f4b57600080fd5b50565b60038110614f5b57600080fd5b50565b60068110614f6b57600080fd5b50565b614f7781614bb5565b8114614f8257600080fd5b5056fea264697066735822122058fe47d107d00a133744b927d2a755168ed7649c2335e3257173422db365d05364736f6c63430008040033",
  "immutableReferences": {},
  "source": "// SPDX-License-Identifier: MIT\npragma solidity ^0.8.1;\nimport \"./lib/Bank.sol\";\nimport \"./lib/SHG.sol\";\nimport \"./lib/User.sol\";\n\ncontract Yogdaan is Bank, SHG, User {\n    address admin;\n\n    constructor() {\n        admin = msg.sender;\n    }\n}\n",
  "sourcePath": "/home/sdas/code/yogdaan-contracts/contracts/yogdaan.sol",
  "compiler": {
    "name": "solc",
    "version": "0.8.4+commit.c7e474f2.Emscripten.clang"
  },
  "schemaVersion": "3.4.9",
  "updatedAt": "2022-08-24T17:04:22.054Z",
  "networkType": "ethereum",
  "devdoc": {
    "kind": "dev",
    "methods": {},
    "version": 1
  },
  "userdoc": {
    "kind": "user",
    "methods": {},
    "version": 1
  }
}