{
  "contractName": "Yogdaan",
  "abi": [
    {
      "inputs": [],
      "stateMutability": "nonpayable",
      "type": "constructor"
    },
    {
      "inputs": [
        {
          "internalType": "string",
          "name": "_name",
          "type": "string"
        },
        {
          "internalType": "address",
          "name": "_walletAddress",
          "type": "address"
        },
        {
          "internalType": "string",
          "name": "_code",
          "type": "string"
        },
        {
          "internalType": "uint256",
          "name": "_intrestRate",
          "type": "uint256"
        }
      ],
      "name": "addBank",
      "outputs": [],
      "stateMutability": "nonpayable",
      "type": "function"
    },
    {
      "inputs": [
        {
          "internalType": "uint256[]",
          "name": "members",
          "type": "uint256[]"
        },
        {
          "internalType": "uint256",
          "name": "president",
          "type": "uint256"
        },
        {
          "internalType": "uint256",
          "name": "treasurer",
          "type": "uint256"
        },
        {
          "internalType": "string",
          "name": "name",
          "type": "string"
        },
        {
          "internalType": "string",
          "name": "_state",
          "type": "string"
        },
        {
          "internalType": "string",
          "name": "_district",
          "type": "string"
        },
        {
          "internalType": "string",
          "name": "_blockName",
          "type": "string"
        },
        {
          "internalType": "string",
          "name": "_panchyatName",
          "type": "string"
        },
        {
          "internalType": "string",
          "name": "_villageName",
          "type": "string"
        },
        {
          "internalType": "string",
          "name": "dateOfFormation",
          "type": "string"
        },
        {
          "internalType": "uint256",
          "name": "_baseIntrest",
          "type": "uint256"
        }
      ],
      "name": "addSHG",
      "outputs": [],
      "stateMutability": "nonpayable",
      "type": "function"
    },
    {
      "inputs": [
        {
          "internalType": "uint256",
          "name": "userid",
          "type": "uint256"
        },
        {
          "internalType": "uint256",
          "name": "shg",
          "type": "uint256"
        }
      ],
      "name": "addSHGMember",
      "outputs": [],
      "stateMutability": "nonpayable",
      "type": "function"
    },
    {
      "inputs": [
        {
          "internalType": "string",
          "name": "name",
          "type": "string"
        },
        {
          "internalType": "string",
          "name": "aadhar",
          "type": "string"
        },
        {
          "internalType": "uint256",
          "name": "mobno",
          "type": "uint256"
        },
        {
          "internalType": "string",
          "name": "fatherName",
          "type": "string"
        },
        {
          "internalType": "enum structs.Gender",
          "name": "gender",
          "type": "uint8"
        },
        {
          "internalType": "string",
          "name": "_state",
          "type": "string"
        },
        {
          "internalType": "string",
          "name": "_district",
          "type": "string"
        },
        {
          "internalType": "string",
          "name": "_blockName",
          "type": "string"
        },
        {
          "internalType": "string",
          "name": "_panchyatName",
          "type": "string"
        },
        {
          "internalType": "string",
          "name": "_villageName",
          "type": "string"
        }
      ],
      "name": "addUser",
      "outputs": [],
      "stateMutability": "nonpayable",
      "type": "function"
    },
    {
      "inputs": [
        {
          "internalType": "address",
          "name": "",
          "type": "address"
        }
      ],
      "name": "addressToBankid",
      "outputs": [
        {
          "internalType": "uint256",
          "name": "",
          "type": "uint256"
        }
      ],
      "stateMutability": "view",
      "type": "function",
      "constant": true
    },
    {
      "inputs": [
        {
          "internalType": "address",
          "name": "",
          "type": "address"
        }
      ],
      "name": "addressToSHGid",
      "outputs": [
        {
          "internalType": "uint256",
          "name": "",
          "type": "uint256"
        }
      ],
      "stateMutability": "view",
      "type": "function",
      "constant": true
    },
    {
      "inputs": [
        {
          "internalType": "address",
          "name": "",
          "type": "address"
        }
      ],
      "name": "addressToUser",
      "outputs": [
        {
          "internalType": "uint256",
          "name": "",
          "type": "uint256"
        }
      ],
      "stateMutability": "view",
      "type": "function",
      "constant": true
    },
    {
      "inputs": [
        {
          "internalType": "uint256",
          "name": "_shgrequestid",
          "type": "uint256"
        },
        {
          "internalType": "uint256",
          "name": "_bankid",
          "type": "uint256"
        }
      ],
      "name": "approveLoan",
      "outputs": [],
      "stateMutability": "nonpayable",
      "type": "function"
    },
    {
      "inputs": [
        {
          "internalType": "uint256",
          "name": "_requestid",
          "type": "uint256"
        },
        {
          "internalType": "uint256",
          "name": "_shgid",
          "type": "uint256"
        }
      ],
      "name": "approveRequest",
      "outputs": [],
      "stateMutability": "nonpayable",
      "type": "function"
    },
    {
      "inputs": [
        {
          "internalType": "uint256",
          "name": "",
          "type": "uint256"
        }
      ],
      "name": "banks",
      "outputs": [
        {
          "internalType": "uint256",
          "name": "id",
          "type": "uint256"
        },
        {
          "internalType": "string",
          "name": "name",
          "type": "string"
        },
        {
          "internalType": "address",
          "name": "walletAddress",
          "type": "address"
        },
        {
          "internalType": "string",
          "name": "code",
          "type": "string"
        },
        {
          "internalType": "uint256",
          "name": "intrestRate",
          "type": "uint256"
        }
      ],
      "stateMutability": "view",
      "type": "function",
      "constant": true
    },
    {
      "inputs": [
        {
          "internalType": "uint256",
          "name": "_userid",
          "type": "uint256"
        },
        {
          "internalType": "uint256",
          "name": "_requestid",
          "type": "uint256"
        }
      ],
      "name": "deleteRequest",
      "outputs": [],
      "stateMutability": "nonpayable",
      "type": "function"
    },
    {
      "inputs": [
        {
          "internalType": "string",
          "name": "",
          "type": "string"
        },
        {
          "internalType": "uint256",
          "name": "",
          "type": "uint256"
        }
      ],
      "name": "districtToSHGs",
      "outputs": [
        {
          "internalType": "uint256",
          "name": "",
          "type": "uint256"
        }
      ],
      "stateMutability": "view",
      "type": "function",
      "constant": true
    },
    {
      "inputs": [
        {
          "internalType": "uint256",
          "name": "bankid",
          "type": "uint256"
        }
      ],
      "name": "getAllBanks",
      "outputs": [
        {
          "components": [
            {
              "internalType": "uint256",
              "name": "id",
              "type": "uint256"
            },
            {
              "internalType": "string",
              "name": "name",
              "type": "string"
            },
            {
              "internalType": "address",
              "name": "walletAddress",
              "type": "address"
            },
            {
              "internalType": "string",
              "name": "code",
              "type": "string"
            },
            {
              "internalType": "uint256",
              "name": "intrestRate",
              "type": "uint256"
            },
            {
              "internalType": "uint256[]",
              "name": "requests",
              "type": "uint256[]"
            }
          ],
          "internalType": "struct structs.Bank",
          "name": "",
          "type": "tuple"
        }
      ],
      "stateMutability": "view",
      "type": "function",
      "constant": true
    },
    {
      "inputs": [
        {
          "internalType": "uint256",
          "name": "userid",
          "type": "uint256"
        }
      ],
      "name": "getAllLoans",
      "outputs": [
        {
          "internalType": "uint256[]",
          "name": "",
          "type": "uint256[]"
        }
      ],
      "stateMutability": "view",
      "type": "function",
      "constant": true
    },
    {
      "inputs": [],
      "name": "getNumUsers",
      "outputs": [
        {
          "internalType": "uint256",
          "name": "",
          "type": "uint256"
        }
      ],
      "stateMutability": "view",
      "type": "function",
      "constant": true
    },
    {
      "inputs": [
        {
          "internalType": "uint256",
          "name": "_shgid",
          "type": "uint256"
        },
        {
          "internalType": "uint256",
          "name": "_loanid",
          "type": "uint256"
        }
      ],
      "name": "getSHGEMI",
      "outputs": [
        {
          "internalType": "uint256",
          "name": "",
          "type": "uint256"
        }
      ],
      "stateMutability": "nonpayable",
      "type": "function"
    },
    {
      "inputs": [
        {
          "internalType": "uint256",
          "name": "shgid",
          "type": "uint256"
        }
      ],
      "name": "getSHGMembers",
      "outputs": [
        {
          "internalType": "uint256[]",
          "name": "",
          "type": "uint256[]"
        }
      ],
      "stateMutability": "view",
      "type": "function",
      "constant": true
    },
    {
      "inputs": [
        {
          "internalType": "uint256",
          "name": "_shgid",
          "type": "uint256"
        }
      ],
      "name": "getSHGRequests",
      "outputs": [
        {
          "internalType": "uint256[]",
          "name": "",
          "type": "uint256[]"
        }
      ],
      "stateMutability": "nonpayable",
      "type": "function"
    },
    {
      "inputs": [],
      "name": "getTotalBanks",
      "outputs": [
        {
          "internalType": "uint256",
          "name": "",
          "type": "uint256"
        }
      ],
      "stateMutability": "view",
      "type": "function",
      "constant": true
    },
    {
      "inputs": [
        {
          "internalType": "uint256",
          "name": "userid",
          "type": "uint256"
        },
        {
          "internalType": "uint256",
          "name": "loanid",
          "type": "uint256"
        }
      ],
      "name": "getUserEMI",
      "outputs": [
        {
          "internalType": "uint256",
          "name": "",
          "type": "uint256"
        }
      ],
      "stateMutability": "nonpayable",
      "type": "function"
    },
    {
      "inputs": [
        {
          "internalType": "uint256",
          "name": "_userid",
          "type": "uint256"
        }
      ],
      "name": "getUserLoanAmount",
      "outputs": [
        {
          "internalType": "uint256",
          "name": "",
          "type": "uint256"
        }
      ],
      "stateMutability": "view",
      "type": "function",
      "constant": true
    },
    {
      "inputs": [
        {
          "internalType": "uint256",
          "name": "_userid",
          "type": "uint256"
        }
      ],
      "name": "getUserRequest",
      "outputs": [
        {
          "internalType": "uint256[]",
          "name": "",
          "type": "uint256[]"
        }
      ],
      "stateMutability": "nonpayable",
      "type": "function"
    },
    {
      "inputs": [
        {
          "internalType": "uint256",
          "name": "_shgrequestid",
          "type": "uint256"
        },
        {
          "internalType": "uint256",
          "name": "_bankid",
          "type": "uint256"
        },
        {
          "internalType": "uint256",
          "name": "_amount",
          "type": "uint256"
        }
      ],
      "name": "grantLoan",
      "outputs": [],
      "stateMutability": "nonpayable",
      "type": "function"
    },
    {
      "inputs": [
        {
          "internalType": "uint256",
          "name": "",
          "type": "uint256"
        }
      ],
      "name": "loans",
      "outputs": [
        {
          "internalType": "uint256",
          "name": "loanId",
          "type": "uint256"
        },
        {
          "internalType": "uint256",
          "name": "lenderId",
          "type": "uint256"
        },
        {
          "internalType": "uint256",
          "name": "amount",
          "type": "uint256"
        },
        {
          "internalType": "uint256",
          "name": "lendeeId",
          "type": "uint256"
        },
        {
          "internalType": "uint256",
          "name": "intrest",
          "type": "uint256"
        },
        {
          "internalType": "uint256",
          "name": "loanTime",
          "type": "uint256"
        },
        {
          "internalType": "uint256",
          "name": "date",
          "type": "uint256"
        },
        {
          "internalType": "uint256",
          "name": "lastEMI",
          "type": "uint256"
        }
      ],
      "stateMutability": "view",
      "type": "function",
      "constant": true
    },
    {
      "inputs": [],
      "name": "login",
      "outputs": [
        {
          "internalType": "bool",
          "name": "",
          "type": "bool"
        }
      ],
      "stateMutability": "view",
      "type": "function",
      "constant": true
    },
    {
      "inputs": [
        {
          "internalType": "uint256",
          "name": "_shgid",
          "type": "uint256"
        },
        {
          "internalType": "uint256",
          "name": "_userid",
          "type": "uint256"
        },
        {
          "internalType": "uint256",
          "name": "_amount",
          "type": "uint256"
        },
        {
          "internalType": "string",
          "name": "_description",
          "type": "string"
        },
        {
          "internalType": "uint256",
          "name": "_loanTime",
          "type": "uint256"
        }
      ],
      "name": "makeRequest",
      "outputs": [],
      "stateMutability": "nonpayable",
      "type": "function"
    },
    {
      "inputs": [
        {
          "internalType": "uint256",
          "name": "_userid",
          "type": "uint256"
        },
        {
          "internalType": "uint256",
          "name": "_loanid",
          "type": "uint256"
        },
        {
          "internalType": "uint256",
          "name": "_amount",
          "type": "uint256"
        }
      ],
      "name": "payEMI",
      "outputs": [],
      "stateMutability": "payable",
      "type": "function",
      "payable": true
    },
    {
      "inputs": [
        {
          "internalType": "uint256",
          "name": "userid",
          "type": "uint256"
        },
        {
          "internalType": "uint256",
          "name": "shgid",
          "type": "uint256"
        }
      ],
      "name": "removeSHGMember",
      "outputs": [],
      "stateMutability": "nonpayable",
      "type": "function"
    },
    {
      "inputs": [
        {
          "internalType": "uint256",
          "name": "_requestid",
          "type": "uint256"
        }
      ],
      "name": "sendGrant",
      "outputs": [],
      "stateMutability": "nonpayable",
      "type": "function"
    },
    {
      "inputs": [
        {
          "internalType": "uint256",
          "name": "_shgid",
          "type": "uint256"
        },
        {
          "internalType": "uint256",
          "name": "_amount",
          "type": "uint256"
        },
        {
          "internalType": "uint256",
          "name": "_loanTime",
          "type": "uint256"
        }
      ],
      "name": "sendRequestToBank",
      "outputs": [],
      "stateMutability": "nonpayable",
      "type": "function"
    },
    {
      "inputs": [
        {
          "internalType": "uint256",
          "name": "_bankid",
          "type": "uint256"
        },
        {
          "internalType": "uint256",
          "name": "_requestid",
          "type": "uint256"
        },
        {
          "internalType": "uint256",
          "name": "_amount",
          "type": "uint256"
        }
      ],
      "name": "shgLoan",
      "outputs": [],
      "stateMutability": "payable",
      "type": "function",
      "payable": true
    },
    {
      "inputs": [
        {
          "internalType": "uint256",
          "name": "_shgid",
          "type": "uint256"
        },
        {
          "internalType": "uint256",
          "name": "_loanid",
          "type": "uint256"
        },
        {
          "internalType": "uint256",
          "name": "_amount",
          "type": "uint256"
        }
      ],
      "name": "shgPayEMI",
      "outputs": [],
      "stateMutability": "nonpayable",
      "type": "function"
    },
    {
      "inputs": [
        {
          "internalType": "uint256",
          "name": "",
          "type": "uint256"
        }
      ],
      "name": "shgRequests",
      "outputs": [
        {
          "internalType": "uint256",
          "name": "requestid",
          "type": "uint256"
        },
        {
          "internalType": "uint256",
          "name": "shgid",
          "type": "uint256"
        },
        {
          "internalType": "uint256",
          "name": "amount",
          "type": "uint256"
        },
        {
          "internalType": "uint256",
          "name": "loanTime",
          "type": "uint256"
        },
        {
          "internalType": "enum structs.RequestStatus",
          "name": "status",
          "type": "uint8"
        }
      ],
      "stateMutability": "view",
      "type": "function",
      "constant": true
    },
    {
      "inputs": [
        {
          "internalType": "uint256",
          "name": "",
          "type": "uint256"
        },
        {
          "internalType": "uint256",
          "name": "",
          "type": "uint256"
        }
      ],
      "name": "shgToRequests",
      "outputs": [
        {
          "internalType": "uint256",
          "name": "",
          "type": "uint256"
        }
      ],
      "stateMutability": "view",
      "type": "function",
      "constant": true
    },
    {
      "inputs": [
        {
          "internalType": "uint256",
          "name": "",
          "type": "uint256"
        }
      ],
      "name": "shgs",
      "outputs": [
        {
          "internalType": "uint256",
          "name": "id",
          "type": "uint256"
        },
        {
          "internalType": "string",
          "name": "name",
          "type": "string"
        },
        {
          "components": [
            {
              "internalType": "string",
              "name": "state",
              "type": "string"
            },
            {
              "internalType": "string",
              "name": "district",
              "type": "string"
            },
            {
              "internalType": "string",
              "name": "blockName",
              "type": "string"
            },
            {
              "internalType": "string",
              "name": "panchyatName",
              "type": "string"
            },
            {
              "internalType": "string",
              "name": "villageName",
              "type": "string"
            }
          ],
          "internalType": "struct structs.Location",
          "name": "location",
          "type": "tuple"
        },
        {
          "internalType": "string",
          "name": "dateOfFormation",
          "type": "string"
        },
        {
          "internalType": "uint256",
          "name": "currentBalance",
          "type": "uint256"
        },
        {
          "internalType": "uint256",
          "name": "owedBalance",
          "type": "uint256"
        },
        {
          "internalType": "uint256",
          "name": "baseIntrest",
          "type": "uint256"
        }
      ],
      "stateMutability": "view",
      "type": "function",
      "constant": true
    },
    {
      "inputs": [
        {
          "internalType": "string",
          "name": "district",
          "type": "string"
        }
      ],
      "name": "shgsOfDistrict",
      "outputs": [
        {
          "internalType": "uint256[]",
          "name": "",
          "type": "uint256[]"
        }
      ],
      "stateMutability": "view",
      "type": "function",
      "constant": true
    },
    {
      "inputs": [],
      "name": "totalNumSHGs",
      "outputs": [
        {
          "internalType": "uint256",
          "name": "",
          "type": "uint256"
        }
      ],
      "stateMutability": "view",
      "type": "function",
      "constant": true
    },
    {
      "inputs": [
        {
          "internalType": "uint256",
          "name": "id",
          "type": "uint256"
        },
        {
          "internalType": "enum structs.UserType",
          "name": "updatedType",
          "type": "uint8"
        }
      ],
      "name": "updateMemberRole",
      "outputs": [],
      "stateMutability": "nonpayable",
      "type": "function"
    },
    {
      "inputs": [
        {
          "internalType": "uint256",
          "name": "",
          "type": "uint256"
        }
      ],
      "name": "userRequests",
      "outputs": [
        {
          "internalType": "uint256",
          "name": "requestId",
          "type": "uint256"
        },
        {
          "internalType": "uint256",
          "name": "userId",
          "type": "uint256"
        },
        {
          "internalType": "uint256",
          "name": "amount",
          "type": "uint256"
        },
        {
          "internalType": "string",
          "name": "description",
          "type": "string"
        },
        {
          "internalType": "uint256",
          "name": "SHGId",
          "type": "uint256"
        },
        {
          "internalType": "enum structs.RequestStatus",
          "name": "status",
          "type": "uint8"
        },
        {
          "internalType": "uint256",
          "name": "loanTime",
          "type": "uint256"
        }
      ],
      "stateMutability": "view",
      "type": "function",
      "constant": true
    },
    {
      "inputs": [
        {
          "internalType": "uint256",
          "name": "",
          "type": "uint256"
        },
        {
          "internalType": "uint256",
          "name": "",
          "type": "uint256"
        }
      ],
      "name": "userToRequests",
      "outputs": [
        {
          "internalType": "uint256",
          "name": "",
          "type": "uint256"
        }
      ],
      "stateMutability": "view",
      "type": "function",
      "constant": true
    },
    {
      "inputs": [
        {
          "internalType": "uint256",
          "name": "",
          "type": "uint256"
        }
      ],
      "name": "users",
      "outputs": [
        {
          "internalType": "uint256",
          "name": "id",
          "type": "uint256"
        },
        {
          "internalType": "string",
          "name": "name",
          "type": "string"
        },
        {
          "internalType": "string",
          "name": "aadhar",
          "type": "string"
        },
        {
          "internalType": "uint256",
          "name": "mobno",
          "type": "uint256"
        },
        {
          "internalType": "string",
          "name": "fatherName",
          "type": "string"
        },
        {
          "internalType": "address",
          "name": "walletAddress",
          "type": "address"
        },
        {
          "internalType": "uint256",
          "name": "shgid",
          "type": "uint256"
        },
        {
          "internalType": "enum structs.UserType",
          "name": "userType",
          "type": "uint8"
        },
        {
          "internalType": "enum structs.Gender",
          "name": "gender",
          "type": "uint8"
        },
        {
          "components": [
            {
              "internalType": "string",
              "name": "state",
              "type": "string"
            },
            {
              "internalType": "string",
              "name": "district",
              "type": "string"
            },
            {
              "internalType": "string",
              "name": "blockName",
              "type": "string"
            },
            {
              "internalType": "string",
              "name": "panchyatName",
              "type": "string"
            },
            {
              "internalType": "string",
              "name": "villageName",
              "type": "string"
            }
          ],
          "internalType": "struct structs.Location",
          "name": "location",
          "type": "tuple"
        }
      ],
      "stateMutability": "view",
      "type": "function",
      "constant": true
    }
  ],
  "bytecode": "0x608060405234801561001057600080fd5b5033601260006101000a81548173ffffffffffffffffffffffffffffffffffffffff021916908373ffffffffffffffffffffffffffffffffffffffff160217905550615cd880620000626000396000f3fe6080604052600436106102455760003560e01c80634f269c9211610139578063a6e90a58116100b6578063d3f86fb81161007a578063d3f86fb814610944578063db223b4c14610981578063e1ec3c68146109aa578063edf53886146109ee578063f61074ff14610a2b578063f736ae4314610a6857610245565b8063a6e90a581461084d578063af08a94f14610876578063b34e97e8146108b3578063bc1e72ad146108de578063cfcb4b2f1461090757610245565b80637a646492116100fd5780637a646492146107525780637d550bb31461077b57806394169656146107a457806397e492dd146107e75780639bbc9ab11461082457610245565b80634f269c92146106595780635df3fc811461068257806361c91b70146106ad57806365f88c0d146106ea578063769d0e161461071557610245565b806326271cf2116101c75780633ae0058f1161018b5780633ae0058f146105495780633c565757146105865780633cec4272146105c357806342f5f815146106005780634d82d8e81461061c57610245565b806326271cf2146104455780632c0a90a9146104885780632e131046146104b1578063365b98b2146104da57806339d8bed11461052057610245565b806311c988151161020e57806311c988151461035757806314795ce3146103825780631d3ff78a146103ab578063249c4bff146103e8578063257a170b1461040457610245565b806285ae2b1461024a578063021af3971461028b5780630227f435146102b4578063089511f7146102dd5780630c1c78831461031a575b600080fd5b34801561025657600080fd5b50610271600480360381019061026c9190614ca4565b610a91565b60405161028295949392919061535e565b60405180910390f35b34801561029757600080fd5b506102b260048036038101906102ad9190614d45565b610bf7565b005b3480156102c057600080fd5b506102db60048036038101906102d69190614d94565b610dce565b005b3480156102e957600080fd5b5061030460048036038101906102ff9190614ca4565b611021565b6040516103119190615343565b60405180910390f35b34801561032657600080fd5b50610341600480360381019061033c9190614d09565b611108565b60405161034e9190615343565b60405180910390f35b34801561036357600080fd5b5061036c611139565b6040516103799190615343565b60405180910390f35b34801561038e57600080fd5b506103a960048036038101906103a49190614a22565b611143565b005b3480156103b757600080fd5b506103d260048036038101906103cd9190614ca4565b611323565b6040516103df9190615224565b60405180910390f35b61040260048036038101906103fd9190614d45565b611408565b005b34801561041057600080fd5b5061042b60048036038101906104269190614ca4565b611611565b60405161043c959493929190615571565b60405180910390f35b34801561045157600080fd5b5061046c60048036038101906104679190614ca4565b611654565b60405161047f9796959493929190615477565b60405180910390f35b34801561049457600080fd5b506104af60048036038101906104aa9190614d09565b611a8a565b005b3480156104bd57600080fd5b506104d860048036038101906104d39190614ab5565b611be0565b005b3480156104e657600080fd5b5061050160048036038101906104fc9190614ca4565b61217e565b6040516105179a999897969594939291906153bf565b60405180910390f35b34801561052c57600080fd5b5061054760048036038101906105429190614d09565b612688565b005b34801561055557600080fd5b50610570600480360381019061056b9190614808565b61279e565b60405161057d9190615343565b60405180910390f35b34801561059257600080fd5b506105ad60048036038101906105a89190614d09565b6127b6565b6040516105ba9190615343565b60405180910390f35b3480156105cf57600080fd5b506105ea60048036038101906105e59190614c50565b6128c8565b6040516105f79190615343565b60405180910390f35b61061a60048036038101906106159190614d45565b61290f565b005b34801561062857600080fd5b50610643600480360381019061063e9190614ca4565b6129ed565b6040516106509190615321565b60405180910390f35b34801561066557600080fd5b50610680600480360381019061067b9190614ccd565b612c00565b005b34801561068e57600080fd5b50610697612c67565b6040516106a49190615343565b60405180910390f35b3480156106b957600080fd5b506106d460048036038101906106cf9190614808565b612c71565b6040516106e19190615343565b60405180910390f35b3480156106f657600080fd5b506106ff612c89565b60405161070c9190615343565b60405180910390f35b34801561072157600080fd5b5061073c60048036038101906107379190614d09565b612c93565b6040516107499190615343565b60405180910390f35b34801561075e57600080fd5b5061077960048036038101906107749190614d09565b612da6565b005b34801561078757600080fd5b506107a2600480360381019061079d9190614d45565b612e35565b005b3480156107b057600080fd5b506107cb60048036038101906107c69190614ca4565b612f14565b6040516107de97969594939291906154fb565b60405180910390f35b3480156107f357600080fd5b5061080e600480360381019061080991906149e1565b612feb565b60405161081b9190615224565b60405180910390f35b34801561083057600080fd5b5061084b60048036038101906108469190614ca4565b613061565b005b34801561085957600080fd5b50610874600480360381019061086f9190614d09565b613509565b005b34801561088257600080fd5b5061089d60048036038101906108989190614ca4565b61369b565b6040516108aa9190615224565b60405180910390f35b3480156108bf57600080fd5b506108c8613709565b6040516108d59190615246565b60405180910390f35b3480156108ea57600080fd5b5061090560048036038101906109009190614831565b6137b3565b005b34801561091357600080fd5b5061092e60048036038101906109299190614ca4565b613dd5565b60405161093b9190615224565b60405180910390f35b34801561095057600080fd5b5061096b60048036038101906109669190614ca4565b613e67565b6040516109789190615224565b60405180910390f35b34801561098d57600080fd5b506109a860048036038101906109a39190614d45565b613f4c565b005b3480156109b657600080fd5b506109d160048036038101906109cc9190614ca4565b614066565b6040516109e59897969594939291906155c4565b60405180910390f35b3480156109fa57600080fd5b50610a156004803603810190610a109190614808565b6140ae565b604051610a229190615343565b60405180910390f35b348015610a3757600080fd5b50610a526004803603810190610a4d9190614d09565b6140c6565b604051610a5f9190615343565b60405180910390f35b348015610a7457600080fd5b50610a8f6004803603810190610a8a9190614d09565b6140f7565b005b6003602052806000526040600020600091509050806000015490806001018054610aba90615954565b80601f0160208091040260200160405190810160405280929190818152602001828054610ae690615954565b8015610b335780601f10610b0857610100808354040283529160200191610b33565b820191906000526020600020905b815481529060010190602001808311610b1657829003601f168201915b5050505050908060020160009054906101000a900473ffffffffffffffffffffffffffffffffffffffff1690806003018054610b6e90615954565b80601f0160208091040260200160405190810160405280929190818152602001828054610b9a90615954565b8015610be75780601f10610bbc57610100808354040283529160200191610be7565b820191906000526020600020905b815481529060010190602001808311610bca57829003601f168201915b5050505050908060040154905085565b82600060016000838152602001908152602001600020600001541415610c1c57600080fd5b83600080600460003373ffffffffffffffffffffffffffffffffffffffff1673ffffffffffffffffffffffffffffffffffffffff1681526020019081526020016000205481526020019081526020016000206008015414610c7c57600080fd5b6000600f6000815480929190610c91906159b7565b9190505590506040518060a00160405280828152602001868152602001858152602001848152602001600380811115610cf3577f4e487b7100000000000000000000000000000000000000000000000000000000600052602160045260246000fd5b815250600760008381526020019081526020016000206000820151816000015560208201518160010155604082015181600201556060820151816003015560808201518160040160006101000a81548160ff02191690836003811115610d82577f4e487b7100000000000000000000000000000000000000000000000000000000600052602160045260246000fd5b021790555090505060016000868152602001908152602001600020600c018190806001815401808255809150506001900390600052602060002001600090919091909150555050505050565b6000600e60008154610ddf906159b7565b9190508190559050604051806101000160405280828152602001868152602001858152602001848152602001878152602001600380811115610e4a577f4e487b7100000000000000000000000000000000000000000000000000000000600052602160045260246000fd5b8152602001838152602001600067ffffffffffffffff811115610e96577f4e487b7100000000000000000000000000000000000000000000000000000000600052604160045260246000fd5b604051908082528060200260200182016040528015610ec45781602001602082028036833780820191505090505b50815250600660008381526020019081526020016000206000820151816000015560208201518160010155604082015181600201556060820151816003019080519060200190610f15929190614519565b506080820151816004015560a08201518160050160006101000a81548160ff02191690836003811115610f71577f4e487b7100000000000000000000000000000000000000000000000000000000600052602160045260246000fd5b021790555060c0820151816006015560e0820151816007019080519060200190610f9c92919061459f565b5090505060008086815260200190815260200160002060070181908060018154018082558091505060019003906000526020600020016000909190919091505560016000878152602001908152602001600020600d01819080600181540180825580915050600190039060005260206000200160009091909190915055505050505050565b60008060009050600080600085815260200190815260200160002060060180548060200260200160405190810160405280929190818152602001828054801561108957602002820191906000526020600020905b815481526020019060010190808311611075575b5050505050905060005b81518110156110fd578181815181106110d5577f4e487b7100000000000000000000000000000000000000000000000000000000600052603260045260246000fd5b6020026020010151836110e89190615746565b925080806110f5906159b7565b915050611093565b508192505050919050565b600a602052816000526040600020818154811061112457600080fd5b90600052602060002001600091509150505481565b6000601054905090565b6000601060008154611154906159b7565b91905081905590506040518060c001604052808281526020018681526020018573ffffffffffffffffffffffffffffffffffffffff168152602001848152602001838152602001600067ffffffffffffffff8111156111dc577f4e487b7100000000000000000000000000000000000000000000000000000000600052604160045260246000fd5b60405190808252806020026020018201604052801561120a5781602001602082028036833780820191505090505b5081525060036000838152602001908152602001600020600082015181600001556020820151816001019080519060200190611247929190614519565b5060408201518160020160006101000a81548173ffffffffffffffffffffffffffffffffffffffff021916908373ffffffffffffffffffffffffffffffffffffffff16021790555060608201518160030190805190602001906112ab929190614519565b506080820151816004015560a08201518160050190805190602001906112d292919061459f565b50905050601054600960008673ffffffffffffffffffffffffffffffffffffffff1673ffffffffffffffffffffffffffffffffffffffff168152602001908152602001600020819055505050505050565b606060005b600e5481101561139e57826006600083815260200190815260200160002060010154141561138b57600a60008481526020019081526020016000208190806001815401808255809150506001900390600052602060002001600090919091909150555b8080611396906159b7565b915050611328565b50600a60008381526020019081526020016000208054806020026020016040519081016040528092919081815260200182805480156113fc57602002820191906000526020600020905b8154815260200190600101908083116113e8575b50505050509050919050565b8260006003600083815260200190815260200160002060000154141561142d57600080fd5b600060405180610100016040528060116000815461144a906159b7565b9190508190558152602001600760008781526020019081526020016000206001015481526020018481526020018681526020016003600088815260200190815260200160002060040154815260200160076000878152602001908152602001600020600301548152602001428152602001600081525090506001600060076000878152602001908152602001600020600101548152602001908152602001600020600c0160115490806001815401808255809150506001900390600052602060002001600090919091909150553073ffffffffffffffffffffffffffffffffffffffff166108fc849081150290604051600060405180830381858888f1935050505015801561155d573d6000803e3d6000fd5b50826001600060076000888152602001908152602001600020600101548152602001908152602001600020600901600082825461159a9190615746565b9250508190555080600560006011548152602001908152602001600020600082015181600001556020820151816001015560408201518160020155606082015181600301556080820151816004015560a0820151816005015560c0820151816006015560e082015181600701559050505050505050565b60076020528060005260406000206000915090508060000154908060010154908060020154908060030154908060040160009054906101000a900460ff16905085565b600160205280600052604060002060009150905080600001549080600201805461167d90615954565b80601f01602080910402602001604051908101604052809291908181526020018280546116a990615954565b80156116f65780601f106116cb576101008083540402835291602001916116f6565b820191906000526020600020905b8154815290600101906020018083116116d957829003601f168201915b505050505090806003016040518060a001604052908160008201805461171b90615954565b80601f016020809104026020016040519081016040528092919081815260200182805461174790615954565b80156117945780601f1061176957610100808354040283529160200191611794565b820191906000526020600020905b81548152906001019060200180831161177757829003601f168201915b505050505081526020016001820180546117ad90615954565b80601f01602080910402602001604051908101604052809291908181526020018280546117d990615954565b80156118265780601f106117fb57610100808354040283529160200191611826565b820191906000526020600020905b81548152906001019060200180831161180957829003601f168201915b5050505050815260200160028201805461183f90615954565b80601f016020809104026020016040519081016040528092919081815260200182805461186b90615954565b80156118b85780601f1061188d576101008083540402835291602001916118b8565b820191906000526020600020905b81548152906001019060200180831161189b57829003601f168201915b505050505081526020016003820180546118d190615954565b80601f01602080910402602001604051908101604052809291908181526020018280546118fd90615954565b801561194a5780601f1061191f5761010080835404028352916020019161194a565b820191906000526020600020905b81548152906001019060200180831161192d57829003601f168201915b5050505050815260200160048201805461196390615954565b80601f016020809104026020016040519081016040528092919081815260200182805461198f90615954565b80156119dc5780601f106119b1576101008083540402835291602001916119dc565b820191906000526020600020905b8154815290600101906020018083116119bf57829003601f168201915b505050505081525050908060080180546119f590615954565b80601f0160208091040260200160405190810160405280929190818152602001828054611a2190615954565b8015611a6e5780601f10611a4357610100808354040283529160200191611a6e565b820191906000526020600020905b815481529060010190602001808311611a5157829003601f168201915b50505050509080600901549080600a01549080600e0154905087565b80600060016000838152602001908152602001600020600001541415611aaf57600080fd5b600060066000858152602001908152602001600020905082816004015414611ad657600080fd5b611adf84614201565b611ae857600080fd5b80600701600460003373ffffffffffffffffffffffffffffffffffffffff1673ffffffffffffffffffffffffffffffffffffffff16815260200190815260200160002054908060018154018082558091505060019003906000526020600020016000909190919091505560026001600085815260200190815260200160002060010180549050611b78919061579c565b81600701805490501115611bda5760008160050160006101000a81548160ff02191690836003811115611bd4577f4e487b7100000000000000000000000000000000000000000000000000000000600052602160045260246000fd5b02179055505b50505050565b3373ffffffffffffffffffffffffffffffffffffffff16600080600460003373ffffffffffffffffffffffffffffffffffffffff1673ffffffffffffffffffffffffffffffffffffffff16815260200190815260200160002054815260200190815260200160002060050160009054906101000a900473ffffffffffffffffffffffffffffffffffffffff1673ffffffffffffffffffffffffffffffffffffffff161415611cc3576040517f08c379a0000000000000000000000000000000000000000000000000000000008152600401611cba90615281565b60405180910390fd5b6000600c60008154611cd4906159b7565b919050819055905080600460003373ffffffffffffffffffffffffffffffffffffffff1673ffffffffffffffffffffffffffffffffffffffff1681526020019081526020016000208190555060006040518060a00160405280888152602001878152602001868152602001858152602001848152509050604051806101800160405280600c6000815480929190611d6a906159b7565b9190505581526020018d81526020018c81526020018b81526020018a81526020013373ffffffffffffffffffffffffffffffffffffffff168152602001600067ffffffffffffffff811115611de8577f4e487b7100000000000000000000000000000000000000000000000000000000600052604160045260246000fd5b604051908082528060200260200182016040528015611e165781602001602082028036833780820191505090505b508152602001600067ffffffffffffffff811115611e5d577f4e487b7100000000000000000000000000000000000000000000000000000000600052604160045260246000fd5b604051908082528060200260200182016040528015611e8b5781602001602082028036833780820191505090505b5081526020016000815260200160046005811115611ed2577f4e487b7100000000000000000000000000000000000000000000000000000000600052602160045260246000fd5b8152602001896002811115611f10577f4e487b7100000000000000000000000000000000000000000000000000000000600052602160045260246000fd5b815260200182815250600080848152602001908152602001600020600082015181600001556020820151816001019080519060200190611f51929190614519565b506040820151816002019080519060200190611f6e929190614519565b50606082015181600301556080820151816004019080519060200190611f95929190614519565b5060a08201518160050160006101000a81548173ffffffffffffffffffffffffffffffffffffffff021916908373ffffffffffffffffffffffffffffffffffffffff16021790555060c0820151816006019080519060200190611ff992919061459f565b5060e082015181600701908051906020019061201692919061459f565b5061010082015181600801556101208201518160090160006101000a81548160ff02191690836005811115612074577f4e487b7100000000000000000000000000000000000000000000000000000000600052602160045260246000fd5b02179055506101408201518160090160016101000a81548160ff021916908360028111156120cb577f4e487b7100000000000000000000000000000000000000000000000000000000600052602160045260246000fd5b021790555061016082015181600a0160008201518160000190805190602001906120f6929190614519565b506020820151816001019080519060200190612113929190614519565b506040820151816002019080519060200190612130929190614519565b50606082015181600301908051906020019061214d929190614519565b50608082015181600401908051906020019061216a929190614519565b505050905050505050505050505050505050565b60006020528060005260406000206000915090508060000154908060010180546121a790615954565b80601f01602080910402602001604051908101604052809291908181526020018280546121d390615954565b80156122205780601f106121f557610100808354040283529160200191612220565b820191906000526020600020905b81548152906001019060200180831161220357829003601f168201915b50505050509080600201805461223590615954565b80601f016020809104026020016040519081016040528092919081815260200182805461226190615954565b80156122ae5780601f10612283576101008083540402835291602001916122ae565b820191906000526020600020905b81548152906001019060200180831161229157829003601f168201915b5050505050908060030154908060040180546122c990615954565b80601f01602080910402602001604051908101604052809291908181526020018280546122f590615954565b80156123425780601f1061231757610100808354040283529160200191612342565b820191906000526020600020905b81548152906001019060200180831161232557829003601f168201915b5050505050908060050160009054906101000a900473ffffffffffffffffffffffffffffffffffffffff16908060080154908060090160009054906101000a900460ff16908060090160019054906101000a900460ff169080600a016040518060a00160405290816000820180546123b990615954565b80601f01602080910402602001604051908101604052809291908181526020018280546123e590615954565b80156124325780601f1061240757610100808354040283529160200191612432565b820191906000526020600020905b81548152906001019060200180831161241557829003601f168201915b5050505050815260200160018201805461244b90615954565b80601f016020809104026020016040519081016040528092919081815260200182805461247790615954565b80156124c45780601f10612499576101008083540402835291602001916124c4565b820191906000526020600020905b8154815290600101906020018083116124a757829003601f168201915b505050505081526020016002820180546124dd90615954565b80601f016020809104026020016040519081016040528092919081815260200182805461250990615954565b80156125565780601f1061252b57610100808354040283529160200191612556565b820191906000526020600020905b81548152906001019060200180831161253957829003601f168201915b5050505050815260200160038201805461256f90615954565b80601f016020809104026020016040519081016040528092919081815260200182805461259b90615954565b80156125e85780601f106125bd576101008083540402835291602001916125e8565b820191906000526020600020905b8154815290600101906020018083116125cb57829003601f168201915b5050505050815260200160048201805461260190615954565b80601f016020809104026020016040519081016040528092919081815260200182805461262d90615954565b801561267a5780601f1061264f5761010080835404028352916020019161267a565b820191906000526020600020905b81548152906001019060200180831161265d57829003601f168201915b50505050508152505090508a565b8060008084815260200190815260200160002060080154146126df576040517f08c379a00000000000000000000000000000000000000000000000000000000081526004016126d6906152c1565b60405180910390fd5b8060008084815260200190815260200160002060080181905550600360008084815260200190815260200160002060090160006101000a81548160ff02191690836005811115612758577f4e487b7100000000000000000000000000000000000000000000000000000000600052602160045260246000fd5b0217905550600160008281526020019081526020016000206001018290806001815401808255809150506001900390600052602060002001600090919091909150555050565b60086020528060005260406000206000915090505481565b60008260008060008381526020019081526020016000206000015414156127dc57600080fd5b60006005600085815260200190815260200160002090506000601e603c80601885600701544261280c9190615827565b612816919061579c565b61282091906157cd565b61282a91906157cd565b61283491906157cd565b90506000811161284357600080fd5b600082600201549050600083600401549050600084600501549050600081600c61286d91906157cd565b600c60648561287c919061579c565b61288691906157cd565b60016128929190615746565b8561289d91906157cd565b1890508086600201546128b09190615827565b86600201819055508097505050505050505092915050565b60028280516020810182018051848252602083016020850120818352809550505050505081815481106128fa57600080fd5b90600052602060002001600091509150505481565b82600080600083815260200190815260200160002060000154141561293357600080fd5b600061293f85856127b6565b905082811461294d57600080fd5b60006005600086815260200190815260200160002090503073ffffffffffffffffffffffffffffffffffffffff166108fc859081150290604051600060405180830381858888f193505050501580156129aa573d6000803e3d6000fd5b5083600160008360030154815260200190815260200160002060090160008282546129d59190615746565b92505081905550428160070181905550505050505050565b6129f56145ec565b600360008381526020019081526020016000206040518060c001604052908160008201548152602001600182018054612a2d90615954565b80601f0160208091040260200160405190810160405280929190818152602001828054612a5990615954565b8015612aa65780601f10612a7b57610100808354040283529160200191612aa6565b820191906000526020600020905b815481529060010190602001808311612a8957829003601f168201915b505050505081526020016002820160009054906101000a900473ffffffffffffffffffffffffffffffffffffffff1673ffffffffffffffffffffffffffffffffffffffff1673ffffffffffffffffffffffffffffffffffffffff168152602001600382018054612b1590615954565b80601f0160208091040260200160405190810160405280929190818152602001828054612b4190615954565b8015612b8e5780601f10612b6357610100808354040283529160200191612b8e565b820191906000526020600020905b815481529060010190602001808311612b7157829003601f168201915b505050505081526020016004820154815260200160058201805480602002602001604051908101604052809291908181526020018280548015612bf057602002820191906000526020600020905b815481526020019060010190808311612bdc575b5050505050815250509050919050565b8060008084815260200190815260200160002060090160006101000a81548160ff02191690836005811115612c5e577f4e487b7100000000000000000000000000000000000000000000000000000000600052602160045260246000fd5b02179055505050565b6000600d54905090565b60096020528060005260406000206000915090505481565b6000600c54905090565b600082600060016000838152602001908152602001600020600001541415612cba57600080fd5b60006005600085815260200190815260200160002090506000601e603c806018856007015442612cea9190615827565b612cf4919061579c565b612cfe91906157cd565b612d0891906157cd565b612d1291906157cd565b905060008111612d2157600080fd5b600082600201549050600083600401549050600084600501549050600081600c612d4b91906157cd565b600c606485612d5a919061579c565b612d6491906157cd565b6001612d709190615746565b85612d7b91906157cd565b189050808660020154612d8e9190615827565b86600201819055508097505050505050505092915050565b80600060036000838152602001908152602001600020600001541415612dcb57600080fd5b60006007600085815260200190815260200160002060040160006101000a81548160ff02191690836003811115612e2b577f4e487b7100000000000000000000000000000000000000000000000000000000600052602160045260246000fd5b0217905550505050565b82600060016000838152602001908152602001600020600001541415612e5a57600080fd5b6000612e668585612c93565b9050828114612e7457600080fd5b60006005600086815260200190815260200160002090503073ffffffffffffffffffffffffffffffffffffffff166108fc859081150290604051600060405180830381858888f19350505050158015612ed1573d6000803e3d6000fd5b508360016000836003015481526020019081526020016000206009016000828254612efc9190615746565b92505081905550428160070181905550505050505050565b6006602052806000526040600020600091509050806000015490806001015490806002015490806003018054612f4990615954565b80601f0160208091040260200160405190810160405280929190818152602001828054612f7590615954565b8015612fc25780601f10612f9757610100808354040283529160200191612fc2565b820191906000526020600020905b815481529060010190602001808311612fa557829003601f168201915b5050505050908060040154908060050160009054906101000a900460ff16908060060154905087565b6060600282604051612ffd919061520d565b908152602001604051809103902080548060200260200160405190810160405280929190818152602001828054801561305557602002820191906000526020600020905b815481526020019060010190808311613041575b50505050509050919050565b6002600581111561309b577f4e487b7100000000000000000000000000000000000000000000000000000000600052602160045260246000fd5b600080600460003373ffffffffffffffffffffffffffffffffffffffff1673ffffffffffffffffffffffffffffffffffffffff16815260200190815260200160002054815260200190815260200160002060090160009054906101000a900460ff166005811115613135577f4e487b7100000000000000000000000000000000000000000000000000000000600052602160045260246000fd5b14613175576040517f08c379a000000000000000000000000000000000000000000000000000000000815260040161316c90615301565b60405180910390fd5b600060038111156131af577f4e487b7100000000000000000000000000000000000000000000000000000000600052602160045260246000fd5b6006600083815260200190815260200160002060050160009054906101000a900460ff16600381111561320b577f4e487b7100000000000000000000000000000000000000000000000000000000600052602160045260246000fd5b1461324b576040517f08c379a0000000000000000000000000000000000000000000000000000000008152600401613242906152e1565b60405180910390fd5b600060066000838152602001908152602001600020905060018160050160006101000a81548160ff021916908360038111156132b0577f4e487b7100000000000000000000000000000000000000000000000000000000600052602160045260246000fd5b021790555060006040518061010001604052806011600081546132d2906159b7565b91905081905581526020018360040154815260200183600201548152602001836001015481526020016001600085600401548152602001908152602001600020600e01548152602001836006015481526020014281526020016000815250905080600560006011548152602001908152602001600020600082015181600001556020820151816001015560408201518160020155606082015181600301556080820151816004015560a0820151816005015560c0820151816006015560e082015181600701559050506001600083600401548152602001908152602001600020600b0160115490806001815401808255809150506001900390600052602060002001600090919091909150556000808360010154815260200190815260200160002060060160115490806001815401808255809150506001900390600052602060002001600090919091909150558160020154600160008460040154815260200190815260200160002060090154101561344b57600080fd5b6000808360010154815260200190815260200160002060050160009054906101000a900473ffffffffffffffffffffffffffffffffffffffff1673ffffffffffffffffffffffffffffffffffffffff166108fc83600201549081150290604051600060405180830381858888f193505050501580156134ce573d6000803e3d6000fd5b508160020154600160008460040154815260200190815260200160002060090160008282546134fd9190615827565b92505081905550505050565b600060016000838152602001908152602001600020905061357c8160010180548060200260200160405190810160405280929190818152602001828054801561357157602002820191906000526020600020905b81548152602001906001019080831161355d575b5050505050836142df565b6135bb576040517f08c379a00000000000000000000000000000000000000000000000000000000081526004016135b2906152a1565b60405180910390fd5b60006136198260010180548060200260200160405190810160405280929190818152602001828054801561360e57602002820191906000526020600020905b8154815260200190600101908083116135fa575b50505050508561436d565b905060006136798360010180548060200260200160405190810160405280929190818152602001828054801561366e57602002820191906000526020600020905b81548152602001906001019080831161365a575b5050505050836143ee565b90508083600101908051906020019061369392919061459f565b505050505050565b6060600160008381526020019081526020016000206001018054806020026020016040519081016040528092919081815260200182805480156136fd57602002820191906000526020600020905b8154815260200190600101908083116136e9575b50505050509050919050565b60003373ffffffffffffffffffffffffffffffffffffffff16600080600460003373ffffffffffffffffffffffffffffffffffffffff1673ffffffffffffffffffffffffffffffffffffffff16815260200190815260200160002054815260200190815260200160002060050160009054906101000a900473ffffffffffffffffffffffffffffffffffffffff1673ffffffffffffffffffffffffffffffffffffffff1614905090565b60078b5110156137f8576040517f08c379a00000000000000000000000000000000000000000000000000000000081526004016137ef90615261565b60405180910390fd5b6000600d60008154613809906159b7565b919050819055905060006040518060a001604052808a81526020018981526020018881526020018781526020018681525090506040518061016001604052808381526020018e81526020018b81526020018281526020018581526020016000815260200160008152602001600067ffffffffffffffff8111156138b5577f4e487b7100000000000000000000000000000000000000000000000000000000600052604160045260246000fd5b6040519080825280602002602001820160405280156138e35781602001602082028036833780820191505090505b508152602001600067ffffffffffffffff81111561392a577f4e487b7100000000000000000000000000000000000000000000000000000000600052604160045260246000fd5b6040519080825280602002602001820160405280156139585781602001602082028036833780820191505090505b508152602001600067ffffffffffffffff81111561399f577f4e487b7100000000000000000000000000000000000000000000000000000000600052604160045260246000fd5b6040519080825280602002602001820160405280156139cd5781602001602082028036833780820191505090505b5081526020018481525060016000848152602001908152602001600020600082015181600001556020820151816001019080519060200190613a1092919061459f565b506040820151816002019080519060200190613a2d929190614519565b506060820151816003016000820151816000019080519060200190613a53929190614519565b506020820151816001019080519060200190613a70929190614519565b506040820151816002019080519060200190613a8d929190614519565b506060820151816003019080519060200190613aaa929190614519565b506080820151816004019080519060200190613ac7929190614519565b5050506080820151816008019080519060200190613ae6929190614519565b5060a0820151816009015560c082015181600a015560e082015181600b019080519060200190613b1792919061459f565b5061010082015181600c019080519060200190613b3592919061459f565b5061012082015181600d019080519060200190613b5392919061459f565b5061014082015181600e015590505060005b8d51811015613d805760008e8281518110613ba9577f4e487b7100000000000000000000000000000000000000000000000000000000600052603260045260246000fd5b60200260200101519050600360008083815260200190815260200160002060090160006101000a81548160ff02191690836005811115613c12577f4e487b7100000000000000000000000000000000000000000000000000000000600052602160045260246000fd5b02179055508d811415613c8457600080600083815260200190815260200160002060090160006101000a81548160ff02191690836005811115613c7e577f4e487b7100000000000000000000000000000000000000000000000000000000600052602160045260246000fd5b02179055505b8c811415613cf157600260008083815260200190815260200160002060090160006101000a81548160ff02191690836005811115613ceb577f4e487b7100000000000000000000000000000000000000000000000000000000600052602160045260246000fd5b02179055505b600d546008600080600085815260200190815260200160002060050160009054906101000a900473ffffffffffffffffffffffffffffffffffffffff1673ffffffffffffffffffffffffffffffffffffffff1673ffffffffffffffffffffffffffffffffffffffff16815260200190815260200160002081905550508080613d78906159b7565b915050613b65565b50600288604051613d91919061520d565b908152602001604051809103902082908060018154018082558091505060019003906000526020600020016000909190919091505550505050505050505050505050565b6060816000806000838152602001908152602001600020600001541415613dfb57600080fd5b600080848152602001908152602001600020600601805480602002602001604051908101604052809291908181526020018280548015613e5a57602002820191906000526020600020905b815481526020019060010190808311613e46575b5050505050915050919050565b606060005b600f54811015613ee2578260076000838152602001908152602001600020600101541415613ecf57600b60008481526020019081526020016000208190806001815401808255809150506001900390600052602060002001600090919091909150555b8080613eda906159b7565b915050613e6c565b50600b6000838152602001908152602001600020805480602002602001604051908101604052809291908181526020018280548015613f4057602002820191906000526020600020905b815481526020019060010190808311613f2c575b50505050509050919050565b81600060036000838152602001908152602001600020600001541415613f7157600080fd5b3073ffffffffffffffffffffffffffffffffffffffff166108fc839081150290604051600060405180830381858888f19350505050158015613fb7573d6000803e3d6000fd5b5060016007600086815260200190815260200160002060040160006101000a81548160ff02191690836003811115614018577f4e487b7100000000000000000000000000000000000000000000000000000000600052602160045260246000fd5b021790555081600160006007600088815260200190815260200160002060010154815260200190815260200160002060090160008282546140599190615746565b9250508190555050505050565b60056020528060005260406000206000915090508060000154908060010154908060020154908060030154908060040154908060050154908060060154908060070154905088565b60046020528060005260406000206000915090505481565b600b60205281600052604060002081815481106140e257600080fd5b90600052602060002001600091509150505481565b81600080600083815260200190815260200160002060000154141561411b57600080fd5b8260066000848152602001908152602001600020600101541461413d57600080fd5b600080600090505b600e5481101561418857846006600083815260200190815260200160002060010154141561417557809150614188565b8080614180906159b7565b915050614145565b5060066000828152602001908152602001600020600080820160009055600182016000905560028201600090556003820160006141c59190614638565b60048201600090556005820160006101000a81549060ff021916905560068201600090556007820160006141f99190614678565b505050505050565b60008060066000848152602001908152602001600020600701905060005b81805490508110156142d357600460003373ffffffffffffffffffffffffffffffffffffffff1673ffffffffffffffffffffffffffffffffffffffff168152602001908152602001600020548282815481106142a4577f4e487b7100000000000000000000000000000000000000000000000000000000600052603260045260246000fd5b906000526020600020015414156142c0576000925050506142da565b80806142cb906159b7565b91505061421f565b5060019150505b919050565b600080600090505b600184516142f59190615827565b8110156143615782848281518110614336577f4e487b7100000000000000000000000000000000000000000000000000000000600052603260045260246000fd5b6020026020010151141561434e576001915050614367565b8080614359906159b7565b9150506142e7565b50600090505b92915050565b600080600090505b83518110156143e257828482815181106143b8577f4e487b7100000000000000000000000000000000000000000000000000000000600052603260045260246000fd5b602002602001015114156143cf57809150506143e8565b80806143da906159b7565b915050614375565b50600090505b92915050565b6060825182106143fd57600080fd5b60008290505b600184516144119190615827565b8110156144bd57836001826144269190615746565b8151811061445d577f4e487b7100000000000000000000000000000000000000000000000000000000600052603260045260246000fd5b602002602001015184828151811061449e577f4e487b7100000000000000000000000000000000000000000000000000000000600052603260045260246000fd5b60200260200101818152505080806144b5906159b7565b915050614403565b5082600184516144cd9190615827565b81518110614504577f4e487b7100000000000000000000000000000000000000000000000000000000600052603260045260246000fd5b60200260200101600081525082905092915050565b82805461452590615954565b90600052602060002090601f016020900481019282614547576000855561458e565b82601f1061456057805160ff191683800117855561458e565b8280016001018555821561458e579182015b8281111561458d578251825591602001919060010190614572565b5b50905061459b9190614699565b5090565b8280548282559060005260206000209081019282156145db579160200282015b828111156145da5782518255916020019190600101906145bf565b5b5090506145e89190614699565b5090565b6040518060c001604052806000815260200160608152602001600073ffffffffffffffffffffffffffffffffffffffff1681526020016060815260200160008152602001606081525090565b50805461464490615954565b6000825580601f106146565750614675565b601f0160209004906000526020600020908101906146749190614699565b5b50565b50805460008255906000526020600020908101906146969190614699565b50565b5b808211156146b257600081600090555060010161469a565b5090565b60006146c96146c484615667565b615642565b905080838252602082019050828560208602820111156146e857600080fd5b60005b8581101561471857816146fe88826147f3565b8452602084019350602083019250506001810190506146eb565b5050509392505050565b600061473561473084615693565b615642565b90508281526020810184848401111561474d57600080fd5b614758848285615912565b509392505050565b60008135905061476f81615c54565b92915050565b600082601f83011261478657600080fd5b81356147968482602086016146b6565b91505092915050565b6000813590506147ae81615c6b565b92915050565b6000813590506147c381615c7b565b92915050565b600082601f8301126147da57600080fd5b81356147ea848260208601614722565b91505092915050565b60008135905061480281615c8b565b92915050565b60006020828403121561481a57600080fd5b600061482884828501614760565b91505092915050565b60008060008060008060008060008060006101608c8e03121561485357600080fd5b60008c013567ffffffffffffffff81111561486d57600080fd5b6148798e828f01614775565b9b5050602061488a8e828f016147f3565b9a5050604061489b8e828f016147f3565b99505060608c013567ffffffffffffffff8111156148b857600080fd5b6148c48e828f016147c9565b98505060808c013567ffffffffffffffff8111156148e157600080fd5b6148ed8e828f016147c9565b97505060a08c013567ffffffffffffffff81111561490a57600080fd5b6149168e828f016147c9565b96505060c08c013567ffffffffffffffff81111561493357600080fd5b61493f8e828f016147c9565b95505060e08c013567ffffffffffffffff81111561495c57600080fd5b6149688e828f016147c9565b9450506101008c013567ffffffffffffffff81111561498657600080fd5b6149928e828f016147c9565b9350506101208c013567ffffffffffffffff8111156149b057600080fd5b6149bc8e828f016147c9565b9250506101406149ce8e828f016147f3565b9150509295989b509295989b9093969950565b6000602082840312156149f357600080fd5b600082013567ffffffffffffffff811115614a0d57600080fd5b614a19848285016147c9565b91505092915050565b60008060008060808587031215614a3857600080fd5b600085013567ffffffffffffffff811115614a5257600080fd5b614a5e878288016147c9565b9450506020614a6f87828801614760565b935050604085013567ffffffffffffffff811115614a8c57600080fd5b614a98878288016147c9565b9250506060614aa9878288016147f3565b91505092959194509250565b6000806000806000806000806000806101408b8d031215614ad557600080fd5b60008b013567ffffffffffffffff811115614aef57600080fd5b614afb8d828e016147c9565b9a505060208b013567ffffffffffffffff811115614b1857600080fd5b614b248d828e016147c9565b9950506040614b358d828e016147f3565b98505060608b013567ffffffffffffffff811115614b5257600080fd5b614b5e8d828e016147c9565b9750506080614b6f8d828e0161479f565b96505060a08b013567ffffffffffffffff811115614b8c57600080fd5b614b988d828e016147c9565b95505060c08b013567ffffffffffffffff811115614bb557600080fd5b614bc18d828e016147c9565b94505060e08b013567ffffffffffffffff811115614bde57600080fd5b614bea8d828e016147c9565b9350506101008b013567ffffffffffffffff811115614c0857600080fd5b614c148d828e016147c9565b9250506101208b013567ffffffffffffffff811115614c3257600080fd5b614c3e8d828e016147c9565b9150509295989b9194979a5092959850565b60008060408385031215614c6357600080fd5b600083013567ffffffffffffffff811115614c7d57600080fd5b614c89858286016147c9565b9250506020614c9a858286016147f3565b9150509250929050565b600060208284031215614cb657600080fd5b6000614cc4848285016147f3565b91505092915050565b60008060408385031215614ce057600080fd5b6000614cee858286016147f3565b9250506020614cff858286016147b4565b9150509250929050565b60008060408385031215614d1c57600080fd5b6000614d2a858286016147f3565b9250506020614d3b858286016147f3565b9150509250929050565b600080600060608486031215614d5a57600080fd5b6000614d68868287016147f3565b9350506020614d79868287016147f3565b9250506040614d8a868287016147f3565b9150509250925092565b600080600080600060a08688031215614dac57600080fd5b6000614dba888289016147f3565b9550506020614dcb888289016147f3565b9450506040614ddc888289016147f3565b935050606086013567ffffffffffffffff811115614df957600080fd5b614e05888289016147c9565b9250506080614e16888289016147f3565b9150509295509295909350565b6000614e2f83836151ef565b60208301905092915050565b614e448161585b565b82525050565b614e538161585b565b82525050565b6000614e64826156d4565b614e6e81856156f7565b9350614e79836156c4565b8060005b83811015614eaa578151614e918882614e23565b9750614e9c836156ea565b925050600181019050614e7d565b5085935050505092915050565b6000614ec2826156d4565b614ecc8185615708565b9350614ed7836156c4565b8060005b83811015614f08578151614eef8882614e23565b9750614efa836156ea565b925050600181019050614edb565b5085935050505092915050565b614f1e8161586d565b82525050565b614f2d816158dc565b82525050565b614f3c816158ee565b82525050565b614f4b81615900565b82525050565b6000614f5c826156df565b614f668185615719565b9350614f76818560208601615921565b614f7f81615aeb565b840191505092915050565b6000614f95826156df565b614f9f818561572a565b9350614faf818560208601615921565b614fb881615aeb565b840191505092915050565b6000614fce826156df565b614fd8818561573b565b9350614fe8818560208601615921565b80840191505092915050565b6000615001601a8361572a565b915061500c82615afc565b602082019050919050565b600061502460128361572a565b915061502f82615b25565b602082019050919050565b600061504760258361572a565b915061505282615b4e565b604082019050919050565b600061506a60128361572a565b915061507582615b9d565b602082019050919050565b600061508d60128361572a565b915061509882615bc6565b602082019050919050565b60006150b060138361572a565b91506150bb82615bef565b602082019050919050565b600060c0830160008301516150de60008601826151ef565b50602083015184820360208601526150f68282614f51565b915050604083015161510b6040860182614e3b565b50606083015184820360608601526151238282614f51565b915050608083015161513860808601826151ef565b5060a083015184820360a08601526151508282614e59565b9150508091505092915050565b600060a083016000830151848203600086015261517a8282614f51565b915050602083015184820360208601526151948282614f51565b915050604083015184820360408601526151ae8282614f51565b915050606083015184820360608601526151c88282614f51565b915050608083015184820360808601526151e28282614f51565b9150508091505092915050565b6151f8816158d2565b82525050565b615207816158d2565b82525050565b60006152198284614fc3565b915081905092915050565b6000602082019050818103600083015261523e8184614eb7565b905092915050565b600060208201905061525b6000830184614f15565b92915050565b6000602082019050818103600083015261527a81614ff4565b9050919050565b6000602082019050818103600083015261529a81615017565b9050919050565b600060208201905081810360008301526152ba8161503a565b9050919050565b600060208201905081810360008301526152da8161505d565b9050919050565b600060208201905081810360008301526152fa81615080565b9050919050565b6000602082019050818103600083015261531a816150a3565b9050919050565b6000602082019050818103600083015261533b81846150c6565b905092915050565b600060208201905061535860008301846151fe565b92915050565b600060a08201905061537360008301886151fe565b81810360208301526153858187614f8a565b90506153946040830186614e4a565b81810360608301526153a68185614f8a565b90506153b560808301846151fe565b9695505050505050565b6000610140820190506153d5600083018d6151fe565b81810360208301526153e7818c614f8a565b905081810360408301526153fb818b614f8a565b905061540a606083018a6151fe565b818103608083015261541c8189614f8a565b905061542b60a0830188614e4a565b61543860c08301876151fe565b61544560e0830186614f42565b615453610100830185614f24565b818103610120830152615466818461515d565b90509b9a5050505050505050505050565b600060e08201905061548c600083018a6151fe565b818103602083015261549e8189614f8a565b905081810360408301526154b2818861515d565b905081810360608301526154c68187614f8a565b90506154d560808301866151fe565b6154e260a08301856151fe565b6154ef60c08301846151fe565b98975050505050505050565b600060e082019050615510600083018a6151fe565b61551d60208301896151fe565b61552a60408301886151fe565b818103606083015261553c8187614f8a565b905061554b60808301866151fe565b61555860a0830185614f33565b61556560c08301846151fe565b98975050505050505050565b600060a08201905061558660008301886151fe565b61559360208301876151fe565b6155a060408301866151fe565b6155ad60608301856151fe565b6155ba6080830184614f33565b9695505050505050565b6000610100820190506155da600083018b6151fe565b6155e7602083018a6151fe565b6155f460408301896151fe565b61560160608301886151fe565b61560e60808301876151fe565b61561b60a08301866151fe565b61562860c08301856151fe565b61563560e08301846151fe565b9998505050505050505050565b600061564c61565d565b90506156588282615986565b919050565b6000604051905090565b600067ffffffffffffffff82111561568257615681615abc565b5b602082029050602081019050919050565b600067ffffffffffffffff8211156156ae576156ad615abc565b5b6156b782615aeb565b9050602081019050919050565b6000819050602082019050919050565b600081519050919050565b600081519050919050565b6000602082019050919050565b600082825260208201905092915050565b600082825260208201905092915050565b600082825260208201905092915050565b600082825260208201905092915050565b600081905092915050565b6000615751826158d2565b915061575c836158d2565b9250827fffffffffffffffffffffffffffffffffffffffffffffffffffffffffffffffff0382111561579157615790615a00565b5b828201905092915050565b60006157a7826158d2565b91506157b2836158d2565b9250826157c2576157c1615a2f565b5b828204905092915050565b60006157d8826158d2565b91506157e3836158d2565b9250817fffffffffffffffffffffffffffffffffffffffffffffffffffffffffffffffff048311821515161561581c5761581b615a00565b5b828202905092915050565b6000615832826158d2565b915061583d836158d2565b9250828210156158505761584f615a00565b5b828203905092915050565b6000615866826158b2565b9050919050565b60008115159050919050565b600081905061588782615c18565b919050565b600081905061589a82615c2c565b919050565b60008190506158ad82615c40565b919050565b600073ffffffffffffffffffffffffffffffffffffffff82169050919050565b6000819050919050565b60006158e782615879565b9050919050565b60006158f98261588c565b9050919050565b600061590b8261589f565b9050919050565b82818337600083830152505050565b60005b8381101561593f578082015181840152602081019050615924565b8381111561594e576000848401525b50505050565b6000600282049050600182168061596c57607f821691505b602082108114156159805761597f615a8d565b5b50919050565b61598f82615aeb565b810181811067ffffffffffffffff821117156159ae576159ad615abc565b5b80604052505050565b60006159c2826158d2565b91507fffffffffffffffffffffffffffffffffffffffffffffffffffffffffffffffff8214156159f5576159f4615a00565b5b600182019050919050565b7f4e487b7100000000000000000000000000000000000000000000000000000000600052601160045260246000fd5b7f4e487b7100000000000000000000000000000000000000000000000000000000600052601260045260246000fd5b7f4e487b7100000000000000000000000000000000000000000000000000000000600052602160045260246000fd5b7f4e487b7100000000000000000000000000000000000000000000000000000000600052602260045260246000fd5b7f4e487b7100000000000000000000000000000000000000000000000000000000600052604160045260246000fd5b6000601f19601f8301169050919050565b7f41746c656173742037206d656d62657273207265717569726564000000000000600082015250565b7f416c726561647920526567697374657265640000000000000000000000000000600082015250565b7f5573657220697320616c7265616479206e6f7420612070617274206f6620746860008201527f6520534847000000000000000000000000000000000000000000000000000000602082015250565b7f5573657220616c72656164792061646465640000000000000000000000000000600082015250565b7f556e617070726f76656420726571756573740000000000000000000000000000600082015250565b7f556e617574686f72697a65642072657165737400000000000000000000000000600082015250565b60038110615c2957615c28615a5e565b5b50565b60048110615c3d57615c3c615a5e565b5b50565b60068110615c5157615c50615a5e565b5b50565b615c5d8161585b565b8114615c6857600080fd5b50565b60038110615c7857600080fd5b50565b60068110615c8857600080fd5b50565b615c94816158d2565b8114615c9f57600080fd5b5056fea2646970667358221220d6733e875d80173149218275ad13c692d53a4c9b70aea7c00b8139bd4677692464736f6c63430008040033",
  "immutableReferences": {},
  "source": "// SPDX-License-Identifier: MIT\npragma solidity ^0.8.1;\nimport \"./lib/Bank.sol\";\nimport \"./lib/SHG.sol\";\nimport \"./lib/User.sol\";\n\ncontract Yogdaan is Bank, SHG, User {\n    address admin;\n\n    constructor() {\n        admin = msg.sender;\n    }\n}\n",
  "sourcePath": "/home/sdas/code/yogdaan-contracts/contracts/yogdaan.sol",
  "compiler": {
    "name": "solc",
    "version": "0.8.4+commit.c7e474f2.Emscripten.clang"
  },
  "schemaVersion": "3.4.9",
  "updatedAt": "2022-08-26T02:38:01.525Z",
  "networkType": "ethereum",
  "devdoc": {
    "kind": "dev",
    "methods": {},
    "version": 1
  },
  "userdoc": {
    "kind": "user",
    "methods": {},
    "version": 1
  }
}