{
  "contractName": "Yogdaan",
  "abi": [
    {
      "inputs": [],
      "stateMutability": "nonpayable",
      "type": "constructor"
    },
    {
      "inputs": [
        {
          "internalType": "string",
          "name": "_name",
          "type": "string"
        },
        {
          "internalType": "address",
          "name": "_walletAddress",
          "type": "address"
        },
        {
          "internalType": "string",
          "name": "_code",
          "type": "string"
        },
        {
          "internalType": "uint256",
          "name": "_intrestRate",
          "type": "uint256"
        }
      ],
      "name": "addBank",
      "outputs": [],
      "stateMutability": "nonpayable",
      "type": "function"
    },
    {
      "inputs": [
        {
          "internalType": "uint256[]",
          "name": "members",
          "type": "uint256[]"
        },
        {
          "internalType": "uint256",
          "name": "president",
          "type": "uint256"
        },
        {
          "internalType": "uint256",
          "name": "treasurer",
          "type": "uint256"
        },
        {
          "internalType": "string",
          "name": "name",
          "type": "string"
        },
        {
          "components": [
            {
              "internalType": "string",
              "name": "state",
              "type": "string"
            },
            {
              "internalType": "string",
              "name": "district",
              "type": "string"
            },
            {
              "internalType": "string",
              "name": "blockName",
              "type": "string"
            },
            {
              "internalType": "string",
              "name": "panchyatName",
              "type": "string"
            },
            {
              "internalType": "string",
              "name": "villageName",
              "type": "string"
            }
          ],
          "internalType": "struct structs.Location",
          "name": "location",
          "type": "tuple"
        },
        {
          "internalType": "string",
          "name": "dateOfFormation",
          "type": "string"
        },
        {
          "internalType": "uint256",
          "name": "_baseIntrest",
          "type": "uint256"
        }
      ],
      "name": "addSHG",
      "outputs": [],
      "stateMutability": "nonpayable",
      "type": "function"
    },
    {
      "inputs": [
        {
          "internalType": "uint256",
          "name": "userid",
          "type": "uint256"
        },
        {
          "internalType": "uint256",
          "name": "shg",
          "type": "uint256"
        }
      ],
      "name": "addSHGMember",
      "outputs": [],
      "stateMutability": "nonpayable",
      "type": "function"
    },
    {
      "inputs": [
        {
          "internalType": "string",
          "name": "name",
          "type": "string"
        },
        {
          "internalType": "string",
          "name": "aadhar",
          "type": "string"
        },
        {
          "internalType": "uint256",
          "name": "mobno",
          "type": "uint256"
        },
        {
          "internalType": "string",
          "name": "fatherName",
          "type": "string"
        },
        {
          "internalType": "enum structs.Gender",
          "name": "gender",
          "type": "uint8"
        },
        {
          "internalType": "string",
          "name": "_state",
          "type": "string"
        },
        {
          "internalType": "string",
          "name": "_district",
          "type": "string"
        },
        {
          "internalType": "string",
          "name": "_blockName",
          "type": "string"
        },
        {
          "internalType": "string",
          "name": "_panchyatName",
          "type": "string"
        },
        {
          "internalType": "string",
          "name": "_villageName",
          "type": "string"
        }
      ],
      "name": "addUser",
      "outputs": [],
      "stateMutability": "nonpayable",
      "type": "function"
    },
    {
      "inputs": [
        {
          "internalType": "address",
          "name": "",
          "type": "address"
        }
      ],
      "name": "addressToBankid",
      "outputs": [
        {
          "internalType": "uint256",
          "name": "",
          "type": "uint256"
        }
      ],
      "stateMutability": "view",
      "type": "function",
      "constant": true
    },
    {
      "inputs": [
        {
          "internalType": "address",
          "name": "",
          "type": "address"
        }
      ],
      "name": "addressToSHGid",
      "outputs": [
        {
          "internalType": "uint256",
          "name": "",
          "type": "uint256"
        }
      ],
      "stateMutability": "view",
      "type": "function",
      "constant": true
    },
    {
      "inputs": [
        {
          "internalType": "address",
          "name": "",
          "type": "address"
        }
      ],
      "name": "addressToUser",
      "outputs": [
        {
          "internalType": "uint256",
          "name": "",
          "type": "uint256"
        }
      ],
      "stateMutability": "view",
      "type": "function",
      "constant": true
    },
    {
      "inputs": [
        {
          "internalType": "uint256",
          "name": "_shgrequestid",
          "type": "uint256"
        },
        {
          "internalType": "uint256",
          "name": "_bankid",
          "type": "uint256"
        }
      ],
      "name": "approveLoan",
      "outputs": [],
      "stateMutability": "nonpayable",
      "type": "function"
    },
    {
      "inputs": [
        {
          "internalType": "uint256",
          "name": "_requestid",
          "type": "uint256"
        },
        {
          "internalType": "uint256",
          "name": "_shgid",
          "type": "uint256"
        }
      ],
      "name": "approveRequest",
      "outputs": [],
      "stateMutability": "nonpayable",
      "type": "function"
    },
    {
      "inputs": [
        {
          "internalType": "uint256",
          "name": "",
          "type": "uint256"
        }
      ],
      "name": "banks",
      "outputs": [
        {
          "internalType": "uint256",
          "name": "id",
          "type": "uint256"
        },
        {
          "internalType": "string",
          "name": "name",
          "type": "string"
        },
        {
          "internalType": "address",
          "name": "walletAddress",
          "type": "address"
        },
        {
          "internalType": "string",
          "name": "code",
          "type": "string"
        },
        {
          "internalType": "uint256",
          "name": "intrestRate",
          "type": "uint256"
        }
      ],
      "stateMutability": "view",
      "type": "function",
      "constant": true
    },
    {
      "inputs": [
        {
          "internalType": "uint256",
          "name": "_userid",
          "type": "uint256"
        },
        {
          "internalType": "uint256",
          "name": "_requestid",
          "type": "uint256"
        }
      ],
      "name": "deleteRequest",
      "outputs": [],
      "stateMutability": "nonpayable",
      "type": "function"
    },
    {
      "inputs": [
        {
          "internalType": "uint256",
          "name": "userid",
          "type": "uint256"
        }
      ],
      "name": "getAllLoans",
      "outputs": [
        {
          "internalType": "uint256[]",
          "name": "",
          "type": "uint256[]"
        }
      ],
      "stateMutability": "view",
      "type": "function",
      "constant": true
    },
    {
      "inputs": [
        {
          "internalType": "uint256",
          "name": "_shgid",
          "type": "uint256"
        },
        {
          "internalType": "uint256",
          "name": "_loanid",
          "type": "uint256"
        }
      ],
      "name": "getSHGEMI",
      "outputs": [
        {
          "internalType": "uint256",
          "name": "",
          "type": "uint256"
        }
      ],
      "stateMutability": "nonpayable",
      "type": "function"
    },
    {
      "inputs": [
        {
          "internalType": "uint256",
          "name": "shgid",
          "type": "uint256"
        }
      ],
      "name": "getSHGMembers",
      "outputs": [
        {
          "internalType": "uint256[]",
          "name": "",
          "type": "uint256[]"
        }
      ],
      "stateMutability": "view",
      "type": "function",
      "constant": true
    },
    {
      "inputs": [
        {
          "internalType": "uint256",
          "name": "userid",
          "type": "uint256"
        },
        {
          "internalType": "uint256",
          "name": "loanid",
          "type": "uint256"
        }
      ],
      "name": "getUserEMI",
      "outputs": [
        {
          "internalType": "uint256",
          "name": "",
          "type": "uint256"
        }
      ],
      "stateMutability": "nonpayable",
      "type": "function"
    },
    {
      "inputs": [
        {
          "internalType": "uint256",
          "name": "_shgrequestid",
          "type": "uint256"
        },
        {
          "internalType": "uint256",
          "name": "_bankid",
          "type": "uint256"
        },
        {
          "internalType": "uint256",
          "name": "_amount",
          "type": "uint256"
        }
      ],
      "name": "grantLoan",
      "outputs": [],
      "stateMutability": "nonpayable",
      "type": "function"
    },
    {
      "inputs": [
        {
          "internalType": "uint256",
          "name": "",
          "type": "uint256"
        }
      ],
      "name": "loans",
      "outputs": [
        {
          "internalType": "uint256",
          "name": "loanId",
          "type": "uint256"
        },
        {
          "internalType": "uint256",
          "name": "lenderId",
          "type": "uint256"
        },
        {
          "internalType": "uint256",
          "name": "amount",
          "type": "uint256"
        },
        {
          "internalType": "uint256",
          "name": "lendeeId",
          "type": "uint256"
        },
        {
          "internalType": "uint256",
          "name": "intrest",
          "type": "uint256"
        },
        {
          "internalType": "uint256",
          "name": "loanTime",
          "type": "uint256"
        },
        {
          "internalType": "uint256",
          "name": "date",
          "type": "uint256"
        },
        {
          "internalType": "uint256",
          "name": "lastEMI",
          "type": "uint256"
        }
      ],
      "stateMutability": "view",
      "type": "function",
      "constant": true
    },
    {
      "inputs": [],
      "name": "login",
      "outputs": [
        {
          "internalType": "bool",
          "name": "",
          "type": "bool"
        }
      ],
      "stateMutability": "view",
      "type": "function",
      "constant": true
    },
    {
      "inputs": [
        {
          "internalType": "uint256",
          "name": "_shgid",
          "type": "uint256"
        },
        {
          "internalType": "uint256",
          "name": "_userid",
          "type": "uint256"
        },
        {
          "internalType": "uint256",
          "name": "_amount",
          "type": "uint256"
        },
        {
          "internalType": "string",
          "name": "_description",
          "type": "string"
        },
        {
          "internalType": "uint256",
          "name": "_loanTime",
          "type": "uint256"
        }
      ],
      "name": "makeRequest",
      "outputs": [],
      "stateMutability": "nonpayable",
      "type": "function"
    },
    {
      "inputs": [
        {
          "internalType": "uint256",
          "name": "_userid",
          "type": "uint256"
        },
        {
          "internalType": "uint256",
          "name": "_loanid",
          "type": "uint256"
        },
        {
          "internalType": "uint256",
          "name": "_amount",
          "type": "uint256"
        }
      ],
      "name": "payEMI",
      "outputs": [],
      "stateMutability": "payable",
      "type": "function",
      "payable": true
    },
    {
      "inputs": [
        {
          "internalType": "uint256",
          "name": "userid",
          "type": "uint256"
        },
        {
          "internalType": "uint256",
          "name": "shgid",
          "type": "uint256"
        }
      ],
      "name": "removeSHGMember",
      "outputs": [],
      "stateMutability": "nonpayable",
      "type": "function"
    },
    {
      "inputs": [
        {
          "internalType": "uint256",
          "name": "_requestid",
          "type": "uint256"
        }
      ],
      "name": "sendGrant",
      "outputs": [],
      "stateMutability": "nonpayable",
      "type": "function"
    },
    {
      "inputs": [
        {
          "internalType": "uint256",
          "name": "_shgid",
          "type": "uint256"
        },
        {
          "internalType": "uint256",
          "name": "_amount",
          "type": "uint256"
        },
        {
          "internalType": "uint256",
          "name": "_loanTime",
          "type": "uint256"
        }
      ],
      "name": "sendRequestToBank",
      "outputs": [],
      "stateMutability": "nonpayable",
      "type": "function"
    },
    {
      "inputs": [
        {
          "internalType": "uint256",
          "name": "_bankid",
          "type": "uint256"
        },
        {
          "internalType": "uint256",
          "name": "_requestid",
          "type": "uint256"
        },
        {
          "internalType": "uint256",
          "name": "_amount",
          "type": "uint256"
        }
      ],
      "name": "shgLoan",
      "outputs": [],
      "stateMutability": "payable",
      "type": "function",
      "payable": true
    },
    {
      "inputs": [
        {
          "internalType": "uint256",
          "name": "_shgid",
          "type": "uint256"
        },
        {
          "internalType": "uint256",
          "name": "_loanid",
          "type": "uint256"
        },
        {
          "internalType": "uint256",
          "name": "_amount",
          "type": "uint256"
        }
      ],
      "name": "shgPayEMI",
      "outputs": [],
      "stateMutability": "nonpayable",
      "type": "function"
    },
    {
      "inputs": [
        {
          "internalType": "uint256",
          "name": "",
          "type": "uint256"
        }
      ],
      "name": "shgRequests",
      "outputs": [
        {
          "internalType": "uint256",
          "name": "requestid",
          "type": "uint256"
        },
        {
          "internalType": "uint256",
          "name": "shgid",
          "type": "uint256"
        },
        {
          "internalType": "uint256",
          "name": "amount",
          "type": "uint256"
        },
        {
          "internalType": "uint256",
          "name": "loanTime",
          "type": "uint256"
        },
        {
          "internalType": "enum structs.RequestStatus",
          "name": "status",
          "type": "uint8"
        }
      ],
      "stateMutability": "view",
      "type": "function",
      "constant": true
    },
    {
      "inputs": [
        {
          "internalType": "uint256",
          "name": "",
          "type": "uint256"
        }
      ],
      "name": "shgs",
      "outputs": [
        {
          "internalType": "uint256",
          "name": "id",
          "type": "uint256"
        },
        {
          "internalType": "string",
          "name": "name",
          "type": "string"
        },
        {
          "components": [
            {
              "internalType": "string",
              "name": "state",
              "type": "string"
            },
            {
              "internalType": "string",
              "name": "district",
              "type": "string"
            },
            {
              "internalType": "string",
              "name": "blockName",
              "type": "string"
            },
            {
              "internalType": "string",
              "name": "panchyatName",
              "type": "string"
            },
            {
              "internalType": "string",
              "name": "villageName",
              "type": "string"
            }
          ],
          "internalType": "struct structs.Location",
          "name": "location",
          "type": "tuple"
        },
        {
          "internalType": "string",
          "name": "dateOfFormation",
          "type": "string"
        },
        {
          "internalType": "uint256",
          "name": "currentBalance",
          "type": "uint256"
        },
        {
          "internalType": "uint256",
          "name": "owedBalance",
          "type": "uint256"
        },
        {
          "internalType": "uint256",
          "name": "baseIntrest",
          "type": "uint256"
        }
      ],
      "stateMutability": "view",
      "type": "function",
      "constant": true
    },
    {
      "inputs": [
        {
          "internalType": "uint256",
          "name": "id",
          "type": "uint256"
        },
        {
          "internalType": "enum structs.UserType",
          "name": "updatedType",
          "type": "uint8"
        }
      ],
      "name": "updateMemberRole",
      "outputs": [],
      "stateMutability": "nonpayable",
      "type": "function"
    },
    {
      "inputs": [
        {
          "internalType": "uint256",
          "name": "",
          "type": "uint256"
        }
      ],
      "name": "userRequests",
      "outputs": [
        {
          "internalType": "uint256",
          "name": "requestId",
          "type": "uint256"
        },
        {
          "internalType": "uint256",
          "name": "userId",
          "type": "uint256"
        },
        {
          "internalType": "uint256",
          "name": "amount",
          "type": "uint256"
        },
        {
          "internalType": "string",
          "name": "description",
          "type": "string"
        },
        {
          "internalType": "uint256",
          "name": "SHGId",
          "type": "uint256"
        },
        {
          "internalType": "enum structs.RequestStatus",
          "name": "status",
          "type": "uint8"
        },
        {
          "internalType": "uint256",
          "name": "loanTime",
          "type": "uint256"
        }
      ],
      "stateMutability": "view",
      "type": "function",
      "constant": true
    },
    {
      "inputs": [
        {
          "internalType": "uint256",
          "name": "",
          "type": "uint256"
        }
      ],
      "name": "users",
      "outputs": [
        {
          "internalType": "uint256",
          "name": "id",
          "type": "uint256"
        },
        {
          "internalType": "string",
          "name": "name",
          "type": "string"
        },
        {
          "internalType": "string",
          "name": "aadhar",
          "type": "string"
        },
        {
          "internalType": "uint256",
          "name": "mobno",
          "type": "uint256"
        },
        {
          "internalType": "string",
          "name": "fatherName",
          "type": "string"
        },
        {
          "internalType": "address",
          "name": "walletAddress",
          "type": "address"
        },
        {
          "internalType": "uint256",
          "name": "amountTaken",
          "type": "uint256"
        },
        {
          "internalType": "uint256",
          "name": "shgid",
          "type": "uint256"
        },
        {
          "internalType": "enum structs.UserType",
          "name": "userType",
          "type": "uint8"
        },
        {
          "internalType": "enum structs.Gender",
          "name": "gender",
          "type": "uint8"
        },
        {
          "components": [
            {
              "internalType": "string",
              "name": "state",
              "type": "string"
            },
            {
              "internalType": "string",
              "name": "district",
              "type": "string"
            },
            {
              "internalType": "string",
              "name": "blockName",
              "type": "string"
            },
            {
              "internalType": "string",
              "name": "panchyatName",
              "type": "string"
            },
            {
              "internalType": "string",
              "name": "villageName",
              "type": "string"
            }
          ],
          "internalType": "struct structs.Location",
          "name": "location",
          "type": "tuple"
        }
      ],
      "stateMutability": "view",
      "type": "function",
      "constant": true
    }
  ],
  "bytecode": "0x608060405234801561001057600080fd5b5033600f60006101000a81548173ffffffffffffffffffffffffffffffffffffffff021916908373ffffffffffffffffffffffffffffffffffffffff16021790555061522b806100616000396000f3fe6080604052600436106101cc5760003560e01c806361c91b70116100f7578063a6e90a5811610095578063db223b4c11610064578063db223b4c146106dd578063e1ec3c6814610706578063edf538861461074a578063f736ae4314610787576101cc565b8063a6e90a581461060f578063af08a94f14610638578063b34e97e814610675578063cfcb4b2f146106a0576101cc565b80637d550bb3116100d15780637d550bb3146105515780638106bada1461057a57806394169656146105a35780639bbc9ab1146105e6576101cc565b806361c91b70146104ae578063769d0e16146104eb5780637a64649214610528576101cc565b80632c0a90a91161016f5780633ae0058f1161013e5780633ae0058f146103ef5780633c5657571461042c57806342f5f815146104695780634f269c9214610485576101cc565b80632c0a90a91461032d5780632e13104614610356578063365b98b21461037f57806339d8bed1146103c6576101cc565b806314795ce3116101ab57806314795ce314610264578063249c4bff1461028d578063257a170b146102a957806326271cf2146102ea576101cc565b806285ae2b146101d1578063021af397146102125780630227f4351461023b575b600080fd5b3480156101dd57600080fd5b506101f860048036038101906101f39190614372565b6107b0565b6040516102099594939291906148be565b60405180910390f35b34801561021e57600080fd5b5061023960048036038101906102349190614413565b610916565b005b34801561024757600080fd5b50610262600480360381019061025d9190614462565b610aed565b005b34801561027057600080fd5b5061028b60048036038101906102869190614144565b610d03565b005b6102a760048036038101906102a29190614413565b610ee3565b005b3480156102b557600080fd5b506102d060048036038101906102cb9190614372565b6110ec565b6040516102e1959493929190614ae0565b60405180910390f35b3480156102f657600080fd5b50610311600480360381019061030c9190614372565b61112f565b60405161032497969594939291906149e6565b60405180910390f35b34801561033957600080fd5b50610354600480360381019061034f91906143d7565b611565565b005b34801561036257600080fd5b5061037d600480360381019061037891906141d7565b6116bb565b005b34801561038b57600080fd5b506103a660048036038101906103a19190614372565b611c6b565b6040516103bd9b9a9998979695949392919061491f565b60405180910390f35b3480156103d257600080fd5b506103ed60048036038101906103e891906143d7565b61217b565b005b3480156103fb57600080fd5b506104166004803603810190610411919061401d565b612291565b60405161042391906148a3565b60405180910390f35b34801561043857600080fd5b50610453600480360381019061044e91906143d7565b6122a9565b60405161046091906148a3565b60405180910390f35b610483600480360381019061047e9190614413565b6123c6565b005b34801561049157600080fd5b506104ac60048036038101906104a7919061439b565b6124a4565b005b3480156104ba57600080fd5b506104d560048036038101906104d0919061401d565b61250b565b6040516104e291906148a3565b60405180910390f35b3480156104f757600080fd5b50610512600480360381019061050d91906143d7565b612523565b60405161051f91906148a3565b60405180910390f35b34801561053457600080fd5b5061054f600480360381019061054a91906143d7565b612641565b005b34801561055d57600080fd5b5061057860048036038101906105739190614413565b6126d0565b005b34801561058657600080fd5b506105a1600480360381019061059c9190614046565b6127af565b005b3480156105af57600080fd5b506105ca60048036038101906105c59190614372565b612e23565b6040516105dd9796959493929190614a6a565b60405180910390f35b3480156105f257600080fd5b5061060d60048036038101906106089190614372565b612efa565b005b34801561061b57600080fd5b50610636600480360381019061063191906143d7565b6133a2565b005b34801561064457600080fd5b5061065f600480360381019061065a9190614372565b613534565b60405161066c91906147a6565b60405180910390f35b34801561068157600080fd5b5061068a6135a2565b60405161069791906147c8565b60405180910390f35b3480156106ac57600080fd5b506106c760048036038101906106c29190614372565b61364c565b6040516106d491906147a6565b60405180910390f35b3480156106e957600080fd5b5061070460048036038101906106ff9190614413565b6136de565b005b34801561071257600080fd5b5061072d60048036038101906107289190614372565b6137f8565b604051610741989796959493929190614b33565b60405180910390f35b34801561075657600080fd5b50610771600480360381019061076c919061401d565b613840565b60405161077e91906148a3565b60405180910390f35b34801561079357600080fd5b506107ae60048036038101906107a991906143d7565b613858565b005b60026020528060005260406000206000915090508060000154908060010180546107d990614ea7565b80601f016020809104026020016040519081016040528092919081815260200182805461080590614ea7565b80156108525780601f1061082757610100808354040283529160200191610852565b820191906000526020600020905b81548152906001019060200180831161083557829003601f168201915b5050505050908060020160009054906101000a900473ffffffffffffffffffffffffffffffffffffffff169080600301805461088d90614ea7565b80601f01602080910402602001604051908101604052809291908181526020018280546108b990614ea7565b80156109065780601f106108db57610100808354040283529160200191610906565b820191906000526020600020905b8154815290600101906020018083116108e957829003601f168201915b5050505050908060040154905085565b8260006001600083815260200190815260200160002060000154141561093b57600080fd5b83600080600360003373ffffffffffffffffffffffffffffffffffffffff1673ffffffffffffffffffffffffffffffffffffffff168152602001908152602001600020548152602001908152602001600020600901541461099b57600080fd5b6000600c60008154809291906109b090614f0a565b9190505590506040518060a00160405280828152602001868152602001858152602001848152602001600380811115610a12577f4e487b7100000000000000000000000000000000000000000000000000000000600052602160045260246000fd5b815250600660008381526020019081526020016000206000820151816000015560208201518160010155604082015181600201556060820151816003015560808201518160040160006101000a81548160ff02191690836003811115610aa1577f4e487b7100000000000000000000000000000000000000000000000000000000600052602160045260246000fd5b021790555090505060016000868152602001908152602001600020600c018190806001815401808255809150506001900390600052602060002001600090919091909150555050505050565b6000600b60008154610afe90614f0a565b9190508190559050604051806101000160405280828152602001868152602001858152602001848152602001878152602001600380811115610b69577f4e487b7100000000000000000000000000000000000000000000000000000000600052602160045260246000fd5b8152602001838152602001600067ffffffffffffffff811115610bb5577f4e487b7100000000000000000000000000000000000000000000000000000000600052604160045260246000fd5b604051908082528060200260200182016040528015610be35781602001602082028036833780820191505090505b50815250600560008381526020019081526020016000206000820151816000015560208201518160010155604082015181600201556060820151816003019080519060200190610c34929190613c7a565b506080820151816004015560a08201518160050160006101000a81548160ff02191690836003811115610c90577f4e487b7100000000000000000000000000000000000000000000000000000000600052602160045260246000fd5b021790555060c0820151816006015560e0820151816007019080519060200190610cbb929190613d00565b50905050600080868152602001908152602001600020600701819080600181540180825580915050600190039060005260206000200160009091909190915055505050505050565b6000600d60008154610d1490614f0a565b91905081905590506040518060c001604052808281526020018681526020018573ffffffffffffffffffffffffffffffffffffffff168152602001848152602001838152602001600067ffffffffffffffff811115610d9c577f4e487b7100000000000000000000000000000000000000000000000000000000600052604160045260246000fd5b604051908082528060200260200182016040528015610dca5781602001602082028036833780820191505090505b5081525060026000838152602001908152602001600020600082015181600001556020820151816001019080519060200190610e07929190613c7a565b5060408201518160020160006101000a81548173ffffffffffffffffffffffffffffffffffffffff021916908373ffffffffffffffffffffffffffffffffffffffff1602179055506060820151816003019080519060200190610e6b929190613c7a565b506080820151816004015560a0820151816005019080519060200190610e92929190613d00565b50905050600d54600860008673ffffffffffffffffffffffffffffffffffffffff1673ffffffffffffffffffffffffffffffffffffffff168152602001908152602001600020819055505050505050565b82600060026000838152602001908152602001600020600001541415610f0857600080fd5b6000604051806101000160405280600e60008154610f2590614f0a565b9190508190558152602001600660008781526020019081526020016000206001015481526020018481526020018681526020016002600088815260200190815260200160002060040154815260200160066000878152602001908152602001600020600301548152602001428152602001600081525090506001600060066000878152602001908152602001600020600101548152602001908152602001600020600c01600e5490806001815401808255809150506001900390600052602060002001600090919091909150553073ffffffffffffffffffffffffffffffffffffffff166108fc849081150290604051600060405180830381858888f19350505050158015611038573d6000803e3d6000fd5b5082600160006006600088815260200190815260200160002060010154815260200190815260200160002060090160008282546110759190614c99565b925050819055508060046000600e548152602001908152602001600020600082015181600001556020820151816001015560408201518160020155606082015181600301556080820151816004015560a0820151816005015560c0820151816006015560e082015181600701559050505050505050565b60066020528060005260406000206000915090508060000154908060010154908060020154908060030154908060040160009054906101000a900460ff16905085565b600160205280600052604060002060009150905080600001549080600201805461115890614ea7565b80601f016020809104026020016040519081016040528092919081815260200182805461118490614ea7565b80156111d15780601f106111a6576101008083540402835291602001916111d1565b820191906000526020600020905b8154815290600101906020018083116111b457829003601f168201915b505050505090806003016040518060a00160405290816000820180546111f690614ea7565b80601f016020809104026020016040519081016040528092919081815260200182805461122290614ea7565b801561126f5780601f106112445761010080835404028352916020019161126f565b820191906000526020600020905b81548152906001019060200180831161125257829003601f168201915b5050505050815260200160018201805461128890614ea7565b80601f01602080910402602001604051908101604052809291908181526020018280546112b490614ea7565b80156113015780601f106112d657610100808354040283529160200191611301565b820191906000526020600020905b8154815290600101906020018083116112e457829003601f168201915b5050505050815260200160028201805461131a90614ea7565b80601f016020809104026020016040519081016040528092919081815260200182805461134690614ea7565b80156113935780601f1061136857610100808354040283529160200191611393565b820191906000526020600020905b81548152906001019060200180831161137657829003601f168201915b505050505081526020016003820180546113ac90614ea7565b80601f01602080910402602001604051908101604052809291908181526020018280546113d890614ea7565b80156114255780601f106113fa57610100808354040283529160200191611425565b820191906000526020600020905b81548152906001019060200180831161140857829003601f168201915b5050505050815260200160048201805461143e90614ea7565b80601f016020809104026020016040519081016040528092919081815260200182805461146a90614ea7565b80156114b75780601f1061148c576101008083540402835291602001916114b7565b820191906000526020600020905b81548152906001019060200180831161149a57829003601f168201915b505050505081525050908060080180546114d090614ea7565b80601f01602080910402602001604051908101604052809291908181526020018280546114fc90614ea7565b80156115495780601f1061151e57610100808354040283529160200191611549565b820191906000526020600020905b81548152906001019060200180831161152c57829003601f168201915b50505050509080600901549080600a01549080600d0154905087565b8060006001600083815260200190815260200160002060000154141561158a57600080fd5b6000600560008581526020019081526020016000209050828160040154146115b157600080fd5b6115ba84613962565b6115c357600080fd5b80600701600360003373ffffffffffffffffffffffffffffffffffffffff1673ffffffffffffffffffffffffffffffffffffffff168152602001908152602001600020549080600181540180825580915050600190039060005260206000200160009091909190915055600260016000858152602001908152602001600020600101805490506116539190614cef565b816007018054905011156116b55760008160050160006101000a81548160ff021916908360038111156116af577f4e487b7100000000000000000000000000000000000000000000000000000000600052602160045260246000fd5b02179055505b50505050565b3373ffffffffffffffffffffffffffffffffffffffff16600080600360003373ffffffffffffffffffffffffffffffffffffffff1673ffffffffffffffffffffffffffffffffffffffff16815260200190815260200160002054815260200190815260200160002060050160009054906101000a900473ffffffffffffffffffffffffffffffffffffffff1673ffffffffffffffffffffffffffffffffffffffff16141561179e576040517f08c379a000000000000000000000000000000000000000000000000000000000815260040161179590614803565b60405180910390fd5b60006009600081546117af90614f0a565b919050819055905080600360003373ffffffffffffffffffffffffffffffffffffffff1673ffffffffffffffffffffffffffffffffffffffff1681526020019081526020016000208190555060006040518060a00160405280888152602001878152602001868152602001858152602001848152509050604051806101a001604052806009600081548092919061184590614f0a565b9190505581526020018d81526020018c81526020018b81526020018a81526020013373ffffffffffffffffffffffffffffffffffffffff168152602001600067ffffffffffffffff8111156118c3577f4e487b7100000000000000000000000000000000000000000000000000000000600052604160045260246000fd5b6040519080825280602002602001820160405280156118f15781602001602082028036833780820191505090505b508152602001600067ffffffffffffffff811115611938577f4e487b7100000000000000000000000000000000000000000000000000000000600052604160045260246000fd5b6040519080825280602002602001820160405280156119665781602001602082028036833780820191505090505b5081526020016000815260200160008152602001600460058111156119b4577f4e487b7100000000000000000000000000000000000000000000000000000000600052602160045260246000fd5b81526020018960028111156119f2577f4e487b7100000000000000000000000000000000000000000000000000000000600052602160045260246000fd5b815260200182815250600080848152602001908152602001600020600082015181600001556020820151816001019080519060200190611a33929190613c7a565b506040820151816002019080519060200190611a50929190613c7a565b50606082015181600301556080820151816004019080519060200190611a77929190613c7a565b5060a08201518160050160006101000a81548173ffffffffffffffffffffffffffffffffffffffff021916908373ffffffffffffffffffffffffffffffffffffffff16021790555060c0820151816006019080519060200190611adb929190613d00565b5060e0820151816007019080519060200190611af8929190613d00565b506101008201518160080155610120820151816009015561014082015181600a0160006101000a81548160ff02191690836005811115611b61577f4e487b7100000000000000000000000000000000000000000000000000000000600052602160045260246000fd5b021790555061016082015181600a0160016101000a81548160ff02191690836002811115611bb8577f4e487b7100000000000000000000000000000000000000000000000000000000600052602160045260246000fd5b021790555061018082015181600b016000820151816000019080519060200190611be3929190613c7a565b506020820151816001019080519060200190611c00929190613c7a565b506040820151816002019080519060200190611c1d929190613c7a565b506060820151816003019080519060200190611c3a929190613c7a565b506080820151816004019080519060200190611c57929190613c7a565b505050905050505050505050505050505050565b6000602052806000526040600020600091509050806000015490806001018054611c9490614ea7565b80601f0160208091040260200160405190810160405280929190818152602001828054611cc090614ea7565b8015611d0d5780601f10611ce257610100808354040283529160200191611d0d565b820191906000526020600020905b815481529060010190602001808311611cf057829003601f168201915b505050505090806002018054611d2290614ea7565b80601f0160208091040260200160405190810160405280929190818152602001828054611d4e90614ea7565b8015611d9b5780601f10611d7057610100808354040283529160200191611d9b565b820191906000526020600020905b815481529060010190602001808311611d7e57829003601f168201915b505050505090806003015490806004018054611db690614ea7565b80601f0160208091040260200160405190810160405280929190818152602001828054611de290614ea7565b8015611e2f5780601f10611e0457610100808354040283529160200191611e2f565b820191906000526020600020905b815481529060010190602001808311611e1257829003601f168201915b5050505050908060050160009054906101000a900473ffffffffffffffffffffffffffffffffffffffff169080600801549080600901549080600a0160009054906101000a900460ff169080600a0160019054906101000a900460ff169080600b016040518060a0016040529081600082018054611eac90614ea7565b80601f0160208091040260200160405190810160405280929190818152602001828054611ed890614ea7565b8015611f255780601f10611efa57610100808354040283529160200191611f25565b820191906000526020600020905b815481529060010190602001808311611f0857829003601f168201915b50505050508152602001600182018054611f3e90614ea7565b80601f0160208091040260200160405190810160405280929190818152602001828054611f6a90614ea7565b8015611fb75780601f10611f8c57610100808354040283529160200191611fb7565b820191906000526020600020905b815481529060010190602001808311611f9a57829003601f168201915b50505050508152602001600282018054611fd090614ea7565b80601f0160208091040260200160405190810160405280929190818152602001828054611ffc90614ea7565b80156120495780601f1061201e57610100808354040283529160200191612049565b820191906000526020600020905b81548152906001019060200180831161202c57829003601f168201915b5050505050815260200160038201805461206290614ea7565b80601f016020809104026020016040519081016040528092919081815260200182805461208e90614ea7565b80156120db5780601f106120b0576101008083540402835291602001916120db565b820191906000526020600020905b8154815290600101906020018083116120be57829003601f168201915b505050505081526020016004820180546120f490614ea7565b80601f016020809104026020016040519081016040528092919081815260200182805461212090614ea7565b801561216d5780601f106121425761010080835404028352916020019161216d565b820191906000526020600020905b81548152906001019060200180831161215057829003601f168201915b50505050508152505090508b565b8060008084815260200190815260200160002060090154146121d2576040517f08c379a00000000000000000000000000000000000000000000000000000000081526004016121c990614843565b60405180910390fd5b80600080848152602001908152602001600020600901819055506003600080848152602001908152602001600020600a0160006101000a81548160ff0219169083600581111561224b577f4e487b7100000000000000000000000000000000000000000000000000000000600052602160045260246000fd5b0217905550600160008281526020019081526020016000206001018290806001815401808255809150506001900390600052602060002001600090919091909150555050565b60076020528060005260406000206000915090505481565b60008260008060008381526020019081526020016000206000015414156122cf57600080fd5b60006004600085815260200190815260200160002090506000601e603c8060188560070154426122ff9190614d7a565b6123099190614cef565b6123139190614d20565b61231d9190614d20565b6123279190614d20565b90506000811161233657600080fd5b60008260020154905060008360040154905060008460050154905060008382600c6123619190614d20565b61236b9190614d7a565b600c60648561237a9190614cef565b6123849190614d20565b60016123909190614c99565b8561239b9190614d20565b1890508086600201546123ae9190614d7a565b86600201819055508097505050505050505092915050565b8260008060008381526020019081526020016000206000015414156123ea57600080fd5b60006123f685856122a9565b905082811461240457600080fd5b60006004600086815260200190815260200160002090503073ffffffffffffffffffffffffffffffffffffffff166108fc859081150290604051600060405180830381858888f19350505050158015612461573d6000803e3d6000fd5b50836001600083600301548152602001908152602001600020600901600082825461248c9190614c99565b92505081905550428160070181905550505050505050565b80600080848152602001908152602001600020600a0160006101000a81548160ff02191690836005811115612502577f4e487b7100000000000000000000000000000000000000000000000000000000600052602160045260246000fd5b02179055505050565b60086020528060005260406000206000915090505481565b60008260006001600083815260200190815260200160002060000154141561254a57600080fd5b60006004600085815260200190815260200160002090506000601e603c80601885600701544261257a9190614d7a565b6125849190614cef565b61258e9190614d20565b6125989190614d20565b6125a29190614d20565b9050600081116125b157600080fd5b60008260020154905060008360040154905060008460050154905060008382600c6125dc9190614d20565b6125e69190614d7a565b600c6064856125f59190614cef565b6125ff9190614d20565b600161260b9190614c99565b856126169190614d20565b1890508086600201546126299190614d7a565b86600201819055508097505050505050505092915050565b8060006002600083815260200190815260200160002060000154141561266657600080fd5b60006006600085815260200190815260200160002060040160006101000a81548160ff021916908360038111156126c6577f4e487b7100000000000000000000000000000000000000000000000000000000600052602160045260246000fd5b0217905550505050565b826000600160008381526020019081526020016000206000015414156126f557600080fd5b60006127018585612523565b905082811461270f57600080fd5b60006004600086815260200190815260200160002090503073ffffffffffffffffffffffffffffffffffffffff166108fc859081150290604051600060405180830381858888f1935050505015801561276c573d6000803e3d6000fd5b5083600160008360030154815260200190815260200160002060090160008282546127979190614c99565b92505081905550428160070181905550505050505050565b6007875110156127f4576040517f08c379a00000000000000000000000000000000000000000000000000000000081526004016127eb906147e3565b60405180910390fd5b6000600a6000815461280590614f0a565b91905081905590506040518061014001604052808281526020018981526020018681526020018581526020018481526020016000815260200160008152602001600067ffffffffffffffff811115612886577f4e487b7100000000000000000000000000000000000000000000000000000000600052604160045260246000fd5b6040519080825280602002602001820160405280156128b45781602001602082028036833780820191505090505b508152602001600067ffffffffffffffff8111156128fb577f4e487b7100000000000000000000000000000000000000000000000000000000600052604160045260246000fd5b6040519080825280602002602001820160405280156129295781602001602082028036833780820191505090505b508152602001838152506001600083815260200190815260200160002060008201518160000155602082015181600101908051906020019061296c929190613d00565b506040820151816002019080519060200190612989929190613c7a565b5060608201518160030160008201518160000190805190602001906129af929190613c7a565b5060208201518160010190805190602001906129cc929190613c7a565b5060408201518160020190805190602001906129e9929190613c7a565b506060820151816003019080519060200190612a06929190613c7a565b506080820151816004019080519060200190612a23929190613c7a565b5050506080820151816008019080519060200190612a42929190613c7a565b5060a0820151816009015560c082015181600a015560e082015181600b019080519060200190612a73929190613d00565b5061010082015181600c019080519060200190612a91929190613d00565b5061012082015181600d015590505060005b8851811015612d3d5760036000808b8481518110612aea577f4e487b7100000000000000000000000000000000000000000000000000000000600052603260045260246000fd5b60200260200101518152602001908152602001600020600a0160006101000a81548160ff02191690836005811115612b4b577f4e487b7100000000000000000000000000000000000000000000000000000000600052602160045260246000fd5b021790555087898281518110612b8a577f4e487b7100000000000000000000000000000000000000000000000000000000600052603260045260246000fd5b60200260200101511415612c3d5760008060008b8481518110612bd6577f4e487b7100000000000000000000000000000000000000000000000000000000600052603260045260246000fd5b60200260200101518152602001908152602001600020600a0160006101000a81548160ff02191690836005811115612c37577f4e487b7100000000000000000000000000000000000000000000000000000000600052602160045260246000fd5b02179055505b86898281518110612c77577f4e487b7100000000000000000000000000000000000000000000000000000000600052603260045260246000fd5b60200260200101511415612d2a5760026000808b8481518110612cc3577f4e487b7100000000000000000000000000000000000000000000000000000000600052603260045260246000fd5b60200260200101518152602001908152602001600020600a0160006101000a81548160ff02191690836005811115612d24577f4e487b7100000000000000000000000000000000000000000000000000000000600052602160045260246000fd5b02179055505b8080612d3590614f0a565b915050612aa3565b5060005b8851811015612e1857600a54600760008060008d8681518110612d8d577f4e487b7100000000000000000000000000000000000000000000000000000000600052603260045260246000fd5b6020026020010151815260200190815260200160002060050160009054906101000a900473ffffffffffffffffffffffffffffffffffffffff1673ffffffffffffffffffffffffffffffffffffffff1673ffffffffffffffffffffffffffffffffffffffff168152602001908152602001600020819055508080612e1090614f0a565b915050612d41565b505050505050505050565b6005602052806000526040600020600091509050806000015490806001015490806002015490806003018054612e5890614ea7565b80601f0160208091040260200160405190810160405280929190818152602001828054612e8490614ea7565b8015612ed15780601f10612ea657610100808354040283529160200191612ed1565b820191906000526020600020905b815481529060010190602001808311612eb457829003601f168201915b5050505050908060040154908060050160009054906101000a900460ff16908060060154905087565b60026005811115612f34577f4e487b7100000000000000000000000000000000000000000000000000000000600052602160045260246000fd5b600080600360003373ffffffffffffffffffffffffffffffffffffffff1673ffffffffffffffffffffffffffffffffffffffff168152602001908152602001600020548152602001908152602001600020600a0160009054906101000a900460ff166005811115612fce577f4e487b7100000000000000000000000000000000000000000000000000000000600052602160045260246000fd5b1461300e576040517f08c379a000000000000000000000000000000000000000000000000000000000815260040161300590614883565b60405180910390fd5b60006003811115613048577f4e487b7100000000000000000000000000000000000000000000000000000000600052602160045260246000fd5b6005600083815260200190815260200160002060050160009054906101000a900460ff1660038111156130a4577f4e487b7100000000000000000000000000000000000000000000000000000000600052602160045260246000fd5b146130e4576040517f08c379a00000000000000000000000000000000000000000000000000000000081526004016130db90614863565b60405180910390fd5b600060056000838152602001908152602001600020905060018160050160006101000a81548160ff02191690836003811115613149577f4e487b7100000000000000000000000000000000000000000000000000000000600052602160045260246000fd5b02179055506000604051806101000160405280600e6000815461316b90614f0a565b91905081905581526020018360040154815260200183600201548152602001836001015481526020016001600085600401548152602001908152602001600020600d0154815260200183600601548152602001428152602001600081525090508060046000600e548152602001908152602001600020600082015181600001556020820151816001015560408201518160020155606082015181600301556080820151816004015560a0820151816005015560c0820151816006015560e082015181600701559050506001600083600401548152602001908152602001600020600b01600e54908060018154018082558091505060019003906000526020600020016000909190919091505560008083600101548152602001908152602001600020600601600e549080600181540180825580915050600190039060005260206000200160009091909190915055816002015460016000846004015481526020019081526020016000206009015410156132e457600080fd5b6000808360010154815260200190815260200160002060050160009054906101000a900473ffffffffffffffffffffffffffffffffffffffff1673ffffffffffffffffffffffffffffffffffffffff166108fc83600201549081150290604051600060405180830381858888f19350505050158015613367573d6000803e3d6000fd5b508160020154600160008460040154815260200190815260200160002060090160008282546133969190614d7a565b92505081905550505050565b60006001600083815260200190815260200160002090506134158160010180548060200260200160405190810160405280929190818152602001828054801561340a57602002820191906000526020600020905b8154815260200190600101908083116133f6575b505050505083613a40565b613454576040517f08c379a000000000000000000000000000000000000000000000000000000000815260040161344b90614823565b60405180910390fd5b60006134b2826001018054806020026020016040519081016040528092919081815260200182805480156134a757602002820191906000526020600020905b815481526020019060010190808311613493575b505050505085613ace565b905060006135128360010180548060200260200160405190810160405280929190818152602001828054801561350757602002820191906000526020600020905b8154815260200190600101908083116134f3575b505050505083613b4f565b90508083600101908051906020019061352c929190613d00565b505050505050565b60606001600083815260200190815260200160002060010180548060200260200160405190810160405280929190818152602001828054801561359657602002820191906000526020600020905b815481526020019060010190808311613582575b50505050509050919050565b60003373ffffffffffffffffffffffffffffffffffffffff16600080600360003373ffffffffffffffffffffffffffffffffffffffff1673ffffffffffffffffffffffffffffffffffffffff16815260200190815260200160002054815260200190815260200160002060050160009054906101000a900473ffffffffffffffffffffffffffffffffffffffff1673ffffffffffffffffffffffffffffffffffffffff1614905090565b606081600080600083815260200190815260200160002060000154141561367257600080fd5b6000808481526020019081526020016000206006018054806020026020016040519081016040528092919081815260200182805480156136d157602002820191906000526020600020905b8154815260200190600101908083116136bd575b5050505050915050919050565b8160006002600083815260200190815260200160002060000154141561370357600080fd5b3073ffffffffffffffffffffffffffffffffffffffff166108fc839081150290604051600060405180830381858888f19350505050158015613749573d6000803e3d6000fd5b5060016006600086815260200190815260200160002060040160006101000a81548160ff021916908360038111156137aa577f4e487b7100000000000000000000000000000000000000000000000000000000600052602160045260246000fd5b021790555081600160006006600088815260200190815260200160002060010154815260200190815260200160002060090160008282546137eb9190614c99565b9250508190555050505050565b60046020528060005260406000206000915090508060000154908060010154908060020154908060030154908060040154908060050154908060060154908060070154905088565b60036020528060005260406000206000915090505481565b81600080600083815260200190815260200160002060000154141561387c57600080fd5b8260056000848152602001908152602001600020600101541461389e57600080fd5b600080600090505b600b548110156138e95784600560008381526020019081526020016000206001015414156138d6578091506138e9565b80806138e190614f0a565b9150506138a6565b5060056000828152602001908152602001600020600080820160009055600182016000905560028201600090556003820160006139269190613d4d565b60048201600090556005820160006101000a81549060ff0219169055600682016000905560078201600061395a9190613d8d565b505050505050565b60008060056000848152602001908152602001600020600701905060005b8180549050811015613a3457600360003373ffffffffffffffffffffffffffffffffffffffff1673ffffffffffffffffffffffffffffffffffffffff16815260200190815260200160002054828281548110613a05577f4e487b7100000000000000000000000000000000000000000000000000000000600052603260045260246000fd5b90600052602060002001541415613a2157600092505050613a3b565b8080613a2c90614f0a565b915050613980565b5060019150505b919050565b600080600090505b60018451613a569190614d7a565b811015613ac25782848281518110613a97577f4e487b7100000000000000000000000000000000000000000000000000000000600052603260045260246000fd5b60200260200101511415613aaf576001915050613ac8565b8080613aba90614f0a565b915050613a48565b50600090505b92915050565b600080600090505b8351811015613b435782848281518110613b19577f4e487b7100000000000000000000000000000000000000000000000000000000600052603260045260246000fd5b60200260200101511415613b305780915050613b49565b8080613b3b90614f0a565b915050613ad6565b50600090505b92915050565b606082518210613b5e57600080fd5b60008290505b60018451613b729190614d7a565b811015613c1e5783600182613b879190614c99565b81518110613bbe577f4e487b7100000000000000000000000000000000000000000000000000000000600052603260045260246000fd5b6020026020010151848281518110613bff577f4e487b7100000000000000000000000000000000000000000000000000000000600052603260045260246000fd5b6020026020010181815250508080613c1690614f0a565b915050613b64565b508260018451613c2e9190614d7a565b81518110613c65577f4e487b7100000000000000000000000000000000000000000000000000000000600052603260045260246000fd5b60200260200101600081525082905092915050565b828054613c8690614ea7565b90600052602060002090601f016020900481019282613ca85760008555613cef565b82601f10613cc157805160ff1916838001178555613cef565b82800160010185558215613cef579182015b82811115613cee578251825591602001919060010190613cd3565b5b509050613cfc9190613dae565b5090565b828054828255906000526020600020908101928215613d3c579160200282015b82811115613d3b578251825591602001919060010190613d20565b5b509050613d499190613dae565b5090565b508054613d5990614ea7565b6000825580601f10613d6b5750613d8a565b601f016020900490600052602060002090810190613d899190613dae565b5b50565b5080546000825590600052602060002090810190613dab9190613dae565b50565b5b80821115613dc7576000816000905550600101613daf565b5090565b6000613dde613dd984614bd6565b614bb1565b90508083825260208201905082856020860282011115613dfd57600080fd5b60005b85811015613e2d5781613e138882614008565b845260208401935060208301925050600181019050613e00565b5050509392505050565b6000613e4a613e4584614c02565b614bb1565b905082815260208101848484011115613e6257600080fd5b613e6d848285614e65565b509392505050565b600081359050613e84816151a7565b92915050565b600082601f830112613e9b57600080fd5b8135613eab848260208601613dcb565b91505092915050565b600081359050613ec3816151be565b92915050565b600081359050613ed8816151ce565b92915050565b600082601f830112613eef57600080fd5b8135613eff848260208601613e37565b91505092915050565b600060a08284031215613f1a57600080fd5b613f2460a0614bb1565b9050600082013567ffffffffffffffff811115613f4057600080fd5b613f4c84828501613ede565b600083015250602082013567ffffffffffffffff811115613f6c57600080fd5b613f7884828501613ede565b602083015250604082013567ffffffffffffffff811115613f9857600080fd5b613fa484828501613ede565b604083015250606082013567ffffffffffffffff811115613fc457600080fd5b613fd084828501613ede565b606083015250608082013567ffffffffffffffff811115613ff057600080fd5b613ffc84828501613ede565b60808301525092915050565b600081359050614017816151de565b92915050565b60006020828403121561402f57600080fd5b600061403d84828501613e75565b91505092915050565b600080600080600080600060e0888a03121561406157600080fd5b600088013567ffffffffffffffff81111561407b57600080fd5b6140878a828b01613e8a565b97505060206140988a828b01614008565b96505060406140a98a828b01614008565b955050606088013567ffffffffffffffff8111156140c657600080fd5b6140d28a828b01613ede565b945050608088013567ffffffffffffffff8111156140ef57600080fd5b6140fb8a828b01613f08565b93505060a088013567ffffffffffffffff81111561411857600080fd5b6141248a828b01613ede565b92505060c06141358a828b01614008565b91505092959891949750929550565b6000806000806080858703121561415a57600080fd5b600085013567ffffffffffffffff81111561417457600080fd5b61418087828801613ede565b945050602061419187828801613e75565b935050604085013567ffffffffffffffff8111156141ae57600080fd5b6141ba87828801613ede565b92505060606141cb87828801614008565b91505092959194509250565b6000806000806000806000806000806101408b8d0312156141f757600080fd5b60008b013567ffffffffffffffff81111561421157600080fd5b61421d8d828e01613ede565b9a505060208b013567ffffffffffffffff81111561423a57600080fd5b6142468d828e01613ede565b99505060406142578d828e01614008565b98505060608b013567ffffffffffffffff81111561427457600080fd5b6142808d828e01613ede565b97505060806142918d828e01613eb4565b96505060a08b013567ffffffffffffffff8111156142ae57600080fd5b6142ba8d828e01613ede565b95505060c08b013567ffffffffffffffff8111156142d757600080fd5b6142e38d828e01613ede565b94505060e08b013567ffffffffffffffff81111561430057600080fd5b61430c8d828e01613ede565b9350506101008b013567ffffffffffffffff81111561432a57600080fd5b6143368d828e01613ede565b9250506101208b013567ffffffffffffffff81111561435457600080fd5b6143608d828e01613ede565b9150509295989b9194979a5092959850565b60006020828403121561438457600080fd5b600061439284828501614008565b91505092915050565b600080604083850312156143ae57600080fd5b60006143bc85828601614008565b92505060206143cd85828601613ec9565b9150509250929050565b600080604083850312156143ea57600080fd5b60006143f885828601614008565b925050602061440985828601614008565b9150509250929050565b60008060006060848603121561442857600080fd5b600061443686828701614008565b935050602061444786828701614008565b925050604061445886828701614008565b9150509250925092565b600080600080600060a0868803121561447a57600080fd5b600061448888828901614008565b955050602061449988828901614008565b94505060406144aa88828901614008565b935050606086013567ffffffffffffffff8111156144c757600080fd5b6144d388828901613ede565b92505060806144e488828901614008565b9150509295509295909350565b60006144fd8383614788565b60208301905092915050565b61451281614dae565b82525050565b600061452382614c43565b61452d8185614c66565b935061453883614c33565b8060005b8381101561456957815161455088826144f1565b975061455b83614c59565b92505060018101905061453c565b5085935050505092915050565b61457f81614dc0565b82525050565b61458e81614e2f565b82525050565b61459d81614e41565b82525050565b6145ac81614e53565b82525050565b60006145bd82614c4e565b6145c78185614c77565b93506145d7818560208601614e74565b6145e08161503e565b840191505092915050565b60006145f682614c4e565b6146008185614c88565b9350614610818560208601614e74565b6146198161503e565b840191505092915050565b6000614631601a83614c88565b915061463c8261504f565b602082019050919050565b6000614654601283614c88565b915061465f82615078565b602082019050919050565b6000614677602583614c88565b9150614682826150a1565b604082019050919050565b600061469a601283614c88565b91506146a5826150f0565b602082019050919050565b60006146bd601283614c88565b91506146c882615119565b602082019050919050565b60006146e0601383614c88565b91506146eb82615142565b602082019050919050565b600060a083016000830151848203600086015261471382826145b2565b9150506020830151848203602086015261472d82826145b2565b9150506040830151848203604086015261474782826145b2565b9150506060830151848203606086015261476182826145b2565b9150506080830151848203608086015261477b82826145b2565b9150508091505092915050565b61479181614e25565b82525050565b6147a081614e25565b82525050565b600060208201905081810360008301526147c08184614518565b905092915050565b60006020820190506147dd6000830184614576565b92915050565b600060208201905081810360008301526147fc81614624565b9050919050565b6000602082019050818103600083015261481c81614647565b9050919050565b6000602082019050818103600083015261483c8161466a565b9050919050565b6000602082019050818103600083015261485c8161468d565b9050919050565b6000602082019050818103600083015261487c816146b0565b9050919050565b6000602082019050818103600083015261489c816146d3565b9050919050565b60006020820190506148b86000830184614797565b92915050565b600060a0820190506148d36000830188614797565b81810360208301526148e581876145eb565b90506148f46040830186614509565b818103606083015261490681856145eb565b90506149156080830184614797565b9695505050505050565b600061016082019050614935600083018e614797565b8181036020830152614947818d6145eb565b9050818103604083015261495b818c6145eb565b905061496a606083018b614797565b818103608083015261497c818a6145eb565b905061498b60a0830189614509565b61499860c0830188614797565b6149a560e0830187614797565b6149b36101008301866145a3565b6149c1610120830185614585565b8181036101408301526149d481846146f6565b90509c9b505050505050505050505050565b600060e0820190506149fb600083018a614797565b8181036020830152614a0d81896145eb565b90508181036040830152614a2181886146f6565b90508181036060830152614a3581876145eb565b9050614a446080830186614797565b614a5160a0830185614797565b614a5e60c0830184614797565b98975050505050505050565b600060e082019050614a7f600083018a614797565b614a8c6020830189614797565b614a996040830188614797565b8181036060830152614aab81876145eb565b9050614aba6080830186614797565b614ac760a0830185614594565b614ad460c0830184614797565b98975050505050505050565b600060a082019050614af56000830188614797565b614b026020830187614797565b614b0f6040830186614797565b614b1c6060830185614797565b614b296080830184614594565b9695505050505050565b600061010082019050614b49600083018b614797565b614b56602083018a614797565b614b636040830189614797565b614b706060830188614797565b614b7d6080830187614797565b614b8a60a0830186614797565b614b9760c0830185614797565b614ba460e0830184614797565b9998505050505050505050565b6000614bbb614bcc565b9050614bc78282614ed9565b919050565b6000604051905090565b600067ffffffffffffffff821115614bf157614bf061500f565b5b602082029050602081019050919050565b600067ffffffffffffffff821115614c1d57614c1c61500f565b5b614c268261503e565b9050602081019050919050565b6000819050602082019050919050565b600081519050919050565b600081519050919050565b6000602082019050919050565b600082825260208201905092915050565b600082825260208201905092915050565b600082825260208201905092915050565b6000614ca482614e25565b9150614caf83614e25565b9250827fffffffffffffffffffffffffffffffffffffffffffffffffffffffffffffffff03821115614ce457614ce3614f53565b5b828201905092915050565b6000614cfa82614e25565b9150614d0583614e25565b925082614d1557614d14614f82565b5b828204905092915050565b6000614d2b82614e25565b9150614d3683614e25565b9250817fffffffffffffffffffffffffffffffffffffffffffffffffffffffffffffffff0483118215151615614d6f57614d6e614f53565b5b828202905092915050565b6000614d8582614e25565b9150614d9083614e25565b925082821015614da357614da2614f53565b5b828203905092915050565b6000614db982614e05565b9050919050565b60008115159050919050565b6000819050614dda8261516b565b919050565b6000819050614ded8261517f565b919050565b6000819050614e0082615193565b919050565b600073ffffffffffffffffffffffffffffffffffffffff82169050919050565b6000819050919050565b6000614e3a82614dcc565b9050919050565b6000614e4c82614ddf565b9050919050565b6000614e5e82614df2565b9050919050565b82818337600083830152505050565b60005b83811015614e92578082015181840152602081019050614e77565b83811115614ea1576000848401525b50505050565b60006002820490506001821680614ebf57607f821691505b60208210811415614ed357614ed2614fe0565b5b50919050565b614ee28261503e565b810181811067ffffffffffffffff82111715614f0157614f0061500f565b5b80604052505050565b6000614f1582614e25565b91507fffffffffffffffffffffffffffffffffffffffffffffffffffffffffffffffff821415614f4857614f47614f53565b5b600182019050919050565b7f4e487b7100000000000000000000000000000000000000000000000000000000600052601160045260246000fd5b7f4e487b7100000000000000000000000000000000000000000000000000000000600052601260045260246000fd5b7f4e487b7100000000000000000000000000000000000000000000000000000000600052602160045260246000fd5b7f4e487b7100000000000000000000000000000000000000000000000000000000600052602260045260246000fd5b7f4e487b7100000000000000000000000000000000000000000000000000000000600052604160045260246000fd5b6000601f19601f8301169050919050565b7f41746c656173742037206d656d62657273207265717569726564000000000000600082015250565b7f416c726561647920526567697374657265640000000000000000000000000000600082015250565b7f5573657220697320616c7265616479206e6f7420612070617274206f6620746860008201527f6520534847000000000000000000000000000000000000000000000000000000602082015250565b7f5573657220616c72656164792061646465640000000000000000000000000000600082015250565b7f556e617070726f76656420726571756573740000000000000000000000000000600082015250565b7f556e617574686f72697a65642072657165737400000000000000000000000000600082015250565b6003811061517c5761517b614fb1565b5b50565b600481106151905761518f614fb1565b5b50565b600681106151a4576151a3614fb1565b5b50565b6151b081614dae565b81146151bb57600080fd5b50565b600381106151cb57600080fd5b50565b600681106151db57600080fd5b50565b6151e781614e25565b81146151f257600080fd5b5056fea2646970667358221220dca9ed59c3d1d93b6b3402a8de8d2e38b3b279a39655ce04529e548e52e2dd0464736f6c63430008040033",
  "immutableReferences": {},
  "source": "// SPDX-License-Identifier: MIT\npragma solidity ^0.8.1;\nimport \"./lib/Bank.sol\";\nimport \"./lib/SHG.sol\";\nimport \"./lib/User.sol\";\n\ncontract Yogdaan is Bank, SHG, User {\n    address admin;\n\n    constructor() {\n        admin = msg.sender;\n    }\n}\n",
  "sourcePath": "/home/sdas/code/yogdaan-contracts/contracts/yogdaan.sol",
  "compiler": {
    "name": "solc",
    "version": "0.8.4+commit.c7e474f2.Emscripten.clang"
  },
  "schemaVersion": "3.4.9",
  "updatedAt": "2022-08-24T18:36:34.701Z",
  "networkType": "ethereum",
  "devdoc": {
    "kind": "dev",
    "methods": {},
    "version": 1
  },
  "userdoc": {
    "kind": "user",
    "methods": {},
    "version": 1
  }
}