{
  "contractName": "Yogdaan",
  "abi": [
    {
      "inputs": [],
      "stateMutability": "nonpayable",
      "type": "constructor"
    },
    {
      "inputs": [
        {
          "internalType": "string",
          "name": "_name",
          "type": "string"
        },
        {
          "internalType": "address",
          "name": "_walletAddress",
          "type": "address"
        },
        {
          "internalType": "string",
          "name": "_code",
          "type": "string"
        },
        {
          "internalType": "uint256",
          "name": "_intrestRate",
          "type": "uint256"
        }
      ],
      "name": "addBank",
      "outputs": [],
      "stateMutability": "nonpayable",
      "type": "function"
    },
    {
      "inputs": [
        {
          "internalType": "uint256[]",
          "name": "members",
          "type": "uint256[]"
        },
        {
          "internalType": "uint256",
          "name": "president",
          "type": "uint256"
        },
        {
          "internalType": "uint256",
          "name": "treasurer",
          "type": "uint256"
        },
        {
          "internalType": "string",
          "name": "name",
          "type": "string"
        },
        {
          "internalType": "string",
          "name": "_state",
          "type": "string"
        },
        {
          "internalType": "string",
          "name": "_district",
          "type": "string"
        },
        {
          "internalType": "string",
          "name": "_blockName",
          "type": "string"
        },
        {
          "internalType": "string",
          "name": "_panchyatName",
          "type": "string"
        },
        {
          "internalType": "string",
          "name": "_villageName",
          "type": "string"
        },
        {
          "internalType": "string",
          "name": "dateOfFormation",
          "type": "string"
        },
        {
          "internalType": "uint256",
          "name": "_baseIntrest",
          "type": "uint256"
        }
      ],
      "name": "addSHG",
      "outputs": [],
      "stateMutability": "nonpayable",
      "type": "function"
    },
    {
      "inputs": [
        {
          "internalType": "uint256",
          "name": "userid",
          "type": "uint256"
        },
        {
          "internalType": "uint256",
          "name": "shg",
          "type": "uint256"
        }
      ],
      "name": "addSHGMember",
      "outputs": [],
      "stateMutability": "nonpayable",
      "type": "function"
    },
    {
      "inputs": [
        {
          "internalType": "string",
          "name": "name",
          "type": "string"
        },
        {
          "internalType": "string",
          "name": "aadhar",
          "type": "string"
        },
        {
          "internalType": "uint256",
          "name": "mobno",
          "type": "uint256"
        },
        {
          "internalType": "string",
          "name": "fatherName",
          "type": "string"
        },
        {
          "internalType": "enum structs.Gender",
          "name": "gender",
          "type": "uint8"
        },
        {
          "internalType": "string",
          "name": "_state",
          "type": "string"
        },
        {
          "internalType": "string",
          "name": "_district",
          "type": "string"
        },
        {
          "internalType": "string",
          "name": "_blockName",
          "type": "string"
        },
        {
          "internalType": "string",
          "name": "_panchyatName",
          "type": "string"
        },
        {
          "internalType": "string",
          "name": "_villageName",
          "type": "string"
        }
      ],
      "name": "addUser",
      "outputs": [],
      "stateMutability": "nonpayable",
      "type": "function"
    },
    {
      "inputs": [
        {
          "internalType": "address",
          "name": "",
          "type": "address"
        }
      ],
      "name": "addressToBankid",
      "outputs": [
        {
          "internalType": "uint256",
          "name": "",
          "type": "uint256"
        }
      ],
      "stateMutability": "view",
      "type": "function",
      "constant": true
    },
    {
      "inputs": [
        {
          "internalType": "address",
          "name": "",
          "type": "address"
        }
      ],
      "name": "addressToSHGid",
      "outputs": [
        {
          "internalType": "uint256",
          "name": "",
          "type": "uint256"
        }
      ],
      "stateMutability": "view",
      "type": "function",
      "constant": true
    },
    {
      "inputs": [
        {
          "internalType": "address",
          "name": "",
          "type": "address"
        }
      ],
      "name": "addressToUser",
      "outputs": [
        {
          "internalType": "uint256",
          "name": "",
          "type": "uint256"
        }
      ],
      "stateMutability": "view",
      "type": "function",
      "constant": true
    },
    {
      "inputs": [
        {
          "internalType": "uint256",
          "name": "_shgrequestid",
          "type": "uint256"
        },
        {
          "internalType": "uint256",
          "name": "_bankid",
          "type": "uint256"
        }
      ],
      "name": "approveLoan",
      "outputs": [],
      "stateMutability": "nonpayable",
      "type": "function"
    },
    {
      "inputs": [
        {
          "internalType": "uint256",
          "name": "_requestid",
          "type": "uint256"
        },
        {
          "internalType": "uint256",
          "name": "_shgid",
          "type": "uint256"
        }
      ],
      "name": "approveRequest",
      "outputs": [],
      "stateMutability": "nonpayable",
      "type": "function"
    },
    {
      "inputs": [
        {
          "internalType": "uint256",
          "name": "",
          "type": "uint256"
        }
      ],
      "name": "banks",
      "outputs": [
        {
          "internalType": "uint256",
          "name": "id",
          "type": "uint256"
        },
        {
          "internalType": "string",
          "name": "name",
          "type": "string"
        },
        {
          "internalType": "address",
          "name": "walletAddress",
          "type": "address"
        },
        {
          "internalType": "string",
          "name": "code",
          "type": "string"
        },
        {
          "internalType": "uint256",
          "name": "intrestRate",
          "type": "uint256"
        }
      ],
      "stateMutability": "view",
      "type": "function",
      "constant": true
    },
    {
      "inputs": [
        {
          "internalType": "uint256",
          "name": "_userid",
          "type": "uint256"
        },
        {
          "internalType": "uint256",
          "name": "_requestid",
          "type": "uint256"
        }
      ],
      "name": "deleteRequest",
      "outputs": [],
      "stateMutability": "nonpayable",
      "type": "function"
    },
    {
      "inputs": [
        {
          "internalType": "uint256",
          "name": "userid",
          "type": "uint256"
        }
      ],
      "name": "getAllLoans",
      "outputs": [
        {
          "internalType": "uint256[]",
          "name": "",
          "type": "uint256[]"
        }
      ],
      "stateMutability": "view",
      "type": "function",
      "constant": true
    },
    {
      "inputs": [
        {
          "internalType": "uint256",
          "name": "_shgid",
          "type": "uint256"
        },
        {
          "internalType": "uint256",
          "name": "_loanid",
          "type": "uint256"
        }
      ],
      "name": "getSHGEMI",
      "outputs": [
        {
          "internalType": "uint256",
          "name": "",
          "type": "uint256"
        }
      ],
      "stateMutability": "nonpayable",
      "type": "function"
    },
    {
      "inputs": [
        {
          "internalType": "uint256",
          "name": "shgid",
          "type": "uint256"
        }
      ],
      "name": "getSHGMembers",
      "outputs": [
        {
          "internalType": "uint256[]",
          "name": "",
          "type": "uint256[]"
        }
      ],
      "stateMutability": "view",
      "type": "function",
      "constant": true
    },
    {
      "inputs": [
        {
          "internalType": "uint256",
          "name": "userid",
          "type": "uint256"
        },
        {
          "internalType": "uint256",
          "name": "loanid",
          "type": "uint256"
        }
      ],
      "name": "getUserEMI",
      "outputs": [
        {
          "internalType": "uint256",
          "name": "",
          "type": "uint256"
        }
      ],
      "stateMutability": "nonpayable",
      "type": "function"
    },
    {
      "inputs": [
        {
          "internalType": "uint256",
          "name": "_userid",
          "type": "uint256"
        }
      ],
      "name": "getUserLoanAmount",
      "outputs": [
        {
          "internalType": "uint256",
          "name": "",
          "type": "uint256"
        }
      ],
      "stateMutability": "view",
      "type": "function",
      "constant": true
    },
    {
      "inputs": [
        {
          "internalType": "uint256",
          "name": "_shgrequestid",
          "type": "uint256"
        },
        {
          "internalType": "uint256",
          "name": "_bankid",
          "type": "uint256"
        },
        {
          "internalType": "uint256",
          "name": "_amount",
          "type": "uint256"
        }
      ],
      "name": "grantLoan",
      "outputs": [],
      "stateMutability": "nonpayable",
      "type": "function"
    },
    {
      "inputs": [
        {
          "internalType": "uint256",
          "name": "",
          "type": "uint256"
        }
      ],
      "name": "loans",
      "outputs": [
        {
          "internalType": "uint256",
          "name": "loanId",
          "type": "uint256"
        },
        {
          "internalType": "uint256",
          "name": "lenderId",
          "type": "uint256"
        },
        {
          "internalType": "uint256",
          "name": "amount",
          "type": "uint256"
        },
        {
          "internalType": "uint256",
          "name": "lendeeId",
          "type": "uint256"
        },
        {
          "internalType": "uint256",
          "name": "intrest",
          "type": "uint256"
        },
        {
          "internalType": "uint256",
          "name": "loanTime",
          "type": "uint256"
        },
        {
          "internalType": "uint256",
          "name": "date",
          "type": "uint256"
        },
        {
          "internalType": "uint256",
          "name": "lastEMI",
          "type": "uint256"
        }
      ],
      "stateMutability": "view",
      "type": "function",
      "constant": true
    },
    {
      "inputs": [],
      "name": "login",
      "outputs": [
        {
          "internalType": "bool",
          "name": "",
          "type": "bool"
        }
      ],
      "stateMutability": "view",
      "type": "function",
      "constant": true
    },
    {
      "inputs": [
        {
          "internalType": "uint256",
          "name": "_shgid",
          "type": "uint256"
        },
        {
          "internalType": "uint256",
          "name": "_userid",
          "type": "uint256"
        },
        {
          "internalType": "uint256",
          "name": "_amount",
          "type": "uint256"
        },
        {
          "internalType": "string",
          "name": "_description",
          "type": "string"
        },
        {
          "internalType": "uint256",
          "name": "_loanTime",
          "type": "uint256"
        }
      ],
      "name": "makeRequest",
      "outputs": [],
      "stateMutability": "nonpayable",
      "type": "function"
    },
    {
      "inputs": [
        {
          "internalType": "uint256",
          "name": "_userid",
          "type": "uint256"
        },
        {
          "internalType": "uint256",
          "name": "_loanid",
          "type": "uint256"
        },
        {
          "internalType": "uint256",
          "name": "_amount",
          "type": "uint256"
        }
      ],
      "name": "payEMI",
      "outputs": [],
      "stateMutability": "payable",
      "type": "function",
      "payable": true
    },
    {
      "inputs": [
        {
          "internalType": "uint256",
          "name": "userid",
          "type": "uint256"
        },
        {
          "internalType": "uint256",
          "name": "shgid",
          "type": "uint256"
        }
      ],
      "name": "removeSHGMember",
      "outputs": [],
      "stateMutability": "nonpayable",
      "type": "function"
    },
    {
      "inputs": [
        {
          "internalType": "uint256",
          "name": "_requestid",
          "type": "uint256"
        }
      ],
      "name": "sendGrant",
      "outputs": [],
      "stateMutability": "nonpayable",
      "type": "function"
    },
    {
      "inputs": [
        {
          "internalType": "uint256",
          "name": "_shgid",
          "type": "uint256"
        },
        {
          "internalType": "uint256",
          "name": "_amount",
          "type": "uint256"
        },
        {
          "internalType": "uint256",
          "name": "_loanTime",
          "type": "uint256"
        }
      ],
      "name": "sendRequestToBank",
      "outputs": [],
      "stateMutability": "nonpayable",
      "type": "function"
    },
    {
      "inputs": [
        {
          "internalType": "uint256",
          "name": "_bankid",
          "type": "uint256"
        },
        {
          "internalType": "uint256",
          "name": "_requestid",
          "type": "uint256"
        },
        {
          "internalType": "uint256",
          "name": "_amount",
          "type": "uint256"
        }
      ],
      "name": "shgLoan",
      "outputs": [],
      "stateMutability": "payable",
      "type": "function",
      "payable": true
    },
    {
      "inputs": [
        {
          "internalType": "uint256",
          "name": "_shgid",
          "type": "uint256"
        },
        {
          "internalType": "uint256",
          "name": "_loanid",
          "type": "uint256"
        },
        {
          "internalType": "uint256",
          "name": "_amount",
          "type": "uint256"
        }
      ],
      "name": "shgPayEMI",
      "outputs": [],
      "stateMutability": "nonpayable",
      "type": "function"
    },
    {
      "inputs": [
        {
          "internalType": "uint256",
          "name": "",
          "type": "uint256"
        }
      ],
      "name": "shgRequests",
      "outputs": [
        {
          "internalType": "uint256",
          "name": "requestid",
          "type": "uint256"
        },
        {
          "internalType": "uint256",
          "name": "shgid",
          "type": "uint256"
        },
        {
          "internalType": "uint256",
          "name": "amount",
          "type": "uint256"
        },
        {
          "internalType": "uint256",
          "name": "loanTime",
          "type": "uint256"
        },
        {
          "internalType": "enum structs.RequestStatus",
          "name": "status",
          "type": "uint8"
        }
      ],
      "stateMutability": "view",
      "type": "function",
      "constant": true
    },
    {
      "inputs": [
        {
          "internalType": "uint256",
          "name": "",
          "type": "uint256"
        }
      ],
      "name": "shgs",
      "outputs": [
        {
          "internalType": "uint256",
          "name": "id",
          "type": "uint256"
        },
        {
          "internalType": "string",
          "name": "name",
          "type": "string"
        },
        {
          "components": [
            {
              "internalType": "string",
              "name": "state",
              "type": "string"
            },
            {
              "internalType": "string",
              "name": "district",
              "type": "string"
            },
            {
              "internalType": "string",
              "name": "blockName",
              "type": "string"
            },
            {
              "internalType": "string",
              "name": "panchyatName",
              "type": "string"
            },
            {
              "internalType": "string",
              "name": "villageName",
              "type": "string"
            }
          ],
          "internalType": "struct structs.Location",
          "name": "location",
          "type": "tuple"
        },
        {
          "internalType": "string",
          "name": "dateOfFormation",
          "type": "string"
        },
        {
          "internalType": "uint256",
          "name": "currentBalance",
          "type": "uint256"
        },
        {
          "internalType": "uint256",
          "name": "owedBalance",
          "type": "uint256"
        },
        {
          "internalType": "uint256",
          "name": "baseIntrest",
          "type": "uint256"
        }
      ],
      "stateMutability": "view",
      "type": "function",
      "constant": true
    },
    {
      "inputs": [
        {
          "internalType": "uint256",
          "name": "id",
          "type": "uint256"
        },
        {
          "internalType": "enum structs.UserType",
          "name": "updatedType",
          "type": "uint8"
        }
      ],
      "name": "updateMemberRole",
      "outputs": [],
      "stateMutability": "nonpayable",
      "type": "function"
    },
    {
      "inputs": [
        {
          "internalType": "uint256",
          "name": "",
          "type": "uint256"
        }
      ],
      "name": "userRequests",
      "outputs": [
        {
          "internalType": "uint256",
          "name": "requestId",
          "type": "uint256"
        },
        {
          "internalType": "uint256",
          "name": "userId",
          "type": "uint256"
        },
        {
          "internalType": "uint256",
          "name": "amount",
          "type": "uint256"
        },
        {
          "internalType": "string",
          "name": "description",
          "type": "string"
        },
        {
          "internalType": "uint256",
          "name": "SHGId",
          "type": "uint256"
        },
        {
          "internalType": "enum structs.RequestStatus",
          "name": "status",
          "type": "uint8"
        },
        {
          "internalType": "uint256",
          "name": "loanTime",
          "type": "uint256"
        }
      ],
      "stateMutability": "view",
      "type": "function",
      "constant": true
    },
    {
      "inputs": [
        {
          "internalType": "uint256",
          "name": "",
          "type": "uint256"
        }
      ],
      "name": "users",
      "outputs": [
        {
          "internalType": "uint256",
          "name": "id",
          "type": "uint256"
        },
        {
          "internalType": "string",
          "name": "name",
          "type": "string"
        },
        {
          "internalType": "string",
          "name": "aadhar",
          "type": "string"
        },
        {
          "internalType": "uint256",
          "name": "mobno",
          "type": "uint256"
        },
        {
          "internalType": "string",
          "name": "fatherName",
          "type": "string"
        },
        {
          "internalType": "address",
          "name": "walletAddress",
          "type": "address"
        },
        {
          "internalType": "uint256",
          "name": "shgid",
          "type": "uint256"
        },
        {
          "internalType": "enum structs.UserType",
          "name": "userType",
          "type": "uint8"
        },
        {
          "internalType": "enum structs.Gender",
          "name": "gender",
          "type": "uint8"
        },
        {
          "components": [
            {
              "internalType": "string",
              "name": "state",
              "type": "string"
            },
            {
              "internalType": "string",
              "name": "district",
              "type": "string"
            },
            {
              "internalType": "string",
              "name": "blockName",
              "type": "string"
            },
            {
              "internalType": "string",
              "name": "panchyatName",
              "type": "string"
            },
            {
              "internalType": "string",
              "name": "villageName",
              "type": "string"
            }
          ],
          "internalType": "struct structs.Location",
          "name": "location",
          "type": "tuple"
        }
      ],
      "stateMutability": "view",
      "type": "function",
      "constant": true
    }
  ],
  "bytecode": "0x608060405234801561001057600080fd5b5033600f60006101000a81548173ffffffffffffffffffffffffffffffffffffffff021916908373ffffffffffffffffffffffffffffffffffffffff1602179055506151ba806100616000396000f3fe6080604052600436106101d75760003560e01c80634f269c9211610102578063af08a94f11610095578063db223b4c11610064578063db223b4c14610724578063e1ec3c681461074d578063edf5388614610791578063f736ae43146107ce576101d7565b8063af08a94f14610656578063b34e97e814610693578063bc1e72ad146106be578063cfcb4b2f146106e7576101d7565b80637d550bb3116100d15780637d550bb31461059857806394169656146105c15780639bbc9ab114610604578063a6e90a581461062d576101d7565b80634f269c92146104cc57806361c91b70146104f5578063769d0e16146105325780637a6464921461056f576101d7565b806326271cf21161017a57806339d8bed11161014957806339d8bed11461040d5780633ae0058f146104365780633c5657571461047357806342f5f815146104b0576101d7565b806326271cf2146103325780632c0a90a9146103755780632e1310461461039e578063365b98b2146103c7576101d7565b8063089511f7116101b6578063089511f71461026f57806314795ce3146102ac578063249c4bff146102d5578063257a170b146102f1576101d7565b806285ae2b146101dc578063021af3971461021d5780630227f43514610246575b600080fd5b3480156101e857600080fd5b5061020360048036038101906101fe9190614310565b6107f7565b60405161021495949392919061485c565b60405180910390f35b34801561022957600080fd5b50610244600480360381019061023f91906143b1565b61095d565b005b34801561025257600080fd5b5061026d60048036038101906102689190614400565b610b34565b005b34801561027b57600080fd5b5061029660048036038101906102919190614310565b610d4a565b6040516102a39190614841565b60405180910390f35b3480156102b857600080fd5b506102d360048036038101906102ce91906140e2565b610e31565b005b6102ef60048036038101906102ea91906143b1565b611011565b005b3480156102fd57600080fd5b5061031860048036038101906103139190614310565b61121a565b604051610329959493929190614a6f565b60405180910390f35b34801561033e57600080fd5b5061035960048036038101906103549190614310565b61125d565b60405161036c9796959493929190614975565b60405180910390f35b34801561038157600080fd5b5061039c60048036038101906103979190614375565b611693565b005b3480156103aa57600080fd5b506103c560048036038101906103c09190614175565b6117e9565b005b3480156103d357600080fd5b506103ee60048036038101906103e99190614310565b611d87565b6040516104049a999897969594939291906148bd565b60405180910390f35b34801561041957600080fd5b50610434600480360381019061042f9190614375565b612291565b005b34801561044257600080fd5b5061045d60048036038101906104589190613f09565b6123a7565b60405161046a9190614841565b60405180910390f35b34801561047f57600080fd5b5061049a60048036038101906104959190614375565b6123bf565b6040516104a79190614841565b60405180910390f35b6104ca60048036038101906104c591906143b1565b6124dc565b005b3480156104d857600080fd5b506104f360048036038101906104ee9190614339565b6125ba565b005b34801561050157600080fd5b5061051c60048036038101906105179190613f09565b612621565b6040516105299190614841565b60405180910390f35b34801561053e57600080fd5b5061055960048036038101906105549190614375565b612639565b6040516105669190614841565b60405180910390f35b34801561057b57600080fd5b5061059660048036038101906105919190614375565b612757565b005b3480156105a457600080fd5b506105bf60048036038101906105ba91906143b1565b6127e6565b005b3480156105cd57600080fd5b506105e860048036038101906105e39190614310565b6128c5565b6040516105fb97969594939291906149f9565b60405180910390f35b34801561061057600080fd5b5061062b60048036038101906106269190614310565b61299c565b005b34801561063957600080fd5b50610654600480360381019061064f9190614375565b612e44565b005b34801561066257600080fd5b5061067d60048036038101906106789190614310565b612fd6565b60405161068a9190614744565b60405180910390f35b34801561069f57600080fd5b506106a8613044565b6040516106b59190614766565b60405180910390f35b3480156106ca57600080fd5b506106e560048036038101906106e09190613f32565b6130ee565b005b3480156106f357600080fd5b5061070e60048036038101906107099190614310565b613638565b60405161071b9190614744565b60405180910390f35b34801561073057600080fd5b5061074b600480360381019061074691906143b1565b6136ca565b005b34801561075957600080fd5b50610774600480360381019061076f9190614310565b6137e4565b604051610788989796959493929190614ac2565b60405180910390f35b34801561079d57600080fd5b506107b860048036038101906107b39190613f09565b61382c565b6040516107c59190614841565b60405180910390f35b3480156107da57600080fd5b506107f560048036038101906107f09190614375565b613844565b005b600260205280600052604060002060009150905080600001549080600101805461082090614e36565b80601f016020809104026020016040519081016040528092919081815260200182805461084c90614e36565b80156108995780601f1061086e57610100808354040283529160200191610899565b820191906000526020600020905b81548152906001019060200180831161087c57829003601f168201915b5050505050908060020160009054906101000a900473ffffffffffffffffffffffffffffffffffffffff16908060030180546108d490614e36565b80601f016020809104026020016040519081016040528092919081815260200182805461090090614e36565b801561094d5780601f106109225761010080835404028352916020019161094d565b820191906000526020600020905b81548152906001019060200180831161093057829003601f168201915b5050505050908060040154905085565b8260006001600083815260200190815260200160002060000154141561098257600080fd5b83600080600360003373ffffffffffffffffffffffffffffffffffffffff1673ffffffffffffffffffffffffffffffffffffffff16815260200190815260200160002054815260200190815260200160002060080154146109e257600080fd5b6000600c60008154809291906109f790614e99565b9190505590506040518060a00160405280828152602001868152602001858152602001848152602001600380811115610a59577f4e487b7100000000000000000000000000000000000000000000000000000000600052602160045260246000fd5b815250600660008381526020019081526020016000206000820151816000015560208201518160010155604082015181600201556060820151816003015560808201518160040160006101000a81548160ff02191690836003811115610ae8577f4e487b7100000000000000000000000000000000000000000000000000000000600052602160045260246000fd5b021790555090505060016000868152602001908152602001600020600c018190806001815401808255809150506001900390600052602060002001600090919091909150555050505050565b6000600b60008154610b4590614e99565b9190508190559050604051806101000160405280828152602001868152602001858152602001848152602001878152602001600380811115610bb0577f4e487b7100000000000000000000000000000000000000000000000000000000600052602160045260246000fd5b8152602001838152602001600067ffffffffffffffff811115610bfc577f4e487b7100000000000000000000000000000000000000000000000000000000600052604160045260246000fd5b604051908082528060200260200182016040528015610c2a5781602001602082028036833780820191505090505b50815250600560008381526020019081526020016000206000820151816000015560208201518160010155604082015181600201556060820151816003019080519060200190610c7b929190613c66565b506080820151816004015560a08201518160050160006101000a81548160ff02191690836003811115610cd7577f4e487b7100000000000000000000000000000000000000000000000000000000600052602160045260246000fd5b021790555060c0820151816006015560e0820151816007019080519060200190610d02929190613cec565b50905050600080868152602001908152602001600020600701819080600181540180825580915050600190039060005260206000200160009091909190915055505050505050565b600080600090506000806000858152602001908152602001600020600601805480602002602001604051908101604052809291908181526020018280548015610db257602002820191906000526020600020905b815481526020019060010190808311610d9e575b5050505050905060005b8151811015610e2657818181518110610dfe577f4e487b7100000000000000000000000000000000000000000000000000000000600052603260045260246000fd5b602002602001015183610e119190614c28565b92508080610e1e90614e99565b915050610dbc565b508192505050919050565b6000600d60008154610e4290614e99565b91905081905590506040518060c001604052808281526020018681526020018573ffffffffffffffffffffffffffffffffffffffff168152602001848152602001838152602001600067ffffffffffffffff811115610eca577f4e487b7100000000000000000000000000000000000000000000000000000000600052604160045260246000fd5b604051908082528060200260200182016040528015610ef85781602001602082028036833780820191505090505b5081525060026000838152602001908152602001600020600082015181600001556020820151816001019080519060200190610f35929190613c66565b5060408201518160020160006101000a81548173ffffffffffffffffffffffffffffffffffffffff021916908373ffffffffffffffffffffffffffffffffffffffff1602179055506060820151816003019080519060200190610f99929190613c66565b506080820151816004015560a0820151816005019080519060200190610fc0929190613cec565b50905050600d54600860008673ffffffffffffffffffffffffffffffffffffffff1673ffffffffffffffffffffffffffffffffffffffff168152602001908152602001600020819055505050505050565b8260006002600083815260200190815260200160002060000154141561103657600080fd5b6000604051806101000160405280600e6000815461105390614e99565b9190508190558152602001600660008781526020019081526020016000206001015481526020018481526020018681526020016002600088815260200190815260200160002060040154815260200160066000878152602001908152602001600020600301548152602001428152602001600081525090506001600060066000878152602001908152602001600020600101548152602001908152602001600020600c01600e5490806001815401808255809150506001900390600052602060002001600090919091909150553073ffffffffffffffffffffffffffffffffffffffff166108fc849081150290604051600060405180830381858888f19350505050158015611166573d6000803e3d6000fd5b5082600160006006600088815260200190815260200160002060010154815260200190815260200160002060090160008282546111a39190614c28565b925050819055508060046000600e548152602001908152602001600020600082015181600001556020820151816001015560408201518160020155606082015181600301556080820151816004015560a0820151816005015560c0820151816006015560e082015181600701559050505050505050565b60066020528060005260406000206000915090508060000154908060010154908060020154908060030154908060040160009054906101000a900460ff16905085565b600160205280600052604060002060009150905080600001549080600201805461128690614e36565b80601f01602080910402602001604051908101604052809291908181526020018280546112b290614e36565b80156112ff5780601f106112d4576101008083540402835291602001916112ff565b820191906000526020600020905b8154815290600101906020018083116112e257829003601f168201915b505050505090806003016040518060a001604052908160008201805461132490614e36565b80601f016020809104026020016040519081016040528092919081815260200182805461135090614e36565b801561139d5780601f106113725761010080835404028352916020019161139d565b820191906000526020600020905b81548152906001019060200180831161138057829003601f168201915b505050505081526020016001820180546113b690614e36565b80601f01602080910402602001604051908101604052809291908181526020018280546113e290614e36565b801561142f5780601f106114045761010080835404028352916020019161142f565b820191906000526020600020905b81548152906001019060200180831161141257829003601f168201915b5050505050815260200160028201805461144890614e36565b80601f016020809104026020016040519081016040528092919081815260200182805461147490614e36565b80156114c15780601f10611496576101008083540402835291602001916114c1565b820191906000526020600020905b8154815290600101906020018083116114a457829003601f168201915b505050505081526020016003820180546114da90614e36565b80601f016020809104026020016040519081016040528092919081815260200182805461150690614e36565b80156115535780601f1061152857610100808354040283529160200191611553565b820191906000526020600020905b81548152906001019060200180831161153657829003601f168201915b5050505050815260200160048201805461156c90614e36565b80601f016020809104026020016040519081016040528092919081815260200182805461159890614e36565b80156115e55780601f106115ba576101008083540402835291602001916115e5565b820191906000526020600020905b8154815290600101906020018083116115c857829003601f168201915b505050505081525050908060080180546115fe90614e36565b80601f016020809104026020016040519081016040528092919081815260200182805461162a90614e36565b80156116775780601f1061164c57610100808354040283529160200191611677565b820191906000526020600020905b81548152906001019060200180831161165a57829003601f168201915b50505050509080600901549080600a01549080600d0154905087565b806000600160008381526020019081526020016000206000015414156116b857600080fd5b6000600560008581526020019081526020016000209050828160040154146116df57600080fd5b6116e88461394e565b6116f157600080fd5b80600701600360003373ffffffffffffffffffffffffffffffffffffffff1673ffffffffffffffffffffffffffffffffffffffff168152602001908152602001600020549080600181540180825580915050600190039060005260206000200160009091909190915055600260016000858152602001908152602001600020600101805490506117819190614c7e565b816007018054905011156117e35760008160050160006101000a81548160ff021916908360038111156117dd577f4e487b7100000000000000000000000000000000000000000000000000000000600052602160045260246000fd5b02179055505b50505050565b3373ffffffffffffffffffffffffffffffffffffffff16600080600360003373ffffffffffffffffffffffffffffffffffffffff1673ffffffffffffffffffffffffffffffffffffffff16815260200190815260200160002054815260200190815260200160002060050160009054906101000a900473ffffffffffffffffffffffffffffffffffffffff1673ffffffffffffffffffffffffffffffffffffffff1614156118cc576040517f08c379a00000000000000000000000000000000000000000000000000000000081526004016118c3906147a1565b60405180910390fd5b60006009600081546118dd90614e99565b919050819055905080600360003373ffffffffffffffffffffffffffffffffffffffff1673ffffffffffffffffffffffffffffffffffffffff1681526020019081526020016000208190555060006040518060a001604052808881526020018781526020018681526020018581526020018481525090506040518061018001604052806009600081548092919061197390614e99565b9190505581526020018d81526020018c81526020018b81526020018a81526020013373ffffffffffffffffffffffffffffffffffffffff168152602001600067ffffffffffffffff8111156119f1577f4e487b7100000000000000000000000000000000000000000000000000000000600052604160045260246000fd5b604051908082528060200260200182016040528015611a1f5781602001602082028036833780820191505090505b508152602001600067ffffffffffffffff811115611a66577f4e487b7100000000000000000000000000000000000000000000000000000000600052604160045260246000fd5b604051908082528060200260200182016040528015611a945781602001602082028036833780820191505090505b5081526020016000815260200160046005811115611adb577f4e487b7100000000000000000000000000000000000000000000000000000000600052602160045260246000fd5b8152602001896002811115611b19577f4e487b7100000000000000000000000000000000000000000000000000000000600052602160045260246000fd5b815260200182815250600080848152602001908152602001600020600082015181600001556020820151816001019080519060200190611b5a929190613c66565b506040820151816002019080519060200190611b77929190613c66565b50606082015181600301556080820151816004019080519060200190611b9e929190613c66565b5060a08201518160050160006101000a81548173ffffffffffffffffffffffffffffffffffffffff021916908373ffffffffffffffffffffffffffffffffffffffff16021790555060c0820151816006019080519060200190611c02929190613cec565b5060e0820151816007019080519060200190611c1f929190613cec565b5061010082015181600801556101208201518160090160006101000a81548160ff02191690836005811115611c7d577f4e487b7100000000000000000000000000000000000000000000000000000000600052602160045260246000fd5b02179055506101408201518160090160016101000a81548160ff02191690836002811115611cd4577f4e487b7100000000000000000000000000000000000000000000000000000000600052602160045260246000fd5b021790555061016082015181600a016000820151816000019080519060200190611cff929190613c66565b506020820151816001019080519060200190611d1c929190613c66565b506040820151816002019080519060200190611d39929190613c66565b506060820151816003019080519060200190611d56929190613c66565b506080820151816004019080519060200190611d73929190613c66565b505050905050505050505050505050505050565b6000602052806000526040600020600091509050806000015490806001018054611db090614e36565b80601f0160208091040260200160405190810160405280929190818152602001828054611ddc90614e36565b8015611e295780601f10611dfe57610100808354040283529160200191611e29565b820191906000526020600020905b815481529060010190602001808311611e0c57829003601f168201915b505050505090806002018054611e3e90614e36565b80601f0160208091040260200160405190810160405280929190818152602001828054611e6a90614e36565b8015611eb75780601f10611e8c57610100808354040283529160200191611eb7565b820191906000526020600020905b815481529060010190602001808311611e9a57829003601f168201915b505050505090806003015490806004018054611ed290614e36565b80601f0160208091040260200160405190810160405280929190818152602001828054611efe90614e36565b8015611f4b5780601f10611f2057610100808354040283529160200191611f4b565b820191906000526020600020905b815481529060010190602001808311611f2e57829003601f168201915b5050505050908060050160009054906101000a900473ffffffffffffffffffffffffffffffffffffffff16908060080154908060090160009054906101000a900460ff16908060090160019054906101000a900460ff169080600a016040518060a0016040529081600082018054611fc290614e36565b80601f0160208091040260200160405190810160405280929190818152602001828054611fee90614e36565b801561203b5780601f106120105761010080835404028352916020019161203b565b820191906000526020600020905b81548152906001019060200180831161201e57829003601f168201915b5050505050815260200160018201805461205490614e36565b80601f016020809104026020016040519081016040528092919081815260200182805461208090614e36565b80156120cd5780601f106120a2576101008083540402835291602001916120cd565b820191906000526020600020905b8154815290600101906020018083116120b057829003601f168201915b505050505081526020016002820180546120e690614e36565b80601f016020809104026020016040519081016040528092919081815260200182805461211290614e36565b801561215f5780601f106121345761010080835404028352916020019161215f565b820191906000526020600020905b81548152906001019060200180831161214257829003601f168201915b5050505050815260200160038201805461217890614e36565b80601f01602080910402602001604051908101604052809291908181526020018280546121a490614e36565b80156121f15780601f106121c6576101008083540402835291602001916121f1565b820191906000526020600020905b8154815290600101906020018083116121d457829003601f168201915b5050505050815260200160048201805461220a90614e36565b80601f016020809104026020016040519081016040528092919081815260200182805461223690614e36565b80156122835780601f1061225857610100808354040283529160200191612283565b820191906000526020600020905b81548152906001019060200180831161226657829003601f168201915b50505050508152505090508a565b8060008084815260200190815260200160002060080154146122e8576040517f08c379a00000000000000000000000000000000000000000000000000000000081526004016122df906147e1565b60405180910390fd5b8060008084815260200190815260200160002060080181905550600360008084815260200190815260200160002060090160006101000a81548160ff02191690836005811115612361577f4e487b7100000000000000000000000000000000000000000000000000000000600052602160045260246000fd5b0217905550600160008281526020019081526020016000206001018290806001815401808255809150506001900390600052602060002001600090919091909150555050565b60076020528060005260406000206000915090505481565b60008260008060008381526020019081526020016000206000015414156123e557600080fd5b60006004600085815260200190815260200160002090506000601e603c8060188560070154426124159190614d09565b61241f9190614c7e565b6124299190614caf565b6124339190614caf565b61243d9190614caf565b90506000811161244c57600080fd5b60008260020154905060008360040154905060008460050154905060008382600c6124779190614caf565b6124819190614d09565b600c6064856124909190614c7e565b61249a9190614caf565b60016124a69190614c28565b856124b19190614caf565b1890508086600201546124c49190614d09565b86600201819055508097505050505050505092915050565b82600080600083815260200190815260200160002060000154141561250057600080fd5b600061250c85856123bf565b905082811461251a57600080fd5b60006004600086815260200190815260200160002090503073ffffffffffffffffffffffffffffffffffffffff166108fc859081150290604051600060405180830381858888f19350505050158015612577573d6000803e3d6000fd5b5083600160008360030154815260200190815260200160002060090160008282546125a29190614c28565b92505081905550428160070181905550505050505050565b8060008084815260200190815260200160002060090160006101000a81548160ff02191690836005811115612618577f4e487b7100000000000000000000000000000000000000000000000000000000600052602160045260246000fd5b02179055505050565b60086020528060005260406000206000915090505481565b60008260006001600083815260200190815260200160002060000154141561266057600080fd5b60006004600085815260200190815260200160002090506000601e603c8060188560070154426126909190614d09565b61269a9190614c7e565b6126a49190614caf565b6126ae9190614caf565b6126b89190614caf565b9050600081116126c757600080fd5b60008260020154905060008360040154905060008460050154905060008382600c6126f29190614caf565b6126fc9190614d09565b600c60648561270b9190614c7e565b6127159190614caf565b60016127219190614c28565b8561272c9190614caf565b18905080866002015461273f9190614d09565b86600201819055508097505050505050505092915050565b8060006002600083815260200190815260200160002060000154141561277c57600080fd5b60006006600085815260200190815260200160002060040160006101000a81548160ff021916908360038111156127dc577f4e487b7100000000000000000000000000000000000000000000000000000000600052602160045260246000fd5b0217905550505050565b8260006001600083815260200190815260200160002060000154141561280b57600080fd5b60006128178585612639565b905082811461282557600080fd5b60006004600086815260200190815260200160002090503073ffffffffffffffffffffffffffffffffffffffff166108fc859081150290604051600060405180830381858888f19350505050158015612882573d6000803e3d6000fd5b5083600160008360030154815260200190815260200160002060090160008282546128ad9190614c28565b92505081905550428160070181905550505050505050565b60056020528060005260406000206000915090508060000154908060010154908060020154908060030180546128fa90614e36565b80601f016020809104026020016040519081016040528092919081815260200182805461292690614e36565b80156129735780601f1061294857610100808354040283529160200191612973565b820191906000526020600020905b81548152906001019060200180831161295657829003601f168201915b5050505050908060040154908060050160009054906101000a900460ff16908060060154905087565b600260058111156129d6577f4e487b7100000000000000000000000000000000000000000000000000000000600052602160045260246000fd5b600080600360003373ffffffffffffffffffffffffffffffffffffffff1673ffffffffffffffffffffffffffffffffffffffff16815260200190815260200160002054815260200190815260200160002060090160009054906101000a900460ff166005811115612a70577f4e487b7100000000000000000000000000000000000000000000000000000000600052602160045260246000fd5b14612ab0576040517f08c379a0000000000000000000000000000000000000000000000000000000008152600401612aa790614821565b60405180910390fd5b60006003811115612aea577f4e487b7100000000000000000000000000000000000000000000000000000000600052602160045260246000fd5b6005600083815260200190815260200160002060050160009054906101000a900460ff166003811115612b46577f4e487b7100000000000000000000000000000000000000000000000000000000600052602160045260246000fd5b14612b86576040517f08c379a0000000000000000000000000000000000000000000000000000000008152600401612b7d90614801565b60405180910390fd5b600060056000838152602001908152602001600020905060018160050160006101000a81548160ff02191690836003811115612beb577f4e487b7100000000000000000000000000000000000000000000000000000000600052602160045260246000fd5b02179055506000604051806101000160405280600e60008154612c0d90614e99565b91905081905581526020018360040154815260200183600201548152602001836001015481526020016001600085600401548152602001908152602001600020600d0154815260200183600601548152602001428152602001600081525090508060046000600e548152602001908152602001600020600082015181600001556020820151816001015560408201518160020155606082015181600301556080820151816004015560a0820151816005015560c0820151816006015560e082015181600701559050506001600083600401548152602001908152602001600020600b01600e54908060018154018082558091505060019003906000526020600020016000909190919091505560008083600101548152602001908152602001600020600601600e54908060018154018082558091505060019003906000526020600020016000909190919091505581600201546001600084600401548152602001908152602001600020600901541015612d8657600080fd5b6000808360010154815260200190815260200160002060050160009054906101000a900473ffffffffffffffffffffffffffffffffffffffff1673ffffffffffffffffffffffffffffffffffffffff166108fc83600201549081150290604051600060405180830381858888f19350505050158015612e09573d6000803e3d6000fd5b50816002015460016000846004015481526020019081526020016000206009016000828254612e389190614d09565b92505081905550505050565b6000600160008381526020019081526020016000209050612eb781600101805480602002602001604051908101604052809291908181526020018280548015612eac57602002820191906000526020600020905b815481526020019060010190808311612e98575b505050505083613a2c565b612ef6576040517f08c379a0000000000000000000000000000000000000000000000000000000008152600401612eed906147c1565b60405180910390fd5b6000612f5482600101805480602002602001604051908101604052809291908181526020018280548015612f4957602002820191906000526020600020905b815481526020019060010190808311612f35575b505050505085613aba565b90506000612fb483600101805480602002602001604051908101604052809291908181526020018280548015612fa957602002820191906000526020600020905b815481526020019060010190808311612f95575b505050505083613b3b565b905080836001019080519060200190612fce929190613cec565b505050505050565b60606001600083815260200190815260200160002060010180548060200260200160405190810160405280929190818152602001828054801561303857602002820191906000526020600020905b815481526020019060010190808311613024575b50505050509050919050565b60003373ffffffffffffffffffffffffffffffffffffffff16600080600360003373ffffffffffffffffffffffffffffffffffffffff1673ffffffffffffffffffffffffffffffffffffffff16815260200190815260200160002054815260200190815260200160002060050160009054906101000a900473ffffffffffffffffffffffffffffffffffffffff1673ffffffffffffffffffffffffffffffffffffffff1614905090565b60078b511015613133576040517f08c379a000000000000000000000000000000000000000000000000000000000815260040161312a90614781565b60405180910390fd5b6000600a6000815461314490614e99565b919050819055905060006040518060a001604052808a81526020018981526020018881526020018781526020018681525090506040518061014001604052808381526020018e81526020018b81526020018281526020018581526020016000815260200160008152602001600067ffffffffffffffff8111156131f0577f4e487b7100000000000000000000000000000000000000000000000000000000600052604160045260246000fd5b60405190808252806020026020018201604052801561321e5781602001602082028036833780820191505090505b508152602001600067ffffffffffffffff811115613265577f4e487b7100000000000000000000000000000000000000000000000000000000600052604160045260246000fd5b6040519080825280602002602001820160405280156132935781602001602082028036833780820191505090505b50815260200184815250600160008481526020019081526020016000206000820151816000015560208201518160010190805190602001906132d6929190613cec565b5060408201518160020190805190602001906132f3929190613c66565b506060820151816003016000820151816000019080519060200190613319929190613c66565b506020820151816001019080519060200190613336929190613c66565b506040820151816002019080519060200190613353929190613c66565b506060820151816003019080519060200190613370929190613c66565b50608082015181600401908051906020019061338d929190613c66565b50505060808201518160080190805190602001906133ac929190613c66565b5060a0820151816009015560c082015181600a015560e082015181600b0190805190602001906133dd929190613cec565b5061010082015181600c0190805190602001906133fb929190613cec565b5061012082015181600d015590505060005b8d518110156136285760008e8281518110613451577f4e487b7100000000000000000000000000000000000000000000000000000000600052603260045260246000fd5b60200260200101519050600360008083815260200190815260200160002060090160006101000a81548160ff021916908360058111156134ba577f4e487b7100000000000000000000000000000000000000000000000000000000600052602160045260246000fd5b02179055508d81141561352c57600080600083815260200190815260200160002060090160006101000a81548160ff02191690836005811115613526577f4e487b7100000000000000000000000000000000000000000000000000000000600052602160045260246000fd5b02179055505b8c81141561359957600260008083815260200190815260200160002060090160006101000a81548160ff02191690836005811115613593577f4e487b7100000000000000000000000000000000000000000000000000000000600052602160045260246000fd5b02179055505b600a546007600080600085815260200190815260200160002060050160009054906101000a900473ffffffffffffffffffffffffffffffffffffffff1673ffffffffffffffffffffffffffffffffffffffff1673ffffffffffffffffffffffffffffffffffffffff1681526020019081526020016000208190555050808061362090614e99565b91505061340d565b5050505050505050505050505050565b606081600080600083815260200190815260200160002060000154141561365e57600080fd5b6000808481526020019081526020016000206006018054806020026020016040519081016040528092919081815260200182805480156136bd57602002820191906000526020600020905b8154815260200190600101908083116136a9575b5050505050915050919050565b816000600260008381526020019081526020016000206000015414156136ef57600080fd5b3073ffffffffffffffffffffffffffffffffffffffff166108fc839081150290604051600060405180830381858888f19350505050158015613735573d6000803e3d6000fd5b5060016006600086815260200190815260200160002060040160006101000a81548160ff02191690836003811115613796577f4e487b7100000000000000000000000000000000000000000000000000000000600052602160045260246000fd5b021790555081600160006006600088815260200190815260200160002060010154815260200190815260200160002060090160008282546137d79190614c28565b9250508190555050505050565b60046020528060005260406000206000915090508060000154908060010154908060020154908060030154908060040154908060050154908060060154908060070154905088565b60036020528060005260406000206000915090505481565b81600080600083815260200190815260200160002060000154141561386857600080fd5b8260056000848152602001908152602001600020600101541461388a57600080fd5b600080600090505b600b548110156138d55784600560008381526020019081526020016000206001015414156138c2578091506138d5565b80806138cd90614e99565b915050613892565b5060056000828152602001908152602001600020600080820160009055600182016000905560028201600090556003820160006139129190613d39565b60048201600090556005820160006101000a81549060ff021916905560068201600090556007820160006139469190613d79565b505050505050565b60008060056000848152602001908152602001600020600701905060005b8180549050811015613a2057600360003373ffffffffffffffffffffffffffffffffffffffff1673ffffffffffffffffffffffffffffffffffffffff168152602001908152602001600020548282815481106139f1577f4e487b7100000000000000000000000000000000000000000000000000000000600052603260045260246000fd5b90600052602060002001541415613a0d57600092505050613a27565b8080613a1890614e99565b91505061396c565b5060019150505b919050565b600080600090505b60018451613a429190614d09565b811015613aae5782848281518110613a83577f4e487b7100000000000000000000000000000000000000000000000000000000600052603260045260246000fd5b60200260200101511415613a9b576001915050613ab4565b8080613aa690614e99565b915050613a34565b50600090505b92915050565b600080600090505b8351811015613b2f5782848281518110613b05577f4e487b7100000000000000000000000000000000000000000000000000000000600052603260045260246000fd5b60200260200101511415613b1c5780915050613b35565b8080613b2790614e99565b915050613ac2565b50600090505b92915050565b606082518210613b4a57600080fd5b60008290505b60018451613b5e9190614d09565b811015613c0a5783600182613b739190614c28565b81518110613baa577f4e487b7100000000000000000000000000000000000000000000000000000000600052603260045260246000fd5b6020026020010151848281518110613beb577f4e487b7100000000000000000000000000000000000000000000000000000000600052603260045260246000fd5b6020026020010181815250508080613c0290614e99565b915050613b50565b508260018451613c1a9190614d09565b81518110613c51577f4e487b7100000000000000000000000000000000000000000000000000000000600052603260045260246000fd5b60200260200101600081525082905092915050565b828054613c7290614e36565b90600052602060002090601f016020900481019282613c945760008555613cdb565b82601f10613cad57805160ff1916838001178555613cdb565b82800160010185558215613cdb579182015b82811115613cda578251825591602001919060010190613cbf565b5b509050613ce89190613d9a565b5090565b828054828255906000526020600020908101928215613d28579160200282015b82811115613d27578251825591602001919060010190613d0c565b5b509050613d359190613d9a565b5090565b508054613d4590614e36565b6000825580601f10613d575750613d76565b601f016020900490600052602060002090810190613d759190613d9a565b5b50565b5080546000825590600052602060002090810190613d979190613d9a565b50565b5b80821115613db3576000816000905550600101613d9b565b5090565b6000613dca613dc584614b65565b614b40565b90508083825260208201905082856020860282011115613de957600080fd5b60005b85811015613e195781613dff8882613ef4565b845260208401935060208301925050600181019050613dec565b5050509392505050565b6000613e36613e3184614b91565b614b40565b905082815260208101848484011115613e4e57600080fd5b613e59848285614df4565b509392505050565b600081359050613e7081615136565b92915050565b600082601f830112613e8757600080fd5b8135613e97848260208601613db7565b91505092915050565b600081359050613eaf8161514d565b92915050565b600081359050613ec48161515d565b92915050565b600082601f830112613edb57600080fd5b8135613eeb848260208601613e23565b91505092915050565b600081359050613f038161516d565b92915050565b600060208284031215613f1b57600080fd5b6000613f2984828501613e61565b91505092915050565b60008060008060008060008060008060006101608c8e031215613f5457600080fd5b60008c013567ffffffffffffffff811115613f6e57600080fd5b613f7a8e828f01613e76565b9b50506020613f8b8e828f01613ef4565b9a50506040613f9c8e828f01613ef4565b99505060608c013567ffffffffffffffff811115613fb957600080fd5b613fc58e828f01613eca565b98505060808c013567ffffffffffffffff811115613fe257600080fd5b613fee8e828f01613eca565b97505060a08c013567ffffffffffffffff81111561400b57600080fd5b6140178e828f01613eca565b96505060c08c013567ffffffffffffffff81111561403457600080fd5b6140408e828f01613eca565b95505060e08c013567ffffffffffffffff81111561405d57600080fd5b6140698e828f01613eca565b9450506101008c013567ffffffffffffffff81111561408757600080fd5b6140938e828f01613eca565b9350506101208c013567ffffffffffffffff8111156140b157600080fd5b6140bd8e828f01613eca565b9250506101406140cf8e828f01613ef4565b9150509295989b509295989b9093969950565b600080600080608085870312156140f857600080fd5b600085013567ffffffffffffffff81111561411257600080fd5b61411e87828801613eca565b945050602061412f87828801613e61565b935050604085013567ffffffffffffffff81111561414c57600080fd5b61415887828801613eca565b925050606061416987828801613ef4565b91505092959194509250565b6000806000806000806000806000806101408b8d03121561419557600080fd5b60008b013567ffffffffffffffff8111156141af57600080fd5b6141bb8d828e01613eca565b9a505060208b013567ffffffffffffffff8111156141d857600080fd5b6141e48d828e01613eca565b99505060406141f58d828e01613ef4565b98505060608b013567ffffffffffffffff81111561421257600080fd5b61421e8d828e01613eca565b975050608061422f8d828e01613ea0565b96505060a08b013567ffffffffffffffff81111561424c57600080fd5b6142588d828e01613eca565b95505060c08b013567ffffffffffffffff81111561427557600080fd5b6142818d828e01613eca565b94505060e08b013567ffffffffffffffff81111561429e57600080fd5b6142aa8d828e01613eca565b9350506101008b013567ffffffffffffffff8111156142c857600080fd5b6142d48d828e01613eca565b9250506101208b013567ffffffffffffffff8111156142f257600080fd5b6142fe8d828e01613eca565b9150509295989b9194979a5092959850565b60006020828403121561432257600080fd5b600061433084828501613ef4565b91505092915050565b6000806040838503121561434c57600080fd5b600061435a85828601613ef4565b925050602061436b85828601613eb5565b9150509250929050565b6000806040838503121561438857600080fd5b600061439685828601613ef4565b92505060206143a785828601613ef4565b9150509250929050565b6000806000606084860312156143c657600080fd5b60006143d486828701613ef4565b93505060206143e586828701613ef4565b92505060406143f686828701613ef4565b9150509250925092565b600080600080600060a0868803121561441857600080fd5b600061442688828901613ef4565b955050602061443788828901613ef4565b945050604061444888828901613ef4565b935050606086013567ffffffffffffffff81111561446557600080fd5b61447188828901613eca565b925050608061448288828901613ef4565b9150509295509295909350565b600061449b8383614726565b60208301905092915050565b6144b081614d3d565b82525050565b60006144c182614bd2565b6144cb8185614bf5565b93506144d683614bc2565b8060005b838110156145075781516144ee888261448f565b97506144f983614be8565b9250506001810190506144da565b5085935050505092915050565b61451d81614d4f565b82525050565b61452c81614dbe565b82525050565b61453b81614dd0565b82525050565b61454a81614de2565b82525050565b600061455b82614bdd565b6145658185614c06565b9350614575818560208601614e03565b61457e81614fcd565b840191505092915050565b600061459482614bdd565b61459e8185614c17565b93506145ae818560208601614e03565b6145b781614fcd565b840191505092915050565b60006145cf601a83614c17565b91506145da82614fde565b602082019050919050565b60006145f2601283614c17565b91506145fd82615007565b602082019050919050565b6000614615602583614c17565b915061462082615030565b604082019050919050565b6000614638601283614c17565b91506146438261507f565b602082019050919050565b600061465b601283614c17565b9150614666826150a8565b602082019050919050565b600061467e601383614c17565b9150614689826150d1565b602082019050919050565b600060a08301600083015184820360008601526146b18282614550565b915050602083015184820360208601526146cb8282614550565b915050604083015184820360408601526146e58282614550565b915050606083015184820360608601526146ff8282614550565b915050608083015184820360808601526147198282614550565b9150508091505092915050565b61472f81614db4565b82525050565b61473e81614db4565b82525050565b6000602082019050818103600083015261475e81846144b6565b905092915050565b600060208201905061477b6000830184614514565b92915050565b6000602082019050818103600083015261479a816145c2565b9050919050565b600060208201905081810360008301526147ba816145e5565b9050919050565b600060208201905081810360008301526147da81614608565b9050919050565b600060208201905081810360008301526147fa8161462b565b9050919050565b6000602082019050818103600083015261481a8161464e565b9050919050565b6000602082019050818103600083015261483a81614671565b9050919050565b60006020820190506148566000830184614735565b92915050565b600060a0820190506148716000830188614735565b81810360208301526148838187614589565b905061489260408301866144a7565b81810360608301526148a48185614589565b90506148b36080830184614735565b9695505050505050565b6000610140820190506148d3600083018d614735565b81810360208301526148e5818c614589565b905081810360408301526148f9818b614589565b9050614908606083018a614735565b818103608083015261491a8189614589565b905061492960a08301886144a7565b61493660c0830187614735565b61494360e0830186614541565b614951610100830185614523565b8181036101208301526149648184614694565b90509b9a5050505050505050505050565b600060e08201905061498a600083018a614735565b818103602083015261499c8189614589565b905081810360408301526149b08188614694565b905081810360608301526149c48187614589565b90506149d36080830186614735565b6149e060a0830185614735565b6149ed60c0830184614735565b98975050505050505050565b600060e082019050614a0e600083018a614735565b614a1b6020830189614735565b614a286040830188614735565b8181036060830152614a3a8187614589565b9050614a496080830186614735565b614a5660a0830185614532565b614a6360c0830184614735565b98975050505050505050565b600060a082019050614a846000830188614735565b614a916020830187614735565b614a9e6040830186614735565b614aab6060830185614735565b614ab86080830184614532565b9695505050505050565b600061010082019050614ad8600083018b614735565b614ae5602083018a614735565b614af26040830189614735565b614aff6060830188614735565b614b0c6080830187614735565b614b1960a0830186614735565b614b2660c0830185614735565b614b3360e0830184614735565b9998505050505050505050565b6000614b4a614b5b565b9050614b568282614e68565b919050565b6000604051905090565b600067ffffffffffffffff821115614b8057614b7f614f9e565b5b602082029050602081019050919050565b600067ffffffffffffffff821115614bac57614bab614f9e565b5b614bb582614fcd565b9050602081019050919050565b6000819050602082019050919050565b600081519050919050565b600081519050919050565b6000602082019050919050565b600082825260208201905092915050565b600082825260208201905092915050565b600082825260208201905092915050565b6000614c3382614db4565b9150614c3e83614db4565b9250827fffffffffffffffffffffffffffffffffffffffffffffffffffffffffffffffff03821115614c7357614c72614ee2565b5b828201905092915050565b6000614c8982614db4565b9150614c9483614db4565b925082614ca457614ca3614f11565b5b828204905092915050565b6000614cba82614db4565b9150614cc583614db4565b9250817fffffffffffffffffffffffffffffffffffffffffffffffffffffffffffffffff0483118215151615614cfe57614cfd614ee2565b5b828202905092915050565b6000614d1482614db4565b9150614d1f83614db4565b925082821015614d3257614d31614ee2565b5b828203905092915050565b6000614d4882614d94565b9050919050565b60008115159050919050565b6000819050614d69826150fa565b919050565b6000819050614d7c8261510e565b919050565b6000819050614d8f82615122565b919050565b600073ffffffffffffffffffffffffffffffffffffffff82169050919050565b6000819050919050565b6000614dc982614d5b565b9050919050565b6000614ddb82614d6e565b9050919050565b6000614ded82614d81565b9050919050565b82818337600083830152505050565b60005b83811015614e21578082015181840152602081019050614e06565b83811115614e30576000848401525b50505050565b60006002820490506001821680614e4e57607f821691505b60208210811415614e6257614e61614f6f565b5b50919050565b614e7182614fcd565b810181811067ffffffffffffffff82111715614e9057614e8f614f9e565b5b80604052505050565b6000614ea482614db4565b91507fffffffffffffffffffffffffffffffffffffffffffffffffffffffffffffffff821415614ed757614ed6614ee2565b5b600182019050919050565b7f4e487b7100000000000000000000000000000000000000000000000000000000600052601160045260246000fd5b7f4e487b7100000000000000000000000000000000000000000000000000000000600052601260045260246000fd5b7f4e487b7100000000000000000000000000000000000000000000000000000000600052602160045260246000fd5b7f4e487b7100000000000000000000000000000000000000000000000000000000600052602260045260246000fd5b7f4e487b7100000000000000000000000000000000000000000000000000000000600052604160045260246000fd5b6000601f19601f8301169050919050565b7f41746c656173742037206d656d62657273207265717569726564000000000000600082015250565b7f416c726561647920526567697374657265640000000000000000000000000000600082015250565b7f5573657220697320616c7265616479206e6f7420612070617274206f6620746860008201527f6520534847000000000000000000000000000000000000000000000000000000602082015250565b7f5573657220616c72656164792061646465640000000000000000000000000000600082015250565b7f556e617070726f76656420726571756573740000000000000000000000000000600082015250565b7f556e617574686f72697a65642072657165737400000000000000000000000000600082015250565b6003811061510b5761510a614f40565b5b50565b6004811061511f5761511e614f40565b5b50565b6006811061513357615132614f40565b5b50565b61513f81614d3d565b811461514a57600080fd5b50565b6003811061515a57600080fd5b50565b6006811061516a57600080fd5b50565b61517681614db4565b811461518157600080fd5b5056fea2646970667358221220d1875ecd009e71ccf147d0c4e99ead9a99a722bcdec5dd36f113edaccad77f4464736f6c63430008040033",
  "immutableReferences": {},
  "source": "// SPDX-License-Identifier: MIT\npragma solidity ^0.8.1;\nimport \"./lib/Bank.sol\";\nimport \"./lib/SHG.sol\";\nimport \"./lib/User.sol\";\n\ncontract Yogdaan is Bank, SHG, User {\n    address admin;\n\n    constructor() {\n        admin = msg.sender;\n    }\n}\n",
  "sourcePath": "/home/sdas/code/yogdaan-contracts/contracts/yogdaan.sol",
  "compiler": {
    "name": "solc",
    "version": "0.8.4+commit.c7e474f2.Emscripten.clang"
  },
  "schemaVersion": "3.4.9",
  "updatedAt": "2022-08-25T15:52:12.936Z",
  "networkType": "ethereum",
  "devdoc": {
    "kind": "dev",
    "methods": {},
    "version": 1
  },
  "userdoc": {
    "kind": "user",
    "methods": {},
    "version": 1
  }
}